{
	"ERC20/ERC20.sol": {
		"ERC20": {
			"abi": [
				{
					"inputs": [
						{
							"internalType": "string",
							"name": "name_",
							"type": "string"
						},
						{
							"internalType": "string",
							"name": "symbol_",
							"type": "string"
						}
					],
					"stateMutability": "nonpayable",
					"type": "constructor"
				},
				{
					"anonymous": false,
					"inputs": [
						{
							"indexed": true,
							"internalType": "address",
							"name": "owner",
							"type": "address"
						},
						{
							"indexed": true,
							"internalType": "address",
							"name": "spender",
							"type": "address"
						},
						{
							"indexed": false,
							"internalType": "uint256",
							"name": "value",
							"type": "uint256"
						}
					],
					"name": "Approval",
					"type": "event"
				},
				{
					"anonymous": false,
					"inputs": [
						{
							"indexed": false,
							"internalType": "address",
							"name": "account",
							"type": "address"
						}
					],
					"name": "Paused",
					"type": "event"
				},
				{
					"anonymous": false,
					"inputs": [
						{
							"indexed": true,
							"internalType": "bytes32",
							"name": "role",
							"type": "bytes32"
						},
						{
							"indexed": true,
							"internalType": "bytes32",
							"name": "previousAdminRole",
							"type": "bytes32"
						},
						{
							"indexed": true,
							"internalType": "bytes32",
							"name": "newAdminRole",
							"type": "bytes32"
						}
					],
					"name": "RoleAdminChanged",
					"type": "event"
				},
				{
					"anonymous": false,
					"inputs": [
						{
							"indexed": true,
							"internalType": "bytes32",
							"name": "role",
							"type": "bytes32"
						},
						{
							"indexed": true,
							"internalType": "address",
							"name": "account",
							"type": "address"
						},
						{
							"indexed": true,
							"internalType": "address",
							"name": "sender",
							"type": "address"
						}
					],
					"name": "RoleGranted",
					"type": "event"
				},
				{
					"anonymous": false,
					"inputs": [
						{
							"indexed": true,
							"internalType": "bytes32",
							"name": "role",
							"type": "bytes32"
						},
						{
							"indexed": true,
							"internalType": "address",
							"name": "account",
							"type": "address"
						},
						{
							"indexed": true,
							"internalType": "address",
							"name": "sender",
							"type": "address"
						}
					],
					"name": "RoleRevoked",
					"type": "event"
				},
				{
					"anonymous": false,
					"inputs": [
						{
							"indexed": true,
							"internalType": "address",
							"name": "from",
							"type": "address"
						},
						{
							"indexed": true,
							"internalType": "address",
							"name": "to",
							"type": "address"
						},
						{
							"indexed": false,
							"internalType": "uint256",
							"name": "value",
							"type": "uint256"
						}
					],
					"name": "Transfer",
					"type": "event"
				},
				{
					"anonymous": false,
					"inputs": [
						{
							"indexed": false,
							"internalType": "address",
							"name": "account",
							"type": "address"
						}
					],
					"name": "Unpaused",
					"type": "event"
				},
				{
					"inputs": [],
					"name": "DEFAULT_ADMIN_ROLE",
					"outputs": [
						{
							"internalType": "bytes32",
							"name": "",
							"type": "bytes32"
						}
					],
					"stateMutability": "view",
					"type": "function"
				},
				{
					"inputs": [],
					"name": "MAX_TOKEN_COUNT",
					"outputs": [
						{
							"internalType": "uint256",
							"name": "",
							"type": "uint256"
						}
					],
					"stateMutability": "view",
					"type": "function"
				},
				{
					"inputs": [
						{
							"internalType": "address",
							"name": "owner",
							"type": "address"
						},
						{
							"internalType": "address",
							"name": "spender",
							"type": "address"
						}
					],
					"name": "allowance",
					"outputs": [
						{
							"internalType": "uint256",
							"name": "",
							"type": "uint256"
						}
					],
					"stateMutability": "view",
					"type": "function"
				},
				{
					"inputs": [
						{
							"internalType": "address",
							"name": "spender",
							"type": "address"
						},
						{
							"internalType": "uint256",
							"name": "amount",
							"type": "uint256"
						}
					],
					"name": "approve",
					"outputs": [
						{
							"internalType": "bool",
							"name": "",
							"type": "bool"
						}
					],
					"stateMutability": "nonpayable",
					"type": "function"
				},
				{
					"inputs": [
						{
							"internalType": "address",
							"name": "account",
							"type": "address"
						}
					],
					"name": "balanceOf",
					"outputs": [
						{
							"internalType": "uint256",
							"name": "",
							"type": "uint256"
						}
					],
					"stateMutability": "view",
					"type": "function"
				},
				{
					"inputs": [],
					"name": "decimals",
					"outputs": [
						{
							"internalType": "uint8",
							"name": "",
							"type": "uint8"
						}
					],
					"stateMutability": "view",
					"type": "function"
				},
				{
					"inputs": [
						{
							"internalType": "address",
							"name": "spender",
							"type": "address"
						},
						{
							"internalType": "uint256",
							"name": "subtractedValue",
							"type": "uint256"
						}
					],
					"name": "decreaseAllowance",
					"outputs": [
						{
							"internalType": "bool",
							"name": "",
							"type": "bool"
						}
					],
					"stateMutability": "nonpayable",
					"type": "function"
				},
				{
					"inputs": [
						{
							"internalType": "bytes32",
							"name": "role",
							"type": "bytes32"
						}
					],
					"name": "getRoleAdmin",
					"outputs": [
						{
							"internalType": "bytes32",
							"name": "",
							"type": "bytes32"
						}
					],
					"stateMutability": "view",
					"type": "function"
				},
				{
					"inputs": [
						{
							"internalType": "bytes32",
							"name": "role",
							"type": "bytes32"
						},
						{
							"internalType": "uint256",
							"name": "index",
							"type": "uint256"
						}
					],
					"name": "getRoleMember",
					"outputs": [
						{
							"internalType": "address",
							"name": "",
							"type": "address"
						}
					],
					"stateMutability": "view",
					"type": "function"
				},
				{
					"inputs": [
						{
							"internalType": "bytes32",
							"name": "role",
							"type": "bytes32"
						}
					],
					"name": "getRoleMemberCount",
					"outputs": [
						{
							"internalType": "uint256",
							"name": "",
							"type": "uint256"
						}
					],
					"stateMutability": "view",
					"type": "function"
				},
				{
					"inputs": [
						{
							"internalType": "bytes32",
							"name": "role",
							"type": "bytes32"
						},
						{
							"internalType": "address",
							"name": "account",
							"type": "address"
						}
					],
					"name": "grantRole",
					"outputs": [],
					"stateMutability": "nonpayable",
					"type": "function"
				},
				{
					"inputs": [
						{
							"internalType": "bytes32",
							"name": "role",
							"type": "bytes32"
						},
						{
							"internalType": "address",
							"name": "account",
							"type": "address"
						}
					],
					"name": "hasRole",
					"outputs": [
						{
							"internalType": "bool",
							"name": "",
							"type": "bool"
						}
					],
					"stateMutability": "view",
					"type": "function"
				},
				{
					"inputs": [
						{
							"internalType": "address",
							"name": "spender",
							"type": "address"
						},
						{
							"internalType": "uint256",
							"name": "addedValue",
							"type": "uint256"
						}
					],
					"name": "increaseAllowance",
					"outputs": [
						{
							"internalType": "bool",
							"name": "",
							"type": "bool"
						}
					],
					"stateMutability": "nonpayable",
					"type": "function"
				},
				{
					"inputs": [],
					"name": "name",
					"outputs": [
						{
							"internalType": "string",
							"name": "",
							"type": "string"
						}
					],
					"stateMutability": "view",
					"type": "function"
				},
				{
					"inputs": [],
					"name": "paused",
					"outputs": [
						{
							"internalType": "bool",
							"name": "",
							"type": "bool"
						}
					],
					"stateMutability": "view",
					"type": "function"
				},
				{
					"inputs": [],
					"name": "pausedOptions",
					"outputs": [
						{
							"internalType": "bool",
							"name": "",
							"type": "bool"
						}
					],
					"stateMutability": "nonpayable",
					"type": "function"
				},
				{
					"inputs": [
						{
							"internalType": "bytes32",
							"name": "role",
							"type": "bytes32"
						},
						{
							"internalType": "address",
							"name": "account",
							"type": "address"
						}
					],
					"name": "revokeRole",
					"outputs": [],
					"stateMutability": "nonpayable",
					"type": "function"
				},
				{
					"inputs": [
						{
							"internalType": "bytes4",
							"name": "interfaceId",
							"type": "bytes4"
						}
					],
					"name": "supportsInterface",
					"outputs": [
						{
							"internalType": "bool",
							"name": "",
							"type": "bool"
						}
					],
					"stateMutability": "view",
					"type": "function"
				},
				{
					"inputs": [],
					"name": "symbol",
					"outputs": [
						{
							"internalType": "string",
							"name": "",
							"type": "string"
						}
					],
					"stateMutability": "view",
					"type": "function"
				},
				{
					"inputs": [],
					"name": "totalSupply",
					"outputs": [
						{
							"internalType": "uint256",
							"name": "",
							"type": "uint256"
						}
					],
					"stateMutability": "view",
					"type": "function"
				},
				{
					"inputs": [
						{
							"internalType": "address",
							"name": "sender",
							"type": "address"
						},
						{
							"internalType": "address",
							"name": "recipient",
							"type": "address"
						},
						{
							"internalType": "uint256",
							"name": "amount",
							"type": "uint256"
						}
					],
					"name": "transfer",
					"outputs": [
						{
							"internalType": "bool",
							"name": "",
							"type": "bool"
						}
					],
					"stateMutability": "nonpayable",
					"type": "function"
				},
				{
					"inputs": [
						{
							"internalType": "address",
							"name": "sender",
							"type": "address"
						},
						{
							"internalType": "address",
							"name": "recipient",
							"type": "address"
						},
						{
							"internalType": "uint256",
							"name": "amount",
							"type": "uint256"
						}
					],
					"name": "transferFrom",
					"outputs": [
						{
							"internalType": "bool",
							"name": "",
							"type": "bool"
						}
					],
					"stateMutability": "nonpayable",
					"type": "function"
				},
				{
					"inputs": [],
					"name": "unPausedOptions",
					"outputs": [
						{
							"internalType": "bool",
							"name": "",
							"type": "bool"
						}
					],
					"stateMutability": "nonpayable",
					"type": "function"
				}
			],
			"devdoc": {
				"details": "Implementation of the {IERC20} interface. This implementation is agnostic to the way tokens are created. This means that a supply mechanism has to be added in a derived contract using {_mint}. For a generic mechanism see {ERC20PresetMinterPauser}. TIP: For a detailed writeup see our guide https://forum.zeppelin.solutions/t/how-to-implement-erc20-supply-mechanisms/226[How to implement supply mechanisms]. We have followed general OpenZeppelin Contracts guidelines: functions revert instead returning `false` on failure. This behavior is nonetheless conventional and does not conflict with the expectations of ERC20 applications. Additionally, an {Approval} event is emitted on calls to {transferFrom}. This allows applications to reconstruct the allowance for all accounts just by listening to said events. Other implementations of the EIP may not emit these events, as it isn't required by the specification. Finally, the non-standard {decreaseAllowance} and {increaseAllowance} functions have been added to mitigate the well-known issues around setting allowances. See {IERC20-approve}.",
				"kind": "dev",
				"methods": {
					"allowance(address,address)": {
						"details": "See {IERC20-allowance}."
					},
					"approve(address,uint256)": {
						"details": "See {IERC20-approve}. Requirements: - `spender` cannot be the zero address."
					},
					"balanceOf(address)": {
						"details": "See {IERC20-balanceOf}."
					},
					"constructor": {
						"details": "Sets the values for {name} and {symbol}. The default value of {decimals} is 18. To select a different value for {decimals} you should overload it. All two of these values are immutable: they can only be set once during construction."
					},
					"decimals()": {
						"details": "Returns the number of decimals used to get its user representation. For example, if `decimals` equals `2`, a balance of `505` tokens should be displayed to a user as `5.05` (`505 / 10 ** 2`). Tokens usually opt for a value of 18, imitating the relationship between Ether and Wei. This is the value {ERC20} uses, unless this function is overridden; NOTE: This information is only used for _display_ purposes: it in no way affects any of the arithmetic of the contract, including {IERC20-balanceOf} and {IERC20-transfer}."
					},
					"decreaseAllowance(address,uint256)": {
						"details": "Atomically decreases the allowance granted to `spender` by the caller. This is an alternative to {approve} that can be used as a mitigation for problems described in {IERC20-approve}. Emits an {Approval} event indicating the updated allowance. Requirements: - `spender` cannot be the zero address. - `spender` must have allowance for the caller of at least `subtractedValue`."
					},
					"getRoleAdmin(bytes32)": {
						"details": "Returns the admin role that controls `role`. See {grantRole} and {revokeRole}. To change a role's admin, use {_setRoleAdmin}."
					},
					"getRoleMember(bytes32,uint256)": {
						"details": "Returns one of the accounts that have `role`. `index` must be a value between 0 and {getRoleMemberCount}, non-inclusive. Role bearers are not sorted in any particular way, and their ordering may change at any point. WARNING: When using {getRoleMember} and {getRoleMemberCount}, make sure you perform all queries on the same block. See the following https://forum.openzeppelin.com/t/iterating-over-elements-on-enumerableset-in-openzeppelin-contracts/2296[forum post] for more information."
					},
					"getRoleMemberCount(bytes32)": {
						"details": "Returns the number of accounts that have `role`. Can be used together with {getRoleMember} to enumerate all bearers of a role."
					},
					"grantRole(bytes32,address)": {
						"details": "Overload {grantRole} to track enumerable memberships"
					},
					"hasRole(bytes32,address)": {
						"details": "Returns `true` if `account` has been granted `role`."
					},
					"increaseAllowance(address,uint256)": {
						"details": "Atomically increases the allowance granted to `spender` by the caller. This is an alternative to {approve} that can be used as a mitigation for problems described in {IERC20-approve}. Emits an {Approval} event indicating the updated allowance. Requirements: - `spender` cannot be the zero address."
					},
					"name()": {
						"details": "Returns the name of the token."
					},
					"paused()": {
						"details": "Returns true if the contract is paused, and false otherwise."
					},
					"revokeRole(bytes32,address)": {
						"details": "Overload {revokeRole} to track enumerable memberships"
					},
					"supportsInterface(bytes4)": {
						"details": "See {IERC165-supportsInterface}."
					},
					"symbol()": {
						"details": "Returns the symbol of the token, usually a shorter version of the name."
					},
					"totalSupply()": {
						"details": "See {IERC20-totalSupply}."
					},
					"transfer(address,address,uint256)": {
						"details": "See {IERC20-transfer}. Requirements: - `recipient` cannot be the zero address. - the caller must have a balance of at least `amount`."
					},
					"transferFrom(address,address,uint256)": {
						"details": "See {IERC20-transferFrom}. Emits an {Approval} event indicating the updated allowance. This is not required by the EIP. See the note at the beginning of {ERC20}. Requirements: - `sender` and `recipient` cannot be the zero address. - `sender` must have a balance of at least `amount`. - the caller must have allowance for ``sender``'s tokens of at least `amount`."
					}
				},
				"version": 1
			},
			"evm": {
				"assembly": "    /* \"ERC20/ERC20.sol\":1443:13718  contract ERC20 is Context, AccessControlEnumerable, IERC20, IERC20Metadata, Pausable {... */\n  mstore(0x40, 0x80)\n    /* \"ERC20/ERC20.sol\":2109:2280  constructor(string memory name_, string memory symbol_) {... */\n  callvalue\n  dup1\n  iszero\n  tag_1\n  jumpi\n  0x00\n  dup1\n  revert\ntag_1:\n  pop\n  mload(0x40)\n  sub(codesize, bytecodeSize)\n  dup1\n  bytecodeSize\n  dup4\n  codecopy\n  dup2\n  dup2\n  add\n  0x40\n  mstore\n  dup2\n  add\n  swap1\n  tag_2\n  swap2\n  swap1\n  tag_3\n  jump\t// in\ntag_2:\n    /* \"ERC20/security/Pausable.sol\":934:939  false */\n  0x00\n    /* \"ERC20/security/Pausable.sol\":924:931  _paused */\n  0x02\n  0x00\n    /* \"ERC20/security/Pausable.sol\":924:939  _paused = false */\n  0x0100\n  exp\n  dup2\n  sload\n  dup2\n  0xff\n  mul\n  not\n  and\n  swap1\n  dup4\n  iszero\n  iszero\n  mul\n  or\n  swap1\n  sstore\n  pop\n    /* \"ERC20/ERC20.sol\":2184:2189  name_ */\n  dup2\n    /* \"ERC20/ERC20.sol\":2176:2181  _name */\n  0x06\n    /* \"ERC20/ERC20.sol\":2176:2189  _name = name_ */\n  swap1\n  dup1\n  mload\n  swap1\n  0x20\n  add\n  swap1\n  tag_8\n  swap3\n  swap2\n  swap1\n  tag_9\n  jump\t// in\ntag_8:\n  pop\n    /* \"ERC20/ERC20.sol\":2210:2217  symbol_ */\n  dup1\n    /* \"ERC20/ERC20.sol\":2200:2207  _symbol */\n  0x07\n    /* \"ERC20/ERC20.sol\":2200:2217  _symbol = symbol_ */\n  swap1\n  dup1\n  mload\n  swap1\n  0x20\n  add\n  swap1\n  tag_10\n  swap3\n  swap2\n  swap1\n  tag_9\n  jump\t// in\ntag_10:\n  pop\n    /* \"ERC20/ERC20.sol\":2228:2272  _setupRole(DEFAULT_ADMIN_ROLE, _msgSender()) */\n  tag_11\n    /* \"ERC20/access/AccessControl.sol\":2052:2056  0x00 */\n  0x00\n    /* \"ERC20/ERC20.sol\":2239:2257  DEFAULT_ADMIN_ROLE */\n  dup1\n  shl\n    /* \"ERC20/ERC20.sol\":2259:2271  _msgSender() */\n  tag_12\n    /* \"ERC20/ERC20.sol\":2259:2269  _msgSender */\n  shl(0x20, tag_13)\n    /* \"ERC20/ERC20.sol\":2259:2271  _msgSender() */\n  0x20\n  shr\n  jump\t// in\ntag_12:\n    /* \"ERC20/ERC20.sol\":2228:2238  _setupRole */\n  shl(0x20, tag_14)\n    /* \"ERC20/ERC20.sol\":2228:2272  _setupRole(DEFAULT_ADMIN_ROLE, _msgSender()) */\n  0x20\n  shr\n  jump\t// in\ntag_11:\n    /* \"ERC20/ERC20.sol\":2109:2280  constructor(string memory name_, string memory symbol_) {... */\n  pop\n  pop\n    /* \"ERC20/ERC20.sol\":1443:13718  contract ERC20 is Context, AccessControlEnumerable, IERC20, IERC20Metadata, Pausable {... */\n  jump(tag_15)\n    /* \"ERC20/utils/Context.sol\":602:700  function _msgSender() internal view virtual returns (address) {... */\ntag_13:\n    /* \"ERC20/utils/Context.sol\":655:662  address */\n  0x00\n    /* \"ERC20/utils/Context.sol\":682:692  msg.sender */\n  caller\n    /* \"ERC20/utils/Context.sol\":675:692  return msg.sender */\n  swap1\n  pop\n    /* \"ERC20/utils/Context.sol\":602:700  function _msgSender() internal view virtual returns (address) {... */\n  swap1\n  jump\t// out\n    /* \"ERC20/access/AccessControlEnumerable.sol\":2909:3078  function _setupRole(bytes32 role, address account) internal virtual override {... */\ntag_14:\n    /* \"ERC20/access/AccessControlEnumerable.sol\":2997:3028  super._setupRole(role, account) */\n  tag_18\n    /* \"ERC20/access/AccessControlEnumerable.sol\":3014:3018  role */\n  dup3\n    /* \"ERC20/access/AccessControlEnumerable.sol\":3020:3027  account */\n  dup3\n    /* \"ERC20/access/AccessControlEnumerable.sol\":2997:3013  super._setupRole */\n  or(tag_0_124, shl(0x20, tag_19))\n    /* \"ERC20/access/AccessControlEnumerable.sol\":2997:3028  super._setupRole(role, account) */\n  0x20\n  shr\n  jump\t// in\ntag_18:\n    /* \"ERC20/access/AccessControlEnumerable.sol\":3039:3070  _roleMembers[role].add(account) */\n  tag_20\n    /* \"ERC20/access/AccessControlEnumerable.sol\":3062:3069  account */\n  dup2\n    /* \"ERC20/access/AccessControlEnumerable.sol\":3039:3051  _roleMembers */\n  0x01\n    /* \"ERC20/access/AccessControlEnumerable.sol\":3039:3057  _roleMembers[role] */\n  0x00\n    /* \"ERC20/access/AccessControlEnumerable.sol\":3052:3056  role */\n  dup6\n    /* \"ERC20/access/AccessControlEnumerable.sol\":3039:3057  _roleMembers[role] */\n  dup2\n  mstore\n  0x20\n  add\n  swap1\n  dup2\n  mstore\n  0x20\n  add\n  0x00\n  keccak256\n    /* \"ERC20/access/AccessControlEnumerable.sol\":3039:3061  _roleMembers[role].add */\n  or(tag_0_125, shl(0x20, tag_21))\n  swap1\n    /* \"ERC20/access/AccessControlEnumerable.sol\":3039:3070  _roleMembers[role].add(account) */\n  swap2\n  swap1\n  0x20\n  shr\n  jump\t// in\ntag_20:\n  pop\n    /* \"ERC20/access/AccessControlEnumerable.sol\":2909:3078  function _setupRole(bytes32 role, address account) internal virtual override {... */\n  pop\n  pop\n  jump\t// out\n    /* \"ERC20/access/AccessControl.sol\":6353:6465  function _setupRole(bytes32 role, address account) internal virtual {... */\ntag_19:\n    /* \"ERC20/access/AccessControl.sol\":6432:6457  _grantRole(role, account) */\n  tag_23\n    /* \"ERC20/access/AccessControl.sol\":6443:6447  role */\n  dup3\n    /* \"ERC20/access/AccessControl.sol\":6449:6456  account */\n  dup3\n    /* \"ERC20/access/AccessControl.sol\":6432:6442  _grantRole */\n  shl(0x20, tag_24)\n    /* \"ERC20/access/AccessControl.sol\":6432:6457  _grantRole(role, account) */\n  0x20\n  shr\n  jump\t// in\ntag_23:\n    /* \"ERC20/access/AccessControl.sol\":6353:6465  function _setupRole(bytes32 role, address account) internal virtual {... */\n  pop\n  pop\n  jump\t// out\n    /* \"ERC20/utils/structs/EnumerableSet.sol\":7767:7919  function add(AddressSet storage set, address value) internal returns (bool) {... */\ntag_21:\n    /* \"ERC20/utils/structs/EnumerableSet.sol\":7837:7841  bool */\n  0x00\n    /* \"ERC20/utils/structs/EnumerableSet.sol\":7861:7911  _add(set._inner, bytes32(uint256(uint160(value)))) */\n  tag_26\n    /* \"ERC20/utils/structs/EnumerableSet.sol\":7866:7869  set */\n  dup4\n    /* \"ERC20/utils/structs/EnumerableSet.sol\":7866:7876  set._inner */\n  0x00\n  add\n    /* \"ERC20/utils/structs/EnumerableSet.sol\":7902:7907  value */\n  dup4\n    /* \"ERC20/utils/structs/EnumerableSet.sol\":7886:7909  uint256(uint160(value)) */\n  0xffffffffffffffffffffffffffffffffffffffff\n  and\n    /* \"ERC20/utils/structs/EnumerableSet.sol\":7878:7910  bytes32(uint256(uint160(value))) */\n  0x00\n  shl\n    /* \"ERC20/utils/structs/EnumerableSet.sol\":7861:7865  _add */\n  shl(0x20, tag_27)\n    /* \"ERC20/utils/structs/EnumerableSet.sol\":7861:7911  _add(set._inner, bytes32(uint256(uint160(value)))) */\n  0x20\n  shr\n  jump\t// in\ntag_26:\n    /* \"ERC20/utils/structs/EnumerableSet.sol\":7854:7911  return _add(set._inner, bytes32(uint256(uint160(value)))) */\n  swap1\n  pop\n    /* \"ERC20/utils/structs/EnumerableSet.sol\":7767:7919  function add(AddressSet storage set, address value) internal returns (bool) {... */\n  swap3\n  swap2\n  pop\n  pop\n  jump\t// out\n    /* \"ERC20/access/AccessControl.sol\":6977:7215  function _grantRole(bytes32 role, address account) internal virtual {... */\ntag_24:\n    /* \"ERC20/access/AccessControl.sol\":7061:7083  hasRole(role, account) */\n  tag_29\n    /* \"ERC20/access/AccessControl.sol\":7069:7073  role */\n  dup3\n    /* \"ERC20/access/AccessControl.sol\":7075:7082  account */\n  dup3\n    /* \"ERC20/access/AccessControl.sol\":7061:7068  hasRole */\n  shl(0x20, tag_30)\n    /* \"ERC20/access/AccessControl.sol\":7061:7083  hasRole(role, account) */\n  0x20\n  shr\n  jump\t// in\ntag_29:\n    /* \"ERC20/access/AccessControl.sol\":7056:7208  if (!hasRole(role, account)) {... */\n  tag_31\n  jumpi\n    /* \"ERC20/access/AccessControl.sol\":7132:7136  true */\n  0x01\n    /* \"ERC20/access/AccessControl.sol\":7100:7106  _roles */\n  0x00\n    /* \"ERC20/access/AccessControl.sol\":7100:7112  _roles[role] */\n  dup1\n    /* \"ERC20/access/AccessControl.sol\":7107:7111  role */\n  dup5\n    /* \"ERC20/access/AccessControl.sol\":7100:7112  _roles[role] */\n  dup2\n  mstore\n  0x20\n  add\n  swap1\n  dup2\n  mstore\n  0x20\n  add\n  0x00\n  keccak256\n    /* \"ERC20/access/AccessControl.sol\":7100:7120  _roles[role].members */\n  0x00\n  add\n    /* \"ERC20/access/AccessControl.sol\":7100:7129  _roles[role].members[account] */\n  0x00\n    /* \"ERC20/access/AccessControl.sol\":7121:7128  account */\n  dup4\n    /* \"ERC20/access/AccessControl.sol\":7100:7129  _roles[role].members[account] */\n  0xffffffffffffffffffffffffffffffffffffffff\n  and\n  0xffffffffffffffffffffffffffffffffffffffff\n  and\n  dup2\n  mstore\n  0x20\n  add\n  swap1\n  dup2\n  mstore\n  0x20\n  add\n  0x00\n  keccak256\n  0x00\n    /* \"ERC20/access/AccessControl.sol\":7100:7136  _roles[role].members[account] = true */\n  0x0100\n  exp\n  dup2\n  sload\n  dup2\n  0xff\n  mul\n  not\n  and\n  swap1\n  dup4\n  iszero\n  iszero\n  mul\n  or\n  swap1\n  sstore\n  pop\n    /* \"ERC20/access/AccessControl.sol\":7183:7195  _msgSender() */\n  tag_32\n    /* \"ERC20/access/AccessControl.sol\":7183:7193  _msgSender */\n  shl(0x20, tag_13)\n    /* \"ERC20/access/AccessControl.sol\":7183:7195  _msgSender() */\n  0x20\n  shr\n  jump\t// in\ntag_32:\n    /* \"ERC20/access/AccessControl.sol\":7156:7196  RoleGranted(role, account, _msgSender()) */\n  0xffffffffffffffffffffffffffffffffffffffff\n  and\n    /* \"ERC20/access/AccessControl.sol\":7174:7181  account */\n  dup2\n    /* \"ERC20/access/AccessControl.sol\":7156:7196  RoleGranted(role, account, _msgSender()) */\n  0xffffffffffffffffffffffffffffffffffffffff\n  and\n    /* \"ERC20/access/AccessControl.sol\":7168:7172  role */\n  dup4\n    /* \"ERC20/access/AccessControl.sol\":7156:7196  RoleGranted(role, account, _msgSender()) */\n  0x2f8788117e7eff1d82e926ec794901d17c78024a50270940304540a733656f0d\n  mload(0x40)\n  mload(0x40)\n  dup1\n  swap2\n  sub\n  swap1\n  log4\n    /* \"ERC20/access/AccessControl.sol\":7056:7208  if (!hasRole(role, account)) {... */\ntag_31:\n    /* \"ERC20/access/AccessControl.sol\":6977:7215  function _grantRole(bytes32 role, address account) internal virtual {... */\n  pop\n  pop\n  jump\t// out\n    /* \"ERC20/utils/structs/EnumerableSet.sol\":1682:2096  function _add(Set storage set, bytes32 value) private returns (bool) {... */\ntag_27:\n    /* \"ERC20/utils/structs/EnumerableSet.sol\":1745:1749  bool */\n  0x00\n    /* \"ERC20/utils/structs/EnumerableSet.sol\":1767:1788  _contains(set, value) */\n  tag_34\n    /* \"ERC20/utils/structs/EnumerableSet.sol\":1777:1780  set */\n  dup4\n    /* \"ERC20/utils/structs/EnumerableSet.sol\":1782:1787  value */\n  dup4\n    /* \"ERC20/utils/structs/EnumerableSet.sol\":1767:1776  _contains */\n  shl(0x20, tag_35)\n    /* \"ERC20/utils/structs/EnumerableSet.sol\":1767:1788  _contains(set, value) */\n  0x20\n  shr\n  jump\t// in\ntag_34:\n    /* \"ERC20/utils/structs/EnumerableSet.sol\":1762:2089  if (!_contains(set, value)) {... */\n  tag_36\n  jumpi\n    /* \"ERC20/utils/structs/EnumerableSet.sol\":1805:1808  set */\n  dup3\n    /* \"ERC20/utils/structs/EnumerableSet.sol\":1805:1816  set._values */\n  0x00\n  add\n    /* \"ERC20/utils/structs/EnumerableSet.sol\":1822:1827  value */\n  dup3\n    /* \"ERC20/utils/structs/EnumerableSet.sol\":1805:1828  set._values.push(value) */\n  swap1\n  dup1\n  0x01\n  dup2\n  sload\n  add\n  dup1\n  dup3\n  sstore\n  dup1\n  swap2\n  pop\n  pop\n  0x01\n  swap1\n  sub\n  swap1\n  0x00\n  mstore\n  keccak256(0x00, 0x20)\n  add\n  0x00\n  swap1\n  swap2\n  swap1\n  swap2\n  swap1\n  swap2\n  pop\n  sstore\n    /* \"ERC20/utils/structs/EnumerableSet.sol\":1988:1991  set */\n  dup3\n    /* \"ERC20/utils/structs/EnumerableSet.sol\":1988:1999  set._values */\n  0x00\n  add\n    /* \"ERC20/utils/structs/EnumerableSet.sol\":1988:2006  set._values.length */\n  dup1\n  sload\n  swap1\n  pop\n    /* \"ERC20/utils/structs/EnumerableSet.sol\":1966:1969  set */\n  dup4\n    /* \"ERC20/utils/structs/EnumerableSet.sol\":1966:1978  set._indexes */\n  0x01\n  add\n    /* \"ERC20/utils/structs/EnumerableSet.sol\":1966:1985  set._indexes[value] */\n  0x00\n    /* \"ERC20/utils/structs/EnumerableSet.sol\":1979:1984  value */\n  dup5\n    /* \"ERC20/utils/structs/EnumerableSet.sol\":1966:1985  set._indexes[value] */\n  dup2\n  mstore\n  0x20\n  add\n  swap1\n  dup2\n  mstore\n  0x20\n  add\n  0x00\n  keccak256\n    /* \"ERC20/utils/structs/EnumerableSet.sol\":1966:2006  set._indexes[value] = set._values.length */\n  dup2\n  swap1\n  sstore\n  pop\n    /* \"ERC20/utils/structs/EnumerableSet.sol\":2028:2032  true */\n  0x01\n    /* \"ERC20/utils/structs/EnumerableSet.sol\":2021:2032  return true */\n  swap1\n  pop\n  jump(tag_33)\n    /* \"ERC20/utils/structs/EnumerableSet.sol\":1762:2089  if (!_contains(set, value)) {... */\ntag_36:\n    /* \"ERC20/utils/structs/EnumerableSet.sol\":2072:2077  false */\n  0x00\n    /* \"ERC20/utils/structs/EnumerableSet.sol\":2065:2077  return false */\n  swap1\n  pop\n    /* \"ERC20/utils/structs/EnumerableSet.sol\":1682:2096  function _add(Set storage set, bytes32 value) private returns (bool) {... */\ntag_33:\n  swap3\n  swap2\n  pop\n  pop\n  jump\t// out\n    /* \"ERC20/access/AccessControl.sol\":2916:3055  function hasRole(bytes32 role, address account) public view override returns (bool) {... */\ntag_30:\n    /* \"ERC20/access/AccessControl.sol\":2994:2998  bool */\n  0x00\n    /* \"ERC20/access/AccessControl.sol\":3018:3024  _roles */\n  dup1\n    /* \"ERC20/access/AccessControl.sol\":3018:3030  _roles[role] */\n  0x00\n    /* \"ERC20/access/AccessControl.sol\":3025:3029  role */\n  dup5\n    /* \"ERC20/access/AccessControl.sol\":3018:3030  _roles[role] */\n  dup2\n  mstore\n  0x20\n  add\n  swap1\n  dup2\n  mstore\n  0x20\n  add\n  0x00\n  keccak256\n    /* \"ERC20/access/AccessControl.sol\":3018:3038  _roles[role].members */\n  0x00\n  add\n    /* \"ERC20/access/AccessControl.sol\":3018:3047  _roles[role].members[account] */\n  0x00\n    /* \"ERC20/access/AccessControl.sol\":3039:3046  account */\n  dup4\n    /* \"ERC20/access/AccessControl.sol\":3018:3047  _roles[role].members[account] */\n  0xffffffffffffffffffffffffffffffffffffffff\n  and\n  0xffffffffffffffffffffffffffffffffffffffff\n  and\n  dup2\n  mstore\n  0x20\n  add\n  swap1\n  dup2\n  mstore\n  0x20\n  add\n  0x00\n  keccak256\n  0x00\n  swap1\n  sload\n  swap1\n  0x0100\n  exp\n  swap1\n  div\n  0xff\n  and\n    /* \"ERC20/access/AccessControl.sol\":3011:3047  return _roles[role].members[account] */\n  swap1\n  pop\n    /* \"ERC20/access/AccessControl.sol\":2916:3055  function hasRole(bytes32 role, address account) public view override returns (bool) {... */\n  swap3\n  swap2\n  pop\n  pop\n  jump\t// out\n    /* \"ERC20/utils/structs/EnumerableSet.sol\":3778:3907  function _contains(Set storage set, bytes32 value) private view returns (bool) {... */\ntag_35:\n    /* \"ERC20/utils/structs/EnumerableSet.sol\":3851:3855  bool */\n  0x00\n    /* \"ERC20/utils/structs/EnumerableSet.sol\":3898:3899  0 */\n  dup1\n    /* \"ERC20/utils/structs/EnumerableSet.sol\":3875:3878  set */\n  dup4\n    /* \"ERC20/utils/structs/EnumerableSet.sol\":3875:3887  set._indexes */\n  0x01\n  add\n    /* \"ERC20/utils/structs/EnumerableSet.sol\":3875:3894  set._indexes[value] */\n  0x00\n    /* \"ERC20/utils/structs/EnumerableSet.sol\":3888:3893  value */\n  dup5\n    /* \"ERC20/utils/structs/EnumerableSet.sol\":3875:3894  set._indexes[value] */\n  dup2\n  mstore\n  0x20\n  add\n  swap1\n  dup2\n  mstore\n  0x20\n  add\n  0x00\n  keccak256\n  sload\n    /* \"ERC20/utils/structs/EnumerableSet.sol\":3875:3899  set._indexes[value] != 0 */\n  eq\n  iszero\n    /* \"ERC20/utils/structs/EnumerableSet.sol\":3868:3899  return set._indexes[value] != 0 */\n  swap1\n  pop\n    /* \"ERC20/utils/structs/EnumerableSet.sol\":3778:3907  function _contains(Set storage set, bytes32 value) private view returns (bool) {... */\n  swap3\n  swap2\n  pop\n  pop\n  jump\t// out\n    /* \"ERC20/ERC20.sol\":1443:13718  contract ERC20 is Context, AccessControlEnumerable, IERC20, IERC20Metadata, Pausable {... */\ntag_9:\n  dup3\n  dup1\n  sload\n  tag_41\n  swap1\n  tag_42\n  jump\t// in\ntag_41:\n  swap1\n  0x00\n  mstore\n  keccak256(0x00, 0x20)\n  swap1\n  0x1f\n  add\n  0x20\n  swap1\n  div\n  dup2\n  add\n  swap3\n  dup3\n  tag_44\n  jumpi\n  0x00\n  dup6\n  sstore\n  jump(tag_43)\ntag_44:\n  dup3\n  0x1f\n  lt\n  tag_45\n  jumpi\n  dup1\n  mload\n  not(0xff)\n  and\n  dup4\n  dup1\n  add\n  or\n  dup6\n  sstore\n  jump(tag_43)\ntag_45:\n  dup3\n  dup1\n  add\n  0x01\n  add\n  dup6\n  sstore\n  dup3\n  iszero\n  tag_43\n  jumpi\n  swap2\n  dup3\n  add\ntag_46:\n  dup3\n  dup2\n  gt\n  iszero\n  tag_47\n  jumpi\n  dup3\n  mload\n  dup3\n  sstore\n  swap2\n  0x20\n  add\n  swap2\n  swap1\n  0x01\n  add\n  swap1\n  jump(tag_46)\ntag_47:\ntag_43:\n  pop\n  swap1\n  pop\n  tag_48\n  swap2\n  swap1\n  tag_49\n  jump\t// in\ntag_48:\n  pop\n  swap1\n  jump\t// out\ntag_49:\ntag_50:\n  dup1\n  dup3\n  gt\n  iszero\n  tag_51\n  jumpi\n  0x00\n  dup2\n  0x00\n  swap1\n  sstore\n  pop\n  0x01\n  add\n  jump(tag_50)\ntag_51:\n  pop\n  swap1\n  jump\t// out\n    /* \"#utility.yul\":7:82   */\ntag_52:\n    /* \"#utility.yul\":40:46   */\n  0x00\n    /* \"#utility.yul\":73:75   */\n  0x40\n    /* \"#utility.yul\":67:76   */\n  mload\n    /* \"#utility.yul\":57:76   */\n  swap1\n  pop\n    /* \"#utility.yul\":7:82   */\n  swap1\n  jump\t// out\n    /* \"#utility.yul\":88:205   */\ntag_53:\n    /* \"#utility.yul\":197:198   */\n  0x00\n    /* \"#utility.yul\":194:195   */\n  dup1\n    /* \"#utility.yul\":187:199   */\n  revert\n    /* \"#utility.yul\":211:328   */\ntag_54:\n    /* \"#utility.yul\":320:321   */\n  0x00\n    /* \"#utility.yul\":317:318   */\n  dup1\n    /* \"#utility.yul\":310:322   */\n  revert\n    /* \"#utility.yul\":334:451   */\ntag_55:\n    /* \"#utility.yul\":443:444   */\n  0x00\n    /* \"#utility.yul\":440:441   */\n  dup1\n    /* \"#utility.yul\":433:445   */\n  revert\n    /* \"#utility.yul\":457:574   */\ntag_56:\n    /* \"#utility.yul\":566:567   */\n  0x00\n    /* \"#utility.yul\":563:564   */\n  dup1\n    /* \"#utility.yul\":556:568   */\n  revert\n    /* \"#utility.yul\":580:682   */\ntag_57:\n    /* \"#utility.yul\":621:627   */\n  0x00\n    /* \"#utility.yul\":672:674   */\n  0x1f\n    /* \"#utility.yul\":668:675   */\n  not\n    /* \"#utility.yul\":663:665   */\n  0x1f\n    /* \"#utility.yul\":656:661   */\n  dup4\n    /* \"#utility.yul\":652:666   */\n  add\n    /* \"#utility.yul\":648:676   */\n  and\n    /* \"#utility.yul\":638:676   */\n  swap1\n  pop\n    /* \"#utility.yul\":580:682   */\n  swap2\n  swap1\n  pop\n  jump\t// out\n    /* \"#utility.yul\":688:868   */\ntag_58:\n    /* \"#utility.yul\":736:813   */\n  0x4e487b7100000000000000000000000000000000000000000000000000000000\n    /* \"#utility.yul\":733:734   */\n  0x00\n    /* \"#utility.yul\":726:814   */\n  mstore\n    /* \"#utility.yul\":833:837   */\n  0x41\n    /* \"#utility.yul\":830:831   */\n  0x04\n    /* \"#utility.yul\":823:838   */\n  mstore\n    /* \"#utility.yul\":857:861   */\n  0x24\n    /* \"#utility.yul\":854:855   */\n  0x00\n    /* \"#utility.yul\":847:862   */\n  revert\n    /* \"#utility.yul\":874:1155   */\ntag_59:\n    /* \"#utility.yul\":957:984   */\n  tag_75\n    /* \"#utility.yul\":979:983   */\n  dup3\n    /* \"#utility.yul\":957:984   */\n  tag_57\n  jump\t// in\ntag_75:\n    /* \"#utility.yul\":949:955   */\n  dup2\n    /* \"#utility.yul\":945:985   */\n  add\n    /* \"#utility.yul\":1087:1093   */\n  dup2\n    /* \"#utility.yul\":1075:1085   */\n  dup2\n    /* \"#utility.yul\":1072:1094   */\n  lt\n    /* \"#utility.yul\":1051:1069   */\n  0xffffffffffffffff\n    /* \"#utility.yul\":1039:1049   */\n  dup3\n    /* \"#utility.yul\":1036:1070   */\n  gt\n    /* \"#utility.yul\":1033:1095   */\n  or\n    /* \"#utility.yul\":1030:1118   */\n  iszero\n  tag_76\n  jumpi\n    /* \"#utility.yul\":1098:1116   */\n  tag_77\n  tag_58\n  jump\t// in\ntag_77:\n    /* \"#utility.yul\":1030:1118   */\ntag_76:\n    /* \"#utility.yul\":1138:1148   */\n  dup1\n    /* \"#utility.yul\":1134:1136   */\n  0x40\n    /* \"#utility.yul\":1127:1149   */\n  mstore\n    /* \"#utility.yul\":917:1155   */\n  pop\n    /* \"#utility.yul\":874:1155   */\n  pop\n  pop\n  jump\t// out\n    /* \"#utility.yul\":1161:1290   */\ntag_60:\n    /* \"#utility.yul\":1195:1201   */\n  0x00\n    /* \"#utility.yul\":1222:1242   */\n  tag_79\n  tag_52\n  jump\t// in\ntag_79:\n    /* \"#utility.yul\":1212:1242   */\n  swap1\n  pop\n    /* \"#utility.yul\":1251:1284   */\n  tag_80\n    /* \"#utility.yul\":1279:1283   */\n  dup3\n    /* \"#utility.yul\":1271:1277   */\n  dup3\n    /* \"#utility.yul\":1251:1284   */\n  tag_59\n  jump\t// in\ntag_80:\n    /* \"#utility.yul\":1161:1290   */\n  swap2\n  swap1\n  pop\n  jump\t// out\n    /* \"#utility.yul\":1296:1604   */\ntag_61:\n    /* \"#utility.yul\":1358:1362   */\n  0x00\n    /* \"#utility.yul\":1448:1466   */\n  0xffffffffffffffff\n    /* \"#utility.yul\":1440:1446   */\n  dup3\n    /* \"#utility.yul\":1437:1467   */\n  gt\n    /* \"#utility.yul\":1434:1490   */\n  iszero\n  tag_82\n  jumpi\n    /* \"#utility.yul\":1470:1488   */\n  tag_83\n  tag_58\n  jump\t// in\ntag_83:\n    /* \"#utility.yul\":1434:1490   */\ntag_82:\n    /* \"#utility.yul\":1508:1537   */\n  tag_84\n    /* \"#utility.yul\":1530:1536   */\n  dup3\n    /* \"#utility.yul\":1508:1537   */\n  tag_57\n  jump\t// in\ntag_84:\n    /* \"#utility.yul\":1500:1537   */\n  swap1\n  pop\n    /* \"#utility.yul\":1592:1596   */\n  0x20\n    /* \"#utility.yul\":1586:1590   */\n  dup2\n    /* \"#utility.yul\":1582:1597   */\n  add\n    /* \"#utility.yul\":1574:1597   */\n  swap1\n  pop\n    /* \"#utility.yul\":1296:1604   */\n  swap2\n  swap1\n  pop\n  jump\t// out\n    /* \"#utility.yul\":1610:1917   */\ntag_62:\n    /* \"#utility.yul\":1678:1679   */\n  0x00\n    /* \"#utility.yul\":1688:1801   */\ntag_86:\n    /* \"#utility.yul\":1702:1708   */\n  dup4\n    /* \"#utility.yul\":1699:1700   */\n  dup2\n    /* \"#utility.yul\":1696:1709   */\n  lt\n    /* \"#utility.yul\":1688:1801   */\n  iszero\n  tag_88\n  jumpi\n    /* \"#utility.yul\":1787:1788   */\n  dup1\n    /* \"#utility.yul\":1782:1785   */\n  dup3\n    /* \"#utility.yul\":1778:1789   */\n  add\n    /* \"#utility.yul\":1772:1790   */\n  mload\n    /* \"#utility.yul\":1768:1769   */\n  dup2\n    /* \"#utility.yul\":1763:1766   */\n  dup5\n    /* \"#utility.yul\":1759:1770   */\n  add\n    /* \"#utility.yul\":1752:1791   */\n  mstore\n    /* \"#utility.yul\":1724:1726   */\n  0x20\n    /* \"#utility.yul\":1721:1722   */\n  dup2\n    /* \"#utility.yul\":1717:1727   */\n  add\n    /* \"#utility.yul\":1712:1727   */\n  swap1\n  pop\n    /* \"#utility.yul\":1688:1801   */\n  jump(tag_86)\ntag_88:\n    /* \"#utility.yul\":1819:1825   */\n  dup4\n    /* \"#utility.yul\":1816:1817   */\n  dup2\n    /* \"#utility.yul\":1813:1826   */\n  gt\n    /* \"#utility.yul\":1810:1911   */\n  iszero\n  tag_89\n  jumpi\n    /* \"#utility.yul\":1899:1900   */\n  0x00\n    /* \"#utility.yul\":1890:1896   */\n  dup5\n    /* \"#utility.yul\":1885:1888   */\n  dup5\n    /* \"#utility.yul\":1881:1897   */\n  add\n    /* \"#utility.yul\":1874:1901   */\n  mstore\n    /* \"#utility.yul\":1810:1911   */\ntag_89:\n    /* \"#utility.yul\":1659:1917   */\n  pop\n    /* \"#utility.yul\":1610:1917   */\n  pop\n  pop\n  pop\n  jump\t// out\n    /* \"#utility.yul\":1923:2344   */\ntag_63:\n    /* \"#utility.yul\":2012:2017   */\n  0x00\n    /* \"#utility.yul\":2037:2103   */\n  tag_91\n    /* \"#utility.yul\":2053:2102   */\n  tag_92\n    /* \"#utility.yul\":2095:2101   */\n  dup5\n    /* \"#utility.yul\":2053:2102   */\n  tag_61\n  jump\t// in\ntag_92:\n    /* \"#utility.yul\":2037:2103   */\n  tag_60\n  jump\t// in\ntag_91:\n    /* \"#utility.yul\":2028:2103   */\n  swap1\n  pop\n    /* \"#utility.yul\":2126:2132   */\n  dup3\n    /* \"#utility.yul\":2119:2124   */\n  dup2\n    /* \"#utility.yul\":2112:2133   */\n  mstore\n    /* \"#utility.yul\":2164:2168   */\n  0x20\n    /* \"#utility.yul\":2157:2162   */\n  dup2\n    /* \"#utility.yul\":2153:2169   */\n  add\n    /* \"#utility.yul\":2202:2205   */\n  dup5\n    /* \"#utility.yul\":2193:2199   */\n  dup5\n    /* \"#utility.yul\":2188:2191   */\n  dup5\n    /* \"#utility.yul\":2184:2200   */\n  add\n    /* \"#utility.yul\":2181:2206   */\n  gt\n    /* \"#utility.yul\":2178:2290   */\n  iszero\n  tag_93\n  jumpi\n    /* \"#utility.yul\":2209:2288   */\n  tag_94\n  tag_56\n  jump\t// in\ntag_94:\n    /* \"#utility.yul\":2178:2290   */\ntag_93:\n    /* \"#utility.yul\":2299:2338   */\n  tag_95\n    /* \"#utility.yul\":2331:2337   */\n  dup5\n    /* \"#utility.yul\":2326:2329   */\n  dup3\n    /* \"#utility.yul\":2321:2324   */\n  dup6\n    /* \"#utility.yul\":2299:2338   */\n  tag_62\n  jump\t// in\ntag_95:\n    /* \"#utility.yul\":2018:2344   */\n  pop\n    /* \"#utility.yul\":1923:2344   */\n  swap4\n  swap3\n  pop\n  pop\n  pop\n  jump\t// out\n    /* \"#utility.yul\":2364:2719   */\ntag_64:\n    /* \"#utility.yul\":2431:2436   */\n  0x00\n    /* \"#utility.yul\":2480:2483   */\n  dup3\n    /* \"#utility.yul\":2473:2477   */\n  0x1f\n    /* \"#utility.yul\":2465:2471   */\n  dup4\n    /* \"#utility.yul\":2461:2478   */\n  add\n    /* \"#utility.yul\":2457:2484   */\n  slt\n    /* \"#utility.yul\":2447:2569   */\n  tag_97\n  jumpi\n    /* \"#utility.yul\":2488:2567   */\n  tag_98\n  tag_55\n  jump\t// in\ntag_98:\n    /* \"#utility.yul\":2447:2569   */\ntag_97:\n    /* \"#utility.yul\":2598:2604   */\n  dup2\n    /* \"#utility.yul\":2592:2605   */\n  mload\n    /* \"#utility.yul\":2623:2713   */\n  tag_99\n    /* \"#utility.yul\":2709:2712   */\n  dup5\n    /* \"#utility.yul\":2701:2707   */\n  dup3\n    /* \"#utility.yul\":2694:2698   */\n  0x20\n    /* \"#utility.yul\":2686:2692   */\n  dup7\n    /* \"#utility.yul\":2682:2699   */\n  add\n    /* \"#utility.yul\":2623:2713   */\n  tag_63\n  jump\t// in\ntag_99:\n    /* \"#utility.yul\":2614:2713   */\n  swap2\n  pop\n    /* \"#utility.yul\":2437:2719   */\n  pop\n    /* \"#utility.yul\":2364:2719   */\n  swap3\n  swap2\n  pop\n  pop\n  jump\t// out\n    /* \"#utility.yul\":2725:3578   */\ntag_3:\n    /* \"#utility.yul\":2824:2830   */\n  0x00\n    /* \"#utility.yul\":2832:2838   */\n  dup1\n    /* \"#utility.yul\":2881:2883   */\n  0x40\n    /* \"#utility.yul\":2869:2878   */\n  dup4\n    /* \"#utility.yul\":2860:2867   */\n  dup6\n    /* \"#utility.yul\":2856:2879   */\n  sub\n    /* \"#utility.yul\":2852:2884   */\n  slt\n    /* \"#utility.yul\":2849:2968   */\n  iszero\n  tag_101\n  jumpi\n    /* \"#utility.yul\":2887:2966   */\n  tag_102\n  tag_53\n  jump\t// in\ntag_102:\n    /* \"#utility.yul\":2849:2968   */\ntag_101:\n    /* \"#utility.yul\":3028:3029   */\n  0x00\n    /* \"#utility.yul\":3017:3026   */\n  dup4\n    /* \"#utility.yul\":3013:3030   */\n  add\n    /* \"#utility.yul\":3007:3031   */\n  mload\n    /* \"#utility.yul\":3058:3076   */\n  0xffffffffffffffff\n    /* \"#utility.yul\":3050:3056   */\n  dup2\n    /* \"#utility.yul\":3047:3077   */\n  gt\n    /* \"#utility.yul\":3044:3161   */\n  iszero\n  tag_103\n  jumpi\n    /* \"#utility.yul\":3080:3159   */\n  tag_104\n  tag_54\n  jump\t// in\ntag_104:\n    /* \"#utility.yul\":3044:3161   */\ntag_103:\n    /* \"#utility.yul\":3185:3259   */\n  tag_105\n    /* \"#utility.yul\":3251:3258   */\n  dup6\n    /* \"#utility.yul\":3242:3248   */\n  dup3\n    /* \"#utility.yul\":3231:3240   */\n  dup7\n    /* \"#utility.yul\":3227:3249   */\n  add\n    /* \"#utility.yul\":3185:3259   */\n  tag_64\n  jump\t// in\ntag_105:\n    /* \"#utility.yul\":3175:3259   */\n  swap3\n  pop\n    /* \"#utility.yul\":2978:3269   */\n  pop\n    /* \"#utility.yul\":3329:3331   */\n  0x20\n    /* \"#utility.yul\":3318:3327   */\n  dup4\n    /* \"#utility.yul\":3314:3332   */\n  add\n    /* \"#utility.yul\":3308:3333   */\n  mload\n    /* \"#utility.yul\":3360:3378   */\n  0xffffffffffffffff\n    /* \"#utility.yul\":3352:3358   */\n  dup2\n    /* \"#utility.yul\":3349:3379   */\n  gt\n    /* \"#utility.yul\":3346:3463   */\n  iszero\n  tag_106\n  jumpi\n    /* \"#utility.yul\":3382:3461   */\n  tag_107\n  tag_54\n  jump\t// in\ntag_107:\n    /* \"#utility.yul\":3346:3463   */\ntag_106:\n    /* \"#utility.yul\":3487:3561   */\n  tag_108\n    /* \"#utility.yul\":3553:3560   */\n  dup6\n    /* \"#utility.yul\":3544:3550   */\n  dup3\n    /* \"#utility.yul\":3533:3542   */\n  dup7\n    /* \"#utility.yul\":3529:3551   */\n  add\n    /* \"#utility.yul\":3487:3561   */\n  tag_64\n  jump\t// in\ntag_108:\n    /* \"#utility.yul\":3477:3561   */\n  swap2\n  pop\n    /* \"#utility.yul\":3279:3571   */\n  pop\n    /* \"#utility.yul\":2725:3578   */\n  swap3\n  pop\n  swap3\n  swap1\n  pop\n  jump\t// out\n    /* \"#utility.yul\":3584:3764   */\ntag_65:\n    /* \"#utility.yul\":3632:3709   */\n  0x4e487b7100000000000000000000000000000000000000000000000000000000\n    /* \"#utility.yul\":3629:3630   */\n  0x00\n    /* \"#utility.yul\":3622:3710   */\n  mstore\n    /* \"#utility.yul\":3729:3733   */\n  0x22\n    /* \"#utility.yul\":3726:3727   */\n  0x04\n    /* \"#utility.yul\":3719:3734   */\n  mstore\n    /* \"#utility.yul\":3753:3757   */\n  0x24\n    /* \"#utility.yul\":3750:3751   */\n  0x00\n    /* \"#utility.yul\":3743:3758   */\n  revert\n    /* \"#utility.yul\":3770:4090   */\ntag_42:\n    /* \"#utility.yul\":3814:3820   */\n  0x00\n    /* \"#utility.yul\":3851:3852   */\n  0x02\n    /* \"#utility.yul\":3845:3849   */\n  dup3\n    /* \"#utility.yul\":3841:3853   */\n  div\n    /* \"#utility.yul\":3831:3853   */\n  swap1\n  pop\n    /* \"#utility.yul\":3898:3899   */\n  0x01\n    /* \"#utility.yul\":3892:3896   */\n  dup3\n    /* \"#utility.yul\":3888:3900   */\n  and\n    /* \"#utility.yul\":3919:3937   */\n  dup1\n    /* \"#utility.yul\":3909:3990   */\n  tag_111\n  jumpi\n    /* \"#utility.yul\":3975:3979   */\n  0x7f\n    /* \"#utility.yul\":3967:3973   */\n  dup3\n    /* \"#utility.yul\":3963:3980   */\n  and\n    /* \"#utility.yul\":3953:3980   */\n  swap2\n  pop\n    /* \"#utility.yul\":3909:3990   */\ntag_111:\n    /* \"#utility.yul\":4037:4039   */\n  0x20\n    /* \"#utility.yul\":4029:4035   */\n  dup3\n    /* \"#utility.yul\":4026:4040   */\n  lt\n    /* \"#utility.yul\":4006:4024   */\n  dup2\n    /* \"#utility.yul\":4003:4041   */\n  eq\n    /* \"#utility.yul\":4000:4084   */\n  iszero\n  tag_112\n  jumpi\n    /* \"#utility.yul\":4056:4074   */\n  tag_113\n  tag_65\n  jump\t// in\ntag_113:\n    /* \"#utility.yul\":4000:4084   */\ntag_112:\n    /* \"#utility.yul\":3821:4090   */\n  pop\n    /* \"#utility.yul\":3770:4090   */\n  swap2\n  swap1\n  pop\n  jump\t// out\n    /* \"ERC20/ERC20.sol\":1443:13718  contract ERC20 is Context, AccessControlEnumerable, IERC20, IERC20Metadata, Pausable {... */\ntag_15:\n  dataSize(sub_0)\n  dup1\n  dataOffset(sub_0)\n  0x00\n  codecopy\n  0x00\n  return\nstop\n\nsub_0: assembly {\n        /* \"ERC20/ERC20.sol\":1443:13718  contract ERC20 is Context, AccessControlEnumerable, IERC20, IERC20Metadata, Pausable {... */\n      mstore(0x40, 0x80)\n      callvalue\n      dup1\n      iszero\n      tag_1\n      jumpi\n      0x00\n      dup1\n      revert\n    tag_1:\n      pop\n      jumpi(tag_2, lt(calldatasize, 0x04))\n      shr(0xe0, calldataload(0x00))\n      dup1\n      0x70a08231\n      gt\n      tag_26\n      jumpi\n      dup1\n      0xbeabacc8\n      gt\n      tag_27\n      jumpi\n      dup1\n      0xbeabacc8\n      eq\n      tag_20\n      jumpi\n      dup1\n      0xc6e858fe\n      eq\n      tag_21\n      jumpi\n      dup1\n      0xca15c873\n      eq\n      tag_22\n      jumpi\n      dup1\n      0xd0bbb0d7\n      eq\n      tag_23\n      jumpi\n      dup1\n      0xd547741f\n      eq\n      tag_24\n      jumpi\n      dup1\n      0xdd62ed3e\n      eq\n      tag_25\n      jumpi\n      jump(tag_2)\n    tag_27:\n      dup1\n      0x70a08231\n      eq\n      tag_14\n      jumpi\n      dup1\n      0x9010d07c\n      eq\n      tag_15\n      jumpi\n      dup1\n      0x91d14854\n      eq\n      tag_16\n      jumpi\n      dup1\n      0x95d89b41\n      eq\n      tag_17\n      jumpi\n      dup1\n      0xa217fddf\n      eq\n      tag_18\n      jumpi\n      dup1\n      0xa457c2d7\n      eq\n      tag_19\n      jumpi\n      jump(tag_2)\n    tag_26:\n      dup1\n      0x248a9ca3\n      gt\n      tag_28\n      jumpi\n      dup1\n      0x248a9ca3\n      eq\n      tag_8\n      jumpi\n      dup1\n      0x2f2ff15d\n      eq\n      tag_9\n      jumpi\n      dup1\n      0x313ce567\n      eq\n      tag_10\n      jumpi\n      dup1\n      0x39509351\n      eq\n      tag_11\n      jumpi\n      dup1\n      0x5394a892\n      eq\n      tag_12\n      jumpi\n      dup1\n      0x5c975abb\n      eq\n      tag_13\n      jumpi\n      jump(tag_2)\n    tag_28:\n      dup1\n      0x01ffc9a7\n      eq\n      tag_3\n      jumpi\n      dup1\n      0x06fdde03\n      eq\n      tag_4\n      jumpi\n      dup1\n      0x095ea7b3\n      eq\n      tag_5\n      jumpi\n      dup1\n      0x18160ddd\n      eq\n      tag_6\n      jumpi\n      dup1\n      0x23b872dd\n      eq\n      tag_7\n      jumpi\n    tag_2:\n      0x00\n      dup1\n      revert\n        /* \"ERC20/access/AccessControlEnumerable.sol\":568:782  function supportsInterface(bytes4 interfaceId) public view virtual override returns (bool) {... */\n    tag_3:\n      tag_29\n      0x04\n      dup1\n      calldatasize\n      sub\n      dup2\n      add\n      swap1\n      tag_30\n      swap2\n      swap1\n      tag_31\n      jump\t// in\n    tag_30:\n      tag_32\n      jump\t// in\n    tag_29:\n      mload(0x40)\n      tag_33\n      swap2\n      swap1\n      tag_34\n      jump\t// in\n    tag_33:\n      mload(0x40)\n      dup1\n      swap2\n      sub\n      swap1\n      return\n        /* \"ERC20/ERC20.sol\":2350:2450  function name() public view virtual override returns (string memory) {... */\n    tag_4:\n      tag_35\n      tag_36\n      jump\t// in\n    tag_35:\n      mload(0x40)\n      tag_37\n      swap2\n      swap1\n      tag_38\n      jump\t// in\n    tag_37:\n      mload(0x40)\n      dup1\n      swap2\n      sub\n      swap1\n      return\n        /* \"ERC20/ERC20.sol\":5255:5424  function approve(address spender, uint256 amount) public virtual override returns (bool) {... */\n    tag_5:\n      tag_39\n      0x04\n      dup1\n      calldatasize\n      sub\n      dup2\n      add\n      swap1\n      tag_40\n      swap2\n      swap1\n      tag_41\n      jump\t// in\n    tag_40:\n      tag_42\n      jump\t// in\n    tag_39:\n      mload(0x40)\n      tag_43\n      swap2\n      swap1\n      tag_34\n      jump\t// in\n    tag_43:\n      mload(0x40)\n      dup1\n      swap2\n      sub\n      swap1\n      return\n        /* \"ERC20/ERC20.sol\":3879:3987  function totalSupply() public view virtual override returns (uint256) {... */\n    tag_6:\n      tag_44\n      tag_45\n      jump\t// in\n    tag_44:\n      mload(0x40)\n      tag_46\n      swap2\n      swap1\n      tag_47\n      jump\t// in\n    tag_46:\n      mload(0x40)\n      dup1\n      swap2\n      sub\n      swap1\n      return\n        /* \"ERC20/ERC20.sol\":5906:6505  function transferFrom(... */\n    tag_7:\n      tag_48\n      0x04\n      dup1\n      calldatasize\n      sub\n      dup2\n      add\n      swap1\n      tag_49\n      swap2\n      swap1\n      tag_50\n      jump\t// in\n    tag_49:\n      tag_51\n      jump\t// in\n    tag_48:\n      mload(0x40)\n      tag_52\n      swap2\n      swap1\n      tag_34\n      jump\t// in\n    tag_52:\n      mload(0x40)\n      dup1\n      swap2\n      sub\n      swap1\n      return\n        /* \"ERC20/access/AccessControl.sol\":4031:4154  function getRoleAdmin(bytes32 role) public view override returns (bytes32) {... */\n    tag_8:\n      tag_53\n      0x04\n      dup1\n      calldatasize\n      sub\n      dup2\n      add\n      swap1\n      tag_54\n      swap2\n      swap1\n      tag_55\n      jump\t// in\n    tag_54:\n      tag_56\n      jump\t// in\n    tag_53:\n      mload(0x40)\n      tag_57\n      swap2\n      swap1\n      tag_58\n      jump\t// in\n    tag_57:\n      mload(0x40)\n      dup1\n      swap2\n      sub\n      swap1\n      return\n        /* \"ERC20/access/AccessControlEnumerable.sol\":1926:2122  function grantRole(bytes32 role, address account) public virtual override(AccessControl, IAccessControl) {... */\n    tag_9:\n      tag_59\n      0x04\n      dup1\n      calldatasize\n      sub\n      dup2\n      add\n      swap1\n      tag_60\n      swap2\n      swap1\n      tag_61\n      jump\t// in\n    tag_60:\n      tag_62\n      jump\t// in\n    tag_59:\n      stop\n        /* \"ERC20/ERC20.sol\":3312:3404  function decimals() public view virtual override returns (uint8) {... */\n    tag_10:\n      tag_63\n      tag_64\n      jump\t// in\n    tag_63:\n      mload(0x40)\n      tag_65\n      swap2\n      swap1\n      tag_66\n      jump\t// in\n    tag_65:\n      mload(0x40)\n      dup1\n      swap2\n      sub\n      swap1\n      return\n        /* \"ERC20/ERC20.sol\":6914:7221  function increaseAllowance(address spender, uint256 addedValue) public virtual returns (bool) {... */\n    tag_11:\n      tag_67\n      0x04\n      dup1\n      calldatasize\n      sub\n      dup2\n      add\n      swap1\n      tag_68\n      swap2\n      swap1\n      tag_41\n      jump\t// in\n    tag_68:\n      tag_69\n      jump\t// in\n    tag_67:\n      mload(0x40)\n      tag_70\n      swap2\n      swap1\n      tag_34\n      jump\t// in\n    tag_70:\n      mload(0x40)\n      dup1\n      swap2\n      sub\n      swap1\n      return\n        /* \"ERC20/ERC20.sol\":3412:3608  function pausedOptions() public virtual returns (bool) {... */\n    tag_12:\n      tag_71\n      tag_72\n      jump\t// in\n    tag_71:\n      mload(0x40)\n      tag_73\n      swap2\n      swap1\n      tag_34\n      jump\t// in\n    tag_73:\n      mload(0x40)\n      dup1\n      swap2\n      sub\n      swap1\n      return\n        /* \"ERC20/security/Pausable.sol\":1041:1125  function paused() public view virtual returns (bool) {... */\n    tag_13:\n      tag_74\n      tag_75\n      jump\t// in\n    tag_74:\n      mload(0x40)\n      tag_76\n      swap2\n      swap1\n      tag_34\n      jump\t// in\n    tag_76:\n      mload(0x40)\n      dup1\n      swap2\n      sub\n      swap1\n      return\n        /* \"ERC20/ERC20.sol\":4050:4177  function balanceOf(address account) public view virtual override returns (uint256) {... */\n    tag_14:\n      tag_77\n      0x04\n      dup1\n      calldatasize\n      sub\n      dup2\n      add\n      swap1\n      tag_78\n      swap2\n      swap1\n      tag_79\n      jump\t// in\n    tag_78:\n      tag_80\n      jump\t// in\n    tag_77:\n      mload(0x40)\n      tag_81\n      swap2\n      swap1\n      tag_47\n      jump\t// in\n    tag_81:\n      mload(0x40)\n      dup1\n      swap2\n      sub\n      swap1\n      return\n        /* \"ERC20/access/AccessControlEnumerable.sol\":1381:1526  function getRoleMember(bytes32 role, uint256 index) public view override returns (address) {... */\n    tag_15:\n      tag_82\n      0x04\n      dup1\n      calldatasize\n      sub\n      dup2\n      add\n      swap1\n      tag_83\n      swap2\n      swap1\n      tag_84\n      jump\t// in\n    tag_83:\n      tag_85\n      jump\t// in\n    tag_82:\n      mload(0x40)\n      tag_86\n      swap2\n      swap1\n      tag_87\n      jump\t// in\n    tag_86:\n      mload(0x40)\n      dup1\n      swap2\n      sub\n      swap1\n      return\n        /* \"ERC20/access/AccessControl.sol\":2916:3055  function hasRole(bytes32 role, address account) public view override returns (bool) {... */\n    tag_16:\n      tag_88\n      0x04\n      dup1\n      calldatasize\n      sub\n      dup2\n      add\n      swap1\n      tag_89\n      swap2\n      swap1\n      tag_61\n      jump\t// in\n    tag_89:\n      tag_90\n      jump\t// in\n    tag_88:\n      mload(0x40)\n      tag_91\n      swap2\n      swap1\n      tag_34\n      jump\t// in\n    tag_91:\n      mload(0x40)\n      dup1\n      swap2\n      sub\n      swap1\n      return\n        /* \"ERC20/ERC20.sol\":2569:2673  function symbol() public view virtual override returns (string memory) {... */\n    tag_17:\n      tag_92\n      tag_93\n      jump\t// in\n    tag_92:\n      mload(0x40)\n      tag_94\n      swap2\n      swap1\n      tag_38\n      jump\t// in\n    tag_94:\n      mload(0x40)\n      dup1\n      swap2\n      sub\n      swap1\n      return\n        /* \"ERC20/access/AccessControl.sol\":2007:2056  bytes32 public constant DEFAULT_ADMIN_ROLE = 0x00 */\n    tag_18:\n      tag_95\n      tag_96\n      jump\t// in\n    tag_95:\n      mload(0x40)\n      tag_97\n      swap2\n      swap1\n      tag_58\n      jump\t// in\n    tag_97:\n      mload(0x40)\n      dup1\n      swap2\n      sub\n      swap1\n      return\n        /* \"ERC20/ERC20.sol\":7724:8229  function decreaseAllowance(address spender, uint256 subtractedValue) public virtual returns (bool) {... */\n    tag_19:\n      tag_98\n      0x04\n      dup1\n      calldatasize\n      sub\n      dup2\n      add\n      swap1\n      tag_99\n      swap2\n      swap1\n      tag_41\n      jump\t// in\n    tag_99:\n      tag_100\n      jump\t// in\n    tag_98:\n      mload(0x40)\n      tag_101\n      swap2\n      swap1\n      tag_34\n      jump\t// in\n    tag_101:\n      mload(0x40)\n      dup1\n      swap2\n      sub\n      swap1\n      return\n        /* \"ERC20/ERC20.sol\":4504:4896  function transfer(address sender, address recipient, uint256 amount) public virtual override returns (bool) {... */\n    tag_20:\n      tag_102\n      0x04\n      dup1\n      calldatasize\n      sub\n      dup2\n      add\n      swap1\n      tag_103\n      swap2\n      swap1\n      tag_50\n      jump\t// in\n    tag_103:\n      tag_104\n      jump\t// in\n    tag_102:\n      mload(0x40)\n      tag_105\n      swap2\n      swap1\n      tag_34\n      jump\t// in\n    tag_105:\n      mload(0x40)\n      dup1\n      swap2\n      sub\n      swap1\n      return\n        /* \"ERC20/ERC20.sol\":3616:3816  function unPausedOptions() public virtual returns (bool) {... */\n    tag_21:\n      tag_106\n      tag_107\n      jump\t// in\n    tag_106:\n      mload(0x40)\n      tag_108\n      swap2\n      swap1\n      tag_34\n      jump\t// in\n    tag_108:\n      mload(0x40)\n      dup1\n      swap2\n      sub\n      swap1\n      return\n        /* \"ERC20/access/AccessControlEnumerable.sol\":1700:1834  function getRoleMemberCount(bytes32 role) public view override returns (uint256) {... */\n    tag_22:\n      tag_109\n      0x04\n      dup1\n      calldatasize\n      sub\n      dup2\n      add\n      swap1\n      tag_110\n      swap2\n      swap1\n      tag_55\n      jump\t// in\n    tag_110:\n      tag_111\n      jump\t// in\n    tag_109:\n      mload(0x40)\n      tag_112\n      swap2\n      swap1\n      tag_47\n      jump\t// in\n    tag_112:\n      mload(0x40)\n      dup1\n      swap2\n      sub\n      swap1\n      return\n        /* \"ERC20/ERC20.sol\":1758:1788  uint256 public MAX_TOKEN_COUNT */\n    tag_23:\n      tag_113\n      tag_114\n      jump\t// in\n    tag_113:\n      mload(0x40)\n      tag_115\n      swap2\n      swap1\n      tag_47\n      jump\t// in\n    tag_115:\n      mload(0x40)\n      dup1\n      swap2\n      sub\n      swap1\n      return\n        /* \"ERC20/access/AccessControlEnumerable.sol\":2215:2504  function revokeRole(bytes32 role, address account) public virtual override(AccessControl, IAccessControl) {... */\n    tag_24:\n      tag_116\n      0x04\n      dup1\n      calldatasize\n      sub\n      dup2\n      add\n      swap1\n      tag_117\n      swap2\n      swap1\n      tag_61\n      jump\t// in\n    tag_117:\n      tag_118\n      jump\t// in\n    tag_116:\n      stop\n        /* \"ERC20/ERC20.sol\":4957:5108  function allowance(address owner, address spender) public view virtual override returns (uint256) {... */\n    tag_25:\n      tag_119\n      0x04\n      dup1\n      calldatasize\n      sub\n      dup2\n      add\n      swap1\n      tag_120\n      swap2\n      swap1\n      tag_121\n      jump\t// in\n    tag_120:\n      tag_122\n      jump\t// in\n    tag_119:\n      mload(0x40)\n      tag_123\n      swap2\n      swap1\n      tag_47\n      jump\t// in\n    tag_123:\n      mload(0x40)\n      dup1\n      swap2\n      sub\n      swap1\n      return\n        /* \"ERC20/access/AccessControlEnumerable.sol\":568:782  function supportsInterface(bytes4 interfaceId) public view virtual override returns (bool) {... */\n    tag_32:\n        /* \"ERC20/access/AccessControlEnumerable.sol\":653:657  bool */\n      0x00\n        /* \"ERC20/access/AccessControlEnumerable.sol\":692:734  type(IAccessControlEnumerable).interfaceId */\n      0x5a05180f00000000000000000000000000000000000000000000000000000000\n        /* \"ERC20/access/AccessControlEnumerable.sol\":677:734  interfaceId == type(IAccessControlEnumerable).interfaceId */\n      not(0xffffffffffffffffffffffffffffffffffffffffffffffffffffffff)\n      and\n        /* \"ERC20/access/AccessControlEnumerable.sol\":677:688  interfaceId */\n      dup3\n        /* \"ERC20/access/AccessControlEnumerable.sol\":677:734  interfaceId == type(IAccessControlEnumerable).interfaceId */\n      not(0xffffffffffffffffffffffffffffffffffffffffffffffffffffffff)\n      and\n      eq\n        /* \"ERC20/access/AccessControlEnumerable.sol\":677:774  interfaceId == type(IAccessControlEnumerable).interfaceId || super.supportsInterface(interfaceId) */\n      dup1\n      tag_127\n      jumpi\n      pop\n        /* \"ERC20/access/AccessControlEnumerable.sol\":738:774  super.supportsInterface(interfaceId) */\n      tag_128\n        /* \"ERC20/access/AccessControlEnumerable.sol\":762:773  interfaceId */\n      dup3\n        /* \"ERC20/access/AccessControlEnumerable.sol\":738:761  super.supportsInterface */\n      tag_129\n        /* \"ERC20/access/AccessControlEnumerable.sol\":738:774  super.supportsInterface(interfaceId) */\n      jump\t// in\n    tag_128:\n        /* \"ERC20/access/AccessControlEnumerable.sol\":677:774  interfaceId == type(IAccessControlEnumerable).interfaceId || super.supportsInterface(interfaceId) */\n    tag_127:\n        /* \"ERC20/access/AccessControlEnumerable.sol\":670:774  return interfaceId == type(IAccessControlEnumerable).interfaceId || super.supportsInterface(interfaceId) */\n      swap1\n      pop\n        /* \"ERC20/access/AccessControlEnumerable.sol\":568:782  function supportsInterface(bytes4 interfaceId) public view virtual override returns (bool) {... */\n      swap2\n      swap1\n      pop\n      jump\t// out\n        /* \"ERC20/ERC20.sol\":2350:2450  function name() public view virtual override returns (string memory) {... */\n    tag_36:\n        /* \"ERC20/ERC20.sol\":2404:2417  string memory */\n      0x60\n        /* \"ERC20/ERC20.sol\":2437:2442  _name */\n      0x06\n        /* \"ERC20/ERC20.sol\":2430:2442  return _name */\n      dup1\n      sload\n      tag_131\n      swap1\n      tag_132\n      jump\t// in\n    tag_131:\n      dup1\n      0x1f\n      add\n      0x20\n      dup1\n      swap2\n      div\n      mul\n      0x20\n      add\n      mload(0x40)\n      swap1\n      dup2\n      add\n      0x40\n      mstore\n      dup1\n      swap3\n      swap2\n      swap1\n      dup2\n      dup2\n      mstore\n      0x20\n      add\n      dup3\n      dup1\n      sload\n      tag_133\n      swap1\n      tag_132\n      jump\t// in\n    tag_133:\n      dup1\n      iszero\n      tag_134\n      jumpi\n      dup1\n      0x1f\n      lt\n      tag_135\n      jumpi\n      0x0100\n      dup1\n      dup4\n      sload\n      div\n      mul\n      dup4\n      mstore\n      swap2\n      0x20\n      add\n      swap2\n      jump(tag_134)\n    tag_135:\n      dup3\n      add\n      swap2\n      swap1\n      0x00\n      mstore\n      keccak256(0x00, 0x20)\n      swap1\n    tag_136:\n      dup2\n      sload\n      dup2\n      mstore\n      swap1\n      0x01\n      add\n      swap1\n      0x20\n      add\n      dup1\n      dup4\n      gt\n      tag_136\n      jumpi\n      dup3\n      swap1\n      sub\n      0x1f\n      and\n      dup3\n      add\n      swap2\n    tag_134:\n      pop\n      pop\n      pop\n      pop\n      pop\n      swap1\n      pop\n        /* \"ERC20/ERC20.sol\":2350:2450  function name() public view virtual override returns (string memory) {... */\n      swap1\n      jump\t// out\n        /* \"ERC20/ERC20.sol\":5255:5424  function approve(address spender, uint256 amount) public virtual override returns (bool) {... */\n    tag_42:\n        /* \"ERC20/ERC20.sol\":5338:5342  bool */\n      0x00\n        /* \"ERC20/ERC20.sol\":5355:5394  _approve(_msgSender(), spender, amount) */\n      tag_138\n        /* \"ERC20/ERC20.sol\":5364:5376  _msgSender() */\n      tag_139\n        /* \"ERC20/ERC20.sol\":5364:5374  _msgSender */\n      tag_140\n        /* \"ERC20/ERC20.sol\":5364:5376  _msgSender() */\n      jump\t// in\n    tag_139:\n        /* \"ERC20/ERC20.sol\":5378:5385  spender */\n      dup5\n        /* \"ERC20/ERC20.sol\":5387:5393  amount */\n      dup5\n        /* \"ERC20/ERC20.sol\":5355:5363  _approve */\n      tag_141\n        /* \"ERC20/ERC20.sol\":5355:5394  _approve(_msgSender(), spender, amount) */\n      jump\t// in\n    tag_138:\n        /* \"ERC20/ERC20.sol\":5412:5416  true */\n      0x01\n        /* \"ERC20/ERC20.sol\":5405:5416  return true */\n      swap1\n      pop\n        /* \"ERC20/ERC20.sol\":5255:5424  function approve(address spender, uint256 amount) public virtual override returns (bool) {... */\n      swap3\n      swap2\n      pop\n      pop\n      jump\t// out\n        /* \"ERC20/ERC20.sol\":3879:3987  function totalSupply() public view virtual override returns (uint256) {... */\n    tag_45:\n        /* \"ERC20/ERC20.sol\":3940:3947  uint256 */\n      0x00\n        /* \"ERC20/ERC20.sol\":3967:3979  _totalSupply */\n      sload(0x05)\n        /* \"ERC20/ERC20.sol\":3960:3979  return _totalSupply */\n      swap1\n      pop\n        /* \"ERC20/ERC20.sol\":3879:3987  function totalSupply() public view virtual override returns (uint256) {... */\n      swap1\n      jump\t// out\n        /* \"ERC20/ERC20.sol\":5906:6505  function transferFrom(... */\n    tag_51:\n        /* \"ERC20/ERC20.sol\":6046:6050  bool */\n      0x00\n        /* \"ERC20/ERC20.sol\":6170:6206  _transfer(sender, recipient, amount) */\n      tag_144\n        /* \"ERC20/ERC20.sol\":6180:6186  sender */\n      dup5\n        /* \"ERC20/ERC20.sol\":6188:6197  recipient */\n      dup5\n        /* \"ERC20/ERC20.sol\":6199:6205  amount */\n      dup5\n        /* \"ERC20/ERC20.sol\":6170:6179  _transfer */\n      tag_145\n        /* \"ERC20/ERC20.sol\":6170:6206  _transfer(sender, recipient, amount) */\n      jump\t// in\n    tag_144:\n        /* \"ERC20/ERC20.sol\":6219:6243  uint256 currentAllowance */\n      0x00\n        /* \"ERC20/ERC20.sol\":6246:6257  _allowances */\n      0x04\n        /* \"ERC20/ERC20.sol\":6246:6265  _allowances[sender] */\n      0x00\n        /* \"ERC20/ERC20.sol\":6258:6264  sender */\n      dup7\n        /* \"ERC20/ERC20.sol\":6246:6265  _allowances[sender] */\n      0xffffffffffffffffffffffffffffffffffffffff\n      and\n      0xffffffffffffffffffffffffffffffffffffffff\n      and\n      dup2\n      mstore\n      0x20\n      add\n      swap1\n      dup2\n      mstore\n      0x20\n      add\n      0x00\n      keccak256\n        /* \"ERC20/ERC20.sol\":6246:6279  _allowances[sender][_msgSender()] */\n      0x00\n        /* \"ERC20/ERC20.sol\":6266:6278  _msgSender() */\n      tag_146\n        /* \"ERC20/ERC20.sol\":6266:6276  _msgSender */\n      tag_140\n        /* \"ERC20/ERC20.sol\":6266:6278  _msgSender() */\n      jump\t// in\n    tag_146:\n        /* \"ERC20/ERC20.sol\":6246:6279  _allowances[sender][_msgSender()] */\n      0xffffffffffffffffffffffffffffffffffffffff\n      and\n      0xffffffffffffffffffffffffffffffffffffffff\n      and\n      dup2\n      mstore\n      0x20\n      add\n      swap1\n      dup2\n      mstore\n      0x20\n      add\n      0x00\n      keccak256\n      sload\n        /* \"ERC20/ERC20.sol\":6219:6279  uint256 currentAllowance = _allowances[sender][_msgSender()] */\n      swap1\n      pop\n        /* \"ERC20/ERC20.sol\":6318:6324  amount */\n      dup3\n        /* \"ERC20/ERC20.sol\":6298:6314  currentAllowance */\n      dup2\n        /* \"ERC20/ERC20.sol\":6298:6324  currentAllowance >= amount */\n      lt\n      iszero\n        /* \"ERC20/ERC20.sol\":6290:6369  require(currentAllowance >= amount, \"ERC20: transfer amount exceeds allowance\") */\n      tag_147\n      jumpi\n      mload(0x40)\n      0x08c379a000000000000000000000000000000000000000000000000000000000\n      dup2\n      mstore\n      0x04\n      add\n      tag_148\n      swap1\n      tag_149\n      jump\t// in\n    tag_148:\n      mload(0x40)\n      dup1\n      swap2\n      sub\n      swap1\n      revert\n    tag_147:\n        /* \"ERC20/ERC20.sol\":6405:6462  _approve(sender, _msgSender(), currentAllowance - amount) */\n      tag_150\n        /* \"ERC20/ERC20.sol\":6414:6420  sender */\n      dup6\n        /* \"ERC20/ERC20.sol\":6422:6434  _msgSender() */\n      tag_151\n        /* \"ERC20/ERC20.sol\":6422:6432  _msgSender */\n      tag_140\n        /* \"ERC20/ERC20.sol\":6422:6434  _msgSender() */\n      jump\t// in\n    tag_151:\n        /* \"ERC20/ERC20.sol\":6455:6461  amount */\n      dup6\n        /* \"ERC20/ERC20.sol\":6436:6452  currentAllowance */\n      dup5\n        /* \"ERC20/ERC20.sol\":6436:6461  currentAllowance - amount */\n      sub\n        /* \"ERC20/ERC20.sol\":6405:6413  _approve */\n      tag_141\n        /* \"ERC20/ERC20.sol\":6405:6462  _approve(sender, _msgSender(), currentAllowance - amount) */\n      jump\t// in\n    tag_150:\n        /* \"ERC20/ERC20.sol\":6493:6497  true */\n      0x01\n        /* \"ERC20/ERC20.sol\":6486:6497  return true */\n      swap2\n      pop\n      pop\n        /* \"ERC20/ERC20.sol\":5906:6505  function transferFrom(... */\n      swap4\n      swap3\n      pop\n      pop\n      pop\n      jump\t// out\n        /* \"ERC20/access/AccessControl.sol\":4031:4154  function getRoleAdmin(bytes32 role) public view override returns (bytes32) {... */\n    tag_56:\n        /* \"ERC20/access/AccessControl.sol\":4097:4104  bytes32 */\n      0x00\n        /* \"ERC20/access/AccessControl.sol\":4124:4130  _roles */\n      dup1\n        /* \"ERC20/access/AccessControl.sol\":4124:4136  _roles[role] */\n      0x00\n        /* \"ERC20/access/AccessControl.sol\":4131:4135  role */\n      dup4\n        /* \"ERC20/access/AccessControl.sol\":4124:4136  _roles[role] */\n      dup2\n      mstore\n      0x20\n      add\n      swap1\n      dup2\n      mstore\n      0x20\n      add\n      0x00\n      keccak256\n        /* \"ERC20/access/AccessControl.sol\":4124:4146  _roles[role].adminRole */\n      0x01\n      add\n      sload\n        /* \"ERC20/access/AccessControl.sol\":4117:4146  return _roles[role].adminRole */\n      swap1\n      pop\n        /* \"ERC20/access/AccessControl.sol\":4031:4154  function getRoleAdmin(bytes32 role) public view override returns (bytes32) {... */\n      swap2\n      swap1\n      pop\n      jump\t// out\n        /* \"ERC20/access/AccessControlEnumerable.sol\":1926:2122  function grantRole(bytes32 role, address account) public virtual override(AccessControl, IAccessControl) {... */\n    tag_62:\n        /* \"ERC20/access/AccessControlEnumerable.sol\":2042:2072  super.grantRole(role, account) */\n      tag_154\n        /* \"ERC20/access/AccessControlEnumerable.sol\":2058:2062  role */\n      dup3\n        /* \"ERC20/access/AccessControlEnumerable.sol\":2064:2071  account */\n      dup3\n        /* \"ERC20/access/AccessControlEnumerable.sol\":2042:2057  super.grantRole */\n      tag_155\n        /* \"ERC20/access/AccessControlEnumerable.sol\":2042:2072  super.grantRole(role, account) */\n      jump\t// in\n    tag_154:\n        /* \"ERC20/access/AccessControlEnumerable.sol\":2083:2114  _roleMembers[role].add(account) */\n      tag_156\n        /* \"ERC20/access/AccessControlEnumerable.sol\":2106:2113  account */\n      dup2\n        /* \"ERC20/access/AccessControlEnumerable.sol\":2083:2095  _roleMembers */\n      0x01\n        /* \"ERC20/access/AccessControlEnumerable.sol\":2083:2101  _roleMembers[role] */\n      0x00\n        /* \"ERC20/access/AccessControlEnumerable.sol\":2096:2100  role */\n      dup6\n        /* \"ERC20/access/AccessControlEnumerable.sol\":2083:2101  _roleMembers[role] */\n      dup2\n      mstore\n      0x20\n      add\n      swap1\n      dup2\n      mstore\n      0x20\n      add\n      0x00\n      keccak256\n        /* \"ERC20/access/AccessControlEnumerable.sol\":2083:2105  _roleMembers[role].add */\n      tag_125\n      swap1\n        /* \"ERC20/access/AccessControlEnumerable.sol\":2083:2114  _roleMembers[role].add(account) */\n      swap2\n      swap1\n      0xffffffff\n      and\n      jump\t// in\n    tag_156:\n      pop\n        /* \"ERC20/access/AccessControlEnumerable.sol\":1926:2122  function grantRole(bytes32 role, address account) public virtual override(AccessControl, IAccessControl) {... */\n      pop\n      pop\n      jump\t// out\n        /* \"ERC20/ERC20.sol\":3312:3404  function decimals() public view virtual override returns (uint8) {... */\n    tag_64:\n        /* \"ERC20/ERC20.sol\":3370:3375  uint8 */\n      0x00\n        /* \"ERC20/ERC20.sol\":3395:3396  8 */\n      0x08\n        /* \"ERC20/ERC20.sol\":3388:3396  return 8 */\n      swap1\n      pop\n        /* \"ERC20/ERC20.sol\":3312:3404  function decimals() public view virtual override returns (uint8) {... */\n      swap1\n      jump\t// out\n        /* \"ERC20/ERC20.sol\":6914:7221  function increaseAllowance(address spender, uint256 addedValue) public virtual returns (bool) {... */\n    tag_69:\n        /* \"ERC20/ERC20.sol\":7002:7006  bool */\n      0x00\n        /* \"ERC20/ERC20.sol\":7027:7068  hasRole(DEFAULT_ADMIN_ROLE, _msgSender()) */\n      tag_159\n        /* \"ERC20/access/AccessControl.sol\":2052:2056  0x00 */\n      0x00\n        /* \"ERC20/ERC20.sol\":7035:7053  DEFAULT_ADMIN_ROLE */\n      dup1\n      shl\n        /* \"ERC20/ERC20.sol\":7055:7067  _msgSender() */\n      tag_160\n        /* \"ERC20/ERC20.sol\":7055:7065  _msgSender */\n      tag_140\n        /* \"ERC20/ERC20.sol\":7055:7067  _msgSender() */\n      jump\t// in\n    tag_160:\n        /* \"ERC20/ERC20.sol\":7027:7034  hasRole */\n      tag_90\n        /* \"ERC20/ERC20.sol\":7027:7068  hasRole(DEFAULT_ADMIN_ROLE, _msgSender()) */\n      jump\t// in\n    tag_159:\n        /* \"ERC20/ERC20.sol\":7019:7100  require(hasRole(DEFAULT_ADMIN_ROLE, _msgSender()), \"ERC20: must have admin role\") */\n      tag_161\n      jumpi\n      mload(0x40)\n      0x08c379a000000000000000000000000000000000000000000000000000000000\n      dup2\n      mstore\n      0x04\n      add\n      tag_162\n      swap1\n      tag_163\n      jump\t// in\n    tag_162:\n      mload(0x40)\n      dup1\n      swap2\n      sub\n      swap1\n      revert\n    tag_161:\n        /* \"ERC20/ERC20.sol\":7111:7191  _approve(_msgSender(), spender, _allowances[_msgSender()][spender] + addedValue) */\n      tag_164\n        /* \"ERC20/ERC20.sol\":7120:7132  _msgSender() */\n      tag_165\n        /* \"ERC20/ERC20.sol\":7120:7130  _msgSender */\n      tag_140\n        /* \"ERC20/ERC20.sol\":7120:7132  _msgSender() */\n      jump\t// in\n    tag_165:\n        /* \"ERC20/ERC20.sol\":7134:7141  spender */\n      dup5\n        /* \"ERC20/ERC20.sol\":7180:7190  addedValue */\n      dup5\n        /* \"ERC20/ERC20.sol\":7143:7154  _allowances */\n      0x04\n        /* \"ERC20/ERC20.sol\":7143:7168  _allowances[_msgSender()] */\n      0x00\n        /* \"ERC20/ERC20.sol\":7155:7167  _msgSender() */\n      tag_166\n        /* \"ERC20/ERC20.sol\":7155:7165  _msgSender */\n      tag_140\n        /* \"ERC20/ERC20.sol\":7155:7167  _msgSender() */\n      jump\t// in\n    tag_166:\n        /* \"ERC20/ERC20.sol\":7143:7168  _allowances[_msgSender()] */\n      0xffffffffffffffffffffffffffffffffffffffff\n      and\n      0xffffffffffffffffffffffffffffffffffffffff\n      and\n      dup2\n      mstore\n      0x20\n      add\n      swap1\n      dup2\n      mstore\n      0x20\n      add\n      0x00\n      keccak256\n        /* \"ERC20/ERC20.sol\":7143:7177  _allowances[_msgSender()][spender] */\n      0x00\n        /* \"ERC20/ERC20.sol\":7169:7176  spender */\n      dup9\n        /* \"ERC20/ERC20.sol\":7143:7177  _allowances[_msgSender()][spender] */\n      0xffffffffffffffffffffffffffffffffffffffff\n      and\n      0xffffffffffffffffffffffffffffffffffffffff\n      and\n      dup2\n      mstore\n      0x20\n      add\n      swap1\n      dup2\n      mstore\n      0x20\n      add\n      0x00\n      keccak256\n      sload\n        /* \"ERC20/ERC20.sol\":7143:7190  _allowances[_msgSender()][spender] + addedValue */\n      tag_167\n      swap2\n      swap1\n      tag_168\n      jump\t// in\n    tag_167:\n        /* \"ERC20/ERC20.sol\":7111:7119  _approve */\n      tag_141\n        /* \"ERC20/ERC20.sol\":7111:7191  _approve(_msgSender(), spender, _allowances[_msgSender()][spender] + addedValue) */\n      jump\t// in\n    tag_164:\n        /* \"ERC20/ERC20.sol\":7209:7213  true */\n      0x01\n        /* \"ERC20/ERC20.sol\":7202:7213  return true */\n      swap1\n      pop\n        /* \"ERC20/ERC20.sol\":6914:7221  function increaseAllowance(address spender, uint256 addedValue) public virtual returns (bool) {... */\n      swap3\n      swap2\n      pop\n      pop\n      jump\t// out\n        /* \"ERC20/ERC20.sol\":3412:3608  function pausedOptions() public virtual returns (bool) {... */\n    tag_72:\n        /* \"ERC20/ERC20.sol\":3461:3465  bool */\n      0x00\n        /* \"ERC20/ERC20.sol\":3486:3527  hasRole(DEFAULT_ADMIN_ROLE, _msgSender()) */\n      tag_170\n        /* \"ERC20/access/AccessControl.sol\":2052:2056  0x00 */\n      0x00\n        /* \"ERC20/ERC20.sol\":3494:3512  DEFAULT_ADMIN_ROLE */\n      dup1\n      shl\n        /* \"ERC20/ERC20.sol\":3514:3526  _msgSender() */\n      tag_171\n        /* \"ERC20/ERC20.sol\":3514:3524  _msgSender */\n      tag_140\n        /* \"ERC20/ERC20.sol\":3514:3526  _msgSender() */\n      jump\t// in\n    tag_171:\n        /* \"ERC20/ERC20.sol\":3486:3493  hasRole */\n      tag_90\n        /* \"ERC20/ERC20.sol\":3486:3527  hasRole(DEFAULT_ADMIN_ROLE, _msgSender()) */\n      jump\t// in\n    tag_170:\n        /* \"ERC20/ERC20.sol\":3478:3559  require(hasRole(DEFAULT_ADMIN_ROLE, _msgSender()), \"ERC20: must have admin role\") */\n      tag_172\n      jumpi\n      mload(0x40)\n      0x08c379a000000000000000000000000000000000000000000000000000000000\n      dup2\n      mstore\n      0x04\n      add\n      tag_173\n      swap1\n      tag_163\n      jump\t// in\n    tag_173:\n      mload(0x40)\n      dup1\n      swap2\n      sub\n      swap1\n      revert\n    tag_172:\n        /* \"ERC20/ERC20.sol\":3570:3578  _pause() */\n      tag_174\n        /* \"ERC20/ERC20.sol\":3570:3576  _pause */\n      tag_175\n        /* \"ERC20/ERC20.sol\":3570:3578  _pause() */\n      jump\t// in\n    tag_174:\n        /* \"ERC20/ERC20.sol\":3596:3600  true */\n      0x01\n        /* \"ERC20/ERC20.sol\":3589:3600  return true */\n      swap1\n      pop\n        /* \"ERC20/ERC20.sol\":3412:3608  function pausedOptions() public virtual returns (bool) {... */\n      swap1\n      jump\t// out\n        /* \"ERC20/security/Pausable.sol\":1041:1125  function paused() public view virtual returns (bool) {... */\n    tag_75:\n        /* \"ERC20/security/Pausable.sol\":1088:1092  bool */\n      0x00\n        /* \"ERC20/security/Pausable.sol\":1111:1118  _paused */\n      0x02\n      0x00\n      swap1\n      sload\n      swap1\n      0x0100\n      exp\n      swap1\n      div\n      0xff\n      and\n        /* \"ERC20/security/Pausable.sol\":1104:1118  return _paused */\n      swap1\n      pop\n        /* \"ERC20/security/Pausable.sol\":1041:1125  function paused() public view virtual returns (bool) {... */\n      swap1\n      jump\t// out\n        /* \"ERC20/ERC20.sol\":4050:4177  function balanceOf(address account) public view virtual override returns (uint256) {... */\n    tag_80:\n        /* \"ERC20/ERC20.sol\":4124:4131  uint256 */\n      0x00\n        /* \"ERC20/ERC20.sol\":4151:4160  _balances */\n      0x03\n        /* \"ERC20/ERC20.sol\":4151:4169  _balances[account] */\n      0x00\n        /* \"ERC20/ERC20.sol\":4161:4168  account */\n      dup4\n        /* \"ERC20/ERC20.sol\":4151:4169  _balances[account] */\n      0xffffffffffffffffffffffffffffffffffffffff\n      and\n      0xffffffffffffffffffffffffffffffffffffffff\n      and\n      dup2\n      mstore\n      0x20\n      add\n      swap1\n      dup2\n      mstore\n      0x20\n      add\n      0x00\n      keccak256\n      sload\n        /* \"ERC20/ERC20.sol\":4144:4169  return _balances[account] */\n      swap1\n      pop\n        /* \"ERC20/ERC20.sol\":4050:4177  function balanceOf(address account) public view virtual override returns (uint256) {... */\n      swap2\n      swap1\n      pop\n      jump\t// out\n        /* \"ERC20/access/AccessControlEnumerable.sol\":1381:1526  function getRoleMember(bytes32 role, uint256 index) public view override returns (address) {... */\n    tag_85:\n        /* \"ERC20/access/AccessControlEnumerable.sol\":1463:1470  address */\n      0x00\n        /* \"ERC20/access/AccessControlEnumerable.sol\":1490:1518  _roleMembers[role].at(index) */\n      tag_179\n        /* \"ERC20/access/AccessControlEnumerable.sol\":1512:1517  index */\n      dup3\n        /* \"ERC20/access/AccessControlEnumerable.sol\":1490:1502  _roleMembers */\n      0x01\n        /* \"ERC20/access/AccessControlEnumerable.sol\":1490:1508  _roleMembers[role] */\n      0x00\n        /* \"ERC20/access/AccessControlEnumerable.sol\":1503:1507  role */\n      dup7\n        /* \"ERC20/access/AccessControlEnumerable.sol\":1490:1508  _roleMembers[role] */\n      dup2\n      mstore\n      0x20\n      add\n      swap1\n      dup2\n      mstore\n      0x20\n      add\n      0x00\n      keccak256\n        /* \"ERC20/access/AccessControlEnumerable.sol\":1490:1511  _roleMembers[role].at */\n      tag_180\n      swap1\n        /* \"ERC20/access/AccessControlEnumerable.sol\":1490:1518  _roleMembers[role].at(index) */\n      swap2\n      swap1\n      0xffffffff\n      and\n      jump\t// in\n    tag_179:\n        /* \"ERC20/access/AccessControlEnumerable.sol\":1483:1518  return _roleMembers[role].at(index) */\n      swap1\n      pop\n        /* \"ERC20/access/AccessControlEnumerable.sol\":1381:1526  function getRoleMember(bytes32 role, uint256 index) public view override returns (address) {... */\n      swap3\n      swap2\n      pop\n      pop\n      jump\t// out\n        /* \"ERC20/access/AccessControl.sol\":2916:3055  function hasRole(bytes32 role, address account) public view override returns (bool) {... */\n    tag_90:\n        /* \"ERC20/access/AccessControl.sol\":2994:2998  bool */\n      0x00\n        /* \"ERC20/access/AccessControl.sol\":3018:3024  _roles */\n      dup1\n        /* \"ERC20/access/AccessControl.sol\":3018:3030  _roles[role] */\n      0x00\n        /* \"ERC20/access/AccessControl.sol\":3025:3029  role */\n      dup5\n        /* \"ERC20/access/AccessControl.sol\":3018:3030  _roles[role] */\n      dup2\n      mstore\n      0x20\n      add\n      swap1\n      dup2\n      mstore\n      0x20\n      add\n      0x00\n      keccak256\n        /* \"ERC20/access/AccessControl.sol\":3018:3038  _roles[role].members */\n      0x00\n      add\n        /* \"ERC20/access/AccessControl.sol\":3018:3047  _roles[role].members[account] */\n      0x00\n        /* \"ERC20/access/AccessControl.sol\":3039:3046  account */\n      dup4\n        /* \"ERC20/access/AccessControl.sol\":3018:3047  _roles[role].members[account] */\n      0xffffffffffffffffffffffffffffffffffffffff\n      and\n      0xffffffffffffffffffffffffffffffffffffffff\n      and\n      dup2\n      mstore\n      0x20\n      add\n      swap1\n      dup2\n      mstore\n      0x20\n      add\n      0x00\n      keccak256\n      0x00\n      swap1\n      sload\n      swap1\n      0x0100\n      exp\n      swap1\n      div\n      0xff\n      and\n        /* \"ERC20/access/AccessControl.sol\":3011:3047  return _roles[role].members[account] */\n      swap1\n      pop\n        /* \"ERC20/access/AccessControl.sol\":2916:3055  function hasRole(bytes32 role, address account) public view override returns (bool) {... */\n      swap3\n      swap2\n      pop\n      pop\n      jump\t// out\n        /* \"ERC20/ERC20.sol\":2569:2673  function symbol() public view virtual override returns (string memory) {... */\n    tag_93:\n        /* \"ERC20/ERC20.sol\":2625:2638  string memory */\n      0x60\n        /* \"ERC20/ERC20.sol\":2658:2665  _symbol */\n      0x07\n        /* \"ERC20/ERC20.sol\":2651:2665  return _symbol */\n      dup1\n      sload\n      tag_183\n      swap1\n      tag_132\n      jump\t// in\n    tag_183:\n      dup1\n      0x1f\n      add\n      0x20\n      dup1\n      swap2\n      div\n      mul\n      0x20\n      add\n      mload(0x40)\n      swap1\n      dup2\n      add\n      0x40\n      mstore\n      dup1\n      swap3\n      swap2\n      swap1\n      dup2\n      dup2\n      mstore\n      0x20\n      add\n      dup3\n      dup1\n      sload\n      tag_184\n      swap1\n      tag_132\n      jump\t// in\n    tag_184:\n      dup1\n      iszero\n      tag_185\n      jumpi\n      dup1\n      0x1f\n      lt\n      tag_186\n      jumpi\n      0x0100\n      dup1\n      dup4\n      sload\n      div\n      mul\n      dup4\n      mstore\n      swap2\n      0x20\n      add\n      swap2\n      jump(tag_185)\n    tag_186:\n      dup3\n      add\n      swap2\n      swap1\n      0x00\n      mstore\n      keccak256(0x00, 0x20)\n      swap1\n    tag_187:\n      dup2\n      sload\n      dup2\n      mstore\n      swap1\n      0x01\n      add\n      swap1\n      0x20\n      add\n      dup1\n      dup4\n      gt\n      tag_187\n      jumpi\n      dup3\n      swap1\n      sub\n      0x1f\n      and\n      dup3\n      add\n      swap2\n    tag_185:\n      pop\n      pop\n      pop\n      pop\n      pop\n      swap1\n      pop\n        /* \"ERC20/ERC20.sol\":2569:2673  function symbol() public view virtual override returns (string memory) {... */\n      swap1\n      jump\t// out\n        /* \"ERC20/access/AccessControl.sol\":2007:2056  bytes32 public constant DEFAULT_ADMIN_ROLE = 0x00 */\n    tag_96:\n        /* \"ERC20/access/AccessControl.sol\":2052:2056  0x00 */\n      0x00\n        /* \"ERC20/access/AccessControl.sol\":2007:2056  bytes32 public constant DEFAULT_ADMIN_ROLE = 0x00 */\n      dup1\n      shl\n      dup2\n      jump\t// out\n        /* \"ERC20/ERC20.sol\":7724:8229  function decreaseAllowance(address spender, uint256 subtractedValue) public virtual returns (bool) {... */\n    tag_100:\n        /* \"ERC20/ERC20.sol\":7817:7821  bool */\n      0x00\n        /* \"ERC20/ERC20.sol\":7842:7883  hasRole(DEFAULT_ADMIN_ROLE, _msgSender()) */\n      tag_189\n        /* \"ERC20/access/AccessControl.sol\":2052:2056  0x00 */\n      0x00\n        /* \"ERC20/ERC20.sol\":7850:7868  DEFAULT_ADMIN_ROLE */\n      dup1\n      shl\n        /* \"ERC20/ERC20.sol\":7870:7882  _msgSender() */\n      tag_190\n        /* \"ERC20/ERC20.sol\":7870:7880  _msgSender */\n      tag_140\n        /* \"ERC20/ERC20.sol\":7870:7882  _msgSender() */\n      jump\t// in\n    tag_190:\n        /* \"ERC20/ERC20.sol\":7842:7849  hasRole */\n      tag_90\n        /* \"ERC20/ERC20.sol\":7842:7883  hasRole(DEFAULT_ADMIN_ROLE, _msgSender()) */\n      jump\t// in\n    tag_189:\n        /* \"ERC20/ERC20.sol\":7834:7915  require(hasRole(DEFAULT_ADMIN_ROLE, _msgSender()), \"ERC20: must have admin role\") */\n      tag_191\n      jumpi\n      mload(0x40)\n      0x08c379a000000000000000000000000000000000000000000000000000000000\n      dup2\n      mstore\n      0x04\n      add\n      tag_192\n      swap1\n      tag_163\n      jump\t// in\n    tag_192:\n      mload(0x40)\n      dup1\n      swap2\n      sub\n      swap1\n      revert\n    tag_191:\n        /* \"ERC20/ERC20.sol\":7926:7950  uint256 currentAllowance */\n      0x00\n        /* \"ERC20/ERC20.sol\":7953:7964  _allowances */\n      0x04\n        /* \"ERC20/ERC20.sol\":7953:7978  _allowances[_msgSender()] */\n      0x00\n        /* \"ERC20/ERC20.sol\":7965:7977  _msgSender() */\n      tag_193\n        /* \"ERC20/ERC20.sol\":7965:7975  _msgSender */\n      tag_140\n        /* \"ERC20/ERC20.sol\":7965:7977  _msgSender() */\n      jump\t// in\n    tag_193:\n        /* \"ERC20/ERC20.sol\":7953:7978  _allowances[_msgSender()] */\n      0xffffffffffffffffffffffffffffffffffffffff\n      and\n      0xffffffffffffffffffffffffffffffffffffffff\n      and\n      dup2\n      mstore\n      0x20\n      add\n      swap1\n      dup2\n      mstore\n      0x20\n      add\n      0x00\n      keccak256\n        /* \"ERC20/ERC20.sol\":7953:7987  _allowances[_msgSender()][spender] */\n      0x00\n        /* \"ERC20/ERC20.sol\":7979:7986  spender */\n      dup6\n        /* \"ERC20/ERC20.sol\":7953:7987  _allowances[_msgSender()][spender] */\n      0xffffffffffffffffffffffffffffffffffffffff\n      and\n      0xffffffffffffffffffffffffffffffffffffffff\n      and\n      dup2\n      mstore\n      0x20\n      add\n      swap1\n      dup2\n      mstore\n      0x20\n      add\n      0x00\n      keccak256\n      sload\n        /* \"ERC20/ERC20.sol\":7926:7987  uint256 currentAllowance = _allowances[_msgSender()][spender] */\n      swap1\n      pop\n        /* \"ERC20/ERC20.sol\":8026:8041  subtractedValue */\n      dup3\n        /* \"ERC20/ERC20.sol\":8006:8022  currentAllowance */\n      dup2\n        /* \"ERC20/ERC20.sol\":8006:8041  currentAllowance >= subtractedValue */\n      lt\n      iszero\n        /* \"ERC20/ERC20.sol\":7998:8083  require(currentAllowance >= subtractedValue, \"ERC20: decreased allowance below zero\") */\n      tag_194\n      jumpi\n      mload(0x40)\n      0x08c379a000000000000000000000000000000000000000000000000000000000\n      dup2\n      mstore\n      0x04\n      add\n      tag_195\n      swap1\n      tag_196\n      jump\t// in\n    tag_195:\n      mload(0x40)\n      dup1\n      swap2\n      sub\n      swap1\n      revert\n    tag_194:\n        /* \"ERC20/ERC20.sol\":8119:8186  _approve(_msgSender(), spender, currentAllowance - subtractedValue) */\n      tag_197\n        /* \"ERC20/ERC20.sol\":8128:8140  _msgSender() */\n      tag_198\n        /* \"ERC20/ERC20.sol\":8128:8138  _msgSender */\n      tag_140\n        /* \"ERC20/ERC20.sol\":8128:8140  _msgSender() */\n      jump\t// in\n    tag_198:\n        /* \"ERC20/ERC20.sol\":8142:8149  spender */\n      dup6\n        /* \"ERC20/ERC20.sol\":8170:8185  subtractedValue */\n      dup6\n        /* \"ERC20/ERC20.sol\":8151:8167  currentAllowance */\n      dup5\n        /* \"ERC20/ERC20.sol\":8151:8185  currentAllowance - subtractedValue */\n      sub\n        /* \"ERC20/ERC20.sol\":8119:8127  _approve */\n      tag_141\n        /* \"ERC20/ERC20.sol\":8119:8186  _approve(_msgSender(), spender, currentAllowance - subtractedValue) */\n      jump\t// in\n    tag_197:\n        /* \"ERC20/ERC20.sol\":8217:8221  true */\n      0x01\n        /* \"ERC20/ERC20.sol\":8210:8221  return true */\n      swap2\n      pop\n      pop\n        /* \"ERC20/ERC20.sol\":7724:8229  function decreaseAllowance(address spender, uint256 subtractedValue) public virtual returns (bool) {... */\n      swap3\n      swap2\n      pop\n      pop\n      jump\t// out\n        /* \"ERC20/ERC20.sol\":4504:4896  function transfer(address sender, address recipient, uint256 amount) public virtual override returns (bool) {... */\n    tag_104:\n        /* \"ERC20/ERC20.sol\":4606:4610  bool */\n      0x00\n        /* \"ERC20/ERC20.sol\":4830:4866  _transfer(sender, recipient, amount) */\n      tag_200\n        /* \"ERC20/ERC20.sol\":4840:4846  sender */\n      dup5\n        /* \"ERC20/ERC20.sol\":4848:4857  recipient */\n      dup5\n        /* \"ERC20/ERC20.sol\":4859:4865  amount */\n      dup5\n        /* \"ERC20/ERC20.sol\":4830:4839  _transfer */\n      tag_145\n        /* \"ERC20/ERC20.sol\":4830:4866  _transfer(sender, recipient, amount) */\n      jump\t// in\n    tag_200:\n        /* \"ERC20/ERC20.sol\":4884:4888  true */\n      0x01\n        /* \"ERC20/ERC20.sol\":4877:4888  return true */\n      swap1\n      pop\n        /* \"ERC20/ERC20.sol\":4504:4896  function transfer(address sender, address recipient, uint256 amount) public virtual override returns (bool) {... */\n      swap4\n      swap3\n      pop\n      pop\n      pop\n      jump\t// out\n        /* \"ERC20/ERC20.sol\":3616:3816  function unPausedOptions() public virtual returns (bool) {... */\n    tag_107:\n        /* \"ERC20/ERC20.sol\":3667:3671  bool */\n      0x00\n        /* \"ERC20/ERC20.sol\":3692:3733  hasRole(DEFAULT_ADMIN_ROLE, _msgSender()) */\n      tag_202\n        /* \"ERC20/access/AccessControl.sol\":2052:2056  0x00 */\n      0x00\n        /* \"ERC20/ERC20.sol\":3700:3718  DEFAULT_ADMIN_ROLE */\n      dup1\n      shl\n        /* \"ERC20/ERC20.sol\":3720:3732  _msgSender() */\n      tag_203\n        /* \"ERC20/ERC20.sol\":3720:3730  _msgSender */\n      tag_140\n        /* \"ERC20/ERC20.sol\":3720:3732  _msgSender() */\n      jump\t// in\n    tag_203:\n        /* \"ERC20/ERC20.sol\":3692:3699  hasRole */\n      tag_90\n        /* \"ERC20/ERC20.sol\":3692:3733  hasRole(DEFAULT_ADMIN_ROLE, _msgSender()) */\n      jump\t// in\n    tag_202:\n        /* \"ERC20/ERC20.sol\":3684:3765  require(hasRole(DEFAULT_ADMIN_ROLE, _msgSender()), \"ERC20: must have admin role\") */\n      tag_204\n      jumpi\n      mload(0x40)\n      0x08c379a000000000000000000000000000000000000000000000000000000000\n      dup2\n      mstore\n      0x04\n      add\n      tag_205\n      swap1\n      tag_163\n      jump\t// in\n    tag_205:\n      mload(0x40)\n      dup1\n      swap2\n      sub\n      swap1\n      revert\n    tag_204:\n        /* \"ERC20/ERC20.sol\":3776:3786  _unpause() */\n      tag_206\n        /* \"ERC20/ERC20.sol\":3776:3784  _unpause */\n      tag_207\n        /* \"ERC20/ERC20.sol\":3776:3786  _unpause() */\n      jump\t// in\n    tag_206:\n        /* \"ERC20/ERC20.sol\":3804:3808  true */\n      0x01\n        /* \"ERC20/ERC20.sol\":3797:3808  return true */\n      swap1\n      pop\n        /* \"ERC20/ERC20.sol\":3616:3816  function unPausedOptions() public virtual returns (bool) {... */\n      swap1\n      jump\t// out\n        /* \"ERC20/access/AccessControlEnumerable.sol\":1700:1834  function getRoleMemberCount(bytes32 role) public view override returns (uint256) {... */\n    tag_111:\n        /* \"ERC20/access/AccessControlEnumerable.sol\":1772:1779  uint256 */\n      0x00\n        /* \"ERC20/access/AccessControlEnumerable.sol\":1799:1826  _roleMembers[role].length() */\n      tag_209\n        /* \"ERC20/access/AccessControlEnumerable.sol\":1799:1811  _roleMembers */\n      0x01\n        /* \"ERC20/access/AccessControlEnumerable.sol\":1799:1817  _roleMembers[role] */\n      0x00\n        /* \"ERC20/access/AccessControlEnumerable.sol\":1812:1816  role */\n      dup5\n        /* \"ERC20/access/AccessControlEnumerable.sol\":1799:1817  _roleMembers[role] */\n      dup2\n      mstore\n      0x20\n      add\n      swap1\n      dup2\n      mstore\n      0x20\n      add\n      0x00\n      keccak256\n        /* \"ERC20/access/AccessControlEnumerable.sol\":1799:1824  _roleMembers[role].length */\n      tag_210\n        /* \"ERC20/access/AccessControlEnumerable.sol\":1799:1826  _roleMembers[role].length() */\n      jump\t// in\n    tag_209:\n        /* \"ERC20/access/AccessControlEnumerable.sol\":1792:1826  return _roleMembers[role].length() */\n      swap1\n      pop\n        /* \"ERC20/access/AccessControlEnumerable.sol\":1700:1834  function getRoleMemberCount(bytes32 role) public view override returns (uint256) {... */\n      swap2\n      swap1\n      pop\n      jump\t// out\n        /* \"ERC20/ERC20.sol\":1758:1788  uint256 public MAX_TOKEN_COUNT */\n    tag_114:\n      sload(0x08)\n      dup2\n      jump\t// out\n        /* \"ERC20/access/AccessControlEnumerable.sol\":2215:2504  function revokeRole(bytes32 role, address account) public virtual override(AccessControl, IAccessControl) {... */\n    tag_118:\n        /* \"ERC20/access/AccessControlEnumerable.sol\":2351:2363  _msgSender() */\n      tag_212\n        /* \"ERC20/access/AccessControlEnumerable.sol\":2351:2361  _msgSender */\n      tag_140\n        /* \"ERC20/access/AccessControlEnumerable.sol\":2351:2363  _msgSender() */\n      jump\t// in\n    tag_212:\n        /* \"ERC20/access/AccessControlEnumerable.sol\":2340:2363  account != _msgSender() */\n      0xffffffffffffffffffffffffffffffffffffffff\n      and\n        /* \"ERC20/access/AccessControlEnumerable.sol\":2340:2347  account */\n      dup2\n        /* \"ERC20/access/AccessControlEnumerable.sol\":2340:2363  account != _msgSender() */\n      0xffffffffffffffffffffffffffffffffffffffff\n      and\n      eq\n      iszero\n        /* \"ERC20/access/AccessControlEnumerable.sol\":2332:2409  require(account != _msgSender(), \"ERC20: caller can not revoke own address.\") */\n      tag_213\n      jumpi\n      mload(0x40)\n      0x08c379a000000000000000000000000000000000000000000000000000000000\n      dup2\n      mstore\n      0x04\n      add\n      tag_214\n      swap1\n      tag_215\n      jump\t// in\n    tag_214:\n      mload(0x40)\n      dup1\n      swap2\n      sub\n      swap1\n      revert\n    tag_213:\n        /* \"ERC20/access/AccessControlEnumerable.sol\":2420:2451  super.revokeRole(role, account) */\n      tag_216\n        /* \"ERC20/access/AccessControlEnumerable.sol\":2437:2441  role */\n      dup3\n        /* \"ERC20/access/AccessControlEnumerable.sol\":2443:2450  account */\n      dup3\n        /* \"ERC20/access/AccessControlEnumerable.sol\":2420:2436  super.revokeRole */\n      tag_217\n        /* \"ERC20/access/AccessControlEnumerable.sol\":2420:2451  super.revokeRole(role, account) */\n      jump\t// in\n    tag_216:\n        /* \"ERC20/access/AccessControlEnumerable.sol\":2462:2496  _roleMembers[role].remove(account) */\n      tag_218\n        /* \"ERC20/access/AccessControlEnumerable.sol\":2488:2495  account */\n      dup2\n        /* \"ERC20/access/AccessControlEnumerable.sol\":2462:2474  _roleMembers */\n      0x01\n        /* \"ERC20/access/AccessControlEnumerable.sol\":2462:2480  _roleMembers[role] */\n      0x00\n        /* \"ERC20/access/AccessControlEnumerable.sol\":2475:2479  role */\n      dup6\n        /* \"ERC20/access/AccessControlEnumerable.sol\":2462:2480  _roleMembers[role] */\n      dup2\n      mstore\n      0x20\n      add\n      swap1\n      dup2\n      mstore\n      0x20\n      add\n      0x00\n      keccak256\n        /* \"ERC20/access/AccessControlEnumerable.sol\":2462:2487  _roleMembers[role].remove */\n      tag_219\n      swap1\n        /* \"ERC20/access/AccessControlEnumerable.sol\":2462:2496  _roleMembers[role].remove(account) */\n      swap2\n      swap1\n      0xffffffff\n      and\n      jump\t// in\n    tag_218:\n      pop\n        /* \"ERC20/access/AccessControlEnumerable.sol\":2215:2504  function revokeRole(bytes32 role, address account) public virtual override(AccessControl, IAccessControl) {... */\n      pop\n      pop\n      jump\t// out\n        /* \"ERC20/ERC20.sol\":4957:5108  function allowance(address owner, address spender) public view virtual override returns (uint256) {... */\n    tag_122:\n        /* \"ERC20/ERC20.sol\":5046:5053  uint256 */\n      0x00\n        /* \"ERC20/ERC20.sol\":5073:5084  _allowances */\n      0x04\n        /* \"ERC20/ERC20.sol\":5073:5091  _allowances[owner] */\n      0x00\n        /* \"ERC20/ERC20.sol\":5085:5090  owner */\n      dup5\n        /* \"ERC20/ERC20.sol\":5073:5091  _allowances[owner] */\n      0xffffffffffffffffffffffffffffffffffffffff\n      and\n      0xffffffffffffffffffffffffffffffffffffffff\n      and\n      dup2\n      mstore\n      0x20\n      add\n      swap1\n      dup2\n      mstore\n      0x20\n      add\n      0x00\n      keccak256\n        /* \"ERC20/ERC20.sol\":5073:5100  _allowances[owner][spender] */\n      0x00\n        /* \"ERC20/ERC20.sol\":5092:5099  spender */\n      dup4\n        /* \"ERC20/ERC20.sol\":5073:5100  _allowances[owner][spender] */\n      0xffffffffffffffffffffffffffffffffffffffff\n      and\n      0xffffffffffffffffffffffffffffffffffffffff\n      and\n      dup2\n      mstore\n      0x20\n      add\n      swap1\n      dup2\n      mstore\n      0x20\n      add\n      0x00\n      keccak256\n      sload\n        /* \"ERC20/ERC20.sol\":5066:5100  return _allowances[owner][spender] */\n      swap1\n      pop\n        /* \"ERC20/ERC20.sol\":4957:5108  function allowance(address owner, address spender) public view virtual override returns (uint256) {... */\n      swap3\n      swap2\n      pop\n      pop\n      jump\t// out\n        /* \"ERC20/access/AccessControl.sol\":6353:6465  function _setupRole(bytes32 role, address account) internal virtual {... */\n    tag_124:\n        /* \"ERC20/access/AccessControl.sol\":6432:6457  _grantRole(role, account) */\n      tag_222\n        /* \"ERC20/access/AccessControl.sol\":6443:6447  role */\n      dup3\n        /* \"ERC20/access/AccessControl.sol\":6449:6456  account */\n      dup3\n        /* \"ERC20/access/AccessControl.sol\":6432:6442  _grantRole */\n      tag_223\n        /* \"ERC20/access/AccessControl.sol\":6432:6457  _grantRole(role, account) */\n      jump\t// in\n    tag_222:\n        /* \"ERC20/access/AccessControl.sol\":6353:6465  function _setupRole(bytes32 role, address account) internal virtual {... */\n      pop\n      pop\n      jump\t// out\n        /* \"ERC20/utils/structs/EnumerableSet.sol\":7767:7919  function add(AddressSet storage set, address value) internal returns (bool) {... */\n    tag_125:\n        /* \"ERC20/utils/structs/EnumerableSet.sol\":7837:7841  bool */\n      0x00\n        /* \"ERC20/utils/structs/EnumerableSet.sol\":7861:7911  _add(set._inner, bytes32(uint256(uint160(value)))) */\n      tag_225\n        /* \"ERC20/utils/structs/EnumerableSet.sol\":7866:7869  set */\n      dup4\n        /* \"ERC20/utils/structs/EnumerableSet.sol\":7866:7876  set._inner */\n      0x00\n      add\n        /* \"ERC20/utils/structs/EnumerableSet.sol\":7902:7907  value */\n      dup4\n        /* \"ERC20/utils/structs/EnumerableSet.sol\":7886:7909  uint256(uint160(value)) */\n      0xffffffffffffffffffffffffffffffffffffffff\n      and\n        /* \"ERC20/utils/structs/EnumerableSet.sol\":7878:7910  bytes32(uint256(uint160(value))) */\n      0x00\n      shl\n        /* \"ERC20/utils/structs/EnumerableSet.sol\":7861:7865  _add */\n      tag_226\n        /* \"ERC20/utils/structs/EnumerableSet.sol\":7861:7911  _add(set._inner, bytes32(uint256(uint160(value)))) */\n      jump\t// in\n    tag_225:\n        /* \"ERC20/utils/structs/EnumerableSet.sol\":7854:7911  return _add(set._inner, bytes32(uint256(uint160(value)))) */\n      swap1\n      pop\n        /* \"ERC20/utils/structs/EnumerableSet.sol\":7767:7919  function add(AddressSet storage set, address value) internal returns (bool) {... */\n      swap3\n      swap2\n      pop\n      pop\n      jump\t// out\n        /* \"ERC20/access/AccessControl.sol\":2620:2824  function supportsInterface(bytes4 interfaceId) public view virtual override returns (bool) {... */\n    tag_129:\n        /* \"ERC20/access/AccessControl.sol\":2705:2709  bool */\n      0x00\n        /* \"ERC20/access/AccessControl.sol\":2744:2776  type(IAccessControl).interfaceId */\n      0x4f3351b500000000000000000000000000000000000000000000000000000000\n        /* \"ERC20/access/AccessControl.sol\":2729:2776  interfaceId == type(IAccessControl).interfaceId */\n      not(0xffffffffffffffffffffffffffffffffffffffffffffffffffffffff)\n      and\n        /* \"ERC20/access/AccessControl.sol\":2729:2740  interfaceId */\n      dup3\n        /* \"ERC20/access/AccessControl.sol\":2729:2776  interfaceId == type(IAccessControl).interfaceId */\n      not(0xffffffffffffffffffffffffffffffffffffffffffffffffffffffff)\n      and\n      eq\n        /* \"ERC20/access/AccessControl.sol\":2729:2816  interfaceId == type(IAccessControl).interfaceId || super.supportsInterface(interfaceId) */\n      dup1\n      tag_228\n      jumpi\n      pop\n        /* \"ERC20/access/AccessControl.sol\":2780:2816  super.supportsInterface(interfaceId) */\n      tag_229\n        /* \"ERC20/access/AccessControl.sol\":2804:2815  interfaceId */\n      dup3\n        /* \"ERC20/access/AccessControl.sol\":2780:2803  super.supportsInterface */\n      tag_230\n        /* \"ERC20/access/AccessControl.sol\":2780:2816  super.supportsInterface(interfaceId) */\n      jump\t// in\n    tag_229:\n        /* \"ERC20/access/AccessControl.sol\":2729:2816  interfaceId == type(IAccessControl).interfaceId || super.supportsInterface(interfaceId) */\n    tag_228:\n        /* \"ERC20/access/AccessControl.sol\":2722:2816  return interfaceId == type(IAccessControl).interfaceId || super.supportsInterface(interfaceId) */\n      swap1\n      pop\n        /* \"ERC20/access/AccessControl.sol\":2620:2824  function supportsInterface(bytes4 interfaceId) public view virtual override returns (bool) {... */\n      swap2\n      swap1\n      pop\n      jump\t// out\n        /* \"ERC20/utils/Context.sol\":602:700  function _msgSender() internal view virtual returns (address) {... */\n    tag_140:\n        /* \"ERC20/utils/Context.sol\":655:662  address */\n      0x00\n        /* \"ERC20/utils/Context.sol\":682:692  msg.sender */\n      caller\n        /* \"ERC20/utils/Context.sol\":675:692  return msg.sender */\n      swap1\n      pop\n        /* \"ERC20/utils/Context.sol\":602:700  function _msgSender() internal view virtual returns (address) {... */\n      swap1\n      jump\t// out\n        /* \"ERC20/ERC20.sol\":11880:12260  function _approve(... */\n    tag_141:\n        /* \"ERC20/ERC20.sol\":12033:12034  0 */\n      0x00\n        /* \"ERC20/ERC20.sol\":12016:12035  owner != address(0) */\n      0xffffffffffffffffffffffffffffffffffffffff\n      and\n        /* \"ERC20/ERC20.sol\":12016:12021  owner */\n      dup4\n        /* \"ERC20/ERC20.sol\":12016:12035  owner != address(0) */\n      0xffffffffffffffffffffffffffffffffffffffff\n      and\n      eq\n      iszero\n        /* \"ERC20/ERC20.sol\":12008:12076  require(owner != address(0), \"ERC20: approve from the zero address\") */\n      tag_233\n      jumpi\n      mload(0x40)\n      0x08c379a000000000000000000000000000000000000000000000000000000000\n      dup2\n      mstore\n      0x04\n      add\n      tag_234\n      swap1\n      tag_235\n      jump\t// in\n    tag_234:\n      mload(0x40)\n      dup1\n      swap2\n      sub\n      swap1\n      revert\n    tag_233:\n        /* \"ERC20/ERC20.sol\":12114:12115  0 */\n      0x00\n        /* \"ERC20/ERC20.sol\":12095:12116  spender != address(0) */\n      0xffffffffffffffffffffffffffffffffffffffff\n      and\n        /* \"ERC20/ERC20.sol\":12095:12102  spender */\n      dup3\n        /* \"ERC20/ERC20.sol\":12095:12116  spender != address(0) */\n      0xffffffffffffffffffffffffffffffffffffffff\n      and\n      eq\n      iszero\n        /* \"ERC20/ERC20.sol\":12087:12155  require(spender != address(0), \"ERC20: approve to the zero address\") */\n      tag_236\n      jumpi\n      mload(0x40)\n      0x08c379a000000000000000000000000000000000000000000000000000000000\n      dup2\n      mstore\n      0x04\n      add\n      tag_237\n      swap1\n      tag_238\n      jump\t// in\n    tag_237:\n      mload(0x40)\n      dup1\n      swap2\n      sub\n      swap1\n      revert\n    tag_236:\n        /* \"ERC20/ERC20.sol\":12198:12204  amount */\n      dup1\n        /* \"ERC20/ERC20.sol\":12168:12179  _allowances */\n      0x04\n        /* \"ERC20/ERC20.sol\":12168:12186  _allowances[owner] */\n      0x00\n        /* \"ERC20/ERC20.sol\":12180:12185  owner */\n      dup6\n        /* \"ERC20/ERC20.sol\":12168:12186  _allowances[owner] */\n      0xffffffffffffffffffffffffffffffffffffffff\n      and\n      0xffffffffffffffffffffffffffffffffffffffff\n      and\n      dup2\n      mstore\n      0x20\n      add\n      swap1\n      dup2\n      mstore\n      0x20\n      add\n      0x00\n      keccak256\n        /* \"ERC20/ERC20.sol\":12168:12195  _allowances[owner][spender] */\n      0x00\n        /* \"ERC20/ERC20.sol\":12187:12194  spender */\n      dup5\n        /* \"ERC20/ERC20.sol\":12168:12195  _allowances[owner][spender] */\n      0xffffffffffffffffffffffffffffffffffffffff\n      and\n      0xffffffffffffffffffffffffffffffffffffffff\n      and\n      dup2\n      mstore\n      0x20\n      add\n      swap1\n      dup2\n      mstore\n      0x20\n      add\n      0x00\n      keccak256\n        /* \"ERC20/ERC20.sol\":12168:12204  _allowances[owner][spender] = amount */\n      dup2\n      swap1\n      sstore\n      pop\n        /* \"ERC20/ERC20.sol\":12236:12243  spender */\n      dup2\n        /* \"ERC20/ERC20.sol\":12220:12252  Approval(owner, spender, amount) */\n      0xffffffffffffffffffffffffffffffffffffffff\n      and\n        /* \"ERC20/ERC20.sol\":12229:12234  owner */\n      dup4\n        /* \"ERC20/ERC20.sol\":12220:12252  Approval(owner, spender, amount) */\n      0xffffffffffffffffffffffffffffffffffffffff\n      and\n      0x8c5be1e5ebec7d5bd14f71427d1e84f3dd0314c0f7b2291e5b200ac8c7c3b925\n        /* \"ERC20/ERC20.sol\":12245:12251  amount */\n      dup4\n        /* \"ERC20/ERC20.sol\":12220:12252  Approval(owner, spender, amount) */\n      mload(0x40)\n      tag_239\n      swap2\n      swap1\n      tag_47\n      jump\t// in\n    tag_239:\n      mload(0x40)\n      dup1\n      swap2\n      sub\n      swap1\n      log3\n        /* \"ERC20/ERC20.sol\":11880:12260  function _approve(... */\n      pop\n      pop\n      pop\n      jump\t// out\n        /* \"ERC20/ERC20.sol\":8719:9528  function _transfer(... */\n    tag_145:\n        /* \"ERC20/ERC20.sol\":8861:8869  paused() */\n      tag_241\n        /* \"ERC20/ERC20.sol\":8861:8867  paused */\n      tag_75\n        /* \"ERC20/ERC20.sol\":8861:8869  paused() */\n      jump\t// in\n    tag_241:\n        /* \"ERC20/ERC20.sol\":8860:8869  !paused() */\n      iszero\n        /* \"ERC20/ERC20.sol\":8852:8918  require(!paused(), \"ERC20: transfer function is paused by admin.\") */\n      tag_242\n      jumpi\n      mload(0x40)\n      0x08c379a000000000000000000000000000000000000000000000000000000000\n      dup2\n      mstore\n      0x04\n      add\n      tag_243\n      swap1\n      tag_244\n      jump\t// in\n    tag_243:\n      mload(0x40)\n      dup1\n      swap2\n      sub\n      swap1\n      revert\n    tag_242:\n        /* \"ERC20/ERC20.sol\":8955:8956  0 */\n      0x00\n        /* \"ERC20/ERC20.sol\":8937:8957  sender != address(0) */\n      0xffffffffffffffffffffffffffffffffffffffff\n      and\n        /* \"ERC20/ERC20.sol\":8937:8943  sender */\n      dup4\n        /* \"ERC20/ERC20.sol\":8937:8957  sender != address(0) */\n      0xffffffffffffffffffffffffffffffffffffffff\n      and\n      eq\n      iszero\n        /* \"ERC20/ERC20.sol\":8929:8999  require(sender != address(0), \"ERC20: transfer from the zero address\") */\n      tag_245\n      jumpi\n      mload(0x40)\n      0x08c379a000000000000000000000000000000000000000000000000000000000\n      dup2\n      mstore\n      0x04\n      add\n      tag_246\n      swap1\n      tag_247\n      jump\t// in\n    tag_246:\n      mload(0x40)\n      dup1\n      swap2\n      sub\n      swap1\n      revert\n    tag_245:\n        /* \"ERC20/ERC20.sol\":9039:9040  0 */\n      0x00\n        /* \"ERC20/ERC20.sol\":9018:9041  recipient != address(0) */\n      0xffffffffffffffffffffffffffffffffffffffff\n      and\n        /* \"ERC20/ERC20.sol\":9018:9027  recipient */\n      dup3\n        /* \"ERC20/ERC20.sol\":9018:9041  recipient != address(0) */\n      0xffffffffffffffffffffffffffffffffffffffff\n      and\n      eq\n      iszero\n        /* \"ERC20/ERC20.sol\":9010:9081  require(recipient != address(0), \"ERC20: transfer to the zero address\") */\n      tag_248\n      jumpi\n      mload(0x40)\n      0x08c379a000000000000000000000000000000000000000000000000000000000\n      dup2\n      mstore\n      0x04\n      add\n      tag_249\n      swap1\n      tag_250\n      jump\t// in\n    tag_249:\n      mload(0x40)\n      dup1\n      swap2\n      sub\n      swap1\n      revert\n    tag_248:\n        /* \"ERC20/ERC20.sol\":9092:9139  _beforeTokenTransfer(sender, recipient, amount) */\n      tag_251\n        /* \"ERC20/ERC20.sol\":9113:9119  sender */\n      dup4\n        /* \"ERC20/ERC20.sol\":9121:9130  recipient */\n      dup4\n        /* \"ERC20/ERC20.sol\":9132:9138  amount */\n      dup4\n        /* \"ERC20/ERC20.sol\":9092:9112  _beforeTokenTransfer */\n      tag_252\n        /* \"ERC20/ERC20.sol\":9092:9139  _beforeTokenTransfer(sender, recipient, amount) */\n      jump\t// in\n    tag_251:\n        /* \"ERC20/ERC20.sol\":9152:9173  uint256 senderBalance */\n      0x00\n        /* \"ERC20/ERC20.sol\":9176:9185  _balances */\n      0x03\n        /* \"ERC20/ERC20.sol\":9176:9193  _balances[sender] */\n      0x00\n        /* \"ERC20/ERC20.sol\":9186:9192  sender */\n      dup6\n        /* \"ERC20/ERC20.sol\":9176:9193  _balances[sender] */\n      0xffffffffffffffffffffffffffffffffffffffff\n      and\n      0xffffffffffffffffffffffffffffffffffffffff\n      and\n      dup2\n      mstore\n      0x20\n      add\n      swap1\n      dup2\n      mstore\n      0x20\n      add\n      0x00\n      keccak256\n      sload\n        /* \"ERC20/ERC20.sol\":9152:9193  uint256 senderBalance = _balances[sender] */\n      swap1\n      pop\n        /* \"ERC20/ERC20.sol\":9229:9235  amount */\n      dup2\n        /* \"ERC20/ERC20.sol\":9212:9225  senderBalance */\n      dup2\n        /* \"ERC20/ERC20.sol\":9212:9235  senderBalance >= amount */\n      lt\n      iszero\n        /* \"ERC20/ERC20.sol\":9204:9278  require(senderBalance >= amount, \"ERC20: transfer amount exceeds balance\") */\n      tag_253\n      jumpi\n      mload(0x40)\n      0x08c379a000000000000000000000000000000000000000000000000000000000\n      dup2\n      mstore\n      0x04\n      add\n      tag_254\n      swap1\n      tag_255\n      jump\t// in\n    tag_254:\n      mload(0x40)\n      dup1\n      swap2\n      sub\n      swap1\n      revert\n    tag_253:\n        /* \"ERC20/ERC20.sol\":9350:9356  amount */\n      dup2\n        /* \"ERC20/ERC20.sol\":9334:9347  senderBalance */\n      dup2\n        /* \"ERC20/ERC20.sol\":9334:9356  senderBalance - amount */\n      sub\n        /* \"ERC20/ERC20.sol\":9314:9323  _balances */\n      0x03\n        /* \"ERC20/ERC20.sol\":9314:9331  _balances[sender] */\n      0x00\n        /* \"ERC20/ERC20.sol\":9324:9330  sender */\n      dup7\n        /* \"ERC20/ERC20.sol\":9314:9331  _balances[sender] */\n      0xffffffffffffffffffffffffffffffffffffffff\n      and\n      0xffffffffffffffffffffffffffffffffffffffff\n      and\n      dup2\n      mstore\n      0x20\n      add\n      swap1\n      dup2\n      mstore\n      0x20\n      add\n      0x00\n      keccak256\n        /* \"ERC20/ERC20.sol\":9314:9356  _balances[sender] = senderBalance - amount */\n      dup2\n      swap1\n      sstore\n      pop\n        /* \"ERC20/ERC20.sol\":9402:9408  amount */\n      dup2\n        /* \"ERC20/ERC20.sol\":9378:9387  _balances */\n      0x03\n        /* \"ERC20/ERC20.sol\":9378:9398  _balances[recipient] */\n      0x00\n        /* \"ERC20/ERC20.sol\":9388:9397  recipient */\n      dup6\n        /* \"ERC20/ERC20.sol\":9378:9398  _balances[recipient] */\n      0xffffffffffffffffffffffffffffffffffffffff\n      and\n      0xffffffffffffffffffffffffffffffffffffffff\n      and\n      dup2\n      mstore\n      0x20\n      add\n      swap1\n      dup2\n      mstore\n      0x20\n      add\n      0x00\n      keccak256\n      0x00\n        /* \"ERC20/ERC20.sol\":9378:9408  _balances[recipient] += amount */\n      dup3\n      dup3\n      sload\n      tag_256\n      swap2\n      swap1\n      tag_168\n      jump\t// in\n    tag_256:\n      swap3\n      pop\n      pop\n      dup2\n      swap1\n      sstore\n      pop\n        /* \"ERC20/ERC20.sol\":9443:9452  recipient */\n      dup3\n        /* \"ERC20/ERC20.sol\":9426:9461  Transfer(sender, recipient, amount) */\n      0xffffffffffffffffffffffffffffffffffffffff\n      and\n        /* \"ERC20/ERC20.sol\":9435:9441  sender */\n      dup5\n        /* \"ERC20/ERC20.sol\":9426:9461  Transfer(sender, recipient, amount) */\n      0xffffffffffffffffffffffffffffffffffffffff\n      and\n      0xddf252ad1be2c89b69c2b068fc378daa952ba7f163c4a11628f55a4df523b3ef\n        /* \"ERC20/ERC20.sol\":9454:9460  amount */\n      dup5\n        /* \"ERC20/ERC20.sol\":9426:9461  Transfer(sender, recipient, amount) */\n      mload(0x40)\n      tag_257\n      swap2\n      swap1\n      tag_47\n      jump\t// in\n    tag_257:\n      mload(0x40)\n      dup1\n      swap2\n      sub\n      swap1\n      log3\n        /* \"ERC20/ERC20.sol\":9474:9520  _afterTokenTransfer(sender, recipient, amount) */\n      tag_258\n        /* \"ERC20/ERC20.sol\":9494:9500  sender */\n      dup5\n        /* \"ERC20/ERC20.sol\":9502:9511  recipient */\n      dup5\n        /* \"ERC20/ERC20.sol\":9513:9519  amount */\n      dup5\n        /* \"ERC20/ERC20.sol\":9474:9493  _afterTokenTransfer */\n      tag_259\n        /* \"ERC20/ERC20.sol\":9474:9520  _afterTokenTransfer(sender, recipient, amount) */\n      jump\t// in\n    tag_258:\n        /* \"ERC20/ERC20.sol\":8841:9528  {... */\n      pop\n        /* \"ERC20/ERC20.sol\":8719:9528  function _transfer(... */\n      pop\n      pop\n      pop\n      jump\t// out\n        /* \"ERC20/access/AccessControl.sol\":4416:4563  function grantRole(bytes32 role, address account) public virtual override onlyRole(getRoleAdmin(role)) {... */\n    tag_155:\n        /* \"ERC20/access/AccessControl.sol\":4499:4517  getRoleAdmin(role) */\n      tag_260\n        /* \"ERC20/access/AccessControl.sol\":4512:4516  role */\n      dup3\n        /* \"ERC20/access/AccessControl.sol\":4499:4511  getRoleAdmin */\n      tag_56\n        /* \"ERC20/access/AccessControl.sol\":4499:4517  getRoleAdmin(role) */\n      jump\t// in\n    tag_260:\n        /* \"ERC20/access/AccessControl.sol\":2498:2528  _checkRole(role, _msgSender()) */\n      tag_262\n        /* \"ERC20/access/AccessControl.sol\":2509:2513  role */\n      dup2\n        /* \"ERC20/access/AccessControl.sol\":2515:2527  _msgSender() */\n      tag_263\n        /* \"ERC20/access/AccessControl.sol\":2515:2525  _msgSender */\n      tag_140\n        /* \"ERC20/access/AccessControl.sol\":2515:2527  _msgSender() */\n      jump\t// in\n    tag_263:\n        /* \"ERC20/access/AccessControl.sol\":2498:2508  _checkRole */\n      tag_264\n        /* \"ERC20/access/AccessControl.sol\":2498:2528  _checkRole(role, _msgSender()) */\n      jump\t// in\n    tag_262:\n        /* \"ERC20/access/AccessControl.sol\":4530:4555  _grantRole(role, account) */\n      tag_266\n        /* \"ERC20/access/AccessControl.sol\":4541:4545  role */\n      dup4\n        /* \"ERC20/access/AccessControl.sol\":4547:4554  account */\n      dup4\n        /* \"ERC20/access/AccessControl.sol\":4530:4540  _grantRole */\n      tag_223\n        /* \"ERC20/access/AccessControl.sol\":4530:4555  _grantRole(role, account) */\n      jump\t// in\n    tag_266:\n        /* \"ERC20/access/AccessControl.sol\":4416:4563  function grantRole(bytes32 role, address account) public virtual override onlyRole(getRoleAdmin(role)) {... */\n      pop\n      pop\n      pop\n      jump\t// out\n        /* \"ERC20/security/Pausable.sol\":1806:1921  function _pause() internal virtual whenNotPaused {... */\n    tag_175:\n        /* \"ERC20/security/Pausable.sol\":1355:1363  paused() */\n      tag_268\n        /* \"ERC20/security/Pausable.sol\":1355:1361  paused */\n      tag_75\n        /* \"ERC20/security/Pausable.sol\":1355:1363  paused() */\n      jump\t// in\n    tag_268:\n        /* \"ERC20/security/Pausable.sol\":1354:1363  !paused() */\n      iszero\n        /* \"ERC20/security/Pausable.sol\":1346:1384  require(!paused(), \"Pausable: paused\") */\n      tag_269\n      jumpi\n      mload(0x40)\n      0x08c379a000000000000000000000000000000000000000000000000000000000\n      dup2\n      mstore\n      0x04\n      add\n      tag_270\n      swap1\n      tag_271\n      jump\t// in\n    tag_270:\n      mload(0x40)\n      dup1\n      swap2\n      sub\n      swap1\n      revert\n    tag_269:\n        /* \"ERC20/security/Pausable.sol\":1875:1879  true */\n      0x01\n        /* \"ERC20/security/Pausable.sol\":1865:1872  _paused */\n      0x02\n      0x00\n        /* \"ERC20/security/Pausable.sol\":1865:1879  _paused = true */\n      0x0100\n      exp\n      dup2\n      sload\n      dup2\n      0xff\n      mul\n      not\n      and\n      swap1\n      dup4\n      iszero\n      iszero\n      mul\n      or\n      swap1\n      sstore\n      pop\n        /* \"ERC20/security/Pausable.sol\":1894:1914  Paused(_msgSender()) */\n      0x62e78cea01bee320cd4e420270b5ea74000d11b0c9f74754ebdbfc544b05a258\n        /* \"ERC20/security/Pausable.sol\":1901:1913  _msgSender() */\n      tag_273\n        /* \"ERC20/security/Pausable.sol\":1901:1911  _msgSender */\n      tag_140\n        /* \"ERC20/security/Pausable.sol\":1901:1913  _msgSender() */\n      jump\t// in\n    tag_273:\n        /* \"ERC20/security/Pausable.sol\":1894:1914  Paused(_msgSender()) */\n      mload(0x40)\n      tag_274\n      swap2\n      swap1\n      tag_87\n      jump\t// in\n    tag_274:\n      mload(0x40)\n      dup1\n      swap2\n      sub\n      swap1\n      log1\n        /* \"ERC20/security/Pausable.sol\":1806:1921  function _pause() internal virtual whenNotPaused {... */\n      jump\t// out\n        /* \"ERC20/utils/structs/EnumerableSet.sol\":9063:9221  function at(AddressSet storage set, uint256 index) internal view returns (address) {... */\n    tag_180:\n        /* \"ERC20/utils/structs/EnumerableSet.sol\":9137:9144  address */\n      0x00\n        /* \"ERC20/utils/structs/EnumerableSet.sol\":9188:9210  _at(set._inner, index) */\n      tag_276\n        /* \"ERC20/utils/structs/EnumerableSet.sol\":9192:9195  set */\n      dup4\n        /* \"ERC20/utils/structs/EnumerableSet.sol\":9192:9202  set._inner */\n      0x00\n      add\n        /* \"ERC20/utils/structs/EnumerableSet.sol\":9204:9209  index */\n      dup4\n        /* \"ERC20/utils/structs/EnumerableSet.sol\":9188:9191  _at */\n      tag_277\n        /* \"ERC20/utils/structs/EnumerableSet.sol\":9188:9210  _at(set._inner, index) */\n      jump\t// in\n    tag_276:\n        /* \"ERC20/utils/structs/EnumerableSet.sol\":9180:9211  uint256(_at(set._inner, index)) */\n      0x00\n      shr\n        /* \"ERC20/utils/structs/EnumerableSet.sol\":9157:9213  return address(uint160(uint256(_at(set._inner, index)))) */\n      swap1\n      pop\n        /* \"ERC20/utils/structs/EnumerableSet.sol\":9063:9221  function at(AddressSet storage set, uint256 index) internal view returns (address) {... */\n      swap3\n      swap2\n      pop\n      pop\n      jump\t// out\n        /* \"ERC20/security/Pausable.sol\":2053:2170  function _unpause() internal virtual whenPaused {... */\n    tag_207:\n        /* \"ERC20/security/Pausable.sol\":1620:1628  paused() */\n      tag_279\n        /* \"ERC20/security/Pausable.sol\":1620:1626  paused */\n      tag_75\n        /* \"ERC20/security/Pausable.sol\":1620:1628  paused() */\n      jump\t// in\n    tag_279:\n        /* \"ERC20/security/Pausable.sol\":1612:1653  require(paused(), \"Pausable: not paused\") */\n      tag_280\n      jumpi\n      mload(0x40)\n      0x08c379a000000000000000000000000000000000000000000000000000000000\n      dup2\n      mstore\n      0x04\n      add\n      tag_281\n      swap1\n      tag_282\n      jump\t// in\n    tag_281:\n      mload(0x40)\n      dup1\n      swap2\n      sub\n      swap1\n      revert\n    tag_280:\n        /* \"ERC20/security/Pausable.sol\":2121:2126  false */\n      0x00\n        /* \"ERC20/security/Pausable.sol\":2111:2118  _paused */\n      0x02\n      0x00\n        /* \"ERC20/security/Pausable.sol\":2111:2126  _paused = false */\n      0x0100\n      exp\n      dup2\n      sload\n      dup2\n      0xff\n      mul\n      not\n      and\n      swap1\n      dup4\n      iszero\n      iszero\n      mul\n      or\n      swap1\n      sstore\n      pop\n        /* \"ERC20/security/Pausable.sol\":2141:2163  Unpaused(_msgSender()) */\n      0x5db9ee0a495bf2e6ff9c91a7834c1ba4fdd244a5e8aa4e537bd38aeae4b073aa\n        /* \"ERC20/security/Pausable.sol\":2150:2162  _msgSender() */\n      tag_284\n        /* \"ERC20/security/Pausable.sol\":2150:2160  _msgSender */\n      tag_140\n        /* \"ERC20/security/Pausable.sol\":2150:2162  _msgSender() */\n      jump\t// in\n    tag_284:\n        /* \"ERC20/security/Pausable.sol\":2141:2163  Unpaused(_msgSender()) */\n      mload(0x40)\n      tag_285\n      swap2\n      swap1\n      tag_87\n      jump\t// in\n    tag_285:\n      mload(0x40)\n      dup1\n      swap2\n      sub\n      swap1\n      log1\n        /* \"ERC20/security/Pausable.sol\":2053:2170  function _unpause() internal virtual whenPaused {... */\n      jump\t// out\n        /* \"ERC20/utils/structs/EnumerableSet.sol\":8592:8709  function length(AddressSet storage set) internal view returns (uint256) {... */\n    tag_210:\n        /* \"ERC20/utils/structs/EnumerableSet.sol\":8655:8662  uint256 */\n      0x00\n        /* \"ERC20/utils/structs/EnumerableSet.sol\":8682:8701  _length(set._inner) */\n      tag_287\n        /* \"ERC20/utils/structs/EnumerableSet.sol\":8690:8693  set */\n      dup3\n        /* \"ERC20/utils/structs/EnumerableSet.sol\":8690:8700  set._inner */\n      0x00\n      add\n        /* \"ERC20/utils/structs/EnumerableSet.sol\":8682:8689  _length */\n      tag_288\n        /* \"ERC20/utils/structs/EnumerableSet.sol\":8682:8701  _length(set._inner) */\n      jump\t// in\n    tag_287:\n        /* \"ERC20/utils/structs/EnumerableSet.sol\":8675:8701  return _length(set._inner) */\n      swap1\n      pop\n        /* \"ERC20/utils/structs/EnumerableSet.sol\":8592:8709  function length(AddressSet storage set) internal view returns (uint256) {... */\n      swap2\n      swap1\n      pop\n      jump\t// out\n        /* \"ERC20/access/AccessControl.sol\":4808:4957  function revokeRole(bytes32 role, address account) public virtual override onlyRole(getRoleAdmin(role)) {... */\n    tag_217:\n        /* \"ERC20/access/AccessControl.sol\":4892:4910  getRoleAdmin(role) */\n      tag_289\n        /* \"ERC20/access/AccessControl.sol\":4905:4909  role */\n      dup3\n        /* \"ERC20/access/AccessControl.sol\":4892:4904  getRoleAdmin */\n      tag_56\n        /* \"ERC20/access/AccessControl.sol\":4892:4910  getRoleAdmin(role) */\n      jump\t// in\n    tag_289:\n        /* \"ERC20/access/AccessControl.sol\":2498:2528  _checkRole(role, _msgSender()) */\n      tag_291\n        /* \"ERC20/access/AccessControl.sol\":2509:2513  role */\n      dup2\n        /* \"ERC20/access/AccessControl.sol\":2515:2527  _msgSender() */\n      tag_292\n        /* \"ERC20/access/AccessControl.sol\":2515:2525  _msgSender */\n      tag_140\n        /* \"ERC20/access/AccessControl.sol\":2515:2527  _msgSender() */\n      jump\t// in\n    tag_292:\n        /* \"ERC20/access/AccessControl.sol\":2498:2508  _checkRole */\n      tag_264\n        /* \"ERC20/access/AccessControl.sol\":2498:2528  _checkRole(role, _msgSender()) */\n      jump\t// in\n    tag_291:\n        /* \"ERC20/access/AccessControl.sol\":4923:4949  _revokeRole(role, account) */\n      tag_294\n        /* \"ERC20/access/AccessControl.sol\":4935:4939  role */\n      dup4\n        /* \"ERC20/access/AccessControl.sol\":4941:4948  account */\n      dup4\n        /* \"ERC20/access/AccessControl.sol\":4923:4934  _revokeRole */\n      tag_295\n        /* \"ERC20/access/AccessControl.sol\":4923:4949  _revokeRole(role, account) */\n      jump\t// in\n    tag_294:\n        /* \"ERC20/access/AccessControl.sol\":4808:4957  function revokeRole(bytes32 role, address account) public virtual override onlyRole(getRoleAdmin(role)) {... */\n      pop\n      pop\n      pop\n      jump\t// out\n        /* \"ERC20/utils/structs/EnumerableSet.sol\":8095:8253  function remove(AddressSet storage set, address value) internal returns (bool) {... */\n    tag_219:\n        /* \"ERC20/utils/structs/EnumerableSet.sol\":8168:8172  bool */\n      0x00\n        /* \"ERC20/utils/structs/EnumerableSet.sol\":8192:8245  _remove(set._inner, bytes32(uint256(uint160(value)))) */\n      tag_297\n        /* \"ERC20/utils/structs/EnumerableSet.sol\":8200:8203  set */\n      dup4\n        /* \"ERC20/utils/structs/EnumerableSet.sol\":8200:8210  set._inner */\n      0x00\n      add\n        /* \"ERC20/utils/structs/EnumerableSet.sol\":8236:8241  value */\n      dup4\n        /* \"ERC20/utils/structs/EnumerableSet.sol\":8220:8243  uint256(uint160(value)) */\n      0xffffffffffffffffffffffffffffffffffffffff\n      and\n        /* \"ERC20/utils/structs/EnumerableSet.sol\":8212:8244  bytes32(uint256(uint160(value))) */\n      0x00\n      shl\n        /* \"ERC20/utils/structs/EnumerableSet.sol\":8192:8199  _remove */\n      tag_298\n        /* \"ERC20/utils/structs/EnumerableSet.sol\":8192:8245  _remove(set._inner, bytes32(uint256(uint160(value)))) */\n      jump\t// in\n    tag_297:\n        /* \"ERC20/utils/structs/EnumerableSet.sol\":8185:8245  return _remove(set._inner, bytes32(uint256(uint160(value)))) */\n      swap1\n      pop\n        /* \"ERC20/utils/structs/EnumerableSet.sol\":8095:8253  function remove(AddressSet storage set, address value) internal returns (bool) {... */\n      swap3\n      swap2\n      pop\n      pop\n      jump\t// out\n        /* \"ERC20/access/AccessControl.sol\":6977:7215  function _grantRole(bytes32 role, address account) internal virtual {... */\n    tag_223:\n        /* \"ERC20/access/AccessControl.sol\":7061:7083  hasRole(role, account) */\n      tag_300\n        /* \"ERC20/access/AccessControl.sol\":7069:7073  role */\n      dup3\n        /* \"ERC20/access/AccessControl.sol\":7075:7082  account */\n      dup3\n        /* \"ERC20/access/AccessControl.sol\":7061:7068  hasRole */\n      tag_90\n        /* \"ERC20/access/AccessControl.sol\":7061:7083  hasRole(role, account) */\n      jump\t// in\n    tag_300:\n        /* \"ERC20/access/AccessControl.sol\":7056:7208  if (!hasRole(role, account)) {... */\n      tag_301\n      jumpi\n        /* \"ERC20/access/AccessControl.sol\":7132:7136  true */\n      0x01\n        /* \"ERC20/access/AccessControl.sol\":7100:7106  _roles */\n      0x00\n        /* \"ERC20/access/AccessControl.sol\":7100:7112  _roles[role] */\n      dup1\n        /* \"ERC20/access/AccessControl.sol\":7107:7111  role */\n      dup5\n        /* \"ERC20/access/AccessControl.sol\":7100:7112  _roles[role] */\n      dup2\n      mstore\n      0x20\n      add\n      swap1\n      dup2\n      mstore\n      0x20\n      add\n      0x00\n      keccak256\n        /* \"ERC20/access/AccessControl.sol\":7100:7120  _roles[role].members */\n      0x00\n      add\n        /* \"ERC20/access/AccessControl.sol\":7100:7129  _roles[role].members[account] */\n      0x00\n        /* \"ERC20/access/AccessControl.sol\":7121:7128  account */\n      dup4\n        /* \"ERC20/access/AccessControl.sol\":7100:7129  _roles[role].members[account] */\n      0xffffffffffffffffffffffffffffffffffffffff\n      and\n      0xffffffffffffffffffffffffffffffffffffffff\n      and\n      dup2\n      mstore\n      0x20\n      add\n      swap1\n      dup2\n      mstore\n      0x20\n      add\n      0x00\n      keccak256\n      0x00\n        /* \"ERC20/access/AccessControl.sol\":7100:7136  _roles[role].members[account] = true */\n      0x0100\n      exp\n      dup2\n      sload\n      dup2\n      0xff\n      mul\n      not\n      and\n      swap1\n      dup4\n      iszero\n      iszero\n      mul\n      or\n      swap1\n      sstore\n      pop\n        /* \"ERC20/access/AccessControl.sol\":7183:7195  _msgSender() */\n      tag_302\n        /* \"ERC20/access/AccessControl.sol\":7183:7193  _msgSender */\n      tag_140\n        /* \"ERC20/access/AccessControl.sol\":7183:7195  _msgSender() */\n      jump\t// in\n    tag_302:\n        /* \"ERC20/access/AccessControl.sol\":7156:7196  RoleGranted(role, account, _msgSender()) */\n      0xffffffffffffffffffffffffffffffffffffffff\n      and\n        /* \"ERC20/access/AccessControl.sol\":7174:7181  account */\n      dup2\n        /* \"ERC20/access/AccessControl.sol\":7156:7196  RoleGranted(role, account, _msgSender()) */\n      0xffffffffffffffffffffffffffffffffffffffff\n      and\n        /* \"ERC20/access/AccessControl.sol\":7168:7172  role */\n      dup4\n        /* \"ERC20/access/AccessControl.sol\":7156:7196  RoleGranted(role, account, _msgSender()) */\n      0x2f8788117e7eff1d82e926ec794901d17c78024a50270940304540a733656f0d\n      mload(0x40)\n      mload(0x40)\n      dup1\n      swap2\n      sub\n      swap1\n      log4\n        /* \"ERC20/access/AccessControl.sol\":7056:7208  if (!hasRole(role, account)) {... */\n    tag_301:\n        /* \"ERC20/access/AccessControl.sol\":6977:7215  function _grantRole(bytes32 role, address account) internal virtual {... */\n      pop\n      pop\n      jump\t// out\n        /* \"ERC20/utils/structs/EnumerableSet.sol\":1682:2096  function _add(Set storage set, bytes32 value) private returns (bool) {... */\n    tag_226:\n        /* \"ERC20/utils/structs/EnumerableSet.sol\":1745:1749  bool */\n      0x00\n        /* \"ERC20/utils/structs/EnumerableSet.sol\":1767:1788  _contains(set, value) */\n      tag_304\n        /* \"ERC20/utils/structs/EnumerableSet.sol\":1777:1780  set */\n      dup4\n        /* \"ERC20/utils/structs/EnumerableSet.sol\":1782:1787  value */\n      dup4\n        /* \"ERC20/utils/structs/EnumerableSet.sol\":1767:1776  _contains */\n      tag_305\n        /* \"ERC20/utils/structs/EnumerableSet.sol\":1767:1788  _contains(set, value) */\n      jump\t// in\n    tag_304:\n        /* \"ERC20/utils/structs/EnumerableSet.sol\":1762:2089  if (!_contains(set, value)) {... */\n      tag_306\n      jumpi\n        /* \"ERC20/utils/structs/EnumerableSet.sol\":1805:1808  set */\n      dup3\n        /* \"ERC20/utils/structs/EnumerableSet.sol\":1805:1816  set._values */\n      0x00\n      add\n        /* \"ERC20/utils/structs/EnumerableSet.sol\":1822:1827  value */\n      dup3\n        /* \"ERC20/utils/structs/EnumerableSet.sol\":1805:1828  set._values.push(value) */\n      swap1\n      dup1\n      0x01\n      dup2\n      sload\n      add\n      dup1\n      dup3\n      sstore\n      dup1\n      swap2\n      pop\n      pop\n      0x01\n      swap1\n      sub\n      swap1\n      0x00\n      mstore\n      keccak256(0x00, 0x20)\n      add\n      0x00\n      swap1\n      swap2\n      swap1\n      swap2\n      swap1\n      swap2\n      pop\n      sstore\n        /* \"ERC20/utils/structs/EnumerableSet.sol\":1988:1991  set */\n      dup3\n        /* \"ERC20/utils/structs/EnumerableSet.sol\":1988:1999  set._values */\n      0x00\n      add\n        /* \"ERC20/utils/structs/EnumerableSet.sol\":1988:2006  set._values.length */\n      dup1\n      sload\n      swap1\n      pop\n        /* \"ERC20/utils/structs/EnumerableSet.sol\":1966:1969  set */\n      dup4\n        /* \"ERC20/utils/structs/EnumerableSet.sol\":1966:1978  set._indexes */\n      0x01\n      add\n        /* \"ERC20/utils/structs/EnumerableSet.sol\":1966:1985  set._indexes[value] */\n      0x00\n        /* \"ERC20/utils/structs/EnumerableSet.sol\":1979:1984  value */\n      dup5\n        /* \"ERC20/utils/structs/EnumerableSet.sol\":1966:1985  set._indexes[value] */\n      dup2\n      mstore\n      0x20\n      add\n      swap1\n      dup2\n      mstore\n      0x20\n      add\n      0x00\n      keccak256\n        /* \"ERC20/utils/structs/EnumerableSet.sol\":1966:2006  set._indexes[value] = set._values.length */\n      dup2\n      swap1\n      sstore\n      pop\n        /* \"ERC20/utils/structs/EnumerableSet.sol\":2028:2032  true */\n      0x01\n        /* \"ERC20/utils/structs/EnumerableSet.sol\":2021:2032  return true */\n      swap1\n      pop\n      jump(tag_303)\n        /* \"ERC20/utils/structs/EnumerableSet.sol\":1762:2089  if (!_contains(set, value)) {... */\n    tag_306:\n        /* \"ERC20/utils/structs/EnumerableSet.sol\":2072:2077  false */\n      0x00\n        /* \"ERC20/utils/structs/EnumerableSet.sol\":2065:2077  return false */\n      swap1\n      pop\n        /* \"ERC20/utils/structs/EnumerableSet.sol\":1682:2096  function _add(Set storage set, bytes32 value) private returns (bool) {... */\n    tag_303:\n      swap3\n      swap2\n      pop\n      pop\n      jump\t// out\n        /* \"ERC20/utils/introspection/ERC165.sol\":787:944  function supportsInterface(bytes4 interfaceId) public view virtual override returns (bool) {... */\n    tag_230:\n        /* \"ERC20/utils/introspection/ERC165.sol\":872:876  bool */\n      0x00\n        /* \"ERC20/utils/introspection/ERC165.sol\":911:936  type(IERC165).interfaceId */\n      0x01ffc9a700000000000000000000000000000000000000000000000000000000\n        /* \"ERC20/utils/introspection/ERC165.sol\":896:936  interfaceId == type(IERC165).interfaceId */\n      not(0xffffffffffffffffffffffffffffffffffffffffffffffffffffffff)\n      and\n        /* \"ERC20/utils/introspection/ERC165.sol\":896:907  interfaceId */\n      dup3\n        /* \"ERC20/utils/introspection/ERC165.sol\":896:936  interfaceId == type(IERC165).interfaceId */\n      not(0xffffffffffffffffffffffffffffffffffffffffffffffffffffffff)\n      and\n      eq\n        /* \"ERC20/utils/introspection/ERC165.sol\":889:936  return interfaceId == type(IERC165).interfaceId */\n      swap1\n      pop\n        /* \"ERC20/utils/introspection/ERC165.sol\":787:944  function supportsInterface(bytes4 interfaceId) public view virtual override returns (bool) {... */\n      swap2\n      swap1\n      pop\n      jump\t// out\n        /* \"ERC20/ERC20.sol\":12860:12985  function _beforeTokenTransfer(... */\n    tag_252:\n      pop\n      pop\n      pop\n      jump\t// out\n        /* \"ERC20/ERC20.sol\":13589:13713  function _afterTokenTransfer(... */\n    tag_259:\n      pop\n      pop\n      pop\n      jump\t// out\n        /* \"ERC20/access/AccessControl.sol\":3345:3842  function _checkRole(bytes32 role, address account) internal view {... */\n    tag_264:\n        /* \"ERC20/access/AccessControl.sol\":3426:3448  hasRole(role, account) */\n      tag_313\n        /* \"ERC20/access/AccessControl.sol\":3434:3438  role */\n      dup3\n        /* \"ERC20/access/AccessControl.sol\":3440:3447  account */\n      dup3\n        /* \"ERC20/access/AccessControl.sol\":3426:3433  hasRole */\n      tag_90\n        /* \"ERC20/access/AccessControl.sol\":3426:3448  hasRole(role, account) */\n      jump\t// in\n    tag_313:\n        /* \"ERC20/access/AccessControl.sol\":3421:3835  if (!hasRole(role, account)) {... */\n      tag_314\n      jumpi\n        /* \"ERC20/access/AccessControl.sol\":3614:3655  Strings.toHexString(uint160(account), 20) */\n      tag_315\n        /* \"ERC20/access/AccessControl.sol\":3642:3649  account */\n      dup2\n        /* \"ERC20/access/AccessControl.sol\":3614:3655  Strings.toHexString(uint160(account), 20) */\n      0xffffffffffffffffffffffffffffffffffffffff\n      and\n        /* \"ERC20/access/AccessControl.sol\":3652:3654  20 */\n      0x14\n        /* \"ERC20/access/AccessControl.sol\":3614:3633  Strings.toHexString */\n      tag_316\n        /* \"ERC20/access/AccessControl.sol\":3614:3655  Strings.toHexString(uint160(account), 20) */\n      jump\t// in\n    tag_315:\n        /* \"ERC20/access/AccessControl.sol\":3728:3766  Strings.toHexString(uint256(role), 32) */\n      tag_317\n        /* \"ERC20/access/AccessControl.sol\":3756:3760  role */\n      dup4\n        /* \"ERC20/access/AccessControl.sol\":3748:3761  uint256(role) */\n      0x00\n      shr\n        /* \"ERC20/access/AccessControl.sol\":3763:3765  32 */\n      0x20\n        /* \"ERC20/access/AccessControl.sol\":3728:3747  Strings.toHexString */\n      tag_316\n        /* \"ERC20/access/AccessControl.sol\":3728:3766  Strings.toHexString(uint256(role), 32) */\n      jump\t// in\n    tag_317:\n        /* \"ERC20/access/AccessControl.sol\":3519:3789  abi.encodePacked(... */\n      add(0x20, mload(0x40))\n      tag_318\n      swap3\n      swap2\n      swap1\n      tag_319\n      jump\t// in\n    tag_318:\n      mload(0x40)\n      0x20\n      dup2\n      dup4\n      sub\n      sub\n      dup2\n      mstore\n      swap1\n      0x40\n      mstore\n        /* \"ERC20/access/AccessControl.sol\":3465:3823  revert(... */\n      mload(0x40)\n      0x08c379a000000000000000000000000000000000000000000000000000000000\n      dup2\n      mstore\n      0x04\n      add\n      tag_320\n      swap2\n      swap1\n      tag_38\n      jump\t// in\n    tag_320:\n      mload(0x40)\n      dup1\n      swap2\n      sub\n      swap1\n      revert\n        /* \"ERC20/access/AccessControl.sol\":3421:3835  if (!hasRole(role, account)) {... */\n    tag_314:\n        /* \"ERC20/access/AccessControl.sol\":3345:3842  function _checkRole(bytes32 role, address account) internal view {... */\n      pop\n      pop\n      jump\t// out\n        /* \"ERC20/utils/structs/EnumerableSet.sol\":4456:4576  function _at(Set storage set, uint256 index) private view returns (bytes32) {... */\n    tag_277:\n        /* \"ERC20/utils/structs/EnumerableSet.sol\":4523:4530  bytes32 */\n      0x00\n        /* \"ERC20/utils/structs/EnumerableSet.sol\":4550:4553  set */\n      dup3\n        /* \"ERC20/utils/structs/EnumerableSet.sol\":4550:4561  set._values */\n      0x00\n      add\n        /* \"ERC20/utils/structs/EnumerableSet.sol\":4562:4567  index */\n      dup3\n        /* \"ERC20/utils/structs/EnumerableSet.sol\":4550:4568  set._values[index] */\n      dup2\n      sload\n      dup2\n      lt\n      tag_322\n      jumpi\n      tag_323\n      tag_324\n      jump\t// in\n    tag_323:\n    tag_322:\n      swap1\n      0x00\n      mstore\n      keccak256(0x00, 0x20)\n      add\n      sload\n        /* \"ERC20/utils/structs/EnumerableSet.sol\":4543:4568  return set._values[index] */\n      swap1\n      pop\n        /* \"ERC20/utils/structs/EnumerableSet.sol\":4456:4576  function _at(Set storage set, uint256 index) private view returns (bytes32) {... */\n      swap3\n      swap2\n      pop\n      pop\n      jump\t// out\n        /* \"ERC20/utils/structs/EnumerableSet.sol\":3993:4102  function _length(Set storage set) private view returns (uint256) {... */\n    tag_288:\n        /* \"ERC20/utils/structs/EnumerableSet.sol\":4049:4056  uint256 */\n      0x00\n        /* \"ERC20/utils/structs/EnumerableSet.sol\":4076:4079  set */\n      dup2\n        /* \"ERC20/utils/structs/EnumerableSet.sol\":4076:4087  set._values */\n      0x00\n      add\n        /* \"ERC20/utils/structs/EnumerableSet.sol\":4076:4094  set._values.length */\n      dup1\n      sload\n      swap1\n      pop\n        /* \"ERC20/utils/structs/EnumerableSet.sol\":4069:4094  return set._values.length */\n      swap1\n      pop\n        /* \"ERC20/utils/structs/EnumerableSet.sol\":3993:4102  function _length(Set storage set) private view returns (uint256) {... */\n      swap2\n      swap1\n      pop\n      jump\t// out\n        /* \"ERC20/access/AccessControl.sol\":7347:7586  function _revokeRole(bytes32 role, address account) internal virtual {... */\n    tag_295:\n        /* \"ERC20/access/AccessControl.sol\":7431:7453  hasRole(role, account) */\n      tag_328\n        /* \"ERC20/access/AccessControl.sol\":7439:7443  role */\n      dup3\n        /* \"ERC20/access/AccessControl.sol\":7445:7452  account */\n      dup3\n        /* \"ERC20/access/AccessControl.sol\":7431:7438  hasRole */\n      tag_90\n        /* \"ERC20/access/AccessControl.sol\":7431:7453  hasRole(role, account) */\n      jump\t// in\n    tag_328:\n        /* \"ERC20/access/AccessControl.sol\":7427:7579  if (hasRole(role, account)) {... */\n      iszero\n      tag_329\n      jumpi\n        /* \"ERC20/access/AccessControl.sol\":7502:7507  false */\n      0x00\n        /* \"ERC20/access/AccessControl.sol\":7470:7476  _roles */\n      dup1\n        /* \"ERC20/access/AccessControl.sol\":7470:7482  _roles[role] */\n      0x00\n        /* \"ERC20/access/AccessControl.sol\":7477:7481  role */\n      dup5\n        /* \"ERC20/access/AccessControl.sol\":7470:7482  _roles[role] */\n      dup2\n      mstore\n      0x20\n      add\n      swap1\n      dup2\n      mstore\n      0x20\n      add\n      0x00\n      keccak256\n        /* \"ERC20/access/AccessControl.sol\":7470:7490  _roles[role].members */\n      0x00\n      add\n        /* \"ERC20/access/AccessControl.sol\":7470:7499  _roles[role].members[account] */\n      0x00\n        /* \"ERC20/access/AccessControl.sol\":7491:7498  account */\n      dup4\n        /* \"ERC20/access/AccessControl.sol\":7470:7499  _roles[role].members[account] */\n      0xffffffffffffffffffffffffffffffffffffffff\n      and\n      0xffffffffffffffffffffffffffffffffffffffff\n      and\n      dup2\n      mstore\n      0x20\n      add\n      swap1\n      dup2\n      mstore\n      0x20\n      add\n      0x00\n      keccak256\n      0x00\n        /* \"ERC20/access/AccessControl.sol\":7470:7507  _roles[role].members[account] = false */\n      0x0100\n      exp\n      dup2\n      sload\n      dup2\n      0xff\n      mul\n      not\n      and\n      swap1\n      dup4\n      iszero\n      iszero\n      mul\n      or\n      swap1\n      sstore\n      pop\n        /* \"ERC20/access/AccessControl.sol\":7554:7566  _msgSender() */\n      tag_330\n        /* \"ERC20/access/AccessControl.sol\":7554:7564  _msgSender */\n      tag_140\n        /* \"ERC20/access/AccessControl.sol\":7554:7566  _msgSender() */\n      jump\t// in\n    tag_330:\n        /* \"ERC20/access/AccessControl.sol\":7527:7567  RoleRevoked(role, account, _msgSender()) */\n      0xffffffffffffffffffffffffffffffffffffffff\n      and\n        /* \"ERC20/access/AccessControl.sol\":7545:7552  account */\n      dup2\n        /* \"ERC20/access/AccessControl.sol\":7527:7567  RoleRevoked(role, account, _msgSender()) */\n      0xffffffffffffffffffffffffffffffffffffffff\n      and\n        /* \"ERC20/access/AccessControl.sol\":7539:7543  role */\n      dup4\n        /* \"ERC20/access/AccessControl.sol\":7527:7567  RoleRevoked(role, account, _msgSender()) */\n      0xf6391f5c32d9c69d2a47ea670b442974b53935d1edc7fd64eb21e047a839171b\n      mload(0x40)\n      mload(0x40)\n      dup1\n      swap2\n      sub\n      swap1\n      log4\n        /* \"ERC20/access/AccessControl.sol\":7427:7579  if (hasRole(role, account)) {... */\n    tag_329:\n        /* \"ERC20/access/AccessControl.sol\":7347:7586  function _revokeRole(bytes32 role, address account) internal virtual {... */\n      pop\n      pop\n      jump\t// out\n        /* \"ERC20/utils/structs/EnumerableSet.sol\":2272:3692  function _remove(Set storage set, bytes32 value) private returns (bool) {... */\n    tag_298:\n        /* \"ERC20/utils/structs/EnumerableSet.sol\":2338:2342  bool */\n      0x00\n        /* \"ERC20/utils/structs/EnumerableSet.sol\":2456:2474  uint256 valueIndex */\n      dup1\n        /* \"ERC20/utils/structs/EnumerableSet.sol\":2477:2480  set */\n      dup4\n        /* \"ERC20/utils/structs/EnumerableSet.sol\":2477:2489  set._indexes */\n      0x01\n      add\n        /* \"ERC20/utils/structs/EnumerableSet.sol\":2477:2496  set._indexes[value] */\n      0x00\n        /* \"ERC20/utils/structs/EnumerableSet.sol\":2490:2495  value */\n      dup5\n        /* \"ERC20/utils/structs/EnumerableSet.sol\":2477:2496  set._indexes[value] */\n      dup2\n      mstore\n      0x20\n      add\n      swap1\n      dup2\n      mstore\n      0x20\n      add\n      0x00\n      keccak256\n      sload\n        /* \"ERC20/utils/structs/EnumerableSet.sol\":2456:2496  uint256 valueIndex = set._indexes[value] */\n      swap1\n      pop\n        /* \"ERC20/utils/structs/EnumerableSet.sol\":2527:2528  0 */\n      0x00\n        /* \"ERC20/utils/structs/EnumerableSet.sol\":2513:2523  valueIndex */\n      dup2\n        /* \"ERC20/utils/structs/EnumerableSet.sol\":2513:2528  valueIndex != 0 */\n      eq\n        /* \"ERC20/utils/structs/EnumerableSet.sol\":2509:3685  if (valueIndex != 0) {... */\n      tag_332\n      jumpi\n        /* \"ERC20/utils/structs/EnumerableSet.sol\":2888:2909  uint256 toDeleteIndex */\n      0x00\n        /* \"ERC20/utils/structs/EnumerableSet.sol\":2925:2926  1 */\n      0x01\n        /* \"ERC20/utils/structs/EnumerableSet.sol\":2912:2922  valueIndex */\n      dup3\n        /* \"ERC20/utils/structs/EnumerableSet.sol\":2912:2926  valueIndex - 1 */\n      tag_333\n      swap2\n      swap1\n      tag_334\n      jump\t// in\n    tag_333:\n        /* \"ERC20/utils/structs/EnumerableSet.sol\":2888:2926  uint256 toDeleteIndex = valueIndex - 1 */\n      swap1\n      pop\n        /* \"ERC20/utils/structs/EnumerableSet.sol\":2941:2958  uint256 lastIndex */\n      0x00\n        /* \"ERC20/utils/structs/EnumerableSet.sol\":2982:2983  1 */\n      0x01\n        /* \"ERC20/utils/structs/EnumerableSet.sol\":2961:2964  set */\n      dup7\n        /* \"ERC20/utils/structs/EnumerableSet.sol\":2961:2972  set._values */\n      0x00\n      add\n        /* \"ERC20/utils/structs/EnumerableSet.sol\":2961:2979  set._values.length */\n      dup1\n      sload\n      swap1\n      pop\n        /* \"ERC20/utils/structs/EnumerableSet.sol\":2961:2983  set._values.length - 1 */\n      tag_335\n      swap2\n      swap1\n      tag_334\n      jump\t// in\n    tag_335:\n        /* \"ERC20/utils/structs/EnumerableSet.sol\":2941:2983  uint256 lastIndex = set._values.length - 1 */\n      swap1\n      pop\n        /* \"ERC20/utils/structs/EnumerableSet.sol\":3017:3030  toDeleteIndex */\n      dup2\n        /* \"ERC20/utils/structs/EnumerableSet.sol\":3004:3013  lastIndex */\n      dup2\n        /* \"ERC20/utils/structs/EnumerableSet.sol\":3004:3030  lastIndex != toDeleteIndex */\n      eq\n        /* \"ERC20/utils/structs/EnumerableSet.sol\":3000:3405  if (lastIndex != toDeleteIndex) {... */\n      tag_336\n      jumpi\n        /* \"ERC20/utils/structs/EnumerableSet.sol\":3051:3068  bytes32 lastvalue */\n      0x00\n        /* \"ERC20/utils/structs/EnumerableSet.sol\":3071:3074  set */\n      dup7\n        /* \"ERC20/utils/structs/EnumerableSet.sol\":3071:3082  set._values */\n      0x00\n      add\n        /* \"ERC20/utils/structs/EnumerableSet.sol\":3083:3092  lastIndex */\n      dup3\n        /* \"ERC20/utils/structs/EnumerableSet.sol\":3071:3093  set._values[lastIndex] */\n      dup2\n      sload\n      dup2\n      lt\n      tag_337\n      jumpi\n      tag_338\n      tag_324\n      jump\t// in\n    tag_338:\n    tag_337:\n      swap1\n      0x00\n      mstore\n      keccak256(0x00, 0x20)\n      add\n      sload\n        /* \"ERC20/utils/structs/EnumerableSet.sol\":3051:3093  bytes32 lastvalue = set._values[lastIndex] */\n      swap1\n      pop\n        /* \"ERC20/utils/structs/EnumerableSet.sol\":3225:3234  lastvalue */\n      dup1\n        /* \"ERC20/utils/structs/EnumerableSet.sol\":3196:3199  set */\n      dup8\n        /* \"ERC20/utils/structs/EnumerableSet.sol\":3196:3207  set._values */\n      0x00\n      add\n        /* \"ERC20/utils/structs/EnumerableSet.sol\":3208:3221  toDeleteIndex */\n      dup5\n        /* \"ERC20/utils/structs/EnumerableSet.sol\":3196:3222  set._values[toDeleteIndex] */\n      dup2\n      sload\n      dup2\n      lt\n      tag_340\n      jumpi\n      tag_341\n      tag_324\n      jump\t// in\n    tag_341:\n    tag_340:\n      swap1\n      0x00\n      mstore\n      keccak256(0x00, 0x20)\n      add\n        /* \"ERC20/utils/structs/EnumerableSet.sol\":3196:3234  set._values[toDeleteIndex] = lastvalue */\n      dup2\n      swap1\n      sstore\n      pop\n        /* \"ERC20/utils/structs/EnumerableSet.sol\":3336:3346  valueIndex */\n      dup4\n        /* \"ERC20/utils/structs/EnumerableSet.sol\":3310:3313  set */\n      dup8\n        /* \"ERC20/utils/structs/EnumerableSet.sol\":3310:3322  set._indexes */\n      0x01\n      add\n        /* \"ERC20/utils/structs/EnumerableSet.sol\":3310:3333  set._indexes[lastvalue] */\n      0x00\n        /* \"ERC20/utils/structs/EnumerableSet.sol\":3323:3332  lastvalue */\n      dup4\n        /* \"ERC20/utils/structs/EnumerableSet.sol\":3310:3333  set._indexes[lastvalue] */\n      dup2\n      mstore\n      0x20\n      add\n      swap1\n      dup2\n      mstore\n      0x20\n      add\n      0x00\n      keccak256\n        /* \"ERC20/utils/structs/EnumerableSet.sol\":3310:3346  set._indexes[lastvalue] = valueIndex */\n      dup2\n      swap1\n      sstore\n      pop\n        /* \"ERC20/utils/structs/EnumerableSet.sol\":3032:3405  {... */\n      pop\n        /* \"ERC20/utils/structs/EnumerableSet.sol\":3000:3405  if (lastIndex != toDeleteIndex) {... */\n    tag_336:\n        /* \"ERC20/utils/structs/EnumerableSet.sol\":3486:3489  set */\n      dup6\n        /* \"ERC20/utils/structs/EnumerableSet.sol\":3486:3497  set._values */\n      0x00\n      add\n        /* \"ERC20/utils/structs/EnumerableSet.sol\":3486:3503  set._values.pop() */\n      dup1\n      sload\n      dup1\n      tag_343\n      jumpi\n      tag_344\n      tag_345\n      jump\t// in\n    tag_344:\n    tag_343:\n      0x01\n      swap1\n      sub\n      dup2\n      dup2\n      swap1\n      0x00\n      mstore\n      keccak256(0x00, 0x20)\n      add\n      0x00\n      swap1\n      sstore\n      swap1\n      sstore\n        /* \"ERC20/utils/structs/EnumerableSet.sol\":3581:3584  set */\n      dup6\n        /* \"ERC20/utils/structs/EnumerableSet.sol\":3581:3593  set._indexes */\n      0x01\n      add\n        /* \"ERC20/utils/structs/EnumerableSet.sol\":3581:3600  set._indexes[value] */\n      0x00\n        /* \"ERC20/utils/structs/EnumerableSet.sol\":3594:3599  value */\n      dup7\n        /* \"ERC20/utils/structs/EnumerableSet.sol\":3581:3600  set._indexes[value] */\n      dup2\n      mstore\n      0x20\n      add\n      swap1\n      dup2\n      mstore\n      0x20\n      add\n      0x00\n      keccak256\n        /* \"ERC20/utils/structs/EnumerableSet.sol\":3574:3600  delete set._indexes[value] */\n      0x00\n      swap1\n      sstore\n        /* \"ERC20/utils/structs/EnumerableSet.sol\":3624:3628  true */\n      0x01\n        /* \"ERC20/utils/structs/EnumerableSet.sol\":3617:3628  return true */\n      swap4\n      pop\n      pop\n      pop\n      pop\n      jump(tag_331)\n        /* \"ERC20/utils/structs/EnumerableSet.sol\":2509:3685  if (valueIndex != 0) {... */\n    tag_332:\n        /* \"ERC20/utils/structs/EnumerableSet.sol\":3668:3673  false */\n      0x00\n        /* \"ERC20/utils/structs/EnumerableSet.sol\":3661:3673  return false */\n      swap2\n      pop\n      pop\n        /* \"ERC20/utils/structs/EnumerableSet.sol\":2272:3692  function _remove(Set storage set, bytes32 value) private returns (bool) {... */\n    tag_331:\n      swap3\n      swap2\n      pop\n      pop\n      jump\t// out\n        /* \"ERC20/utils/structs/EnumerableSet.sol\":3778:3907  function _contains(Set storage set, bytes32 value) private view returns (bool) {... */\n    tag_305:\n        /* \"ERC20/utils/structs/EnumerableSet.sol\":3851:3855  bool */\n      0x00\n        /* \"ERC20/utils/structs/EnumerableSet.sol\":3898:3899  0 */\n      dup1\n        /* \"ERC20/utils/structs/EnumerableSet.sol\":3875:3878  set */\n      dup4\n        /* \"ERC20/utils/structs/EnumerableSet.sol\":3875:3887  set._indexes */\n      0x01\n      add\n        /* \"ERC20/utils/structs/EnumerableSet.sol\":3875:3894  set._indexes[value] */\n      0x00\n        /* \"ERC20/utils/structs/EnumerableSet.sol\":3888:3893  value */\n      dup5\n        /* \"ERC20/utils/structs/EnumerableSet.sol\":3875:3894  set._indexes[value] */\n      dup2\n      mstore\n      0x20\n      add\n      swap1\n      dup2\n      mstore\n      0x20\n      add\n      0x00\n      keccak256\n      sload\n        /* \"ERC20/utils/structs/EnumerableSet.sol\":3875:3899  set._indexes[value] != 0 */\n      eq\n      iszero\n        /* \"ERC20/utils/structs/EnumerableSet.sol\":3868:3899  return set._indexes[value] != 0 */\n      swap1\n      pop\n        /* \"ERC20/utils/structs/EnumerableSet.sol\":3778:3907  function _contains(Set storage set, bytes32 value) private view returns (bool) {... */\n      swap3\n      swap2\n      pop\n      pop\n      jump\t// out\n        /* \"ERC20/utils/Strings.sol\":1589:2040  function toHexString(uint256 value, uint256 length) internal pure returns (string memory) {... */\n    tag_316:\n        /* \"ERC20/utils/Strings.sol\":1664:1677  string memory */\n      0x60\n        /* \"ERC20/utils/Strings.sol\":1690:1709  bytes memory buffer */\n      0x00\n        /* \"ERC20/utils/Strings.sol\":1735:1736  2 */\n      0x02\n        /* \"ERC20/utils/Strings.sol\":1726:1732  length */\n      dup4\n        /* \"ERC20/utils/Strings.sol\":1722:1723  2 */\n      0x02\n        /* \"ERC20/utils/Strings.sol\":1722:1732  2 * length */\n      tag_350\n      swap2\n      swap1\n      tag_351\n      jump\t// in\n    tag_350:\n        /* \"ERC20/utils/Strings.sol\":1722:1736  2 * length + 2 */\n      tag_352\n      swap2\n      swap1\n      tag_168\n      jump\t// in\n    tag_352:\n        /* \"ERC20/utils/Strings.sol\":1712:1737  new bytes(2 * length + 2) */\n      0xffffffffffffffff\n      dup2\n      gt\n      iszero\n      tag_353\n      jumpi\n      tag_354\n      tag_355\n      jump\t// in\n    tag_354:\n    tag_353:\n      mload(0x40)\n      swap1\n      dup1\n      dup3\n      mstore\n      dup1\n      0x1f\n      add\n      not(0x1f)\n      and\n      0x20\n      add\n      dup3\n      add\n      0x40\n      mstore\n      dup1\n      iszero\n      tag_356\n      jumpi\n      dup2\n      0x20\n      add\n      0x01\n      dup3\n      mul\n      dup1\n      calldatasize\n      dup4\n      calldatacopy\n      dup1\n      dup3\n      add\n      swap2\n      pop\n      pop\n      swap1\n      pop\n    tag_356:\n      pop\n        /* \"ERC20/utils/Strings.sol\":1690:1737  bytes memory buffer = new bytes(2 * length + 2) */\n      swap1\n      pop\n        /* \"ERC20/utils/Strings.sol\":1748:1763  buffer[0] = \"0\" */\n      0x3000000000000000000000000000000000000000000000000000000000000000\n        /* \"ERC20/utils/Strings.sol\":1748:1754  buffer */\n      dup2\n        /* \"ERC20/utils/Strings.sol\":1755:1756  0 */\n      0x00\n        /* \"ERC20/utils/Strings.sol\":1748:1757  buffer[0] */\n      dup2\n      mload\n      dup2\n      lt\n      tag_357\n      jumpi\n      tag_358\n      tag_324\n      jump\t// in\n    tag_358:\n    tag_357:\n      0x20\n      add\n      add\n        /* \"ERC20/utils/Strings.sol\":1748:1763  buffer[0] = \"0\" */\n      swap1\n      not(0xffffffffffffffffffffffffffffffffffffffffffffffffffffffffffffff)\n      and\n      swap1\n      dup2\n      0x00\n      byte\n      swap1\n      mstore8\n      pop\n        /* \"ERC20/utils/Strings.sol\":1774:1789  buffer[1] = \"x\" */\n      0x7800000000000000000000000000000000000000000000000000000000000000\n        /* \"ERC20/utils/Strings.sol\":1774:1780  buffer */\n      dup2\n        /* \"ERC20/utils/Strings.sol\":1781:1782  1 */\n      0x01\n        /* \"ERC20/utils/Strings.sol\":1774:1783  buffer[1] */\n      dup2\n      mload\n      dup2\n      lt\n      tag_359\n      jumpi\n      tag_360\n      tag_324\n      jump\t// in\n    tag_360:\n    tag_359:\n      0x20\n      add\n      add\n        /* \"ERC20/utils/Strings.sol\":1774:1789  buffer[1] = \"x\" */\n      swap1\n      not(0xffffffffffffffffffffffffffffffffffffffffffffffffffffffffffffff)\n      and\n      swap1\n      dup2\n      0x00\n      byte\n      swap1\n      mstore8\n      pop\n        /* \"ERC20/utils/Strings.sol\":1805:1814  uint256 i */\n      0x00\n        /* \"ERC20/utils/Strings.sol\":1830:1831  1 */\n      0x01\n        /* \"ERC20/utils/Strings.sol\":1821:1827  length */\n      dup5\n        /* \"ERC20/utils/Strings.sol\":1817:1818  2 */\n      0x02\n        /* \"ERC20/utils/Strings.sol\":1817:1827  2 * length */\n      tag_364\n      swap2\n      swap1\n      tag_351\n      jump\t// in\n    tag_364:\n        /* \"ERC20/utils/Strings.sol\":1817:1831  2 * length + 1 */\n      tag_365\n      swap2\n      swap1\n      tag_168\n      jump\t// in\n    tag_365:\n        /* \"ERC20/utils/Strings.sol\":1805:1831  uint256 i = 2 * length + 1 */\n      swap1\n      pop\n        /* \"ERC20/utils/Strings.sol\":1800:1935  for (uint256 i = 2 * length + 1; i > 1; --i) {... */\n    tag_361:\n        /* \"ERC20/utils/Strings.sol\":1837:1838  1 */\n      0x01\n        /* \"ERC20/utils/Strings.sol\":1833:1834  i */\n      dup2\n        /* \"ERC20/utils/Strings.sol\":1833:1838  i > 1 */\n      gt\n        /* \"ERC20/utils/Strings.sol\":1800:1935  for (uint256 i = 2 * length + 1; i > 1; --i) {... */\n      iszero\n      tag_362\n      jumpi\n        /* \"ERC20/utils/Strings.sol\":1872:1884  _HEX_SYMBOLS */\n      0x3031323334353637383961626364656600000000000000000000000000000000\n        /* \"ERC20/utils/Strings.sol\":1893:1896  0xf */\n      0x0f\n        /* \"ERC20/utils/Strings.sol\":1885:1890  value */\n      dup7\n        /* \"ERC20/utils/Strings.sol\":1885:1896  value & 0xf */\n      and\n        /* \"ERC20/utils/Strings.sol\":1872:1897  _HEX_SYMBOLS[value & 0xf] */\n      0x10\n      dup2\n      lt\n      tag_366\n      jumpi\n      tag_367\n      tag_324\n      jump\t// in\n    tag_367:\n    tag_366:\n      byte\n      0xf8\n      shl\n        /* \"ERC20/utils/Strings.sol\":1860:1866  buffer */\n      dup3\n        /* \"ERC20/utils/Strings.sol\":1867:1868  i */\n      dup3\n        /* \"ERC20/utils/Strings.sol\":1860:1869  buffer[i] */\n      dup2\n      mload\n      dup2\n      lt\n      tag_368\n      jumpi\n      tag_369\n      tag_324\n      jump\t// in\n    tag_369:\n    tag_368:\n      0x20\n      add\n      add\n        /* \"ERC20/utils/Strings.sol\":1860:1897  buffer[i] = _HEX_SYMBOLS[value & 0xf] */\n      swap1\n      not(0xffffffffffffffffffffffffffffffffffffffffffffffffffffffffffffff)\n      and\n      swap1\n      dup2\n      0x00\n      byte\n      swap1\n      mstore8\n      pop\n        /* \"ERC20/utils/Strings.sol\":1922:1923  4 */\n      0x04\n        /* \"ERC20/utils/Strings.sol\":1912:1923  value >>= 4 */\n      dup6\n      swap1\n      shr\n      swap5\n      pop\n        /* \"ERC20/utils/Strings.sol\":1840:1843  --i */\n      dup1\n      tag_370\n      swap1\n      tag_371\n      jump\t// in\n    tag_370:\n      swap1\n      pop\n        /* \"ERC20/utils/Strings.sol\":1800:1935  for (uint256 i = 2 * length + 1; i > 1; --i) {... */\n      jump(tag_361)\n    tag_362:\n      pop\n        /* \"ERC20/utils/Strings.sol\":1962:1963  0 */\n      0x00\n        /* \"ERC20/utils/Strings.sol\":1953:1958  value */\n      dup5\n        /* \"ERC20/utils/Strings.sol\":1953:1963  value == 0 */\n      eq\n        /* \"ERC20/utils/Strings.sol\":1945:2000  require(value == 0, \"Strings: hex length insufficient\") */\n      tag_372\n      jumpi\n      mload(0x40)\n      0x08c379a000000000000000000000000000000000000000000000000000000000\n      dup2\n      mstore\n      0x04\n      add\n      tag_373\n      swap1\n      tag_374\n      jump\t// in\n    tag_373:\n      mload(0x40)\n      dup1\n      swap2\n      sub\n      swap1\n      revert\n    tag_372:\n        /* \"ERC20/utils/Strings.sol\":2025:2031  buffer */\n      dup1\n        /* \"ERC20/utils/Strings.sol\":2011:2032  return string(buffer) */\n      swap2\n      pop\n      pop\n        /* \"ERC20/utils/Strings.sol\":1589:2040  function toHexString(uint256 value, uint256 length) internal pure returns (string memory) {... */\n      swap3\n      swap2\n      pop\n      pop\n      jump\t// out\n        /* \"#utility.yul\":88:205   */\n    tag_376:\n        /* \"#utility.yul\":197:198   */\n      0x00\n        /* \"#utility.yul\":194:195   */\n      dup1\n        /* \"#utility.yul\":187:199   */\n      revert\n        /* \"#utility.yul\":334:483   */\n    tag_378:\n        /* \"#utility.yul\":370:377   */\n      0x00\n        /* \"#utility.yul\":410:476   */\n      0xffffffff00000000000000000000000000000000000000000000000000000000\n        /* \"#utility.yul\":403:408   */\n      dup3\n        /* \"#utility.yul\":399:477   */\n      and\n        /* \"#utility.yul\":388:477   */\n      swap1\n      pop\n        /* \"#utility.yul\":334:483   */\n      swap2\n      swap1\n      pop\n      jump\t// out\n        /* \"#utility.yul\":489:609   */\n    tag_379:\n        /* \"#utility.yul\":561:584   */\n      tag_443\n        /* \"#utility.yul\":578:583   */\n      dup2\n        /* \"#utility.yul\":561:584   */\n      tag_378\n      jump\t// in\n    tag_443:\n        /* \"#utility.yul\":554:559   */\n      dup2\n        /* \"#utility.yul\":551:585   */\n      eq\n        /* \"#utility.yul\":541:603   */\n      tag_444\n      jumpi\n        /* \"#utility.yul\":599:600   */\n      0x00\n        /* \"#utility.yul\":596:597   */\n      dup1\n        /* \"#utility.yul\":589:601   */\n      revert\n        /* \"#utility.yul\":541:603   */\n    tag_444:\n        /* \"#utility.yul\":489:609   */\n      pop\n      jump\t// out\n        /* \"#utility.yul\":615:752   */\n    tag_380:\n        /* \"#utility.yul\":660:665   */\n      0x00\n        /* \"#utility.yul\":698:704   */\n      dup2\n        /* \"#utility.yul\":685:705   */\n      calldataload\n        /* \"#utility.yul\":676:705   */\n      swap1\n      pop\n        /* \"#utility.yul\":714:746   */\n      tag_446\n        /* \"#utility.yul\":740:745   */\n      dup2\n        /* \"#utility.yul\":714:746   */\n      tag_379\n      jump\t// in\n    tag_446:\n        /* \"#utility.yul\":615:752   */\n      swap3\n      swap2\n      pop\n      pop\n      jump\t// out\n        /* \"#utility.yul\":758:1085   */\n    tag_31:\n        /* \"#utility.yul\":816:822   */\n      0x00\n        /* \"#utility.yul\":865:867   */\n      0x20\n        /* \"#utility.yul\":853:862   */\n      dup3\n        /* \"#utility.yul\":844:851   */\n      dup5\n        /* \"#utility.yul\":840:863   */\n      sub\n        /* \"#utility.yul\":836:868   */\n      slt\n        /* \"#utility.yul\":833:952   */\n      iszero\n      tag_448\n      jumpi\n        /* \"#utility.yul\":871:950   */\n      tag_449\n      tag_376\n      jump\t// in\n    tag_449:\n        /* \"#utility.yul\":833:952   */\n    tag_448:\n        /* \"#utility.yul\":991:992   */\n      0x00\n        /* \"#utility.yul\":1016:1068   */\n      tag_450\n        /* \"#utility.yul\":1060:1067   */\n      dup5\n        /* \"#utility.yul\":1051:1057   */\n      dup3\n        /* \"#utility.yul\":1040:1049   */\n      dup6\n        /* \"#utility.yul\":1036:1058   */\n      add\n        /* \"#utility.yul\":1016:1068   */\n      tag_380\n      jump\t// in\n    tag_450:\n        /* \"#utility.yul\":1006:1068   */\n      swap2\n      pop\n        /* \"#utility.yul\":962:1078   */\n      pop\n        /* \"#utility.yul\":758:1085   */\n      swap3\n      swap2\n      pop\n      pop\n      jump\t// out\n        /* \"#utility.yul\":1091:1181   */\n    tag_381:\n        /* \"#utility.yul\":1125:1132   */\n      0x00\n        /* \"#utility.yul\":1168:1173   */\n      dup2\n        /* \"#utility.yul\":1161:1174   */\n      iszero\n        /* \"#utility.yul\":1154:1175   */\n      iszero\n        /* \"#utility.yul\":1143:1175   */\n      swap1\n      pop\n        /* \"#utility.yul\":1091:1181   */\n      swap2\n      swap1\n      pop\n      jump\t// out\n        /* \"#utility.yul\":1187:1296   */\n    tag_382:\n        /* \"#utility.yul\":1268:1289   */\n      tag_453\n        /* \"#utility.yul\":1283:1288   */\n      dup2\n        /* \"#utility.yul\":1268:1289   */\n      tag_381\n      jump\t// in\n    tag_453:\n        /* \"#utility.yul\":1263:1266   */\n      dup3\n        /* \"#utility.yul\":1256:1290   */\n      mstore\n        /* \"#utility.yul\":1187:1296   */\n      pop\n      pop\n      jump\t// out\n        /* \"#utility.yul\":1302:1512   */\n    tag_34:\n        /* \"#utility.yul\":1389:1393   */\n      0x00\n        /* \"#utility.yul\":1427:1429   */\n      0x20\n        /* \"#utility.yul\":1416:1425   */\n      dup3\n        /* \"#utility.yul\":1412:1430   */\n      add\n        /* \"#utility.yul\":1404:1430   */\n      swap1\n      pop\n        /* \"#utility.yul\":1440:1505   */\n      tag_455\n        /* \"#utility.yul\":1502:1503   */\n      0x00\n        /* \"#utility.yul\":1491:1500   */\n      dup4\n        /* \"#utility.yul\":1487:1504   */\n      add\n        /* \"#utility.yul\":1478:1484   */\n      dup5\n        /* \"#utility.yul\":1440:1505   */\n      tag_382\n      jump\t// in\n    tag_455:\n        /* \"#utility.yul\":1302:1512   */\n      swap3\n      swap2\n      pop\n      pop\n      jump\t// out\n        /* \"#utility.yul\":1518:1617   */\n    tag_383:\n        /* \"#utility.yul\":1570:1576   */\n      0x00\n        /* \"#utility.yul\":1604:1609   */\n      dup2\n        /* \"#utility.yul\":1598:1610   */\n      mload\n        /* \"#utility.yul\":1588:1610   */\n      swap1\n      pop\n        /* \"#utility.yul\":1518:1617   */\n      swap2\n      swap1\n      pop\n      jump\t// out\n        /* \"#utility.yul\":1623:1792   */\n    tag_384:\n        /* \"#utility.yul\":1707:1718   */\n      0x00\n        /* \"#utility.yul\":1741:1747   */\n      dup3\n        /* \"#utility.yul\":1736:1739   */\n      dup3\n        /* \"#utility.yul\":1729:1748   */\n      mstore\n        /* \"#utility.yul\":1781:1785   */\n      0x20\n        /* \"#utility.yul\":1776:1779   */\n      dup3\n        /* \"#utility.yul\":1772:1786   */\n      add\n        /* \"#utility.yul\":1757:1786   */\n      swap1\n      pop\n        /* \"#utility.yul\":1623:1792   */\n      swap3\n      swap2\n      pop\n      pop\n      jump\t// out\n        /* \"#utility.yul\":1798:2105   */\n    tag_385:\n        /* \"#utility.yul\":1866:1867   */\n      0x00\n        /* \"#utility.yul\":1876:1989   */\n    tag_459:\n        /* \"#utility.yul\":1890:1896   */\n      dup4\n        /* \"#utility.yul\":1887:1888   */\n      dup2\n        /* \"#utility.yul\":1884:1897   */\n      lt\n        /* \"#utility.yul\":1876:1989   */\n      iszero\n      tag_461\n      jumpi\n        /* \"#utility.yul\":1975:1976   */\n      dup1\n        /* \"#utility.yul\":1970:1973   */\n      dup3\n        /* \"#utility.yul\":1966:1977   */\n      add\n        /* \"#utility.yul\":1960:1978   */\n      mload\n        /* \"#utility.yul\":1956:1957   */\n      dup2\n        /* \"#utility.yul\":1951:1954   */\n      dup5\n        /* \"#utility.yul\":1947:1958   */\n      add\n        /* \"#utility.yul\":1940:1979   */\n      mstore\n        /* \"#utility.yul\":1912:1914   */\n      0x20\n        /* \"#utility.yul\":1909:1910   */\n      dup2\n        /* \"#utility.yul\":1905:1915   */\n      add\n        /* \"#utility.yul\":1900:1915   */\n      swap1\n      pop\n        /* \"#utility.yul\":1876:1989   */\n      jump(tag_459)\n    tag_461:\n        /* \"#utility.yul\":2007:2013   */\n      dup4\n        /* \"#utility.yul\":2004:2005   */\n      dup2\n        /* \"#utility.yul\":2001:2014   */\n      gt\n        /* \"#utility.yul\":1998:2099   */\n      iszero\n      tag_462\n      jumpi\n        /* \"#utility.yul\":2087:2088   */\n      0x00\n        /* \"#utility.yul\":2078:2084   */\n      dup5\n        /* \"#utility.yul\":2073:2076   */\n      dup5\n        /* \"#utility.yul\":2069:2085   */\n      add\n        /* \"#utility.yul\":2062:2089   */\n      mstore\n        /* \"#utility.yul\":1998:2099   */\n    tag_462:\n        /* \"#utility.yul\":1847:2105   */\n      pop\n        /* \"#utility.yul\":1798:2105   */\n      pop\n      pop\n      pop\n      jump\t// out\n        /* \"#utility.yul\":2111:2213   */\n    tag_386:\n        /* \"#utility.yul\":2152:2158   */\n      0x00\n        /* \"#utility.yul\":2203:2205   */\n      0x1f\n        /* \"#utility.yul\":2199:2206   */\n      not\n        /* \"#utility.yul\":2194:2196   */\n      0x1f\n        /* \"#utility.yul\":2187:2192   */\n      dup4\n        /* \"#utility.yul\":2183:2197   */\n      add\n        /* \"#utility.yul\":2179:2207   */\n      and\n        /* \"#utility.yul\":2169:2207   */\n      swap1\n      pop\n        /* \"#utility.yul\":2111:2213   */\n      swap2\n      swap1\n      pop\n      jump\t// out\n        /* \"#utility.yul\":2219:2583   */\n    tag_387:\n        /* \"#utility.yul\":2307:2310   */\n      0x00\n        /* \"#utility.yul\":2335:2374   */\n      tag_465\n        /* \"#utility.yul\":2368:2373   */\n      dup3\n        /* \"#utility.yul\":2335:2374   */\n      tag_383\n      jump\t// in\n    tag_465:\n        /* \"#utility.yul\":2390:2461   */\n      tag_466\n        /* \"#utility.yul\":2454:2460   */\n      dup2\n        /* \"#utility.yul\":2449:2452   */\n      dup6\n        /* \"#utility.yul\":2390:2461   */\n      tag_384\n      jump\t// in\n    tag_466:\n        /* \"#utility.yul\":2383:2461   */\n      swap4\n      pop\n        /* \"#utility.yul\":2470:2522   */\n      tag_467\n        /* \"#utility.yul\":2515:2521   */\n      dup2\n        /* \"#utility.yul\":2510:2513   */\n      dup6\n        /* \"#utility.yul\":2503:2507   */\n      0x20\n        /* \"#utility.yul\":2496:2501   */\n      dup7\n        /* \"#utility.yul\":2492:2508   */\n      add\n        /* \"#utility.yul\":2470:2522   */\n      tag_385\n      jump\t// in\n    tag_467:\n        /* \"#utility.yul\":2547:2576   */\n      tag_468\n        /* \"#utility.yul\":2569:2575   */\n      dup2\n        /* \"#utility.yul\":2547:2576   */\n      tag_386\n      jump\t// in\n    tag_468:\n        /* \"#utility.yul\":2542:2545   */\n      dup5\n        /* \"#utility.yul\":2538:2577   */\n      add\n        /* \"#utility.yul\":2531:2577   */\n      swap2\n      pop\n        /* \"#utility.yul\":2311:2583   */\n      pop\n        /* \"#utility.yul\":2219:2583   */\n      swap3\n      swap2\n      pop\n      pop\n      jump\t// out\n        /* \"#utility.yul\":2589:2902   */\n    tag_38:\n        /* \"#utility.yul\":2702:2706   */\n      0x00\n        /* \"#utility.yul\":2740:2742   */\n      0x20\n        /* \"#utility.yul\":2729:2738   */\n      dup3\n        /* \"#utility.yul\":2725:2743   */\n      add\n        /* \"#utility.yul\":2717:2743   */\n      swap1\n      pop\n        /* \"#utility.yul\":2789:2798   */\n      dup2\n        /* \"#utility.yul\":2783:2787   */\n      dup2\n        /* \"#utility.yul\":2779:2799   */\n      sub\n        /* \"#utility.yul\":2775:2776   */\n      0x00\n        /* \"#utility.yul\":2764:2773   */\n      dup4\n        /* \"#utility.yul\":2760:2777   */\n      add\n        /* \"#utility.yul\":2753:2800   */\n      mstore\n        /* \"#utility.yul\":2817:2895   */\n      tag_470\n        /* \"#utility.yul\":2890:2894   */\n      dup2\n        /* \"#utility.yul\":2881:2887   */\n      dup5\n        /* \"#utility.yul\":2817:2895   */\n      tag_387\n      jump\t// in\n    tag_470:\n        /* \"#utility.yul\":2809:2895   */\n      swap1\n      pop\n        /* \"#utility.yul\":2589:2902   */\n      swap3\n      swap2\n      pop\n      pop\n      jump\t// out\n        /* \"#utility.yul\":2908:3034   */\n    tag_388:\n        /* \"#utility.yul\":2945:2952   */\n      0x00\n        /* \"#utility.yul\":2985:3027   */\n      0xffffffffffffffffffffffffffffffffffffffff\n        /* \"#utility.yul\":2978:2983   */\n      dup3\n        /* \"#utility.yul\":2974:3028   */\n      and\n        /* \"#utility.yul\":2963:3028   */\n      swap1\n      pop\n        /* \"#utility.yul\":2908:3034   */\n      swap2\n      swap1\n      pop\n      jump\t// out\n        /* \"#utility.yul\":3040:3136   */\n    tag_389:\n        /* \"#utility.yul\":3077:3084   */\n      0x00\n        /* \"#utility.yul\":3106:3130   */\n      tag_473\n        /* \"#utility.yul\":3124:3129   */\n      dup3\n        /* \"#utility.yul\":3106:3130   */\n      tag_388\n      jump\t// in\n    tag_473:\n        /* \"#utility.yul\":3095:3130   */\n      swap1\n      pop\n        /* \"#utility.yul\":3040:3136   */\n      swap2\n      swap1\n      pop\n      jump\t// out\n        /* \"#utility.yul\":3142:3264   */\n    tag_390:\n        /* \"#utility.yul\":3215:3239   */\n      tag_475\n        /* \"#utility.yul\":3233:3238   */\n      dup2\n        /* \"#utility.yul\":3215:3239   */\n      tag_389\n      jump\t// in\n    tag_475:\n        /* \"#utility.yul\":3208:3213   */\n      dup2\n        /* \"#utility.yul\":3205:3240   */\n      eq\n        /* \"#utility.yul\":3195:3258   */\n      tag_476\n      jumpi\n        /* \"#utility.yul\":3254:3255   */\n      0x00\n        /* \"#utility.yul\":3251:3252   */\n      dup1\n        /* \"#utility.yul\":3244:3256   */\n      revert\n        /* \"#utility.yul\":3195:3258   */\n    tag_476:\n        /* \"#utility.yul\":3142:3264   */\n      pop\n      jump\t// out\n        /* \"#utility.yul\":3270:3409   */\n    tag_391:\n        /* \"#utility.yul\":3316:3321   */\n      0x00\n        /* \"#utility.yul\":3354:3360   */\n      dup2\n        /* \"#utility.yul\":3341:3361   */\n      calldataload\n        /* \"#utility.yul\":3332:3361   */\n      swap1\n      pop\n        /* \"#utility.yul\":3370:3403   */\n      tag_478\n        /* \"#utility.yul\":3397:3402   */\n      dup2\n        /* \"#utility.yul\":3370:3403   */\n      tag_390\n      jump\t// in\n    tag_478:\n        /* \"#utility.yul\":3270:3409   */\n      swap3\n      swap2\n      pop\n      pop\n      jump\t// out\n        /* \"#utility.yul\":3415:3492   */\n    tag_392:\n        /* \"#utility.yul\":3452:3459   */\n      0x00\n        /* \"#utility.yul\":3481:3486   */\n      dup2\n        /* \"#utility.yul\":3470:3486   */\n      swap1\n      pop\n        /* \"#utility.yul\":3415:3492   */\n      swap2\n      swap1\n      pop\n      jump\t// out\n        /* \"#utility.yul\":3498:3620   */\n    tag_393:\n        /* \"#utility.yul\":3571:3595   */\n      tag_481\n        /* \"#utility.yul\":3589:3594   */\n      dup2\n        /* \"#utility.yul\":3571:3595   */\n      tag_392\n      jump\t// in\n    tag_481:\n        /* \"#utility.yul\":3564:3569   */\n      dup2\n        /* \"#utility.yul\":3561:3596   */\n      eq\n        /* \"#utility.yul\":3551:3614   */\n      tag_482\n      jumpi\n        /* \"#utility.yul\":3610:3611   */\n      0x00\n        /* \"#utility.yul\":3607:3608   */\n      dup1\n        /* \"#utility.yul\":3600:3612   */\n      revert\n        /* \"#utility.yul\":3551:3614   */\n    tag_482:\n        /* \"#utility.yul\":3498:3620   */\n      pop\n      jump\t// out\n        /* \"#utility.yul\":3626:3765   */\n    tag_394:\n        /* \"#utility.yul\":3672:3677   */\n      0x00\n        /* \"#utility.yul\":3710:3716   */\n      dup2\n        /* \"#utility.yul\":3697:3717   */\n      calldataload\n        /* \"#utility.yul\":3688:3717   */\n      swap1\n      pop\n        /* \"#utility.yul\":3726:3759   */\n      tag_484\n        /* \"#utility.yul\":3753:3758   */\n      dup2\n        /* \"#utility.yul\":3726:3759   */\n      tag_393\n      jump\t// in\n    tag_484:\n        /* \"#utility.yul\":3626:3765   */\n      swap3\n      swap2\n      pop\n      pop\n      jump\t// out\n        /* \"#utility.yul\":3771:4245   */\n    tag_41:\n        /* \"#utility.yul\":3839:3845   */\n      0x00\n        /* \"#utility.yul\":3847:3853   */\n      dup1\n        /* \"#utility.yul\":3896:3898   */\n      0x40\n        /* \"#utility.yul\":3884:3893   */\n      dup4\n        /* \"#utility.yul\":3875:3882   */\n      dup6\n        /* \"#utility.yul\":3871:3894   */\n      sub\n        /* \"#utility.yul\":3867:3899   */\n      slt\n        /* \"#utility.yul\":3864:3983   */\n      iszero\n      tag_486\n      jumpi\n        /* \"#utility.yul\":3902:3981   */\n      tag_487\n      tag_376\n      jump\t// in\n    tag_487:\n        /* \"#utility.yul\":3864:3983   */\n    tag_486:\n        /* \"#utility.yul\":4022:4023   */\n      0x00\n        /* \"#utility.yul\":4047:4100   */\n      tag_488\n        /* \"#utility.yul\":4092:4099   */\n      dup6\n        /* \"#utility.yul\":4083:4089   */\n      dup3\n        /* \"#utility.yul\":4072:4081   */\n      dup7\n        /* \"#utility.yul\":4068:4090   */\n      add\n        /* \"#utility.yul\":4047:4100   */\n      tag_391\n      jump\t// in\n    tag_488:\n        /* \"#utility.yul\":4037:4100   */\n      swap3\n      pop\n        /* \"#utility.yul\":3993:4110   */\n      pop\n        /* \"#utility.yul\":4149:4151   */\n      0x20\n        /* \"#utility.yul\":4175:4228   */\n      tag_489\n        /* \"#utility.yul\":4220:4227   */\n      dup6\n        /* \"#utility.yul\":4211:4217   */\n      dup3\n        /* \"#utility.yul\":4200:4209   */\n      dup7\n        /* \"#utility.yul\":4196:4218   */\n      add\n        /* \"#utility.yul\":4175:4228   */\n      tag_394\n      jump\t// in\n    tag_489:\n        /* \"#utility.yul\":4165:4228   */\n      swap2\n      pop\n        /* \"#utility.yul\":4120:4238   */\n      pop\n        /* \"#utility.yul\":3771:4245   */\n      swap3\n      pop\n      swap3\n      swap1\n      pop\n      jump\t// out\n        /* \"#utility.yul\":4251:4369   */\n    tag_395:\n        /* \"#utility.yul\":4338:4362   */\n      tag_491\n        /* \"#utility.yul\":4356:4361   */\n      dup2\n        /* \"#utility.yul\":4338:4362   */\n      tag_392\n      jump\t// in\n    tag_491:\n        /* \"#utility.yul\":4333:4336   */\n      dup3\n        /* \"#utility.yul\":4326:4363   */\n      mstore\n        /* \"#utility.yul\":4251:4369   */\n      pop\n      pop\n      jump\t// out\n        /* \"#utility.yul\":4375:4597   */\n    tag_47:\n        /* \"#utility.yul\":4468:4472   */\n      0x00\n        /* \"#utility.yul\":4506:4508   */\n      0x20\n        /* \"#utility.yul\":4495:4504   */\n      dup3\n        /* \"#utility.yul\":4491:4509   */\n      add\n        /* \"#utility.yul\":4483:4509   */\n      swap1\n      pop\n        /* \"#utility.yul\":4519:4590   */\n      tag_493\n        /* \"#utility.yul\":4587:4588   */\n      0x00\n        /* \"#utility.yul\":4576:4585   */\n      dup4\n        /* \"#utility.yul\":4572:4589   */\n      add\n        /* \"#utility.yul\":4563:4569   */\n      dup5\n        /* \"#utility.yul\":4519:4590   */\n      tag_395\n      jump\t// in\n    tag_493:\n        /* \"#utility.yul\":4375:4597   */\n      swap3\n      swap2\n      pop\n      pop\n      jump\t// out\n        /* \"#utility.yul\":4603:5222   */\n    tag_50:\n        /* \"#utility.yul\":4680:4686   */\n      0x00\n        /* \"#utility.yul\":4688:4694   */\n      dup1\n        /* \"#utility.yul\":4696:4702   */\n      0x00\n        /* \"#utility.yul\":4745:4747   */\n      0x60\n        /* \"#utility.yul\":4733:4742   */\n      dup5\n        /* \"#utility.yul\":4724:4731   */\n      dup7\n        /* \"#utility.yul\":4720:4743   */\n      sub\n        /* \"#utility.yul\":4716:4748   */\n      slt\n        /* \"#utility.yul\":4713:4832   */\n      iszero\n      tag_495\n      jumpi\n        /* \"#utility.yul\":4751:4830   */\n      tag_496\n      tag_376\n      jump\t// in\n    tag_496:\n        /* \"#utility.yul\":4713:4832   */\n    tag_495:\n        /* \"#utility.yul\":4871:4872   */\n      0x00\n        /* \"#utility.yul\":4896:4949   */\n      tag_497\n        /* \"#utility.yul\":4941:4948   */\n      dup7\n        /* \"#utility.yul\":4932:4938   */\n      dup3\n        /* \"#utility.yul\":4921:4930   */\n      dup8\n        /* \"#utility.yul\":4917:4939   */\n      add\n        /* \"#utility.yul\":4896:4949   */\n      tag_391\n      jump\t// in\n    tag_497:\n        /* \"#utility.yul\":4886:4949   */\n      swap4\n      pop\n        /* \"#utility.yul\":4842:4959   */\n      pop\n        /* \"#utility.yul\":4998:5000   */\n      0x20\n        /* \"#utility.yul\":5024:5077   */\n      tag_498\n        /* \"#utility.yul\":5069:5076   */\n      dup7\n        /* \"#utility.yul\":5060:5066   */\n      dup3\n        /* \"#utility.yul\":5049:5058   */\n      dup8\n        /* \"#utility.yul\":5045:5067   */\n      add\n        /* \"#utility.yul\":5024:5077   */\n      tag_391\n      jump\t// in\n    tag_498:\n        /* \"#utility.yul\":5014:5077   */\n      swap3\n      pop\n        /* \"#utility.yul\":4969:5087   */\n      pop\n        /* \"#utility.yul\":5126:5128   */\n      0x40\n        /* \"#utility.yul\":5152:5205   */\n      tag_499\n        /* \"#utility.yul\":5197:5204   */\n      dup7\n        /* \"#utility.yul\":5188:5194   */\n      dup3\n        /* \"#utility.yul\":5177:5186   */\n      dup8\n        /* \"#utility.yul\":5173:5195   */\n      add\n        /* \"#utility.yul\":5152:5205   */\n      tag_394\n      jump\t// in\n    tag_499:\n        /* \"#utility.yul\":5142:5205   */\n      swap2\n      pop\n        /* \"#utility.yul\":5097:5215   */\n      pop\n        /* \"#utility.yul\":4603:5222   */\n      swap3\n      pop\n      swap3\n      pop\n      swap3\n      jump\t// out\n        /* \"#utility.yul\":5228:5305   */\n    tag_396:\n        /* \"#utility.yul\":5265:5272   */\n      0x00\n        /* \"#utility.yul\":5294:5299   */\n      dup2\n        /* \"#utility.yul\":5283:5299   */\n      swap1\n      pop\n        /* \"#utility.yul\":5228:5305   */\n      swap2\n      swap1\n      pop\n      jump\t// out\n        /* \"#utility.yul\":5311:5433   */\n    tag_397:\n        /* \"#utility.yul\":5384:5408   */\n      tag_502\n        /* \"#utility.yul\":5402:5407   */\n      dup2\n        /* \"#utility.yul\":5384:5408   */\n      tag_396\n      jump\t// in\n    tag_502:\n        /* \"#utility.yul\":5377:5382   */\n      dup2\n        /* \"#utility.yul\":5374:5409   */\n      eq\n        /* \"#utility.yul\":5364:5427   */\n      tag_503\n      jumpi\n        /* \"#utility.yul\":5423:5424   */\n      0x00\n        /* \"#utility.yul\":5420:5421   */\n      dup1\n        /* \"#utility.yul\":5413:5425   */\n      revert\n        /* \"#utility.yul\":5364:5427   */\n    tag_503:\n        /* \"#utility.yul\":5311:5433   */\n      pop\n      jump\t// out\n        /* \"#utility.yul\":5439:5578   */\n    tag_398:\n        /* \"#utility.yul\":5485:5490   */\n      0x00\n        /* \"#utility.yul\":5523:5529   */\n      dup2\n        /* \"#utility.yul\":5510:5530   */\n      calldataload\n        /* \"#utility.yul\":5501:5530   */\n      swap1\n      pop\n        /* \"#utility.yul\":5539:5572   */\n      tag_505\n        /* \"#utility.yul\":5566:5571   */\n      dup2\n        /* \"#utility.yul\":5539:5572   */\n      tag_397\n      jump\t// in\n    tag_505:\n        /* \"#utility.yul\":5439:5578   */\n      swap3\n      swap2\n      pop\n      pop\n      jump\t// out\n        /* \"#utility.yul\":5584:5913   */\n    tag_55:\n        /* \"#utility.yul\":5643:5649   */\n      0x00\n        /* \"#utility.yul\":5692:5694   */\n      0x20\n        /* \"#utility.yul\":5680:5689   */\n      dup3\n        /* \"#utility.yul\":5671:5678   */\n      dup5\n        /* \"#utility.yul\":5667:5690   */\n      sub\n        /* \"#utility.yul\":5663:5695   */\n      slt\n        /* \"#utility.yul\":5660:5779   */\n      iszero\n      tag_507\n      jumpi\n        /* \"#utility.yul\":5698:5777   */\n      tag_508\n      tag_376\n      jump\t// in\n    tag_508:\n        /* \"#utility.yul\":5660:5779   */\n    tag_507:\n        /* \"#utility.yul\":5818:5819   */\n      0x00\n        /* \"#utility.yul\":5843:5896   */\n      tag_509\n        /* \"#utility.yul\":5888:5895   */\n      dup5\n        /* \"#utility.yul\":5879:5885   */\n      dup3\n        /* \"#utility.yul\":5868:5877   */\n      dup6\n        /* \"#utility.yul\":5864:5886   */\n      add\n        /* \"#utility.yul\":5843:5896   */\n      tag_398\n      jump\t// in\n    tag_509:\n        /* \"#utility.yul\":5833:5896   */\n      swap2\n      pop\n        /* \"#utility.yul\":5789:5906   */\n      pop\n        /* \"#utility.yul\":5584:5913   */\n      swap3\n      swap2\n      pop\n      pop\n      jump\t// out\n        /* \"#utility.yul\":5919:6037   */\n    tag_399:\n        /* \"#utility.yul\":6006:6030   */\n      tag_511\n        /* \"#utility.yul\":6024:6029   */\n      dup2\n        /* \"#utility.yul\":6006:6030   */\n      tag_396\n      jump\t// in\n    tag_511:\n        /* \"#utility.yul\":6001:6004   */\n      dup3\n        /* \"#utility.yul\":5994:6031   */\n      mstore\n        /* \"#utility.yul\":5919:6037   */\n      pop\n      pop\n      jump\t// out\n        /* \"#utility.yul\":6043:6265   */\n    tag_58:\n        /* \"#utility.yul\":6136:6140   */\n      0x00\n        /* \"#utility.yul\":6174:6176   */\n      0x20\n        /* \"#utility.yul\":6163:6172   */\n      dup3\n        /* \"#utility.yul\":6159:6177   */\n      add\n        /* \"#utility.yul\":6151:6177   */\n      swap1\n      pop\n        /* \"#utility.yul\":6187:6258   */\n      tag_513\n        /* \"#utility.yul\":6255:6256   */\n      0x00\n        /* \"#utility.yul\":6244:6253   */\n      dup4\n        /* \"#utility.yul\":6240:6257   */\n      add\n        /* \"#utility.yul\":6231:6237   */\n      dup5\n        /* \"#utility.yul\":6187:6258   */\n      tag_399\n      jump\t// in\n    tag_513:\n        /* \"#utility.yul\":6043:6265   */\n      swap3\n      swap2\n      pop\n      pop\n      jump\t// out\n        /* \"#utility.yul\":6271:6745   */\n    tag_61:\n        /* \"#utility.yul\":6339:6345   */\n      0x00\n        /* \"#utility.yul\":6347:6353   */\n      dup1\n        /* \"#utility.yul\":6396:6398   */\n      0x40\n        /* \"#utility.yul\":6384:6393   */\n      dup4\n        /* \"#utility.yul\":6375:6382   */\n      dup6\n        /* \"#utility.yul\":6371:6394   */\n      sub\n        /* \"#utility.yul\":6367:6399   */\n      slt\n        /* \"#utility.yul\":6364:6483   */\n      iszero\n      tag_515\n      jumpi\n        /* \"#utility.yul\":6402:6481   */\n      tag_516\n      tag_376\n      jump\t// in\n    tag_516:\n        /* \"#utility.yul\":6364:6483   */\n    tag_515:\n        /* \"#utility.yul\":6522:6523   */\n      0x00\n        /* \"#utility.yul\":6547:6600   */\n      tag_517\n        /* \"#utility.yul\":6592:6599   */\n      dup6\n        /* \"#utility.yul\":6583:6589   */\n      dup3\n        /* \"#utility.yul\":6572:6581   */\n      dup7\n        /* \"#utility.yul\":6568:6590   */\n      add\n        /* \"#utility.yul\":6547:6600   */\n      tag_398\n      jump\t// in\n    tag_517:\n        /* \"#utility.yul\":6537:6600   */\n      swap3\n      pop\n        /* \"#utility.yul\":6493:6610   */\n      pop\n        /* \"#utility.yul\":6649:6651   */\n      0x20\n        /* \"#utility.yul\":6675:6728   */\n      tag_518\n        /* \"#utility.yul\":6720:6727   */\n      dup6\n        /* \"#utility.yul\":6711:6717   */\n      dup3\n        /* \"#utility.yul\":6700:6709   */\n      dup7\n        /* \"#utility.yul\":6696:6718   */\n      add\n        /* \"#utility.yul\":6675:6728   */\n      tag_391\n      jump\t// in\n    tag_518:\n        /* \"#utility.yul\":6665:6728   */\n      swap2\n      pop\n        /* \"#utility.yul\":6620:6738   */\n      pop\n        /* \"#utility.yul\":6271:6745   */\n      swap3\n      pop\n      swap3\n      swap1\n      pop\n      jump\t// out\n        /* \"#utility.yul\":6751:6837   */\n    tag_400:\n        /* \"#utility.yul\":6786:6793   */\n      0x00\n        /* \"#utility.yul\":6826:6830   */\n      0xff\n        /* \"#utility.yul\":6819:6824   */\n      dup3\n        /* \"#utility.yul\":6815:6831   */\n      and\n        /* \"#utility.yul\":6804:6831   */\n      swap1\n      pop\n        /* \"#utility.yul\":6751:6837   */\n      swap2\n      swap1\n      pop\n      jump\t// out\n        /* \"#utility.yul\":6843:6955   */\n    tag_401:\n        /* \"#utility.yul\":6926:6948   */\n      tag_521\n        /* \"#utility.yul\":6942:6947   */\n      dup2\n        /* \"#utility.yul\":6926:6948   */\n      tag_400\n      jump\t// in\n    tag_521:\n        /* \"#utility.yul\":6921:6924   */\n      dup3\n        /* \"#utility.yul\":6914:6949   */\n      mstore\n        /* \"#utility.yul\":6843:6955   */\n      pop\n      pop\n      jump\t// out\n        /* \"#utility.yul\":6961:7175   */\n    tag_66:\n        /* \"#utility.yul\":7050:7054   */\n      0x00\n        /* \"#utility.yul\":7088:7090   */\n      0x20\n        /* \"#utility.yul\":7077:7086   */\n      dup3\n        /* \"#utility.yul\":7073:7091   */\n      add\n        /* \"#utility.yul\":7065:7091   */\n      swap1\n      pop\n        /* \"#utility.yul\":7101:7168   */\n      tag_523\n        /* \"#utility.yul\":7165:7166   */\n      0x00\n        /* \"#utility.yul\":7154:7163   */\n      dup4\n        /* \"#utility.yul\":7150:7167   */\n      add\n        /* \"#utility.yul\":7141:7147   */\n      dup5\n        /* \"#utility.yul\":7101:7168   */\n      tag_401\n      jump\t// in\n    tag_523:\n        /* \"#utility.yul\":6961:7175   */\n      swap3\n      swap2\n      pop\n      pop\n      jump\t// out\n        /* \"#utility.yul\":7181:7510   */\n    tag_79:\n        /* \"#utility.yul\":7240:7246   */\n      0x00\n        /* \"#utility.yul\":7289:7291   */\n      0x20\n        /* \"#utility.yul\":7277:7286   */\n      dup3\n        /* \"#utility.yul\":7268:7275   */\n      dup5\n        /* \"#utility.yul\":7264:7287   */\n      sub\n        /* \"#utility.yul\":7260:7292   */\n      slt\n        /* \"#utility.yul\":7257:7376   */\n      iszero\n      tag_525\n      jumpi\n        /* \"#utility.yul\":7295:7374   */\n      tag_526\n      tag_376\n      jump\t// in\n    tag_526:\n        /* \"#utility.yul\":7257:7376   */\n    tag_525:\n        /* \"#utility.yul\":7415:7416   */\n      0x00\n        /* \"#utility.yul\":7440:7493   */\n      tag_527\n        /* \"#utility.yul\":7485:7492   */\n      dup5\n        /* \"#utility.yul\":7476:7482   */\n      dup3\n        /* \"#utility.yul\":7465:7474   */\n      dup6\n        /* \"#utility.yul\":7461:7483   */\n      add\n        /* \"#utility.yul\":7440:7493   */\n      tag_391\n      jump\t// in\n    tag_527:\n        /* \"#utility.yul\":7430:7493   */\n      swap2\n      pop\n        /* \"#utility.yul\":7386:7503   */\n      pop\n        /* \"#utility.yul\":7181:7510   */\n      swap3\n      swap2\n      pop\n      pop\n      jump\t// out\n        /* \"#utility.yul\":7516:7990   */\n    tag_84:\n        /* \"#utility.yul\":7584:7590   */\n      0x00\n        /* \"#utility.yul\":7592:7598   */\n      dup1\n        /* \"#utility.yul\":7641:7643   */\n      0x40\n        /* \"#utility.yul\":7629:7638   */\n      dup4\n        /* \"#utility.yul\":7620:7627   */\n      dup6\n        /* \"#utility.yul\":7616:7639   */\n      sub\n        /* \"#utility.yul\":7612:7644   */\n      slt\n        /* \"#utility.yul\":7609:7728   */\n      iszero\n      tag_529\n      jumpi\n        /* \"#utility.yul\":7647:7726   */\n      tag_530\n      tag_376\n      jump\t// in\n    tag_530:\n        /* \"#utility.yul\":7609:7728   */\n    tag_529:\n        /* \"#utility.yul\":7767:7768   */\n      0x00\n        /* \"#utility.yul\":7792:7845   */\n      tag_531\n        /* \"#utility.yul\":7837:7844   */\n      dup6\n        /* \"#utility.yul\":7828:7834   */\n      dup3\n        /* \"#utility.yul\":7817:7826   */\n      dup7\n        /* \"#utility.yul\":7813:7835   */\n      add\n        /* \"#utility.yul\":7792:7845   */\n      tag_398\n      jump\t// in\n    tag_531:\n        /* \"#utility.yul\":7782:7845   */\n      swap3\n      pop\n        /* \"#utility.yul\":7738:7855   */\n      pop\n        /* \"#utility.yul\":7894:7896   */\n      0x20\n        /* \"#utility.yul\":7920:7973   */\n      tag_532\n        /* \"#utility.yul\":7965:7972   */\n      dup6\n        /* \"#utility.yul\":7956:7962   */\n      dup3\n        /* \"#utility.yul\":7945:7954   */\n      dup7\n        /* \"#utility.yul\":7941:7963   */\n      add\n        /* \"#utility.yul\":7920:7973   */\n      tag_394\n      jump\t// in\n    tag_532:\n        /* \"#utility.yul\":7910:7973   */\n      swap2\n      pop\n        /* \"#utility.yul\":7865:7983   */\n      pop\n        /* \"#utility.yul\":7516:7990   */\n      swap3\n      pop\n      swap3\n      swap1\n      pop\n      jump\t// out\n        /* \"#utility.yul\":7996:8114   */\n    tag_402:\n        /* \"#utility.yul\":8083:8107   */\n      tag_534\n        /* \"#utility.yul\":8101:8106   */\n      dup2\n        /* \"#utility.yul\":8083:8107   */\n      tag_389\n      jump\t// in\n    tag_534:\n        /* \"#utility.yul\":8078:8081   */\n      dup3\n        /* \"#utility.yul\":8071:8108   */\n      mstore\n        /* \"#utility.yul\":7996:8114   */\n      pop\n      pop\n      jump\t// out\n        /* \"#utility.yul\":8120:8342   */\n    tag_87:\n        /* \"#utility.yul\":8213:8217   */\n      0x00\n        /* \"#utility.yul\":8251:8253   */\n      0x20\n        /* \"#utility.yul\":8240:8249   */\n      dup3\n        /* \"#utility.yul\":8236:8254   */\n      add\n        /* \"#utility.yul\":8228:8254   */\n      swap1\n      pop\n        /* \"#utility.yul\":8264:8335   */\n      tag_536\n        /* \"#utility.yul\":8332:8333   */\n      0x00\n        /* \"#utility.yul\":8321:8330   */\n      dup4\n        /* \"#utility.yul\":8317:8334   */\n      add\n        /* \"#utility.yul\":8308:8314   */\n      dup5\n        /* \"#utility.yul\":8264:8335   */\n      tag_402\n      jump\t// in\n    tag_536:\n        /* \"#utility.yul\":8120:8342   */\n      swap3\n      swap2\n      pop\n      pop\n      jump\t// out\n        /* \"#utility.yul\":8348:8822   */\n    tag_121:\n        /* \"#utility.yul\":8416:8422   */\n      0x00\n        /* \"#utility.yul\":8424:8430   */\n      dup1\n        /* \"#utility.yul\":8473:8475   */\n      0x40\n        /* \"#utility.yul\":8461:8470   */\n      dup4\n        /* \"#utility.yul\":8452:8459   */\n      dup6\n        /* \"#utility.yul\":8448:8471   */\n      sub\n        /* \"#utility.yul\":8444:8476   */\n      slt\n        /* \"#utility.yul\":8441:8560   */\n      iszero\n      tag_538\n      jumpi\n        /* \"#utility.yul\":8479:8558   */\n      tag_539\n      tag_376\n      jump\t// in\n    tag_539:\n        /* \"#utility.yul\":8441:8560   */\n    tag_538:\n        /* \"#utility.yul\":8599:8600   */\n      0x00\n        /* \"#utility.yul\":8624:8677   */\n      tag_540\n        /* \"#utility.yul\":8669:8676   */\n      dup6\n        /* \"#utility.yul\":8660:8666   */\n      dup3\n        /* \"#utility.yul\":8649:8658   */\n      dup7\n        /* \"#utility.yul\":8645:8667   */\n      add\n        /* \"#utility.yul\":8624:8677   */\n      tag_391\n      jump\t// in\n    tag_540:\n        /* \"#utility.yul\":8614:8677   */\n      swap3\n      pop\n        /* \"#utility.yul\":8570:8687   */\n      pop\n        /* \"#utility.yul\":8726:8728   */\n      0x20\n        /* \"#utility.yul\":8752:8805   */\n      tag_541\n        /* \"#utility.yul\":8797:8804   */\n      dup6\n        /* \"#utility.yul\":8788:8794   */\n      dup3\n        /* \"#utility.yul\":8777:8786   */\n      dup7\n        /* \"#utility.yul\":8773:8795   */\n      add\n        /* \"#utility.yul\":8752:8805   */\n      tag_391\n      jump\t// in\n    tag_541:\n        /* \"#utility.yul\":8742:8805   */\n      swap2\n      pop\n        /* \"#utility.yul\":8697:8815   */\n      pop\n        /* \"#utility.yul\":8348:8822   */\n      swap3\n      pop\n      swap3\n      swap1\n      pop\n      jump\t// out\n        /* \"#utility.yul\":8828:9008   */\n    tag_403:\n        /* \"#utility.yul\":8876:8953   */\n      0x4e487b7100000000000000000000000000000000000000000000000000000000\n        /* \"#utility.yul\":8873:8874   */\n      0x00\n        /* \"#utility.yul\":8866:8954   */\n      mstore\n        /* \"#utility.yul\":8973:8977   */\n      0x22\n        /* \"#utility.yul\":8970:8971   */\n      0x04\n        /* \"#utility.yul\":8963:8978   */\n      mstore\n        /* \"#utility.yul\":8997:9001   */\n      0x24\n        /* \"#utility.yul\":8994:8995   */\n      0x00\n        /* \"#utility.yul\":8987:9002   */\n      revert\n        /* \"#utility.yul\":9014:9334   */\n    tag_132:\n        /* \"#utility.yul\":9058:9064   */\n      0x00\n        /* \"#utility.yul\":9095:9096   */\n      0x02\n        /* \"#utility.yul\":9089:9093   */\n      dup3\n        /* \"#utility.yul\":9085:9097   */\n      div\n        /* \"#utility.yul\":9075:9097   */\n      swap1\n      pop\n        /* \"#utility.yul\":9142:9143   */\n      0x01\n        /* \"#utility.yul\":9136:9140   */\n      dup3\n        /* \"#utility.yul\":9132:9144   */\n      and\n        /* \"#utility.yul\":9163:9181   */\n      dup1\n        /* \"#utility.yul\":9153:9234   */\n      tag_544\n      jumpi\n        /* \"#utility.yul\":9219:9223   */\n      0x7f\n        /* \"#utility.yul\":9211:9217   */\n      dup3\n        /* \"#utility.yul\":9207:9224   */\n      and\n        /* \"#utility.yul\":9197:9224   */\n      swap2\n      pop\n        /* \"#utility.yul\":9153:9234   */\n    tag_544:\n        /* \"#utility.yul\":9281:9283   */\n      0x20\n        /* \"#utility.yul\":9273:9279   */\n      dup3\n        /* \"#utility.yul\":9270:9284   */\n      lt\n        /* \"#utility.yul\":9250:9268   */\n      dup2\n        /* \"#utility.yul\":9247:9285   */\n      eq\n        /* \"#utility.yul\":9244:9328   */\n      iszero\n      tag_545\n      jumpi\n        /* \"#utility.yul\":9300:9318   */\n      tag_546\n      tag_403\n      jump\t// in\n    tag_546:\n        /* \"#utility.yul\":9244:9328   */\n    tag_545:\n        /* \"#utility.yul\":9065:9334   */\n      pop\n        /* \"#utility.yul\":9014:9334   */\n      swap2\n      swap1\n      pop\n      jump\t// out\n        /* \"#utility.yul\":9340:9567   */\n    tag_404:\n        /* \"#utility.yul\":9480:9514   */\n      0x45524332303a207472616e7366657220616d6f756e7420657863656564732061\n        /* \"#utility.yul\":9476:9477   */\n      0x00\n        /* \"#utility.yul\":9468:9474   */\n      dup3\n        /* \"#utility.yul\":9464:9478   */\n      add\n        /* \"#utility.yul\":9457:9515   */\n      mstore\n        /* \"#utility.yul\":9549:9559   */\n      0x6c6c6f77616e6365000000000000000000000000000000000000000000000000\n        /* \"#utility.yul\":9544:9546   */\n      0x20\n        /* \"#utility.yul\":9536:9542   */\n      dup3\n        /* \"#utility.yul\":9532:9547   */\n      add\n        /* \"#utility.yul\":9525:9560   */\n      mstore\n        /* \"#utility.yul\":9340:9567   */\n      pop\n      jump\t// out\n        /* \"#utility.yul\":9573:9939   */\n    tag_405:\n        /* \"#utility.yul\":9715:9718   */\n      0x00\n        /* \"#utility.yul\":9736:9803   */\n      tag_549\n        /* \"#utility.yul\":9800:9802   */\n      0x28\n        /* \"#utility.yul\":9795:9798   */\n      dup4\n        /* \"#utility.yul\":9736:9803   */\n      tag_384\n      jump\t// in\n    tag_549:\n        /* \"#utility.yul\":9729:9803   */\n      swap2\n      pop\n        /* \"#utility.yul\":9812:9905   */\n      tag_550\n        /* \"#utility.yul\":9901:9904   */\n      dup3\n        /* \"#utility.yul\":9812:9905   */\n      tag_404\n      jump\t// in\n    tag_550:\n        /* \"#utility.yul\":9930:9932   */\n      0x40\n        /* \"#utility.yul\":9925:9928   */\n      dup3\n        /* \"#utility.yul\":9921:9933   */\n      add\n        /* \"#utility.yul\":9914:9933   */\n      swap1\n      pop\n        /* \"#utility.yul\":9573:9939   */\n      swap2\n      swap1\n      pop\n      jump\t// out\n        /* \"#utility.yul\":9945:10364   */\n    tag_149:\n        /* \"#utility.yul\":10111:10115   */\n      0x00\n        /* \"#utility.yul\":10149:10151   */\n      0x20\n        /* \"#utility.yul\":10138:10147   */\n      dup3\n        /* \"#utility.yul\":10134:10152   */\n      add\n        /* \"#utility.yul\":10126:10152   */\n      swap1\n      pop\n        /* \"#utility.yul\":10198:10207   */\n      dup2\n        /* \"#utility.yul\":10192:10196   */\n      dup2\n        /* \"#utility.yul\":10188:10208   */\n      sub\n        /* \"#utility.yul\":10184:10185   */\n      0x00\n        /* \"#utility.yul\":10173:10182   */\n      dup4\n        /* \"#utility.yul\":10169:10186   */\n      add\n        /* \"#utility.yul\":10162:10209   */\n      mstore\n        /* \"#utility.yul\":10226:10357   */\n      tag_552\n        /* \"#utility.yul\":10352:10356   */\n      dup2\n        /* \"#utility.yul\":10226:10357   */\n      tag_405\n      jump\t// in\n    tag_552:\n        /* \"#utility.yul\":10218:10357   */\n      swap1\n      pop\n        /* \"#utility.yul\":9945:10364   */\n      swap2\n      swap1\n      pop\n      jump\t// out\n        /* \"#utility.yul\":10370:10547   */\n    tag_406:\n        /* \"#utility.yul\":10510:10539   */\n      0x45524332303a206d75737420686176652061646d696e20726f6c650000000000\n        /* \"#utility.yul\":10506:10507   */\n      0x00\n        /* \"#utility.yul\":10498:10504   */\n      dup3\n        /* \"#utility.yul\":10494:10508   */\n      add\n        /* \"#utility.yul\":10487:10540   */\n      mstore\n        /* \"#utility.yul\":10370:10547   */\n      pop\n      jump\t// out\n        /* \"#utility.yul\":10553:10919   */\n    tag_407:\n        /* \"#utility.yul\":10695:10698   */\n      0x00\n        /* \"#utility.yul\":10716:10783   */\n      tag_555\n        /* \"#utility.yul\":10780:10782   */\n      0x1b\n        /* \"#utility.yul\":10775:10778   */\n      dup4\n        /* \"#utility.yul\":10716:10783   */\n      tag_384\n      jump\t// in\n    tag_555:\n        /* \"#utility.yul\":10709:10783   */\n      swap2\n      pop\n        /* \"#utility.yul\":10792:10885   */\n      tag_556\n        /* \"#utility.yul\":10881:10884   */\n      dup3\n        /* \"#utility.yul\":10792:10885   */\n      tag_406\n      jump\t// in\n    tag_556:\n        /* \"#utility.yul\":10910:10912   */\n      0x20\n        /* \"#utility.yul\":10905:10908   */\n      dup3\n        /* \"#utility.yul\":10901:10913   */\n      add\n        /* \"#utility.yul\":10894:10913   */\n      swap1\n      pop\n        /* \"#utility.yul\":10553:10919   */\n      swap2\n      swap1\n      pop\n      jump\t// out\n        /* \"#utility.yul\":10925:11344   */\n    tag_163:\n        /* \"#utility.yul\":11091:11095   */\n      0x00\n        /* \"#utility.yul\":11129:11131   */\n      0x20\n        /* \"#utility.yul\":11118:11127   */\n      dup3\n        /* \"#utility.yul\":11114:11132   */\n      add\n        /* \"#utility.yul\":11106:11132   */\n      swap1\n      pop\n        /* \"#utility.yul\":11178:11187   */\n      dup2\n        /* \"#utility.yul\":11172:11176   */\n      dup2\n        /* \"#utility.yul\":11168:11188   */\n      sub\n        /* \"#utility.yul\":11164:11165   */\n      0x00\n        /* \"#utility.yul\":11153:11162   */\n      dup4\n        /* \"#utility.yul\":11149:11166   */\n      add\n        /* \"#utility.yul\":11142:11189   */\n      mstore\n        /* \"#utility.yul\":11206:11337   */\n      tag_558\n        /* \"#utility.yul\":11332:11336   */\n      dup2\n        /* \"#utility.yul\":11206:11337   */\n      tag_407\n      jump\t// in\n    tag_558:\n        /* \"#utility.yul\":11198:11337   */\n      swap1\n      pop\n        /* \"#utility.yul\":10925:11344   */\n      swap2\n      swap1\n      pop\n      jump\t// out\n        /* \"#utility.yul\":11350:11530   */\n    tag_408:\n        /* \"#utility.yul\":11398:11475   */\n      0x4e487b7100000000000000000000000000000000000000000000000000000000\n        /* \"#utility.yul\":11395:11396   */\n      0x00\n        /* \"#utility.yul\":11388:11476   */\n      mstore\n        /* \"#utility.yul\":11495:11499   */\n      0x11\n        /* \"#utility.yul\":11492:11493   */\n      0x04\n        /* \"#utility.yul\":11485:11500   */\n      mstore\n        /* \"#utility.yul\":11519:11523   */\n      0x24\n        /* \"#utility.yul\":11516:11517   */\n      0x00\n        /* \"#utility.yul\":11509:11524   */\n      revert\n        /* \"#utility.yul\":11536:11841   */\n    tag_168:\n        /* \"#utility.yul\":11576:11579   */\n      0x00\n        /* \"#utility.yul\":11595:11615   */\n      tag_561\n        /* \"#utility.yul\":11613:11614   */\n      dup3\n        /* \"#utility.yul\":11595:11615   */\n      tag_392\n      jump\t// in\n    tag_561:\n        /* \"#utility.yul\":11590:11615   */\n      swap2\n      pop\n        /* \"#utility.yul\":11629:11649   */\n      tag_562\n        /* \"#utility.yul\":11647:11648   */\n      dup4\n        /* \"#utility.yul\":11629:11649   */\n      tag_392\n      jump\t// in\n    tag_562:\n        /* \"#utility.yul\":11624:11649   */\n      swap3\n      pop\n        /* \"#utility.yul\":11783:11784   */\n      dup3\n        /* \"#utility.yul\":11715:11781   */\n      0xffffffffffffffffffffffffffffffffffffffffffffffffffffffffffffffff\n        /* \"#utility.yul\":11711:11785   */\n      sub\n        /* \"#utility.yul\":11708:11709   */\n      dup3\n        /* \"#utility.yul\":11705:11786   */\n      gt\n        /* \"#utility.yul\":11702:11809   */\n      iszero\n      tag_563\n      jumpi\n        /* \"#utility.yul\":11789:11807   */\n      tag_564\n      tag_408\n      jump\t// in\n    tag_564:\n        /* \"#utility.yul\":11702:11809   */\n    tag_563:\n        /* \"#utility.yul\":11833:11834   */\n      dup3\n        /* \"#utility.yul\":11830:11831   */\n      dup3\n        /* \"#utility.yul\":11826:11835   */\n      add\n        /* \"#utility.yul\":11819:11835   */\n      swap1\n      pop\n        /* \"#utility.yul\":11536:11841   */\n      swap3\n      swap2\n      pop\n      pop\n      jump\t// out\n        /* \"#utility.yul\":11847:12071   */\n    tag_409:\n        /* \"#utility.yul\":11987:12021   */\n      0x45524332303a2064656372656173656420616c6c6f77616e63652062656c6f77\n        /* \"#utility.yul\":11983:11984   */\n      0x00\n        /* \"#utility.yul\":11975:11981   */\n      dup3\n        /* \"#utility.yul\":11971:11985   */\n      add\n        /* \"#utility.yul\":11964:12022   */\n      mstore\n        /* \"#utility.yul\":12056:12063   */\n      0x207a65726f000000000000000000000000000000000000000000000000000000\n        /* \"#utility.yul\":12051:12053   */\n      0x20\n        /* \"#utility.yul\":12043:12049   */\n      dup3\n        /* \"#utility.yul\":12039:12054   */\n      add\n        /* \"#utility.yul\":12032:12064   */\n      mstore\n        /* \"#utility.yul\":11847:12071   */\n      pop\n      jump\t// out\n        /* \"#utility.yul\":12077:12443   */\n    tag_410:\n        /* \"#utility.yul\":12219:12222   */\n      0x00\n        /* \"#utility.yul\":12240:12307   */\n      tag_567\n        /* \"#utility.yul\":12304:12306   */\n      0x25\n        /* \"#utility.yul\":12299:12302   */\n      dup4\n        /* \"#utility.yul\":12240:12307   */\n      tag_384\n      jump\t// in\n    tag_567:\n        /* \"#utility.yul\":12233:12307   */\n      swap2\n      pop\n        /* \"#utility.yul\":12316:12409   */\n      tag_568\n        /* \"#utility.yul\":12405:12408   */\n      dup3\n        /* \"#utility.yul\":12316:12409   */\n      tag_409\n      jump\t// in\n    tag_568:\n        /* \"#utility.yul\":12434:12436   */\n      0x40\n        /* \"#utility.yul\":12429:12432   */\n      dup3\n        /* \"#utility.yul\":12425:12437   */\n      add\n        /* \"#utility.yul\":12418:12437   */\n      swap1\n      pop\n        /* \"#utility.yul\":12077:12443   */\n      swap2\n      swap1\n      pop\n      jump\t// out\n        /* \"#utility.yul\":12449:12868   */\n    tag_196:\n        /* \"#utility.yul\":12615:12619   */\n      0x00\n        /* \"#utility.yul\":12653:12655   */\n      0x20\n        /* \"#utility.yul\":12642:12651   */\n      dup3\n        /* \"#utility.yul\":12638:12656   */\n      add\n        /* \"#utility.yul\":12630:12656   */\n      swap1\n      pop\n        /* \"#utility.yul\":12702:12711   */\n      dup2\n        /* \"#utility.yul\":12696:12700   */\n      dup2\n        /* \"#utility.yul\":12692:12712   */\n      sub\n        /* \"#utility.yul\":12688:12689   */\n      0x00\n        /* \"#utility.yul\":12677:12686   */\n      dup4\n        /* \"#utility.yul\":12673:12690   */\n      add\n        /* \"#utility.yul\":12666:12713   */\n      mstore\n        /* \"#utility.yul\":12730:12861   */\n      tag_570\n        /* \"#utility.yul\":12856:12860   */\n      dup2\n        /* \"#utility.yul\":12730:12861   */\n      tag_410\n      jump\t// in\n    tag_570:\n        /* \"#utility.yul\":12722:12861   */\n      swap1\n      pop\n        /* \"#utility.yul\":12449:12868   */\n      swap2\n      swap1\n      pop\n      jump\t// out\n        /* \"#utility.yul\":12874:13102   */\n    tag_411:\n        /* \"#utility.yul\":13014:13048   */\n      0x45524332303a2063616c6c65722063616e206e6f74207265766f6b65206f776e\n        /* \"#utility.yul\":13010:13011   */\n      0x00\n        /* \"#utility.yul\":13002:13008   */\n      dup3\n        /* \"#utility.yul\":12998:13012   */\n      add\n        /* \"#utility.yul\":12991:13049   */\n      mstore\n        /* \"#utility.yul\":13083:13094   */\n      0x20616464726573732e0000000000000000000000000000000000000000000000\n        /* \"#utility.yul\":13078:13080   */\n      0x20\n        /* \"#utility.yul\":13070:13076   */\n      dup3\n        /* \"#utility.yul\":13066:13081   */\n      add\n        /* \"#utility.yul\":13059:13095   */\n      mstore\n        /* \"#utility.yul\":12874:13102   */\n      pop\n      jump\t// out\n        /* \"#utility.yul\":13108:13474   */\n    tag_412:\n        /* \"#utility.yul\":13250:13253   */\n      0x00\n        /* \"#utility.yul\":13271:13338   */\n      tag_573\n        /* \"#utility.yul\":13335:13337   */\n      0x29\n        /* \"#utility.yul\":13330:13333   */\n      dup4\n        /* \"#utility.yul\":13271:13338   */\n      tag_384\n      jump\t// in\n    tag_573:\n        /* \"#utility.yul\":13264:13338   */\n      swap2\n      pop\n        /* \"#utility.yul\":13347:13440   */\n      tag_574\n        /* \"#utility.yul\":13436:13439   */\n      dup3\n        /* \"#utility.yul\":13347:13440   */\n      tag_411\n      jump\t// in\n    tag_574:\n        /* \"#utility.yul\":13465:13467   */\n      0x40\n        /* \"#utility.yul\":13460:13463   */\n      dup3\n        /* \"#utility.yul\":13456:13468   */\n      add\n        /* \"#utility.yul\":13449:13468   */\n      swap1\n      pop\n        /* \"#utility.yul\":13108:13474   */\n      swap2\n      swap1\n      pop\n      jump\t// out\n        /* \"#utility.yul\":13480:13899   */\n    tag_215:\n        /* \"#utility.yul\":13646:13650   */\n      0x00\n        /* \"#utility.yul\":13684:13686   */\n      0x20\n        /* \"#utility.yul\":13673:13682   */\n      dup3\n        /* \"#utility.yul\":13669:13687   */\n      add\n        /* \"#utility.yul\":13661:13687   */\n      swap1\n      pop\n        /* \"#utility.yul\":13733:13742   */\n      dup2\n        /* \"#utility.yul\":13727:13731   */\n      dup2\n        /* \"#utility.yul\":13723:13743   */\n      sub\n        /* \"#utility.yul\":13719:13720   */\n      0x00\n        /* \"#utility.yul\":13708:13717   */\n      dup4\n        /* \"#utility.yul\":13704:13721   */\n      add\n        /* \"#utility.yul\":13697:13744   */\n      mstore\n        /* \"#utility.yul\":13761:13892   */\n      tag_576\n        /* \"#utility.yul\":13887:13891   */\n      dup2\n        /* \"#utility.yul\":13761:13892   */\n      tag_412\n      jump\t// in\n    tag_576:\n        /* \"#utility.yul\":13753:13892   */\n      swap1\n      pop\n        /* \"#utility.yul\":13480:13899   */\n      swap2\n      swap1\n      pop\n      jump\t// out\n        /* \"#utility.yul\":13905:14128   */\n    tag_413:\n        /* \"#utility.yul\":14045:14079   */\n      0x45524332303a20617070726f76652066726f6d20746865207a65726f20616464\n        /* \"#utility.yul\":14041:14042   */\n      0x00\n        /* \"#utility.yul\":14033:14039   */\n      dup3\n        /* \"#utility.yul\":14029:14043   */\n      add\n        /* \"#utility.yul\":14022:14080   */\n      mstore\n        /* \"#utility.yul\":14114:14120   */\n      0x7265737300000000000000000000000000000000000000000000000000000000\n        /* \"#utility.yul\":14109:14111   */\n      0x20\n        /* \"#utility.yul\":14101:14107   */\n      dup3\n        /* \"#utility.yul\":14097:14112   */\n      add\n        /* \"#utility.yul\":14090:14121   */\n      mstore\n        /* \"#utility.yul\":13905:14128   */\n      pop\n      jump\t// out\n        /* \"#utility.yul\":14134:14500   */\n    tag_414:\n        /* \"#utility.yul\":14276:14279   */\n      0x00\n        /* \"#utility.yul\":14297:14364   */\n      tag_579\n        /* \"#utility.yul\":14361:14363   */\n      0x24\n        /* \"#utility.yul\":14356:14359   */\n      dup4\n        /* \"#utility.yul\":14297:14364   */\n      tag_384\n      jump\t// in\n    tag_579:\n        /* \"#utility.yul\":14290:14364   */\n      swap2\n      pop\n        /* \"#utility.yul\":14373:14466   */\n      tag_580\n        /* \"#utility.yul\":14462:14465   */\n      dup3\n        /* \"#utility.yul\":14373:14466   */\n      tag_413\n      jump\t// in\n    tag_580:\n        /* \"#utility.yul\":14491:14493   */\n      0x40\n        /* \"#utility.yul\":14486:14489   */\n      dup3\n        /* \"#utility.yul\":14482:14494   */\n      add\n        /* \"#utility.yul\":14475:14494   */\n      swap1\n      pop\n        /* \"#utility.yul\":14134:14500   */\n      swap2\n      swap1\n      pop\n      jump\t// out\n        /* \"#utility.yul\":14506:14925   */\n    tag_235:\n        /* \"#utility.yul\":14672:14676   */\n      0x00\n        /* \"#utility.yul\":14710:14712   */\n      0x20\n        /* \"#utility.yul\":14699:14708   */\n      dup3\n        /* \"#utility.yul\":14695:14713   */\n      add\n        /* \"#utility.yul\":14687:14713   */\n      swap1\n      pop\n        /* \"#utility.yul\":14759:14768   */\n      dup2\n        /* \"#utility.yul\":14753:14757   */\n      dup2\n        /* \"#utility.yul\":14749:14769   */\n      sub\n        /* \"#utility.yul\":14745:14746   */\n      0x00\n        /* \"#utility.yul\":14734:14743   */\n      dup4\n        /* \"#utility.yul\":14730:14747   */\n      add\n        /* \"#utility.yul\":14723:14770   */\n      mstore\n        /* \"#utility.yul\":14787:14918   */\n      tag_582\n        /* \"#utility.yul\":14913:14917   */\n      dup2\n        /* \"#utility.yul\":14787:14918   */\n      tag_414\n      jump\t// in\n    tag_582:\n        /* \"#utility.yul\":14779:14918   */\n      swap1\n      pop\n        /* \"#utility.yul\":14506:14925   */\n      swap2\n      swap1\n      pop\n      jump\t// out\n        /* \"#utility.yul\":14931:15152   */\n    tag_415:\n        /* \"#utility.yul\":15071:15105   */\n      0x45524332303a20617070726f766520746f20746865207a65726f206164647265\n        /* \"#utility.yul\":15067:15068   */\n      0x00\n        /* \"#utility.yul\":15059:15065   */\n      dup3\n        /* \"#utility.yul\":15055:15069   */\n      add\n        /* \"#utility.yul\":15048:15106   */\n      mstore\n        /* \"#utility.yul\":15140:15144   */\n      0x7373000000000000000000000000000000000000000000000000000000000000\n        /* \"#utility.yul\":15135:15137   */\n      0x20\n        /* \"#utility.yul\":15127:15133   */\n      dup3\n        /* \"#utility.yul\":15123:15138   */\n      add\n        /* \"#utility.yul\":15116:15145   */\n      mstore\n        /* \"#utility.yul\":14931:15152   */\n      pop\n      jump\t// out\n        /* \"#utility.yul\":15158:15524   */\n    tag_416:\n        /* \"#utility.yul\":15300:15303   */\n      0x00\n        /* \"#utility.yul\":15321:15388   */\n      tag_585\n        /* \"#utility.yul\":15385:15387   */\n      0x22\n        /* \"#utility.yul\":15380:15383   */\n      dup4\n        /* \"#utility.yul\":15321:15388   */\n      tag_384\n      jump\t// in\n    tag_585:\n        /* \"#utility.yul\":15314:15388   */\n      swap2\n      pop\n        /* \"#utility.yul\":15397:15490   */\n      tag_586\n        /* \"#utility.yul\":15486:15489   */\n      dup3\n        /* \"#utility.yul\":15397:15490   */\n      tag_415\n      jump\t// in\n    tag_586:\n        /* \"#utility.yul\":15515:15517   */\n      0x40\n        /* \"#utility.yul\":15510:15513   */\n      dup3\n        /* \"#utility.yul\":15506:15518   */\n      add\n        /* \"#utility.yul\":15499:15518   */\n      swap1\n      pop\n        /* \"#utility.yul\":15158:15524   */\n      swap2\n      swap1\n      pop\n      jump\t// out\n        /* \"#utility.yul\":15530:15949   */\n    tag_238:\n        /* \"#utility.yul\":15696:15700   */\n      0x00\n        /* \"#utility.yul\":15734:15736   */\n      0x20\n        /* \"#utility.yul\":15723:15732   */\n      dup3\n        /* \"#utility.yul\":15719:15737   */\n      add\n        /* \"#utility.yul\":15711:15737   */\n      swap1\n      pop\n        /* \"#utility.yul\":15783:15792   */\n      dup2\n        /* \"#utility.yul\":15777:15781   */\n      dup2\n        /* \"#utility.yul\":15773:15793   */\n      sub\n        /* \"#utility.yul\":15769:15770   */\n      0x00\n        /* \"#utility.yul\":15758:15767   */\n      dup4\n        /* \"#utility.yul\":15754:15771   */\n      add\n        /* \"#utility.yul\":15747:15794   */\n      mstore\n        /* \"#utility.yul\":15811:15942   */\n      tag_588\n        /* \"#utility.yul\":15937:15941   */\n      dup2\n        /* \"#utility.yul\":15811:15942   */\n      tag_416\n      jump\t// in\n    tag_588:\n        /* \"#utility.yul\":15803:15942   */\n      swap1\n      pop\n        /* \"#utility.yul\":15530:15949   */\n      swap2\n      swap1\n      pop\n      jump\t// out\n        /* \"#utility.yul\":15955:16186   */\n    tag_417:\n        /* \"#utility.yul\":16095:16129   */\n      0x45524332303a207472616e736665722066756e6374696f6e2069732070617573\n        /* \"#utility.yul\":16091:16092   */\n      0x00\n        /* \"#utility.yul\":16083:16089   */\n      dup3\n        /* \"#utility.yul\":16079:16093   */\n      add\n        /* \"#utility.yul\":16072:16130   */\n      mstore\n        /* \"#utility.yul\":16164:16178   */\n      0x65642062792061646d696e2e0000000000000000000000000000000000000000\n        /* \"#utility.yul\":16159:16161   */\n      0x20\n        /* \"#utility.yul\":16151:16157   */\n      dup3\n        /* \"#utility.yul\":16147:16162   */\n      add\n        /* \"#utility.yul\":16140:16179   */\n      mstore\n        /* \"#utility.yul\":15955:16186   */\n      pop\n      jump\t// out\n        /* \"#utility.yul\":16192:16558   */\n    tag_418:\n        /* \"#utility.yul\":16334:16337   */\n      0x00\n        /* \"#utility.yul\":16355:16422   */\n      tag_591\n        /* \"#utility.yul\":16419:16421   */\n      0x2c\n        /* \"#utility.yul\":16414:16417   */\n      dup4\n        /* \"#utility.yul\":16355:16422   */\n      tag_384\n      jump\t// in\n    tag_591:\n        /* \"#utility.yul\":16348:16422   */\n      swap2\n      pop\n        /* \"#utility.yul\":16431:16524   */\n      tag_592\n        /* \"#utility.yul\":16520:16523   */\n      dup3\n        /* \"#utility.yul\":16431:16524   */\n      tag_417\n      jump\t// in\n    tag_592:\n        /* \"#utility.yul\":16549:16551   */\n      0x40\n        /* \"#utility.yul\":16544:16547   */\n      dup3\n        /* \"#utility.yul\":16540:16552   */\n      add\n        /* \"#utility.yul\":16533:16552   */\n      swap1\n      pop\n        /* \"#utility.yul\":16192:16558   */\n      swap2\n      swap1\n      pop\n      jump\t// out\n        /* \"#utility.yul\":16564:16983   */\n    tag_244:\n        /* \"#utility.yul\":16730:16734   */\n      0x00\n        /* \"#utility.yul\":16768:16770   */\n      0x20\n        /* \"#utility.yul\":16757:16766   */\n      dup3\n        /* \"#utility.yul\":16753:16771   */\n      add\n        /* \"#utility.yul\":16745:16771   */\n      swap1\n      pop\n        /* \"#utility.yul\":16817:16826   */\n      dup2\n        /* \"#utility.yul\":16811:16815   */\n      dup2\n        /* \"#utility.yul\":16807:16827   */\n      sub\n        /* \"#utility.yul\":16803:16804   */\n      0x00\n        /* \"#utility.yul\":16792:16801   */\n      dup4\n        /* \"#utility.yul\":16788:16805   */\n      add\n        /* \"#utility.yul\":16781:16828   */\n      mstore\n        /* \"#utility.yul\":16845:16976   */\n      tag_594\n        /* \"#utility.yul\":16971:16975   */\n      dup2\n        /* \"#utility.yul\":16845:16976   */\n      tag_418\n      jump\t// in\n    tag_594:\n        /* \"#utility.yul\":16837:16976   */\n      swap1\n      pop\n        /* \"#utility.yul\":16564:16983   */\n      swap2\n      swap1\n      pop\n      jump\t// out\n        /* \"#utility.yul\":16989:17213   */\n    tag_419:\n        /* \"#utility.yul\":17129:17163   */\n      0x45524332303a207472616e736665722066726f6d20746865207a65726f206164\n        /* \"#utility.yul\":17125:17126   */\n      0x00\n        /* \"#utility.yul\":17117:17123   */\n      dup3\n        /* \"#utility.yul\":17113:17127   */\n      add\n        /* \"#utility.yul\":17106:17164   */\n      mstore\n        /* \"#utility.yul\":17198:17205   */\n      0x6472657373000000000000000000000000000000000000000000000000000000\n        /* \"#utility.yul\":17193:17195   */\n      0x20\n        /* \"#utility.yul\":17185:17191   */\n      dup3\n        /* \"#utility.yul\":17181:17196   */\n      add\n        /* \"#utility.yul\":17174:17206   */\n      mstore\n        /* \"#utility.yul\":16989:17213   */\n      pop\n      jump\t// out\n        /* \"#utility.yul\":17219:17585   */\n    tag_420:\n        /* \"#utility.yul\":17361:17364   */\n      0x00\n        /* \"#utility.yul\":17382:17449   */\n      tag_597\n        /* \"#utility.yul\":17446:17448   */\n      0x25\n        /* \"#utility.yul\":17441:17444   */\n      dup4\n        /* \"#utility.yul\":17382:17449   */\n      tag_384\n      jump\t// in\n    tag_597:\n        /* \"#utility.yul\":17375:17449   */\n      swap2\n      pop\n        /* \"#utility.yul\":17458:17551   */\n      tag_598\n        /* \"#utility.yul\":17547:17550   */\n      dup3\n        /* \"#utility.yul\":17458:17551   */\n      tag_419\n      jump\t// in\n    tag_598:\n        /* \"#utility.yul\":17576:17578   */\n      0x40\n        /* \"#utility.yul\":17571:17574   */\n      dup3\n        /* \"#utility.yul\":17567:17579   */\n      add\n        /* \"#utility.yul\":17560:17579   */\n      swap1\n      pop\n        /* \"#utility.yul\":17219:17585   */\n      swap2\n      swap1\n      pop\n      jump\t// out\n        /* \"#utility.yul\":17591:18010   */\n    tag_247:\n        /* \"#utility.yul\":17757:17761   */\n      0x00\n        /* \"#utility.yul\":17795:17797   */\n      0x20\n        /* \"#utility.yul\":17784:17793   */\n      dup3\n        /* \"#utility.yul\":17780:17798   */\n      add\n        /* \"#utility.yul\":17772:17798   */\n      swap1\n      pop\n        /* \"#utility.yul\":17844:17853   */\n      dup2\n        /* \"#utility.yul\":17838:17842   */\n      dup2\n        /* \"#utility.yul\":17834:17854   */\n      sub\n        /* \"#utility.yul\":17830:17831   */\n      0x00\n        /* \"#utility.yul\":17819:17828   */\n      dup4\n        /* \"#utility.yul\":17815:17832   */\n      add\n        /* \"#utility.yul\":17808:17855   */\n      mstore\n        /* \"#utility.yul\":17872:18003   */\n      tag_600\n        /* \"#utility.yul\":17998:18002   */\n      dup2\n        /* \"#utility.yul\":17872:18003   */\n      tag_420\n      jump\t// in\n    tag_600:\n        /* \"#utility.yul\":17864:18003   */\n      swap1\n      pop\n        /* \"#utility.yul\":17591:18010   */\n      swap2\n      swap1\n      pop\n      jump\t// out\n        /* \"#utility.yul\":18016:18238   */\n    tag_421:\n        /* \"#utility.yul\":18156:18190   */\n      0x45524332303a207472616e7366657220746f20746865207a65726f2061646472\n        /* \"#utility.yul\":18152:18153   */\n      0x00\n        /* \"#utility.yul\":18144:18150   */\n      dup3\n        /* \"#utility.yul\":18140:18154   */\n      add\n        /* \"#utility.yul\":18133:18191   */\n      mstore\n        /* \"#utility.yul\":18225:18230   */\n      0x6573730000000000000000000000000000000000000000000000000000000000\n        /* \"#utility.yul\":18220:18222   */\n      0x20\n        /* \"#utility.yul\":18212:18218   */\n      dup3\n        /* \"#utility.yul\":18208:18223   */\n      add\n        /* \"#utility.yul\":18201:18231   */\n      mstore\n        /* \"#utility.yul\":18016:18238   */\n      pop\n      jump\t// out\n        /* \"#utility.yul\":18244:18610   */\n    tag_422:\n        /* \"#utility.yul\":18386:18389   */\n      0x00\n        /* \"#utility.yul\":18407:18474   */\n      tag_603\n        /* \"#utility.yul\":18471:18473   */\n      0x23\n        /* \"#utility.yul\":18466:18469   */\n      dup4\n        /* \"#utility.yul\":18407:18474   */\n      tag_384\n      jump\t// in\n    tag_603:\n        /* \"#utility.yul\":18400:18474   */\n      swap2\n      pop\n        /* \"#utility.yul\":18483:18576   */\n      tag_604\n        /* \"#utility.yul\":18572:18575   */\n      dup3\n        /* \"#utility.yul\":18483:18576   */\n      tag_421\n      jump\t// in\n    tag_604:\n        /* \"#utility.yul\":18601:18603   */\n      0x40\n        /* \"#utility.yul\":18596:18599   */\n      dup3\n        /* \"#utility.yul\":18592:18604   */\n      add\n        /* \"#utility.yul\":18585:18604   */\n      swap1\n      pop\n        /* \"#utility.yul\":18244:18610   */\n      swap2\n      swap1\n      pop\n      jump\t// out\n        /* \"#utility.yul\":18616:19035   */\n    tag_250:\n        /* \"#utility.yul\":18782:18786   */\n      0x00\n        /* \"#utility.yul\":18820:18822   */\n      0x20\n        /* \"#utility.yul\":18809:18818   */\n      dup3\n        /* \"#utility.yul\":18805:18823   */\n      add\n        /* \"#utility.yul\":18797:18823   */\n      swap1\n      pop\n        /* \"#utility.yul\":18869:18878   */\n      dup2\n        /* \"#utility.yul\":18863:18867   */\n      dup2\n        /* \"#utility.yul\":18859:18879   */\n      sub\n        /* \"#utility.yul\":18855:18856   */\n      0x00\n        /* \"#utility.yul\":18844:18853   */\n      dup4\n        /* \"#utility.yul\":18840:18857   */\n      add\n        /* \"#utility.yul\":18833:18880   */\n      mstore\n        /* \"#utility.yul\":18897:19028   */\n      tag_606\n        /* \"#utility.yul\":19023:19027   */\n      dup2\n        /* \"#utility.yul\":18897:19028   */\n      tag_422\n      jump\t// in\n    tag_606:\n        /* \"#utility.yul\":18889:19028   */\n      swap1\n      pop\n        /* \"#utility.yul\":18616:19035   */\n      swap2\n      swap1\n      pop\n      jump\t// out\n        /* \"#utility.yul\":19041:19266   */\n    tag_423:\n        /* \"#utility.yul\":19181:19215   */\n      0x45524332303a207472616e7366657220616d6f756e7420657863656564732062\n        /* \"#utility.yul\":19177:19178   */\n      0x00\n        /* \"#utility.yul\":19169:19175   */\n      dup3\n        /* \"#utility.yul\":19165:19179   */\n      add\n        /* \"#utility.yul\":19158:19216   */\n      mstore\n        /* \"#utility.yul\":19250:19258   */\n      0x616c616e63650000000000000000000000000000000000000000000000000000\n        /* \"#utility.yul\":19245:19247   */\n      0x20\n        /* \"#utility.yul\":19237:19243   */\n      dup3\n        /* \"#utility.yul\":19233:19248   */\n      add\n        /* \"#utility.yul\":19226:19259   */\n      mstore\n        /* \"#utility.yul\":19041:19266   */\n      pop\n      jump\t// out\n        /* \"#utility.yul\":19272:19638   */\n    tag_424:\n        /* \"#utility.yul\":19414:19417   */\n      0x00\n        /* \"#utility.yul\":19435:19502   */\n      tag_609\n        /* \"#utility.yul\":19499:19501   */\n      0x26\n        /* \"#utility.yul\":19494:19497   */\n      dup4\n        /* \"#utility.yul\":19435:19502   */\n      tag_384\n      jump\t// in\n    tag_609:\n        /* \"#utility.yul\":19428:19502   */\n      swap2\n      pop\n        /* \"#utility.yul\":19511:19604   */\n      tag_610\n        /* \"#utility.yul\":19600:19603   */\n      dup3\n        /* \"#utility.yul\":19511:19604   */\n      tag_423\n      jump\t// in\n    tag_610:\n        /* \"#utility.yul\":19629:19631   */\n      0x40\n        /* \"#utility.yul\":19624:19627   */\n      dup3\n        /* \"#utility.yul\":19620:19632   */\n      add\n        /* \"#utility.yul\":19613:19632   */\n      swap1\n      pop\n        /* \"#utility.yul\":19272:19638   */\n      swap2\n      swap1\n      pop\n      jump\t// out\n        /* \"#utility.yul\":19644:20063   */\n    tag_255:\n        /* \"#utility.yul\":19810:19814   */\n      0x00\n        /* \"#utility.yul\":19848:19850   */\n      0x20\n        /* \"#utility.yul\":19837:19846   */\n      dup3\n        /* \"#utility.yul\":19833:19851   */\n      add\n        /* \"#utility.yul\":19825:19851   */\n      swap1\n      pop\n        /* \"#utility.yul\":19897:19906   */\n      dup2\n        /* \"#utility.yul\":19891:19895   */\n      dup2\n        /* \"#utility.yul\":19887:19907   */\n      sub\n        /* \"#utility.yul\":19883:19884   */\n      0x00\n        /* \"#utility.yul\":19872:19881   */\n      dup4\n        /* \"#utility.yul\":19868:19885   */\n      add\n        /* \"#utility.yul\":19861:19908   */\n      mstore\n        /* \"#utility.yul\":19925:20056   */\n      tag_612\n        /* \"#utility.yul\":20051:20055   */\n      dup2\n        /* \"#utility.yul\":19925:20056   */\n      tag_424\n      jump\t// in\n    tag_612:\n        /* \"#utility.yul\":19917:20056   */\n      swap1\n      pop\n        /* \"#utility.yul\":19644:20063   */\n      swap2\n      swap1\n      pop\n      jump\t// out\n        /* \"#utility.yul\":20069:20235   */\n    tag_425:\n        /* \"#utility.yul\":20209:20227   */\n      0x5061757361626c653a2070617573656400000000000000000000000000000000\n        /* \"#utility.yul\":20205:20206   */\n      0x00\n        /* \"#utility.yul\":20197:20203   */\n      dup3\n        /* \"#utility.yul\":20193:20207   */\n      add\n        /* \"#utility.yul\":20186:20228   */\n      mstore\n        /* \"#utility.yul\":20069:20235   */\n      pop\n      jump\t// out\n        /* \"#utility.yul\":20241:20607   */\n    tag_426:\n        /* \"#utility.yul\":20383:20386   */\n      0x00\n        /* \"#utility.yul\":20404:20471   */\n      tag_615\n        /* \"#utility.yul\":20468:20470   */\n      0x10\n        /* \"#utility.yul\":20463:20466   */\n      dup4\n        /* \"#utility.yul\":20404:20471   */\n      tag_384\n      jump\t// in\n    tag_615:\n        /* \"#utility.yul\":20397:20471   */\n      swap2\n      pop\n        /* \"#utility.yul\":20480:20573   */\n      tag_616\n        /* \"#utility.yul\":20569:20572   */\n      dup3\n        /* \"#utility.yul\":20480:20573   */\n      tag_425\n      jump\t// in\n    tag_616:\n        /* \"#utility.yul\":20598:20600   */\n      0x20\n        /* \"#utility.yul\":20593:20596   */\n      dup3\n        /* \"#utility.yul\":20589:20601   */\n      add\n        /* \"#utility.yul\":20582:20601   */\n      swap1\n      pop\n        /* \"#utility.yul\":20241:20607   */\n      swap2\n      swap1\n      pop\n      jump\t// out\n        /* \"#utility.yul\":20613:21032   */\n    tag_271:\n        /* \"#utility.yul\":20779:20783   */\n      0x00\n        /* \"#utility.yul\":20817:20819   */\n      0x20\n        /* \"#utility.yul\":20806:20815   */\n      dup3\n        /* \"#utility.yul\":20802:20820   */\n      add\n        /* \"#utility.yul\":20794:20820   */\n      swap1\n      pop\n        /* \"#utility.yul\":20866:20875   */\n      dup2\n        /* \"#utility.yul\":20860:20864   */\n      dup2\n        /* \"#utility.yul\":20856:20876   */\n      sub\n        /* \"#utility.yul\":20852:20853   */\n      0x00\n        /* \"#utility.yul\":20841:20850   */\n      dup4\n        /* \"#utility.yul\":20837:20854   */\n      add\n        /* \"#utility.yul\":20830:20877   */\n      mstore\n        /* \"#utility.yul\":20894:21025   */\n      tag_618\n        /* \"#utility.yul\":21020:21024   */\n      dup2\n        /* \"#utility.yul\":20894:21025   */\n      tag_426\n      jump\t// in\n    tag_618:\n        /* \"#utility.yul\":20886:21025   */\n      swap1\n      pop\n        /* \"#utility.yul\":20613:21032   */\n      swap2\n      swap1\n      pop\n      jump\t// out\n        /* \"#utility.yul\":21038:21208   */\n    tag_427:\n        /* \"#utility.yul\":21178:21200   */\n      0x5061757361626c653a206e6f7420706175736564000000000000000000000000\n        /* \"#utility.yul\":21174:21175   */\n      0x00\n        /* \"#utility.yul\":21166:21172   */\n      dup3\n        /* \"#utility.yul\":21162:21176   */\n      add\n        /* \"#utility.yul\":21155:21201   */\n      mstore\n        /* \"#utility.yul\":21038:21208   */\n      pop\n      jump\t// out\n        /* \"#utility.yul\":21214:21580   */\n    tag_428:\n        /* \"#utility.yul\":21356:21359   */\n      0x00\n        /* \"#utility.yul\":21377:21444   */\n      tag_621\n        /* \"#utility.yul\":21441:21443   */\n      0x14\n        /* \"#utility.yul\":21436:21439   */\n      dup4\n        /* \"#utility.yul\":21377:21444   */\n      tag_384\n      jump\t// in\n    tag_621:\n        /* \"#utility.yul\":21370:21444   */\n      swap2\n      pop\n        /* \"#utility.yul\":21453:21546   */\n      tag_622\n        /* \"#utility.yul\":21542:21545   */\n      dup3\n        /* \"#utility.yul\":21453:21546   */\n      tag_427\n      jump\t// in\n    tag_622:\n        /* \"#utility.yul\":21571:21573   */\n      0x20\n        /* \"#utility.yul\":21566:21569   */\n      dup3\n        /* \"#utility.yul\":21562:21574   */\n      add\n        /* \"#utility.yul\":21555:21574   */\n      swap1\n      pop\n        /* \"#utility.yul\":21214:21580   */\n      swap2\n      swap1\n      pop\n      jump\t// out\n        /* \"#utility.yul\":21586:22005   */\n    tag_282:\n        /* \"#utility.yul\":21752:21756   */\n      0x00\n        /* \"#utility.yul\":21790:21792   */\n      0x20\n        /* \"#utility.yul\":21779:21788   */\n      dup3\n        /* \"#utility.yul\":21775:21793   */\n      add\n        /* \"#utility.yul\":21767:21793   */\n      swap1\n      pop\n        /* \"#utility.yul\":21839:21848   */\n      dup2\n        /* \"#utility.yul\":21833:21837   */\n      dup2\n        /* \"#utility.yul\":21829:21849   */\n      sub\n        /* \"#utility.yul\":21825:21826   */\n      0x00\n        /* \"#utility.yul\":21814:21823   */\n      dup4\n        /* \"#utility.yul\":21810:21827   */\n      add\n        /* \"#utility.yul\":21803:21850   */\n      mstore\n        /* \"#utility.yul\":21867:21998   */\n      tag_624\n        /* \"#utility.yul\":21993:21997   */\n      dup2\n        /* \"#utility.yul\":21867:21998   */\n      tag_428\n      jump\t// in\n    tag_624:\n        /* \"#utility.yul\":21859:21998   */\n      swap1\n      pop\n        /* \"#utility.yul\":21586:22005   */\n      swap2\n      swap1\n      pop\n      jump\t// out\n        /* \"#utility.yul\":22011:22159   */\n    tag_429:\n        /* \"#utility.yul\":22113:22124   */\n      0x00\n        /* \"#utility.yul\":22150:22153   */\n      dup2\n        /* \"#utility.yul\":22135:22153   */\n      swap1\n      pop\n        /* \"#utility.yul\":22011:22159   */\n      swap3\n      swap2\n      pop\n      pop\n      jump\t// out\n        /* \"#utility.yul\":22165:22338   */\n    tag_430:\n        /* \"#utility.yul\":22305:22330   */\n      0x416363657373436f6e74726f6c3a206163636f756e7420000000000000000000\n        /* \"#utility.yul\":22301:22302   */\n      0x00\n        /* \"#utility.yul\":22293:22299   */\n      dup3\n        /* \"#utility.yul\":22289:22303   */\n      add\n        /* \"#utility.yul\":22282:22331   */\n      mstore\n        /* \"#utility.yul\":22165:22338   */\n      pop\n      jump\t// out\n        /* \"#utility.yul\":22344:22746   */\n    tag_431:\n        /* \"#utility.yul\":22504:22507   */\n      0x00\n        /* \"#utility.yul\":22525:22610   */\n      tag_628\n        /* \"#utility.yul\":22607:22609   */\n      0x17\n        /* \"#utility.yul\":22602:22605   */\n      dup4\n        /* \"#utility.yul\":22525:22610   */\n      tag_429\n      jump\t// in\n    tag_628:\n        /* \"#utility.yul\":22518:22610   */\n      swap2\n      pop\n        /* \"#utility.yul\":22619:22712   */\n      tag_629\n        /* \"#utility.yul\":22708:22711   */\n      dup3\n        /* \"#utility.yul\":22619:22712   */\n      tag_430\n      jump\t// in\n    tag_629:\n        /* \"#utility.yul\":22737:22739   */\n      0x17\n        /* \"#utility.yul\":22732:22735   */\n      dup3\n        /* \"#utility.yul\":22728:22740   */\n      add\n        /* \"#utility.yul\":22721:22740   */\n      swap1\n      pop\n        /* \"#utility.yul\":22344:22746   */\n      swap2\n      swap1\n      pop\n      jump\t// out\n        /* \"#utility.yul\":22752:23129   */\n    tag_432:\n        /* \"#utility.yul\":22858:22861   */\n      0x00\n        /* \"#utility.yul\":22886:22925   */\n      tag_631\n        /* \"#utility.yul\":22919:22924   */\n      dup3\n        /* \"#utility.yul\":22886:22925   */\n      tag_383\n      jump\t// in\n    tag_631:\n        /* \"#utility.yul\":22941:23030   */\n      tag_632\n        /* \"#utility.yul\":23023:23029   */\n      dup2\n        /* \"#utility.yul\":23018:23021   */\n      dup6\n        /* \"#utility.yul\":22941:23030   */\n      tag_429\n      jump\t// in\n    tag_632:\n        /* \"#utility.yul\":22934:23030   */\n      swap4\n      pop\n        /* \"#utility.yul\":23039:23091   */\n      tag_633\n        /* \"#utility.yul\":23084:23090   */\n      dup2\n        /* \"#utility.yul\":23079:23082   */\n      dup6\n        /* \"#utility.yul\":23072:23076   */\n      0x20\n        /* \"#utility.yul\":23065:23070   */\n      dup7\n        /* \"#utility.yul\":23061:23077   */\n      add\n        /* \"#utility.yul\":23039:23091   */\n      tag_385\n      jump\t// in\n    tag_633:\n        /* \"#utility.yul\":23116:23122   */\n      dup1\n        /* \"#utility.yul\":23111:23114   */\n      dup5\n        /* \"#utility.yul\":23107:23123   */\n      add\n        /* \"#utility.yul\":23100:23123   */\n      swap2\n      pop\n        /* \"#utility.yul\":22862:23129   */\n      pop\n        /* \"#utility.yul\":22752:23129   */\n      swap3\n      swap2\n      pop\n      pop\n      jump\t// out\n        /* \"#utility.yul\":23135:23302   */\n    tag_433:\n        /* \"#utility.yul\":23275:23294   */\n      0x206973206d697373696e6720726f6c6520000000000000000000000000000000\n        /* \"#utility.yul\":23271:23272   */\n      0x00\n        /* \"#utility.yul\":23263:23269   */\n      dup3\n        /* \"#utility.yul\":23259:23273   */\n      add\n        /* \"#utility.yul\":23252:23295   */\n      mstore\n        /* \"#utility.yul\":23135:23302   */\n      pop\n      jump\t// out\n        /* \"#utility.yul\":23308:23710   */\n    tag_434:\n        /* \"#utility.yul\":23468:23471   */\n      0x00\n        /* \"#utility.yul\":23489:23574   */\n      tag_636\n        /* \"#utility.yul\":23571:23573   */\n      0x11\n        /* \"#utility.yul\":23566:23569   */\n      dup4\n        /* \"#utility.yul\":23489:23574   */\n      tag_429\n      jump\t// in\n    tag_636:\n        /* \"#utility.yul\":23482:23574   */\n      swap2\n      pop\n        /* \"#utility.yul\":23583:23676   */\n      tag_637\n        /* \"#utility.yul\":23672:23675   */\n      dup3\n        /* \"#utility.yul\":23583:23676   */\n      tag_433\n      jump\t// in\n    tag_637:\n        /* \"#utility.yul\":23701:23703   */\n      0x11\n        /* \"#utility.yul\":23696:23699   */\n      dup3\n        /* \"#utility.yul\":23692:23704   */\n      add\n        /* \"#utility.yul\":23685:23704   */\n      swap1\n      pop\n        /* \"#utility.yul\":23308:23710   */\n      swap2\n      swap1\n      pop\n      jump\t// out\n        /* \"#utility.yul\":23716:24683   */\n    tag_319:\n        /* \"#utility.yul\":24098:24101   */\n      0x00\n        /* \"#utility.yul\":24120:24268   */\n      tag_639\n        /* \"#utility.yul\":24264:24267   */\n      dup3\n        /* \"#utility.yul\":24120:24268   */\n      tag_431\n      jump\t// in\n    tag_639:\n        /* \"#utility.yul\":24113:24268   */\n      swap2\n      pop\n        /* \"#utility.yul\":24285:24380   */\n      tag_640\n        /* \"#utility.yul\":24376:24379   */\n      dup3\n        /* \"#utility.yul\":24367:24373   */\n      dup6\n        /* \"#utility.yul\":24285:24380   */\n      tag_432\n      jump\t// in\n    tag_640:\n        /* \"#utility.yul\":24278:24380   */\n      swap2\n      pop\n        /* \"#utility.yul\":24397:24545   */\n      tag_641\n        /* \"#utility.yul\":24541:24544   */\n      dup3\n        /* \"#utility.yul\":24397:24545   */\n      tag_434\n      jump\t// in\n    tag_641:\n        /* \"#utility.yul\":24390:24545   */\n      swap2\n      pop\n        /* \"#utility.yul\":24562:24657   */\n      tag_642\n        /* \"#utility.yul\":24653:24656   */\n      dup3\n        /* \"#utility.yul\":24644:24650   */\n      dup5\n        /* \"#utility.yul\":24562:24657   */\n      tag_432\n      jump\t// in\n    tag_642:\n        /* \"#utility.yul\":24555:24657   */\n      swap2\n      pop\n        /* \"#utility.yul\":24674:24677   */\n      dup2\n        /* \"#utility.yul\":24667:24677   */\n      swap1\n      pop\n        /* \"#utility.yul\":23716:24683   */\n      swap4\n      swap3\n      pop\n      pop\n      pop\n      jump\t// out\n        /* \"#utility.yul\":24689:24869   */\n    tag_324:\n        /* \"#utility.yul\":24737:24814   */\n      0x4e487b7100000000000000000000000000000000000000000000000000000000\n        /* \"#utility.yul\":24734:24735   */\n      0x00\n        /* \"#utility.yul\":24727:24815   */\n      mstore\n        /* \"#utility.yul\":24834:24838   */\n      0x32\n        /* \"#utility.yul\":24831:24832   */\n      0x04\n        /* \"#utility.yul\":24824:24839   */\n      mstore\n        /* \"#utility.yul\":24858:24862   */\n      0x24\n        /* \"#utility.yul\":24855:24856   */\n      0x00\n        /* \"#utility.yul\":24848:24863   */\n      revert\n        /* \"#utility.yul\":24875:25066   */\n    tag_334:\n        /* \"#utility.yul\":24915:24919   */\n      0x00\n        /* \"#utility.yul\":24935:24955   */\n      tag_645\n        /* \"#utility.yul\":24953:24954   */\n      dup3\n        /* \"#utility.yul\":24935:24955   */\n      tag_392\n      jump\t// in\n    tag_645:\n        /* \"#utility.yul\":24930:24955   */\n      swap2\n      pop\n        /* \"#utility.yul\":24969:24989   */\n      tag_646\n        /* \"#utility.yul\":24987:24988   */\n      dup4\n        /* \"#utility.yul\":24969:24989   */\n      tag_392\n      jump\t// in\n    tag_646:\n        /* \"#utility.yul\":24964:24989   */\n      swap3\n      pop\n        /* \"#utility.yul\":25008:25009   */\n      dup3\n        /* \"#utility.yul\":25005:25006   */\n      dup3\n        /* \"#utility.yul\":25002:25010   */\n      lt\n        /* \"#utility.yul\":24999:25033   */\n      iszero\n      tag_647\n      jumpi\n        /* \"#utility.yul\":25013:25031   */\n      tag_648\n      tag_408\n      jump\t// in\n    tag_648:\n        /* \"#utility.yul\":24999:25033   */\n    tag_647:\n        /* \"#utility.yul\":25058:25059   */\n      dup3\n        /* \"#utility.yul\":25055:25056   */\n      dup3\n        /* \"#utility.yul\":25051:25060   */\n      sub\n        /* \"#utility.yul\":25043:25060   */\n      swap1\n      pop\n        /* \"#utility.yul\":24875:25066   */\n      swap3\n      swap2\n      pop\n      pop\n      jump\t// out\n        /* \"#utility.yul\":25072:25252   */\n    tag_345:\n        /* \"#utility.yul\":25120:25197   */\n      0x4e487b7100000000000000000000000000000000000000000000000000000000\n        /* \"#utility.yul\":25117:25118   */\n      0x00\n        /* \"#utility.yul\":25110:25198   */\n      mstore\n        /* \"#utility.yul\":25217:25221   */\n      0x31\n        /* \"#utility.yul\":25214:25215   */\n      0x04\n        /* \"#utility.yul\":25207:25222   */\n      mstore\n        /* \"#utility.yul\":25241:25245   */\n      0x24\n        /* \"#utility.yul\":25238:25239   */\n      0x00\n        /* \"#utility.yul\":25231:25246   */\n      revert\n        /* \"#utility.yul\":25258:25606   */\n    tag_351:\n        /* \"#utility.yul\":25298:25305   */\n      0x00\n        /* \"#utility.yul\":25321:25341   */\n      tag_651\n        /* \"#utility.yul\":25339:25340   */\n      dup3\n        /* \"#utility.yul\":25321:25341   */\n      tag_392\n      jump\t// in\n    tag_651:\n        /* \"#utility.yul\":25316:25341   */\n      swap2\n      pop\n        /* \"#utility.yul\":25355:25375   */\n      tag_652\n        /* \"#utility.yul\":25373:25374   */\n      dup4\n        /* \"#utility.yul\":25355:25375   */\n      tag_392\n      jump\t// in\n    tag_652:\n        /* \"#utility.yul\":25350:25375   */\n      swap3\n      pop\n        /* \"#utility.yul\":25543:25544   */\n      dup2\n        /* \"#utility.yul\":25475:25541   */\n      0xffffffffffffffffffffffffffffffffffffffffffffffffffffffffffffffff\n        /* \"#utility.yul\":25471:25545   */\n      div\n        /* \"#utility.yul\":25468:25469   */\n      dup4\n        /* \"#utility.yul\":25465:25546   */\n      gt\n        /* \"#utility.yul\":25460:25461   */\n      dup3\n        /* \"#utility.yul\":25453:25462   */\n      iszero\n        /* \"#utility.yul\":25446:25463   */\n      iszero\n        /* \"#utility.yul\":25442:25547   */\n      and\n        /* \"#utility.yul\":25439:25570   */\n      iszero\n      tag_653\n      jumpi\n        /* \"#utility.yul\":25550:25568   */\n      tag_654\n      tag_408\n      jump\t// in\n    tag_654:\n        /* \"#utility.yul\":25439:25570   */\n    tag_653:\n        /* \"#utility.yul\":25598:25599   */\n      dup3\n        /* \"#utility.yul\":25595:25596   */\n      dup3\n        /* \"#utility.yul\":25591:25600   */\n      mul\n        /* \"#utility.yul\":25580:25600   */\n      swap1\n      pop\n        /* \"#utility.yul\":25258:25606   */\n      swap3\n      swap2\n      pop\n      pop\n      jump\t// out\n        /* \"#utility.yul\":25612:25792   */\n    tag_355:\n        /* \"#utility.yul\":25660:25737   */\n      0x4e487b7100000000000000000000000000000000000000000000000000000000\n        /* \"#utility.yul\":25657:25658   */\n      0x00\n        /* \"#utility.yul\":25650:25738   */\n      mstore\n        /* \"#utility.yul\":25757:25761   */\n      0x41\n        /* \"#utility.yul\":25754:25755   */\n      0x04\n        /* \"#utility.yul\":25747:25762   */\n      mstore\n        /* \"#utility.yul\":25781:25785   */\n      0x24\n        /* \"#utility.yul\":25778:25779   */\n      0x00\n        /* \"#utility.yul\":25771:25786   */\n      revert\n        /* \"#utility.yul\":25798:25969   */\n    tag_371:\n        /* \"#utility.yul\":25837:25840   */\n      0x00\n        /* \"#utility.yul\":25860:25884   */\n      tag_657\n        /* \"#utility.yul\":25878:25883   */\n      dup3\n        /* \"#utility.yul\":25860:25884   */\n      tag_392\n      jump\t// in\n    tag_657:\n        /* \"#utility.yul\":25851:25884   */\n      swap2\n      pop\n        /* \"#utility.yul\":25906:25910   */\n      0x00\n        /* \"#utility.yul\":25899:25904   */\n      dup3\n        /* \"#utility.yul\":25896:25911   */\n      eq\n        /* \"#utility.yul\":25893:25934   */\n      iszero\n      tag_658\n      jumpi\n        /* \"#utility.yul\":25914:25932   */\n      tag_659\n      tag_408\n      jump\t// in\n    tag_659:\n        /* \"#utility.yul\":25893:25934   */\n    tag_658:\n        /* \"#utility.yul\":25961:25962   */\n      0x01\n        /* \"#utility.yul\":25954:25959   */\n      dup3\n        /* \"#utility.yul\":25950:25963   */\n      sub\n        /* \"#utility.yul\":25943:25963   */\n      swap1\n      pop\n        /* \"#utility.yul\":25798:25969   */\n      swap2\n      swap1\n      pop\n      jump\t// out\n        /* \"#utility.yul\":25975:26157   */\n    tag_435:\n        /* \"#utility.yul\":26115:26149   */\n      0x537472696e67733a20686578206c656e67746820696e73756666696369656e74\n        /* \"#utility.yul\":26111:26112   */\n      0x00\n        /* \"#utility.yul\":26103:26109   */\n      dup3\n        /* \"#utility.yul\":26099:26113   */\n      add\n        /* \"#utility.yul\":26092:26150   */\n      mstore\n        /* \"#utility.yul\":25975:26157   */\n      pop\n      jump\t// out\n        /* \"#utility.yul\":26163:26529   */\n    tag_436:\n        /* \"#utility.yul\":26305:26308   */\n      0x00\n        /* \"#utility.yul\":26326:26393   */\n      tag_662\n        /* \"#utility.yul\":26390:26392   */\n      0x20\n        /* \"#utility.yul\":26385:26388   */\n      dup4\n        /* \"#utility.yul\":26326:26393   */\n      tag_384\n      jump\t// in\n    tag_662:\n        /* \"#utility.yul\":26319:26393   */\n      swap2\n      pop\n        /* \"#utility.yul\":26402:26495   */\n      tag_663\n        /* \"#utility.yul\":26491:26494   */\n      dup3\n        /* \"#utility.yul\":26402:26495   */\n      tag_435\n      jump\t// in\n    tag_663:\n        /* \"#utility.yul\":26520:26522   */\n      0x20\n        /* \"#utility.yul\":26515:26518   */\n      dup3\n        /* \"#utility.yul\":26511:26523   */\n      add\n        /* \"#utility.yul\":26504:26523   */\n      swap1\n      pop\n        /* \"#utility.yul\":26163:26529   */\n      swap2\n      swap1\n      pop\n      jump\t// out\n        /* \"#utility.yul\":26535:26954   */\n    tag_374:\n        /* \"#utility.yul\":26701:26705   */\n      0x00\n        /* \"#utility.yul\":26739:26741   */\n      0x20\n        /* \"#utility.yul\":26728:26737   */\n      dup3\n        /* \"#utility.yul\":26724:26742   */\n      add\n        /* \"#utility.yul\":26716:26742   */\n      swap1\n      pop\n        /* \"#utility.yul\":26788:26797   */\n      dup2\n        /* \"#utility.yul\":26782:26786   */\n      dup2\n        /* \"#utility.yul\":26778:26798   */\n      sub\n        /* \"#utility.yul\":26774:26775   */\n      0x00\n        /* \"#utility.yul\":26763:26772   */\n      dup4\n        /* \"#utility.yul\":26759:26776   */\n      add\n        /* \"#utility.yul\":26752:26799   */\n      mstore\n        /* \"#utility.yul\":26816:26947   */\n      tag_665\n        /* \"#utility.yul\":26942:26946   */\n      dup2\n        /* \"#utility.yul\":26816:26947   */\n      tag_436\n      jump\t// in\n    tag_665:\n        /* \"#utility.yul\":26808:26947   */\n      swap1\n      pop\n        /* \"#utility.yul\":26535:26954   */\n      swap2\n      swap1\n      pop\n      jump\t// out\n\n    auxdata: 0xa2646970667358221220b70239b5abc9c8d7b5fcd767ec97cacb884a0f8576c5fc194b609591b1d11ed564736f6c634300080c0033\n}\n",
				"bytecode": {
					"linkReferences": {},
					"object": "60806040523480156200001157600080fd5b506040516200311e3803806200311e833981810160405281019062000037919062000593565b6000600260006101000a81548160ff02191690831515021790555081600690805190602001906200006a92919062000346565b5080600790805190602001906200008392919062000346565b50620000a86000801b6200009c620000b060201b60201c565b620000b860201b60201c565b50506200067d565b600033905090565b620000cf82826200010060201b62000d6b1760201c565b620000fb81600160008581526020019081526020016000206200011660201b62000d791790919060201c565b505050565b6200011282826200014e60201b60201c565b5050565b600062000146836000018373ffffffffffffffffffffffffffffffffffffffff1660001b6200023f60201b60201c565b905092915050565b620001608282620002b960201b60201c565b6200023b57600160008084815260200190815260200160002060000160008373ffffffffffffffffffffffffffffffffffffffff1673ffffffffffffffffffffffffffffffffffffffff16815260200190815260200160002060006101000a81548160ff021916908315150217905550620001e0620000b060201b60201c565b73ffffffffffffffffffffffffffffffffffffffff168173ffffffffffffffffffffffffffffffffffffffff16837f2f8788117e7eff1d82e926ec794901d17c78024a50270940304540a733656f0d60405160405180910390a45b5050565b60006200025383836200032360201b60201c565b620002ae578260000182908060018154018082558091505060019003906000526020600020016000909190919091505582600001805490508360010160008481526020019081526020016000208190555060019050620002b3565b600090505b92915050565b600080600084815260200190815260200160002060000160008373ffffffffffffffffffffffffffffffffffffffff1673ffffffffffffffffffffffffffffffffffffffff16815260200190815260200160002060009054906101000a900460ff16905092915050565b600080836001016000848152602001908152602001600020541415905092915050565b828054620003549062000647565b90600052602060002090601f016020900481019282620003785760008555620003c4565b82601f106200039357805160ff1916838001178555620003c4565b82800160010185558215620003c4579182015b82811115620003c3578251825591602001919060010190620003a6565b5b509050620003d39190620003d7565b5090565b5b80821115620003f2576000816000905550600101620003d8565b5090565b6000604051905090565b600080fd5b600080fd5b600080fd5b600080fd5b6000601f19601f8301169050919050565b7f4e487b7100000000000000000000000000000000000000000000000000000000600052604160045260246000fd5b6200045f8262000414565b810181811067ffffffffffffffff8211171562000481576200048062000425565b5b80604052505050565b600062000496620003f6565b9050620004a4828262000454565b919050565b600067ffffffffffffffff821115620004c757620004c662000425565b5b620004d28262000414565b9050602081019050919050565b60005b83811015620004ff578082015181840152602081019050620004e2565b838111156200050f576000848401525b50505050565b60006200052c6200052684620004a9565b6200048a565b9050828152602081018484840111156200054b576200054a6200040f565b5b62000558848285620004df565b509392505050565b600082601f8301126200057857620005776200040a565b5b81516200058a84826020860162000515565b91505092915050565b60008060408385031215620005ad57620005ac62000400565b5b600083015167ffffffffffffffff811115620005ce57620005cd62000405565b5b620005dc8582860162000560565b925050602083015167ffffffffffffffff8111156200060057620005ff62000405565b5b6200060e8582860162000560565b9150509250929050565b7f4e487b7100000000000000000000000000000000000000000000000000000000600052602260045260246000fd5b600060028204905060018216806200066057607f821691505b6020821081141562000677576200067662000618565b5b50919050565b612a91806200068d6000396000f3fe608060405234801561001057600080fd5b506004361061014d5760003560e01c806370a08231116100c3578063beabacc81161007c578063beabacc8146103f0578063c6e858fe14610420578063ca15c8731461043e578063d0bbb0d71461046e578063d547741f1461048c578063dd62ed3e146104a85761014d565b806370a08231146102f45780639010d07c1461032457806391d148541461035457806395d89b4114610384578063a217fddf146103a2578063a457c2d7146103c05761014d565b8063248a9ca311610115578063248a9ca31461021e5780632f2ff15d1461024e578063313ce5671461026a57806339509351146102885780635394a892146102b85780635c975abb146102d65761014d565b806301ffc9a71461015257806306fdde0314610182578063095ea7b3146101a057806318160ddd146101d057806323b872dd146101ee575b600080fd5b61016c60048036038101906101679190611c06565b6104d8565b6040516101799190611c4e565b60405180910390f35b61018a610552565b6040516101979190611d02565b60405180910390f35b6101ba60048036038101906101b59190611db8565b6105e4565b6040516101c79190611c4e565b60405180910390f35b6101d8610602565b6040516101e59190611e07565b60405180910390f35b61020860048036038101906102039190611e22565b61060c565b6040516102159190611c4e565b60405180910390f35b61023860048036038101906102339190611eab565b610704565b6040516102459190611ee7565b60405180910390f35b61026860048036038101906102639190611f02565b610723565b005b610272610757565b60405161027f9190611f5e565b60405180910390f35b6102a2600480360381019061029d9190611db8565b610760565b6040516102af9190611c4e565b60405180910390f35b6102c061085f565b6040516102cd9190611c4e565b60405180910390f35b6102de6108c3565b6040516102eb9190611c4e565b60405180910390f35b61030e60048036038101906103099190611f79565b6108da565b60405161031b9190611e07565b60405180910390f35b61033e60048036038101906103399190611fa6565b610923565b60405161034b9190611ff5565b60405180910390f35b61036e60048036038101906103699190611f02565b610952565b60405161037b9190611c4e565b60405180910390f35b61038c6109bc565b6040516103999190611d02565b60405180910390f35b6103aa610a4e565b6040516103b79190611ee7565b60405180910390f35b6103da60048036038101906103d59190611db8565b610a55565b6040516103e79190611c4e565b60405180910390f35b61040a60048036038101906104059190611e22565b610b94565b6040516104179190611c4e565b60405180910390f35b610428610bac565b6040516104359190611c4e565b60405180910390f35b61045860048036038101906104539190611eab565b610c10565b6040516104659190611e07565b60405180910390f35b610476610c34565b6040516104839190611e07565b60405180910390f35b6104a660048036038101906104a19190611f02565b610c3a565b005b6104c260048036038101906104bd9190612010565b610ce4565b6040516104cf9190611e07565b60405180910390f35b60007f5a05180f000000000000000000000000000000000000000000000000000000007bffffffffffffffffffffffffffffffffffffffffffffffffffffffff1916827bffffffffffffffffffffffffffffffffffffffffffffffffffffffff1916148061054b575061054a82610da9565b5b9050919050565b6060600680546105619061207f565b80601f016020809104026020016040519081016040528092919081815260200182805461058d9061207f565b80156105da5780601f106105af576101008083540402835291602001916105da565b820191906000526020600020905b8154815290600101906020018083116105bd57829003601f168201915b5050505050905090565b60006105f86105f1610e23565b8484610e2b565b6001905092915050565b6000600554905090565b6000610619848484610ff6565b6000600460008673ffffffffffffffffffffffffffffffffffffffff1673ffffffffffffffffffffffffffffffffffffffff1681526020019081526020016000206000610664610e23565b73ffffffffffffffffffffffffffffffffffffffff1673ffffffffffffffffffffffffffffffffffffffff168152602001908152602001600020549050828110156106e4576040517f08c379a00000000000000000000000000000000000000000000000000000000081526004016106db90612123565b60405180910390fd5b6106f8856106f0610e23565b858403610e2b565b60019150509392505050565b6000806000838152602001908152602001600020600101549050919050565b61072d82826112c2565b6107528160016000858152602001908152602001600020610d7990919063ffffffff16565b505050565b60006008905090565b60006107766000801b610771610e23565b610952565b6107b5576040517f08c379a00000000000000000000000000000000000000000000000000000000081526004016107ac9061218f565b60405180910390fd5b6108556107c0610e23565b8484600460006107ce610e23565b73ffffffffffffffffffffffffffffffffffffffff1673ffffffffffffffffffffffffffffffffffffffff16815260200190815260200160002060008873ffffffffffffffffffffffffffffffffffffffff1673ffffffffffffffffffffffffffffffffffffffff1681526020019081526020016000205461085091906121de565b610e2b565b6001905092915050565b60006108756000801b610870610e23565b610952565b6108b4576040517f08c379a00000000000000000000000000000000000000000000000000000000081526004016108ab9061218f565b60405180910390fd5b6108bc6112eb565b6001905090565b6000600260009054906101000a900460ff16905090565b6000600360008373ffffffffffffffffffffffffffffffffffffffff1673ffffffffffffffffffffffffffffffffffffffff168152602001908152602001600020549050919050565b600061094a826001600086815260200190815260200160002061138e90919063ffffffff16565b905092915050565b600080600084815260200190815260200160002060000160008373ffffffffffffffffffffffffffffffffffffffff1673ffffffffffffffffffffffffffffffffffffffff16815260200190815260200160002060009054906101000a900460ff16905092915050565b6060600780546109cb9061207f565b80601f01602080910402602001604051908101604052809291908181526020018280546109f79061207f565b8015610a445780601f10610a1957610100808354040283529160200191610a44565b820191906000526020600020905b815481529060010190602001808311610a2757829003601f168201915b5050505050905090565b6000801b81565b6000610a6b6000801b610a66610e23565b610952565b610aaa576040517f08c379a0000000000000000000000000000000000000000000000000000000008152600401610aa19061218f565b60405180910390fd5b600060046000610ab8610e23565b73ffffffffffffffffffffffffffffffffffffffff1673ffffffffffffffffffffffffffffffffffffffff16815260200190815260200160002060008573ffffffffffffffffffffffffffffffffffffffff1673ffffffffffffffffffffffffffffffffffffffff16815260200190815260200160002054905082811015610b75576040517f08c379a0000000000000000000000000000000000000000000000000000000008152600401610b6c906122a6565b60405180910390fd5b610b89610b80610e23565b85858403610e2b565b600191505092915050565b6000610ba1848484610ff6565b600190509392505050565b6000610bc26000801b610bbd610e23565b610952565b610c01576040517f08c379a0000000000000000000000000000000000000000000000000000000008152600401610bf89061218f565b60405180910390fd5b610c096113a8565b6001905090565b6000610c2d6001600084815260200190815260200160002061144a565b9050919050565b60085481565b610c42610e23565b73ffffffffffffffffffffffffffffffffffffffff168173ffffffffffffffffffffffffffffffffffffffff161415610cb0576040517f08c379a0000000000000000000000000000000000000000000000000000000008152600401610ca790612338565b60405180910390fd5b610cba828261145f565b610cdf816001600085815260200190815260200160002061148890919063ffffffff16565b505050565b6000600460008473ffffffffffffffffffffffffffffffffffffffff1673ffffffffffffffffffffffffffffffffffffffff16815260200190815260200160002060008373ffffffffffffffffffffffffffffffffffffffff1673ffffffffffffffffffffffffffffffffffffffff16815260200190815260200160002054905092915050565b610d7582826114b8565b5050565b6000610da1836000018373ffffffffffffffffffffffffffffffffffffffff1660001b611598565b905092915050565b60007f4f3351b5000000000000000000000000000000000000000000000000000000007bffffffffffffffffffffffffffffffffffffffffffffffffffffffff1916827bffffffffffffffffffffffffffffffffffffffffffffffffffffffff19161480610e1c5750610e1b82611608565b5b9050919050565b600033905090565b600073ffffffffffffffffffffffffffffffffffffffff168373ffffffffffffffffffffffffffffffffffffffff161415610e9b576040517f08c379a0000000000000000000000000000000000000000000000000000000008152600401610e92906123ca565b60405180910390fd5b600073ffffffffffffffffffffffffffffffffffffffff168273ffffffffffffffffffffffffffffffffffffffff161415610f0b576040517f08c379a0000000000000000000000000000000000000000000000000000000008152600401610f029061245c565b60405180910390fd5b80600460008573ffffffffffffffffffffffffffffffffffffffff1673ffffffffffffffffffffffffffffffffffffffff16815260200190815260200160002060008473ffffffffffffffffffffffffffffffffffffffff1673ffffffffffffffffffffffffffffffffffffffff168152602001908152602001600020819055508173ffffffffffffffffffffffffffffffffffffffff168373ffffffffffffffffffffffffffffffffffffffff167f8c5be1e5ebec7d5bd14f71427d1e84f3dd0314c0f7b2291e5b200ac8c7c3b92583604051610fe99190611e07565b60405180910390a3505050565b610ffe6108c3565b1561103e576040517f08c379a0000000000000000000000000000000000000000000000000000000008152600401611035906124ee565b60405180910390fd5b600073ffffffffffffffffffffffffffffffffffffffff168373ffffffffffffffffffffffffffffffffffffffff1614156110ae576040517f08c379a00000000000000000000000000000000000000000000000000000000081526004016110a590612580565b60405180910390fd5b600073ffffffffffffffffffffffffffffffffffffffff168273ffffffffffffffffffffffffffffffffffffffff16141561111e576040517f08c379a000000000000000000000000000000000000000000000000000000000815260040161111590612612565b60405180910390fd5b611129838383611672565b6000600360008573ffffffffffffffffffffffffffffffffffffffff1673ffffffffffffffffffffffffffffffffffffffff168152602001908152602001600020549050818110156111b0576040517f08c379a00000000000000000000000000000000000000000000000000000000081526004016111a7906126a4565b60405180910390fd5b818103600360008673ffffffffffffffffffffffffffffffffffffffff1673ffffffffffffffffffffffffffffffffffffffff1681526020019081526020016000208190555081600360008573ffffffffffffffffffffffffffffffffffffffff1673ffffffffffffffffffffffffffffffffffffffff168152602001908152602001600020600082825461124591906121de565b925050819055508273ffffffffffffffffffffffffffffffffffffffff168473ffffffffffffffffffffffffffffffffffffffff167fddf252ad1be2c89b69c2b068fc378daa952ba7f163c4a11628f55a4df523b3ef846040516112a99190611e07565b60405180910390a36112bc848484611677565b50505050565b6112cb82610704565b6112dc816112d7610e23565b61167c565b6112e683836114b8565b505050565b6112f36108c3565b15611333576040517f08c379a000000000000000000000000000000000000000000000000000000000815260040161132a90612710565b60405180910390fd5b6001600260006101000a81548160ff0219169083151502179055507f62e78cea01bee320cd4e420270b5ea74000d11b0c9f74754ebdbfc544b05a258611377610e23565b6040516113849190611ff5565b60405180910390a1565b600061139d8360000183611719565b60001c905092915050565b6113b06108c3565b6113ef576040517f08c379a00000000000000000000000000000000000000000000000000000000081526004016113e69061277c565b60405180910390fd5b6000600260006101000a81548160ff0219169083151502179055507f5db9ee0a495bf2e6ff9c91a7834c1ba4fdd244a5e8aa4e537bd38aeae4b073aa611433610e23565b6040516114409190611ff5565b60405180910390a1565b600061145882600001611744565b9050919050565b61146882610704565b61147981611474610e23565b61167c565b6114838383611755565b505050565b60006114b0836000018373ffffffffffffffffffffffffffffffffffffffff1660001b611836565b905092915050565b6114c28282610952565b61159457600160008084815260200190815260200160002060000160008373ffffffffffffffffffffffffffffffffffffffff1673ffffffffffffffffffffffffffffffffffffffff16815260200190815260200160002060006101000a81548160ff021916908315150217905550611539610e23565b73ffffffffffffffffffffffffffffffffffffffff168173ffffffffffffffffffffffffffffffffffffffff16837f2f8788117e7eff1d82e926ec794901d17c78024a50270940304540a733656f0d60405160405180910390a45b5050565b60006115a4838361194a565b6115fd578260000182908060018154018082558091505060019003906000526020600020016000909190919091505582600001805490508360010160008481526020019081526020016000208190555060019050611602565b600090505b92915050565b60007f01ffc9a7000000000000000000000000000000000000000000000000000000007bffffffffffffffffffffffffffffffffffffffffffffffffffffffff1916827bffffffffffffffffffffffffffffffffffffffffffffffffffffffff1916149050919050565b505050565b505050565b6116868282610952565b611715576116ab8173ffffffffffffffffffffffffffffffffffffffff16601461196d565b6116b98360001c602061196d565b6040516020016116ca929190612870565b6040516020818303038152906040526040517f08c379a000000000000000000000000000000000000000000000000000000000815260040161170c9190611d02565b60405180910390fd5b5050565b6000826000018281548110611731576117306128aa565b5b9060005260206000200154905092915050565b600081600001805490509050919050565b61175f8282610952565b1561183257600080600084815260200190815260200160002060000160008373ffffffffffffffffffffffffffffffffffffffff1673ffffffffffffffffffffffffffffffffffffffff16815260200190815260200160002060006101000a81548160ff0219169083151502179055506117d7610e23565b73ffffffffffffffffffffffffffffffffffffffff168173ffffffffffffffffffffffffffffffffffffffff16837ff6391f5c32d9c69d2a47ea670b442974b53935d1edc7fd64eb21e047a839171b60405160405180910390a45b5050565b6000808360010160008481526020019081526020016000205490506000811461193e57600060018261186891906128d9565b905060006001866000018054905061188091906128d9565b90508181146118ef5760008660000182815481106118a1576118a06128aa565b5b90600052602060002001549050808760000184815481106118c5576118c46128aa565b5b90600052602060002001819055508387600101600083815260200190815260200160002081905550505b856000018054806119035761190261290d565b5b600190038181906000526020600020016000905590558560010160008681526020019081526020016000206000905560019350505050611944565b60009150505b92915050565b600080836001016000848152602001908152602001600020541415905092915050565b606060006002836002611980919061293c565b61198a91906121de565b67ffffffffffffffff8111156119a3576119a2612996565b5b6040519080825280601f01601f1916602001820160405280156119d55781602001600182028036833780820191505090505b5090507f300000000000000000000000000000000000000000000000000000000000000081600081518110611a0d57611a0c6128aa565b5b60200101907effffffffffffffffffffffffffffffffffffffffffffffffffffffffffffff1916908160001a9053507f780000000000000000000000000000000000000000000000000000000000000081600181518110611a7157611a706128aa565b5b60200101907effffffffffffffffffffffffffffffffffffffffffffffffffffffffffffff1916908160001a90535060006001846002611ab1919061293c565b611abb91906121de565b90505b6001811115611b5b577f3031323334353637383961626364656600000000000000000000000000000000600f861660108110611afd57611afc6128aa565b5b1a60f81b828281518110611b1457611b136128aa565b5b60200101907effffffffffffffffffffffffffffffffffffffffffffffffffffffffffffff1916908160001a905350600485901c945080611b54906129c5565b9050611abe565b5060008414611b9f576040517f08c379a0000000000000000000000000000000000000000000000000000000008152600401611b9690612a3b565b60405180910390fd5b8091505092915050565b600080fd5b60007fffffffff0000000000000000000000000000000000000000000000000000000082169050919050565b611be381611bae565b8114611bee57600080fd5b50565b600081359050611c0081611bda565b92915050565b600060208284031215611c1c57611c1b611ba9565b5b6000611c2a84828501611bf1565b91505092915050565b60008115159050919050565b611c4881611c33565b82525050565b6000602082019050611c636000830184611c3f565b92915050565b600081519050919050565b600082825260208201905092915050565b60005b83811015611ca3578082015181840152602081019050611c88565b83811115611cb2576000848401525b50505050565b6000601f19601f8301169050919050565b6000611cd482611c69565b611cde8185611c74565b9350611cee818560208601611c85565b611cf781611cb8565b840191505092915050565b60006020820190508181036000830152611d1c8184611cc9565b905092915050565b600073ffffffffffffffffffffffffffffffffffffffff82169050919050565b6000611d4f82611d24565b9050919050565b611d5f81611d44565b8114611d6a57600080fd5b50565b600081359050611d7c81611d56565b92915050565b6000819050919050565b611d9581611d82565b8114611da057600080fd5b50565b600081359050611db281611d8c565b92915050565b60008060408385031215611dcf57611dce611ba9565b5b6000611ddd85828601611d6d565b9250506020611dee85828601611da3565b9150509250929050565b611e0181611d82565b82525050565b6000602082019050611e1c6000830184611df8565b92915050565b600080600060608486031215611e3b57611e3a611ba9565b5b6000611e4986828701611d6d565b9350506020611e5a86828701611d6d565b9250506040611e6b86828701611da3565b9150509250925092565b6000819050919050565b611e8881611e75565b8114611e9357600080fd5b50565b600081359050611ea581611e7f565b92915050565b600060208284031215611ec157611ec0611ba9565b5b6000611ecf84828501611e96565b91505092915050565b611ee181611e75565b82525050565b6000602082019050611efc6000830184611ed8565b92915050565b60008060408385031215611f1957611f18611ba9565b5b6000611f2785828601611e96565b9250506020611f3885828601611d6d565b9150509250929050565b600060ff82169050919050565b611f5881611f42565b82525050565b6000602082019050611f736000830184611f4f565b92915050565b600060208284031215611f8f57611f8e611ba9565b5b6000611f9d84828501611d6d565b91505092915050565b60008060408385031215611fbd57611fbc611ba9565b5b6000611fcb85828601611e96565b9250506020611fdc85828601611da3565b9150509250929050565b611fef81611d44565b82525050565b600060208201905061200a6000830184611fe6565b92915050565b6000806040838503121561202757612026611ba9565b5b600061203585828601611d6d565b925050602061204685828601611d6d565b9150509250929050565b7f4e487b7100000000000000000000000000000000000000000000000000000000600052602260045260246000fd5b6000600282049050600182168061209757607f821691505b602082108114156120ab576120aa612050565b5b50919050565b7f45524332303a207472616e7366657220616d6f756e742065786365656473206160008201527f6c6c6f77616e6365000000000000000000000000000000000000000000000000602082015250565b600061210d602883611c74565b9150612118826120b1565b604082019050919050565b6000602082019050818103600083015261213c81612100565b9050919050565b7f45524332303a206d75737420686176652061646d696e20726f6c650000000000600082015250565b6000612179601b83611c74565b915061218482612143565b602082019050919050565b600060208201905081810360008301526121a88161216c565b9050919050565b7f4e487b7100000000000000000000000000000000000000000000000000000000600052601160045260246000fd5b60006121e982611d82565b91506121f483611d82565b9250827fffffffffffffffffffffffffffffffffffffffffffffffffffffffffffffffff03821115612229576122286121af565b5b828201905092915050565b7f45524332303a2064656372656173656420616c6c6f77616e63652062656c6f7760008201527f207a65726f000000000000000000000000000000000000000000000000000000602082015250565b6000612290602583611c74565b915061229b82612234565b604082019050919050565b600060208201905081810360008301526122bf81612283565b9050919050565b7f45524332303a2063616c6c65722063616e206e6f74207265766f6b65206f776e60008201527f20616464726573732e0000000000000000000000000000000000000000000000602082015250565b6000612322602983611c74565b915061232d826122c6565b604082019050919050565b6000602082019050818103600083015261235181612315565b9050919050565b7f45524332303a20617070726f76652066726f6d20746865207a65726f2061646460008201527f7265737300000000000000000000000000000000000000000000000000000000602082015250565b60006123b4602483611c74565b91506123bf82612358565b604082019050919050565b600060208201905081810360008301526123e3816123a7565b9050919050565b7f45524332303a20617070726f766520746f20746865207a65726f20616464726560008201527f7373000000000000000000000000000000000000000000000000000000000000602082015250565b6000612446602283611c74565b9150612451826123ea565b604082019050919050565b6000602082019050818103600083015261247581612439565b9050919050565b7f45524332303a207472616e736665722066756e6374696f6e206973207061757360008201527f65642062792061646d696e2e0000000000000000000000000000000000000000602082015250565b60006124d8602c83611c74565b91506124e38261247c565b604082019050919050565b60006020820190508181036000830152612507816124cb565b9050919050565b7f45524332303a207472616e736665722066726f6d20746865207a65726f20616460008201527f6472657373000000000000000000000000000000000000000000000000000000602082015250565b600061256a602583611c74565b91506125758261250e565b604082019050919050565b600060208201905081810360008301526125998161255d565b9050919050565b7f45524332303a207472616e7366657220746f20746865207a65726f206164647260008201527f6573730000000000000000000000000000000000000000000000000000000000602082015250565b60006125fc602383611c74565b9150612607826125a0565b604082019050919050565b6000602082019050818103600083015261262b816125ef565b9050919050565b7f45524332303a207472616e7366657220616d6f756e742065786365656473206260008201527f616c616e63650000000000000000000000000000000000000000000000000000602082015250565b600061268e602683611c74565b915061269982612632565b604082019050919050565b600060208201905081810360008301526126bd81612681565b9050919050565b7f5061757361626c653a2070617573656400000000000000000000000000000000600082015250565b60006126fa601083611c74565b9150612705826126c4565b602082019050919050565b60006020820190508181036000830152612729816126ed565b9050919050565b7f5061757361626c653a206e6f7420706175736564000000000000000000000000600082015250565b6000612766601483611c74565b915061277182612730565b602082019050919050565b6000602082019050818103600083015261279581612759565b9050919050565b600081905092915050565b7f416363657373436f6e74726f6c3a206163636f756e7420000000000000000000600082015250565b60006127dd60178361279c565b91506127e8826127a7565b601782019050919050565b60006127fe82611c69565b612808818561279c565b9350612818818560208601611c85565b80840191505092915050565b7f206973206d697373696e6720726f6c6520000000000000000000000000000000600082015250565b600061285a60118361279c565b915061286582612824565b601182019050919050565b600061287b826127d0565b915061288782856127f3565b91506128928261284d565b915061289e82846127f3565b91508190509392505050565b7f4e487b7100000000000000000000000000000000000000000000000000000000600052603260045260246000fd5b60006128e482611d82565b91506128ef83611d82565b925082821015612902576129016121af565b5b828203905092915050565b7f4e487b7100000000000000000000000000000000000000000000000000000000600052603160045260246000fd5b600061294782611d82565b915061295283611d82565b9250817fffffffffffffffffffffffffffffffffffffffffffffffffffffffffffffffff048311821515161561298b5761298a6121af565b5b828202905092915050565b7f4e487b7100000000000000000000000000000000000000000000000000000000600052604160045260246000fd5b60006129d082611d82565b915060008214156129e4576129e36121af565b5b600182039050919050565b7f537472696e67733a20686578206c656e67746820696e73756666696369656e74600082015250565b6000612a25602083611c74565b9150612a30826129ef565b602082019050919050565b60006020820190508181036000830152612a5481612a18565b905091905056fea2646970667358221220b70239b5abc9c8d7b5fcd767ec97cacb884a0f8576c5fc194b609591b1d11ed564736f6c634300080c0033",
					"opcodes": "PUSH1 0x80 PUSH1 0x40 MSTORE CALLVALUE DUP1 ISZERO PUSH3 0x11 JUMPI PUSH1 0x0 DUP1 REVERT JUMPDEST POP PUSH1 0x40 MLOAD PUSH3 0x311E CODESIZE SUB DUP1 PUSH3 0x311E DUP4 CODECOPY DUP2 DUP2 ADD PUSH1 0x40 MSTORE DUP2 ADD SWAP1 PUSH3 0x37 SWAP2 SWAP1 PUSH3 0x593 JUMP JUMPDEST PUSH1 0x0 PUSH1 0x2 PUSH1 0x0 PUSH2 0x100 EXP DUP2 SLOAD DUP2 PUSH1 0xFF MUL NOT AND SWAP1 DUP4 ISZERO ISZERO MUL OR SWAP1 SSTORE POP DUP2 PUSH1 0x6 SWAP1 DUP1 MLOAD SWAP1 PUSH1 0x20 ADD SWAP1 PUSH3 0x6A SWAP3 SWAP2 SWAP1 PUSH3 0x346 JUMP JUMPDEST POP DUP1 PUSH1 0x7 SWAP1 DUP1 MLOAD SWAP1 PUSH1 0x20 ADD SWAP1 PUSH3 0x83 SWAP3 SWAP2 SWAP1 PUSH3 0x346 JUMP JUMPDEST POP PUSH3 0xA8 PUSH1 0x0 DUP1 SHL PUSH3 0x9C PUSH3 0xB0 PUSH1 0x20 SHL PUSH1 0x20 SHR JUMP JUMPDEST PUSH3 0xB8 PUSH1 0x20 SHL PUSH1 0x20 SHR JUMP JUMPDEST POP POP PUSH3 0x67D JUMP JUMPDEST PUSH1 0x0 CALLER SWAP1 POP SWAP1 JUMP JUMPDEST PUSH3 0xCF DUP3 DUP3 PUSH3 0x100 PUSH1 0x20 SHL PUSH3 0xD6B OR PUSH1 0x20 SHR JUMP JUMPDEST PUSH3 0xFB DUP2 PUSH1 0x1 PUSH1 0x0 DUP6 DUP2 MSTORE PUSH1 0x20 ADD SWAP1 DUP2 MSTORE PUSH1 0x20 ADD PUSH1 0x0 KECCAK256 PUSH3 0x116 PUSH1 0x20 SHL PUSH3 0xD79 OR SWAP1 SWAP2 SWAP1 PUSH1 0x20 SHR JUMP JUMPDEST POP POP POP JUMP JUMPDEST PUSH3 0x112 DUP3 DUP3 PUSH3 0x14E PUSH1 0x20 SHL PUSH1 0x20 SHR JUMP JUMPDEST POP POP JUMP JUMPDEST PUSH1 0x0 PUSH3 0x146 DUP4 PUSH1 0x0 ADD DUP4 PUSH20 0xFFFFFFFFFFFFFFFFFFFFFFFFFFFFFFFFFFFFFFFF AND PUSH1 0x0 SHL PUSH3 0x23F PUSH1 0x20 SHL PUSH1 0x20 SHR JUMP JUMPDEST SWAP1 POP SWAP3 SWAP2 POP POP JUMP JUMPDEST PUSH3 0x160 DUP3 DUP3 PUSH3 0x2B9 PUSH1 0x20 SHL PUSH1 0x20 SHR JUMP JUMPDEST PUSH3 0x23B JUMPI PUSH1 0x1 PUSH1 0x0 DUP1 DUP5 DUP2 MSTORE PUSH1 0x20 ADD SWAP1 DUP2 MSTORE PUSH1 0x20 ADD PUSH1 0x0 KECCAK256 PUSH1 0x0 ADD PUSH1 0x0 DUP4 PUSH20 0xFFFFFFFFFFFFFFFFFFFFFFFFFFFFFFFFFFFFFFFF AND PUSH20 0xFFFFFFFFFFFFFFFFFFFFFFFFFFFFFFFFFFFFFFFF AND DUP2 MSTORE PUSH1 0x20 ADD SWAP1 DUP2 MSTORE PUSH1 0x20 ADD PUSH1 0x0 KECCAK256 PUSH1 0x0 PUSH2 0x100 EXP DUP2 SLOAD DUP2 PUSH1 0xFF MUL NOT AND SWAP1 DUP4 ISZERO ISZERO MUL OR SWAP1 SSTORE POP PUSH3 0x1E0 PUSH3 0xB0 PUSH1 0x20 SHL PUSH1 0x20 SHR JUMP JUMPDEST PUSH20 0xFFFFFFFFFFFFFFFFFFFFFFFFFFFFFFFFFFFFFFFF AND DUP2 PUSH20 0xFFFFFFFFFFFFFFFFFFFFFFFFFFFFFFFFFFFFFFFF AND DUP4 PUSH32 0x2F8788117E7EFF1D82E926EC794901D17C78024A50270940304540A733656F0D PUSH1 0x40 MLOAD PUSH1 0x40 MLOAD DUP1 SWAP2 SUB SWAP1 LOG4 JUMPDEST POP POP JUMP JUMPDEST PUSH1 0x0 PUSH3 0x253 DUP4 DUP4 PUSH3 0x323 PUSH1 0x20 SHL PUSH1 0x20 SHR JUMP JUMPDEST PUSH3 0x2AE JUMPI DUP3 PUSH1 0x0 ADD DUP3 SWAP1 DUP1 PUSH1 0x1 DUP2 SLOAD ADD DUP1 DUP3 SSTORE DUP1 SWAP2 POP POP PUSH1 0x1 SWAP1 SUB SWAP1 PUSH1 0x0 MSTORE PUSH1 0x20 PUSH1 0x0 KECCAK256 ADD PUSH1 0x0 SWAP1 SWAP2 SWAP1 SWAP2 SWAP1 SWAP2 POP SSTORE DUP3 PUSH1 0x0 ADD DUP1 SLOAD SWAP1 POP DUP4 PUSH1 0x1 ADD PUSH1 0x0 DUP5 DUP2 MSTORE PUSH1 0x20 ADD SWAP1 DUP2 MSTORE PUSH1 0x20 ADD PUSH1 0x0 KECCAK256 DUP2 SWAP1 SSTORE POP PUSH1 0x1 SWAP1 POP PUSH3 0x2B3 JUMP JUMPDEST PUSH1 0x0 SWAP1 POP JUMPDEST SWAP3 SWAP2 POP POP JUMP JUMPDEST PUSH1 0x0 DUP1 PUSH1 0x0 DUP5 DUP2 MSTORE PUSH1 0x20 ADD SWAP1 DUP2 MSTORE PUSH1 0x20 ADD PUSH1 0x0 KECCAK256 PUSH1 0x0 ADD PUSH1 0x0 DUP4 PUSH20 0xFFFFFFFFFFFFFFFFFFFFFFFFFFFFFFFFFFFFFFFF AND PUSH20 0xFFFFFFFFFFFFFFFFFFFFFFFFFFFFFFFFFFFFFFFF AND DUP2 MSTORE PUSH1 0x20 ADD SWAP1 DUP2 MSTORE PUSH1 0x20 ADD PUSH1 0x0 KECCAK256 PUSH1 0x0 SWAP1 SLOAD SWAP1 PUSH2 0x100 EXP SWAP1 DIV PUSH1 0xFF AND SWAP1 POP SWAP3 SWAP2 POP POP JUMP JUMPDEST PUSH1 0x0 DUP1 DUP4 PUSH1 0x1 ADD PUSH1 0x0 DUP5 DUP2 MSTORE PUSH1 0x20 ADD SWAP1 DUP2 MSTORE PUSH1 0x20 ADD PUSH1 0x0 KECCAK256 SLOAD EQ ISZERO SWAP1 POP SWAP3 SWAP2 POP POP JUMP JUMPDEST DUP3 DUP1 SLOAD PUSH3 0x354 SWAP1 PUSH3 0x647 JUMP JUMPDEST SWAP1 PUSH1 0x0 MSTORE PUSH1 0x20 PUSH1 0x0 KECCAK256 SWAP1 PUSH1 0x1F ADD PUSH1 0x20 SWAP1 DIV DUP2 ADD SWAP3 DUP3 PUSH3 0x378 JUMPI PUSH1 0x0 DUP6 SSTORE PUSH3 0x3C4 JUMP JUMPDEST DUP3 PUSH1 0x1F LT PUSH3 0x393 JUMPI DUP1 MLOAD PUSH1 0xFF NOT AND DUP4 DUP1 ADD OR DUP6 SSTORE PUSH3 0x3C4 JUMP JUMPDEST DUP3 DUP1 ADD PUSH1 0x1 ADD DUP6 SSTORE DUP3 ISZERO PUSH3 0x3C4 JUMPI SWAP2 DUP3 ADD JUMPDEST DUP3 DUP2 GT ISZERO PUSH3 0x3C3 JUMPI DUP3 MLOAD DUP3 SSTORE SWAP2 PUSH1 0x20 ADD SWAP2 SWAP1 PUSH1 0x1 ADD SWAP1 PUSH3 0x3A6 JUMP JUMPDEST JUMPDEST POP SWAP1 POP PUSH3 0x3D3 SWAP2 SWAP1 PUSH3 0x3D7 JUMP JUMPDEST POP SWAP1 JUMP JUMPDEST JUMPDEST DUP1 DUP3 GT ISZERO PUSH3 0x3F2 JUMPI PUSH1 0x0 DUP2 PUSH1 0x0 SWAP1 SSTORE POP PUSH1 0x1 ADD PUSH3 0x3D8 JUMP JUMPDEST POP SWAP1 JUMP JUMPDEST PUSH1 0x0 PUSH1 0x40 MLOAD SWAP1 POP SWAP1 JUMP JUMPDEST PUSH1 0x0 DUP1 REVERT JUMPDEST PUSH1 0x0 DUP1 REVERT JUMPDEST PUSH1 0x0 DUP1 REVERT JUMPDEST PUSH1 0x0 DUP1 REVERT JUMPDEST PUSH1 0x0 PUSH1 0x1F NOT PUSH1 0x1F DUP4 ADD AND SWAP1 POP SWAP2 SWAP1 POP JUMP JUMPDEST PUSH32 0x4E487B7100000000000000000000000000000000000000000000000000000000 PUSH1 0x0 MSTORE PUSH1 0x41 PUSH1 0x4 MSTORE PUSH1 0x24 PUSH1 0x0 REVERT JUMPDEST PUSH3 0x45F DUP3 PUSH3 0x414 JUMP JUMPDEST DUP2 ADD DUP2 DUP2 LT PUSH8 0xFFFFFFFFFFFFFFFF DUP3 GT OR ISZERO PUSH3 0x481 JUMPI PUSH3 0x480 PUSH3 0x425 JUMP JUMPDEST JUMPDEST DUP1 PUSH1 0x40 MSTORE POP POP POP JUMP JUMPDEST PUSH1 0x0 PUSH3 0x496 PUSH3 0x3F6 JUMP JUMPDEST SWAP1 POP PUSH3 0x4A4 DUP3 DUP3 PUSH3 0x454 JUMP JUMPDEST SWAP2 SWAP1 POP JUMP JUMPDEST PUSH1 0x0 PUSH8 0xFFFFFFFFFFFFFFFF DUP3 GT ISZERO PUSH3 0x4C7 JUMPI PUSH3 0x4C6 PUSH3 0x425 JUMP JUMPDEST JUMPDEST PUSH3 0x4D2 DUP3 PUSH3 0x414 JUMP JUMPDEST SWAP1 POP PUSH1 0x20 DUP2 ADD SWAP1 POP SWAP2 SWAP1 POP JUMP JUMPDEST PUSH1 0x0 JUMPDEST DUP4 DUP2 LT ISZERO PUSH3 0x4FF JUMPI DUP1 DUP3 ADD MLOAD DUP2 DUP5 ADD MSTORE PUSH1 0x20 DUP2 ADD SWAP1 POP PUSH3 0x4E2 JUMP JUMPDEST DUP4 DUP2 GT ISZERO PUSH3 0x50F JUMPI PUSH1 0x0 DUP5 DUP5 ADD MSTORE JUMPDEST POP POP POP POP JUMP JUMPDEST PUSH1 0x0 PUSH3 0x52C PUSH3 0x526 DUP5 PUSH3 0x4A9 JUMP JUMPDEST PUSH3 0x48A JUMP JUMPDEST SWAP1 POP DUP3 DUP2 MSTORE PUSH1 0x20 DUP2 ADD DUP5 DUP5 DUP5 ADD GT ISZERO PUSH3 0x54B JUMPI PUSH3 0x54A PUSH3 0x40F JUMP JUMPDEST JUMPDEST PUSH3 0x558 DUP5 DUP3 DUP6 PUSH3 0x4DF JUMP JUMPDEST POP SWAP4 SWAP3 POP POP POP JUMP JUMPDEST PUSH1 0x0 DUP3 PUSH1 0x1F DUP4 ADD SLT PUSH3 0x578 JUMPI PUSH3 0x577 PUSH3 0x40A JUMP JUMPDEST JUMPDEST DUP2 MLOAD PUSH3 0x58A DUP5 DUP3 PUSH1 0x20 DUP7 ADD PUSH3 0x515 JUMP JUMPDEST SWAP2 POP POP SWAP3 SWAP2 POP POP JUMP JUMPDEST PUSH1 0x0 DUP1 PUSH1 0x40 DUP4 DUP6 SUB SLT ISZERO PUSH3 0x5AD JUMPI PUSH3 0x5AC PUSH3 0x400 JUMP JUMPDEST JUMPDEST PUSH1 0x0 DUP4 ADD MLOAD PUSH8 0xFFFFFFFFFFFFFFFF DUP2 GT ISZERO PUSH3 0x5CE JUMPI PUSH3 0x5CD PUSH3 0x405 JUMP JUMPDEST JUMPDEST PUSH3 0x5DC DUP6 DUP3 DUP7 ADD PUSH3 0x560 JUMP JUMPDEST SWAP3 POP POP PUSH1 0x20 DUP4 ADD MLOAD PUSH8 0xFFFFFFFFFFFFFFFF DUP2 GT ISZERO PUSH3 0x600 JUMPI PUSH3 0x5FF PUSH3 0x405 JUMP JUMPDEST JUMPDEST PUSH3 0x60E DUP6 DUP3 DUP7 ADD PUSH3 0x560 JUMP JUMPDEST SWAP2 POP POP SWAP3 POP SWAP3 SWAP1 POP JUMP JUMPDEST PUSH32 0x4E487B7100000000000000000000000000000000000000000000000000000000 PUSH1 0x0 MSTORE PUSH1 0x22 PUSH1 0x4 MSTORE PUSH1 0x24 PUSH1 0x0 REVERT JUMPDEST PUSH1 0x0 PUSH1 0x2 DUP3 DIV SWAP1 POP PUSH1 0x1 DUP3 AND DUP1 PUSH3 0x660 JUMPI PUSH1 0x7F DUP3 AND SWAP2 POP JUMPDEST PUSH1 0x20 DUP3 LT DUP2 EQ ISZERO PUSH3 0x677 JUMPI PUSH3 0x676 PUSH3 0x618 JUMP JUMPDEST JUMPDEST POP SWAP2 SWAP1 POP JUMP JUMPDEST PUSH2 0x2A91 DUP1 PUSH3 0x68D PUSH1 0x0 CODECOPY PUSH1 0x0 RETURN INVALID PUSH1 0x80 PUSH1 0x40 MSTORE CALLVALUE DUP1 ISZERO PUSH2 0x10 JUMPI PUSH1 0x0 DUP1 REVERT JUMPDEST POP PUSH1 0x4 CALLDATASIZE LT PUSH2 0x14D JUMPI PUSH1 0x0 CALLDATALOAD PUSH1 0xE0 SHR DUP1 PUSH4 0x70A08231 GT PUSH2 0xC3 JUMPI DUP1 PUSH4 0xBEABACC8 GT PUSH2 0x7C JUMPI DUP1 PUSH4 0xBEABACC8 EQ PUSH2 0x3F0 JUMPI DUP1 PUSH4 0xC6E858FE EQ PUSH2 0x420 JUMPI DUP1 PUSH4 0xCA15C873 EQ PUSH2 0x43E JUMPI DUP1 PUSH4 0xD0BBB0D7 EQ PUSH2 0x46E JUMPI DUP1 PUSH4 0xD547741F EQ PUSH2 0x48C JUMPI DUP1 PUSH4 0xDD62ED3E EQ PUSH2 0x4A8 JUMPI PUSH2 0x14D JUMP JUMPDEST DUP1 PUSH4 0x70A08231 EQ PUSH2 0x2F4 JUMPI DUP1 PUSH4 0x9010D07C EQ PUSH2 0x324 JUMPI DUP1 PUSH4 0x91D14854 EQ PUSH2 0x354 JUMPI DUP1 PUSH4 0x95D89B41 EQ PUSH2 0x384 JUMPI DUP1 PUSH4 0xA217FDDF EQ PUSH2 0x3A2 JUMPI DUP1 PUSH4 0xA457C2D7 EQ PUSH2 0x3C0 JUMPI PUSH2 0x14D JUMP JUMPDEST DUP1 PUSH4 0x248A9CA3 GT PUSH2 0x115 JUMPI DUP1 PUSH4 0x248A9CA3 EQ PUSH2 0x21E JUMPI DUP1 PUSH4 0x2F2FF15D EQ PUSH2 0x24E JUMPI DUP1 PUSH4 0x313CE567 EQ PUSH2 0x26A JUMPI DUP1 PUSH4 0x39509351 EQ PUSH2 0x288 JUMPI DUP1 PUSH4 0x5394A892 EQ PUSH2 0x2B8 JUMPI DUP1 PUSH4 0x5C975ABB EQ PUSH2 0x2D6 JUMPI PUSH2 0x14D JUMP JUMPDEST DUP1 PUSH4 0x1FFC9A7 EQ PUSH2 0x152 JUMPI DUP1 PUSH4 0x6FDDE03 EQ PUSH2 0x182 JUMPI DUP1 PUSH4 0x95EA7B3 EQ PUSH2 0x1A0 JUMPI DUP1 PUSH4 0x18160DDD EQ PUSH2 0x1D0 JUMPI DUP1 PUSH4 0x23B872DD EQ PUSH2 0x1EE JUMPI JUMPDEST PUSH1 0x0 DUP1 REVERT JUMPDEST PUSH2 0x16C PUSH1 0x4 DUP1 CALLDATASIZE SUB DUP2 ADD SWAP1 PUSH2 0x167 SWAP2 SWAP1 PUSH2 0x1C06 JUMP JUMPDEST PUSH2 0x4D8 JUMP JUMPDEST PUSH1 0x40 MLOAD PUSH2 0x179 SWAP2 SWAP1 PUSH2 0x1C4E JUMP JUMPDEST PUSH1 0x40 MLOAD DUP1 SWAP2 SUB SWAP1 RETURN JUMPDEST PUSH2 0x18A PUSH2 0x552 JUMP JUMPDEST PUSH1 0x40 MLOAD PUSH2 0x197 SWAP2 SWAP1 PUSH2 0x1D02 JUMP JUMPDEST PUSH1 0x40 MLOAD DUP1 SWAP2 SUB SWAP1 RETURN JUMPDEST PUSH2 0x1BA PUSH1 0x4 DUP1 CALLDATASIZE SUB DUP2 ADD SWAP1 PUSH2 0x1B5 SWAP2 SWAP1 PUSH2 0x1DB8 JUMP JUMPDEST PUSH2 0x5E4 JUMP JUMPDEST PUSH1 0x40 MLOAD PUSH2 0x1C7 SWAP2 SWAP1 PUSH2 0x1C4E JUMP JUMPDEST PUSH1 0x40 MLOAD DUP1 SWAP2 SUB SWAP1 RETURN JUMPDEST PUSH2 0x1D8 PUSH2 0x602 JUMP JUMPDEST PUSH1 0x40 MLOAD PUSH2 0x1E5 SWAP2 SWAP1 PUSH2 0x1E07 JUMP JUMPDEST PUSH1 0x40 MLOAD DUP1 SWAP2 SUB SWAP1 RETURN JUMPDEST PUSH2 0x208 PUSH1 0x4 DUP1 CALLDATASIZE SUB DUP2 ADD SWAP1 PUSH2 0x203 SWAP2 SWAP1 PUSH2 0x1E22 JUMP JUMPDEST PUSH2 0x60C JUMP JUMPDEST PUSH1 0x40 MLOAD PUSH2 0x215 SWAP2 SWAP1 PUSH2 0x1C4E JUMP JUMPDEST PUSH1 0x40 MLOAD DUP1 SWAP2 SUB SWAP1 RETURN JUMPDEST PUSH2 0x238 PUSH1 0x4 DUP1 CALLDATASIZE SUB DUP2 ADD SWAP1 PUSH2 0x233 SWAP2 SWAP1 PUSH2 0x1EAB JUMP JUMPDEST PUSH2 0x704 JUMP JUMPDEST PUSH1 0x40 MLOAD PUSH2 0x245 SWAP2 SWAP1 PUSH2 0x1EE7 JUMP JUMPDEST PUSH1 0x40 MLOAD DUP1 SWAP2 SUB SWAP1 RETURN JUMPDEST PUSH2 0x268 PUSH1 0x4 DUP1 CALLDATASIZE SUB DUP2 ADD SWAP1 PUSH2 0x263 SWAP2 SWAP1 PUSH2 0x1F02 JUMP JUMPDEST PUSH2 0x723 JUMP JUMPDEST STOP JUMPDEST PUSH2 0x272 PUSH2 0x757 JUMP JUMPDEST PUSH1 0x40 MLOAD PUSH2 0x27F SWAP2 SWAP1 PUSH2 0x1F5E JUMP JUMPDEST PUSH1 0x40 MLOAD DUP1 SWAP2 SUB SWAP1 RETURN JUMPDEST PUSH2 0x2A2 PUSH1 0x4 DUP1 CALLDATASIZE SUB DUP2 ADD SWAP1 PUSH2 0x29D SWAP2 SWAP1 PUSH2 0x1DB8 JUMP JUMPDEST PUSH2 0x760 JUMP JUMPDEST PUSH1 0x40 MLOAD PUSH2 0x2AF SWAP2 SWAP1 PUSH2 0x1C4E JUMP JUMPDEST PUSH1 0x40 MLOAD DUP1 SWAP2 SUB SWAP1 RETURN JUMPDEST PUSH2 0x2C0 PUSH2 0x85F JUMP JUMPDEST PUSH1 0x40 MLOAD PUSH2 0x2CD SWAP2 SWAP1 PUSH2 0x1C4E JUMP JUMPDEST PUSH1 0x40 MLOAD DUP1 SWAP2 SUB SWAP1 RETURN JUMPDEST PUSH2 0x2DE PUSH2 0x8C3 JUMP JUMPDEST PUSH1 0x40 MLOAD PUSH2 0x2EB SWAP2 SWAP1 PUSH2 0x1C4E JUMP JUMPDEST PUSH1 0x40 MLOAD DUP1 SWAP2 SUB SWAP1 RETURN JUMPDEST PUSH2 0x30E PUSH1 0x4 DUP1 CALLDATASIZE SUB DUP2 ADD SWAP1 PUSH2 0x309 SWAP2 SWAP1 PUSH2 0x1F79 JUMP JUMPDEST PUSH2 0x8DA JUMP JUMPDEST PUSH1 0x40 MLOAD PUSH2 0x31B SWAP2 SWAP1 PUSH2 0x1E07 JUMP JUMPDEST PUSH1 0x40 MLOAD DUP1 SWAP2 SUB SWAP1 RETURN JUMPDEST PUSH2 0x33E PUSH1 0x4 DUP1 CALLDATASIZE SUB DUP2 ADD SWAP1 PUSH2 0x339 SWAP2 SWAP1 PUSH2 0x1FA6 JUMP JUMPDEST PUSH2 0x923 JUMP JUMPDEST PUSH1 0x40 MLOAD PUSH2 0x34B SWAP2 SWAP1 PUSH2 0x1FF5 JUMP JUMPDEST PUSH1 0x40 MLOAD DUP1 SWAP2 SUB SWAP1 RETURN JUMPDEST PUSH2 0x36E PUSH1 0x4 DUP1 CALLDATASIZE SUB DUP2 ADD SWAP1 PUSH2 0x369 SWAP2 SWAP1 PUSH2 0x1F02 JUMP JUMPDEST PUSH2 0x952 JUMP JUMPDEST PUSH1 0x40 MLOAD PUSH2 0x37B SWAP2 SWAP1 PUSH2 0x1C4E JUMP JUMPDEST PUSH1 0x40 MLOAD DUP1 SWAP2 SUB SWAP1 RETURN JUMPDEST PUSH2 0x38C PUSH2 0x9BC JUMP JUMPDEST PUSH1 0x40 MLOAD PUSH2 0x399 SWAP2 SWAP1 PUSH2 0x1D02 JUMP JUMPDEST PUSH1 0x40 MLOAD DUP1 SWAP2 SUB SWAP1 RETURN JUMPDEST PUSH2 0x3AA PUSH2 0xA4E JUMP JUMPDEST PUSH1 0x40 MLOAD PUSH2 0x3B7 SWAP2 SWAP1 PUSH2 0x1EE7 JUMP JUMPDEST PUSH1 0x40 MLOAD DUP1 SWAP2 SUB SWAP1 RETURN JUMPDEST PUSH2 0x3DA PUSH1 0x4 DUP1 CALLDATASIZE SUB DUP2 ADD SWAP1 PUSH2 0x3D5 SWAP2 SWAP1 PUSH2 0x1DB8 JUMP JUMPDEST PUSH2 0xA55 JUMP JUMPDEST PUSH1 0x40 MLOAD PUSH2 0x3E7 SWAP2 SWAP1 PUSH2 0x1C4E JUMP JUMPDEST PUSH1 0x40 MLOAD DUP1 SWAP2 SUB SWAP1 RETURN JUMPDEST PUSH2 0x40A PUSH1 0x4 DUP1 CALLDATASIZE SUB DUP2 ADD SWAP1 PUSH2 0x405 SWAP2 SWAP1 PUSH2 0x1E22 JUMP JUMPDEST PUSH2 0xB94 JUMP JUMPDEST PUSH1 0x40 MLOAD PUSH2 0x417 SWAP2 SWAP1 PUSH2 0x1C4E JUMP JUMPDEST PUSH1 0x40 MLOAD DUP1 SWAP2 SUB SWAP1 RETURN JUMPDEST PUSH2 0x428 PUSH2 0xBAC JUMP JUMPDEST PUSH1 0x40 MLOAD PUSH2 0x435 SWAP2 SWAP1 PUSH2 0x1C4E JUMP JUMPDEST PUSH1 0x40 MLOAD DUP1 SWAP2 SUB SWAP1 RETURN JUMPDEST PUSH2 0x458 PUSH1 0x4 DUP1 CALLDATASIZE SUB DUP2 ADD SWAP1 PUSH2 0x453 SWAP2 SWAP1 PUSH2 0x1EAB JUMP JUMPDEST PUSH2 0xC10 JUMP JUMPDEST PUSH1 0x40 MLOAD PUSH2 0x465 SWAP2 SWAP1 PUSH2 0x1E07 JUMP JUMPDEST PUSH1 0x40 MLOAD DUP1 SWAP2 SUB SWAP1 RETURN JUMPDEST PUSH2 0x476 PUSH2 0xC34 JUMP JUMPDEST PUSH1 0x40 MLOAD PUSH2 0x483 SWAP2 SWAP1 PUSH2 0x1E07 JUMP JUMPDEST PUSH1 0x40 MLOAD DUP1 SWAP2 SUB SWAP1 RETURN JUMPDEST PUSH2 0x4A6 PUSH1 0x4 DUP1 CALLDATASIZE SUB DUP2 ADD SWAP1 PUSH2 0x4A1 SWAP2 SWAP1 PUSH2 0x1F02 JUMP JUMPDEST PUSH2 0xC3A JUMP JUMPDEST STOP JUMPDEST PUSH2 0x4C2 PUSH1 0x4 DUP1 CALLDATASIZE SUB DUP2 ADD SWAP1 PUSH2 0x4BD SWAP2 SWAP1 PUSH2 0x2010 JUMP JUMPDEST PUSH2 0xCE4 JUMP JUMPDEST PUSH1 0x40 MLOAD PUSH2 0x4CF SWAP2 SWAP1 PUSH2 0x1E07 JUMP JUMPDEST PUSH1 0x40 MLOAD DUP1 SWAP2 SUB SWAP1 RETURN JUMPDEST PUSH1 0x0 PUSH32 0x5A05180F00000000000000000000000000000000000000000000000000000000 PUSH28 0xFFFFFFFFFFFFFFFFFFFFFFFFFFFFFFFFFFFFFFFFFFFFFFFFFFFFFFFF NOT AND DUP3 PUSH28 0xFFFFFFFFFFFFFFFFFFFFFFFFFFFFFFFFFFFFFFFFFFFFFFFFFFFFFFFF NOT AND EQ DUP1 PUSH2 0x54B JUMPI POP PUSH2 0x54A DUP3 PUSH2 0xDA9 JUMP JUMPDEST JUMPDEST SWAP1 POP SWAP2 SWAP1 POP JUMP JUMPDEST PUSH1 0x60 PUSH1 0x6 DUP1 SLOAD PUSH2 0x561 SWAP1 PUSH2 0x207F JUMP JUMPDEST DUP1 PUSH1 0x1F ADD PUSH1 0x20 DUP1 SWAP2 DIV MUL PUSH1 0x20 ADD PUSH1 0x40 MLOAD SWAP1 DUP2 ADD PUSH1 0x40 MSTORE DUP1 SWAP3 SWAP2 SWAP1 DUP2 DUP2 MSTORE PUSH1 0x20 ADD DUP3 DUP1 SLOAD PUSH2 0x58D SWAP1 PUSH2 0x207F JUMP JUMPDEST DUP1 ISZERO PUSH2 0x5DA JUMPI DUP1 PUSH1 0x1F LT PUSH2 0x5AF JUMPI PUSH2 0x100 DUP1 DUP4 SLOAD DIV MUL DUP4 MSTORE SWAP2 PUSH1 0x20 ADD SWAP2 PUSH2 0x5DA JUMP JUMPDEST DUP3 ADD SWAP2 SWAP1 PUSH1 0x0 MSTORE PUSH1 0x20 PUSH1 0x0 KECCAK256 SWAP1 JUMPDEST DUP2 SLOAD DUP2 MSTORE SWAP1 PUSH1 0x1 ADD SWAP1 PUSH1 0x20 ADD DUP1 DUP4 GT PUSH2 0x5BD JUMPI DUP3 SWAP1 SUB PUSH1 0x1F AND DUP3 ADD SWAP2 JUMPDEST POP POP POP POP POP SWAP1 POP SWAP1 JUMP JUMPDEST PUSH1 0x0 PUSH2 0x5F8 PUSH2 0x5F1 PUSH2 0xE23 JUMP JUMPDEST DUP5 DUP5 PUSH2 0xE2B JUMP JUMPDEST PUSH1 0x1 SWAP1 POP SWAP3 SWAP2 POP POP JUMP JUMPDEST PUSH1 0x0 PUSH1 0x5 SLOAD SWAP1 POP SWAP1 JUMP JUMPDEST PUSH1 0x0 PUSH2 0x619 DUP5 DUP5 DUP5 PUSH2 0xFF6 JUMP JUMPDEST PUSH1 0x0 PUSH1 0x4 PUSH1 0x0 DUP7 PUSH20 0xFFFFFFFFFFFFFFFFFFFFFFFFFFFFFFFFFFFFFFFF AND PUSH20 0xFFFFFFFFFFFFFFFFFFFFFFFFFFFFFFFFFFFFFFFF AND DUP2 MSTORE PUSH1 0x20 ADD SWAP1 DUP2 MSTORE PUSH1 0x20 ADD PUSH1 0x0 KECCAK256 PUSH1 0x0 PUSH2 0x664 PUSH2 0xE23 JUMP JUMPDEST PUSH20 0xFFFFFFFFFFFFFFFFFFFFFFFFFFFFFFFFFFFFFFFF AND PUSH20 0xFFFFFFFFFFFFFFFFFFFFFFFFFFFFFFFFFFFFFFFF AND DUP2 MSTORE PUSH1 0x20 ADD SWAP1 DUP2 MSTORE PUSH1 0x20 ADD PUSH1 0x0 KECCAK256 SLOAD SWAP1 POP DUP3 DUP2 LT ISZERO PUSH2 0x6E4 JUMPI PUSH1 0x40 MLOAD PUSH32 0x8C379A000000000000000000000000000000000000000000000000000000000 DUP2 MSTORE PUSH1 0x4 ADD PUSH2 0x6DB SWAP1 PUSH2 0x2123 JUMP JUMPDEST PUSH1 0x40 MLOAD DUP1 SWAP2 SUB SWAP1 REVERT JUMPDEST PUSH2 0x6F8 DUP6 PUSH2 0x6F0 PUSH2 0xE23 JUMP JUMPDEST DUP6 DUP5 SUB PUSH2 0xE2B JUMP JUMPDEST PUSH1 0x1 SWAP2 POP POP SWAP4 SWAP3 POP POP POP JUMP JUMPDEST PUSH1 0x0 DUP1 PUSH1 0x0 DUP4 DUP2 MSTORE PUSH1 0x20 ADD SWAP1 DUP2 MSTORE PUSH1 0x20 ADD PUSH1 0x0 KECCAK256 PUSH1 0x1 ADD SLOAD SWAP1 POP SWAP2 SWAP1 POP JUMP JUMPDEST PUSH2 0x72D DUP3 DUP3 PUSH2 0x12C2 JUMP JUMPDEST PUSH2 0x752 DUP2 PUSH1 0x1 PUSH1 0x0 DUP6 DUP2 MSTORE PUSH1 0x20 ADD SWAP1 DUP2 MSTORE PUSH1 0x20 ADD PUSH1 0x0 KECCAK256 PUSH2 0xD79 SWAP1 SWAP2 SWAP1 PUSH4 0xFFFFFFFF AND JUMP JUMPDEST POP POP POP JUMP JUMPDEST PUSH1 0x0 PUSH1 0x8 SWAP1 POP SWAP1 JUMP JUMPDEST PUSH1 0x0 PUSH2 0x776 PUSH1 0x0 DUP1 SHL PUSH2 0x771 PUSH2 0xE23 JUMP JUMPDEST PUSH2 0x952 JUMP JUMPDEST PUSH2 0x7B5 JUMPI PUSH1 0x40 MLOAD PUSH32 0x8C379A000000000000000000000000000000000000000000000000000000000 DUP2 MSTORE PUSH1 0x4 ADD PUSH2 0x7AC SWAP1 PUSH2 0x218F JUMP JUMPDEST PUSH1 0x40 MLOAD DUP1 SWAP2 SUB SWAP1 REVERT JUMPDEST PUSH2 0x855 PUSH2 0x7C0 PUSH2 0xE23 JUMP JUMPDEST DUP5 DUP5 PUSH1 0x4 PUSH1 0x0 PUSH2 0x7CE PUSH2 0xE23 JUMP JUMPDEST PUSH20 0xFFFFFFFFFFFFFFFFFFFFFFFFFFFFFFFFFFFFFFFF AND PUSH20 0xFFFFFFFFFFFFFFFFFFFFFFFFFFFFFFFFFFFFFFFF AND DUP2 MSTORE PUSH1 0x20 ADD SWAP1 DUP2 MSTORE PUSH1 0x20 ADD PUSH1 0x0 KECCAK256 PUSH1 0x0 DUP9 PUSH20 0xFFFFFFFFFFFFFFFFFFFFFFFFFFFFFFFFFFFFFFFF AND PUSH20 0xFFFFFFFFFFFFFFFFFFFFFFFFFFFFFFFFFFFFFFFF AND DUP2 MSTORE PUSH1 0x20 ADD SWAP1 DUP2 MSTORE PUSH1 0x20 ADD PUSH1 0x0 KECCAK256 SLOAD PUSH2 0x850 SWAP2 SWAP1 PUSH2 0x21DE JUMP JUMPDEST PUSH2 0xE2B JUMP JUMPDEST PUSH1 0x1 SWAP1 POP SWAP3 SWAP2 POP POP JUMP JUMPDEST PUSH1 0x0 PUSH2 0x875 PUSH1 0x0 DUP1 SHL PUSH2 0x870 PUSH2 0xE23 JUMP JUMPDEST PUSH2 0x952 JUMP JUMPDEST PUSH2 0x8B4 JUMPI PUSH1 0x40 MLOAD PUSH32 0x8C379A000000000000000000000000000000000000000000000000000000000 DUP2 MSTORE PUSH1 0x4 ADD PUSH2 0x8AB SWAP1 PUSH2 0x218F JUMP JUMPDEST PUSH1 0x40 MLOAD DUP1 SWAP2 SUB SWAP1 REVERT JUMPDEST PUSH2 0x8BC PUSH2 0x12EB JUMP JUMPDEST PUSH1 0x1 SWAP1 POP SWAP1 JUMP JUMPDEST PUSH1 0x0 PUSH1 0x2 PUSH1 0x0 SWAP1 SLOAD SWAP1 PUSH2 0x100 EXP SWAP1 DIV PUSH1 0xFF AND SWAP1 POP SWAP1 JUMP JUMPDEST PUSH1 0x0 PUSH1 0x3 PUSH1 0x0 DUP4 PUSH20 0xFFFFFFFFFFFFFFFFFFFFFFFFFFFFFFFFFFFFFFFF AND PUSH20 0xFFFFFFFFFFFFFFFFFFFFFFFFFFFFFFFFFFFFFFFF AND DUP2 MSTORE PUSH1 0x20 ADD SWAP1 DUP2 MSTORE PUSH1 0x20 ADD PUSH1 0x0 KECCAK256 SLOAD SWAP1 POP SWAP2 SWAP1 POP JUMP JUMPDEST PUSH1 0x0 PUSH2 0x94A DUP3 PUSH1 0x1 PUSH1 0x0 DUP7 DUP2 MSTORE PUSH1 0x20 ADD SWAP1 DUP2 MSTORE PUSH1 0x20 ADD PUSH1 0x0 KECCAK256 PUSH2 0x138E SWAP1 SWAP2 SWAP1 PUSH4 0xFFFFFFFF AND JUMP JUMPDEST SWAP1 POP SWAP3 SWAP2 POP POP JUMP JUMPDEST PUSH1 0x0 DUP1 PUSH1 0x0 DUP5 DUP2 MSTORE PUSH1 0x20 ADD SWAP1 DUP2 MSTORE PUSH1 0x20 ADD PUSH1 0x0 KECCAK256 PUSH1 0x0 ADD PUSH1 0x0 DUP4 PUSH20 0xFFFFFFFFFFFFFFFFFFFFFFFFFFFFFFFFFFFFFFFF AND PUSH20 0xFFFFFFFFFFFFFFFFFFFFFFFFFFFFFFFFFFFFFFFF AND DUP2 MSTORE PUSH1 0x20 ADD SWAP1 DUP2 MSTORE PUSH1 0x20 ADD PUSH1 0x0 KECCAK256 PUSH1 0x0 SWAP1 SLOAD SWAP1 PUSH2 0x100 EXP SWAP1 DIV PUSH1 0xFF AND SWAP1 POP SWAP3 SWAP2 POP POP JUMP JUMPDEST PUSH1 0x60 PUSH1 0x7 DUP1 SLOAD PUSH2 0x9CB SWAP1 PUSH2 0x207F JUMP JUMPDEST DUP1 PUSH1 0x1F ADD PUSH1 0x20 DUP1 SWAP2 DIV MUL PUSH1 0x20 ADD PUSH1 0x40 MLOAD SWAP1 DUP2 ADD PUSH1 0x40 MSTORE DUP1 SWAP3 SWAP2 SWAP1 DUP2 DUP2 MSTORE PUSH1 0x20 ADD DUP3 DUP1 SLOAD PUSH2 0x9F7 SWAP1 PUSH2 0x207F JUMP JUMPDEST DUP1 ISZERO PUSH2 0xA44 JUMPI DUP1 PUSH1 0x1F LT PUSH2 0xA19 JUMPI PUSH2 0x100 DUP1 DUP4 SLOAD DIV MUL DUP4 MSTORE SWAP2 PUSH1 0x20 ADD SWAP2 PUSH2 0xA44 JUMP JUMPDEST DUP3 ADD SWAP2 SWAP1 PUSH1 0x0 MSTORE PUSH1 0x20 PUSH1 0x0 KECCAK256 SWAP1 JUMPDEST DUP2 SLOAD DUP2 MSTORE SWAP1 PUSH1 0x1 ADD SWAP1 PUSH1 0x20 ADD DUP1 DUP4 GT PUSH2 0xA27 JUMPI DUP3 SWAP1 SUB PUSH1 0x1F AND DUP3 ADD SWAP2 JUMPDEST POP POP POP POP POP SWAP1 POP SWAP1 JUMP JUMPDEST PUSH1 0x0 DUP1 SHL DUP2 JUMP JUMPDEST PUSH1 0x0 PUSH2 0xA6B PUSH1 0x0 DUP1 SHL PUSH2 0xA66 PUSH2 0xE23 JUMP JUMPDEST PUSH2 0x952 JUMP JUMPDEST PUSH2 0xAAA JUMPI PUSH1 0x40 MLOAD PUSH32 0x8C379A000000000000000000000000000000000000000000000000000000000 DUP2 MSTORE PUSH1 0x4 ADD PUSH2 0xAA1 SWAP1 PUSH2 0x218F JUMP JUMPDEST PUSH1 0x40 MLOAD DUP1 SWAP2 SUB SWAP1 REVERT JUMPDEST PUSH1 0x0 PUSH1 0x4 PUSH1 0x0 PUSH2 0xAB8 PUSH2 0xE23 JUMP JUMPDEST PUSH20 0xFFFFFFFFFFFFFFFFFFFFFFFFFFFFFFFFFFFFFFFF AND PUSH20 0xFFFFFFFFFFFFFFFFFFFFFFFFFFFFFFFFFFFFFFFF AND DUP2 MSTORE PUSH1 0x20 ADD SWAP1 DUP2 MSTORE PUSH1 0x20 ADD PUSH1 0x0 KECCAK256 PUSH1 0x0 DUP6 PUSH20 0xFFFFFFFFFFFFFFFFFFFFFFFFFFFFFFFFFFFFFFFF AND PUSH20 0xFFFFFFFFFFFFFFFFFFFFFFFFFFFFFFFFFFFFFFFF AND DUP2 MSTORE PUSH1 0x20 ADD SWAP1 DUP2 MSTORE PUSH1 0x20 ADD PUSH1 0x0 KECCAK256 SLOAD SWAP1 POP DUP3 DUP2 LT ISZERO PUSH2 0xB75 JUMPI PUSH1 0x40 MLOAD PUSH32 0x8C379A000000000000000000000000000000000000000000000000000000000 DUP2 MSTORE PUSH1 0x4 ADD PUSH2 0xB6C SWAP1 PUSH2 0x22A6 JUMP JUMPDEST PUSH1 0x40 MLOAD DUP1 SWAP2 SUB SWAP1 REVERT JUMPDEST PUSH2 0xB89 PUSH2 0xB80 PUSH2 0xE23 JUMP JUMPDEST DUP6 DUP6 DUP5 SUB PUSH2 0xE2B JUMP JUMPDEST PUSH1 0x1 SWAP2 POP POP SWAP3 SWAP2 POP POP JUMP JUMPDEST PUSH1 0x0 PUSH2 0xBA1 DUP5 DUP5 DUP5 PUSH2 0xFF6 JUMP JUMPDEST PUSH1 0x1 SWAP1 POP SWAP4 SWAP3 POP POP POP JUMP JUMPDEST PUSH1 0x0 PUSH2 0xBC2 PUSH1 0x0 DUP1 SHL PUSH2 0xBBD PUSH2 0xE23 JUMP JUMPDEST PUSH2 0x952 JUMP JUMPDEST PUSH2 0xC01 JUMPI PUSH1 0x40 MLOAD PUSH32 0x8C379A000000000000000000000000000000000000000000000000000000000 DUP2 MSTORE PUSH1 0x4 ADD PUSH2 0xBF8 SWAP1 PUSH2 0x218F JUMP JUMPDEST PUSH1 0x40 MLOAD DUP1 SWAP2 SUB SWAP1 REVERT JUMPDEST PUSH2 0xC09 PUSH2 0x13A8 JUMP JUMPDEST PUSH1 0x1 SWAP1 POP SWAP1 JUMP JUMPDEST PUSH1 0x0 PUSH2 0xC2D PUSH1 0x1 PUSH1 0x0 DUP5 DUP2 MSTORE PUSH1 0x20 ADD SWAP1 DUP2 MSTORE PUSH1 0x20 ADD PUSH1 0x0 KECCAK256 PUSH2 0x144A JUMP JUMPDEST SWAP1 POP SWAP2 SWAP1 POP JUMP JUMPDEST PUSH1 0x8 SLOAD DUP2 JUMP JUMPDEST PUSH2 0xC42 PUSH2 0xE23 JUMP JUMPDEST PUSH20 0xFFFFFFFFFFFFFFFFFFFFFFFFFFFFFFFFFFFFFFFF AND DUP2 PUSH20 0xFFFFFFFFFFFFFFFFFFFFFFFFFFFFFFFFFFFFFFFF AND EQ ISZERO PUSH2 0xCB0 JUMPI PUSH1 0x40 MLOAD PUSH32 0x8C379A000000000000000000000000000000000000000000000000000000000 DUP2 MSTORE PUSH1 0x4 ADD PUSH2 0xCA7 SWAP1 PUSH2 0x2338 JUMP JUMPDEST PUSH1 0x40 MLOAD DUP1 SWAP2 SUB SWAP1 REVERT JUMPDEST PUSH2 0xCBA DUP3 DUP3 PUSH2 0x145F JUMP JUMPDEST PUSH2 0xCDF DUP2 PUSH1 0x1 PUSH1 0x0 DUP6 DUP2 MSTORE PUSH1 0x20 ADD SWAP1 DUP2 MSTORE PUSH1 0x20 ADD PUSH1 0x0 KECCAK256 PUSH2 0x1488 SWAP1 SWAP2 SWAP1 PUSH4 0xFFFFFFFF AND JUMP JUMPDEST POP POP POP JUMP JUMPDEST PUSH1 0x0 PUSH1 0x4 PUSH1 0x0 DUP5 PUSH20 0xFFFFFFFFFFFFFFFFFFFFFFFFFFFFFFFFFFFFFFFF AND PUSH20 0xFFFFFFFFFFFFFFFFFFFFFFFFFFFFFFFFFFFFFFFF AND DUP2 MSTORE PUSH1 0x20 ADD SWAP1 DUP2 MSTORE PUSH1 0x20 ADD PUSH1 0x0 KECCAK256 PUSH1 0x0 DUP4 PUSH20 0xFFFFFFFFFFFFFFFFFFFFFFFFFFFFFFFFFFFFFFFF AND PUSH20 0xFFFFFFFFFFFFFFFFFFFFFFFFFFFFFFFFFFFFFFFF AND DUP2 MSTORE PUSH1 0x20 ADD SWAP1 DUP2 MSTORE PUSH1 0x20 ADD PUSH1 0x0 KECCAK256 SLOAD SWAP1 POP SWAP3 SWAP2 POP POP JUMP JUMPDEST PUSH2 0xD75 DUP3 DUP3 PUSH2 0x14B8 JUMP JUMPDEST POP POP JUMP JUMPDEST PUSH1 0x0 PUSH2 0xDA1 DUP4 PUSH1 0x0 ADD DUP4 PUSH20 0xFFFFFFFFFFFFFFFFFFFFFFFFFFFFFFFFFFFFFFFF AND PUSH1 0x0 SHL PUSH2 0x1598 JUMP JUMPDEST SWAP1 POP SWAP3 SWAP2 POP POP JUMP JUMPDEST PUSH1 0x0 PUSH32 0x4F3351B500000000000000000000000000000000000000000000000000000000 PUSH28 0xFFFFFFFFFFFFFFFFFFFFFFFFFFFFFFFFFFFFFFFFFFFFFFFFFFFFFFFF NOT AND DUP3 PUSH28 0xFFFFFFFFFFFFFFFFFFFFFFFFFFFFFFFFFFFFFFFFFFFFFFFFFFFFFFFF NOT AND EQ DUP1 PUSH2 0xE1C JUMPI POP PUSH2 0xE1B DUP3 PUSH2 0x1608 JUMP JUMPDEST JUMPDEST SWAP1 POP SWAP2 SWAP1 POP JUMP JUMPDEST PUSH1 0x0 CALLER SWAP1 POP SWAP1 JUMP JUMPDEST PUSH1 0x0 PUSH20 0xFFFFFFFFFFFFFFFFFFFFFFFFFFFFFFFFFFFFFFFF AND DUP4 PUSH20 0xFFFFFFFFFFFFFFFFFFFFFFFFFFFFFFFFFFFFFFFF AND EQ ISZERO PUSH2 0xE9B JUMPI PUSH1 0x40 MLOAD PUSH32 0x8C379A000000000000000000000000000000000000000000000000000000000 DUP2 MSTORE PUSH1 0x4 ADD PUSH2 0xE92 SWAP1 PUSH2 0x23CA JUMP JUMPDEST PUSH1 0x40 MLOAD DUP1 SWAP2 SUB SWAP1 REVERT JUMPDEST PUSH1 0x0 PUSH20 0xFFFFFFFFFFFFFFFFFFFFFFFFFFFFFFFFFFFFFFFF AND DUP3 PUSH20 0xFFFFFFFFFFFFFFFFFFFFFFFFFFFFFFFFFFFFFFFF AND EQ ISZERO PUSH2 0xF0B JUMPI PUSH1 0x40 MLOAD PUSH32 0x8C379A000000000000000000000000000000000000000000000000000000000 DUP2 MSTORE PUSH1 0x4 ADD PUSH2 0xF02 SWAP1 PUSH2 0x245C JUMP JUMPDEST PUSH1 0x40 MLOAD DUP1 SWAP2 SUB SWAP1 REVERT JUMPDEST DUP1 PUSH1 0x4 PUSH1 0x0 DUP6 PUSH20 0xFFFFFFFFFFFFFFFFFFFFFFFFFFFFFFFFFFFFFFFF AND PUSH20 0xFFFFFFFFFFFFFFFFFFFFFFFFFFFFFFFFFFFFFFFF AND DUP2 MSTORE PUSH1 0x20 ADD SWAP1 DUP2 MSTORE PUSH1 0x20 ADD PUSH1 0x0 KECCAK256 PUSH1 0x0 DUP5 PUSH20 0xFFFFFFFFFFFFFFFFFFFFFFFFFFFFFFFFFFFFFFFF AND PUSH20 0xFFFFFFFFFFFFFFFFFFFFFFFFFFFFFFFFFFFFFFFF AND DUP2 MSTORE PUSH1 0x20 ADD SWAP1 DUP2 MSTORE PUSH1 0x20 ADD PUSH1 0x0 KECCAK256 DUP2 SWAP1 SSTORE POP DUP2 PUSH20 0xFFFFFFFFFFFFFFFFFFFFFFFFFFFFFFFFFFFFFFFF AND DUP4 PUSH20 0xFFFFFFFFFFFFFFFFFFFFFFFFFFFFFFFFFFFFFFFF AND PUSH32 0x8C5BE1E5EBEC7D5BD14F71427D1E84F3DD0314C0F7B2291E5B200AC8C7C3B925 DUP4 PUSH1 0x40 MLOAD PUSH2 0xFE9 SWAP2 SWAP1 PUSH2 0x1E07 JUMP JUMPDEST PUSH1 0x40 MLOAD DUP1 SWAP2 SUB SWAP1 LOG3 POP POP POP JUMP JUMPDEST PUSH2 0xFFE PUSH2 0x8C3 JUMP JUMPDEST ISZERO PUSH2 0x103E JUMPI PUSH1 0x40 MLOAD PUSH32 0x8C379A000000000000000000000000000000000000000000000000000000000 DUP2 MSTORE PUSH1 0x4 ADD PUSH2 0x1035 SWAP1 PUSH2 0x24EE JUMP JUMPDEST PUSH1 0x40 MLOAD DUP1 SWAP2 SUB SWAP1 REVERT JUMPDEST PUSH1 0x0 PUSH20 0xFFFFFFFFFFFFFFFFFFFFFFFFFFFFFFFFFFFFFFFF AND DUP4 PUSH20 0xFFFFFFFFFFFFFFFFFFFFFFFFFFFFFFFFFFFFFFFF AND EQ ISZERO PUSH2 0x10AE JUMPI PUSH1 0x40 MLOAD PUSH32 0x8C379A000000000000000000000000000000000000000000000000000000000 DUP2 MSTORE PUSH1 0x4 ADD PUSH2 0x10A5 SWAP1 PUSH2 0x2580 JUMP JUMPDEST PUSH1 0x40 MLOAD DUP1 SWAP2 SUB SWAP1 REVERT JUMPDEST PUSH1 0x0 PUSH20 0xFFFFFFFFFFFFFFFFFFFFFFFFFFFFFFFFFFFFFFFF AND DUP3 PUSH20 0xFFFFFFFFFFFFFFFFFFFFFFFFFFFFFFFFFFFFFFFF AND EQ ISZERO PUSH2 0x111E JUMPI PUSH1 0x40 MLOAD PUSH32 0x8C379A000000000000000000000000000000000000000000000000000000000 DUP2 MSTORE PUSH1 0x4 ADD PUSH2 0x1115 SWAP1 PUSH2 0x2612 JUMP JUMPDEST PUSH1 0x40 MLOAD DUP1 SWAP2 SUB SWAP1 REVERT JUMPDEST PUSH2 0x1129 DUP4 DUP4 DUP4 PUSH2 0x1672 JUMP JUMPDEST PUSH1 0x0 PUSH1 0x3 PUSH1 0x0 DUP6 PUSH20 0xFFFFFFFFFFFFFFFFFFFFFFFFFFFFFFFFFFFFFFFF AND PUSH20 0xFFFFFFFFFFFFFFFFFFFFFFFFFFFFFFFFFFFFFFFF AND DUP2 MSTORE PUSH1 0x20 ADD SWAP1 DUP2 MSTORE PUSH1 0x20 ADD PUSH1 0x0 KECCAK256 SLOAD SWAP1 POP DUP2 DUP2 LT ISZERO PUSH2 0x11B0 JUMPI PUSH1 0x40 MLOAD PUSH32 0x8C379A000000000000000000000000000000000000000000000000000000000 DUP2 MSTORE PUSH1 0x4 ADD PUSH2 0x11A7 SWAP1 PUSH2 0x26A4 JUMP JUMPDEST PUSH1 0x40 MLOAD DUP1 SWAP2 SUB SWAP1 REVERT JUMPDEST DUP2 DUP2 SUB PUSH1 0x3 PUSH1 0x0 DUP7 PUSH20 0xFFFFFFFFFFFFFFFFFFFFFFFFFFFFFFFFFFFFFFFF AND PUSH20 0xFFFFFFFFFFFFFFFFFFFFFFFFFFFFFFFFFFFFFFFF AND DUP2 MSTORE PUSH1 0x20 ADD SWAP1 DUP2 MSTORE PUSH1 0x20 ADD PUSH1 0x0 KECCAK256 DUP2 SWAP1 SSTORE POP DUP2 PUSH1 0x3 PUSH1 0x0 DUP6 PUSH20 0xFFFFFFFFFFFFFFFFFFFFFFFFFFFFFFFFFFFFFFFF AND PUSH20 0xFFFFFFFFFFFFFFFFFFFFFFFFFFFFFFFFFFFFFFFF AND DUP2 MSTORE PUSH1 0x20 ADD SWAP1 DUP2 MSTORE PUSH1 0x20 ADD PUSH1 0x0 KECCAK256 PUSH1 0x0 DUP3 DUP3 SLOAD PUSH2 0x1245 SWAP2 SWAP1 PUSH2 0x21DE JUMP JUMPDEST SWAP3 POP POP DUP2 SWAP1 SSTORE POP DUP3 PUSH20 0xFFFFFFFFFFFFFFFFFFFFFFFFFFFFFFFFFFFFFFFF AND DUP5 PUSH20 0xFFFFFFFFFFFFFFFFFFFFFFFFFFFFFFFFFFFFFFFF AND PUSH32 0xDDF252AD1BE2C89B69C2B068FC378DAA952BA7F163C4A11628F55A4DF523B3EF DUP5 PUSH1 0x40 MLOAD PUSH2 0x12A9 SWAP2 SWAP1 PUSH2 0x1E07 JUMP JUMPDEST PUSH1 0x40 MLOAD DUP1 SWAP2 SUB SWAP1 LOG3 PUSH2 0x12BC DUP5 DUP5 DUP5 PUSH2 0x1677 JUMP JUMPDEST POP POP POP POP JUMP JUMPDEST PUSH2 0x12CB DUP3 PUSH2 0x704 JUMP JUMPDEST PUSH2 0x12DC DUP2 PUSH2 0x12D7 PUSH2 0xE23 JUMP JUMPDEST PUSH2 0x167C JUMP JUMPDEST PUSH2 0x12E6 DUP4 DUP4 PUSH2 0x14B8 JUMP JUMPDEST POP POP POP JUMP JUMPDEST PUSH2 0x12F3 PUSH2 0x8C3 JUMP JUMPDEST ISZERO PUSH2 0x1333 JUMPI PUSH1 0x40 MLOAD PUSH32 0x8C379A000000000000000000000000000000000000000000000000000000000 DUP2 MSTORE PUSH1 0x4 ADD PUSH2 0x132A SWAP1 PUSH2 0x2710 JUMP JUMPDEST PUSH1 0x40 MLOAD DUP1 SWAP2 SUB SWAP1 REVERT JUMPDEST PUSH1 0x1 PUSH1 0x2 PUSH1 0x0 PUSH2 0x100 EXP DUP2 SLOAD DUP2 PUSH1 0xFF MUL NOT AND SWAP1 DUP4 ISZERO ISZERO MUL OR SWAP1 SSTORE POP PUSH32 0x62E78CEA01BEE320CD4E420270B5EA74000D11B0C9F74754EBDBFC544B05A258 PUSH2 0x1377 PUSH2 0xE23 JUMP JUMPDEST PUSH1 0x40 MLOAD PUSH2 0x1384 SWAP2 SWAP1 PUSH2 0x1FF5 JUMP JUMPDEST PUSH1 0x40 MLOAD DUP1 SWAP2 SUB SWAP1 LOG1 JUMP JUMPDEST PUSH1 0x0 PUSH2 0x139D DUP4 PUSH1 0x0 ADD DUP4 PUSH2 0x1719 JUMP JUMPDEST PUSH1 0x0 SHR SWAP1 POP SWAP3 SWAP2 POP POP JUMP JUMPDEST PUSH2 0x13B0 PUSH2 0x8C3 JUMP JUMPDEST PUSH2 0x13EF JUMPI PUSH1 0x40 MLOAD PUSH32 0x8C379A000000000000000000000000000000000000000000000000000000000 DUP2 MSTORE PUSH1 0x4 ADD PUSH2 0x13E6 SWAP1 PUSH2 0x277C JUMP JUMPDEST PUSH1 0x40 MLOAD DUP1 SWAP2 SUB SWAP1 REVERT JUMPDEST PUSH1 0x0 PUSH1 0x2 PUSH1 0x0 PUSH2 0x100 EXP DUP2 SLOAD DUP2 PUSH1 0xFF MUL NOT AND SWAP1 DUP4 ISZERO ISZERO MUL OR SWAP1 SSTORE POP PUSH32 0x5DB9EE0A495BF2E6FF9C91A7834C1BA4FDD244A5E8AA4E537BD38AEAE4B073AA PUSH2 0x1433 PUSH2 0xE23 JUMP JUMPDEST PUSH1 0x40 MLOAD PUSH2 0x1440 SWAP2 SWAP1 PUSH2 0x1FF5 JUMP JUMPDEST PUSH1 0x40 MLOAD DUP1 SWAP2 SUB SWAP1 LOG1 JUMP JUMPDEST PUSH1 0x0 PUSH2 0x1458 DUP3 PUSH1 0x0 ADD PUSH2 0x1744 JUMP JUMPDEST SWAP1 POP SWAP2 SWAP1 POP JUMP JUMPDEST PUSH2 0x1468 DUP3 PUSH2 0x704 JUMP JUMPDEST PUSH2 0x1479 DUP2 PUSH2 0x1474 PUSH2 0xE23 JUMP JUMPDEST PUSH2 0x167C JUMP JUMPDEST PUSH2 0x1483 DUP4 DUP4 PUSH2 0x1755 JUMP JUMPDEST POP POP POP JUMP JUMPDEST PUSH1 0x0 PUSH2 0x14B0 DUP4 PUSH1 0x0 ADD DUP4 PUSH20 0xFFFFFFFFFFFFFFFFFFFFFFFFFFFFFFFFFFFFFFFF AND PUSH1 0x0 SHL PUSH2 0x1836 JUMP JUMPDEST SWAP1 POP SWAP3 SWAP2 POP POP JUMP JUMPDEST PUSH2 0x14C2 DUP3 DUP3 PUSH2 0x952 JUMP JUMPDEST PUSH2 0x1594 JUMPI PUSH1 0x1 PUSH1 0x0 DUP1 DUP5 DUP2 MSTORE PUSH1 0x20 ADD SWAP1 DUP2 MSTORE PUSH1 0x20 ADD PUSH1 0x0 KECCAK256 PUSH1 0x0 ADD PUSH1 0x0 DUP4 PUSH20 0xFFFFFFFFFFFFFFFFFFFFFFFFFFFFFFFFFFFFFFFF AND PUSH20 0xFFFFFFFFFFFFFFFFFFFFFFFFFFFFFFFFFFFFFFFF AND DUP2 MSTORE PUSH1 0x20 ADD SWAP1 DUP2 MSTORE PUSH1 0x20 ADD PUSH1 0x0 KECCAK256 PUSH1 0x0 PUSH2 0x100 EXP DUP2 SLOAD DUP2 PUSH1 0xFF MUL NOT AND SWAP1 DUP4 ISZERO ISZERO MUL OR SWAP1 SSTORE POP PUSH2 0x1539 PUSH2 0xE23 JUMP JUMPDEST PUSH20 0xFFFFFFFFFFFFFFFFFFFFFFFFFFFFFFFFFFFFFFFF AND DUP2 PUSH20 0xFFFFFFFFFFFFFFFFFFFFFFFFFFFFFFFFFFFFFFFF AND DUP4 PUSH32 0x2F8788117E7EFF1D82E926EC794901D17C78024A50270940304540A733656F0D PUSH1 0x40 MLOAD PUSH1 0x40 MLOAD DUP1 SWAP2 SUB SWAP1 LOG4 JUMPDEST POP POP JUMP JUMPDEST PUSH1 0x0 PUSH2 0x15A4 DUP4 DUP4 PUSH2 0x194A JUMP JUMPDEST PUSH2 0x15FD JUMPI DUP3 PUSH1 0x0 ADD DUP3 SWAP1 DUP1 PUSH1 0x1 DUP2 SLOAD ADD DUP1 DUP3 SSTORE DUP1 SWAP2 POP POP PUSH1 0x1 SWAP1 SUB SWAP1 PUSH1 0x0 MSTORE PUSH1 0x20 PUSH1 0x0 KECCAK256 ADD PUSH1 0x0 SWAP1 SWAP2 SWAP1 SWAP2 SWAP1 SWAP2 POP SSTORE DUP3 PUSH1 0x0 ADD DUP1 SLOAD SWAP1 POP DUP4 PUSH1 0x1 ADD PUSH1 0x0 DUP5 DUP2 MSTORE PUSH1 0x20 ADD SWAP1 DUP2 MSTORE PUSH1 0x20 ADD PUSH1 0x0 KECCAK256 DUP2 SWAP1 SSTORE POP PUSH1 0x1 SWAP1 POP PUSH2 0x1602 JUMP JUMPDEST PUSH1 0x0 SWAP1 POP JUMPDEST SWAP3 SWAP2 POP POP JUMP JUMPDEST PUSH1 0x0 PUSH32 0x1FFC9A700000000000000000000000000000000000000000000000000000000 PUSH28 0xFFFFFFFFFFFFFFFFFFFFFFFFFFFFFFFFFFFFFFFFFFFFFFFFFFFFFFFF NOT AND DUP3 PUSH28 0xFFFFFFFFFFFFFFFFFFFFFFFFFFFFFFFFFFFFFFFFFFFFFFFFFFFFFFFF NOT AND EQ SWAP1 POP SWAP2 SWAP1 POP JUMP JUMPDEST POP POP POP JUMP JUMPDEST POP POP POP JUMP JUMPDEST PUSH2 0x1686 DUP3 DUP3 PUSH2 0x952 JUMP JUMPDEST PUSH2 0x1715 JUMPI PUSH2 0x16AB DUP2 PUSH20 0xFFFFFFFFFFFFFFFFFFFFFFFFFFFFFFFFFFFFFFFF AND PUSH1 0x14 PUSH2 0x196D JUMP JUMPDEST PUSH2 0x16B9 DUP4 PUSH1 0x0 SHR PUSH1 0x20 PUSH2 0x196D JUMP JUMPDEST PUSH1 0x40 MLOAD PUSH1 0x20 ADD PUSH2 0x16CA SWAP3 SWAP2 SWAP1 PUSH2 0x2870 JUMP JUMPDEST PUSH1 0x40 MLOAD PUSH1 0x20 DUP2 DUP4 SUB SUB DUP2 MSTORE SWAP1 PUSH1 0x40 MSTORE PUSH1 0x40 MLOAD PUSH32 0x8C379A000000000000000000000000000000000000000000000000000000000 DUP2 MSTORE PUSH1 0x4 ADD PUSH2 0x170C SWAP2 SWAP1 PUSH2 0x1D02 JUMP JUMPDEST PUSH1 0x40 MLOAD DUP1 SWAP2 SUB SWAP1 REVERT JUMPDEST POP POP JUMP JUMPDEST PUSH1 0x0 DUP3 PUSH1 0x0 ADD DUP3 DUP2 SLOAD DUP2 LT PUSH2 0x1731 JUMPI PUSH2 0x1730 PUSH2 0x28AA JUMP JUMPDEST JUMPDEST SWAP1 PUSH1 0x0 MSTORE PUSH1 0x20 PUSH1 0x0 KECCAK256 ADD SLOAD SWAP1 POP SWAP3 SWAP2 POP POP JUMP JUMPDEST PUSH1 0x0 DUP2 PUSH1 0x0 ADD DUP1 SLOAD SWAP1 POP SWAP1 POP SWAP2 SWAP1 POP JUMP JUMPDEST PUSH2 0x175F DUP3 DUP3 PUSH2 0x952 JUMP JUMPDEST ISZERO PUSH2 0x1832 JUMPI PUSH1 0x0 DUP1 PUSH1 0x0 DUP5 DUP2 MSTORE PUSH1 0x20 ADD SWAP1 DUP2 MSTORE PUSH1 0x20 ADD PUSH1 0x0 KECCAK256 PUSH1 0x0 ADD PUSH1 0x0 DUP4 PUSH20 0xFFFFFFFFFFFFFFFFFFFFFFFFFFFFFFFFFFFFFFFF AND PUSH20 0xFFFFFFFFFFFFFFFFFFFFFFFFFFFFFFFFFFFFFFFF AND DUP2 MSTORE PUSH1 0x20 ADD SWAP1 DUP2 MSTORE PUSH1 0x20 ADD PUSH1 0x0 KECCAK256 PUSH1 0x0 PUSH2 0x100 EXP DUP2 SLOAD DUP2 PUSH1 0xFF MUL NOT AND SWAP1 DUP4 ISZERO ISZERO MUL OR SWAP1 SSTORE POP PUSH2 0x17D7 PUSH2 0xE23 JUMP JUMPDEST PUSH20 0xFFFFFFFFFFFFFFFFFFFFFFFFFFFFFFFFFFFFFFFF AND DUP2 PUSH20 0xFFFFFFFFFFFFFFFFFFFFFFFFFFFFFFFFFFFFFFFF AND DUP4 PUSH32 0xF6391F5C32D9C69D2A47EA670B442974B53935D1EDC7FD64EB21E047A839171B PUSH1 0x40 MLOAD PUSH1 0x40 MLOAD DUP1 SWAP2 SUB SWAP1 LOG4 JUMPDEST POP POP JUMP JUMPDEST PUSH1 0x0 DUP1 DUP4 PUSH1 0x1 ADD PUSH1 0x0 DUP5 DUP2 MSTORE PUSH1 0x20 ADD SWAP1 DUP2 MSTORE PUSH1 0x20 ADD PUSH1 0x0 KECCAK256 SLOAD SWAP1 POP PUSH1 0x0 DUP2 EQ PUSH2 0x193E JUMPI PUSH1 0x0 PUSH1 0x1 DUP3 PUSH2 0x1868 SWAP2 SWAP1 PUSH2 0x28D9 JUMP JUMPDEST SWAP1 POP PUSH1 0x0 PUSH1 0x1 DUP7 PUSH1 0x0 ADD DUP1 SLOAD SWAP1 POP PUSH2 0x1880 SWAP2 SWAP1 PUSH2 0x28D9 JUMP JUMPDEST SWAP1 POP DUP2 DUP2 EQ PUSH2 0x18EF JUMPI PUSH1 0x0 DUP7 PUSH1 0x0 ADD DUP3 DUP2 SLOAD DUP2 LT PUSH2 0x18A1 JUMPI PUSH2 0x18A0 PUSH2 0x28AA JUMP JUMPDEST JUMPDEST SWAP1 PUSH1 0x0 MSTORE PUSH1 0x20 PUSH1 0x0 KECCAK256 ADD SLOAD SWAP1 POP DUP1 DUP8 PUSH1 0x0 ADD DUP5 DUP2 SLOAD DUP2 LT PUSH2 0x18C5 JUMPI PUSH2 0x18C4 PUSH2 0x28AA JUMP JUMPDEST JUMPDEST SWAP1 PUSH1 0x0 MSTORE PUSH1 0x20 PUSH1 0x0 KECCAK256 ADD DUP2 SWAP1 SSTORE POP DUP4 DUP8 PUSH1 0x1 ADD PUSH1 0x0 DUP4 DUP2 MSTORE PUSH1 0x20 ADD SWAP1 DUP2 MSTORE PUSH1 0x20 ADD PUSH1 0x0 KECCAK256 DUP2 SWAP1 SSTORE POP POP JUMPDEST DUP6 PUSH1 0x0 ADD DUP1 SLOAD DUP1 PUSH2 0x1903 JUMPI PUSH2 0x1902 PUSH2 0x290D JUMP JUMPDEST JUMPDEST PUSH1 0x1 SWAP1 SUB DUP2 DUP2 SWAP1 PUSH1 0x0 MSTORE PUSH1 0x20 PUSH1 0x0 KECCAK256 ADD PUSH1 0x0 SWAP1 SSTORE SWAP1 SSTORE DUP6 PUSH1 0x1 ADD PUSH1 0x0 DUP7 DUP2 MSTORE PUSH1 0x20 ADD SWAP1 DUP2 MSTORE PUSH1 0x20 ADD PUSH1 0x0 KECCAK256 PUSH1 0x0 SWAP1 SSTORE PUSH1 0x1 SWAP4 POP POP POP POP PUSH2 0x1944 JUMP JUMPDEST PUSH1 0x0 SWAP2 POP POP JUMPDEST SWAP3 SWAP2 POP POP JUMP JUMPDEST PUSH1 0x0 DUP1 DUP4 PUSH1 0x1 ADD PUSH1 0x0 DUP5 DUP2 MSTORE PUSH1 0x20 ADD SWAP1 DUP2 MSTORE PUSH1 0x20 ADD PUSH1 0x0 KECCAK256 SLOAD EQ ISZERO SWAP1 POP SWAP3 SWAP2 POP POP JUMP JUMPDEST PUSH1 0x60 PUSH1 0x0 PUSH1 0x2 DUP4 PUSH1 0x2 PUSH2 0x1980 SWAP2 SWAP1 PUSH2 0x293C JUMP JUMPDEST PUSH2 0x198A SWAP2 SWAP1 PUSH2 0x21DE JUMP JUMPDEST PUSH8 0xFFFFFFFFFFFFFFFF DUP2 GT ISZERO PUSH2 0x19A3 JUMPI PUSH2 0x19A2 PUSH2 0x2996 JUMP JUMPDEST JUMPDEST PUSH1 0x40 MLOAD SWAP1 DUP1 DUP3 MSTORE DUP1 PUSH1 0x1F ADD PUSH1 0x1F NOT AND PUSH1 0x20 ADD DUP3 ADD PUSH1 0x40 MSTORE DUP1 ISZERO PUSH2 0x19D5 JUMPI DUP2 PUSH1 0x20 ADD PUSH1 0x1 DUP3 MUL DUP1 CALLDATASIZE DUP4 CALLDATACOPY DUP1 DUP3 ADD SWAP2 POP POP SWAP1 POP JUMPDEST POP SWAP1 POP PUSH32 0x3000000000000000000000000000000000000000000000000000000000000000 DUP2 PUSH1 0x0 DUP2 MLOAD DUP2 LT PUSH2 0x1A0D JUMPI PUSH2 0x1A0C PUSH2 0x28AA JUMP JUMPDEST JUMPDEST PUSH1 0x20 ADD ADD SWAP1 PUSH31 0xFFFFFFFFFFFFFFFFFFFFFFFFFFFFFFFFFFFFFFFFFFFFFFFFFFFFFFFFFFFFFF NOT AND SWAP1 DUP2 PUSH1 0x0 BYTE SWAP1 MSTORE8 POP PUSH32 0x7800000000000000000000000000000000000000000000000000000000000000 DUP2 PUSH1 0x1 DUP2 MLOAD DUP2 LT PUSH2 0x1A71 JUMPI PUSH2 0x1A70 PUSH2 0x28AA JUMP JUMPDEST JUMPDEST PUSH1 0x20 ADD ADD SWAP1 PUSH31 0xFFFFFFFFFFFFFFFFFFFFFFFFFFFFFFFFFFFFFFFFFFFFFFFFFFFFFFFFFFFFFF NOT AND SWAP1 DUP2 PUSH1 0x0 BYTE SWAP1 MSTORE8 POP PUSH1 0x0 PUSH1 0x1 DUP5 PUSH1 0x2 PUSH2 0x1AB1 SWAP2 SWAP1 PUSH2 0x293C JUMP JUMPDEST PUSH2 0x1ABB SWAP2 SWAP1 PUSH2 0x21DE JUMP JUMPDEST SWAP1 POP JUMPDEST PUSH1 0x1 DUP2 GT ISZERO PUSH2 0x1B5B JUMPI PUSH32 0x3031323334353637383961626364656600000000000000000000000000000000 PUSH1 0xF DUP7 AND PUSH1 0x10 DUP2 LT PUSH2 0x1AFD JUMPI PUSH2 0x1AFC PUSH2 0x28AA JUMP JUMPDEST JUMPDEST BYTE PUSH1 0xF8 SHL DUP3 DUP3 DUP2 MLOAD DUP2 LT PUSH2 0x1B14 JUMPI PUSH2 0x1B13 PUSH2 0x28AA JUMP JUMPDEST JUMPDEST PUSH1 0x20 ADD ADD SWAP1 PUSH31 0xFFFFFFFFFFFFFFFFFFFFFFFFFFFFFFFFFFFFFFFFFFFFFFFFFFFFFFFFFFFFFF NOT AND SWAP1 DUP2 PUSH1 0x0 BYTE SWAP1 MSTORE8 POP PUSH1 0x4 DUP6 SWAP1 SHR SWAP5 POP DUP1 PUSH2 0x1B54 SWAP1 PUSH2 0x29C5 JUMP JUMPDEST SWAP1 POP PUSH2 0x1ABE JUMP JUMPDEST POP PUSH1 0x0 DUP5 EQ PUSH2 0x1B9F JUMPI PUSH1 0x40 MLOAD PUSH32 0x8C379A000000000000000000000000000000000000000000000000000000000 DUP2 MSTORE PUSH1 0x4 ADD PUSH2 0x1B96 SWAP1 PUSH2 0x2A3B JUMP JUMPDEST PUSH1 0x40 MLOAD DUP1 SWAP2 SUB SWAP1 REVERT JUMPDEST DUP1 SWAP2 POP POP SWAP3 SWAP2 POP POP JUMP JUMPDEST PUSH1 0x0 DUP1 REVERT JUMPDEST PUSH1 0x0 PUSH32 0xFFFFFFFF00000000000000000000000000000000000000000000000000000000 DUP3 AND SWAP1 POP SWAP2 SWAP1 POP JUMP JUMPDEST PUSH2 0x1BE3 DUP2 PUSH2 0x1BAE JUMP JUMPDEST DUP2 EQ PUSH2 0x1BEE JUMPI PUSH1 0x0 DUP1 REVERT JUMPDEST POP JUMP JUMPDEST PUSH1 0x0 DUP2 CALLDATALOAD SWAP1 POP PUSH2 0x1C00 DUP2 PUSH2 0x1BDA JUMP JUMPDEST SWAP3 SWAP2 POP POP JUMP JUMPDEST PUSH1 0x0 PUSH1 0x20 DUP3 DUP5 SUB SLT ISZERO PUSH2 0x1C1C JUMPI PUSH2 0x1C1B PUSH2 0x1BA9 JUMP JUMPDEST JUMPDEST PUSH1 0x0 PUSH2 0x1C2A DUP5 DUP3 DUP6 ADD PUSH2 0x1BF1 JUMP JUMPDEST SWAP2 POP POP SWAP3 SWAP2 POP POP JUMP JUMPDEST PUSH1 0x0 DUP2 ISZERO ISZERO SWAP1 POP SWAP2 SWAP1 POP JUMP JUMPDEST PUSH2 0x1C48 DUP2 PUSH2 0x1C33 JUMP JUMPDEST DUP3 MSTORE POP POP JUMP JUMPDEST PUSH1 0x0 PUSH1 0x20 DUP3 ADD SWAP1 POP PUSH2 0x1C63 PUSH1 0x0 DUP4 ADD DUP5 PUSH2 0x1C3F JUMP JUMPDEST SWAP3 SWAP2 POP POP JUMP JUMPDEST PUSH1 0x0 DUP2 MLOAD SWAP1 POP SWAP2 SWAP1 POP JUMP JUMPDEST PUSH1 0x0 DUP3 DUP3 MSTORE PUSH1 0x20 DUP3 ADD SWAP1 POP SWAP3 SWAP2 POP POP JUMP JUMPDEST PUSH1 0x0 JUMPDEST DUP4 DUP2 LT ISZERO PUSH2 0x1CA3 JUMPI DUP1 DUP3 ADD MLOAD DUP2 DUP5 ADD MSTORE PUSH1 0x20 DUP2 ADD SWAP1 POP PUSH2 0x1C88 JUMP JUMPDEST DUP4 DUP2 GT ISZERO PUSH2 0x1CB2 JUMPI PUSH1 0x0 DUP5 DUP5 ADD MSTORE JUMPDEST POP POP POP POP JUMP JUMPDEST PUSH1 0x0 PUSH1 0x1F NOT PUSH1 0x1F DUP4 ADD AND SWAP1 POP SWAP2 SWAP1 POP JUMP JUMPDEST PUSH1 0x0 PUSH2 0x1CD4 DUP3 PUSH2 0x1C69 JUMP JUMPDEST PUSH2 0x1CDE DUP2 DUP6 PUSH2 0x1C74 JUMP JUMPDEST SWAP4 POP PUSH2 0x1CEE DUP2 DUP6 PUSH1 0x20 DUP7 ADD PUSH2 0x1C85 JUMP JUMPDEST PUSH2 0x1CF7 DUP2 PUSH2 0x1CB8 JUMP JUMPDEST DUP5 ADD SWAP2 POP POP SWAP3 SWAP2 POP POP JUMP JUMPDEST PUSH1 0x0 PUSH1 0x20 DUP3 ADD SWAP1 POP DUP2 DUP2 SUB PUSH1 0x0 DUP4 ADD MSTORE PUSH2 0x1D1C DUP2 DUP5 PUSH2 0x1CC9 JUMP JUMPDEST SWAP1 POP SWAP3 SWAP2 POP POP JUMP JUMPDEST PUSH1 0x0 PUSH20 0xFFFFFFFFFFFFFFFFFFFFFFFFFFFFFFFFFFFFFFFF DUP3 AND SWAP1 POP SWAP2 SWAP1 POP JUMP JUMPDEST PUSH1 0x0 PUSH2 0x1D4F DUP3 PUSH2 0x1D24 JUMP JUMPDEST SWAP1 POP SWAP2 SWAP1 POP JUMP JUMPDEST PUSH2 0x1D5F DUP2 PUSH2 0x1D44 JUMP JUMPDEST DUP2 EQ PUSH2 0x1D6A JUMPI PUSH1 0x0 DUP1 REVERT JUMPDEST POP JUMP JUMPDEST PUSH1 0x0 DUP2 CALLDATALOAD SWAP1 POP PUSH2 0x1D7C DUP2 PUSH2 0x1D56 JUMP JUMPDEST SWAP3 SWAP2 POP POP JUMP JUMPDEST PUSH1 0x0 DUP2 SWAP1 POP SWAP2 SWAP1 POP JUMP JUMPDEST PUSH2 0x1D95 DUP2 PUSH2 0x1D82 JUMP JUMPDEST DUP2 EQ PUSH2 0x1DA0 JUMPI PUSH1 0x0 DUP1 REVERT JUMPDEST POP JUMP JUMPDEST PUSH1 0x0 DUP2 CALLDATALOAD SWAP1 POP PUSH2 0x1DB2 DUP2 PUSH2 0x1D8C JUMP JUMPDEST SWAP3 SWAP2 POP POP JUMP JUMPDEST PUSH1 0x0 DUP1 PUSH1 0x40 DUP4 DUP6 SUB SLT ISZERO PUSH2 0x1DCF JUMPI PUSH2 0x1DCE PUSH2 0x1BA9 JUMP JUMPDEST JUMPDEST PUSH1 0x0 PUSH2 0x1DDD DUP6 DUP3 DUP7 ADD PUSH2 0x1D6D JUMP JUMPDEST SWAP3 POP POP PUSH1 0x20 PUSH2 0x1DEE DUP6 DUP3 DUP7 ADD PUSH2 0x1DA3 JUMP JUMPDEST SWAP2 POP POP SWAP3 POP SWAP3 SWAP1 POP JUMP JUMPDEST PUSH2 0x1E01 DUP2 PUSH2 0x1D82 JUMP JUMPDEST DUP3 MSTORE POP POP JUMP JUMPDEST PUSH1 0x0 PUSH1 0x20 DUP3 ADD SWAP1 POP PUSH2 0x1E1C PUSH1 0x0 DUP4 ADD DUP5 PUSH2 0x1DF8 JUMP JUMPDEST SWAP3 SWAP2 POP POP JUMP JUMPDEST PUSH1 0x0 DUP1 PUSH1 0x0 PUSH1 0x60 DUP5 DUP7 SUB SLT ISZERO PUSH2 0x1E3B JUMPI PUSH2 0x1E3A PUSH2 0x1BA9 JUMP JUMPDEST JUMPDEST PUSH1 0x0 PUSH2 0x1E49 DUP7 DUP3 DUP8 ADD PUSH2 0x1D6D JUMP JUMPDEST SWAP4 POP POP PUSH1 0x20 PUSH2 0x1E5A DUP7 DUP3 DUP8 ADD PUSH2 0x1D6D JUMP JUMPDEST SWAP3 POP POP PUSH1 0x40 PUSH2 0x1E6B DUP7 DUP3 DUP8 ADD PUSH2 0x1DA3 JUMP JUMPDEST SWAP2 POP POP SWAP3 POP SWAP3 POP SWAP3 JUMP JUMPDEST PUSH1 0x0 DUP2 SWAP1 POP SWAP2 SWAP1 POP JUMP JUMPDEST PUSH2 0x1E88 DUP2 PUSH2 0x1E75 JUMP JUMPDEST DUP2 EQ PUSH2 0x1E93 JUMPI PUSH1 0x0 DUP1 REVERT JUMPDEST POP JUMP JUMPDEST PUSH1 0x0 DUP2 CALLDATALOAD SWAP1 POP PUSH2 0x1EA5 DUP2 PUSH2 0x1E7F JUMP JUMPDEST SWAP3 SWAP2 POP POP JUMP JUMPDEST PUSH1 0x0 PUSH1 0x20 DUP3 DUP5 SUB SLT ISZERO PUSH2 0x1EC1 JUMPI PUSH2 0x1EC0 PUSH2 0x1BA9 JUMP JUMPDEST JUMPDEST PUSH1 0x0 PUSH2 0x1ECF DUP5 DUP3 DUP6 ADD PUSH2 0x1E96 JUMP JUMPDEST SWAP2 POP POP SWAP3 SWAP2 POP POP JUMP JUMPDEST PUSH2 0x1EE1 DUP2 PUSH2 0x1E75 JUMP JUMPDEST DUP3 MSTORE POP POP JUMP JUMPDEST PUSH1 0x0 PUSH1 0x20 DUP3 ADD SWAP1 POP PUSH2 0x1EFC PUSH1 0x0 DUP4 ADD DUP5 PUSH2 0x1ED8 JUMP JUMPDEST SWAP3 SWAP2 POP POP JUMP JUMPDEST PUSH1 0x0 DUP1 PUSH1 0x40 DUP4 DUP6 SUB SLT ISZERO PUSH2 0x1F19 JUMPI PUSH2 0x1F18 PUSH2 0x1BA9 JUMP JUMPDEST JUMPDEST PUSH1 0x0 PUSH2 0x1F27 DUP6 DUP3 DUP7 ADD PUSH2 0x1E96 JUMP JUMPDEST SWAP3 POP POP PUSH1 0x20 PUSH2 0x1F38 DUP6 DUP3 DUP7 ADD PUSH2 0x1D6D JUMP JUMPDEST SWAP2 POP POP SWAP3 POP SWAP3 SWAP1 POP JUMP JUMPDEST PUSH1 0x0 PUSH1 0xFF DUP3 AND SWAP1 POP SWAP2 SWAP1 POP JUMP JUMPDEST PUSH2 0x1F58 DUP2 PUSH2 0x1F42 JUMP JUMPDEST DUP3 MSTORE POP POP JUMP JUMPDEST PUSH1 0x0 PUSH1 0x20 DUP3 ADD SWAP1 POP PUSH2 0x1F73 PUSH1 0x0 DUP4 ADD DUP5 PUSH2 0x1F4F JUMP JUMPDEST SWAP3 SWAP2 POP POP JUMP JUMPDEST PUSH1 0x0 PUSH1 0x20 DUP3 DUP5 SUB SLT ISZERO PUSH2 0x1F8F JUMPI PUSH2 0x1F8E PUSH2 0x1BA9 JUMP JUMPDEST JUMPDEST PUSH1 0x0 PUSH2 0x1F9D DUP5 DUP3 DUP6 ADD PUSH2 0x1D6D JUMP JUMPDEST SWAP2 POP POP SWAP3 SWAP2 POP POP JUMP JUMPDEST PUSH1 0x0 DUP1 PUSH1 0x40 DUP4 DUP6 SUB SLT ISZERO PUSH2 0x1FBD JUMPI PUSH2 0x1FBC PUSH2 0x1BA9 JUMP JUMPDEST JUMPDEST PUSH1 0x0 PUSH2 0x1FCB DUP6 DUP3 DUP7 ADD PUSH2 0x1E96 JUMP JUMPDEST SWAP3 POP POP PUSH1 0x20 PUSH2 0x1FDC DUP6 DUP3 DUP7 ADD PUSH2 0x1DA3 JUMP JUMPDEST SWAP2 POP POP SWAP3 POP SWAP3 SWAP1 POP JUMP JUMPDEST PUSH2 0x1FEF DUP2 PUSH2 0x1D44 JUMP JUMPDEST DUP3 MSTORE POP POP JUMP JUMPDEST PUSH1 0x0 PUSH1 0x20 DUP3 ADD SWAP1 POP PUSH2 0x200A PUSH1 0x0 DUP4 ADD DUP5 PUSH2 0x1FE6 JUMP JUMPDEST SWAP3 SWAP2 POP POP JUMP JUMPDEST PUSH1 0x0 DUP1 PUSH1 0x40 DUP4 DUP6 SUB SLT ISZERO PUSH2 0x2027 JUMPI PUSH2 0x2026 PUSH2 0x1BA9 JUMP JUMPDEST JUMPDEST PUSH1 0x0 PUSH2 0x2035 DUP6 DUP3 DUP7 ADD PUSH2 0x1D6D JUMP JUMPDEST SWAP3 POP POP PUSH1 0x20 PUSH2 0x2046 DUP6 DUP3 DUP7 ADD PUSH2 0x1D6D JUMP JUMPDEST SWAP2 POP POP SWAP3 POP SWAP3 SWAP1 POP JUMP JUMPDEST PUSH32 0x4E487B7100000000000000000000000000000000000000000000000000000000 PUSH1 0x0 MSTORE PUSH1 0x22 PUSH1 0x4 MSTORE PUSH1 0x24 PUSH1 0x0 REVERT JUMPDEST PUSH1 0x0 PUSH1 0x2 DUP3 DIV SWAP1 POP PUSH1 0x1 DUP3 AND DUP1 PUSH2 0x2097 JUMPI PUSH1 0x7F DUP3 AND SWAP2 POP JUMPDEST PUSH1 0x20 DUP3 LT DUP2 EQ ISZERO PUSH2 0x20AB JUMPI PUSH2 0x20AA PUSH2 0x2050 JUMP JUMPDEST JUMPDEST POP SWAP2 SWAP1 POP JUMP JUMPDEST PUSH32 0x45524332303A207472616E7366657220616D6F756E7420657863656564732061 PUSH1 0x0 DUP3 ADD MSTORE PUSH32 0x6C6C6F77616E6365000000000000000000000000000000000000000000000000 PUSH1 0x20 DUP3 ADD MSTORE POP JUMP JUMPDEST PUSH1 0x0 PUSH2 0x210D PUSH1 0x28 DUP4 PUSH2 0x1C74 JUMP JUMPDEST SWAP2 POP PUSH2 0x2118 DUP3 PUSH2 0x20B1 JUMP JUMPDEST PUSH1 0x40 DUP3 ADD SWAP1 POP SWAP2 SWAP1 POP JUMP JUMPDEST PUSH1 0x0 PUSH1 0x20 DUP3 ADD SWAP1 POP DUP2 DUP2 SUB PUSH1 0x0 DUP4 ADD MSTORE PUSH2 0x213C DUP2 PUSH2 0x2100 JUMP JUMPDEST SWAP1 POP SWAP2 SWAP1 POP JUMP JUMPDEST PUSH32 0x45524332303A206D75737420686176652061646D696E20726F6C650000000000 PUSH1 0x0 DUP3 ADD MSTORE POP JUMP JUMPDEST PUSH1 0x0 PUSH2 0x2179 PUSH1 0x1B DUP4 PUSH2 0x1C74 JUMP JUMPDEST SWAP2 POP PUSH2 0x2184 DUP3 PUSH2 0x2143 JUMP JUMPDEST PUSH1 0x20 DUP3 ADD SWAP1 POP SWAP2 SWAP1 POP JUMP JUMPDEST PUSH1 0x0 PUSH1 0x20 DUP3 ADD SWAP1 POP DUP2 DUP2 SUB PUSH1 0x0 DUP4 ADD MSTORE PUSH2 0x21A8 DUP2 PUSH2 0x216C JUMP JUMPDEST SWAP1 POP SWAP2 SWAP1 POP JUMP JUMPDEST PUSH32 0x4E487B7100000000000000000000000000000000000000000000000000000000 PUSH1 0x0 MSTORE PUSH1 0x11 PUSH1 0x4 MSTORE PUSH1 0x24 PUSH1 0x0 REVERT JUMPDEST PUSH1 0x0 PUSH2 0x21E9 DUP3 PUSH2 0x1D82 JUMP JUMPDEST SWAP2 POP PUSH2 0x21F4 DUP4 PUSH2 0x1D82 JUMP JUMPDEST SWAP3 POP DUP3 PUSH32 0xFFFFFFFFFFFFFFFFFFFFFFFFFFFFFFFFFFFFFFFFFFFFFFFFFFFFFFFFFFFFFFFF SUB DUP3 GT ISZERO PUSH2 0x2229 JUMPI PUSH2 0x2228 PUSH2 0x21AF JUMP JUMPDEST JUMPDEST DUP3 DUP3 ADD SWAP1 POP SWAP3 SWAP2 POP POP JUMP JUMPDEST PUSH32 0x45524332303A2064656372656173656420616C6C6F77616E63652062656C6F77 PUSH1 0x0 DUP3 ADD MSTORE PUSH32 0x207A65726F000000000000000000000000000000000000000000000000000000 PUSH1 0x20 DUP3 ADD MSTORE POP JUMP JUMPDEST PUSH1 0x0 PUSH2 0x2290 PUSH1 0x25 DUP4 PUSH2 0x1C74 JUMP JUMPDEST SWAP2 POP PUSH2 0x229B DUP3 PUSH2 0x2234 JUMP JUMPDEST PUSH1 0x40 DUP3 ADD SWAP1 POP SWAP2 SWAP1 POP JUMP JUMPDEST PUSH1 0x0 PUSH1 0x20 DUP3 ADD SWAP1 POP DUP2 DUP2 SUB PUSH1 0x0 DUP4 ADD MSTORE PUSH2 0x22BF DUP2 PUSH2 0x2283 JUMP JUMPDEST SWAP1 POP SWAP2 SWAP1 POP JUMP JUMPDEST PUSH32 0x45524332303A2063616C6C65722063616E206E6F74207265766F6B65206F776E PUSH1 0x0 DUP3 ADD MSTORE PUSH32 0x20616464726573732E0000000000000000000000000000000000000000000000 PUSH1 0x20 DUP3 ADD MSTORE POP JUMP JUMPDEST PUSH1 0x0 PUSH2 0x2322 PUSH1 0x29 DUP4 PUSH2 0x1C74 JUMP JUMPDEST SWAP2 POP PUSH2 0x232D DUP3 PUSH2 0x22C6 JUMP JUMPDEST PUSH1 0x40 DUP3 ADD SWAP1 POP SWAP2 SWAP1 POP JUMP JUMPDEST PUSH1 0x0 PUSH1 0x20 DUP3 ADD SWAP1 POP DUP2 DUP2 SUB PUSH1 0x0 DUP4 ADD MSTORE PUSH2 0x2351 DUP2 PUSH2 0x2315 JUMP JUMPDEST SWAP1 POP SWAP2 SWAP1 POP JUMP JUMPDEST PUSH32 0x45524332303A20617070726F76652066726F6D20746865207A65726F20616464 PUSH1 0x0 DUP3 ADD MSTORE PUSH32 0x7265737300000000000000000000000000000000000000000000000000000000 PUSH1 0x20 DUP3 ADD MSTORE POP JUMP JUMPDEST PUSH1 0x0 PUSH2 0x23B4 PUSH1 0x24 DUP4 PUSH2 0x1C74 JUMP JUMPDEST SWAP2 POP PUSH2 0x23BF DUP3 PUSH2 0x2358 JUMP JUMPDEST PUSH1 0x40 DUP3 ADD SWAP1 POP SWAP2 SWAP1 POP JUMP JUMPDEST PUSH1 0x0 PUSH1 0x20 DUP3 ADD SWAP1 POP DUP2 DUP2 SUB PUSH1 0x0 DUP4 ADD MSTORE PUSH2 0x23E3 DUP2 PUSH2 0x23A7 JUMP JUMPDEST SWAP1 POP SWAP2 SWAP1 POP JUMP JUMPDEST PUSH32 0x45524332303A20617070726F766520746F20746865207A65726F206164647265 PUSH1 0x0 DUP3 ADD MSTORE PUSH32 0x7373000000000000000000000000000000000000000000000000000000000000 PUSH1 0x20 DUP3 ADD MSTORE POP JUMP JUMPDEST PUSH1 0x0 PUSH2 0x2446 PUSH1 0x22 DUP4 PUSH2 0x1C74 JUMP JUMPDEST SWAP2 POP PUSH2 0x2451 DUP3 PUSH2 0x23EA JUMP JUMPDEST PUSH1 0x40 DUP3 ADD SWAP1 POP SWAP2 SWAP1 POP JUMP JUMPDEST PUSH1 0x0 PUSH1 0x20 DUP3 ADD SWAP1 POP DUP2 DUP2 SUB PUSH1 0x0 DUP4 ADD MSTORE PUSH2 0x2475 DUP2 PUSH2 0x2439 JUMP JUMPDEST SWAP1 POP SWAP2 SWAP1 POP JUMP JUMPDEST PUSH32 0x45524332303A207472616E736665722066756E6374696F6E2069732070617573 PUSH1 0x0 DUP3 ADD MSTORE PUSH32 0x65642062792061646D696E2E0000000000000000000000000000000000000000 PUSH1 0x20 DUP3 ADD MSTORE POP JUMP JUMPDEST PUSH1 0x0 PUSH2 0x24D8 PUSH1 0x2C DUP4 PUSH2 0x1C74 JUMP JUMPDEST SWAP2 POP PUSH2 0x24E3 DUP3 PUSH2 0x247C JUMP JUMPDEST PUSH1 0x40 DUP3 ADD SWAP1 POP SWAP2 SWAP1 POP JUMP JUMPDEST PUSH1 0x0 PUSH1 0x20 DUP3 ADD SWAP1 POP DUP2 DUP2 SUB PUSH1 0x0 DUP4 ADD MSTORE PUSH2 0x2507 DUP2 PUSH2 0x24CB JUMP JUMPDEST SWAP1 POP SWAP2 SWAP1 POP JUMP JUMPDEST PUSH32 0x45524332303A207472616E736665722066726F6D20746865207A65726F206164 PUSH1 0x0 DUP3 ADD MSTORE PUSH32 0x6472657373000000000000000000000000000000000000000000000000000000 PUSH1 0x20 DUP3 ADD MSTORE POP JUMP JUMPDEST PUSH1 0x0 PUSH2 0x256A PUSH1 0x25 DUP4 PUSH2 0x1C74 JUMP JUMPDEST SWAP2 POP PUSH2 0x2575 DUP3 PUSH2 0x250E JUMP JUMPDEST PUSH1 0x40 DUP3 ADD SWAP1 POP SWAP2 SWAP1 POP JUMP JUMPDEST PUSH1 0x0 PUSH1 0x20 DUP3 ADD SWAP1 POP DUP2 DUP2 SUB PUSH1 0x0 DUP4 ADD MSTORE PUSH2 0x2599 DUP2 PUSH2 0x255D JUMP JUMPDEST SWAP1 POP SWAP2 SWAP1 POP JUMP JUMPDEST PUSH32 0x45524332303A207472616E7366657220746F20746865207A65726F2061646472 PUSH1 0x0 DUP3 ADD MSTORE PUSH32 0x6573730000000000000000000000000000000000000000000000000000000000 PUSH1 0x20 DUP3 ADD MSTORE POP JUMP JUMPDEST PUSH1 0x0 PUSH2 0x25FC PUSH1 0x23 DUP4 PUSH2 0x1C74 JUMP JUMPDEST SWAP2 POP PUSH2 0x2607 DUP3 PUSH2 0x25A0 JUMP JUMPDEST PUSH1 0x40 DUP3 ADD SWAP1 POP SWAP2 SWAP1 POP JUMP JUMPDEST PUSH1 0x0 PUSH1 0x20 DUP3 ADD SWAP1 POP DUP2 DUP2 SUB PUSH1 0x0 DUP4 ADD MSTORE PUSH2 0x262B DUP2 PUSH2 0x25EF JUMP JUMPDEST SWAP1 POP SWAP2 SWAP1 POP JUMP JUMPDEST PUSH32 0x45524332303A207472616E7366657220616D6F756E7420657863656564732062 PUSH1 0x0 DUP3 ADD MSTORE PUSH32 0x616C616E63650000000000000000000000000000000000000000000000000000 PUSH1 0x20 DUP3 ADD MSTORE POP JUMP JUMPDEST PUSH1 0x0 PUSH2 0x268E PUSH1 0x26 DUP4 PUSH2 0x1C74 JUMP JUMPDEST SWAP2 POP PUSH2 0x2699 DUP3 PUSH2 0x2632 JUMP JUMPDEST PUSH1 0x40 DUP3 ADD SWAP1 POP SWAP2 SWAP1 POP JUMP JUMPDEST PUSH1 0x0 PUSH1 0x20 DUP3 ADD SWAP1 POP DUP2 DUP2 SUB PUSH1 0x0 DUP4 ADD MSTORE PUSH2 0x26BD DUP2 PUSH2 0x2681 JUMP JUMPDEST SWAP1 POP SWAP2 SWAP1 POP JUMP JUMPDEST PUSH32 0x5061757361626C653A2070617573656400000000000000000000000000000000 PUSH1 0x0 DUP3 ADD MSTORE POP JUMP JUMPDEST PUSH1 0x0 PUSH2 0x26FA PUSH1 0x10 DUP4 PUSH2 0x1C74 JUMP JUMPDEST SWAP2 POP PUSH2 0x2705 DUP3 PUSH2 0x26C4 JUMP JUMPDEST PUSH1 0x20 DUP3 ADD SWAP1 POP SWAP2 SWAP1 POP JUMP JUMPDEST PUSH1 0x0 PUSH1 0x20 DUP3 ADD SWAP1 POP DUP2 DUP2 SUB PUSH1 0x0 DUP4 ADD MSTORE PUSH2 0x2729 DUP2 PUSH2 0x26ED JUMP JUMPDEST SWAP1 POP SWAP2 SWAP1 POP JUMP JUMPDEST PUSH32 0x5061757361626C653A206E6F7420706175736564000000000000000000000000 PUSH1 0x0 DUP3 ADD MSTORE POP JUMP JUMPDEST PUSH1 0x0 PUSH2 0x2766 PUSH1 0x14 DUP4 PUSH2 0x1C74 JUMP JUMPDEST SWAP2 POP PUSH2 0x2771 DUP3 PUSH2 0x2730 JUMP JUMPDEST PUSH1 0x20 DUP3 ADD SWAP1 POP SWAP2 SWAP1 POP JUMP JUMPDEST PUSH1 0x0 PUSH1 0x20 DUP3 ADD SWAP1 POP DUP2 DUP2 SUB PUSH1 0x0 DUP4 ADD MSTORE PUSH2 0x2795 DUP2 PUSH2 0x2759 JUMP JUMPDEST SWAP1 POP SWAP2 SWAP1 POP JUMP JUMPDEST PUSH1 0x0 DUP2 SWAP1 POP SWAP3 SWAP2 POP POP JUMP JUMPDEST PUSH32 0x416363657373436F6E74726F6C3A206163636F756E7420000000000000000000 PUSH1 0x0 DUP3 ADD MSTORE POP JUMP JUMPDEST PUSH1 0x0 PUSH2 0x27DD PUSH1 0x17 DUP4 PUSH2 0x279C JUMP JUMPDEST SWAP2 POP PUSH2 0x27E8 DUP3 PUSH2 0x27A7 JUMP JUMPDEST PUSH1 0x17 DUP3 ADD SWAP1 POP SWAP2 SWAP1 POP JUMP JUMPDEST PUSH1 0x0 PUSH2 0x27FE DUP3 PUSH2 0x1C69 JUMP JUMPDEST PUSH2 0x2808 DUP2 DUP6 PUSH2 0x279C JUMP JUMPDEST SWAP4 POP PUSH2 0x2818 DUP2 DUP6 PUSH1 0x20 DUP7 ADD PUSH2 0x1C85 JUMP JUMPDEST DUP1 DUP5 ADD SWAP2 POP POP SWAP3 SWAP2 POP POP JUMP JUMPDEST PUSH32 0x206973206D697373696E6720726F6C6520000000000000000000000000000000 PUSH1 0x0 DUP3 ADD MSTORE POP JUMP JUMPDEST PUSH1 0x0 PUSH2 0x285A PUSH1 0x11 DUP4 PUSH2 0x279C JUMP JUMPDEST SWAP2 POP PUSH2 0x2865 DUP3 PUSH2 0x2824 JUMP JUMPDEST PUSH1 0x11 DUP3 ADD SWAP1 POP SWAP2 SWAP1 POP JUMP JUMPDEST PUSH1 0x0 PUSH2 0x287B DUP3 PUSH2 0x27D0 JUMP JUMPDEST SWAP2 POP PUSH2 0x2887 DUP3 DUP6 PUSH2 0x27F3 JUMP JUMPDEST SWAP2 POP PUSH2 0x2892 DUP3 PUSH2 0x284D JUMP JUMPDEST SWAP2 POP PUSH2 0x289E DUP3 DUP5 PUSH2 0x27F3 JUMP JUMPDEST SWAP2 POP DUP2 SWAP1 POP SWAP4 SWAP3 POP POP POP JUMP JUMPDEST PUSH32 0x4E487B7100000000000000000000000000000000000000000000000000000000 PUSH1 0x0 MSTORE PUSH1 0x32 PUSH1 0x4 MSTORE PUSH1 0x24 PUSH1 0x0 REVERT JUMPDEST PUSH1 0x0 PUSH2 0x28E4 DUP3 PUSH2 0x1D82 JUMP JUMPDEST SWAP2 POP PUSH2 0x28EF DUP4 PUSH2 0x1D82 JUMP JUMPDEST SWAP3 POP DUP3 DUP3 LT ISZERO PUSH2 0x2902 JUMPI PUSH2 0x2901 PUSH2 0x21AF JUMP JUMPDEST JUMPDEST DUP3 DUP3 SUB SWAP1 POP SWAP3 SWAP2 POP POP JUMP JUMPDEST PUSH32 0x4E487B7100000000000000000000000000000000000000000000000000000000 PUSH1 0x0 MSTORE PUSH1 0x31 PUSH1 0x4 MSTORE PUSH1 0x24 PUSH1 0x0 REVERT JUMPDEST PUSH1 0x0 PUSH2 0x2947 DUP3 PUSH2 0x1D82 JUMP JUMPDEST SWAP2 POP PUSH2 0x2952 DUP4 PUSH2 0x1D82 JUMP JUMPDEST SWAP3 POP DUP2 PUSH32 0xFFFFFFFFFFFFFFFFFFFFFFFFFFFFFFFFFFFFFFFFFFFFFFFFFFFFFFFFFFFFFFFF DIV DUP4 GT DUP3 ISZERO ISZERO AND ISZERO PUSH2 0x298B JUMPI PUSH2 0x298A PUSH2 0x21AF JUMP JUMPDEST JUMPDEST DUP3 DUP3 MUL SWAP1 POP SWAP3 SWAP2 POP POP JUMP JUMPDEST PUSH32 0x4E487B7100000000000000000000000000000000000000000000000000000000 PUSH1 0x0 MSTORE PUSH1 0x41 PUSH1 0x4 MSTORE PUSH1 0x24 PUSH1 0x0 REVERT JUMPDEST PUSH1 0x0 PUSH2 0x29D0 DUP3 PUSH2 0x1D82 JUMP JUMPDEST SWAP2 POP PUSH1 0x0 DUP3 EQ ISZERO PUSH2 0x29E4 JUMPI PUSH2 0x29E3 PUSH2 0x21AF JUMP JUMPDEST JUMPDEST PUSH1 0x1 DUP3 SUB SWAP1 POP SWAP2 SWAP1 POP JUMP JUMPDEST PUSH32 0x537472696E67733A20686578206C656E67746820696E73756666696369656E74 PUSH1 0x0 DUP3 ADD MSTORE POP JUMP JUMPDEST PUSH1 0x0 PUSH2 0x2A25 PUSH1 0x20 DUP4 PUSH2 0x1C74 JUMP JUMPDEST SWAP2 POP PUSH2 0x2A30 DUP3 PUSH2 0x29EF JUMP JUMPDEST PUSH1 0x20 DUP3 ADD SWAP1 POP SWAP2 SWAP1 POP JUMP JUMPDEST PUSH1 0x0 PUSH1 0x20 DUP3 ADD SWAP1 POP DUP2 DUP2 SUB PUSH1 0x0 DUP4 ADD MSTORE PUSH2 0x2A54 DUP2 PUSH2 0x2A18 JUMP JUMPDEST SWAP1 POP SWAP2 SWAP1 POP JUMP INVALID LOG2 PUSH5 0x6970667358 0x22 SLT KECCAK256 0xB7 MUL CODECOPY 0xB5 0xAB 0xC9 0xC8 0xD7 0xB5 0xFC 0xD7 PUSH8 0xEC97CACB884A0F85 PUSH23 0xC5FC194B609591B1D11ED564736F6C634300080C003300 "
				},
				"gasEstimates": {
					"creation": {
						"codeDepositCost": "2179400",
						"executionCost": "infinite",
						"totalCost": "infinite"
					},
					"external": {
						"DEFAULT_ADMIN_ROLE()": "446",
						"MAX_TOKEN_COUNT()": "2517",
						"allowance(address,address)": "infinite",
						"approve(address,uint256)": "infinite",
						"balanceOf(address)": "2864",
						"decimals()": "410",
						"decreaseAllowance(address,uint256)": "infinite",
						"getRoleAdmin(bytes32)": "infinite",
						"getRoleMember(bytes32,uint256)": "infinite",
						"getRoleMemberCount(bytes32)": "2952",
						"grantRole(bytes32,address)": "infinite",
						"hasRole(bytes32,address)": "3207",
						"increaseAllowance(address,uint256)": "infinite",
						"name()": "infinite",
						"paused()": "2612",
						"pausedOptions()": "infinite",
						"revokeRole(bytes32,address)": "infinite",
						"supportsInterface(bytes4)": "840",
						"symbol()": "infinite",
						"totalSupply()": "2527",
						"transfer(address,address,uint256)": "infinite",
						"transferFrom(address,address,uint256)": "infinite",
						"unPausedOptions()": "infinite"
					},
					"internal": {
						"_afterTokenTransfer(address,address,uint256)": "15",
						"_approve(address,address,uint256)": "infinite",
						"_beforeTokenTransfer(address,address,uint256)": "15",
						"_burn(address,uint256)": "infinite",
						"_maxTokenCountSet(uint256)": "infinite",
						"_mint(address,uint256)": "infinite",
						"_transfer(address,address,uint256)": "infinite"
					}
				},
				"methodIdentifiers": {
					"DEFAULT_ADMIN_ROLE()": "a217fddf",
					"MAX_TOKEN_COUNT()": "d0bbb0d7",
					"allowance(address,address)": "dd62ed3e",
					"approve(address,uint256)": "095ea7b3",
					"balanceOf(address)": "70a08231",
					"decimals()": "313ce567",
					"decreaseAllowance(address,uint256)": "a457c2d7",
					"getRoleAdmin(bytes32)": "248a9ca3",
					"getRoleMember(bytes32,uint256)": "9010d07c",
					"getRoleMemberCount(bytes32)": "ca15c873",
					"grantRole(bytes32,address)": "2f2ff15d",
					"hasRole(bytes32,address)": "91d14854",
					"increaseAllowance(address,uint256)": "39509351",
					"name()": "06fdde03",
					"paused()": "5c975abb",
					"pausedOptions()": "5394a892",
					"revokeRole(bytes32,address)": "d547741f",
					"supportsInterface(bytes4)": "01ffc9a7",
					"symbol()": "95d89b41",
					"totalSupply()": "18160ddd",
					"transfer(address,address,uint256)": "beabacc8",
					"transferFrom(address,address,uint256)": "23b872dd",
					"unPausedOptions()": "c6e858fe"
				}
			},
			"storageLayout": {
				"storage": [
					{
						"astId": 770,
						"contract": "ERC20/ERC20.sol:ERC20",
						"label": "_roles",
						"offset": 0,
						"slot": "0",
						"type": "t_mapping(t_bytes32,t_struct(RoleData)765_storage)"
					},
					{
						"astId": 1050,
						"contract": "ERC20/ERC20.sol:ERC20",
						"label": "_roleMembers",
						"offset": 0,
						"slot": "1",
						"type": "t_mapping(t_bytes32,t_struct(AddressSet)1972_storage)"
					},
					{
						"astId": 1325,
						"contract": "ERC20/ERC20.sol:ERC20",
						"label": "_paused",
						"offset": 0,
						"slot": "2",
						"type": "t_bool"
					},
					{
						"astId": 21,
						"contract": "ERC20/ERC20.sol:ERC20",
						"label": "_balances",
						"offset": 0,
						"slot": "3",
						"type": "t_mapping(t_address,t_uint256)"
					},
					{
						"astId": 27,
						"contract": "ERC20/ERC20.sol:ERC20",
						"label": "_allowances",
						"offset": 0,
						"slot": "4",
						"type": "t_mapping(t_address,t_mapping(t_address,t_uint256))"
					},
					{
						"astId": 29,
						"contract": "ERC20/ERC20.sol:ERC20",
						"label": "_totalSupply",
						"offset": 0,
						"slot": "5",
						"type": "t_uint256"
					},
					{
						"astId": 31,
						"contract": "ERC20/ERC20.sol:ERC20",
						"label": "_name",
						"offset": 0,
						"slot": "6",
						"type": "t_string_storage"
					},
					{
						"astId": 33,
						"contract": "ERC20/ERC20.sol:ERC20",
						"label": "_symbol",
						"offset": 0,
						"slot": "7",
						"type": "t_string_storage"
					},
					{
						"astId": 35,
						"contract": "ERC20/ERC20.sol:ERC20",
						"label": "MAX_TOKEN_COUNT",
						"offset": 0,
						"slot": "8",
						"type": "t_uint256"
					}
				],
				"types": {
					"t_address": {
						"encoding": "inplace",
						"label": "address",
						"numberOfBytes": "20"
					},
					"t_array(t_bytes32)dyn_storage": {
						"base": "t_bytes32",
						"encoding": "dynamic_array",
						"label": "bytes32[]",
						"numberOfBytes": "32"
					},
					"t_bool": {
						"encoding": "inplace",
						"label": "bool",
						"numberOfBytes": "1"
					},
					"t_bytes32": {
						"encoding": "inplace",
						"label": "bytes32",
						"numberOfBytes": "32"
					},
					"t_mapping(t_address,t_bool)": {
						"encoding": "mapping",
						"key": "t_address",
						"label": "mapping(address => bool)",
						"numberOfBytes": "32",
						"value": "t_bool"
					},
					"t_mapping(t_address,t_mapping(t_address,t_uint256))": {
						"encoding": "mapping",
						"key": "t_address",
						"label": "mapping(address => mapping(address => uint256))",
						"numberOfBytes": "32",
						"value": "t_mapping(t_address,t_uint256)"
					},
					"t_mapping(t_address,t_uint256)": {
						"encoding": "mapping",
						"key": "t_address",
						"label": "mapping(address => uint256)",
						"numberOfBytes": "32",
						"value": "t_uint256"
					},
					"t_mapping(t_bytes32,t_struct(AddressSet)1972_storage)": {
						"encoding": "mapping",
						"key": "t_bytes32",
						"label": "mapping(bytes32 => struct EnumerableSet.AddressSet)",
						"numberOfBytes": "32",
						"value": "t_struct(AddressSet)1972_storage"
					},
					"t_mapping(t_bytes32,t_struct(RoleData)765_storage)": {
						"encoding": "mapping",
						"key": "t_bytes32",
						"label": "mapping(bytes32 => struct AccessControl.RoleData)",
						"numberOfBytes": "32",
						"value": "t_struct(RoleData)765_storage"
					},
					"t_mapping(t_bytes32,t_uint256)": {
						"encoding": "mapping",
						"key": "t_bytes32",
						"label": "mapping(bytes32 => uint256)",
						"numberOfBytes": "32",
						"value": "t_uint256"
					},
					"t_string_storage": {
						"encoding": "bytes",
						"label": "string",
						"numberOfBytes": "32"
					},
					"t_struct(AddressSet)1972_storage": {
						"encoding": "inplace",
						"label": "struct EnumerableSet.AddressSet",
						"members": [
							{
								"astId": 1971,
								"contract": "ERC20/ERC20.sol:ERC20",
								"label": "_inner",
								"offset": 0,
								"slot": "0",
								"type": "t_struct(Set)1671_storage"
							}
						],
						"numberOfBytes": "64"
					},
					"t_struct(RoleData)765_storage": {
						"encoding": "inplace",
						"label": "struct AccessControl.RoleData",
						"members": [
							{
								"astId": 762,
								"contract": "ERC20/ERC20.sol:ERC20",
								"label": "members",
								"offset": 0,
								"slot": "0",
								"type": "t_mapping(t_address,t_bool)"
							},
							{
								"astId": 764,
								"contract": "ERC20/ERC20.sol:ERC20",
								"label": "adminRole",
								"offset": 0,
								"slot": "1",
								"type": "t_bytes32"
							}
						],
						"numberOfBytes": "64"
					},
					"t_struct(Set)1671_storage": {
						"encoding": "inplace",
						"label": "struct EnumerableSet.Set",
						"members": [
							{
								"astId": 1666,
								"contract": "ERC20/ERC20.sol:ERC20",
								"label": "_values",
								"offset": 0,
								"slot": "0",
								"type": "t_array(t_bytes32)dyn_storage"
							},
							{
								"astId": 1670,
								"contract": "ERC20/ERC20.sol:ERC20",
								"label": "_indexes",
								"offset": 0,
								"slot": "1",
								"type": "t_mapping(t_bytes32,t_uint256)"
							}
						],
						"numberOfBytes": "64"
					},
					"t_uint256": {
						"encoding": "inplace",
						"label": "uint256",
						"numberOfBytes": "32"
					}
				}
			},
			"userdoc": {
				"kind": "user",
				"methods": {},
				"version": 1
			}
		}
	}
}