{
	"ERC20/ERC20.sol": {
		"ERC20": {
			"abi": [
				{
					"inputs": [
						{
							"internalType": "string",
							"name": "name_",
							"type": "string"
						},
						{
							"internalType": "string",
							"name": "symbol_",
							"type": "string"
						}
					],
					"stateMutability": "nonpayable",
					"type": "constructor"
				},
				{
					"anonymous": false,
					"inputs": [
						{
							"indexed": true,
							"internalType": "address",
							"name": "owner",
							"type": "address"
						},
						{
							"indexed": true,
							"internalType": "address",
							"name": "spender",
							"type": "address"
						},
						{
							"indexed": false,
							"internalType": "uint256",
							"name": "value",
							"type": "uint256"
						}
					],
					"name": "Approval",
					"type": "event"
				},
				{
					"anonymous": false,
					"inputs": [
						{
							"indexed": false,
							"internalType": "address",
							"name": "account",
							"type": "address"
						}
					],
					"name": "Paused",
					"type": "event"
				},
				{
					"anonymous": false,
					"inputs": [
						{
							"indexed": true,
							"internalType": "bytes32",
							"name": "role",
							"type": "bytes32"
						},
						{
							"indexed": true,
							"internalType": "bytes32",
							"name": "previousAdminRole",
							"type": "bytes32"
						},
						{
							"indexed": true,
							"internalType": "bytes32",
							"name": "newAdminRole",
							"type": "bytes32"
						}
					],
					"name": "RoleAdminChanged",
					"type": "event"
				},
				{
					"anonymous": false,
					"inputs": [
						{
							"indexed": true,
							"internalType": "bytes32",
							"name": "role",
							"type": "bytes32"
						},
						{
							"indexed": true,
							"internalType": "address",
							"name": "account",
							"type": "address"
						},
						{
							"indexed": true,
							"internalType": "address",
							"name": "sender",
							"type": "address"
						}
					],
					"name": "RoleGranted",
					"type": "event"
				},
				{
					"anonymous": false,
					"inputs": [
						{
							"indexed": true,
							"internalType": "bytes32",
							"name": "role",
							"type": "bytes32"
						},
						{
							"indexed": true,
							"internalType": "address",
							"name": "account",
							"type": "address"
						},
						{
							"indexed": true,
							"internalType": "address",
							"name": "sender",
							"type": "address"
						}
					],
					"name": "RoleRevoked",
					"type": "event"
				},
				{
					"anonymous": false,
					"inputs": [
						{
							"indexed": true,
							"internalType": "address",
							"name": "from",
							"type": "address"
						},
						{
							"indexed": true,
							"internalType": "address",
							"name": "to",
							"type": "address"
						},
						{
							"indexed": false,
							"internalType": "uint256",
							"name": "value",
							"type": "uint256"
						}
					],
					"name": "Transfer",
					"type": "event"
				},
				{
					"anonymous": false,
					"inputs": [
						{
							"indexed": false,
							"internalType": "address",
							"name": "account",
							"type": "address"
						}
					],
					"name": "Unpaused",
					"type": "event"
				},
				{
					"inputs": [],
					"name": "DEFAULT_ADMIN_ROLE",
					"outputs": [
						{
							"internalType": "bytes32",
							"name": "",
							"type": "bytes32"
						}
					],
					"stateMutability": "view",
					"type": "function"
				},
				{
					"inputs": [],
					"name": "MAX_TOKEN_COUNT",
					"outputs": [
						{
							"internalType": "uint256",
							"name": "",
							"type": "uint256"
						}
					],
					"stateMutability": "view",
					"type": "function"
				},
				{
					"inputs": [
						{
							"internalType": "address",
							"name": "owner",
							"type": "address"
						},
						{
							"internalType": "address",
							"name": "spender",
							"type": "address"
						}
					],
					"name": "allowance",
					"outputs": [
						{
							"internalType": "uint256",
							"name": "",
							"type": "uint256"
						}
					],
					"stateMutability": "view",
					"type": "function"
				},
				{
					"inputs": [
						{
							"internalType": "address",
							"name": "spender",
							"type": "address"
						},
						{
							"internalType": "uint256",
							"name": "amount",
							"type": "uint256"
						}
					],
					"name": "approve",
					"outputs": [
						{
							"internalType": "bool",
							"name": "",
							"type": "bool"
						}
					],
					"stateMutability": "nonpayable",
					"type": "function"
				},
				{
					"inputs": [
						{
							"internalType": "address",
							"name": "account",
							"type": "address"
						}
					],
					"name": "balanceOf",
					"outputs": [
						{
							"internalType": "uint256",
							"name": "",
							"type": "uint256"
						}
					],
					"stateMutability": "view",
					"type": "function"
				},
				{
					"inputs": [],
					"name": "decimals",
					"outputs": [
						{
							"internalType": "uint8",
							"name": "",
							"type": "uint8"
						}
					],
					"stateMutability": "view",
					"type": "function"
				},
				{
					"inputs": [
						{
							"internalType": "address",
							"name": "spender",
							"type": "address"
						},
						{
							"internalType": "uint256",
							"name": "subtractedValue",
							"type": "uint256"
						}
					],
					"name": "decreaseAllowance",
					"outputs": [
						{
							"internalType": "bool",
							"name": "",
							"type": "bool"
						}
					],
					"stateMutability": "nonpayable",
					"type": "function"
				},
				{
					"inputs": [
						{
							"internalType": "bytes32",
							"name": "role",
							"type": "bytes32"
						}
					],
					"name": "getRoleAdmin",
					"outputs": [
						{
							"internalType": "bytes32",
							"name": "",
							"type": "bytes32"
						}
					],
					"stateMutability": "view",
					"type": "function"
				},
				{
					"inputs": [
						{
							"internalType": "bytes32",
							"name": "role",
							"type": "bytes32"
						},
						{
							"internalType": "uint256",
							"name": "index",
							"type": "uint256"
						}
					],
					"name": "getRoleMember",
					"outputs": [
						{
							"internalType": "address",
							"name": "",
							"type": "address"
						}
					],
					"stateMutability": "view",
					"type": "function"
				},
				{
					"inputs": [
						{
							"internalType": "bytes32",
							"name": "role",
							"type": "bytes32"
						}
					],
					"name": "getRoleMemberCount",
					"outputs": [
						{
							"internalType": "uint256",
							"name": "",
							"type": "uint256"
						}
					],
					"stateMutability": "view",
					"type": "function"
				},
				{
					"inputs": [
						{
							"internalType": "bytes32",
							"name": "role",
							"type": "bytes32"
						},
						{
							"internalType": "address",
							"name": "account",
							"type": "address"
						}
					],
					"name": "grantRole",
					"outputs": [],
					"stateMutability": "nonpayable",
					"type": "function"
				},
				{
					"inputs": [
						{
							"internalType": "bytes32",
							"name": "role",
							"type": "bytes32"
						},
						{
							"internalType": "address",
							"name": "account",
							"type": "address"
						}
					],
					"name": "hasRole",
					"outputs": [
						{
							"internalType": "bool",
							"name": "",
							"type": "bool"
						}
					],
					"stateMutability": "view",
					"type": "function"
				},
				{
					"inputs": [
						{
							"internalType": "address",
							"name": "spender",
							"type": "address"
						},
						{
							"internalType": "uint256",
							"name": "addedValue",
							"type": "uint256"
						}
					],
					"name": "increaseAllowance",
					"outputs": [
						{
							"internalType": "bool",
							"name": "",
							"type": "bool"
						}
					],
					"stateMutability": "nonpayable",
					"type": "function"
				},
				{
					"inputs": [],
					"name": "name",
					"outputs": [
						{
							"internalType": "string",
							"name": "",
							"type": "string"
						}
					],
					"stateMutability": "view",
					"type": "function"
				},
				{
					"inputs": [],
					"name": "paused",
					"outputs": [
						{
							"internalType": "bool",
							"name": "",
							"type": "bool"
						}
					],
					"stateMutability": "view",
					"type": "function"
				},
				{
					"inputs": [],
					"name": "pausedOptions",
					"outputs": [
						{
							"internalType": "bool",
							"name": "",
							"type": "bool"
						}
					],
					"stateMutability": "nonpayable",
					"type": "function"
				},
				{
					"inputs": [
						{
							"internalType": "bytes32",
							"name": "role",
							"type": "bytes32"
						},
						{
							"internalType": "address",
							"name": "account",
							"type": "address"
						}
					],
					"name": "revokeRole",
					"outputs": [],
					"stateMutability": "nonpayable",
					"type": "function"
				},
				{
					"inputs": [
						{
							"internalType": "bytes4",
							"name": "interfaceId",
							"type": "bytes4"
						}
					],
					"name": "supportsInterface",
					"outputs": [
						{
							"internalType": "bool",
							"name": "",
							"type": "bool"
						}
					],
					"stateMutability": "view",
					"type": "function"
				},
				{
					"inputs": [],
					"name": "symbol",
					"outputs": [
						{
							"internalType": "string",
							"name": "",
							"type": "string"
						}
					],
					"stateMutability": "view",
					"type": "function"
				},
				{
					"inputs": [],
					"name": "totalSupply",
					"outputs": [
						{
							"internalType": "uint256",
							"name": "",
							"type": "uint256"
						}
					],
					"stateMutability": "view",
					"type": "function"
				},
				{
					"inputs": [
						{
							"internalType": "address",
							"name": "recipient",
							"type": "address"
						},
						{
							"internalType": "uint256",
							"name": "amount",
							"type": "uint256"
						}
					],
					"name": "transfer",
					"outputs": [
						{
							"internalType": "bool",
							"name": "",
							"type": "bool"
						}
					],
					"stateMutability": "nonpayable",
					"type": "function"
				},
				{
					"inputs": [
						{
							"internalType": "address",
							"name": "sender",
							"type": "address"
						},
						{
							"internalType": "address",
							"name": "recipient",
							"type": "address"
						},
						{
							"internalType": "uint256",
							"name": "amount",
							"type": "uint256"
						}
					],
					"name": "transferFrom",
					"outputs": [
						{
							"internalType": "bool",
							"name": "",
							"type": "bool"
						}
					],
					"stateMutability": "nonpayable",
					"type": "function"
				},
				{
					"inputs": [],
					"name": "unPausedOptions",
					"outputs": [
						{
							"internalType": "bool",
							"name": "",
							"type": "bool"
						}
					],
					"stateMutability": "nonpayable",
					"type": "function"
				}
			],
			"devdoc": {
				"details": "Implementation of the {IERC20} interface. This implementation is agnostic to the way tokens are created. This means that a supply mechanism has to be added in a derived contract using {_mint}. For a generic mechanism see {ERC20PresetMinterPauser}. TIP: For a detailed writeup see our guide https://forum.zeppelin.solutions/t/how-to-implement-erc20-supply-mechanisms/226[How to implement supply mechanisms]. We have followed general OpenZeppelin Contracts guidelines: functions revert instead returning `false` on failure. This behavior is nonetheless conventional and does not conflict with the expectations of ERC20 applications. Additionally, an {Approval} event is emitted on calls to {transferFrom}. This allows applications to reconstruct the allowance for all accounts just by listening to said events. Other implementations of the EIP may not emit these events, as it isn't required by the specification. Finally, the non-standard {decreaseAllowance} and {increaseAllowance} functions have been added to mitigate the well-known issues around setting allowances. See {IERC20-approve}.",
				"kind": "dev",
				"methods": {
					"allowance(address,address)": {
						"details": "See {IERC20-allowance}."
					},
					"approve(address,uint256)": {
						"details": "See {IERC20-approve}. Requirements: - `spender` cannot be the zero address."
					},
					"balanceOf(address)": {
						"details": "See {IERC20-balanceOf}."
					},
					"constructor": {
						"details": "Sets the values for {name} and {symbol}. The default value of {decimals} is 18. To select a different value for {decimals} you should overload it. All two of these values are immutable: they can only be set once during construction."
					},
					"decimals()": {
						"details": "Returns the number of decimals used to get its user representation. For example, if `decimals` equals `2`, a balance of `505` tokens should be displayed to a user as `5.05` (`505 / 10 ** 2`). Tokens usually opt for a value of 18, imitating the relationship between Ether and Wei. This is the value {ERC20} uses, unless this function is overridden; NOTE: This information is only used for _display_ purposes: it in no way affects any of the arithmetic of the contract, including {IERC20-balanceOf} and {IERC20-transfer}."
					},
					"decreaseAllowance(address,uint256)": {
						"details": "Atomically decreases the allowance granted to `spender` by the caller. This is an alternative to {approve} that can be used as a mitigation for problems described in {IERC20-approve}. Emits an {Approval} event indicating the updated allowance. Requirements: - `spender` cannot be the zero address. - `spender` must have allowance for the caller of at least `subtractedValue`."
					},
					"getRoleAdmin(bytes32)": {
						"details": "Returns the admin role that controls `role`. See {grantRole} and {revokeRole}. To change a role's admin, use {_setRoleAdmin}."
					},
					"getRoleMember(bytes32,uint256)": {
						"details": "Returns one of the accounts that have `role`. `index` must be a value between 0 and {getRoleMemberCount}, non-inclusive. Role bearers are not sorted in any particular way, and their ordering may change at any point. WARNING: When using {getRoleMember} and {getRoleMemberCount}, make sure you perform all queries on the same block. See the following https://forum.openzeppelin.com/t/iterating-over-elements-on-enumerableset-in-openzeppelin-contracts/2296[forum post] for more information."
					},
					"getRoleMemberCount(bytes32)": {
						"details": "Returns the number of accounts that have `role`. Can be used together with {getRoleMember} to enumerate all bearers of a role."
					},
					"grantRole(bytes32,address)": {
						"details": "Overload {grantRole} to track enumerable memberships"
					},
					"hasRole(bytes32,address)": {
						"details": "Returns `true` if `account` has been granted `role`."
					},
					"increaseAllowance(address,uint256)": {
						"details": "Atomically increases the allowance granted to `spender` by the caller. This is an alternative to {approve} that can be used as a mitigation for problems described in {IERC20-approve}. Emits an {Approval} event indicating the updated allowance. Requirements: - `spender` cannot be the zero address."
					},
					"name()": {
						"details": "Returns the name of the token."
					},
					"paused()": {
						"details": "Returns true if the contract is paused, and false otherwise."
					},
					"revokeRole(bytes32,address)": {
						"details": "Overload {revokeRole} to track enumerable memberships"
					},
					"supportsInterface(bytes4)": {
						"details": "See {IERC165-supportsInterface}."
					},
					"symbol()": {
						"details": "Returns the symbol of the token, usually a shorter version of the name."
					},
					"totalSupply()": {
						"details": "See {IERC20-totalSupply}."
					},
					"transfer(address,uint256)": {
						"details": "See {IERC20-transfer}. Requirements: - `recipient` cannot be the zero address. - the caller must have a balance of at least `amount`."
					},
					"transferFrom(address,address,uint256)": {
						"details": "See {IERC20-transferFrom}. Emits an {Approval} event indicating the updated allowance. This is not required by the EIP. See the note at the beginning of {ERC20}. Requirements: - `sender` and `recipient` cannot be the zero address. - `sender` must have a balance of at least `amount`. - the caller must have allowance for ``sender``'s tokens of at least `amount`."
					}
				},
				"version": 1
			},
			"evm": {
				"assembly": "    /* \"ERC20/ERC20.sol\":1443:13639  contract ERC20 is Context, AccessControlEnumerable, IERC20, IERC20Metadata, Pausable {... */\n  mstore(0x40, 0x80)\n    /* \"ERC20/ERC20.sol\":2109:2280  constructor(string memory name_, string memory symbol_) {... */\n  callvalue\n  dup1\n  iszero\n  tag_1\n  jumpi\n  0x00\n  dup1\n  revert\ntag_1:\n  pop\n  mload(0x40)\n  sub(codesize, bytecodeSize)\n  dup1\n  bytecodeSize\n  dup4\n  codecopy\n  dup2\n  dup2\n  add\n  0x40\n  mstore\n  dup2\n  add\n  swap1\n  tag_2\n  swap2\n  swap1\n  tag_3\n  jump\t// in\ntag_2:\n    /* \"ERC20/security/Pausable.sol\":934:939  false */\n  0x00\n    /* \"ERC20/security/Pausable.sol\":924:931  _paused */\n  0x02\n  0x00\n    /* \"ERC20/security/Pausable.sol\":924:939  _paused = false */\n  0x0100\n  exp\n  dup2\n  sload\n  dup2\n  0xff\n  mul\n  not\n  and\n  swap1\n  dup4\n  iszero\n  iszero\n  mul\n  or\n  swap1\n  sstore\n  pop\n    /* \"ERC20/ERC20.sol\":2184:2189  name_ */\n  dup2\n    /* \"ERC20/ERC20.sol\":2176:2181  _name */\n  0x06\n    /* \"ERC20/ERC20.sol\":2176:2189  _name = name_ */\n  swap1\n  dup1\n  mload\n  swap1\n  0x20\n  add\n  swap1\n  tag_8\n  swap3\n  swap2\n  swap1\n  tag_9\n  jump\t// in\ntag_8:\n  pop\n    /* \"ERC20/ERC20.sol\":2210:2217  symbol_ */\n  dup1\n    /* \"ERC20/ERC20.sol\":2200:2207  _symbol */\n  0x07\n    /* \"ERC20/ERC20.sol\":2200:2217  _symbol = symbol_ */\n  swap1\n  dup1\n  mload\n  swap1\n  0x20\n  add\n  swap1\n  tag_10\n  swap3\n  swap2\n  swap1\n  tag_9\n  jump\t// in\ntag_10:\n  pop\n    /* \"ERC20/ERC20.sol\":2228:2272  _setupRole(DEFAULT_ADMIN_ROLE, _msgSender()) */\n  tag_11\n    /* \"ERC20/access/AccessControl.sol\":2052:2056  0x00 */\n  0x00\n    /* \"ERC20/ERC20.sol\":2239:2257  DEFAULT_ADMIN_ROLE */\n  dup1\n  shl\n    /* \"ERC20/ERC20.sol\":2259:2271  _msgSender() */\n  tag_12\n    /* \"ERC20/ERC20.sol\":2259:2269  _msgSender */\n  shl(0x20, tag_13)\n    /* \"ERC20/ERC20.sol\":2259:2271  _msgSender() */\n  0x20\n  shr\n  jump\t// in\ntag_12:\n    /* \"ERC20/ERC20.sol\":2228:2238  _setupRole */\n  shl(0x20, tag_14)\n    /* \"ERC20/ERC20.sol\":2228:2272  _setupRole(DEFAULT_ADMIN_ROLE, _msgSender()) */\n  0x20\n  shr\n  jump\t// in\ntag_11:\n    /* \"ERC20/ERC20.sol\":2109:2280  constructor(string memory name_, string memory symbol_) {... */\n  pop\n  pop\n    /* \"ERC20/ERC20.sol\":1443:13639  contract ERC20 is Context, AccessControlEnumerable, IERC20, IERC20Metadata, Pausable {... */\n  jump(tag_15)\n    /* \"ERC20/utils/Context.sol\":602:700  function _msgSender() internal view virtual returns (address) {... */\ntag_13:\n    /* \"ERC20/utils/Context.sol\":655:662  address */\n  0x00\n    /* \"ERC20/utils/Context.sol\":682:692  msg.sender */\n  caller\n    /* \"ERC20/utils/Context.sol\":675:692  return msg.sender */\n  swap1\n  pop\n    /* \"ERC20/utils/Context.sol\":602:700  function _msgSender() internal view virtual returns (address) {... */\n  swap1\n  jump\t// out\n    /* \"ERC20/access/AccessControlEnumerable.sol\":2909:3078  function _setupRole(bytes32 role, address account) internal virtual override {... */\ntag_14:\n    /* \"ERC20/access/AccessControlEnumerable.sol\":2997:3028  super._setupRole(role, account) */\n  tag_18\n    /* \"ERC20/access/AccessControlEnumerable.sol\":3014:3018  role */\n  dup3\n    /* \"ERC20/access/AccessControlEnumerable.sol\":3020:3027  account */\n  dup3\n    /* \"ERC20/access/AccessControlEnumerable.sol\":2997:3013  super._setupRole */\n  or(tag_0_124, shl(0x20, tag_19))\n    /* \"ERC20/access/AccessControlEnumerable.sol\":2997:3028  super._setupRole(role, account) */\n  0x20\n  shr\n  jump\t// in\ntag_18:\n    /* \"ERC20/access/AccessControlEnumerable.sol\":3039:3070  _roleMembers[role].add(account) */\n  tag_20\n    /* \"ERC20/access/AccessControlEnumerable.sol\":3062:3069  account */\n  dup2\n    /* \"ERC20/access/AccessControlEnumerable.sol\":3039:3051  _roleMembers */\n  0x01\n    /* \"ERC20/access/AccessControlEnumerable.sol\":3039:3057  _roleMembers[role] */\n  0x00\n    /* \"ERC20/access/AccessControlEnumerable.sol\":3052:3056  role */\n  dup6\n    /* \"ERC20/access/AccessControlEnumerable.sol\":3039:3057  _roleMembers[role] */\n  dup2\n  mstore\n  0x20\n  add\n  swap1\n  dup2\n  mstore\n  0x20\n  add\n  0x00\n  keccak256\n    /* \"ERC20/access/AccessControlEnumerable.sol\":3039:3061  _roleMembers[role].add */\n  or(tag_0_125, shl(0x20, tag_21))\n  swap1\n    /* \"ERC20/access/AccessControlEnumerable.sol\":3039:3070  _roleMembers[role].add(account) */\n  swap2\n  swap1\n  0x20\n  shr\n  jump\t// in\ntag_20:\n  pop\n    /* \"ERC20/access/AccessControlEnumerable.sol\":2909:3078  function _setupRole(bytes32 role, address account) internal virtual override {... */\n  pop\n  pop\n  jump\t// out\n    /* \"ERC20/access/AccessControl.sol\":6353:6465  function _setupRole(bytes32 role, address account) internal virtual {... */\ntag_19:\n    /* \"ERC20/access/AccessControl.sol\":6432:6457  _grantRole(role, account) */\n  tag_23\n    /* \"ERC20/access/AccessControl.sol\":6443:6447  role */\n  dup3\n    /* \"ERC20/access/AccessControl.sol\":6449:6456  account */\n  dup3\n    /* \"ERC20/access/AccessControl.sol\":6432:6442  _grantRole */\n  shl(0x20, tag_24)\n    /* \"ERC20/access/AccessControl.sol\":6432:6457  _grantRole(role, account) */\n  0x20\n  shr\n  jump\t// in\ntag_23:\n    /* \"ERC20/access/AccessControl.sol\":6353:6465  function _setupRole(bytes32 role, address account) internal virtual {... */\n  pop\n  pop\n  jump\t// out\n    /* \"ERC20/utils/structs/EnumerableSet.sol\":7767:7919  function add(AddressSet storage set, address value) internal returns (bool) {... */\ntag_21:\n    /* \"ERC20/utils/structs/EnumerableSet.sol\":7837:7841  bool */\n  0x00\n    /* \"ERC20/utils/structs/EnumerableSet.sol\":7861:7911  _add(set._inner, bytes32(uint256(uint160(value)))) */\n  tag_26\n    /* \"ERC20/utils/structs/EnumerableSet.sol\":7866:7869  set */\n  dup4\n    /* \"ERC20/utils/structs/EnumerableSet.sol\":7866:7876  set._inner */\n  0x00\n  add\n    /* \"ERC20/utils/structs/EnumerableSet.sol\":7902:7907  value */\n  dup4\n    /* \"ERC20/utils/structs/EnumerableSet.sol\":7886:7909  uint256(uint160(value)) */\n  0xffffffffffffffffffffffffffffffffffffffff\n  and\n    /* \"ERC20/utils/structs/EnumerableSet.sol\":7878:7910  bytes32(uint256(uint160(value))) */\n  0x00\n  shl\n    /* \"ERC20/utils/structs/EnumerableSet.sol\":7861:7865  _add */\n  shl(0x20, tag_27)\n    /* \"ERC20/utils/structs/EnumerableSet.sol\":7861:7911  _add(set._inner, bytes32(uint256(uint160(value)))) */\n  0x20\n  shr\n  jump\t// in\ntag_26:\n    /* \"ERC20/utils/structs/EnumerableSet.sol\":7854:7911  return _add(set._inner, bytes32(uint256(uint160(value)))) */\n  swap1\n  pop\n    /* \"ERC20/utils/structs/EnumerableSet.sol\":7767:7919  function add(AddressSet storage set, address value) internal returns (bool) {... */\n  swap3\n  swap2\n  pop\n  pop\n  jump\t// out\n    /* \"ERC20/access/AccessControl.sol\":6977:7215  function _grantRole(bytes32 role, address account) internal virtual {... */\ntag_24:\n    /* \"ERC20/access/AccessControl.sol\":7061:7083  hasRole(role, account) */\n  tag_29\n    /* \"ERC20/access/AccessControl.sol\":7069:7073  role */\n  dup3\n    /* \"ERC20/access/AccessControl.sol\":7075:7082  account */\n  dup3\n    /* \"ERC20/access/AccessControl.sol\":7061:7068  hasRole */\n  shl(0x20, tag_30)\n    /* \"ERC20/access/AccessControl.sol\":7061:7083  hasRole(role, account) */\n  0x20\n  shr\n  jump\t// in\ntag_29:\n    /* \"ERC20/access/AccessControl.sol\":7056:7208  if (!hasRole(role, account)) {... */\n  tag_31\n  jumpi\n    /* \"ERC20/access/AccessControl.sol\":7132:7136  true */\n  0x01\n    /* \"ERC20/access/AccessControl.sol\":7100:7106  _roles */\n  0x00\n    /* \"ERC20/access/AccessControl.sol\":7100:7112  _roles[role] */\n  dup1\n    /* \"ERC20/access/AccessControl.sol\":7107:7111  role */\n  dup5\n    /* \"ERC20/access/AccessControl.sol\":7100:7112  _roles[role] */\n  dup2\n  mstore\n  0x20\n  add\n  swap1\n  dup2\n  mstore\n  0x20\n  add\n  0x00\n  keccak256\n    /* \"ERC20/access/AccessControl.sol\":7100:7120  _roles[role].members */\n  0x00\n  add\n    /* \"ERC20/access/AccessControl.sol\":7100:7129  _roles[role].members[account] */\n  0x00\n    /* \"ERC20/access/AccessControl.sol\":7121:7128  account */\n  dup4\n    /* \"ERC20/access/AccessControl.sol\":7100:7129  _roles[role].members[account] */\n  0xffffffffffffffffffffffffffffffffffffffff\n  and\n  0xffffffffffffffffffffffffffffffffffffffff\n  and\n  dup2\n  mstore\n  0x20\n  add\n  swap1\n  dup2\n  mstore\n  0x20\n  add\n  0x00\n  keccak256\n  0x00\n    /* \"ERC20/access/AccessControl.sol\":7100:7136  _roles[role].members[account] = true */\n  0x0100\n  exp\n  dup2\n  sload\n  dup2\n  0xff\n  mul\n  not\n  and\n  swap1\n  dup4\n  iszero\n  iszero\n  mul\n  or\n  swap1\n  sstore\n  pop\n    /* \"ERC20/access/AccessControl.sol\":7183:7195  _msgSender() */\n  tag_32\n    /* \"ERC20/access/AccessControl.sol\":7183:7193  _msgSender */\n  shl(0x20, tag_13)\n    /* \"ERC20/access/AccessControl.sol\":7183:7195  _msgSender() */\n  0x20\n  shr\n  jump\t// in\ntag_32:\n    /* \"ERC20/access/AccessControl.sol\":7156:7196  RoleGranted(role, account, _msgSender()) */\n  0xffffffffffffffffffffffffffffffffffffffff\n  and\n    /* \"ERC20/access/AccessControl.sol\":7174:7181  account */\n  dup2\n    /* \"ERC20/access/AccessControl.sol\":7156:7196  RoleGranted(role, account, _msgSender()) */\n  0xffffffffffffffffffffffffffffffffffffffff\n  and\n    /* \"ERC20/access/AccessControl.sol\":7168:7172  role */\n  dup4\n    /* \"ERC20/access/AccessControl.sol\":7156:7196  RoleGranted(role, account, _msgSender()) */\n  0x2f8788117e7eff1d82e926ec794901d17c78024a50270940304540a733656f0d\n  mload(0x40)\n  mload(0x40)\n  dup1\n  swap2\n  sub\n  swap1\n  log4\n    /* \"ERC20/access/AccessControl.sol\":7056:7208  if (!hasRole(role, account)) {... */\ntag_31:\n    /* \"ERC20/access/AccessControl.sol\":6977:7215  function _grantRole(bytes32 role, address account) internal virtual {... */\n  pop\n  pop\n  jump\t// out\n    /* \"ERC20/utils/structs/EnumerableSet.sol\":1682:2096  function _add(Set storage set, bytes32 value) private returns (bool) {... */\ntag_27:\n    /* \"ERC20/utils/structs/EnumerableSet.sol\":1745:1749  bool */\n  0x00\n    /* \"ERC20/utils/structs/EnumerableSet.sol\":1767:1788  _contains(set, value) */\n  tag_34\n    /* \"ERC20/utils/structs/EnumerableSet.sol\":1777:1780  set */\n  dup4\n    /* \"ERC20/utils/structs/EnumerableSet.sol\":1782:1787  value */\n  dup4\n    /* \"ERC20/utils/structs/EnumerableSet.sol\":1767:1776  _contains */\n  shl(0x20, tag_35)\n    /* \"ERC20/utils/structs/EnumerableSet.sol\":1767:1788  _contains(set, value) */\n  0x20\n  shr\n  jump\t// in\ntag_34:\n    /* \"ERC20/utils/structs/EnumerableSet.sol\":1762:2089  if (!_contains(set, value)) {... */\n  tag_36\n  jumpi\n    /* \"ERC20/utils/structs/EnumerableSet.sol\":1805:1808  set */\n  dup3\n    /* \"ERC20/utils/structs/EnumerableSet.sol\":1805:1816  set._values */\n  0x00\n  add\n    /* \"ERC20/utils/structs/EnumerableSet.sol\":1822:1827  value */\n  dup3\n    /* \"ERC20/utils/structs/EnumerableSet.sol\":1805:1828  set._values.push(value) */\n  swap1\n  dup1\n  0x01\n  dup2\n  sload\n  add\n  dup1\n  dup3\n  sstore\n  dup1\n  swap2\n  pop\n  pop\n  0x01\n  swap1\n  sub\n  swap1\n  0x00\n  mstore\n  keccak256(0x00, 0x20)\n  add\n  0x00\n  swap1\n  swap2\n  swap1\n  swap2\n  swap1\n  swap2\n  pop\n  sstore\n    /* \"ERC20/utils/structs/EnumerableSet.sol\":1988:1991  set */\n  dup3\n    /* \"ERC20/utils/structs/EnumerableSet.sol\":1988:1999  set._values */\n  0x00\n  add\n    /* \"ERC20/utils/structs/EnumerableSet.sol\":1988:2006  set._values.length */\n  dup1\n  sload\n  swap1\n  pop\n    /* \"ERC20/utils/structs/EnumerableSet.sol\":1966:1969  set */\n  dup4\n    /* \"ERC20/utils/structs/EnumerableSet.sol\":1966:1978  set._indexes */\n  0x01\n  add\n    /* \"ERC20/utils/structs/EnumerableSet.sol\":1966:1985  set._indexes[value] */\n  0x00\n    /* \"ERC20/utils/structs/EnumerableSet.sol\":1979:1984  value */\n  dup5\n    /* \"ERC20/utils/structs/EnumerableSet.sol\":1966:1985  set._indexes[value] */\n  dup2\n  mstore\n  0x20\n  add\n  swap1\n  dup2\n  mstore\n  0x20\n  add\n  0x00\n  keccak256\n    /* \"ERC20/utils/structs/EnumerableSet.sol\":1966:2006  set._indexes[value] = set._values.length */\n  dup2\n  swap1\n  sstore\n  pop\n    /* \"ERC20/utils/structs/EnumerableSet.sol\":2028:2032  true */\n  0x01\n    /* \"ERC20/utils/structs/EnumerableSet.sol\":2021:2032  return true */\n  swap1\n  pop\n  jump(tag_33)\n    /* \"ERC20/utils/structs/EnumerableSet.sol\":1762:2089  if (!_contains(set, value)) {... */\ntag_36:\n    /* \"ERC20/utils/structs/EnumerableSet.sol\":2072:2077  false */\n  0x00\n    /* \"ERC20/utils/structs/EnumerableSet.sol\":2065:2077  return false */\n  swap1\n  pop\n    /* \"ERC20/utils/structs/EnumerableSet.sol\":1682:2096  function _add(Set storage set, bytes32 value) private returns (bool) {... */\ntag_33:\n  swap3\n  swap2\n  pop\n  pop\n  jump\t// out\n    /* \"ERC20/access/AccessControl.sol\":2916:3055  function hasRole(bytes32 role, address account) public view override returns (bool) {... */\ntag_30:\n    /* \"ERC20/access/AccessControl.sol\":2994:2998  bool */\n  0x00\n    /* \"ERC20/access/AccessControl.sol\":3018:3024  _roles */\n  dup1\n    /* \"ERC20/access/AccessControl.sol\":3018:3030  _roles[role] */\n  0x00\n    /* \"ERC20/access/AccessControl.sol\":3025:3029  role */\n  dup5\n    /* \"ERC20/access/AccessControl.sol\":3018:3030  _roles[role] */\n  dup2\n  mstore\n  0x20\n  add\n  swap1\n  dup2\n  mstore\n  0x20\n  add\n  0x00\n  keccak256\n    /* \"ERC20/access/AccessControl.sol\":3018:3038  _roles[role].members */\n  0x00\n  add\n    /* \"ERC20/access/AccessControl.sol\":3018:3047  _roles[role].members[account] */\n  0x00\n    /* \"ERC20/access/AccessControl.sol\":3039:3046  account */\n  dup4\n    /* \"ERC20/access/AccessControl.sol\":3018:3047  _roles[role].members[account] */\n  0xffffffffffffffffffffffffffffffffffffffff\n  and\n  0xffffffffffffffffffffffffffffffffffffffff\n  and\n  dup2\n  mstore\n  0x20\n  add\n  swap1\n  dup2\n  mstore\n  0x20\n  add\n  0x00\n  keccak256\n  0x00\n  swap1\n  sload\n  swap1\n  0x0100\n  exp\n  swap1\n  div\n  0xff\n  and\n    /* \"ERC20/access/AccessControl.sol\":3011:3047  return _roles[role].members[account] */\n  swap1\n  pop\n    /* \"ERC20/access/AccessControl.sol\":2916:3055  function hasRole(bytes32 role, address account) public view override returns (bool) {... */\n  swap3\n  swap2\n  pop\n  pop\n  jump\t// out\n    /* \"ERC20/utils/structs/EnumerableSet.sol\":3778:3907  function _contains(Set storage set, bytes32 value) private view returns (bool) {... */\ntag_35:\n    /* \"ERC20/utils/structs/EnumerableSet.sol\":3851:3855  bool */\n  0x00\n    /* \"ERC20/utils/structs/EnumerableSet.sol\":3898:3899  0 */\n  dup1\n    /* \"ERC20/utils/structs/EnumerableSet.sol\":3875:3878  set */\n  dup4\n    /* \"ERC20/utils/structs/EnumerableSet.sol\":3875:3887  set._indexes */\n  0x01\n  add\n    /* \"ERC20/utils/structs/EnumerableSet.sol\":3875:3894  set._indexes[value] */\n  0x00\n    /* \"ERC20/utils/structs/EnumerableSet.sol\":3888:3893  value */\n  dup5\n    /* \"ERC20/utils/structs/EnumerableSet.sol\":3875:3894  set._indexes[value] */\n  dup2\n  mstore\n  0x20\n  add\n  swap1\n  dup2\n  mstore\n  0x20\n  add\n  0x00\n  keccak256\n  sload\n    /* \"ERC20/utils/structs/EnumerableSet.sol\":3875:3899  set._indexes[value] != 0 */\n  eq\n  iszero\n    /* \"ERC20/utils/structs/EnumerableSet.sol\":3868:3899  return set._indexes[value] != 0 */\n  swap1\n  pop\n    /* \"ERC20/utils/structs/EnumerableSet.sol\":3778:3907  function _contains(Set storage set, bytes32 value) private view returns (bool) {... */\n  swap3\n  swap2\n  pop\n  pop\n  jump\t// out\n    /* \"ERC20/ERC20.sol\":1443:13639  contract ERC20 is Context, AccessControlEnumerable, IERC20, IERC20Metadata, Pausable {... */\ntag_9:\n  dup3\n  dup1\n  sload\n  tag_41\n  swap1\n  tag_42\n  jump\t// in\ntag_41:\n  swap1\n  0x00\n  mstore\n  keccak256(0x00, 0x20)\n  swap1\n  0x1f\n  add\n  0x20\n  swap1\n  div\n  dup2\n  add\n  swap3\n  dup3\n  tag_44\n  jumpi\n  0x00\n  dup6\n  sstore\n  jump(tag_43)\ntag_44:\n  dup3\n  0x1f\n  lt\n  tag_45\n  jumpi\n  dup1\n  mload\n  not(0xff)\n  and\n  dup4\n  dup1\n  add\n  or\n  dup6\n  sstore\n  jump(tag_43)\ntag_45:\n  dup3\n  dup1\n  add\n  0x01\n  add\n  dup6\n  sstore\n  dup3\n  iszero\n  tag_43\n  jumpi\n  swap2\n  dup3\n  add\ntag_46:\n  dup3\n  dup2\n  gt\n  iszero\n  tag_47\n  jumpi\n  dup3\n  mload\n  dup3\n  sstore\n  swap2\n  0x20\n  add\n  swap2\n  swap1\n  0x01\n  add\n  swap1\n  jump(tag_46)\ntag_47:\ntag_43:\n  pop\n  swap1\n  pop\n  tag_48\n  swap2\n  swap1\n  tag_49\n  jump\t// in\ntag_48:\n  pop\n  swap1\n  jump\t// out\ntag_49:\ntag_50:\n  dup1\n  dup3\n  gt\n  iszero\n  tag_51\n  jumpi\n  0x00\n  dup2\n  0x00\n  swap1\n  sstore\n  pop\n  0x01\n  add\n  jump(tag_50)\ntag_51:\n  pop\n  swap1\n  jump\t// out\n    /* \"#utility.yul\":7:82   */\ntag_52:\n    /* \"#utility.yul\":40:46   */\n  0x00\n    /* \"#utility.yul\":73:75   */\n  0x40\n    /* \"#utility.yul\":67:76   */\n  mload\n    /* \"#utility.yul\":57:76   */\n  swap1\n  pop\n    /* \"#utility.yul\":7:82   */\n  swap1\n  jump\t// out\n    /* \"#utility.yul\":88:205   */\ntag_53:\n    /* \"#utility.yul\":197:198   */\n  0x00\n    /* \"#utility.yul\":194:195   */\n  dup1\n    /* \"#utility.yul\":187:199   */\n  revert\n    /* \"#utility.yul\":211:328   */\ntag_54:\n    /* \"#utility.yul\":320:321   */\n  0x00\n    /* \"#utility.yul\":317:318   */\n  dup1\n    /* \"#utility.yul\":310:322   */\n  revert\n    /* \"#utility.yul\":334:451   */\ntag_55:\n    /* \"#utility.yul\":443:444   */\n  0x00\n    /* \"#utility.yul\":440:441   */\n  dup1\n    /* \"#utility.yul\":433:445   */\n  revert\n    /* \"#utility.yul\":457:574   */\ntag_56:\n    /* \"#utility.yul\":566:567   */\n  0x00\n    /* \"#utility.yul\":563:564   */\n  dup1\n    /* \"#utility.yul\":556:568   */\n  revert\n    /* \"#utility.yul\":580:682   */\ntag_57:\n    /* \"#utility.yul\":621:627   */\n  0x00\n    /* \"#utility.yul\":672:674   */\n  0x1f\n    /* \"#utility.yul\":668:675   */\n  not\n    /* \"#utility.yul\":663:665   */\n  0x1f\n    /* \"#utility.yul\":656:661   */\n  dup4\n    /* \"#utility.yul\":652:666   */\n  add\n    /* \"#utility.yul\":648:676   */\n  and\n    /* \"#utility.yul\":638:676   */\n  swap1\n  pop\n    /* \"#utility.yul\":580:682   */\n  swap2\n  swap1\n  pop\n  jump\t// out\n    /* \"#utility.yul\":688:868   */\ntag_58:\n    /* \"#utility.yul\":736:813   */\n  0x4e487b7100000000000000000000000000000000000000000000000000000000\n    /* \"#utility.yul\":733:734   */\n  0x00\n    /* \"#utility.yul\":726:814   */\n  mstore\n    /* \"#utility.yul\":833:837   */\n  0x41\n    /* \"#utility.yul\":830:831   */\n  0x04\n    /* \"#utility.yul\":823:838   */\n  mstore\n    /* \"#utility.yul\":857:861   */\n  0x24\n    /* \"#utility.yul\":854:855   */\n  0x00\n    /* \"#utility.yul\":847:862   */\n  revert\n    /* \"#utility.yul\":874:1155   */\ntag_59:\n    /* \"#utility.yul\":957:984   */\n  tag_75\n    /* \"#utility.yul\":979:983   */\n  dup3\n    /* \"#utility.yul\":957:984   */\n  tag_57\n  jump\t// in\ntag_75:\n    /* \"#utility.yul\":949:955   */\n  dup2\n    /* \"#utility.yul\":945:985   */\n  add\n    /* \"#utility.yul\":1087:1093   */\n  dup2\n    /* \"#utility.yul\":1075:1085   */\n  dup2\n    /* \"#utility.yul\":1072:1094   */\n  lt\n    /* \"#utility.yul\":1051:1069   */\n  0xffffffffffffffff\n    /* \"#utility.yul\":1039:1049   */\n  dup3\n    /* \"#utility.yul\":1036:1070   */\n  gt\n    /* \"#utility.yul\":1033:1095   */\n  or\n    /* \"#utility.yul\":1030:1118   */\n  iszero\n  tag_76\n  jumpi\n    /* \"#utility.yul\":1098:1116   */\n  tag_77\n  tag_58\n  jump\t// in\ntag_77:\n    /* \"#utility.yul\":1030:1118   */\ntag_76:\n    /* \"#utility.yul\":1138:1148   */\n  dup1\n    /* \"#utility.yul\":1134:1136   */\n  0x40\n    /* \"#utility.yul\":1127:1149   */\n  mstore\n    /* \"#utility.yul\":917:1155   */\n  pop\n    /* \"#utility.yul\":874:1155   */\n  pop\n  pop\n  jump\t// out\n    /* \"#utility.yul\":1161:1290   */\ntag_60:\n    /* \"#utility.yul\":1195:1201   */\n  0x00\n    /* \"#utility.yul\":1222:1242   */\n  tag_79\n  tag_52\n  jump\t// in\ntag_79:\n    /* \"#utility.yul\":1212:1242   */\n  swap1\n  pop\n    /* \"#utility.yul\":1251:1284   */\n  tag_80\n    /* \"#utility.yul\":1279:1283   */\n  dup3\n    /* \"#utility.yul\":1271:1277   */\n  dup3\n    /* \"#utility.yul\":1251:1284   */\n  tag_59\n  jump\t// in\ntag_80:\n    /* \"#utility.yul\":1161:1290   */\n  swap2\n  swap1\n  pop\n  jump\t// out\n    /* \"#utility.yul\":1296:1604   */\ntag_61:\n    /* \"#utility.yul\":1358:1362   */\n  0x00\n    /* \"#utility.yul\":1448:1466   */\n  0xffffffffffffffff\n    /* \"#utility.yul\":1440:1446   */\n  dup3\n    /* \"#utility.yul\":1437:1467   */\n  gt\n    /* \"#utility.yul\":1434:1490   */\n  iszero\n  tag_82\n  jumpi\n    /* \"#utility.yul\":1470:1488   */\n  tag_83\n  tag_58\n  jump\t// in\ntag_83:\n    /* \"#utility.yul\":1434:1490   */\ntag_82:\n    /* \"#utility.yul\":1508:1537   */\n  tag_84\n    /* \"#utility.yul\":1530:1536   */\n  dup3\n    /* \"#utility.yul\":1508:1537   */\n  tag_57\n  jump\t// in\ntag_84:\n    /* \"#utility.yul\":1500:1537   */\n  swap1\n  pop\n    /* \"#utility.yul\":1592:1596   */\n  0x20\n    /* \"#utility.yul\":1586:1590   */\n  dup2\n    /* \"#utility.yul\":1582:1597   */\n  add\n    /* \"#utility.yul\":1574:1597   */\n  swap1\n  pop\n    /* \"#utility.yul\":1296:1604   */\n  swap2\n  swap1\n  pop\n  jump\t// out\n    /* \"#utility.yul\":1610:1917   */\ntag_62:\n    /* \"#utility.yul\":1678:1679   */\n  0x00\n    /* \"#utility.yul\":1688:1801   */\ntag_86:\n    /* \"#utility.yul\":1702:1708   */\n  dup4\n    /* \"#utility.yul\":1699:1700   */\n  dup2\n    /* \"#utility.yul\":1696:1709   */\n  lt\n    /* \"#utility.yul\":1688:1801   */\n  iszero\n  tag_88\n  jumpi\n    /* \"#utility.yul\":1787:1788   */\n  dup1\n    /* \"#utility.yul\":1782:1785   */\n  dup3\n    /* \"#utility.yul\":1778:1789   */\n  add\n    /* \"#utility.yul\":1772:1790   */\n  mload\n    /* \"#utility.yul\":1768:1769   */\n  dup2\n    /* \"#utility.yul\":1763:1766   */\n  dup5\n    /* \"#utility.yul\":1759:1770   */\n  add\n    /* \"#utility.yul\":1752:1791   */\n  mstore\n    /* \"#utility.yul\":1724:1726   */\n  0x20\n    /* \"#utility.yul\":1721:1722   */\n  dup2\n    /* \"#utility.yul\":1717:1727   */\n  add\n    /* \"#utility.yul\":1712:1727   */\n  swap1\n  pop\n    /* \"#utility.yul\":1688:1801   */\n  jump(tag_86)\ntag_88:\n    /* \"#utility.yul\":1819:1825   */\n  dup4\n    /* \"#utility.yul\":1816:1817   */\n  dup2\n    /* \"#utility.yul\":1813:1826   */\n  gt\n    /* \"#utility.yul\":1810:1911   */\n  iszero\n  tag_89\n  jumpi\n    /* \"#utility.yul\":1899:1900   */\n  0x00\n    /* \"#utility.yul\":1890:1896   */\n  dup5\n    /* \"#utility.yul\":1885:1888   */\n  dup5\n    /* \"#utility.yul\":1881:1897   */\n  add\n    /* \"#utility.yul\":1874:1901   */\n  mstore\n    /* \"#utility.yul\":1810:1911   */\ntag_89:\n    /* \"#utility.yul\":1659:1917   */\n  pop\n    /* \"#utility.yul\":1610:1917   */\n  pop\n  pop\n  pop\n  jump\t// out\n    /* \"#utility.yul\":1923:2344   */\ntag_63:\n    /* \"#utility.yul\":2012:2017   */\n  0x00\n    /* \"#utility.yul\":2037:2103   */\n  tag_91\n    /* \"#utility.yul\":2053:2102   */\n  tag_92\n    /* \"#utility.yul\":2095:2101   */\n  dup5\n    /* \"#utility.yul\":2053:2102   */\n  tag_61\n  jump\t// in\ntag_92:\n    /* \"#utility.yul\":2037:2103   */\n  tag_60\n  jump\t// in\ntag_91:\n    /* \"#utility.yul\":2028:2103   */\n  swap1\n  pop\n    /* \"#utility.yul\":2126:2132   */\n  dup3\n    /* \"#utility.yul\":2119:2124   */\n  dup2\n    /* \"#utility.yul\":2112:2133   */\n  mstore\n    /* \"#utility.yul\":2164:2168   */\n  0x20\n    /* \"#utility.yul\":2157:2162   */\n  dup2\n    /* \"#utility.yul\":2153:2169   */\n  add\n    /* \"#utility.yul\":2202:2205   */\n  dup5\n    /* \"#utility.yul\":2193:2199   */\n  dup5\n    /* \"#utility.yul\":2188:2191   */\n  dup5\n    /* \"#utility.yul\":2184:2200   */\n  add\n    /* \"#utility.yul\":2181:2206   */\n  gt\n    /* \"#utility.yul\":2178:2290   */\n  iszero\n  tag_93\n  jumpi\n    /* \"#utility.yul\":2209:2288   */\n  tag_94\n  tag_56\n  jump\t// in\ntag_94:\n    /* \"#utility.yul\":2178:2290   */\ntag_93:\n    /* \"#utility.yul\":2299:2338   */\n  tag_95\n    /* \"#utility.yul\":2331:2337   */\n  dup5\n    /* \"#utility.yul\":2326:2329   */\n  dup3\n    /* \"#utility.yul\":2321:2324   */\n  dup6\n    /* \"#utility.yul\":2299:2338   */\n  tag_62\n  jump\t// in\ntag_95:\n    /* \"#utility.yul\":2018:2344   */\n  pop\n    /* \"#utility.yul\":1923:2344   */\n  swap4\n  swap3\n  pop\n  pop\n  pop\n  jump\t// out\n    /* \"#utility.yul\":2364:2719   */\ntag_64:\n    /* \"#utility.yul\":2431:2436   */\n  0x00\n    /* \"#utility.yul\":2480:2483   */\n  dup3\n    /* \"#utility.yul\":2473:2477   */\n  0x1f\n    /* \"#utility.yul\":2465:2471   */\n  dup4\n    /* \"#utility.yul\":2461:2478   */\n  add\n    /* \"#utility.yul\":2457:2484   */\n  slt\n    /* \"#utility.yul\":2447:2569   */\n  tag_97\n  jumpi\n    /* \"#utility.yul\":2488:2567   */\n  tag_98\n  tag_55\n  jump\t// in\ntag_98:\n    /* \"#utility.yul\":2447:2569   */\ntag_97:\n    /* \"#utility.yul\":2598:2604   */\n  dup2\n    /* \"#utility.yul\":2592:2605   */\n  mload\n    /* \"#utility.yul\":2623:2713   */\n  tag_99\n    /* \"#utility.yul\":2709:2712   */\n  dup5\n    /* \"#utility.yul\":2701:2707   */\n  dup3\n    /* \"#utility.yul\":2694:2698   */\n  0x20\n    /* \"#utility.yul\":2686:2692   */\n  dup7\n    /* \"#utility.yul\":2682:2699   */\n  add\n    /* \"#utility.yul\":2623:2713   */\n  tag_63\n  jump\t// in\ntag_99:\n    /* \"#utility.yul\":2614:2713   */\n  swap2\n  pop\n    /* \"#utility.yul\":2437:2719   */\n  pop\n    /* \"#utility.yul\":2364:2719   */\n  swap3\n  swap2\n  pop\n  pop\n  jump\t// out\n    /* \"#utility.yul\":2725:3578   */\ntag_3:\n    /* \"#utility.yul\":2824:2830   */\n  0x00\n    /* \"#utility.yul\":2832:2838   */\n  dup1\n    /* \"#utility.yul\":2881:2883   */\n  0x40\n    /* \"#utility.yul\":2869:2878   */\n  dup4\n    /* \"#utility.yul\":2860:2867   */\n  dup6\n    /* \"#utility.yul\":2856:2879   */\n  sub\n    /* \"#utility.yul\":2852:2884   */\n  slt\n    /* \"#utility.yul\":2849:2968   */\n  iszero\n  tag_101\n  jumpi\n    /* \"#utility.yul\":2887:2966   */\n  tag_102\n  tag_53\n  jump\t// in\ntag_102:\n    /* \"#utility.yul\":2849:2968   */\ntag_101:\n    /* \"#utility.yul\":3028:3029   */\n  0x00\n    /* \"#utility.yul\":3017:3026   */\n  dup4\n    /* \"#utility.yul\":3013:3030   */\n  add\n    /* \"#utility.yul\":3007:3031   */\n  mload\n    /* \"#utility.yul\":3058:3076   */\n  0xffffffffffffffff\n    /* \"#utility.yul\":3050:3056   */\n  dup2\n    /* \"#utility.yul\":3047:3077   */\n  gt\n    /* \"#utility.yul\":3044:3161   */\n  iszero\n  tag_103\n  jumpi\n    /* \"#utility.yul\":3080:3159   */\n  tag_104\n  tag_54\n  jump\t// in\ntag_104:\n    /* \"#utility.yul\":3044:3161   */\ntag_103:\n    /* \"#utility.yul\":3185:3259   */\n  tag_105\n    /* \"#utility.yul\":3251:3258   */\n  dup6\n    /* \"#utility.yul\":3242:3248   */\n  dup3\n    /* \"#utility.yul\":3231:3240   */\n  dup7\n    /* \"#utility.yul\":3227:3249   */\n  add\n    /* \"#utility.yul\":3185:3259   */\n  tag_64\n  jump\t// in\ntag_105:\n    /* \"#utility.yul\":3175:3259   */\n  swap3\n  pop\n    /* \"#utility.yul\":2978:3269   */\n  pop\n    /* \"#utility.yul\":3329:3331   */\n  0x20\n    /* \"#utility.yul\":3318:3327   */\n  dup4\n    /* \"#utility.yul\":3314:3332   */\n  add\n    /* \"#utility.yul\":3308:3333   */\n  mload\n    /* \"#utility.yul\":3360:3378   */\n  0xffffffffffffffff\n    /* \"#utility.yul\":3352:3358   */\n  dup2\n    /* \"#utility.yul\":3349:3379   */\n  gt\n    /* \"#utility.yul\":3346:3463   */\n  iszero\n  tag_106\n  jumpi\n    /* \"#utility.yul\":3382:3461   */\n  tag_107\n  tag_54\n  jump\t// in\ntag_107:\n    /* \"#utility.yul\":3346:3463   */\ntag_106:\n    /* \"#utility.yul\":3487:3561   */\n  tag_108\n    /* \"#utility.yul\":3553:3560   */\n  dup6\n    /* \"#utility.yul\":3544:3550   */\n  dup3\n    /* \"#utility.yul\":3533:3542   */\n  dup7\n    /* \"#utility.yul\":3529:3551   */\n  add\n    /* \"#utility.yul\":3487:3561   */\n  tag_64\n  jump\t// in\ntag_108:\n    /* \"#utility.yul\":3477:3561   */\n  swap2\n  pop\n    /* \"#utility.yul\":3279:3571   */\n  pop\n    /* \"#utility.yul\":2725:3578   */\n  swap3\n  pop\n  swap3\n  swap1\n  pop\n  jump\t// out\n    /* \"#utility.yul\":3584:3764   */\ntag_65:\n    /* \"#utility.yul\":3632:3709   */\n  0x4e487b7100000000000000000000000000000000000000000000000000000000\n    /* \"#utility.yul\":3629:3630   */\n  0x00\n    /* \"#utility.yul\":3622:3710   */\n  mstore\n    /* \"#utility.yul\":3729:3733   */\n  0x22\n    /* \"#utility.yul\":3726:3727   */\n  0x04\n    /* \"#utility.yul\":3719:3734   */\n  mstore\n    /* \"#utility.yul\":3753:3757   */\n  0x24\n    /* \"#utility.yul\":3750:3751   */\n  0x00\n    /* \"#utility.yul\":3743:3758   */\n  revert\n    /* \"#utility.yul\":3770:4090   */\ntag_42:\n    /* \"#utility.yul\":3814:3820   */\n  0x00\n    /* \"#utility.yul\":3851:3852   */\n  0x02\n    /* \"#utility.yul\":3845:3849   */\n  dup3\n    /* \"#utility.yul\":3841:3853   */\n  div\n    /* \"#utility.yul\":3831:3853   */\n  swap1\n  pop\n    /* \"#utility.yul\":3898:3899   */\n  0x01\n    /* \"#utility.yul\":3892:3896   */\n  dup3\n    /* \"#utility.yul\":3888:3900   */\n  and\n    /* \"#utility.yul\":3919:3937   */\n  dup1\n    /* \"#utility.yul\":3909:3990   */\n  tag_111\n  jumpi\n    /* \"#utility.yul\":3975:3979   */\n  0x7f\n    /* \"#utility.yul\":3967:3973   */\n  dup3\n    /* \"#utility.yul\":3963:3980   */\n  and\n    /* \"#utility.yul\":3953:3980   */\n  swap2\n  pop\n    /* \"#utility.yul\":3909:3990   */\ntag_111:\n    /* \"#utility.yul\":4037:4039   */\n  0x20\n    /* \"#utility.yul\":4029:4035   */\n  dup3\n    /* \"#utility.yul\":4026:4040   */\n  lt\n    /* \"#utility.yul\":4006:4024   */\n  dup2\n    /* \"#utility.yul\":4003:4041   */\n  sub\n    /* \"#utility.yul\":4000:4084   */\n  tag_112\n  jumpi\n    /* \"#utility.yul\":4056:4074   */\n  tag_113\n  tag_65\n  jump\t// in\ntag_113:\n    /* \"#utility.yul\":4000:4084   */\ntag_112:\n    /* \"#utility.yul\":3821:4090   */\n  pop\n    /* \"#utility.yul\":3770:4090   */\n  swap2\n  swap1\n  pop\n  jump\t// out\n    /* \"ERC20/ERC20.sol\":1443:13639  contract ERC20 is Context, AccessControlEnumerable, IERC20, IERC20Metadata, Pausable {... */\ntag_15:\n  dataSize(sub_0)\n  dup1\n  dataOffset(sub_0)\n  0x00\n  codecopy\n  0x00\n  return\nstop\n\nsub_0: assembly {\n        /* \"ERC20/ERC20.sol\":1443:13639  contract ERC20 is Context, AccessControlEnumerable, IERC20, IERC20Metadata, Pausable {... */\n      mstore(0x40, 0x80)\n      callvalue\n      dup1\n      iszero\n      tag_1\n      jumpi\n      0x00\n      dup1\n      revert\n    tag_1:\n      pop\n      jumpi(tag_2, lt(calldatasize, 0x04))\n      shr(0xe0, calldataload(0x00))\n      dup1\n      0x70a08231\n      gt\n      tag_26\n      jumpi\n      dup1\n      0xa9059cbb\n      gt\n      tag_27\n      jumpi\n      dup1\n      0xa9059cbb\n      eq\n      tag_20\n      jumpi\n      dup1\n      0xc6e858fe\n      eq\n      tag_21\n      jumpi\n      dup1\n      0xca15c873\n      eq\n      tag_22\n      jumpi\n      dup1\n      0xd0bbb0d7\n      eq\n      tag_23\n      jumpi\n      dup1\n      0xd547741f\n      eq\n      tag_24\n      jumpi\n      dup1\n      0xdd62ed3e\n      eq\n      tag_25\n      jumpi\n      jump(tag_2)\n    tag_27:\n      dup1\n      0x70a08231\n      eq\n      tag_14\n      jumpi\n      dup1\n      0x9010d07c\n      eq\n      tag_15\n      jumpi\n      dup1\n      0x91d14854\n      eq\n      tag_16\n      jumpi\n      dup1\n      0x95d89b41\n      eq\n      tag_17\n      jumpi\n      dup1\n      0xa217fddf\n      eq\n      tag_18\n      jumpi\n      dup1\n      0xa457c2d7\n      eq\n      tag_19\n      jumpi\n      jump(tag_2)\n    tag_26:\n      dup1\n      0x248a9ca3\n      gt\n      tag_28\n      jumpi\n      dup1\n      0x248a9ca3\n      eq\n      tag_8\n      jumpi\n      dup1\n      0x2f2ff15d\n      eq\n      tag_9\n      jumpi\n      dup1\n      0x313ce567\n      eq\n      tag_10\n      jumpi\n      dup1\n      0x39509351\n      eq\n      tag_11\n      jumpi\n      dup1\n      0x5394a892\n      eq\n      tag_12\n      jumpi\n      dup1\n      0x5c975abb\n      eq\n      tag_13\n      jumpi\n      jump(tag_2)\n    tag_28:\n      dup1\n      0x01ffc9a7\n      eq\n      tag_3\n      jumpi\n      dup1\n      0x06fdde03\n      eq\n      tag_4\n      jumpi\n      dup1\n      0x095ea7b3\n      eq\n      tag_5\n      jumpi\n      dup1\n      0x18160ddd\n      eq\n      tag_6\n      jumpi\n      dup1\n      0x23b872dd\n      eq\n      tag_7\n      jumpi\n    tag_2:\n      0x00\n      dup1\n      revert\n        /* \"ERC20/access/AccessControlEnumerable.sol\":568:782  function supportsInterface(bytes4 interfaceId) public view virtual override returns (bool) {... */\n    tag_3:\n      tag_29\n      0x04\n      dup1\n      calldatasize\n      sub\n      dup2\n      add\n      swap1\n      tag_30\n      swap2\n      swap1\n      tag_31\n      jump\t// in\n    tag_30:\n      tag_32\n      jump\t// in\n    tag_29:\n      mload(0x40)\n      tag_33\n      swap2\n      swap1\n      tag_34\n      jump\t// in\n    tag_33:\n      mload(0x40)\n      dup1\n      swap2\n      sub\n      swap1\n      return\n        /* \"ERC20/ERC20.sol\":2350:2450  function name() public view virtual override returns (string memory) {... */\n    tag_4:\n      tag_35\n      tag_36\n      jump\t// in\n    tag_35:\n      mload(0x40)\n      tag_37\n      swap2\n      swap1\n      tag_38\n      jump\t// in\n    tag_37:\n      mload(0x40)\n      dup1\n      swap2\n      sub\n      swap1\n      return\n        /* \"ERC20/ERC20.sol\":5178:5347  function approve(address spender, uint256 amount) public virtual override returns (bool) {... */\n    tag_5:\n      tag_39\n      0x04\n      dup1\n      calldatasize\n      sub\n      dup2\n      add\n      swap1\n      tag_40\n      swap2\n      swap1\n      tag_41\n      jump\t// in\n    tag_40:\n      tag_42\n      jump\t// in\n    tag_39:\n      mload(0x40)\n      tag_43\n      swap2\n      swap1\n      tag_34\n      jump\t// in\n    tag_43:\n      mload(0x40)\n      dup1\n      swap2\n      sub\n      swap1\n      return\n        /* \"ERC20/ERC20.sol\":3879:3987  function totalSupply() public view virtual override returns (uint256) {... */\n    tag_6:\n      tag_44\n      tag_45\n      jump\t// in\n    tag_44:\n      mload(0x40)\n      tag_46\n      swap2\n      swap1\n      tag_47\n      jump\t// in\n    tag_46:\n      mload(0x40)\n      dup1\n      swap2\n      sub\n      swap1\n      return\n        /* \"ERC20/ERC20.sol\":5829:6426  function transferFrom(... */\n    tag_7:\n      tag_48\n      0x04\n      dup1\n      calldatasize\n      sub\n      dup2\n      add\n      swap1\n      tag_49\n      swap2\n      swap1\n      tag_50\n      jump\t// in\n    tag_49:\n      tag_51\n      jump\t// in\n    tag_48:\n      mload(0x40)\n      tag_52\n      swap2\n      swap1\n      tag_34\n      jump\t// in\n    tag_52:\n      mload(0x40)\n      dup1\n      swap2\n      sub\n      swap1\n      return\n        /* \"ERC20/access/AccessControl.sol\":4031:4154  function getRoleAdmin(bytes32 role) public view override returns (bytes32) {... */\n    tag_8:\n      tag_53\n      0x04\n      dup1\n      calldatasize\n      sub\n      dup2\n      add\n      swap1\n      tag_54\n      swap2\n      swap1\n      tag_55\n      jump\t// in\n    tag_54:\n      tag_56\n      jump\t// in\n    tag_53:\n      mload(0x40)\n      tag_57\n      swap2\n      swap1\n      tag_58\n      jump\t// in\n    tag_57:\n      mload(0x40)\n      dup1\n      swap2\n      sub\n      swap1\n      return\n        /* \"ERC20/access/AccessControlEnumerable.sol\":1926:2122  function grantRole(bytes32 role, address account) public virtual override(AccessControl, IAccessControl) {... */\n    tag_9:\n      tag_59\n      0x04\n      dup1\n      calldatasize\n      sub\n      dup2\n      add\n      swap1\n      tag_60\n      swap2\n      swap1\n      tag_61\n      jump\t// in\n    tag_60:\n      tag_62\n      jump\t// in\n    tag_59:\n      stop\n        /* \"ERC20/ERC20.sol\":3312:3404  function decimals() public view virtual override returns (uint8) {... */\n    tag_10:\n      tag_63\n      tag_64\n      jump\t// in\n    tag_63:\n      mload(0x40)\n      tag_65\n      swap2\n      swap1\n      tag_66\n      jump\t// in\n    tag_65:\n      mload(0x40)\n      dup1\n      swap2\n      sub\n      swap1\n      return\n        /* \"ERC20/ERC20.sol\":6835:7142  function increaseAllowance(address spender, uint256 addedValue) public virtual returns (bool) {... */\n    tag_11:\n      tag_67\n      0x04\n      dup1\n      calldatasize\n      sub\n      dup2\n      add\n      swap1\n      tag_68\n      swap2\n      swap1\n      tag_41\n      jump\t// in\n    tag_68:\n      tag_69\n      jump\t// in\n    tag_67:\n      mload(0x40)\n      tag_70\n      swap2\n      swap1\n      tag_34\n      jump\t// in\n    tag_70:\n      mload(0x40)\n      dup1\n      swap2\n      sub\n      swap1\n      return\n        /* \"ERC20/ERC20.sol\":3412:3608  function pausedOptions() public virtual returns (bool) {... */\n    tag_12:\n      tag_71\n      tag_72\n      jump\t// in\n    tag_71:\n      mload(0x40)\n      tag_73\n      swap2\n      swap1\n      tag_34\n      jump\t// in\n    tag_73:\n      mload(0x40)\n      dup1\n      swap2\n      sub\n      swap1\n      return\n        /* \"ERC20/security/Pausable.sol\":1041:1125  function paused() public view virtual returns (bool) {... */\n    tag_13:\n      tag_74\n      tag_75\n      jump\t// in\n    tag_74:\n      mload(0x40)\n      tag_76\n      swap2\n      swap1\n      tag_34\n      jump\t// in\n    tag_76:\n      mload(0x40)\n      dup1\n      swap2\n      sub\n      swap1\n      return\n        /* \"ERC20/ERC20.sol\":4050:4177  function balanceOf(address account) public view virtual override returns (uint256) {... */\n    tag_14:\n      tag_77\n      0x04\n      dup1\n      calldatasize\n      sub\n      dup2\n      add\n      swap1\n      tag_78\n      swap2\n      swap1\n      tag_79\n      jump\t// in\n    tag_78:\n      tag_80\n      jump\t// in\n    tag_77:\n      mload(0x40)\n      tag_81\n      swap2\n      swap1\n      tag_47\n      jump\t// in\n    tag_81:\n      mload(0x40)\n      dup1\n      swap2\n      sub\n      swap1\n      return\n        /* \"ERC20/access/AccessControlEnumerable.sol\":1381:1526  function getRoleMember(bytes32 role, uint256 index) public view override returns (address) {... */\n    tag_15:\n      tag_82\n      0x04\n      dup1\n      calldatasize\n      sub\n      dup2\n      add\n      swap1\n      tag_83\n      swap2\n      swap1\n      tag_84\n      jump\t// in\n    tag_83:\n      tag_85\n      jump\t// in\n    tag_82:\n      mload(0x40)\n      tag_86\n      swap2\n      swap1\n      tag_87\n      jump\t// in\n    tag_86:\n      mload(0x40)\n      dup1\n      swap2\n      sub\n      swap1\n      return\n        /* \"ERC20/access/AccessControl.sol\":2916:3055  function hasRole(bytes32 role, address account) public view override returns (bool) {... */\n    tag_16:\n      tag_88\n      0x04\n      dup1\n      calldatasize\n      sub\n      dup2\n      add\n      swap1\n      tag_89\n      swap2\n      swap1\n      tag_61\n      jump\t// in\n    tag_89:\n      tag_90\n      jump\t// in\n    tag_88:\n      mload(0x40)\n      tag_91\n      swap2\n      swap1\n      tag_34\n      jump\t// in\n    tag_91:\n      mload(0x40)\n      dup1\n      swap2\n      sub\n      swap1\n      return\n        /* \"ERC20/ERC20.sol\":2569:2673  function symbol() public view virtual override returns (string memory) {... */\n    tag_17:\n      tag_92\n      tag_93\n      jump\t// in\n    tag_92:\n      mload(0x40)\n      tag_94\n      swap2\n      swap1\n      tag_38\n      jump\t// in\n    tag_94:\n      mload(0x40)\n      dup1\n      swap2\n      sub\n      swap1\n      return\n        /* \"ERC20/access/AccessControl.sol\":2007:2056  bytes32 public constant DEFAULT_ADMIN_ROLE = 0x00 */\n    tag_18:\n      tag_95\n      tag_96\n      jump\t// in\n    tag_95:\n      mload(0x40)\n      tag_97\n      swap2\n      swap1\n      tag_58\n      jump\t// in\n    tag_97:\n      mload(0x40)\n      dup1\n      swap2\n      sub\n      swap1\n      return\n        /* \"ERC20/ERC20.sol\":7645:8150  function decreaseAllowance(address spender, uint256 subtractedValue) public virtual returns (bool) {... */\n    tag_19:\n      tag_98\n      0x04\n      dup1\n      calldatasize\n      sub\n      dup2\n      add\n      swap1\n      tag_99\n      swap2\n      swap1\n      tag_41\n      jump\t// in\n    tag_99:\n      tag_100\n      jump\t// in\n    tag_98:\n      mload(0x40)\n      tag_101\n      swap2\n      swap1\n      tag_34\n      jump\t// in\n    tag_101:\n      mload(0x40)\n      dup1\n      swap2\n      sub\n      swap1\n      return\n        /* \"ERC20/ERC20.sol\":4504:4819  function transfer(address recipient, uint256 amount) public virtual override returns (bool) {... */\n    tag_20:\n      tag_102\n      0x04\n      dup1\n      calldatasize\n      sub\n      dup2\n      add\n      swap1\n      tag_103\n      swap2\n      swap1\n      tag_41\n      jump\t// in\n    tag_103:\n      tag_104\n      jump\t// in\n    tag_102:\n      mload(0x40)\n      tag_105\n      swap2\n      swap1\n      tag_34\n      jump\t// in\n    tag_105:\n      mload(0x40)\n      dup1\n      swap2\n      sub\n      swap1\n      return\n        /* \"ERC20/ERC20.sol\":3616:3816  function unPausedOptions() public virtual returns (bool) {... */\n    tag_21:\n      tag_106\n      tag_107\n      jump\t// in\n    tag_106:\n      mload(0x40)\n      tag_108\n      swap2\n      swap1\n      tag_34\n      jump\t// in\n    tag_108:\n      mload(0x40)\n      dup1\n      swap2\n      sub\n      swap1\n      return\n        /* \"ERC20/access/AccessControlEnumerable.sol\":1700:1834  function getRoleMemberCount(bytes32 role) public view override returns (uint256) {... */\n    tag_22:\n      tag_109\n      0x04\n      dup1\n      calldatasize\n      sub\n      dup2\n      add\n      swap1\n      tag_110\n      swap2\n      swap1\n      tag_55\n      jump\t// in\n    tag_110:\n      tag_111\n      jump\t// in\n    tag_109:\n      mload(0x40)\n      tag_112\n      swap2\n      swap1\n      tag_47\n      jump\t// in\n    tag_112:\n      mload(0x40)\n      dup1\n      swap2\n      sub\n      swap1\n      return\n        /* \"ERC20/ERC20.sol\":1758:1788  uint256 public MAX_TOKEN_COUNT */\n    tag_23:\n      tag_113\n      tag_114\n      jump\t// in\n    tag_113:\n      mload(0x40)\n      tag_115\n      swap2\n      swap1\n      tag_47\n      jump\t// in\n    tag_115:\n      mload(0x40)\n      dup1\n      swap2\n      sub\n      swap1\n      return\n        /* \"ERC20/access/AccessControlEnumerable.sol\":2215:2504  function revokeRole(bytes32 role, address account) public virtual override(AccessControl, IAccessControl) {... */\n    tag_24:\n      tag_116\n      0x04\n      dup1\n      calldatasize\n      sub\n      dup2\n      add\n      swap1\n      tag_117\n      swap2\n      swap1\n      tag_61\n      jump\t// in\n    tag_117:\n      tag_118\n      jump\t// in\n    tag_116:\n      stop\n        /* \"ERC20/ERC20.sol\":4880:5031  function allowance(address owner, address spender) public view virtual override returns (uint256) {... */\n    tag_25:\n      tag_119\n      0x04\n      dup1\n      calldatasize\n      sub\n      dup2\n      add\n      swap1\n      tag_120\n      swap2\n      swap1\n      tag_121\n      jump\t// in\n    tag_120:\n      tag_122\n      jump\t// in\n    tag_119:\n      mload(0x40)\n      tag_123\n      swap2\n      swap1\n      tag_47\n      jump\t// in\n    tag_123:\n      mload(0x40)\n      dup1\n      swap2\n      sub\n      swap1\n      return\n        /* \"ERC20/access/AccessControlEnumerable.sol\":568:782  function supportsInterface(bytes4 interfaceId) public view virtual override returns (bool) {... */\n    tag_32:\n        /* \"ERC20/access/AccessControlEnumerable.sol\":653:657  bool */\n      0x00\n        /* \"ERC20/access/AccessControlEnumerable.sol\":692:734  type(IAccessControlEnumerable).interfaceId */\n      0x5a05180f00000000000000000000000000000000000000000000000000000000\n        /* \"ERC20/access/AccessControlEnumerable.sol\":677:734  interfaceId == type(IAccessControlEnumerable).interfaceId */\n      not(0xffffffffffffffffffffffffffffffffffffffffffffffffffffffff)\n      and\n        /* \"ERC20/access/AccessControlEnumerable.sol\":677:688  interfaceId */\n      dup3\n        /* \"ERC20/access/AccessControlEnumerable.sol\":677:734  interfaceId == type(IAccessControlEnumerable).interfaceId */\n      not(0xffffffffffffffffffffffffffffffffffffffffffffffffffffffff)\n      and\n      eq\n        /* \"ERC20/access/AccessControlEnumerable.sol\":677:774  interfaceId == type(IAccessControlEnumerable).interfaceId || super.supportsInterface(interfaceId) */\n      dup1\n      tag_127\n      jumpi\n      pop\n        /* \"ERC20/access/AccessControlEnumerable.sol\":738:774  super.supportsInterface(interfaceId) */\n      tag_128\n        /* \"ERC20/access/AccessControlEnumerable.sol\":762:773  interfaceId */\n      dup3\n        /* \"ERC20/access/AccessControlEnumerable.sol\":738:761  super.supportsInterface */\n      tag_129\n        /* \"ERC20/access/AccessControlEnumerable.sol\":738:774  super.supportsInterface(interfaceId) */\n      jump\t// in\n    tag_128:\n        /* \"ERC20/access/AccessControlEnumerable.sol\":677:774  interfaceId == type(IAccessControlEnumerable).interfaceId || super.supportsInterface(interfaceId) */\n    tag_127:\n        /* \"ERC20/access/AccessControlEnumerable.sol\":670:774  return interfaceId == type(IAccessControlEnumerable).interfaceId || super.supportsInterface(interfaceId) */\n      swap1\n      pop\n        /* \"ERC20/access/AccessControlEnumerable.sol\":568:782  function supportsInterface(bytes4 interfaceId) public view virtual override returns (bool) {... */\n      swap2\n      swap1\n      pop\n      jump\t// out\n        /* \"ERC20/ERC20.sol\":2350:2450  function name() public view virtual override returns (string memory) {... */\n    tag_36:\n        /* \"ERC20/ERC20.sol\":2404:2417  string memory */\n      0x60\n        /* \"ERC20/ERC20.sol\":2437:2442  _name */\n      0x06\n        /* \"ERC20/ERC20.sol\":2430:2442  return _name */\n      dup1\n      sload\n      tag_131\n      swap1\n      tag_132\n      jump\t// in\n    tag_131:\n      dup1\n      0x1f\n      add\n      0x20\n      dup1\n      swap2\n      div\n      mul\n      0x20\n      add\n      mload(0x40)\n      swap1\n      dup2\n      add\n      0x40\n      mstore\n      dup1\n      swap3\n      swap2\n      swap1\n      dup2\n      dup2\n      mstore\n      0x20\n      add\n      dup3\n      dup1\n      sload\n      tag_133\n      swap1\n      tag_132\n      jump\t// in\n    tag_133:\n      dup1\n      iszero\n      tag_134\n      jumpi\n      dup1\n      0x1f\n      lt\n      tag_135\n      jumpi\n      0x0100\n      dup1\n      dup4\n      sload\n      div\n      mul\n      dup4\n      mstore\n      swap2\n      0x20\n      add\n      swap2\n      jump(tag_134)\n    tag_135:\n      dup3\n      add\n      swap2\n      swap1\n      0x00\n      mstore\n      keccak256(0x00, 0x20)\n      swap1\n    tag_136:\n      dup2\n      sload\n      dup2\n      mstore\n      swap1\n      0x01\n      add\n      swap1\n      0x20\n      add\n      dup1\n      dup4\n      gt\n      tag_136\n      jumpi\n      dup3\n      swap1\n      sub\n      0x1f\n      and\n      dup3\n      add\n      swap2\n    tag_134:\n      pop\n      pop\n      pop\n      pop\n      pop\n      swap1\n      pop\n        /* \"ERC20/ERC20.sol\":2350:2450  function name() public view virtual override returns (string memory) {... */\n      swap1\n      jump\t// out\n        /* \"ERC20/ERC20.sol\":5178:5347  function approve(address spender, uint256 amount) public virtual override returns (bool) {... */\n    tag_42:\n        /* \"ERC20/ERC20.sol\":5261:5265  bool */\n      0x00\n        /* \"ERC20/ERC20.sol\":5278:5317  _approve(_msgSender(), spender, amount) */\n      tag_138\n        /* \"ERC20/ERC20.sol\":5287:5299  _msgSender() */\n      tag_139\n        /* \"ERC20/ERC20.sol\":5287:5297  _msgSender */\n      tag_140\n        /* \"ERC20/ERC20.sol\":5287:5299  _msgSender() */\n      jump\t// in\n    tag_139:\n        /* \"ERC20/ERC20.sol\":5301:5308  spender */\n      dup5\n        /* \"ERC20/ERC20.sol\":5310:5316  amount */\n      dup5\n        /* \"ERC20/ERC20.sol\":5278:5286  _approve */\n      tag_141\n        /* \"ERC20/ERC20.sol\":5278:5317  _approve(_msgSender(), spender, amount) */\n      jump\t// in\n    tag_138:\n        /* \"ERC20/ERC20.sol\":5335:5339  true */\n      0x01\n        /* \"ERC20/ERC20.sol\":5328:5339  return true */\n      swap1\n      pop\n        /* \"ERC20/ERC20.sol\":5178:5347  function approve(address spender, uint256 amount) public virtual override returns (bool) {... */\n      swap3\n      swap2\n      pop\n      pop\n      jump\t// out\n        /* \"ERC20/ERC20.sol\":3879:3987  function totalSupply() public view virtual override returns (uint256) {... */\n    tag_45:\n        /* \"ERC20/ERC20.sol\":3940:3947  uint256 */\n      0x00\n        /* \"ERC20/ERC20.sol\":3967:3979  _totalSupply */\n      sload(0x05)\n        /* \"ERC20/ERC20.sol\":3960:3979  return _totalSupply */\n      swap1\n      pop\n        /* \"ERC20/ERC20.sol\":3879:3987  function totalSupply() public view virtual override returns (uint256) {... */\n      swap1\n      jump\t// out\n        /* \"ERC20/ERC20.sol\":5829:6426  function transferFrom(... */\n    tag_51:\n        /* \"ERC20/ERC20.sol\":5969:5973  bool */\n      0x00\n        /* \"ERC20/ERC20.sol\":6007:6019  _msgSender() */\n      tag_144\n        /* \"ERC20/ERC20.sol\":6007:6017  _msgSender */\n      tag_140\n        /* \"ERC20/ERC20.sol\":6007:6019  _msgSender() */\n      jump\t// in\n    tag_144:\n        /* \"ERC20/ERC20.sol\":5994:6019  recipient != _msgSender() */\n      0xffffffffffffffffffffffffffffffffffffffff\n      and\n        /* \"ERC20/ERC20.sol\":5994:6003  recipient */\n      dup4\n        /* \"ERC20/ERC20.sol\":5994:6019  recipient != _msgSender() */\n      0xffffffffffffffffffffffffffffffffffffffff\n      and\n      sub\n        /* \"ERC20/ERC20.sol\":5986:6078  require(recipient != _msgSender(), \"ERC20: caller and recipient must be different address.\") */\n      tag_145\n      jumpi\n      mload(0x40)\n      0x08c379a000000000000000000000000000000000000000000000000000000000\n      dup2\n      mstore\n      0x04\n      add\n      tag_146\n      swap1\n      tag_147\n      jump\t// in\n    tag_146:\n      mload(0x40)\n      dup1\n      swap2\n      sub\n      swap1\n      revert\n    tag_145:\n        /* \"ERC20/ERC20.sol\":6091:6127  _transfer(sender, recipient, amount) */\n      tag_148\n        /* \"ERC20/ERC20.sol\":6101:6107  sender */\n      dup5\n        /* \"ERC20/ERC20.sol\":6109:6118  recipient */\n      dup5\n        /* \"ERC20/ERC20.sol\":6120:6126  amount */\n      dup5\n        /* \"ERC20/ERC20.sol\":6091:6100  _transfer */\n      tag_149\n        /* \"ERC20/ERC20.sol\":6091:6127  _transfer(sender, recipient, amount) */\n      jump\t// in\n    tag_148:\n        /* \"ERC20/ERC20.sol\":6140:6164  uint256 currentAllowance */\n      0x00\n        /* \"ERC20/ERC20.sol\":6167:6178  _allowances */\n      0x04\n        /* \"ERC20/ERC20.sol\":6167:6186  _allowances[sender] */\n      0x00\n        /* \"ERC20/ERC20.sol\":6179:6185  sender */\n      dup7\n        /* \"ERC20/ERC20.sol\":6167:6186  _allowances[sender] */\n      0xffffffffffffffffffffffffffffffffffffffff\n      and\n      0xffffffffffffffffffffffffffffffffffffffff\n      and\n      dup2\n      mstore\n      0x20\n      add\n      swap1\n      dup2\n      mstore\n      0x20\n      add\n      0x00\n      keccak256\n        /* \"ERC20/ERC20.sol\":6167:6200  _allowances[sender][_msgSender()] */\n      0x00\n        /* \"ERC20/ERC20.sol\":6187:6199  _msgSender() */\n      tag_150\n        /* \"ERC20/ERC20.sol\":6187:6197  _msgSender */\n      tag_140\n        /* \"ERC20/ERC20.sol\":6187:6199  _msgSender() */\n      jump\t// in\n    tag_150:\n        /* \"ERC20/ERC20.sol\":6167:6200  _allowances[sender][_msgSender()] */\n      0xffffffffffffffffffffffffffffffffffffffff\n      and\n      0xffffffffffffffffffffffffffffffffffffffff\n      and\n      dup2\n      mstore\n      0x20\n      add\n      swap1\n      dup2\n      mstore\n      0x20\n      add\n      0x00\n      keccak256\n      sload\n        /* \"ERC20/ERC20.sol\":6140:6200  uint256 currentAllowance = _allowances[sender][_msgSender()] */\n      swap1\n      pop\n        /* \"ERC20/ERC20.sol\":6239:6245  amount */\n      dup3\n        /* \"ERC20/ERC20.sol\":6219:6235  currentAllowance */\n      dup2\n        /* \"ERC20/ERC20.sol\":6219:6245  currentAllowance >= amount */\n      lt\n      iszero\n        /* \"ERC20/ERC20.sol\":6211:6290  require(currentAllowance >= amount, \"ERC20: transfer amount exceeds allowance\") */\n      tag_151\n      jumpi\n      mload(0x40)\n      0x08c379a000000000000000000000000000000000000000000000000000000000\n      dup2\n      mstore\n      0x04\n      add\n      tag_152\n      swap1\n      tag_153\n      jump\t// in\n    tag_152:\n      mload(0x40)\n      dup1\n      swap2\n      sub\n      swap1\n      revert\n    tag_151:\n        /* \"ERC20/ERC20.sol\":6326:6383  _approve(sender, _msgSender(), currentAllowance - amount) */\n      tag_154\n        /* \"ERC20/ERC20.sol\":6335:6341  sender */\n      dup6\n        /* \"ERC20/ERC20.sol\":6343:6355  _msgSender() */\n      tag_155\n        /* \"ERC20/ERC20.sol\":6343:6353  _msgSender */\n      tag_140\n        /* \"ERC20/ERC20.sol\":6343:6355  _msgSender() */\n      jump\t// in\n    tag_155:\n        /* \"ERC20/ERC20.sol\":6376:6382  amount */\n      dup6\n        /* \"ERC20/ERC20.sol\":6357:6373  currentAllowance */\n      dup5\n        /* \"ERC20/ERC20.sol\":6357:6382  currentAllowance - amount */\n      sub\n        /* \"ERC20/ERC20.sol\":6326:6334  _approve */\n      tag_141\n        /* \"ERC20/ERC20.sol\":6326:6383  _approve(sender, _msgSender(), currentAllowance - amount) */\n      jump\t// in\n    tag_154:\n        /* \"ERC20/ERC20.sol\":6414:6418  true */\n      0x01\n        /* \"ERC20/ERC20.sol\":6407:6418  return true */\n      swap2\n      pop\n      pop\n        /* \"ERC20/ERC20.sol\":5829:6426  function transferFrom(... */\n      swap4\n      swap3\n      pop\n      pop\n      pop\n      jump\t// out\n        /* \"ERC20/access/AccessControl.sol\":4031:4154  function getRoleAdmin(bytes32 role) public view override returns (bytes32) {... */\n    tag_56:\n        /* \"ERC20/access/AccessControl.sol\":4097:4104  bytes32 */\n      0x00\n        /* \"ERC20/access/AccessControl.sol\":4124:4130  _roles */\n      dup1\n        /* \"ERC20/access/AccessControl.sol\":4124:4136  _roles[role] */\n      0x00\n        /* \"ERC20/access/AccessControl.sol\":4131:4135  role */\n      dup4\n        /* \"ERC20/access/AccessControl.sol\":4124:4136  _roles[role] */\n      dup2\n      mstore\n      0x20\n      add\n      swap1\n      dup2\n      mstore\n      0x20\n      add\n      0x00\n      keccak256\n        /* \"ERC20/access/AccessControl.sol\":4124:4146  _roles[role].adminRole */\n      0x01\n      add\n      sload\n        /* \"ERC20/access/AccessControl.sol\":4117:4146  return _roles[role].adminRole */\n      swap1\n      pop\n        /* \"ERC20/access/AccessControl.sol\":4031:4154  function getRoleAdmin(bytes32 role) public view override returns (bytes32) {... */\n      swap2\n      swap1\n      pop\n      jump\t// out\n        /* \"ERC20/access/AccessControlEnumerable.sol\":1926:2122  function grantRole(bytes32 role, address account) public virtual override(AccessControl, IAccessControl) {... */\n    tag_62:\n        /* \"ERC20/access/AccessControlEnumerable.sol\":2042:2072  super.grantRole(role, account) */\n      tag_158\n        /* \"ERC20/access/AccessControlEnumerable.sol\":2058:2062  role */\n      dup3\n        /* \"ERC20/access/AccessControlEnumerable.sol\":2064:2071  account */\n      dup3\n        /* \"ERC20/access/AccessControlEnumerable.sol\":2042:2057  super.grantRole */\n      tag_159\n        /* \"ERC20/access/AccessControlEnumerable.sol\":2042:2072  super.grantRole(role, account) */\n      jump\t// in\n    tag_158:\n        /* \"ERC20/access/AccessControlEnumerable.sol\":2083:2114  _roleMembers[role].add(account) */\n      tag_160\n        /* \"ERC20/access/AccessControlEnumerable.sol\":2106:2113  account */\n      dup2\n        /* \"ERC20/access/AccessControlEnumerable.sol\":2083:2095  _roleMembers */\n      0x01\n        /* \"ERC20/access/AccessControlEnumerable.sol\":2083:2101  _roleMembers[role] */\n      0x00\n        /* \"ERC20/access/AccessControlEnumerable.sol\":2096:2100  role */\n      dup6\n        /* \"ERC20/access/AccessControlEnumerable.sol\":2083:2101  _roleMembers[role] */\n      dup2\n      mstore\n      0x20\n      add\n      swap1\n      dup2\n      mstore\n      0x20\n      add\n      0x00\n      keccak256\n        /* \"ERC20/access/AccessControlEnumerable.sol\":2083:2105  _roleMembers[role].add */\n      tag_125\n      swap1\n        /* \"ERC20/access/AccessControlEnumerable.sol\":2083:2114  _roleMembers[role].add(account) */\n      swap2\n      swap1\n      0xffffffff\n      and\n      jump\t// in\n    tag_160:\n      pop\n        /* \"ERC20/access/AccessControlEnumerable.sol\":1926:2122  function grantRole(bytes32 role, address account) public virtual override(AccessControl, IAccessControl) {... */\n      pop\n      pop\n      jump\t// out\n        /* \"ERC20/ERC20.sol\":3312:3404  function decimals() public view virtual override returns (uint8) {... */\n    tag_64:\n        /* \"ERC20/ERC20.sol\":3370:3375  uint8 */\n      0x00\n        /* \"ERC20/ERC20.sol\":3395:3396  8 */\n      0x08\n        /* \"ERC20/ERC20.sol\":3388:3396  return 8 */\n      swap1\n      pop\n        /* \"ERC20/ERC20.sol\":3312:3404  function decimals() public view virtual override returns (uint8) {... */\n      swap1\n      jump\t// out\n        /* \"ERC20/ERC20.sol\":6835:7142  function increaseAllowance(address spender, uint256 addedValue) public virtual returns (bool) {... */\n    tag_69:\n        /* \"ERC20/ERC20.sol\":6923:6927  bool */\n      0x00\n        /* \"ERC20/ERC20.sol\":6948:6989  hasRole(DEFAULT_ADMIN_ROLE, _msgSender()) */\n      tag_163\n        /* \"ERC20/access/AccessControl.sol\":2052:2056  0x00 */\n      0x00\n        /* \"ERC20/ERC20.sol\":6956:6974  DEFAULT_ADMIN_ROLE */\n      dup1\n      shl\n        /* \"ERC20/ERC20.sol\":6976:6988  _msgSender() */\n      tag_164\n        /* \"ERC20/ERC20.sol\":6976:6986  _msgSender */\n      tag_140\n        /* \"ERC20/ERC20.sol\":6976:6988  _msgSender() */\n      jump\t// in\n    tag_164:\n        /* \"ERC20/ERC20.sol\":6948:6955  hasRole */\n      tag_90\n        /* \"ERC20/ERC20.sol\":6948:6989  hasRole(DEFAULT_ADMIN_ROLE, _msgSender()) */\n      jump\t// in\n    tag_163:\n        /* \"ERC20/ERC20.sol\":6940:7021  require(hasRole(DEFAULT_ADMIN_ROLE, _msgSender()), \"ERC20: must have admin role\") */\n      tag_165\n      jumpi\n      mload(0x40)\n      0x08c379a000000000000000000000000000000000000000000000000000000000\n      dup2\n      mstore\n      0x04\n      add\n      tag_166\n      swap1\n      tag_167\n      jump\t// in\n    tag_166:\n      mload(0x40)\n      dup1\n      swap2\n      sub\n      swap1\n      revert\n    tag_165:\n        /* \"ERC20/ERC20.sol\":7032:7112  _approve(_msgSender(), spender, _allowances[_msgSender()][spender] + addedValue) */\n      tag_168\n        /* \"ERC20/ERC20.sol\":7041:7053  _msgSender() */\n      tag_169\n        /* \"ERC20/ERC20.sol\":7041:7051  _msgSender */\n      tag_140\n        /* \"ERC20/ERC20.sol\":7041:7053  _msgSender() */\n      jump\t// in\n    tag_169:\n        /* \"ERC20/ERC20.sol\":7055:7062  spender */\n      dup5\n        /* \"ERC20/ERC20.sol\":7101:7111  addedValue */\n      dup5\n        /* \"ERC20/ERC20.sol\":7064:7075  _allowances */\n      0x04\n        /* \"ERC20/ERC20.sol\":7064:7089  _allowances[_msgSender()] */\n      0x00\n        /* \"ERC20/ERC20.sol\":7076:7088  _msgSender() */\n      tag_170\n        /* \"ERC20/ERC20.sol\":7076:7086  _msgSender */\n      tag_140\n        /* \"ERC20/ERC20.sol\":7076:7088  _msgSender() */\n      jump\t// in\n    tag_170:\n        /* \"ERC20/ERC20.sol\":7064:7089  _allowances[_msgSender()] */\n      0xffffffffffffffffffffffffffffffffffffffff\n      and\n      0xffffffffffffffffffffffffffffffffffffffff\n      and\n      dup2\n      mstore\n      0x20\n      add\n      swap1\n      dup2\n      mstore\n      0x20\n      add\n      0x00\n      keccak256\n        /* \"ERC20/ERC20.sol\":7064:7098  _allowances[_msgSender()][spender] */\n      0x00\n        /* \"ERC20/ERC20.sol\":7090:7097  spender */\n      dup9\n        /* \"ERC20/ERC20.sol\":7064:7098  _allowances[_msgSender()][spender] */\n      0xffffffffffffffffffffffffffffffffffffffff\n      and\n      0xffffffffffffffffffffffffffffffffffffffff\n      and\n      dup2\n      mstore\n      0x20\n      add\n      swap1\n      dup2\n      mstore\n      0x20\n      add\n      0x00\n      keccak256\n      sload\n        /* \"ERC20/ERC20.sol\":7064:7111  _allowances[_msgSender()][spender] + addedValue */\n      tag_171\n      swap2\n      swap1\n      tag_172\n      jump\t// in\n    tag_171:\n        /* \"ERC20/ERC20.sol\":7032:7040  _approve */\n      tag_141\n        /* \"ERC20/ERC20.sol\":7032:7112  _approve(_msgSender(), spender, _allowances[_msgSender()][spender] + addedValue) */\n      jump\t// in\n    tag_168:\n        /* \"ERC20/ERC20.sol\":7130:7134  true */\n      0x01\n        /* \"ERC20/ERC20.sol\":7123:7134  return true */\n      swap1\n      pop\n        /* \"ERC20/ERC20.sol\":6835:7142  function increaseAllowance(address spender, uint256 addedValue) public virtual returns (bool) {... */\n      swap3\n      swap2\n      pop\n      pop\n      jump\t// out\n        /* \"ERC20/ERC20.sol\":3412:3608  function pausedOptions() public virtual returns (bool) {... */\n    tag_72:\n        /* \"ERC20/ERC20.sol\":3461:3465  bool */\n      0x00\n        /* \"ERC20/ERC20.sol\":3486:3527  hasRole(DEFAULT_ADMIN_ROLE, _msgSender()) */\n      tag_174\n        /* \"ERC20/access/AccessControl.sol\":2052:2056  0x00 */\n      0x00\n        /* \"ERC20/ERC20.sol\":3494:3512  DEFAULT_ADMIN_ROLE */\n      dup1\n      shl\n        /* \"ERC20/ERC20.sol\":3514:3526  _msgSender() */\n      tag_175\n        /* \"ERC20/ERC20.sol\":3514:3524  _msgSender */\n      tag_140\n        /* \"ERC20/ERC20.sol\":3514:3526  _msgSender() */\n      jump\t// in\n    tag_175:\n        /* \"ERC20/ERC20.sol\":3486:3493  hasRole */\n      tag_90\n        /* \"ERC20/ERC20.sol\":3486:3527  hasRole(DEFAULT_ADMIN_ROLE, _msgSender()) */\n      jump\t// in\n    tag_174:\n        /* \"ERC20/ERC20.sol\":3478:3559  require(hasRole(DEFAULT_ADMIN_ROLE, _msgSender()), \"ERC20: must have admin role\") */\n      tag_176\n      jumpi\n      mload(0x40)\n      0x08c379a000000000000000000000000000000000000000000000000000000000\n      dup2\n      mstore\n      0x04\n      add\n      tag_177\n      swap1\n      tag_167\n      jump\t// in\n    tag_177:\n      mload(0x40)\n      dup1\n      swap2\n      sub\n      swap1\n      revert\n    tag_176:\n        /* \"ERC20/ERC20.sol\":3570:3578  _pause() */\n      tag_178\n        /* \"ERC20/ERC20.sol\":3570:3576  _pause */\n      tag_179\n        /* \"ERC20/ERC20.sol\":3570:3578  _pause() */\n      jump\t// in\n    tag_178:\n        /* \"ERC20/ERC20.sol\":3596:3600  true */\n      0x01\n        /* \"ERC20/ERC20.sol\":3589:3600  return true */\n      swap1\n      pop\n        /* \"ERC20/ERC20.sol\":3412:3608  function pausedOptions() public virtual returns (bool) {... */\n      swap1\n      jump\t// out\n        /* \"ERC20/security/Pausable.sol\":1041:1125  function paused() public view virtual returns (bool) {... */\n    tag_75:\n        /* \"ERC20/security/Pausable.sol\":1088:1092  bool */\n      0x00\n        /* \"ERC20/security/Pausable.sol\":1111:1118  _paused */\n      0x02\n      0x00\n      swap1\n      sload\n      swap1\n      0x0100\n      exp\n      swap1\n      div\n      0xff\n      and\n        /* \"ERC20/security/Pausable.sol\":1104:1118  return _paused */\n      swap1\n      pop\n        /* \"ERC20/security/Pausable.sol\":1041:1125  function paused() public view virtual returns (bool) {... */\n      swap1\n      jump\t// out\n        /* \"ERC20/ERC20.sol\":4050:4177  function balanceOf(address account) public view virtual override returns (uint256) {... */\n    tag_80:\n        /* \"ERC20/ERC20.sol\":4124:4131  uint256 */\n      0x00\n        /* \"ERC20/ERC20.sol\":4151:4160  _balances */\n      0x03\n        /* \"ERC20/ERC20.sol\":4151:4169  _balances[account] */\n      0x00\n        /* \"ERC20/ERC20.sol\":4161:4168  account */\n      dup4\n        /* \"ERC20/ERC20.sol\":4151:4169  _balances[account] */\n      0xffffffffffffffffffffffffffffffffffffffff\n      and\n      0xffffffffffffffffffffffffffffffffffffffff\n      and\n      dup2\n      mstore\n      0x20\n      add\n      swap1\n      dup2\n      mstore\n      0x20\n      add\n      0x00\n      keccak256\n      sload\n        /* \"ERC20/ERC20.sol\":4144:4169  return _balances[account] */\n      swap1\n      pop\n        /* \"ERC20/ERC20.sol\":4050:4177  function balanceOf(address account) public view virtual override returns (uint256) {... */\n      swap2\n      swap1\n      pop\n      jump\t// out\n        /* \"ERC20/access/AccessControlEnumerable.sol\":1381:1526  function getRoleMember(bytes32 role, uint256 index) public view override returns (address) {... */\n    tag_85:\n        /* \"ERC20/access/AccessControlEnumerable.sol\":1463:1470  address */\n      0x00\n        /* \"ERC20/access/AccessControlEnumerable.sol\":1490:1518  _roleMembers[role].at(index) */\n      tag_183\n        /* \"ERC20/access/AccessControlEnumerable.sol\":1512:1517  index */\n      dup3\n        /* \"ERC20/access/AccessControlEnumerable.sol\":1490:1502  _roleMembers */\n      0x01\n        /* \"ERC20/access/AccessControlEnumerable.sol\":1490:1508  _roleMembers[role] */\n      0x00\n        /* \"ERC20/access/AccessControlEnumerable.sol\":1503:1507  role */\n      dup7\n        /* \"ERC20/access/AccessControlEnumerable.sol\":1490:1508  _roleMembers[role] */\n      dup2\n      mstore\n      0x20\n      add\n      swap1\n      dup2\n      mstore\n      0x20\n      add\n      0x00\n      keccak256\n        /* \"ERC20/access/AccessControlEnumerable.sol\":1490:1511  _roleMembers[role].at */\n      tag_184\n      swap1\n        /* \"ERC20/access/AccessControlEnumerable.sol\":1490:1518  _roleMembers[role].at(index) */\n      swap2\n      swap1\n      0xffffffff\n      and\n      jump\t// in\n    tag_183:\n        /* \"ERC20/access/AccessControlEnumerable.sol\":1483:1518  return _roleMembers[role].at(index) */\n      swap1\n      pop\n        /* \"ERC20/access/AccessControlEnumerable.sol\":1381:1526  function getRoleMember(bytes32 role, uint256 index) public view override returns (address) {... */\n      swap3\n      swap2\n      pop\n      pop\n      jump\t// out\n        /* \"ERC20/access/AccessControl.sol\":2916:3055  function hasRole(bytes32 role, address account) public view override returns (bool) {... */\n    tag_90:\n        /* \"ERC20/access/AccessControl.sol\":2994:2998  bool */\n      0x00\n        /* \"ERC20/access/AccessControl.sol\":3018:3024  _roles */\n      dup1\n        /* \"ERC20/access/AccessControl.sol\":3018:3030  _roles[role] */\n      0x00\n        /* \"ERC20/access/AccessControl.sol\":3025:3029  role */\n      dup5\n        /* \"ERC20/access/AccessControl.sol\":3018:3030  _roles[role] */\n      dup2\n      mstore\n      0x20\n      add\n      swap1\n      dup2\n      mstore\n      0x20\n      add\n      0x00\n      keccak256\n        /* \"ERC20/access/AccessControl.sol\":3018:3038  _roles[role].members */\n      0x00\n      add\n        /* \"ERC20/access/AccessControl.sol\":3018:3047  _roles[role].members[account] */\n      0x00\n        /* \"ERC20/access/AccessControl.sol\":3039:3046  account */\n      dup4\n        /* \"ERC20/access/AccessControl.sol\":3018:3047  _roles[role].members[account] */\n      0xffffffffffffffffffffffffffffffffffffffff\n      and\n      0xffffffffffffffffffffffffffffffffffffffff\n      and\n      dup2\n      mstore\n      0x20\n      add\n      swap1\n      dup2\n      mstore\n      0x20\n      add\n      0x00\n      keccak256\n      0x00\n      swap1\n      sload\n      swap1\n      0x0100\n      exp\n      swap1\n      div\n      0xff\n      and\n        /* \"ERC20/access/AccessControl.sol\":3011:3047  return _roles[role].members[account] */\n      swap1\n      pop\n        /* \"ERC20/access/AccessControl.sol\":2916:3055  function hasRole(bytes32 role, address account) public view override returns (bool) {... */\n      swap3\n      swap2\n      pop\n      pop\n      jump\t// out\n        /* \"ERC20/ERC20.sol\":2569:2673  function symbol() public view virtual override returns (string memory) {... */\n    tag_93:\n        /* \"ERC20/ERC20.sol\":2625:2638  string memory */\n      0x60\n        /* \"ERC20/ERC20.sol\":2658:2665  _symbol */\n      0x07\n        /* \"ERC20/ERC20.sol\":2651:2665  return _symbol */\n      dup1\n      sload\n      tag_187\n      swap1\n      tag_132\n      jump\t// in\n    tag_187:\n      dup1\n      0x1f\n      add\n      0x20\n      dup1\n      swap2\n      div\n      mul\n      0x20\n      add\n      mload(0x40)\n      swap1\n      dup2\n      add\n      0x40\n      mstore\n      dup1\n      swap3\n      swap2\n      swap1\n      dup2\n      dup2\n      mstore\n      0x20\n      add\n      dup3\n      dup1\n      sload\n      tag_188\n      swap1\n      tag_132\n      jump\t// in\n    tag_188:\n      dup1\n      iszero\n      tag_189\n      jumpi\n      dup1\n      0x1f\n      lt\n      tag_190\n      jumpi\n      0x0100\n      dup1\n      dup4\n      sload\n      div\n      mul\n      dup4\n      mstore\n      swap2\n      0x20\n      add\n      swap2\n      jump(tag_189)\n    tag_190:\n      dup3\n      add\n      swap2\n      swap1\n      0x00\n      mstore\n      keccak256(0x00, 0x20)\n      swap1\n    tag_191:\n      dup2\n      sload\n      dup2\n      mstore\n      swap1\n      0x01\n      add\n      swap1\n      0x20\n      add\n      dup1\n      dup4\n      gt\n      tag_191\n      jumpi\n      dup3\n      swap1\n      sub\n      0x1f\n      and\n      dup3\n      add\n      swap2\n    tag_189:\n      pop\n      pop\n      pop\n      pop\n      pop\n      swap1\n      pop\n        /* \"ERC20/ERC20.sol\":2569:2673  function symbol() public view virtual override returns (string memory) {... */\n      swap1\n      jump\t// out\n        /* \"ERC20/access/AccessControl.sol\":2007:2056  bytes32 public constant DEFAULT_ADMIN_ROLE = 0x00 */\n    tag_96:\n        /* \"ERC20/access/AccessControl.sol\":2052:2056  0x00 */\n      0x00\n        /* \"ERC20/access/AccessControl.sol\":2007:2056  bytes32 public constant DEFAULT_ADMIN_ROLE = 0x00 */\n      dup1\n      shl\n      dup2\n      jump\t// out\n        /* \"ERC20/ERC20.sol\":7645:8150  function decreaseAllowance(address spender, uint256 subtractedValue) public virtual returns (bool) {... */\n    tag_100:\n        /* \"ERC20/ERC20.sol\":7738:7742  bool */\n      0x00\n        /* \"ERC20/ERC20.sol\":7763:7804  hasRole(DEFAULT_ADMIN_ROLE, _msgSender()) */\n      tag_193\n        /* \"ERC20/access/AccessControl.sol\":2052:2056  0x00 */\n      0x00\n        /* \"ERC20/ERC20.sol\":7771:7789  DEFAULT_ADMIN_ROLE */\n      dup1\n      shl\n        /* \"ERC20/ERC20.sol\":7791:7803  _msgSender() */\n      tag_194\n        /* \"ERC20/ERC20.sol\":7791:7801  _msgSender */\n      tag_140\n        /* \"ERC20/ERC20.sol\":7791:7803  _msgSender() */\n      jump\t// in\n    tag_194:\n        /* \"ERC20/ERC20.sol\":7763:7770  hasRole */\n      tag_90\n        /* \"ERC20/ERC20.sol\":7763:7804  hasRole(DEFAULT_ADMIN_ROLE, _msgSender()) */\n      jump\t// in\n    tag_193:\n        /* \"ERC20/ERC20.sol\":7755:7836  require(hasRole(DEFAULT_ADMIN_ROLE, _msgSender()), \"ERC20: must have admin role\") */\n      tag_195\n      jumpi\n      mload(0x40)\n      0x08c379a000000000000000000000000000000000000000000000000000000000\n      dup2\n      mstore\n      0x04\n      add\n      tag_196\n      swap1\n      tag_167\n      jump\t// in\n    tag_196:\n      mload(0x40)\n      dup1\n      swap2\n      sub\n      swap1\n      revert\n    tag_195:\n        /* \"ERC20/ERC20.sol\":7847:7871  uint256 currentAllowance */\n      0x00\n        /* \"ERC20/ERC20.sol\":7874:7885  _allowances */\n      0x04\n        /* \"ERC20/ERC20.sol\":7874:7899  _allowances[_msgSender()] */\n      0x00\n        /* \"ERC20/ERC20.sol\":7886:7898  _msgSender() */\n      tag_197\n        /* \"ERC20/ERC20.sol\":7886:7896  _msgSender */\n      tag_140\n        /* \"ERC20/ERC20.sol\":7886:7898  _msgSender() */\n      jump\t// in\n    tag_197:\n        /* \"ERC20/ERC20.sol\":7874:7899  _allowances[_msgSender()] */\n      0xffffffffffffffffffffffffffffffffffffffff\n      and\n      0xffffffffffffffffffffffffffffffffffffffff\n      and\n      dup2\n      mstore\n      0x20\n      add\n      swap1\n      dup2\n      mstore\n      0x20\n      add\n      0x00\n      keccak256\n        /* \"ERC20/ERC20.sol\":7874:7908  _allowances[_msgSender()][spender] */\n      0x00\n        /* \"ERC20/ERC20.sol\":7900:7907  spender */\n      dup6\n        /* \"ERC20/ERC20.sol\":7874:7908  _allowances[_msgSender()][spender] */\n      0xffffffffffffffffffffffffffffffffffffffff\n      and\n      0xffffffffffffffffffffffffffffffffffffffff\n      and\n      dup2\n      mstore\n      0x20\n      add\n      swap1\n      dup2\n      mstore\n      0x20\n      add\n      0x00\n      keccak256\n      sload\n        /* \"ERC20/ERC20.sol\":7847:7908  uint256 currentAllowance = _allowances[_msgSender()][spender] */\n      swap1\n      pop\n        /* \"ERC20/ERC20.sol\":7947:7962  subtractedValue */\n      dup3\n        /* \"ERC20/ERC20.sol\":7927:7943  currentAllowance */\n      dup2\n        /* \"ERC20/ERC20.sol\":7927:7962  currentAllowance >= subtractedValue */\n      lt\n      iszero\n        /* \"ERC20/ERC20.sol\":7919:8004  require(currentAllowance >= subtractedValue, \"ERC20: decreased allowance below zero\") */\n      tag_198\n      jumpi\n      mload(0x40)\n      0x08c379a000000000000000000000000000000000000000000000000000000000\n      dup2\n      mstore\n      0x04\n      add\n      tag_199\n      swap1\n      tag_200\n      jump\t// in\n    tag_199:\n      mload(0x40)\n      dup1\n      swap2\n      sub\n      swap1\n      revert\n    tag_198:\n        /* \"ERC20/ERC20.sol\":8040:8107  _approve(_msgSender(), spender, currentAllowance - subtractedValue) */\n      tag_201\n        /* \"ERC20/ERC20.sol\":8049:8061  _msgSender() */\n      tag_202\n        /* \"ERC20/ERC20.sol\":8049:8059  _msgSender */\n      tag_140\n        /* \"ERC20/ERC20.sol\":8049:8061  _msgSender() */\n      jump\t// in\n    tag_202:\n        /* \"ERC20/ERC20.sol\":8063:8070  spender */\n      dup6\n        /* \"ERC20/ERC20.sol\":8091:8106  subtractedValue */\n      dup6\n        /* \"ERC20/ERC20.sol\":8072:8088  currentAllowance */\n      dup5\n        /* \"ERC20/ERC20.sol\":8072:8106  currentAllowance - subtractedValue */\n      sub\n        /* \"ERC20/ERC20.sol\":8040:8048  _approve */\n      tag_141\n        /* \"ERC20/ERC20.sol\":8040:8107  _approve(_msgSender(), spender, currentAllowance - subtractedValue) */\n      jump\t// in\n    tag_201:\n        /* \"ERC20/ERC20.sol\":8138:8142  true */\n      0x01\n        /* \"ERC20/ERC20.sol\":8131:8142  return true */\n      swap2\n      pop\n      pop\n        /* \"ERC20/ERC20.sol\":7645:8150  function decreaseAllowance(address spender, uint256 subtractedValue) public virtual returns (bool) {... */\n      swap3\n      swap2\n      pop\n      pop\n      jump\t// out\n        /* \"ERC20/ERC20.sol\":4504:4819  function transfer(address recipient, uint256 amount) public virtual override returns (bool) {... */\n    tag_104:\n        /* \"ERC20/ERC20.sol\":4590:4594  bool */\n      0x00\n        /* \"ERC20/ERC20.sol\":4642:4654  _msgSender() */\n      tag_204\n        /* \"ERC20/ERC20.sol\":4642:4652  _msgSender */\n      tag_140\n        /* \"ERC20/ERC20.sol\":4642:4654  _msgSender() */\n      jump\t// in\n    tag_204:\n        /* \"ERC20/ERC20.sol\":4629:4654  recipient != _msgSender() */\n      0xffffffffffffffffffffffffffffffffffffffff\n      and\n        /* \"ERC20/ERC20.sol\":4629:4638  recipient */\n      dup4\n        /* \"ERC20/ERC20.sol\":4629:4654  recipient != _msgSender() */\n      0xffffffffffffffffffffffffffffffffffffffff\n      and\n      sub\n        /* \"ERC20/ERC20.sol\":4607:4736  require(... */\n      tag_205\n      jumpi\n      mload(0x40)\n      0x08c379a000000000000000000000000000000000000000000000000000000000\n      dup2\n      mstore\n      0x04\n      add\n      tag_206\n      swap1\n      tag_147\n      jump\t// in\n    tag_206:\n      mload(0x40)\n      dup1\n      swap2\n      sub\n      swap1\n      revert\n    tag_205:\n        /* \"ERC20/ERC20.sol\":4747:4789  _transfer(_msgSender(), recipient, amount) */\n      tag_207\n        /* \"ERC20/ERC20.sol\":4757:4769  _msgSender() */\n      tag_208\n        /* \"ERC20/ERC20.sol\":4757:4767  _msgSender */\n      tag_140\n        /* \"ERC20/ERC20.sol\":4757:4769  _msgSender() */\n      jump\t// in\n    tag_208:\n        /* \"ERC20/ERC20.sol\":4771:4780  recipient */\n      dup5\n        /* \"ERC20/ERC20.sol\":4782:4788  amount */\n      dup5\n        /* \"ERC20/ERC20.sol\":4747:4756  _transfer */\n      tag_149\n        /* \"ERC20/ERC20.sol\":4747:4789  _transfer(_msgSender(), recipient, amount) */\n      jump\t// in\n    tag_207:\n        /* \"ERC20/ERC20.sol\":4807:4811  true */\n      0x01\n        /* \"ERC20/ERC20.sol\":4800:4811  return true */\n      swap1\n      pop\n        /* \"ERC20/ERC20.sol\":4504:4819  function transfer(address recipient, uint256 amount) public virtual override returns (bool) {... */\n      swap3\n      swap2\n      pop\n      pop\n      jump\t// out\n        /* \"ERC20/ERC20.sol\":3616:3816  function unPausedOptions() public virtual returns (bool) {... */\n    tag_107:\n        /* \"ERC20/ERC20.sol\":3667:3671  bool */\n      0x00\n        /* \"ERC20/ERC20.sol\":3692:3733  hasRole(DEFAULT_ADMIN_ROLE, _msgSender()) */\n      tag_210\n        /* \"ERC20/access/AccessControl.sol\":2052:2056  0x00 */\n      0x00\n        /* \"ERC20/ERC20.sol\":3700:3718  DEFAULT_ADMIN_ROLE */\n      dup1\n      shl\n        /* \"ERC20/ERC20.sol\":3720:3732  _msgSender() */\n      tag_211\n        /* \"ERC20/ERC20.sol\":3720:3730  _msgSender */\n      tag_140\n        /* \"ERC20/ERC20.sol\":3720:3732  _msgSender() */\n      jump\t// in\n    tag_211:\n        /* \"ERC20/ERC20.sol\":3692:3699  hasRole */\n      tag_90\n        /* \"ERC20/ERC20.sol\":3692:3733  hasRole(DEFAULT_ADMIN_ROLE, _msgSender()) */\n      jump\t// in\n    tag_210:\n        /* \"ERC20/ERC20.sol\":3684:3765  require(hasRole(DEFAULT_ADMIN_ROLE, _msgSender()), \"ERC20: must have admin role\") */\n      tag_212\n      jumpi\n      mload(0x40)\n      0x08c379a000000000000000000000000000000000000000000000000000000000\n      dup2\n      mstore\n      0x04\n      add\n      tag_213\n      swap1\n      tag_167\n      jump\t// in\n    tag_213:\n      mload(0x40)\n      dup1\n      swap2\n      sub\n      swap1\n      revert\n    tag_212:\n        /* \"ERC20/ERC20.sol\":3776:3786  _unpause() */\n      tag_214\n        /* \"ERC20/ERC20.sol\":3776:3784  _unpause */\n      tag_215\n        /* \"ERC20/ERC20.sol\":3776:3786  _unpause() */\n      jump\t// in\n    tag_214:\n        /* \"ERC20/ERC20.sol\":3804:3808  true */\n      0x01\n        /* \"ERC20/ERC20.sol\":3797:3808  return true */\n      swap1\n      pop\n        /* \"ERC20/ERC20.sol\":3616:3816  function unPausedOptions() public virtual returns (bool) {... */\n      swap1\n      jump\t// out\n        /* \"ERC20/access/AccessControlEnumerable.sol\":1700:1834  function getRoleMemberCount(bytes32 role) public view override returns (uint256) {... */\n    tag_111:\n        /* \"ERC20/access/AccessControlEnumerable.sol\":1772:1779  uint256 */\n      0x00\n        /* \"ERC20/access/AccessControlEnumerable.sol\":1799:1826  _roleMembers[role].length() */\n      tag_217\n        /* \"ERC20/access/AccessControlEnumerable.sol\":1799:1811  _roleMembers */\n      0x01\n        /* \"ERC20/access/AccessControlEnumerable.sol\":1799:1817  _roleMembers[role] */\n      0x00\n        /* \"ERC20/access/AccessControlEnumerable.sol\":1812:1816  role */\n      dup5\n        /* \"ERC20/access/AccessControlEnumerable.sol\":1799:1817  _roleMembers[role] */\n      dup2\n      mstore\n      0x20\n      add\n      swap1\n      dup2\n      mstore\n      0x20\n      add\n      0x00\n      keccak256\n        /* \"ERC20/access/AccessControlEnumerable.sol\":1799:1824  _roleMembers[role].length */\n      tag_218\n        /* \"ERC20/access/AccessControlEnumerable.sol\":1799:1826  _roleMembers[role].length() */\n      jump\t// in\n    tag_217:\n        /* \"ERC20/access/AccessControlEnumerable.sol\":1792:1826  return _roleMembers[role].length() */\n      swap1\n      pop\n        /* \"ERC20/access/AccessControlEnumerable.sol\":1700:1834  function getRoleMemberCount(bytes32 role) public view override returns (uint256) {... */\n      swap2\n      swap1\n      pop\n      jump\t// out\n        /* \"ERC20/ERC20.sol\":1758:1788  uint256 public MAX_TOKEN_COUNT */\n    tag_114:\n      sload(0x08)\n      dup2\n      jump\t// out\n        /* \"ERC20/access/AccessControlEnumerable.sol\":2215:2504  function revokeRole(bytes32 role, address account) public virtual override(AccessControl, IAccessControl) {... */\n    tag_118:\n        /* \"ERC20/access/AccessControlEnumerable.sol\":2351:2363  _msgSender() */\n      tag_220\n        /* \"ERC20/access/AccessControlEnumerable.sol\":2351:2361  _msgSender */\n      tag_140\n        /* \"ERC20/access/AccessControlEnumerable.sol\":2351:2363  _msgSender() */\n      jump\t// in\n    tag_220:\n        /* \"ERC20/access/AccessControlEnumerable.sol\":2340:2363  account != _msgSender() */\n      0xffffffffffffffffffffffffffffffffffffffff\n      and\n        /* \"ERC20/access/AccessControlEnumerable.sol\":2340:2347  account */\n      dup2\n        /* \"ERC20/access/AccessControlEnumerable.sol\":2340:2363  account != _msgSender() */\n      0xffffffffffffffffffffffffffffffffffffffff\n      and\n      sub\n        /* \"ERC20/access/AccessControlEnumerable.sol\":2332:2409  require(account != _msgSender(), \"ERC20: caller can not revoke own address.\") */\n      tag_221\n      jumpi\n      mload(0x40)\n      0x08c379a000000000000000000000000000000000000000000000000000000000\n      dup2\n      mstore\n      0x04\n      add\n      tag_222\n      swap1\n      tag_223\n      jump\t// in\n    tag_222:\n      mload(0x40)\n      dup1\n      swap2\n      sub\n      swap1\n      revert\n    tag_221:\n        /* \"ERC20/access/AccessControlEnumerable.sol\":2420:2451  super.revokeRole(role, account) */\n      tag_224\n        /* \"ERC20/access/AccessControlEnumerable.sol\":2437:2441  role */\n      dup3\n        /* \"ERC20/access/AccessControlEnumerable.sol\":2443:2450  account */\n      dup3\n        /* \"ERC20/access/AccessControlEnumerable.sol\":2420:2436  super.revokeRole */\n      tag_225\n        /* \"ERC20/access/AccessControlEnumerable.sol\":2420:2451  super.revokeRole(role, account) */\n      jump\t// in\n    tag_224:\n        /* \"ERC20/access/AccessControlEnumerable.sol\":2462:2496  _roleMembers[role].remove(account) */\n      tag_226\n        /* \"ERC20/access/AccessControlEnumerable.sol\":2488:2495  account */\n      dup2\n        /* \"ERC20/access/AccessControlEnumerable.sol\":2462:2474  _roleMembers */\n      0x01\n        /* \"ERC20/access/AccessControlEnumerable.sol\":2462:2480  _roleMembers[role] */\n      0x00\n        /* \"ERC20/access/AccessControlEnumerable.sol\":2475:2479  role */\n      dup6\n        /* \"ERC20/access/AccessControlEnumerable.sol\":2462:2480  _roleMembers[role] */\n      dup2\n      mstore\n      0x20\n      add\n      swap1\n      dup2\n      mstore\n      0x20\n      add\n      0x00\n      keccak256\n        /* \"ERC20/access/AccessControlEnumerable.sol\":2462:2487  _roleMembers[role].remove */\n      tag_227\n      swap1\n        /* \"ERC20/access/AccessControlEnumerable.sol\":2462:2496  _roleMembers[role].remove(account) */\n      swap2\n      swap1\n      0xffffffff\n      and\n      jump\t// in\n    tag_226:\n      pop\n        /* \"ERC20/access/AccessControlEnumerable.sol\":2215:2504  function revokeRole(bytes32 role, address account) public virtual override(AccessControl, IAccessControl) {... */\n      pop\n      pop\n      jump\t// out\n        /* \"ERC20/ERC20.sol\":4880:5031  function allowance(address owner, address spender) public view virtual override returns (uint256) {... */\n    tag_122:\n        /* \"ERC20/ERC20.sol\":4969:4976  uint256 */\n      0x00\n        /* \"ERC20/ERC20.sol\":4996:5007  _allowances */\n      0x04\n        /* \"ERC20/ERC20.sol\":4996:5014  _allowances[owner] */\n      0x00\n        /* \"ERC20/ERC20.sol\":5008:5013  owner */\n      dup5\n        /* \"ERC20/ERC20.sol\":4996:5014  _allowances[owner] */\n      0xffffffffffffffffffffffffffffffffffffffff\n      and\n      0xffffffffffffffffffffffffffffffffffffffff\n      and\n      dup2\n      mstore\n      0x20\n      add\n      swap1\n      dup2\n      mstore\n      0x20\n      add\n      0x00\n      keccak256\n        /* \"ERC20/ERC20.sol\":4996:5023  _allowances[owner][spender] */\n      0x00\n        /* \"ERC20/ERC20.sol\":5015:5022  spender */\n      dup4\n        /* \"ERC20/ERC20.sol\":4996:5023  _allowances[owner][spender] */\n      0xffffffffffffffffffffffffffffffffffffffff\n      and\n      0xffffffffffffffffffffffffffffffffffffffff\n      and\n      dup2\n      mstore\n      0x20\n      add\n      swap1\n      dup2\n      mstore\n      0x20\n      add\n      0x00\n      keccak256\n      sload\n        /* \"ERC20/ERC20.sol\":4989:5023  return _allowances[owner][spender] */\n      swap1\n      pop\n        /* \"ERC20/ERC20.sol\":4880:5031  function allowance(address owner, address spender) public view virtual override returns (uint256) {... */\n      swap3\n      swap2\n      pop\n      pop\n      jump\t// out\n        /* \"ERC20/access/AccessControl.sol\":6353:6465  function _setupRole(bytes32 role, address account) internal virtual {... */\n    tag_124:\n        /* \"ERC20/access/AccessControl.sol\":6432:6457  _grantRole(role, account) */\n      tag_230\n        /* \"ERC20/access/AccessControl.sol\":6443:6447  role */\n      dup3\n        /* \"ERC20/access/AccessControl.sol\":6449:6456  account */\n      dup3\n        /* \"ERC20/access/AccessControl.sol\":6432:6442  _grantRole */\n      tag_231\n        /* \"ERC20/access/AccessControl.sol\":6432:6457  _grantRole(role, account) */\n      jump\t// in\n    tag_230:\n        /* \"ERC20/access/AccessControl.sol\":6353:6465  function _setupRole(bytes32 role, address account) internal virtual {... */\n      pop\n      pop\n      jump\t// out\n        /* \"ERC20/utils/structs/EnumerableSet.sol\":7767:7919  function add(AddressSet storage set, address value) internal returns (bool) {... */\n    tag_125:\n        /* \"ERC20/utils/structs/EnumerableSet.sol\":7837:7841  bool */\n      0x00\n        /* \"ERC20/utils/structs/EnumerableSet.sol\":7861:7911  _add(set._inner, bytes32(uint256(uint160(value)))) */\n      tag_233\n        /* \"ERC20/utils/structs/EnumerableSet.sol\":7866:7869  set */\n      dup4\n        /* \"ERC20/utils/structs/EnumerableSet.sol\":7866:7876  set._inner */\n      0x00\n      add\n        /* \"ERC20/utils/structs/EnumerableSet.sol\":7902:7907  value */\n      dup4\n        /* \"ERC20/utils/structs/EnumerableSet.sol\":7886:7909  uint256(uint160(value)) */\n      0xffffffffffffffffffffffffffffffffffffffff\n      and\n        /* \"ERC20/utils/structs/EnumerableSet.sol\":7878:7910  bytes32(uint256(uint160(value))) */\n      0x00\n      shl\n        /* \"ERC20/utils/structs/EnumerableSet.sol\":7861:7865  _add */\n      tag_234\n        /* \"ERC20/utils/structs/EnumerableSet.sol\":7861:7911  _add(set._inner, bytes32(uint256(uint160(value)))) */\n      jump\t// in\n    tag_233:\n        /* \"ERC20/utils/structs/EnumerableSet.sol\":7854:7911  return _add(set._inner, bytes32(uint256(uint160(value)))) */\n      swap1\n      pop\n        /* \"ERC20/utils/structs/EnumerableSet.sol\":7767:7919  function add(AddressSet storage set, address value) internal returns (bool) {... */\n      swap3\n      swap2\n      pop\n      pop\n      jump\t// out\n        /* \"ERC20/access/AccessControl.sol\":2620:2824  function supportsInterface(bytes4 interfaceId) public view virtual override returns (bool) {... */\n    tag_129:\n        /* \"ERC20/access/AccessControl.sol\":2705:2709  bool */\n      0x00\n        /* \"ERC20/access/AccessControl.sol\":2744:2776  type(IAccessControl).interfaceId */\n      0x4f3351b500000000000000000000000000000000000000000000000000000000\n        /* \"ERC20/access/AccessControl.sol\":2729:2776  interfaceId == type(IAccessControl).interfaceId */\n      not(0xffffffffffffffffffffffffffffffffffffffffffffffffffffffff)\n      and\n        /* \"ERC20/access/AccessControl.sol\":2729:2740  interfaceId */\n      dup3\n        /* \"ERC20/access/AccessControl.sol\":2729:2776  interfaceId == type(IAccessControl).interfaceId */\n      not(0xffffffffffffffffffffffffffffffffffffffffffffffffffffffff)\n      and\n      eq\n        /* \"ERC20/access/AccessControl.sol\":2729:2816  interfaceId == type(IAccessControl).interfaceId || super.supportsInterface(interfaceId) */\n      dup1\n      tag_236\n      jumpi\n      pop\n        /* \"ERC20/access/AccessControl.sol\":2780:2816  super.supportsInterface(interfaceId) */\n      tag_237\n        /* \"ERC20/access/AccessControl.sol\":2804:2815  interfaceId */\n      dup3\n        /* \"ERC20/access/AccessControl.sol\":2780:2803  super.supportsInterface */\n      tag_238\n        /* \"ERC20/access/AccessControl.sol\":2780:2816  super.supportsInterface(interfaceId) */\n      jump\t// in\n    tag_237:\n        /* \"ERC20/access/AccessControl.sol\":2729:2816  interfaceId == type(IAccessControl).interfaceId || super.supportsInterface(interfaceId) */\n    tag_236:\n        /* \"ERC20/access/AccessControl.sol\":2722:2816  return interfaceId == type(IAccessControl).interfaceId || super.supportsInterface(interfaceId) */\n      swap1\n      pop\n        /* \"ERC20/access/AccessControl.sol\":2620:2824  function supportsInterface(bytes4 interfaceId) public view virtual override returns (bool) {... */\n      swap2\n      swap1\n      pop\n      jump\t// out\n        /* \"ERC20/utils/Context.sol\":602:700  function _msgSender() internal view virtual returns (address) {... */\n    tag_140:\n        /* \"ERC20/utils/Context.sol\":655:662  address */\n      0x00\n        /* \"ERC20/utils/Context.sol\":682:692  msg.sender */\n      caller\n        /* \"ERC20/utils/Context.sol\":675:692  return msg.sender */\n      swap1\n      pop\n        /* \"ERC20/utils/Context.sol\":602:700  function _msgSender() internal view virtual returns (address) {... */\n      swap1\n      jump\t// out\n        /* \"ERC20/ERC20.sol\":11801:12181  function _approve(... */\n    tag_141:\n        /* \"ERC20/ERC20.sol\":11954:11955  0 */\n      0x00\n        /* \"ERC20/ERC20.sol\":11937:11956  owner != address(0) */\n      0xffffffffffffffffffffffffffffffffffffffff\n      and\n        /* \"ERC20/ERC20.sol\":11937:11942  owner */\n      dup4\n        /* \"ERC20/ERC20.sol\":11937:11956  owner != address(0) */\n      0xffffffffffffffffffffffffffffffffffffffff\n      and\n      sub\n        /* \"ERC20/ERC20.sol\":11929:11997  require(owner != address(0), \"ERC20: approve from the zero address\") */\n      tag_241\n      jumpi\n      mload(0x40)\n      0x08c379a000000000000000000000000000000000000000000000000000000000\n      dup2\n      mstore\n      0x04\n      add\n      tag_242\n      swap1\n      tag_243\n      jump\t// in\n    tag_242:\n      mload(0x40)\n      dup1\n      swap2\n      sub\n      swap1\n      revert\n    tag_241:\n        /* \"ERC20/ERC20.sol\":12035:12036  0 */\n      0x00\n        /* \"ERC20/ERC20.sol\":12016:12037  spender != address(0) */\n      0xffffffffffffffffffffffffffffffffffffffff\n      and\n        /* \"ERC20/ERC20.sol\":12016:12023  spender */\n      dup3\n        /* \"ERC20/ERC20.sol\":12016:12037  spender != address(0) */\n      0xffffffffffffffffffffffffffffffffffffffff\n      and\n      sub\n        /* \"ERC20/ERC20.sol\":12008:12076  require(spender != address(0), \"ERC20: approve to the zero address\") */\n      tag_244\n      jumpi\n      mload(0x40)\n      0x08c379a000000000000000000000000000000000000000000000000000000000\n      dup2\n      mstore\n      0x04\n      add\n      tag_245\n      swap1\n      tag_246\n      jump\t// in\n    tag_245:\n      mload(0x40)\n      dup1\n      swap2\n      sub\n      swap1\n      revert\n    tag_244:\n        /* \"ERC20/ERC20.sol\":12119:12125  amount */\n      dup1\n        /* \"ERC20/ERC20.sol\":12089:12100  _allowances */\n      0x04\n        /* \"ERC20/ERC20.sol\":12089:12107  _allowances[owner] */\n      0x00\n        /* \"ERC20/ERC20.sol\":12101:12106  owner */\n      dup6\n        /* \"ERC20/ERC20.sol\":12089:12107  _allowances[owner] */\n      0xffffffffffffffffffffffffffffffffffffffff\n      and\n      0xffffffffffffffffffffffffffffffffffffffff\n      and\n      dup2\n      mstore\n      0x20\n      add\n      swap1\n      dup2\n      mstore\n      0x20\n      add\n      0x00\n      keccak256\n        /* \"ERC20/ERC20.sol\":12089:12116  _allowances[owner][spender] */\n      0x00\n        /* \"ERC20/ERC20.sol\":12108:12115  spender */\n      dup5\n        /* \"ERC20/ERC20.sol\":12089:12116  _allowances[owner][spender] */\n      0xffffffffffffffffffffffffffffffffffffffff\n      and\n      0xffffffffffffffffffffffffffffffffffffffff\n      and\n      dup2\n      mstore\n      0x20\n      add\n      swap1\n      dup2\n      mstore\n      0x20\n      add\n      0x00\n      keccak256\n        /* \"ERC20/ERC20.sol\":12089:12125  _allowances[owner][spender] = amount */\n      dup2\n      swap1\n      sstore\n      pop\n        /* \"ERC20/ERC20.sol\":12157:12164  spender */\n      dup2\n        /* \"ERC20/ERC20.sol\":12141:12173  Approval(owner, spender, amount) */\n      0xffffffffffffffffffffffffffffffffffffffff\n      and\n        /* \"ERC20/ERC20.sol\":12150:12155  owner */\n      dup4\n        /* \"ERC20/ERC20.sol\":12141:12173  Approval(owner, spender, amount) */\n      0xffffffffffffffffffffffffffffffffffffffff\n      and\n      0x8c5be1e5ebec7d5bd14f71427d1e84f3dd0314c0f7b2291e5b200ac8c7c3b925\n        /* \"ERC20/ERC20.sol\":12166:12172  amount */\n      dup4\n        /* \"ERC20/ERC20.sol\":12141:12173  Approval(owner, spender, amount) */\n      mload(0x40)\n      tag_247\n      swap2\n      swap1\n      tag_47\n      jump\t// in\n    tag_247:\n      mload(0x40)\n      dup1\n      swap2\n      sub\n      swap1\n      log3\n        /* \"ERC20/ERC20.sol\":11801:12181  function _approve(... */\n      pop\n      pop\n      pop\n      jump\t// out\n        /* \"ERC20/ERC20.sol\":8640:9449  function _transfer(... */\n    tag_149:\n        /* \"ERC20/ERC20.sol\":8782:8790  paused() */\n      tag_249\n        /* \"ERC20/ERC20.sol\":8782:8788  paused */\n      tag_75\n        /* \"ERC20/ERC20.sol\":8782:8790  paused() */\n      jump\t// in\n    tag_249:\n        /* \"ERC20/ERC20.sol\":8781:8790  !paused() */\n      iszero\n        /* \"ERC20/ERC20.sol\":8773:8839  require(!paused(), \"ERC20: transfer function is paused by admin.\") */\n      tag_250\n      jumpi\n      mload(0x40)\n      0x08c379a000000000000000000000000000000000000000000000000000000000\n      dup2\n      mstore\n      0x04\n      add\n      tag_251\n      swap1\n      tag_252\n      jump\t// in\n    tag_251:\n      mload(0x40)\n      dup1\n      swap2\n      sub\n      swap1\n      revert\n    tag_250:\n        /* \"ERC20/ERC20.sol\":8876:8877  0 */\n      0x00\n        /* \"ERC20/ERC20.sol\":8858:8878  sender != address(0) */\n      0xffffffffffffffffffffffffffffffffffffffff\n      and\n        /* \"ERC20/ERC20.sol\":8858:8864  sender */\n      dup4\n        /* \"ERC20/ERC20.sol\":8858:8878  sender != address(0) */\n      0xffffffffffffffffffffffffffffffffffffffff\n      and\n      sub\n        /* \"ERC20/ERC20.sol\":8850:8920  require(sender != address(0), \"ERC20: transfer from the zero address\") */\n      tag_253\n      jumpi\n      mload(0x40)\n      0x08c379a000000000000000000000000000000000000000000000000000000000\n      dup2\n      mstore\n      0x04\n      add\n      tag_254\n      swap1\n      tag_255\n      jump\t// in\n    tag_254:\n      mload(0x40)\n      dup1\n      swap2\n      sub\n      swap1\n      revert\n    tag_253:\n        /* \"ERC20/ERC20.sol\":8960:8961  0 */\n      0x00\n        /* \"ERC20/ERC20.sol\":8939:8962  recipient != address(0) */\n      0xffffffffffffffffffffffffffffffffffffffff\n      and\n        /* \"ERC20/ERC20.sol\":8939:8948  recipient */\n      dup3\n        /* \"ERC20/ERC20.sol\":8939:8962  recipient != address(0) */\n      0xffffffffffffffffffffffffffffffffffffffff\n      and\n      sub\n        /* \"ERC20/ERC20.sol\":8931:9002  require(recipient != address(0), \"ERC20: transfer to the zero address\") */\n      tag_256\n      jumpi\n      mload(0x40)\n      0x08c379a000000000000000000000000000000000000000000000000000000000\n      dup2\n      mstore\n      0x04\n      add\n      tag_257\n      swap1\n      tag_258\n      jump\t// in\n    tag_257:\n      mload(0x40)\n      dup1\n      swap2\n      sub\n      swap1\n      revert\n    tag_256:\n        /* \"ERC20/ERC20.sol\":9013:9060  _beforeTokenTransfer(sender, recipient, amount) */\n      tag_259\n        /* \"ERC20/ERC20.sol\":9034:9040  sender */\n      dup4\n        /* \"ERC20/ERC20.sol\":9042:9051  recipient */\n      dup4\n        /* \"ERC20/ERC20.sol\":9053:9059  amount */\n      dup4\n        /* \"ERC20/ERC20.sol\":9013:9033  _beforeTokenTransfer */\n      tag_260\n        /* \"ERC20/ERC20.sol\":9013:9060  _beforeTokenTransfer(sender, recipient, amount) */\n      jump\t// in\n    tag_259:\n        /* \"ERC20/ERC20.sol\":9073:9094  uint256 senderBalance */\n      0x00\n        /* \"ERC20/ERC20.sol\":9097:9106  _balances */\n      0x03\n        /* \"ERC20/ERC20.sol\":9097:9114  _balances[sender] */\n      0x00\n        /* \"ERC20/ERC20.sol\":9107:9113  sender */\n      dup6\n        /* \"ERC20/ERC20.sol\":9097:9114  _balances[sender] */\n      0xffffffffffffffffffffffffffffffffffffffff\n      and\n      0xffffffffffffffffffffffffffffffffffffffff\n      and\n      dup2\n      mstore\n      0x20\n      add\n      swap1\n      dup2\n      mstore\n      0x20\n      add\n      0x00\n      keccak256\n      sload\n        /* \"ERC20/ERC20.sol\":9073:9114  uint256 senderBalance = _balances[sender] */\n      swap1\n      pop\n        /* \"ERC20/ERC20.sol\":9150:9156  amount */\n      dup2\n        /* \"ERC20/ERC20.sol\":9133:9146  senderBalance */\n      dup2\n        /* \"ERC20/ERC20.sol\":9133:9156  senderBalance >= amount */\n      lt\n      iszero\n        /* \"ERC20/ERC20.sol\":9125:9199  require(senderBalance >= amount, \"ERC20: transfer amount exceeds balance\") */\n      tag_261\n      jumpi\n      mload(0x40)\n      0x08c379a000000000000000000000000000000000000000000000000000000000\n      dup2\n      mstore\n      0x04\n      add\n      tag_262\n      swap1\n      tag_263\n      jump\t// in\n    tag_262:\n      mload(0x40)\n      dup1\n      swap2\n      sub\n      swap1\n      revert\n    tag_261:\n        /* \"ERC20/ERC20.sol\":9271:9277  amount */\n      dup2\n        /* \"ERC20/ERC20.sol\":9255:9268  senderBalance */\n      dup2\n        /* \"ERC20/ERC20.sol\":9255:9277  senderBalance - amount */\n      sub\n        /* \"ERC20/ERC20.sol\":9235:9244  _balances */\n      0x03\n        /* \"ERC20/ERC20.sol\":9235:9252  _balances[sender] */\n      0x00\n        /* \"ERC20/ERC20.sol\":9245:9251  sender */\n      dup7\n        /* \"ERC20/ERC20.sol\":9235:9252  _balances[sender] */\n      0xffffffffffffffffffffffffffffffffffffffff\n      and\n      0xffffffffffffffffffffffffffffffffffffffff\n      and\n      dup2\n      mstore\n      0x20\n      add\n      swap1\n      dup2\n      mstore\n      0x20\n      add\n      0x00\n      keccak256\n        /* \"ERC20/ERC20.sol\":9235:9277  _balances[sender] = senderBalance - amount */\n      dup2\n      swap1\n      sstore\n      pop\n        /* \"ERC20/ERC20.sol\":9323:9329  amount */\n      dup2\n        /* \"ERC20/ERC20.sol\":9299:9308  _balances */\n      0x03\n        /* \"ERC20/ERC20.sol\":9299:9319  _balances[recipient] */\n      0x00\n        /* \"ERC20/ERC20.sol\":9309:9318  recipient */\n      dup6\n        /* \"ERC20/ERC20.sol\":9299:9319  _balances[recipient] */\n      0xffffffffffffffffffffffffffffffffffffffff\n      and\n      0xffffffffffffffffffffffffffffffffffffffff\n      and\n      dup2\n      mstore\n      0x20\n      add\n      swap1\n      dup2\n      mstore\n      0x20\n      add\n      0x00\n      keccak256\n      0x00\n        /* \"ERC20/ERC20.sol\":9299:9329  _balances[recipient] += amount */\n      dup3\n      dup3\n      sload\n      tag_264\n      swap2\n      swap1\n      tag_172\n      jump\t// in\n    tag_264:\n      swap3\n      pop\n      pop\n      dup2\n      swap1\n      sstore\n      pop\n        /* \"ERC20/ERC20.sol\":9364:9373  recipient */\n      dup3\n        /* \"ERC20/ERC20.sol\":9347:9382  Transfer(sender, recipient, amount) */\n      0xffffffffffffffffffffffffffffffffffffffff\n      and\n        /* \"ERC20/ERC20.sol\":9356:9362  sender */\n      dup5\n        /* \"ERC20/ERC20.sol\":9347:9382  Transfer(sender, recipient, amount) */\n      0xffffffffffffffffffffffffffffffffffffffff\n      and\n      0xddf252ad1be2c89b69c2b068fc378daa952ba7f163c4a11628f55a4df523b3ef\n        /* \"ERC20/ERC20.sol\":9375:9381  amount */\n      dup5\n        /* \"ERC20/ERC20.sol\":9347:9382  Transfer(sender, recipient, amount) */\n      mload(0x40)\n      tag_265\n      swap2\n      swap1\n      tag_47\n      jump\t// in\n    tag_265:\n      mload(0x40)\n      dup1\n      swap2\n      sub\n      swap1\n      log3\n        /* \"ERC20/ERC20.sol\":9395:9441  _afterTokenTransfer(sender, recipient, amount) */\n      tag_266\n        /* \"ERC20/ERC20.sol\":9415:9421  sender */\n      dup5\n        /* \"ERC20/ERC20.sol\":9423:9432  recipient */\n      dup5\n        /* \"ERC20/ERC20.sol\":9434:9440  amount */\n      dup5\n        /* \"ERC20/ERC20.sol\":9395:9414  _afterTokenTransfer */\n      tag_267\n        /* \"ERC20/ERC20.sol\":9395:9441  _afterTokenTransfer(sender, recipient, amount) */\n      jump\t// in\n    tag_266:\n        /* \"ERC20/ERC20.sol\":8762:9449  {... */\n      pop\n        /* \"ERC20/ERC20.sol\":8640:9449  function _transfer(... */\n      pop\n      pop\n      pop\n      jump\t// out\n        /* \"ERC20/access/AccessControl.sol\":4416:4563  function grantRole(bytes32 role, address account) public virtual override onlyRole(getRoleAdmin(role)) {... */\n    tag_159:\n        /* \"ERC20/access/AccessControl.sol\":4499:4517  getRoleAdmin(role) */\n      tag_268\n        /* \"ERC20/access/AccessControl.sol\":4512:4516  role */\n      dup3\n        /* \"ERC20/access/AccessControl.sol\":4499:4511  getRoleAdmin */\n      tag_56\n        /* \"ERC20/access/AccessControl.sol\":4499:4517  getRoleAdmin(role) */\n      jump\t// in\n    tag_268:\n        /* \"ERC20/access/AccessControl.sol\":2498:2528  _checkRole(role, _msgSender()) */\n      tag_270\n        /* \"ERC20/access/AccessControl.sol\":2509:2513  role */\n      dup2\n        /* \"ERC20/access/AccessControl.sol\":2515:2527  _msgSender() */\n      tag_271\n        /* \"ERC20/access/AccessControl.sol\":2515:2525  _msgSender */\n      tag_140\n        /* \"ERC20/access/AccessControl.sol\":2515:2527  _msgSender() */\n      jump\t// in\n    tag_271:\n        /* \"ERC20/access/AccessControl.sol\":2498:2508  _checkRole */\n      tag_272\n        /* \"ERC20/access/AccessControl.sol\":2498:2528  _checkRole(role, _msgSender()) */\n      jump\t// in\n    tag_270:\n        /* \"ERC20/access/AccessControl.sol\":4530:4555  _grantRole(role, account) */\n      tag_274\n        /* \"ERC20/access/AccessControl.sol\":4541:4545  role */\n      dup4\n        /* \"ERC20/access/AccessControl.sol\":4547:4554  account */\n      dup4\n        /* \"ERC20/access/AccessControl.sol\":4530:4540  _grantRole */\n      tag_231\n        /* \"ERC20/access/AccessControl.sol\":4530:4555  _grantRole(role, account) */\n      jump\t// in\n    tag_274:\n        /* \"ERC20/access/AccessControl.sol\":4416:4563  function grantRole(bytes32 role, address account) public virtual override onlyRole(getRoleAdmin(role)) {... */\n      pop\n      pop\n      pop\n      jump\t// out\n        /* \"ERC20/security/Pausable.sol\":1806:1921  function _pause() internal virtual whenNotPaused {... */\n    tag_179:\n        /* \"ERC20/security/Pausable.sol\":1355:1363  paused() */\n      tag_276\n        /* \"ERC20/security/Pausable.sol\":1355:1361  paused */\n      tag_75\n        /* \"ERC20/security/Pausable.sol\":1355:1363  paused() */\n      jump\t// in\n    tag_276:\n        /* \"ERC20/security/Pausable.sol\":1354:1363  !paused() */\n      iszero\n        /* \"ERC20/security/Pausable.sol\":1346:1384  require(!paused(), \"Pausable: paused\") */\n      tag_277\n      jumpi\n      mload(0x40)\n      0x08c379a000000000000000000000000000000000000000000000000000000000\n      dup2\n      mstore\n      0x04\n      add\n      tag_278\n      swap1\n      tag_279\n      jump\t// in\n    tag_278:\n      mload(0x40)\n      dup1\n      swap2\n      sub\n      swap1\n      revert\n    tag_277:\n        /* \"ERC20/security/Pausable.sol\":1875:1879  true */\n      0x01\n        /* \"ERC20/security/Pausable.sol\":1865:1872  _paused */\n      0x02\n      0x00\n        /* \"ERC20/security/Pausable.sol\":1865:1879  _paused = true */\n      0x0100\n      exp\n      dup2\n      sload\n      dup2\n      0xff\n      mul\n      not\n      and\n      swap1\n      dup4\n      iszero\n      iszero\n      mul\n      or\n      swap1\n      sstore\n      pop\n        /* \"ERC20/security/Pausable.sol\":1894:1914  Paused(_msgSender()) */\n      0x62e78cea01bee320cd4e420270b5ea74000d11b0c9f74754ebdbfc544b05a258\n        /* \"ERC20/security/Pausable.sol\":1901:1913  _msgSender() */\n      tag_281\n        /* \"ERC20/security/Pausable.sol\":1901:1911  _msgSender */\n      tag_140\n        /* \"ERC20/security/Pausable.sol\":1901:1913  _msgSender() */\n      jump\t// in\n    tag_281:\n        /* \"ERC20/security/Pausable.sol\":1894:1914  Paused(_msgSender()) */\n      mload(0x40)\n      tag_282\n      swap2\n      swap1\n      tag_87\n      jump\t// in\n    tag_282:\n      mload(0x40)\n      dup1\n      swap2\n      sub\n      swap1\n      log1\n        /* \"ERC20/security/Pausable.sol\":1806:1921  function _pause() internal virtual whenNotPaused {... */\n      jump\t// out\n        /* \"ERC20/utils/structs/EnumerableSet.sol\":9063:9221  function at(AddressSet storage set, uint256 index) internal view returns (address) {... */\n    tag_184:\n        /* \"ERC20/utils/structs/EnumerableSet.sol\":9137:9144  address */\n      0x00\n        /* \"ERC20/utils/structs/EnumerableSet.sol\":9188:9210  _at(set._inner, index) */\n      tag_284\n        /* \"ERC20/utils/structs/EnumerableSet.sol\":9192:9195  set */\n      dup4\n        /* \"ERC20/utils/structs/EnumerableSet.sol\":9192:9202  set._inner */\n      0x00\n      add\n        /* \"ERC20/utils/structs/EnumerableSet.sol\":9204:9209  index */\n      dup4\n        /* \"ERC20/utils/structs/EnumerableSet.sol\":9188:9191  _at */\n      tag_285\n        /* \"ERC20/utils/structs/EnumerableSet.sol\":9188:9210  _at(set._inner, index) */\n      jump\t// in\n    tag_284:\n        /* \"ERC20/utils/structs/EnumerableSet.sol\":9180:9211  uint256(_at(set._inner, index)) */\n      0x00\n      shr\n        /* \"ERC20/utils/structs/EnumerableSet.sol\":9157:9213  return address(uint160(uint256(_at(set._inner, index)))) */\n      swap1\n      pop\n        /* \"ERC20/utils/structs/EnumerableSet.sol\":9063:9221  function at(AddressSet storage set, uint256 index) internal view returns (address) {... */\n      swap3\n      swap2\n      pop\n      pop\n      jump\t// out\n        /* \"ERC20/security/Pausable.sol\":2053:2170  function _unpause() internal virtual whenPaused {... */\n    tag_215:\n        /* \"ERC20/security/Pausable.sol\":1620:1628  paused() */\n      tag_287\n        /* \"ERC20/security/Pausable.sol\":1620:1626  paused */\n      tag_75\n        /* \"ERC20/security/Pausable.sol\":1620:1628  paused() */\n      jump\t// in\n    tag_287:\n        /* \"ERC20/security/Pausable.sol\":1612:1653  require(paused(), \"Pausable: not paused\") */\n      tag_288\n      jumpi\n      mload(0x40)\n      0x08c379a000000000000000000000000000000000000000000000000000000000\n      dup2\n      mstore\n      0x04\n      add\n      tag_289\n      swap1\n      tag_290\n      jump\t// in\n    tag_289:\n      mload(0x40)\n      dup1\n      swap2\n      sub\n      swap1\n      revert\n    tag_288:\n        /* \"ERC20/security/Pausable.sol\":2121:2126  false */\n      0x00\n        /* \"ERC20/security/Pausable.sol\":2111:2118  _paused */\n      0x02\n      0x00\n        /* \"ERC20/security/Pausable.sol\":2111:2126  _paused = false */\n      0x0100\n      exp\n      dup2\n      sload\n      dup2\n      0xff\n      mul\n      not\n      and\n      swap1\n      dup4\n      iszero\n      iszero\n      mul\n      or\n      swap1\n      sstore\n      pop\n        /* \"ERC20/security/Pausable.sol\":2141:2163  Unpaused(_msgSender()) */\n      0x5db9ee0a495bf2e6ff9c91a7834c1ba4fdd244a5e8aa4e537bd38aeae4b073aa\n        /* \"ERC20/security/Pausable.sol\":2150:2162  _msgSender() */\n      tag_292\n        /* \"ERC20/security/Pausable.sol\":2150:2160  _msgSender */\n      tag_140\n        /* \"ERC20/security/Pausable.sol\":2150:2162  _msgSender() */\n      jump\t// in\n    tag_292:\n        /* \"ERC20/security/Pausable.sol\":2141:2163  Unpaused(_msgSender()) */\n      mload(0x40)\n      tag_293\n      swap2\n      swap1\n      tag_87\n      jump\t// in\n    tag_293:\n      mload(0x40)\n      dup1\n      swap2\n      sub\n      swap1\n      log1\n        /* \"ERC20/security/Pausable.sol\":2053:2170  function _unpause() internal virtual whenPaused {... */\n      jump\t// out\n        /* \"ERC20/utils/structs/EnumerableSet.sol\":8592:8709  function length(AddressSet storage set) internal view returns (uint256) {... */\n    tag_218:\n        /* \"ERC20/utils/structs/EnumerableSet.sol\":8655:8662  uint256 */\n      0x00\n        /* \"ERC20/utils/structs/EnumerableSet.sol\":8682:8701  _length(set._inner) */\n      tag_295\n        /* \"ERC20/utils/structs/EnumerableSet.sol\":8690:8693  set */\n      dup3\n        /* \"ERC20/utils/structs/EnumerableSet.sol\":8690:8700  set._inner */\n      0x00\n      add\n        /* \"ERC20/utils/structs/EnumerableSet.sol\":8682:8689  _length */\n      tag_296\n        /* \"ERC20/utils/structs/EnumerableSet.sol\":8682:8701  _length(set._inner) */\n      jump\t// in\n    tag_295:\n        /* \"ERC20/utils/structs/EnumerableSet.sol\":8675:8701  return _length(set._inner) */\n      swap1\n      pop\n        /* \"ERC20/utils/structs/EnumerableSet.sol\":8592:8709  function length(AddressSet storage set) internal view returns (uint256) {... */\n      swap2\n      swap1\n      pop\n      jump\t// out\n        /* \"ERC20/access/AccessControl.sol\":4808:4957  function revokeRole(bytes32 role, address account) public virtual override onlyRole(getRoleAdmin(role)) {... */\n    tag_225:\n        /* \"ERC20/access/AccessControl.sol\":4892:4910  getRoleAdmin(role) */\n      tag_297\n        /* \"ERC20/access/AccessControl.sol\":4905:4909  role */\n      dup3\n        /* \"ERC20/access/AccessControl.sol\":4892:4904  getRoleAdmin */\n      tag_56\n        /* \"ERC20/access/AccessControl.sol\":4892:4910  getRoleAdmin(role) */\n      jump\t// in\n    tag_297:\n        /* \"ERC20/access/AccessControl.sol\":2498:2528  _checkRole(role, _msgSender()) */\n      tag_299\n        /* \"ERC20/access/AccessControl.sol\":2509:2513  role */\n      dup2\n        /* \"ERC20/access/AccessControl.sol\":2515:2527  _msgSender() */\n      tag_300\n        /* \"ERC20/access/AccessControl.sol\":2515:2525  _msgSender */\n      tag_140\n        /* \"ERC20/access/AccessControl.sol\":2515:2527  _msgSender() */\n      jump\t// in\n    tag_300:\n        /* \"ERC20/access/AccessControl.sol\":2498:2508  _checkRole */\n      tag_272\n        /* \"ERC20/access/AccessControl.sol\":2498:2528  _checkRole(role, _msgSender()) */\n      jump\t// in\n    tag_299:\n        /* \"ERC20/access/AccessControl.sol\":4923:4949  _revokeRole(role, account) */\n      tag_302\n        /* \"ERC20/access/AccessControl.sol\":4935:4939  role */\n      dup4\n        /* \"ERC20/access/AccessControl.sol\":4941:4948  account */\n      dup4\n        /* \"ERC20/access/AccessControl.sol\":4923:4934  _revokeRole */\n      tag_303\n        /* \"ERC20/access/AccessControl.sol\":4923:4949  _revokeRole(role, account) */\n      jump\t// in\n    tag_302:\n        /* \"ERC20/access/AccessControl.sol\":4808:4957  function revokeRole(bytes32 role, address account) public virtual override onlyRole(getRoleAdmin(role)) {... */\n      pop\n      pop\n      pop\n      jump\t// out\n        /* \"ERC20/utils/structs/EnumerableSet.sol\":8095:8253  function remove(AddressSet storage set, address value) internal returns (bool) {... */\n    tag_227:\n        /* \"ERC20/utils/structs/EnumerableSet.sol\":8168:8172  bool */\n      0x00\n        /* \"ERC20/utils/structs/EnumerableSet.sol\":8192:8245  _remove(set._inner, bytes32(uint256(uint160(value)))) */\n      tag_305\n        /* \"ERC20/utils/structs/EnumerableSet.sol\":8200:8203  set */\n      dup4\n        /* \"ERC20/utils/structs/EnumerableSet.sol\":8200:8210  set._inner */\n      0x00\n      add\n        /* \"ERC20/utils/structs/EnumerableSet.sol\":8236:8241  value */\n      dup4\n        /* \"ERC20/utils/structs/EnumerableSet.sol\":8220:8243  uint256(uint160(value)) */\n      0xffffffffffffffffffffffffffffffffffffffff\n      and\n        /* \"ERC20/utils/structs/EnumerableSet.sol\":8212:8244  bytes32(uint256(uint160(value))) */\n      0x00\n      shl\n        /* \"ERC20/utils/structs/EnumerableSet.sol\":8192:8199  _remove */\n      tag_306\n        /* \"ERC20/utils/structs/EnumerableSet.sol\":8192:8245  _remove(set._inner, bytes32(uint256(uint160(value)))) */\n      jump\t// in\n    tag_305:\n        /* \"ERC20/utils/structs/EnumerableSet.sol\":8185:8245  return _remove(set._inner, bytes32(uint256(uint160(value)))) */\n      swap1\n      pop\n        /* \"ERC20/utils/structs/EnumerableSet.sol\":8095:8253  function remove(AddressSet storage set, address value) internal returns (bool) {... */\n      swap3\n      swap2\n      pop\n      pop\n      jump\t// out\n        /* \"ERC20/access/AccessControl.sol\":6977:7215  function _grantRole(bytes32 role, address account) internal virtual {... */\n    tag_231:\n        /* \"ERC20/access/AccessControl.sol\":7061:7083  hasRole(role, account) */\n      tag_308\n        /* \"ERC20/access/AccessControl.sol\":7069:7073  role */\n      dup3\n        /* \"ERC20/access/AccessControl.sol\":7075:7082  account */\n      dup3\n        /* \"ERC20/access/AccessControl.sol\":7061:7068  hasRole */\n      tag_90\n        /* \"ERC20/access/AccessControl.sol\":7061:7083  hasRole(role, account) */\n      jump\t// in\n    tag_308:\n        /* \"ERC20/access/AccessControl.sol\":7056:7208  if (!hasRole(role, account)) {... */\n      tag_309\n      jumpi\n        /* \"ERC20/access/AccessControl.sol\":7132:7136  true */\n      0x01\n        /* \"ERC20/access/AccessControl.sol\":7100:7106  _roles */\n      0x00\n        /* \"ERC20/access/AccessControl.sol\":7100:7112  _roles[role] */\n      dup1\n        /* \"ERC20/access/AccessControl.sol\":7107:7111  role */\n      dup5\n        /* \"ERC20/access/AccessControl.sol\":7100:7112  _roles[role] */\n      dup2\n      mstore\n      0x20\n      add\n      swap1\n      dup2\n      mstore\n      0x20\n      add\n      0x00\n      keccak256\n        /* \"ERC20/access/AccessControl.sol\":7100:7120  _roles[role].members */\n      0x00\n      add\n        /* \"ERC20/access/AccessControl.sol\":7100:7129  _roles[role].members[account] */\n      0x00\n        /* \"ERC20/access/AccessControl.sol\":7121:7128  account */\n      dup4\n        /* \"ERC20/access/AccessControl.sol\":7100:7129  _roles[role].members[account] */\n      0xffffffffffffffffffffffffffffffffffffffff\n      and\n      0xffffffffffffffffffffffffffffffffffffffff\n      and\n      dup2\n      mstore\n      0x20\n      add\n      swap1\n      dup2\n      mstore\n      0x20\n      add\n      0x00\n      keccak256\n      0x00\n        /* \"ERC20/access/AccessControl.sol\":7100:7136  _roles[role].members[account] = true */\n      0x0100\n      exp\n      dup2\n      sload\n      dup2\n      0xff\n      mul\n      not\n      and\n      swap1\n      dup4\n      iszero\n      iszero\n      mul\n      or\n      swap1\n      sstore\n      pop\n        /* \"ERC20/access/AccessControl.sol\":7183:7195  _msgSender() */\n      tag_310\n        /* \"ERC20/access/AccessControl.sol\":7183:7193  _msgSender */\n      tag_140\n        /* \"ERC20/access/AccessControl.sol\":7183:7195  _msgSender() */\n      jump\t// in\n    tag_310:\n        /* \"ERC20/access/AccessControl.sol\":7156:7196  RoleGranted(role, account, _msgSender()) */\n      0xffffffffffffffffffffffffffffffffffffffff\n      and\n        /* \"ERC20/access/AccessControl.sol\":7174:7181  account */\n      dup2\n        /* \"ERC20/access/AccessControl.sol\":7156:7196  RoleGranted(role, account, _msgSender()) */\n      0xffffffffffffffffffffffffffffffffffffffff\n      and\n        /* \"ERC20/access/AccessControl.sol\":7168:7172  role */\n      dup4\n        /* \"ERC20/access/AccessControl.sol\":7156:7196  RoleGranted(role, account, _msgSender()) */\n      0x2f8788117e7eff1d82e926ec794901d17c78024a50270940304540a733656f0d\n      mload(0x40)\n      mload(0x40)\n      dup1\n      swap2\n      sub\n      swap1\n      log4\n        /* \"ERC20/access/AccessControl.sol\":7056:7208  if (!hasRole(role, account)) {... */\n    tag_309:\n        /* \"ERC20/access/AccessControl.sol\":6977:7215  function _grantRole(bytes32 role, address account) internal virtual {... */\n      pop\n      pop\n      jump\t// out\n        /* \"ERC20/utils/structs/EnumerableSet.sol\":1682:2096  function _add(Set storage set, bytes32 value) private returns (bool) {... */\n    tag_234:\n        /* \"ERC20/utils/structs/EnumerableSet.sol\":1745:1749  bool */\n      0x00\n        /* \"ERC20/utils/structs/EnumerableSet.sol\":1767:1788  _contains(set, value) */\n      tag_312\n        /* \"ERC20/utils/structs/EnumerableSet.sol\":1777:1780  set */\n      dup4\n        /* \"ERC20/utils/structs/EnumerableSet.sol\":1782:1787  value */\n      dup4\n        /* \"ERC20/utils/structs/EnumerableSet.sol\":1767:1776  _contains */\n      tag_313\n        /* \"ERC20/utils/structs/EnumerableSet.sol\":1767:1788  _contains(set, value) */\n      jump\t// in\n    tag_312:\n        /* \"ERC20/utils/structs/EnumerableSet.sol\":1762:2089  if (!_contains(set, value)) {... */\n      tag_314\n      jumpi\n        /* \"ERC20/utils/structs/EnumerableSet.sol\":1805:1808  set */\n      dup3\n        /* \"ERC20/utils/structs/EnumerableSet.sol\":1805:1816  set._values */\n      0x00\n      add\n        /* \"ERC20/utils/structs/EnumerableSet.sol\":1822:1827  value */\n      dup3\n        /* \"ERC20/utils/structs/EnumerableSet.sol\":1805:1828  set._values.push(value) */\n      swap1\n      dup1\n      0x01\n      dup2\n      sload\n      add\n      dup1\n      dup3\n      sstore\n      dup1\n      swap2\n      pop\n      pop\n      0x01\n      swap1\n      sub\n      swap1\n      0x00\n      mstore\n      keccak256(0x00, 0x20)\n      add\n      0x00\n      swap1\n      swap2\n      swap1\n      swap2\n      swap1\n      swap2\n      pop\n      sstore\n        /* \"ERC20/utils/structs/EnumerableSet.sol\":1988:1991  set */\n      dup3\n        /* \"ERC20/utils/structs/EnumerableSet.sol\":1988:1999  set._values */\n      0x00\n      add\n        /* \"ERC20/utils/structs/EnumerableSet.sol\":1988:2006  set._values.length */\n      dup1\n      sload\n      swap1\n      pop\n        /* \"ERC20/utils/structs/EnumerableSet.sol\":1966:1969  set */\n      dup4\n        /* \"ERC20/utils/structs/EnumerableSet.sol\":1966:1978  set._indexes */\n      0x01\n      add\n        /* \"ERC20/utils/structs/EnumerableSet.sol\":1966:1985  set._indexes[value] */\n      0x00\n        /* \"ERC20/utils/structs/EnumerableSet.sol\":1979:1984  value */\n      dup5\n        /* \"ERC20/utils/structs/EnumerableSet.sol\":1966:1985  set._indexes[value] */\n      dup2\n      mstore\n      0x20\n      add\n      swap1\n      dup2\n      mstore\n      0x20\n      add\n      0x00\n      keccak256\n        /* \"ERC20/utils/structs/EnumerableSet.sol\":1966:2006  set._indexes[value] = set._values.length */\n      dup2\n      swap1\n      sstore\n      pop\n        /* \"ERC20/utils/structs/EnumerableSet.sol\":2028:2032  true */\n      0x01\n        /* \"ERC20/utils/structs/EnumerableSet.sol\":2021:2032  return true */\n      swap1\n      pop\n      jump(tag_311)\n        /* \"ERC20/utils/structs/EnumerableSet.sol\":1762:2089  if (!_contains(set, value)) {... */\n    tag_314:\n        /* \"ERC20/utils/structs/EnumerableSet.sol\":2072:2077  false */\n      0x00\n        /* \"ERC20/utils/structs/EnumerableSet.sol\":2065:2077  return false */\n      swap1\n      pop\n        /* \"ERC20/utils/structs/EnumerableSet.sol\":1682:2096  function _add(Set storage set, bytes32 value) private returns (bool) {... */\n    tag_311:\n      swap3\n      swap2\n      pop\n      pop\n      jump\t// out\n        /* \"ERC20/utils/introspection/ERC165.sol\":787:944  function supportsInterface(bytes4 interfaceId) public view virtual override returns (bool) {... */\n    tag_238:\n        /* \"ERC20/utils/introspection/ERC165.sol\":872:876  bool */\n      0x00\n        /* \"ERC20/utils/introspection/ERC165.sol\":911:936  type(IERC165).interfaceId */\n      0x01ffc9a700000000000000000000000000000000000000000000000000000000\n        /* \"ERC20/utils/introspection/ERC165.sol\":896:936  interfaceId == type(IERC165).interfaceId */\n      not(0xffffffffffffffffffffffffffffffffffffffffffffffffffffffff)\n      and\n        /* \"ERC20/utils/introspection/ERC165.sol\":896:907  interfaceId */\n      dup3\n        /* \"ERC20/utils/introspection/ERC165.sol\":896:936  interfaceId == type(IERC165).interfaceId */\n      not(0xffffffffffffffffffffffffffffffffffffffffffffffffffffffff)\n      and\n      eq\n        /* \"ERC20/utils/introspection/ERC165.sol\":889:936  return interfaceId == type(IERC165).interfaceId */\n      swap1\n      pop\n        /* \"ERC20/utils/introspection/ERC165.sol\":787:944  function supportsInterface(bytes4 interfaceId) public view virtual override returns (bool) {... */\n      swap2\n      swap1\n      pop\n      jump\t// out\n        /* \"ERC20/ERC20.sol\":12781:12906  function _beforeTokenTransfer(... */\n    tag_260:\n      pop\n      pop\n      pop\n      jump\t// out\n        /* \"ERC20/ERC20.sol\":13510:13634  function _afterTokenTransfer(... */\n    tag_267:\n      pop\n      pop\n      pop\n      jump\t// out\n        /* \"ERC20/access/AccessControl.sol\":3345:3842  function _checkRole(bytes32 role, address account) internal view {... */\n    tag_272:\n        /* \"ERC20/access/AccessControl.sol\":3426:3448  hasRole(role, account) */\n      tag_321\n        /* \"ERC20/access/AccessControl.sol\":3434:3438  role */\n      dup3\n        /* \"ERC20/access/AccessControl.sol\":3440:3447  account */\n      dup3\n        /* \"ERC20/access/AccessControl.sol\":3426:3433  hasRole */\n      tag_90\n        /* \"ERC20/access/AccessControl.sol\":3426:3448  hasRole(role, account) */\n      jump\t// in\n    tag_321:\n        /* \"ERC20/access/AccessControl.sol\":3421:3835  if (!hasRole(role, account)) {... */\n      tag_322\n      jumpi\n        /* \"ERC20/access/AccessControl.sol\":3614:3655  Strings.toHexString(uint160(account), 20) */\n      tag_323\n        /* \"ERC20/access/AccessControl.sol\":3642:3649  account */\n      dup2\n        /* \"ERC20/access/AccessControl.sol\":3614:3655  Strings.toHexString(uint160(account), 20) */\n      0xffffffffffffffffffffffffffffffffffffffff\n      and\n        /* \"ERC20/access/AccessControl.sol\":3652:3654  20 */\n      0x14\n        /* \"ERC20/access/AccessControl.sol\":3614:3633  Strings.toHexString */\n      tag_324\n        /* \"ERC20/access/AccessControl.sol\":3614:3655  Strings.toHexString(uint160(account), 20) */\n      jump\t// in\n    tag_323:\n        /* \"ERC20/access/AccessControl.sol\":3728:3766  Strings.toHexString(uint256(role), 32) */\n      tag_325\n        /* \"ERC20/access/AccessControl.sol\":3756:3760  role */\n      dup4\n        /* \"ERC20/access/AccessControl.sol\":3748:3761  uint256(role) */\n      0x00\n      shr\n        /* \"ERC20/access/AccessControl.sol\":3763:3765  32 */\n      0x20\n        /* \"ERC20/access/AccessControl.sol\":3728:3747  Strings.toHexString */\n      tag_324\n        /* \"ERC20/access/AccessControl.sol\":3728:3766  Strings.toHexString(uint256(role), 32) */\n      jump\t// in\n    tag_325:\n        /* \"ERC20/access/AccessControl.sol\":3519:3789  abi.encodePacked(... */\n      add(0x20, mload(0x40))\n      tag_326\n      swap3\n      swap2\n      swap1\n      tag_327\n      jump\t// in\n    tag_326:\n      mload(0x40)\n      0x20\n      dup2\n      dup4\n      sub\n      sub\n      dup2\n      mstore\n      swap1\n      0x40\n      mstore\n        /* \"ERC20/access/AccessControl.sol\":3465:3823  revert(... */\n      mload(0x40)\n      0x08c379a000000000000000000000000000000000000000000000000000000000\n      dup2\n      mstore\n      0x04\n      add\n      tag_328\n      swap2\n      swap1\n      tag_38\n      jump\t// in\n    tag_328:\n      mload(0x40)\n      dup1\n      swap2\n      sub\n      swap1\n      revert\n        /* \"ERC20/access/AccessControl.sol\":3421:3835  if (!hasRole(role, account)) {... */\n    tag_322:\n        /* \"ERC20/access/AccessControl.sol\":3345:3842  function _checkRole(bytes32 role, address account) internal view {... */\n      pop\n      pop\n      jump\t// out\n        /* \"ERC20/utils/structs/EnumerableSet.sol\":4456:4576  function _at(Set storage set, uint256 index) private view returns (bytes32) {... */\n    tag_285:\n        /* \"ERC20/utils/structs/EnumerableSet.sol\":4523:4530  bytes32 */\n      0x00\n        /* \"ERC20/utils/structs/EnumerableSet.sol\":4550:4553  set */\n      dup3\n        /* \"ERC20/utils/structs/EnumerableSet.sol\":4550:4561  set._values */\n      0x00\n      add\n        /* \"ERC20/utils/structs/EnumerableSet.sol\":4562:4567  index */\n      dup3\n        /* \"ERC20/utils/structs/EnumerableSet.sol\":4550:4568  set._values[index] */\n      dup2\n      sload\n      dup2\n      lt\n      tag_330\n      jumpi\n      tag_331\n      tag_332\n      jump\t// in\n    tag_331:\n    tag_330:\n      swap1\n      0x00\n      mstore\n      keccak256(0x00, 0x20)\n      add\n      sload\n        /* \"ERC20/utils/structs/EnumerableSet.sol\":4543:4568  return set._values[index] */\n      swap1\n      pop\n        /* \"ERC20/utils/structs/EnumerableSet.sol\":4456:4576  function _at(Set storage set, uint256 index) private view returns (bytes32) {... */\n      swap3\n      swap2\n      pop\n      pop\n      jump\t// out\n        /* \"ERC20/utils/structs/EnumerableSet.sol\":3993:4102  function _length(Set storage set) private view returns (uint256) {... */\n    tag_296:\n        /* \"ERC20/utils/structs/EnumerableSet.sol\":4049:4056  uint256 */\n      0x00\n        /* \"ERC20/utils/structs/EnumerableSet.sol\":4076:4079  set */\n      dup2\n        /* \"ERC20/utils/structs/EnumerableSet.sol\":4076:4087  set._values */\n      0x00\n      add\n        /* \"ERC20/utils/structs/EnumerableSet.sol\":4076:4094  set._values.length */\n      dup1\n      sload\n      swap1\n      pop\n        /* \"ERC20/utils/structs/EnumerableSet.sol\":4069:4094  return set._values.length */\n      swap1\n      pop\n        /* \"ERC20/utils/structs/EnumerableSet.sol\":3993:4102  function _length(Set storage set) private view returns (uint256) {... */\n      swap2\n      swap1\n      pop\n      jump\t// out\n        /* \"ERC20/access/AccessControl.sol\":7347:7586  function _revokeRole(bytes32 role, address account) internal virtual {... */\n    tag_303:\n        /* \"ERC20/access/AccessControl.sol\":7431:7453  hasRole(role, account) */\n      tag_336\n        /* \"ERC20/access/AccessControl.sol\":7439:7443  role */\n      dup3\n        /* \"ERC20/access/AccessControl.sol\":7445:7452  account */\n      dup3\n        /* \"ERC20/access/AccessControl.sol\":7431:7438  hasRole */\n      tag_90\n        /* \"ERC20/access/AccessControl.sol\":7431:7453  hasRole(role, account) */\n      jump\t// in\n    tag_336:\n        /* \"ERC20/access/AccessControl.sol\":7427:7579  if (hasRole(role, account)) {... */\n      iszero\n      tag_337\n      jumpi\n        /* \"ERC20/access/AccessControl.sol\":7502:7507  false */\n      0x00\n        /* \"ERC20/access/AccessControl.sol\":7470:7476  _roles */\n      dup1\n        /* \"ERC20/access/AccessControl.sol\":7470:7482  _roles[role] */\n      0x00\n        /* \"ERC20/access/AccessControl.sol\":7477:7481  role */\n      dup5\n        /* \"ERC20/access/AccessControl.sol\":7470:7482  _roles[role] */\n      dup2\n      mstore\n      0x20\n      add\n      swap1\n      dup2\n      mstore\n      0x20\n      add\n      0x00\n      keccak256\n        /* \"ERC20/access/AccessControl.sol\":7470:7490  _roles[role].members */\n      0x00\n      add\n        /* \"ERC20/access/AccessControl.sol\":7470:7499  _roles[role].members[account] */\n      0x00\n        /* \"ERC20/access/AccessControl.sol\":7491:7498  account */\n      dup4\n        /* \"ERC20/access/AccessControl.sol\":7470:7499  _roles[role].members[account] */\n      0xffffffffffffffffffffffffffffffffffffffff\n      and\n      0xffffffffffffffffffffffffffffffffffffffff\n      and\n      dup2\n      mstore\n      0x20\n      add\n      swap1\n      dup2\n      mstore\n      0x20\n      add\n      0x00\n      keccak256\n      0x00\n        /* \"ERC20/access/AccessControl.sol\":7470:7507  _roles[role].members[account] = false */\n      0x0100\n      exp\n      dup2\n      sload\n      dup2\n      0xff\n      mul\n      not\n      and\n      swap1\n      dup4\n      iszero\n      iszero\n      mul\n      or\n      swap1\n      sstore\n      pop\n        /* \"ERC20/access/AccessControl.sol\":7554:7566  _msgSender() */\n      tag_338\n        /* \"ERC20/access/AccessControl.sol\":7554:7564  _msgSender */\n      tag_140\n        /* \"ERC20/access/AccessControl.sol\":7554:7566  _msgSender() */\n      jump\t// in\n    tag_338:\n        /* \"ERC20/access/AccessControl.sol\":7527:7567  RoleRevoked(role, account, _msgSender()) */\n      0xffffffffffffffffffffffffffffffffffffffff\n      and\n        /* \"ERC20/access/AccessControl.sol\":7545:7552  account */\n      dup2\n        /* \"ERC20/access/AccessControl.sol\":7527:7567  RoleRevoked(role, account, _msgSender()) */\n      0xffffffffffffffffffffffffffffffffffffffff\n      and\n        /* \"ERC20/access/AccessControl.sol\":7539:7543  role */\n      dup4\n        /* \"ERC20/access/AccessControl.sol\":7527:7567  RoleRevoked(role, account, _msgSender()) */\n      0xf6391f5c32d9c69d2a47ea670b442974b53935d1edc7fd64eb21e047a839171b\n      mload(0x40)\n      mload(0x40)\n      dup1\n      swap2\n      sub\n      swap1\n      log4\n        /* \"ERC20/access/AccessControl.sol\":7427:7579  if (hasRole(role, account)) {... */\n    tag_337:\n        /* \"ERC20/access/AccessControl.sol\":7347:7586  function _revokeRole(bytes32 role, address account) internal virtual {... */\n      pop\n      pop\n      jump\t// out\n        /* \"ERC20/utils/structs/EnumerableSet.sol\":2272:3692  function _remove(Set storage set, bytes32 value) private returns (bool) {... */\n    tag_306:\n        /* \"ERC20/utils/structs/EnumerableSet.sol\":2338:2342  bool */\n      0x00\n        /* \"ERC20/utils/structs/EnumerableSet.sol\":2456:2474  uint256 valueIndex */\n      dup1\n        /* \"ERC20/utils/structs/EnumerableSet.sol\":2477:2480  set */\n      dup4\n        /* \"ERC20/utils/structs/EnumerableSet.sol\":2477:2489  set._indexes */\n      0x01\n      add\n        /* \"ERC20/utils/structs/EnumerableSet.sol\":2477:2496  set._indexes[value] */\n      0x00\n        /* \"ERC20/utils/structs/EnumerableSet.sol\":2490:2495  value */\n      dup5\n        /* \"ERC20/utils/structs/EnumerableSet.sol\":2477:2496  set._indexes[value] */\n      dup2\n      mstore\n      0x20\n      add\n      swap1\n      dup2\n      mstore\n      0x20\n      add\n      0x00\n      keccak256\n      sload\n        /* \"ERC20/utils/structs/EnumerableSet.sol\":2456:2496  uint256 valueIndex = set._indexes[value] */\n      swap1\n      pop\n        /* \"ERC20/utils/structs/EnumerableSet.sol\":2527:2528  0 */\n      0x00\n        /* \"ERC20/utils/structs/EnumerableSet.sol\":2513:2523  valueIndex */\n      dup2\n        /* \"ERC20/utils/structs/EnumerableSet.sol\":2513:2528  valueIndex != 0 */\n      eq\n        /* \"ERC20/utils/structs/EnumerableSet.sol\":2509:3685  if (valueIndex != 0) {... */\n      tag_340\n      jumpi\n        /* \"ERC20/utils/structs/EnumerableSet.sol\":2888:2909  uint256 toDeleteIndex */\n      0x00\n        /* \"ERC20/utils/structs/EnumerableSet.sol\":2925:2926  1 */\n      0x01\n        /* \"ERC20/utils/structs/EnumerableSet.sol\":2912:2922  valueIndex */\n      dup3\n        /* \"ERC20/utils/structs/EnumerableSet.sol\":2912:2926  valueIndex - 1 */\n      tag_341\n      swap2\n      swap1\n      tag_342\n      jump\t// in\n    tag_341:\n        /* \"ERC20/utils/structs/EnumerableSet.sol\":2888:2926  uint256 toDeleteIndex = valueIndex - 1 */\n      swap1\n      pop\n        /* \"ERC20/utils/structs/EnumerableSet.sol\":2941:2958  uint256 lastIndex */\n      0x00\n        /* \"ERC20/utils/structs/EnumerableSet.sol\":2982:2983  1 */\n      0x01\n        /* \"ERC20/utils/structs/EnumerableSet.sol\":2961:2964  set */\n      dup7\n        /* \"ERC20/utils/structs/EnumerableSet.sol\":2961:2972  set._values */\n      0x00\n      add\n        /* \"ERC20/utils/structs/EnumerableSet.sol\":2961:2979  set._values.length */\n      dup1\n      sload\n      swap1\n      pop\n        /* \"ERC20/utils/structs/EnumerableSet.sol\":2961:2983  set._values.length - 1 */\n      tag_343\n      swap2\n      swap1\n      tag_342\n      jump\t// in\n    tag_343:\n        /* \"ERC20/utils/structs/EnumerableSet.sol\":2941:2983  uint256 lastIndex = set._values.length - 1 */\n      swap1\n      pop\n        /* \"ERC20/utils/structs/EnumerableSet.sol\":3017:3030  toDeleteIndex */\n      dup2\n        /* \"ERC20/utils/structs/EnumerableSet.sol\":3004:3013  lastIndex */\n      dup2\n        /* \"ERC20/utils/structs/EnumerableSet.sol\":3004:3030  lastIndex != toDeleteIndex */\n      eq\n        /* \"ERC20/utils/structs/EnumerableSet.sol\":3000:3405  if (lastIndex != toDeleteIndex) {... */\n      tag_344\n      jumpi\n        /* \"ERC20/utils/structs/EnumerableSet.sol\":3051:3068  bytes32 lastvalue */\n      0x00\n        /* \"ERC20/utils/structs/EnumerableSet.sol\":3071:3074  set */\n      dup7\n        /* \"ERC20/utils/structs/EnumerableSet.sol\":3071:3082  set._values */\n      0x00\n      add\n        /* \"ERC20/utils/structs/EnumerableSet.sol\":3083:3092  lastIndex */\n      dup3\n        /* \"ERC20/utils/structs/EnumerableSet.sol\":3071:3093  set._values[lastIndex] */\n      dup2\n      sload\n      dup2\n      lt\n      tag_345\n      jumpi\n      tag_346\n      tag_332\n      jump\t// in\n    tag_346:\n    tag_345:\n      swap1\n      0x00\n      mstore\n      keccak256(0x00, 0x20)\n      add\n      sload\n        /* \"ERC20/utils/structs/EnumerableSet.sol\":3051:3093  bytes32 lastvalue = set._values[lastIndex] */\n      swap1\n      pop\n        /* \"ERC20/utils/structs/EnumerableSet.sol\":3225:3234  lastvalue */\n      dup1\n        /* \"ERC20/utils/structs/EnumerableSet.sol\":3196:3199  set */\n      dup8\n        /* \"ERC20/utils/structs/EnumerableSet.sol\":3196:3207  set._values */\n      0x00\n      add\n        /* \"ERC20/utils/structs/EnumerableSet.sol\":3208:3221  toDeleteIndex */\n      dup5\n        /* \"ERC20/utils/structs/EnumerableSet.sol\":3196:3222  set._values[toDeleteIndex] */\n      dup2\n      sload\n      dup2\n      lt\n      tag_348\n      jumpi\n      tag_349\n      tag_332\n      jump\t// in\n    tag_349:\n    tag_348:\n      swap1\n      0x00\n      mstore\n      keccak256(0x00, 0x20)\n      add\n        /* \"ERC20/utils/structs/EnumerableSet.sol\":3196:3234  set._values[toDeleteIndex] = lastvalue */\n      dup2\n      swap1\n      sstore\n      pop\n        /* \"ERC20/utils/structs/EnumerableSet.sol\":3336:3346  valueIndex */\n      dup4\n        /* \"ERC20/utils/structs/EnumerableSet.sol\":3310:3313  set */\n      dup8\n        /* \"ERC20/utils/structs/EnumerableSet.sol\":3310:3322  set._indexes */\n      0x01\n      add\n        /* \"ERC20/utils/structs/EnumerableSet.sol\":3310:3333  set._indexes[lastvalue] */\n      0x00\n        /* \"ERC20/utils/structs/EnumerableSet.sol\":3323:3332  lastvalue */\n      dup4\n        /* \"ERC20/utils/structs/EnumerableSet.sol\":3310:3333  set._indexes[lastvalue] */\n      dup2\n      mstore\n      0x20\n      add\n      swap1\n      dup2\n      mstore\n      0x20\n      add\n      0x00\n      keccak256\n        /* \"ERC20/utils/structs/EnumerableSet.sol\":3310:3346  set._indexes[lastvalue] = valueIndex */\n      dup2\n      swap1\n      sstore\n      pop\n        /* \"ERC20/utils/structs/EnumerableSet.sol\":3032:3405  {... */\n      pop\n        /* \"ERC20/utils/structs/EnumerableSet.sol\":3000:3405  if (lastIndex != toDeleteIndex) {... */\n    tag_344:\n        /* \"ERC20/utils/structs/EnumerableSet.sol\":3486:3489  set */\n      dup6\n        /* \"ERC20/utils/structs/EnumerableSet.sol\":3486:3497  set._values */\n      0x00\n      add\n        /* \"ERC20/utils/structs/EnumerableSet.sol\":3486:3503  set._values.pop() */\n      dup1\n      sload\n      dup1\n      tag_351\n      jumpi\n      tag_352\n      tag_353\n      jump\t// in\n    tag_352:\n    tag_351:\n      0x01\n      swap1\n      sub\n      dup2\n      dup2\n      swap1\n      0x00\n      mstore\n      keccak256(0x00, 0x20)\n      add\n      0x00\n      swap1\n      sstore\n      swap1\n      sstore\n        /* \"ERC20/utils/structs/EnumerableSet.sol\":3581:3584  set */\n      dup6\n        /* \"ERC20/utils/structs/EnumerableSet.sol\":3581:3593  set._indexes */\n      0x01\n      add\n        /* \"ERC20/utils/structs/EnumerableSet.sol\":3581:3600  set._indexes[value] */\n      0x00\n        /* \"ERC20/utils/structs/EnumerableSet.sol\":3594:3599  value */\n      dup7\n        /* \"ERC20/utils/structs/EnumerableSet.sol\":3581:3600  set._indexes[value] */\n      dup2\n      mstore\n      0x20\n      add\n      swap1\n      dup2\n      mstore\n      0x20\n      add\n      0x00\n      keccak256\n        /* \"ERC20/utils/structs/EnumerableSet.sol\":3574:3600  delete set._indexes[value] */\n      0x00\n      swap1\n      sstore\n        /* \"ERC20/utils/structs/EnumerableSet.sol\":3624:3628  true */\n      0x01\n        /* \"ERC20/utils/structs/EnumerableSet.sol\":3617:3628  return true */\n      swap4\n      pop\n      pop\n      pop\n      pop\n      jump(tag_339)\n        /* \"ERC20/utils/structs/EnumerableSet.sol\":2509:3685  if (valueIndex != 0) {... */\n    tag_340:\n        /* \"ERC20/utils/structs/EnumerableSet.sol\":3668:3673  false */\n      0x00\n        /* \"ERC20/utils/structs/EnumerableSet.sol\":3661:3673  return false */\n      swap2\n      pop\n      pop\n        /* \"ERC20/utils/structs/EnumerableSet.sol\":2272:3692  function _remove(Set storage set, bytes32 value) private returns (bool) {... */\n    tag_339:\n      swap3\n      swap2\n      pop\n      pop\n      jump\t// out\n        /* \"ERC20/utils/structs/EnumerableSet.sol\":3778:3907  function _contains(Set storage set, bytes32 value) private view returns (bool) {... */\n    tag_313:\n        /* \"ERC20/utils/structs/EnumerableSet.sol\":3851:3855  bool */\n      0x00\n        /* \"ERC20/utils/structs/EnumerableSet.sol\":3898:3899  0 */\n      dup1\n        /* \"ERC20/utils/structs/EnumerableSet.sol\":3875:3878  set */\n      dup4\n        /* \"ERC20/utils/structs/EnumerableSet.sol\":3875:3887  set._indexes */\n      0x01\n      add\n        /* \"ERC20/utils/structs/EnumerableSet.sol\":3875:3894  set._indexes[value] */\n      0x00\n        /* \"ERC20/utils/structs/EnumerableSet.sol\":3888:3893  value */\n      dup5\n        /* \"ERC20/utils/structs/EnumerableSet.sol\":3875:3894  set._indexes[value] */\n      dup2\n      mstore\n      0x20\n      add\n      swap1\n      dup2\n      mstore\n      0x20\n      add\n      0x00\n      keccak256\n      sload\n        /* \"ERC20/utils/structs/EnumerableSet.sol\":3875:3899  set._indexes[value] != 0 */\n      eq\n      iszero\n        /* \"ERC20/utils/structs/EnumerableSet.sol\":3868:3899  return set._indexes[value] != 0 */\n      swap1\n      pop\n        /* \"ERC20/utils/structs/EnumerableSet.sol\":3778:3907  function _contains(Set storage set, bytes32 value) private view returns (bool) {... */\n      swap3\n      swap2\n      pop\n      pop\n      jump\t// out\n        /* \"ERC20/utils/Strings.sol\":1589:2040  function toHexString(uint256 value, uint256 length) internal pure returns (string memory) {... */\n    tag_324:\n        /* \"ERC20/utils/Strings.sol\":1664:1677  string memory */\n      0x60\n        /* \"ERC20/utils/Strings.sol\":1690:1709  bytes memory buffer */\n      0x00\n        /* \"ERC20/utils/Strings.sol\":1735:1736  2 */\n      0x02\n        /* \"ERC20/utils/Strings.sol\":1726:1732  length */\n      dup4\n        /* \"ERC20/utils/Strings.sol\":1722:1723  2 */\n      0x02\n        /* \"ERC20/utils/Strings.sol\":1722:1732  2 * length */\n      tag_358\n      swap2\n      swap1\n      tag_359\n      jump\t// in\n    tag_358:\n        /* \"ERC20/utils/Strings.sol\":1722:1736  2 * length + 2 */\n      tag_360\n      swap2\n      swap1\n      tag_172\n      jump\t// in\n    tag_360:\n        /* \"ERC20/utils/Strings.sol\":1712:1737  new bytes(2 * length + 2) */\n      0xffffffffffffffff\n      dup2\n      gt\n      iszero\n      tag_361\n      jumpi\n      tag_362\n      tag_363\n      jump\t// in\n    tag_362:\n    tag_361:\n      mload(0x40)\n      swap1\n      dup1\n      dup3\n      mstore\n      dup1\n      0x1f\n      add\n      not(0x1f)\n      and\n      0x20\n      add\n      dup3\n      add\n      0x40\n      mstore\n      dup1\n      iszero\n      tag_364\n      jumpi\n      dup2\n      0x20\n      add\n      0x01\n      dup3\n      mul\n      dup1\n      calldatasize\n      dup4\n      calldatacopy\n      dup1\n      dup3\n      add\n      swap2\n      pop\n      pop\n      swap1\n      pop\n    tag_364:\n      pop\n        /* \"ERC20/utils/Strings.sol\":1690:1737  bytes memory buffer = new bytes(2 * length + 2) */\n      swap1\n      pop\n        /* \"ERC20/utils/Strings.sol\":1748:1763  buffer[0] = \"0\" */\n      0x3000000000000000000000000000000000000000000000000000000000000000\n        /* \"ERC20/utils/Strings.sol\":1748:1754  buffer */\n      dup2\n        /* \"ERC20/utils/Strings.sol\":1755:1756  0 */\n      0x00\n        /* \"ERC20/utils/Strings.sol\":1748:1757  buffer[0] */\n      dup2\n      mload\n      dup2\n      lt\n      tag_365\n      jumpi\n      tag_366\n      tag_332\n      jump\t// in\n    tag_366:\n    tag_365:\n      0x20\n      add\n      add\n        /* \"ERC20/utils/Strings.sol\":1748:1763  buffer[0] = \"0\" */\n      swap1\n      not(0xffffffffffffffffffffffffffffffffffffffffffffffffffffffffffffff)\n      and\n      swap1\n      dup2\n      0x00\n      byte\n      swap1\n      mstore8\n      pop\n        /* \"ERC20/utils/Strings.sol\":1774:1789  buffer[1] = \"x\" */\n      0x7800000000000000000000000000000000000000000000000000000000000000\n        /* \"ERC20/utils/Strings.sol\":1774:1780  buffer */\n      dup2\n        /* \"ERC20/utils/Strings.sol\":1781:1782  1 */\n      0x01\n        /* \"ERC20/utils/Strings.sol\":1774:1783  buffer[1] */\n      dup2\n      mload\n      dup2\n      lt\n      tag_367\n      jumpi\n      tag_368\n      tag_332\n      jump\t// in\n    tag_368:\n    tag_367:\n      0x20\n      add\n      add\n        /* \"ERC20/utils/Strings.sol\":1774:1789  buffer[1] = \"x\" */\n      swap1\n      not(0xffffffffffffffffffffffffffffffffffffffffffffffffffffffffffffff)\n      and\n      swap1\n      dup2\n      0x00\n      byte\n      swap1\n      mstore8\n      pop\n        /* \"ERC20/utils/Strings.sol\":1805:1814  uint256 i */\n      0x00\n        /* \"ERC20/utils/Strings.sol\":1830:1831  1 */\n      0x01\n        /* \"ERC20/utils/Strings.sol\":1821:1827  length */\n      dup5\n        /* \"ERC20/utils/Strings.sol\":1817:1818  2 */\n      0x02\n        /* \"ERC20/utils/Strings.sol\":1817:1827  2 * length */\n      tag_372\n      swap2\n      swap1\n      tag_359\n      jump\t// in\n    tag_372:\n        /* \"ERC20/utils/Strings.sol\":1817:1831  2 * length + 1 */\n      tag_373\n      swap2\n      swap1\n      tag_172\n      jump\t// in\n    tag_373:\n        /* \"ERC20/utils/Strings.sol\":1805:1831  uint256 i = 2 * length + 1 */\n      swap1\n      pop\n        /* \"ERC20/utils/Strings.sol\":1800:1935  for (uint256 i = 2 * length + 1; i > 1; --i) {... */\n    tag_369:\n        /* \"ERC20/utils/Strings.sol\":1837:1838  1 */\n      0x01\n        /* \"ERC20/utils/Strings.sol\":1833:1834  i */\n      dup2\n        /* \"ERC20/utils/Strings.sol\":1833:1838  i > 1 */\n      gt\n        /* \"ERC20/utils/Strings.sol\":1800:1935  for (uint256 i = 2 * length + 1; i > 1; --i) {... */\n      iszero\n      tag_370\n      jumpi\n        /* \"ERC20/utils/Strings.sol\":1872:1884  _HEX_SYMBOLS */\n      0x3031323334353637383961626364656600000000000000000000000000000000\n        /* \"ERC20/utils/Strings.sol\":1893:1896  0xf */\n      0x0f\n        /* \"ERC20/utils/Strings.sol\":1885:1890  value */\n      dup7\n        /* \"ERC20/utils/Strings.sol\":1885:1896  value & 0xf */\n      and\n        /* \"ERC20/utils/Strings.sol\":1872:1897  _HEX_SYMBOLS[value & 0xf] */\n      0x10\n      dup2\n      lt\n      tag_374\n      jumpi\n      tag_375\n      tag_332\n      jump\t// in\n    tag_375:\n    tag_374:\n      byte\n      0xf8\n      shl\n        /* \"ERC20/utils/Strings.sol\":1860:1866  buffer */\n      dup3\n        /* \"ERC20/utils/Strings.sol\":1867:1868  i */\n      dup3\n        /* \"ERC20/utils/Strings.sol\":1860:1869  buffer[i] */\n      dup2\n      mload\n      dup2\n      lt\n      tag_376\n      jumpi\n      tag_377\n      tag_332\n      jump\t// in\n    tag_377:\n    tag_376:\n      0x20\n      add\n      add\n        /* \"ERC20/utils/Strings.sol\":1860:1897  buffer[i] = _HEX_SYMBOLS[value & 0xf] */\n      swap1\n      not(0xffffffffffffffffffffffffffffffffffffffffffffffffffffffffffffff)\n      and\n      swap1\n      dup2\n      0x00\n      byte\n      swap1\n      mstore8\n      pop\n        /* \"ERC20/utils/Strings.sol\":1922:1923  4 */\n      0x04\n        /* \"ERC20/utils/Strings.sol\":1912:1923  value >>= 4 */\n      dup6\n      swap1\n      shr\n      swap5\n      pop\n        /* \"ERC20/utils/Strings.sol\":1840:1843  --i */\n      dup1\n      tag_378\n      swap1\n      tag_379\n      jump\t// in\n    tag_378:\n      swap1\n      pop\n        /* \"ERC20/utils/Strings.sol\":1800:1935  for (uint256 i = 2 * length + 1; i > 1; --i) {... */\n      jump(tag_369)\n    tag_370:\n      pop\n        /* \"ERC20/utils/Strings.sol\":1962:1963  0 */\n      0x00\n        /* \"ERC20/utils/Strings.sol\":1953:1958  value */\n      dup5\n        /* \"ERC20/utils/Strings.sol\":1953:1963  value == 0 */\n      eq\n        /* \"ERC20/utils/Strings.sol\":1945:2000  require(value == 0, \"Strings: hex length insufficient\") */\n      tag_380\n      jumpi\n      mload(0x40)\n      0x08c379a000000000000000000000000000000000000000000000000000000000\n      dup2\n      mstore\n      0x04\n      add\n      tag_381\n      swap1\n      tag_382\n      jump\t// in\n    tag_381:\n      mload(0x40)\n      dup1\n      swap2\n      sub\n      swap1\n      revert\n    tag_380:\n        /* \"ERC20/utils/Strings.sol\":2025:2031  buffer */\n      dup1\n        /* \"ERC20/utils/Strings.sol\":2011:2032  return string(buffer) */\n      swap2\n      pop\n      pop\n        /* \"ERC20/utils/Strings.sol\":1589:2040  function toHexString(uint256 value, uint256 length) internal pure returns (string memory) {... */\n      swap3\n      swap2\n      pop\n      pop\n      jump\t// out\n        /* \"#utility.yul\":88:205   */\n    tag_384:\n        /* \"#utility.yul\":197:198   */\n      0x00\n        /* \"#utility.yul\":194:195   */\n      dup1\n        /* \"#utility.yul\":187:199   */\n      revert\n        /* \"#utility.yul\":334:483   */\n    tag_386:\n        /* \"#utility.yul\":370:377   */\n      0x00\n        /* \"#utility.yul\":410:476   */\n      0xffffffff00000000000000000000000000000000000000000000000000000000\n        /* \"#utility.yul\":403:408   */\n      dup3\n        /* \"#utility.yul\":399:477   */\n      and\n        /* \"#utility.yul\":388:477   */\n      swap1\n      pop\n        /* \"#utility.yul\":334:483   */\n      swap2\n      swap1\n      pop\n      jump\t// out\n        /* \"#utility.yul\":489:609   */\n    tag_387:\n        /* \"#utility.yul\":561:584   */\n      tag_453\n        /* \"#utility.yul\":578:583   */\n      dup2\n        /* \"#utility.yul\":561:584   */\n      tag_386\n      jump\t// in\n    tag_453:\n        /* \"#utility.yul\":554:559   */\n      dup2\n        /* \"#utility.yul\":551:585   */\n      eq\n        /* \"#utility.yul\":541:603   */\n      tag_454\n      jumpi\n        /* \"#utility.yul\":599:600   */\n      0x00\n        /* \"#utility.yul\":596:597   */\n      dup1\n        /* \"#utility.yul\":589:601   */\n      revert\n        /* \"#utility.yul\":541:603   */\n    tag_454:\n        /* \"#utility.yul\":489:609   */\n      pop\n      jump\t// out\n        /* \"#utility.yul\":615:752   */\n    tag_388:\n        /* \"#utility.yul\":660:665   */\n      0x00\n        /* \"#utility.yul\":698:704   */\n      dup2\n        /* \"#utility.yul\":685:705   */\n      calldataload\n        /* \"#utility.yul\":676:705   */\n      swap1\n      pop\n        /* \"#utility.yul\":714:746   */\n      tag_456\n        /* \"#utility.yul\":740:745   */\n      dup2\n        /* \"#utility.yul\":714:746   */\n      tag_387\n      jump\t// in\n    tag_456:\n        /* \"#utility.yul\":615:752   */\n      swap3\n      swap2\n      pop\n      pop\n      jump\t// out\n        /* \"#utility.yul\":758:1085   */\n    tag_31:\n        /* \"#utility.yul\":816:822   */\n      0x00\n        /* \"#utility.yul\":865:867   */\n      0x20\n        /* \"#utility.yul\":853:862   */\n      dup3\n        /* \"#utility.yul\":844:851   */\n      dup5\n        /* \"#utility.yul\":840:863   */\n      sub\n        /* \"#utility.yul\":836:868   */\n      slt\n        /* \"#utility.yul\":833:952   */\n      iszero\n      tag_458\n      jumpi\n        /* \"#utility.yul\":871:950   */\n      tag_459\n      tag_384\n      jump\t// in\n    tag_459:\n        /* \"#utility.yul\":833:952   */\n    tag_458:\n        /* \"#utility.yul\":991:992   */\n      0x00\n        /* \"#utility.yul\":1016:1068   */\n      tag_460\n        /* \"#utility.yul\":1060:1067   */\n      dup5\n        /* \"#utility.yul\":1051:1057   */\n      dup3\n        /* \"#utility.yul\":1040:1049   */\n      dup6\n        /* \"#utility.yul\":1036:1058   */\n      add\n        /* \"#utility.yul\":1016:1068   */\n      tag_388\n      jump\t// in\n    tag_460:\n        /* \"#utility.yul\":1006:1068   */\n      swap2\n      pop\n        /* \"#utility.yul\":962:1078   */\n      pop\n        /* \"#utility.yul\":758:1085   */\n      swap3\n      swap2\n      pop\n      pop\n      jump\t// out\n        /* \"#utility.yul\":1091:1181   */\n    tag_389:\n        /* \"#utility.yul\":1125:1132   */\n      0x00\n        /* \"#utility.yul\":1168:1173   */\n      dup2\n        /* \"#utility.yul\":1161:1174   */\n      iszero\n        /* \"#utility.yul\":1154:1175   */\n      iszero\n        /* \"#utility.yul\":1143:1175   */\n      swap1\n      pop\n        /* \"#utility.yul\":1091:1181   */\n      swap2\n      swap1\n      pop\n      jump\t// out\n        /* \"#utility.yul\":1187:1296   */\n    tag_390:\n        /* \"#utility.yul\":1268:1289   */\n      tag_463\n        /* \"#utility.yul\":1283:1288   */\n      dup2\n        /* \"#utility.yul\":1268:1289   */\n      tag_389\n      jump\t// in\n    tag_463:\n        /* \"#utility.yul\":1263:1266   */\n      dup3\n        /* \"#utility.yul\":1256:1290   */\n      mstore\n        /* \"#utility.yul\":1187:1296   */\n      pop\n      pop\n      jump\t// out\n        /* \"#utility.yul\":1302:1512   */\n    tag_34:\n        /* \"#utility.yul\":1389:1393   */\n      0x00\n        /* \"#utility.yul\":1427:1429   */\n      0x20\n        /* \"#utility.yul\":1416:1425   */\n      dup3\n        /* \"#utility.yul\":1412:1430   */\n      add\n        /* \"#utility.yul\":1404:1430   */\n      swap1\n      pop\n        /* \"#utility.yul\":1440:1505   */\n      tag_465\n        /* \"#utility.yul\":1502:1503   */\n      0x00\n        /* \"#utility.yul\":1491:1500   */\n      dup4\n        /* \"#utility.yul\":1487:1504   */\n      add\n        /* \"#utility.yul\":1478:1484   */\n      dup5\n        /* \"#utility.yul\":1440:1505   */\n      tag_390\n      jump\t// in\n    tag_465:\n        /* \"#utility.yul\":1302:1512   */\n      swap3\n      swap2\n      pop\n      pop\n      jump\t// out\n        /* \"#utility.yul\":1518:1617   */\n    tag_391:\n        /* \"#utility.yul\":1570:1576   */\n      0x00\n        /* \"#utility.yul\":1604:1609   */\n      dup2\n        /* \"#utility.yul\":1598:1610   */\n      mload\n        /* \"#utility.yul\":1588:1610   */\n      swap1\n      pop\n        /* \"#utility.yul\":1518:1617   */\n      swap2\n      swap1\n      pop\n      jump\t// out\n        /* \"#utility.yul\":1623:1792   */\n    tag_392:\n        /* \"#utility.yul\":1707:1718   */\n      0x00\n        /* \"#utility.yul\":1741:1747   */\n      dup3\n        /* \"#utility.yul\":1736:1739   */\n      dup3\n        /* \"#utility.yul\":1729:1748   */\n      mstore\n        /* \"#utility.yul\":1781:1785   */\n      0x20\n        /* \"#utility.yul\":1776:1779   */\n      dup3\n        /* \"#utility.yul\":1772:1786   */\n      add\n        /* \"#utility.yul\":1757:1786   */\n      swap1\n      pop\n        /* \"#utility.yul\":1623:1792   */\n      swap3\n      swap2\n      pop\n      pop\n      jump\t// out\n        /* \"#utility.yul\":1798:2105   */\n    tag_393:\n        /* \"#utility.yul\":1866:1867   */\n      0x00\n        /* \"#utility.yul\":1876:1989   */\n    tag_469:\n        /* \"#utility.yul\":1890:1896   */\n      dup4\n        /* \"#utility.yul\":1887:1888   */\n      dup2\n        /* \"#utility.yul\":1884:1897   */\n      lt\n        /* \"#utility.yul\":1876:1989   */\n      iszero\n      tag_471\n      jumpi\n        /* \"#utility.yul\":1975:1976   */\n      dup1\n        /* \"#utility.yul\":1970:1973   */\n      dup3\n        /* \"#utility.yul\":1966:1977   */\n      add\n        /* \"#utility.yul\":1960:1978   */\n      mload\n        /* \"#utility.yul\":1956:1957   */\n      dup2\n        /* \"#utility.yul\":1951:1954   */\n      dup5\n        /* \"#utility.yul\":1947:1958   */\n      add\n        /* \"#utility.yul\":1940:1979   */\n      mstore\n        /* \"#utility.yul\":1912:1914   */\n      0x20\n        /* \"#utility.yul\":1909:1910   */\n      dup2\n        /* \"#utility.yul\":1905:1915   */\n      add\n        /* \"#utility.yul\":1900:1915   */\n      swap1\n      pop\n        /* \"#utility.yul\":1876:1989   */\n      jump(tag_469)\n    tag_471:\n        /* \"#utility.yul\":2007:2013   */\n      dup4\n        /* \"#utility.yul\":2004:2005   */\n      dup2\n        /* \"#utility.yul\":2001:2014   */\n      gt\n        /* \"#utility.yul\":1998:2099   */\n      iszero\n      tag_472\n      jumpi\n        /* \"#utility.yul\":2087:2088   */\n      0x00\n        /* \"#utility.yul\":2078:2084   */\n      dup5\n        /* \"#utility.yul\":2073:2076   */\n      dup5\n        /* \"#utility.yul\":2069:2085   */\n      add\n        /* \"#utility.yul\":2062:2089   */\n      mstore\n        /* \"#utility.yul\":1998:2099   */\n    tag_472:\n        /* \"#utility.yul\":1847:2105   */\n      pop\n        /* \"#utility.yul\":1798:2105   */\n      pop\n      pop\n      pop\n      jump\t// out\n        /* \"#utility.yul\":2111:2213   */\n    tag_394:\n        /* \"#utility.yul\":2152:2158   */\n      0x00\n        /* \"#utility.yul\":2203:2205   */\n      0x1f\n        /* \"#utility.yul\":2199:2206   */\n      not\n        /* \"#utility.yul\":2194:2196   */\n      0x1f\n        /* \"#utility.yul\":2187:2192   */\n      dup4\n        /* \"#utility.yul\":2183:2197   */\n      add\n        /* \"#utility.yul\":2179:2207   */\n      and\n        /* \"#utility.yul\":2169:2207   */\n      swap1\n      pop\n        /* \"#utility.yul\":2111:2213   */\n      swap2\n      swap1\n      pop\n      jump\t// out\n        /* \"#utility.yul\":2219:2583   */\n    tag_395:\n        /* \"#utility.yul\":2307:2310   */\n      0x00\n        /* \"#utility.yul\":2335:2374   */\n      tag_475\n        /* \"#utility.yul\":2368:2373   */\n      dup3\n        /* \"#utility.yul\":2335:2374   */\n      tag_391\n      jump\t// in\n    tag_475:\n        /* \"#utility.yul\":2390:2461   */\n      tag_476\n        /* \"#utility.yul\":2454:2460   */\n      dup2\n        /* \"#utility.yul\":2449:2452   */\n      dup6\n        /* \"#utility.yul\":2390:2461   */\n      tag_392\n      jump\t// in\n    tag_476:\n        /* \"#utility.yul\":2383:2461   */\n      swap4\n      pop\n        /* \"#utility.yul\":2470:2522   */\n      tag_477\n        /* \"#utility.yul\":2515:2521   */\n      dup2\n        /* \"#utility.yul\":2510:2513   */\n      dup6\n        /* \"#utility.yul\":2503:2507   */\n      0x20\n        /* \"#utility.yul\":2496:2501   */\n      dup7\n        /* \"#utility.yul\":2492:2508   */\n      add\n        /* \"#utility.yul\":2470:2522   */\n      tag_393\n      jump\t// in\n    tag_477:\n        /* \"#utility.yul\":2547:2576   */\n      tag_478\n        /* \"#utility.yul\":2569:2575   */\n      dup2\n        /* \"#utility.yul\":2547:2576   */\n      tag_394\n      jump\t// in\n    tag_478:\n        /* \"#utility.yul\":2542:2545   */\n      dup5\n        /* \"#utility.yul\":2538:2577   */\n      add\n        /* \"#utility.yul\":2531:2577   */\n      swap2\n      pop\n        /* \"#utility.yul\":2311:2583   */\n      pop\n        /* \"#utility.yul\":2219:2583   */\n      swap3\n      swap2\n      pop\n      pop\n      jump\t// out\n        /* \"#utility.yul\":2589:2902   */\n    tag_38:\n        /* \"#utility.yul\":2702:2706   */\n      0x00\n        /* \"#utility.yul\":2740:2742   */\n      0x20\n        /* \"#utility.yul\":2729:2738   */\n      dup3\n        /* \"#utility.yul\":2725:2743   */\n      add\n        /* \"#utility.yul\":2717:2743   */\n      swap1\n      pop\n        /* \"#utility.yul\":2789:2798   */\n      dup2\n        /* \"#utility.yul\":2783:2787   */\n      dup2\n        /* \"#utility.yul\":2779:2799   */\n      sub\n        /* \"#utility.yul\":2775:2776   */\n      0x00\n        /* \"#utility.yul\":2764:2773   */\n      dup4\n        /* \"#utility.yul\":2760:2777   */\n      add\n        /* \"#utility.yul\":2753:2800   */\n      mstore\n        /* \"#utility.yul\":2817:2895   */\n      tag_480\n        /* \"#utility.yul\":2890:2894   */\n      dup2\n        /* \"#utility.yul\":2881:2887   */\n      dup5\n        /* \"#utility.yul\":2817:2895   */\n      tag_395\n      jump\t// in\n    tag_480:\n        /* \"#utility.yul\":2809:2895   */\n      swap1\n      pop\n        /* \"#utility.yul\":2589:2902   */\n      swap3\n      swap2\n      pop\n      pop\n      jump\t// out\n        /* \"#utility.yul\":2908:3034   */\n    tag_396:\n        /* \"#utility.yul\":2945:2952   */\n      0x00\n        /* \"#utility.yul\":2985:3027   */\n      0xffffffffffffffffffffffffffffffffffffffff\n        /* \"#utility.yul\":2978:2983   */\n      dup3\n        /* \"#utility.yul\":2974:3028   */\n      and\n        /* \"#utility.yul\":2963:3028   */\n      swap1\n      pop\n        /* \"#utility.yul\":2908:3034   */\n      swap2\n      swap1\n      pop\n      jump\t// out\n        /* \"#utility.yul\":3040:3136   */\n    tag_397:\n        /* \"#utility.yul\":3077:3084   */\n      0x00\n        /* \"#utility.yul\":3106:3130   */\n      tag_483\n        /* \"#utility.yul\":3124:3129   */\n      dup3\n        /* \"#utility.yul\":3106:3130   */\n      tag_396\n      jump\t// in\n    tag_483:\n        /* \"#utility.yul\":3095:3130   */\n      swap1\n      pop\n        /* \"#utility.yul\":3040:3136   */\n      swap2\n      swap1\n      pop\n      jump\t// out\n        /* \"#utility.yul\":3142:3264   */\n    tag_398:\n        /* \"#utility.yul\":3215:3239   */\n      tag_485\n        /* \"#utility.yul\":3233:3238   */\n      dup2\n        /* \"#utility.yul\":3215:3239   */\n      tag_397\n      jump\t// in\n    tag_485:\n        /* \"#utility.yul\":3208:3213   */\n      dup2\n        /* \"#utility.yul\":3205:3240   */\n      eq\n        /* \"#utility.yul\":3195:3258   */\n      tag_486\n      jumpi\n        /* \"#utility.yul\":3254:3255   */\n      0x00\n        /* \"#utility.yul\":3251:3252   */\n      dup1\n        /* \"#utility.yul\":3244:3256   */\n      revert\n        /* \"#utility.yul\":3195:3258   */\n    tag_486:\n        /* \"#utility.yul\":3142:3264   */\n      pop\n      jump\t// out\n        /* \"#utility.yul\":3270:3409   */\n    tag_399:\n        /* \"#utility.yul\":3316:3321   */\n      0x00\n        /* \"#utility.yul\":3354:3360   */\n      dup2\n        /* \"#utility.yul\":3341:3361   */\n      calldataload\n        /* \"#utility.yul\":3332:3361   */\n      swap1\n      pop\n        /* \"#utility.yul\":3370:3403   */\n      tag_488\n        /* \"#utility.yul\":3397:3402   */\n      dup2\n        /* \"#utility.yul\":3370:3403   */\n      tag_398\n      jump\t// in\n    tag_488:\n        /* \"#utility.yul\":3270:3409   */\n      swap3\n      swap2\n      pop\n      pop\n      jump\t// out\n        /* \"#utility.yul\":3415:3492   */\n    tag_400:\n        /* \"#utility.yul\":3452:3459   */\n      0x00\n        /* \"#utility.yul\":3481:3486   */\n      dup2\n        /* \"#utility.yul\":3470:3486   */\n      swap1\n      pop\n        /* \"#utility.yul\":3415:3492   */\n      swap2\n      swap1\n      pop\n      jump\t// out\n        /* \"#utility.yul\":3498:3620   */\n    tag_401:\n        /* \"#utility.yul\":3571:3595   */\n      tag_491\n        /* \"#utility.yul\":3589:3594   */\n      dup2\n        /* \"#utility.yul\":3571:3595   */\n      tag_400\n      jump\t// in\n    tag_491:\n        /* \"#utility.yul\":3564:3569   */\n      dup2\n        /* \"#utility.yul\":3561:3596   */\n      eq\n        /* \"#utility.yul\":3551:3614   */\n      tag_492\n      jumpi\n        /* \"#utility.yul\":3610:3611   */\n      0x00\n        /* \"#utility.yul\":3607:3608   */\n      dup1\n        /* \"#utility.yul\":3600:3612   */\n      revert\n        /* \"#utility.yul\":3551:3614   */\n    tag_492:\n        /* \"#utility.yul\":3498:3620   */\n      pop\n      jump\t// out\n        /* \"#utility.yul\":3626:3765   */\n    tag_402:\n        /* \"#utility.yul\":3672:3677   */\n      0x00\n        /* \"#utility.yul\":3710:3716   */\n      dup2\n        /* \"#utility.yul\":3697:3717   */\n      calldataload\n        /* \"#utility.yul\":3688:3717   */\n      swap1\n      pop\n        /* \"#utility.yul\":3726:3759   */\n      tag_494\n        /* \"#utility.yul\":3753:3758   */\n      dup2\n        /* \"#utility.yul\":3726:3759   */\n      tag_401\n      jump\t// in\n    tag_494:\n        /* \"#utility.yul\":3626:3765   */\n      swap3\n      swap2\n      pop\n      pop\n      jump\t// out\n        /* \"#utility.yul\":3771:4245   */\n    tag_41:\n        /* \"#utility.yul\":3839:3845   */\n      0x00\n        /* \"#utility.yul\":3847:3853   */\n      dup1\n        /* \"#utility.yul\":3896:3898   */\n      0x40\n        /* \"#utility.yul\":3884:3893   */\n      dup4\n        /* \"#utility.yul\":3875:3882   */\n      dup6\n        /* \"#utility.yul\":3871:3894   */\n      sub\n        /* \"#utility.yul\":3867:3899   */\n      slt\n        /* \"#utility.yul\":3864:3983   */\n      iszero\n      tag_496\n      jumpi\n        /* \"#utility.yul\":3902:3981   */\n      tag_497\n      tag_384\n      jump\t// in\n    tag_497:\n        /* \"#utility.yul\":3864:3983   */\n    tag_496:\n        /* \"#utility.yul\":4022:4023   */\n      0x00\n        /* \"#utility.yul\":4047:4100   */\n      tag_498\n        /* \"#utility.yul\":4092:4099   */\n      dup6\n        /* \"#utility.yul\":4083:4089   */\n      dup3\n        /* \"#utility.yul\":4072:4081   */\n      dup7\n        /* \"#utility.yul\":4068:4090   */\n      add\n        /* \"#utility.yul\":4047:4100   */\n      tag_399\n      jump\t// in\n    tag_498:\n        /* \"#utility.yul\":4037:4100   */\n      swap3\n      pop\n        /* \"#utility.yul\":3993:4110   */\n      pop\n        /* \"#utility.yul\":4149:4151   */\n      0x20\n        /* \"#utility.yul\":4175:4228   */\n      tag_499\n        /* \"#utility.yul\":4220:4227   */\n      dup6\n        /* \"#utility.yul\":4211:4217   */\n      dup3\n        /* \"#utility.yul\":4200:4209   */\n      dup7\n        /* \"#utility.yul\":4196:4218   */\n      add\n        /* \"#utility.yul\":4175:4228   */\n      tag_402\n      jump\t// in\n    tag_499:\n        /* \"#utility.yul\":4165:4228   */\n      swap2\n      pop\n        /* \"#utility.yul\":4120:4238   */\n      pop\n        /* \"#utility.yul\":3771:4245   */\n      swap3\n      pop\n      swap3\n      swap1\n      pop\n      jump\t// out\n        /* \"#utility.yul\":4251:4369   */\n    tag_403:\n        /* \"#utility.yul\":4338:4362   */\n      tag_501\n        /* \"#utility.yul\":4356:4361   */\n      dup2\n        /* \"#utility.yul\":4338:4362   */\n      tag_400\n      jump\t// in\n    tag_501:\n        /* \"#utility.yul\":4333:4336   */\n      dup3\n        /* \"#utility.yul\":4326:4363   */\n      mstore\n        /* \"#utility.yul\":4251:4369   */\n      pop\n      pop\n      jump\t// out\n        /* \"#utility.yul\":4375:4597   */\n    tag_47:\n        /* \"#utility.yul\":4468:4472   */\n      0x00\n        /* \"#utility.yul\":4506:4508   */\n      0x20\n        /* \"#utility.yul\":4495:4504   */\n      dup3\n        /* \"#utility.yul\":4491:4509   */\n      add\n        /* \"#utility.yul\":4483:4509   */\n      swap1\n      pop\n        /* \"#utility.yul\":4519:4590   */\n      tag_503\n        /* \"#utility.yul\":4587:4588   */\n      0x00\n        /* \"#utility.yul\":4576:4585   */\n      dup4\n        /* \"#utility.yul\":4572:4589   */\n      add\n        /* \"#utility.yul\":4563:4569   */\n      dup5\n        /* \"#utility.yul\":4519:4590   */\n      tag_403\n      jump\t// in\n    tag_503:\n        /* \"#utility.yul\":4375:4597   */\n      swap3\n      swap2\n      pop\n      pop\n      jump\t// out\n        /* \"#utility.yul\":4603:5222   */\n    tag_50:\n        /* \"#utility.yul\":4680:4686   */\n      0x00\n        /* \"#utility.yul\":4688:4694   */\n      dup1\n        /* \"#utility.yul\":4696:4702   */\n      0x00\n        /* \"#utility.yul\":4745:4747   */\n      0x60\n        /* \"#utility.yul\":4733:4742   */\n      dup5\n        /* \"#utility.yul\":4724:4731   */\n      dup7\n        /* \"#utility.yul\":4720:4743   */\n      sub\n        /* \"#utility.yul\":4716:4748   */\n      slt\n        /* \"#utility.yul\":4713:4832   */\n      iszero\n      tag_505\n      jumpi\n        /* \"#utility.yul\":4751:4830   */\n      tag_506\n      tag_384\n      jump\t// in\n    tag_506:\n        /* \"#utility.yul\":4713:4832   */\n    tag_505:\n        /* \"#utility.yul\":4871:4872   */\n      0x00\n        /* \"#utility.yul\":4896:4949   */\n      tag_507\n        /* \"#utility.yul\":4941:4948   */\n      dup7\n        /* \"#utility.yul\":4932:4938   */\n      dup3\n        /* \"#utility.yul\":4921:4930   */\n      dup8\n        /* \"#utility.yul\":4917:4939   */\n      add\n        /* \"#utility.yul\":4896:4949   */\n      tag_399\n      jump\t// in\n    tag_507:\n        /* \"#utility.yul\":4886:4949   */\n      swap4\n      pop\n        /* \"#utility.yul\":4842:4959   */\n      pop\n        /* \"#utility.yul\":4998:5000   */\n      0x20\n        /* \"#utility.yul\":5024:5077   */\n      tag_508\n        /* \"#utility.yul\":5069:5076   */\n      dup7\n        /* \"#utility.yul\":5060:5066   */\n      dup3\n        /* \"#utility.yul\":5049:5058   */\n      dup8\n        /* \"#utility.yul\":5045:5067   */\n      add\n        /* \"#utility.yul\":5024:5077   */\n      tag_399\n      jump\t// in\n    tag_508:\n        /* \"#utility.yul\":5014:5077   */\n      swap3\n      pop\n        /* \"#utility.yul\":4969:5087   */\n      pop\n        /* \"#utility.yul\":5126:5128   */\n      0x40\n        /* \"#utility.yul\":5152:5205   */\n      tag_509\n        /* \"#utility.yul\":5197:5204   */\n      dup7\n        /* \"#utility.yul\":5188:5194   */\n      dup3\n        /* \"#utility.yul\":5177:5186   */\n      dup8\n        /* \"#utility.yul\":5173:5195   */\n      add\n        /* \"#utility.yul\":5152:5205   */\n      tag_402\n      jump\t// in\n    tag_509:\n        /* \"#utility.yul\":5142:5205   */\n      swap2\n      pop\n        /* \"#utility.yul\":5097:5215   */\n      pop\n        /* \"#utility.yul\":4603:5222   */\n      swap3\n      pop\n      swap3\n      pop\n      swap3\n      jump\t// out\n        /* \"#utility.yul\":5228:5305   */\n    tag_404:\n        /* \"#utility.yul\":5265:5272   */\n      0x00\n        /* \"#utility.yul\":5294:5299   */\n      dup2\n        /* \"#utility.yul\":5283:5299   */\n      swap1\n      pop\n        /* \"#utility.yul\":5228:5305   */\n      swap2\n      swap1\n      pop\n      jump\t// out\n        /* \"#utility.yul\":5311:5433   */\n    tag_405:\n        /* \"#utility.yul\":5384:5408   */\n      tag_512\n        /* \"#utility.yul\":5402:5407   */\n      dup2\n        /* \"#utility.yul\":5384:5408   */\n      tag_404\n      jump\t// in\n    tag_512:\n        /* \"#utility.yul\":5377:5382   */\n      dup2\n        /* \"#utility.yul\":5374:5409   */\n      eq\n        /* \"#utility.yul\":5364:5427   */\n      tag_513\n      jumpi\n        /* \"#utility.yul\":5423:5424   */\n      0x00\n        /* \"#utility.yul\":5420:5421   */\n      dup1\n        /* \"#utility.yul\":5413:5425   */\n      revert\n        /* \"#utility.yul\":5364:5427   */\n    tag_513:\n        /* \"#utility.yul\":5311:5433   */\n      pop\n      jump\t// out\n        /* \"#utility.yul\":5439:5578   */\n    tag_406:\n        /* \"#utility.yul\":5485:5490   */\n      0x00\n        /* \"#utility.yul\":5523:5529   */\n      dup2\n        /* \"#utility.yul\":5510:5530   */\n      calldataload\n        /* \"#utility.yul\":5501:5530   */\n      swap1\n      pop\n        /* \"#utility.yul\":5539:5572   */\n      tag_515\n        /* \"#utility.yul\":5566:5571   */\n      dup2\n        /* \"#utility.yul\":5539:5572   */\n      tag_405\n      jump\t// in\n    tag_515:\n        /* \"#utility.yul\":5439:5578   */\n      swap3\n      swap2\n      pop\n      pop\n      jump\t// out\n        /* \"#utility.yul\":5584:5913   */\n    tag_55:\n        /* \"#utility.yul\":5643:5649   */\n      0x00\n        /* \"#utility.yul\":5692:5694   */\n      0x20\n        /* \"#utility.yul\":5680:5689   */\n      dup3\n        /* \"#utility.yul\":5671:5678   */\n      dup5\n        /* \"#utility.yul\":5667:5690   */\n      sub\n        /* \"#utility.yul\":5663:5695   */\n      slt\n        /* \"#utility.yul\":5660:5779   */\n      iszero\n      tag_517\n      jumpi\n        /* \"#utility.yul\":5698:5777   */\n      tag_518\n      tag_384\n      jump\t// in\n    tag_518:\n        /* \"#utility.yul\":5660:5779   */\n    tag_517:\n        /* \"#utility.yul\":5818:5819   */\n      0x00\n        /* \"#utility.yul\":5843:5896   */\n      tag_519\n        /* \"#utility.yul\":5888:5895   */\n      dup5\n        /* \"#utility.yul\":5879:5885   */\n      dup3\n        /* \"#utility.yul\":5868:5877   */\n      dup6\n        /* \"#utility.yul\":5864:5886   */\n      add\n        /* \"#utility.yul\":5843:5896   */\n      tag_406\n      jump\t// in\n    tag_519:\n        /* \"#utility.yul\":5833:5896   */\n      swap2\n      pop\n        /* \"#utility.yul\":5789:5906   */\n      pop\n        /* \"#utility.yul\":5584:5913   */\n      swap3\n      swap2\n      pop\n      pop\n      jump\t// out\n        /* \"#utility.yul\":5919:6037   */\n    tag_407:\n        /* \"#utility.yul\":6006:6030   */\n      tag_521\n        /* \"#utility.yul\":6024:6029   */\n      dup2\n        /* \"#utility.yul\":6006:6030   */\n      tag_404\n      jump\t// in\n    tag_521:\n        /* \"#utility.yul\":6001:6004   */\n      dup3\n        /* \"#utility.yul\":5994:6031   */\n      mstore\n        /* \"#utility.yul\":5919:6037   */\n      pop\n      pop\n      jump\t// out\n        /* \"#utility.yul\":6043:6265   */\n    tag_58:\n        /* \"#utility.yul\":6136:6140   */\n      0x00\n        /* \"#utility.yul\":6174:6176   */\n      0x20\n        /* \"#utility.yul\":6163:6172   */\n      dup3\n        /* \"#utility.yul\":6159:6177   */\n      add\n        /* \"#utility.yul\":6151:6177   */\n      swap1\n      pop\n        /* \"#utility.yul\":6187:6258   */\n      tag_523\n        /* \"#utility.yul\":6255:6256   */\n      0x00\n        /* \"#utility.yul\":6244:6253   */\n      dup4\n        /* \"#utility.yul\":6240:6257   */\n      add\n        /* \"#utility.yul\":6231:6237   */\n      dup5\n        /* \"#utility.yul\":6187:6258   */\n      tag_407\n      jump\t// in\n    tag_523:\n        /* \"#utility.yul\":6043:6265   */\n      swap3\n      swap2\n      pop\n      pop\n      jump\t// out\n        /* \"#utility.yul\":6271:6745   */\n    tag_61:\n        /* \"#utility.yul\":6339:6345   */\n      0x00\n        /* \"#utility.yul\":6347:6353   */\n      dup1\n        /* \"#utility.yul\":6396:6398   */\n      0x40\n        /* \"#utility.yul\":6384:6393   */\n      dup4\n        /* \"#utility.yul\":6375:6382   */\n      dup6\n        /* \"#utility.yul\":6371:6394   */\n      sub\n        /* \"#utility.yul\":6367:6399   */\n      slt\n        /* \"#utility.yul\":6364:6483   */\n      iszero\n      tag_525\n      jumpi\n        /* \"#utility.yul\":6402:6481   */\n      tag_526\n      tag_384\n      jump\t// in\n    tag_526:\n        /* \"#utility.yul\":6364:6483   */\n    tag_525:\n        /* \"#utility.yul\":6522:6523   */\n      0x00\n        /* \"#utility.yul\":6547:6600   */\n      tag_527\n        /* \"#utility.yul\":6592:6599   */\n      dup6\n        /* \"#utility.yul\":6583:6589   */\n      dup3\n        /* \"#utility.yul\":6572:6581   */\n      dup7\n        /* \"#utility.yul\":6568:6590   */\n      add\n        /* \"#utility.yul\":6547:6600   */\n      tag_406\n      jump\t// in\n    tag_527:\n        /* \"#utility.yul\":6537:6600   */\n      swap3\n      pop\n        /* \"#utility.yul\":6493:6610   */\n      pop\n        /* \"#utility.yul\":6649:6651   */\n      0x20\n        /* \"#utility.yul\":6675:6728   */\n      tag_528\n        /* \"#utility.yul\":6720:6727   */\n      dup6\n        /* \"#utility.yul\":6711:6717   */\n      dup3\n        /* \"#utility.yul\":6700:6709   */\n      dup7\n        /* \"#utility.yul\":6696:6718   */\n      add\n        /* \"#utility.yul\":6675:6728   */\n      tag_399\n      jump\t// in\n    tag_528:\n        /* \"#utility.yul\":6665:6728   */\n      swap2\n      pop\n        /* \"#utility.yul\":6620:6738   */\n      pop\n        /* \"#utility.yul\":6271:6745   */\n      swap3\n      pop\n      swap3\n      swap1\n      pop\n      jump\t// out\n        /* \"#utility.yul\":6751:6837   */\n    tag_408:\n        /* \"#utility.yul\":6786:6793   */\n      0x00\n        /* \"#utility.yul\":6826:6830   */\n      0xff\n        /* \"#utility.yul\":6819:6824   */\n      dup3\n        /* \"#utility.yul\":6815:6831   */\n      and\n        /* \"#utility.yul\":6804:6831   */\n      swap1\n      pop\n        /* \"#utility.yul\":6751:6837   */\n      swap2\n      swap1\n      pop\n      jump\t// out\n        /* \"#utility.yul\":6843:6955   */\n    tag_409:\n        /* \"#utility.yul\":6926:6948   */\n      tag_531\n        /* \"#utility.yul\":6942:6947   */\n      dup2\n        /* \"#utility.yul\":6926:6948   */\n      tag_408\n      jump\t// in\n    tag_531:\n        /* \"#utility.yul\":6921:6924   */\n      dup3\n        /* \"#utility.yul\":6914:6949   */\n      mstore\n        /* \"#utility.yul\":6843:6955   */\n      pop\n      pop\n      jump\t// out\n        /* \"#utility.yul\":6961:7175   */\n    tag_66:\n        /* \"#utility.yul\":7050:7054   */\n      0x00\n        /* \"#utility.yul\":7088:7090   */\n      0x20\n        /* \"#utility.yul\":7077:7086   */\n      dup3\n        /* \"#utility.yul\":7073:7091   */\n      add\n        /* \"#utility.yul\":7065:7091   */\n      swap1\n      pop\n        /* \"#utility.yul\":7101:7168   */\n      tag_533\n        /* \"#utility.yul\":7165:7166   */\n      0x00\n        /* \"#utility.yul\":7154:7163   */\n      dup4\n        /* \"#utility.yul\":7150:7167   */\n      add\n        /* \"#utility.yul\":7141:7147   */\n      dup5\n        /* \"#utility.yul\":7101:7168   */\n      tag_409\n      jump\t// in\n    tag_533:\n        /* \"#utility.yul\":6961:7175   */\n      swap3\n      swap2\n      pop\n      pop\n      jump\t// out\n        /* \"#utility.yul\":7181:7510   */\n    tag_79:\n        /* \"#utility.yul\":7240:7246   */\n      0x00\n        /* \"#utility.yul\":7289:7291   */\n      0x20\n        /* \"#utility.yul\":7277:7286   */\n      dup3\n        /* \"#utility.yul\":7268:7275   */\n      dup5\n        /* \"#utility.yul\":7264:7287   */\n      sub\n        /* \"#utility.yul\":7260:7292   */\n      slt\n        /* \"#utility.yul\":7257:7376   */\n      iszero\n      tag_535\n      jumpi\n        /* \"#utility.yul\":7295:7374   */\n      tag_536\n      tag_384\n      jump\t// in\n    tag_536:\n        /* \"#utility.yul\":7257:7376   */\n    tag_535:\n        /* \"#utility.yul\":7415:7416   */\n      0x00\n        /* \"#utility.yul\":7440:7493   */\n      tag_537\n        /* \"#utility.yul\":7485:7492   */\n      dup5\n        /* \"#utility.yul\":7476:7482   */\n      dup3\n        /* \"#utility.yul\":7465:7474   */\n      dup6\n        /* \"#utility.yul\":7461:7483   */\n      add\n        /* \"#utility.yul\":7440:7493   */\n      tag_399\n      jump\t// in\n    tag_537:\n        /* \"#utility.yul\":7430:7493   */\n      swap2\n      pop\n        /* \"#utility.yul\":7386:7503   */\n      pop\n        /* \"#utility.yul\":7181:7510   */\n      swap3\n      swap2\n      pop\n      pop\n      jump\t// out\n        /* \"#utility.yul\":7516:7990   */\n    tag_84:\n        /* \"#utility.yul\":7584:7590   */\n      0x00\n        /* \"#utility.yul\":7592:7598   */\n      dup1\n        /* \"#utility.yul\":7641:7643   */\n      0x40\n        /* \"#utility.yul\":7629:7638   */\n      dup4\n        /* \"#utility.yul\":7620:7627   */\n      dup6\n        /* \"#utility.yul\":7616:7639   */\n      sub\n        /* \"#utility.yul\":7612:7644   */\n      slt\n        /* \"#utility.yul\":7609:7728   */\n      iszero\n      tag_539\n      jumpi\n        /* \"#utility.yul\":7647:7726   */\n      tag_540\n      tag_384\n      jump\t// in\n    tag_540:\n        /* \"#utility.yul\":7609:7728   */\n    tag_539:\n        /* \"#utility.yul\":7767:7768   */\n      0x00\n        /* \"#utility.yul\":7792:7845   */\n      tag_541\n        /* \"#utility.yul\":7837:7844   */\n      dup6\n        /* \"#utility.yul\":7828:7834   */\n      dup3\n        /* \"#utility.yul\":7817:7826   */\n      dup7\n        /* \"#utility.yul\":7813:7835   */\n      add\n        /* \"#utility.yul\":7792:7845   */\n      tag_406\n      jump\t// in\n    tag_541:\n        /* \"#utility.yul\":7782:7845   */\n      swap3\n      pop\n        /* \"#utility.yul\":7738:7855   */\n      pop\n        /* \"#utility.yul\":7894:7896   */\n      0x20\n        /* \"#utility.yul\":7920:7973   */\n      tag_542\n        /* \"#utility.yul\":7965:7972   */\n      dup6\n        /* \"#utility.yul\":7956:7962   */\n      dup3\n        /* \"#utility.yul\":7945:7954   */\n      dup7\n        /* \"#utility.yul\":7941:7963   */\n      add\n        /* \"#utility.yul\":7920:7973   */\n      tag_402\n      jump\t// in\n    tag_542:\n        /* \"#utility.yul\":7910:7973   */\n      swap2\n      pop\n        /* \"#utility.yul\":7865:7983   */\n      pop\n        /* \"#utility.yul\":7516:7990   */\n      swap3\n      pop\n      swap3\n      swap1\n      pop\n      jump\t// out\n        /* \"#utility.yul\":7996:8114   */\n    tag_410:\n        /* \"#utility.yul\":8083:8107   */\n      tag_544\n        /* \"#utility.yul\":8101:8106   */\n      dup2\n        /* \"#utility.yul\":8083:8107   */\n      tag_397\n      jump\t// in\n    tag_544:\n        /* \"#utility.yul\":8078:8081   */\n      dup3\n        /* \"#utility.yul\":8071:8108   */\n      mstore\n        /* \"#utility.yul\":7996:8114   */\n      pop\n      pop\n      jump\t// out\n        /* \"#utility.yul\":8120:8342   */\n    tag_87:\n        /* \"#utility.yul\":8213:8217   */\n      0x00\n        /* \"#utility.yul\":8251:8253   */\n      0x20\n        /* \"#utility.yul\":8240:8249   */\n      dup3\n        /* \"#utility.yul\":8236:8254   */\n      add\n        /* \"#utility.yul\":8228:8254   */\n      swap1\n      pop\n        /* \"#utility.yul\":8264:8335   */\n      tag_546\n        /* \"#utility.yul\":8332:8333   */\n      0x00\n        /* \"#utility.yul\":8321:8330   */\n      dup4\n        /* \"#utility.yul\":8317:8334   */\n      add\n        /* \"#utility.yul\":8308:8314   */\n      dup5\n        /* \"#utility.yul\":8264:8335   */\n      tag_410\n      jump\t// in\n    tag_546:\n        /* \"#utility.yul\":8120:8342   */\n      swap3\n      swap2\n      pop\n      pop\n      jump\t// out\n        /* \"#utility.yul\":8348:8822   */\n    tag_121:\n        /* \"#utility.yul\":8416:8422   */\n      0x00\n        /* \"#utility.yul\":8424:8430   */\n      dup1\n        /* \"#utility.yul\":8473:8475   */\n      0x40\n        /* \"#utility.yul\":8461:8470   */\n      dup4\n        /* \"#utility.yul\":8452:8459   */\n      dup6\n        /* \"#utility.yul\":8448:8471   */\n      sub\n        /* \"#utility.yul\":8444:8476   */\n      slt\n        /* \"#utility.yul\":8441:8560   */\n      iszero\n      tag_548\n      jumpi\n        /* \"#utility.yul\":8479:8558   */\n      tag_549\n      tag_384\n      jump\t// in\n    tag_549:\n        /* \"#utility.yul\":8441:8560   */\n    tag_548:\n        /* \"#utility.yul\":8599:8600   */\n      0x00\n        /* \"#utility.yul\":8624:8677   */\n      tag_550\n        /* \"#utility.yul\":8669:8676   */\n      dup6\n        /* \"#utility.yul\":8660:8666   */\n      dup3\n        /* \"#utility.yul\":8649:8658   */\n      dup7\n        /* \"#utility.yul\":8645:8667   */\n      add\n        /* \"#utility.yul\":8624:8677   */\n      tag_399\n      jump\t// in\n    tag_550:\n        /* \"#utility.yul\":8614:8677   */\n      swap3\n      pop\n        /* \"#utility.yul\":8570:8687   */\n      pop\n        /* \"#utility.yul\":8726:8728   */\n      0x20\n        /* \"#utility.yul\":8752:8805   */\n      tag_551\n        /* \"#utility.yul\":8797:8804   */\n      dup6\n        /* \"#utility.yul\":8788:8794   */\n      dup3\n        /* \"#utility.yul\":8777:8786   */\n      dup7\n        /* \"#utility.yul\":8773:8795   */\n      add\n        /* \"#utility.yul\":8752:8805   */\n      tag_399\n      jump\t// in\n    tag_551:\n        /* \"#utility.yul\":8742:8805   */\n      swap2\n      pop\n        /* \"#utility.yul\":8697:8815   */\n      pop\n        /* \"#utility.yul\":8348:8822   */\n      swap3\n      pop\n      swap3\n      swap1\n      pop\n      jump\t// out\n        /* \"#utility.yul\":8828:9008   */\n    tag_411:\n        /* \"#utility.yul\":8876:8953   */\n      0x4e487b7100000000000000000000000000000000000000000000000000000000\n        /* \"#utility.yul\":8873:8874   */\n      0x00\n        /* \"#utility.yul\":8866:8954   */\n      mstore\n        /* \"#utility.yul\":8973:8977   */\n      0x22\n        /* \"#utility.yul\":8970:8971   */\n      0x04\n        /* \"#utility.yul\":8963:8978   */\n      mstore\n        /* \"#utility.yul\":8997:9001   */\n      0x24\n        /* \"#utility.yul\":8994:8995   */\n      0x00\n        /* \"#utility.yul\":8987:9002   */\n      revert\n        /* \"#utility.yul\":9014:9334   */\n    tag_132:\n        /* \"#utility.yul\":9058:9064   */\n      0x00\n        /* \"#utility.yul\":9095:9096   */\n      0x02\n        /* \"#utility.yul\":9089:9093   */\n      dup3\n        /* \"#utility.yul\":9085:9097   */\n      div\n        /* \"#utility.yul\":9075:9097   */\n      swap1\n      pop\n        /* \"#utility.yul\":9142:9143   */\n      0x01\n        /* \"#utility.yul\":9136:9140   */\n      dup3\n        /* \"#utility.yul\":9132:9144   */\n      and\n        /* \"#utility.yul\":9163:9181   */\n      dup1\n        /* \"#utility.yul\":9153:9234   */\n      tag_554\n      jumpi\n        /* \"#utility.yul\":9219:9223   */\n      0x7f\n        /* \"#utility.yul\":9211:9217   */\n      dup3\n        /* \"#utility.yul\":9207:9224   */\n      and\n        /* \"#utility.yul\":9197:9224   */\n      swap2\n      pop\n        /* \"#utility.yul\":9153:9234   */\n    tag_554:\n        /* \"#utility.yul\":9281:9283   */\n      0x20\n        /* \"#utility.yul\":9273:9279   */\n      dup3\n        /* \"#utility.yul\":9270:9284   */\n      lt\n        /* \"#utility.yul\":9250:9268   */\n      dup2\n        /* \"#utility.yul\":9247:9285   */\n      sub\n        /* \"#utility.yul\":9244:9328   */\n      tag_555\n      jumpi\n        /* \"#utility.yul\":9300:9318   */\n      tag_556\n      tag_411\n      jump\t// in\n    tag_556:\n        /* \"#utility.yul\":9244:9328   */\n    tag_555:\n        /* \"#utility.yul\":9065:9334   */\n      pop\n        /* \"#utility.yul\":9014:9334   */\n      swap2\n      swap1\n      pop\n      jump\t// out\n        /* \"#utility.yul\":9340:9581   */\n    tag_412:\n        /* \"#utility.yul\":9480:9514   */\n      0x45524332303a2063616c6c657220616e6420726563697069656e74206d757374\n        /* \"#utility.yul\":9476:9477   */\n      0x00\n        /* \"#utility.yul\":9468:9474   */\n      dup3\n        /* \"#utility.yul\":9464:9478   */\n      add\n        /* \"#utility.yul\":9457:9515   */\n      mstore\n        /* \"#utility.yul\":9549:9573   */\n      0x20626520646966666572656e7420616464726573732e00000000000000000000\n        /* \"#utility.yul\":9544:9546   */\n      0x20\n        /* \"#utility.yul\":9536:9542   */\n      dup3\n        /* \"#utility.yul\":9532:9547   */\n      add\n        /* \"#utility.yul\":9525:9574   */\n      mstore\n        /* \"#utility.yul\":9340:9581   */\n      pop\n      jump\t// out\n        /* \"#utility.yul\":9587:9953   */\n    tag_413:\n        /* \"#utility.yul\":9729:9732   */\n      0x00\n        /* \"#utility.yul\":9750:9817   */\n      tag_559\n        /* \"#utility.yul\":9814:9816   */\n      0x36\n        /* \"#utility.yul\":9809:9812   */\n      dup4\n        /* \"#utility.yul\":9750:9817   */\n      tag_392\n      jump\t// in\n    tag_559:\n        /* \"#utility.yul\":9743:9817   */\n      swap2\n      pop\n        /* \"#utility.yul\":9826:9919   */\n      tag_560\n        /* \"#utility.yul\":9915:9918   */\n      dup3\n        /* \"#utility.yul\":9826:9919   */\n      tag_412\n      jump\t// in\n    tag_560:\n        /* \"#utility.yul\":9944:9946   */\n      0x40\n        /* \"#utility.yul\":9939:9942   */\n      dup3\n        /* \"#utility.yul\":9935:9947   */\n      add\n        /* \"#utility.yul\":9928:9947   */\n      swap1\n      pop\n        /* \"#utility.yul\":9587:9953   */\n      swap2\n      swap1\n      pop\n      jump\t// out\n        /* \"#utility.yul\":9959:10378   */\n    tag_147:\n        /* \"#utility.yul\":10125:10129   */\n      0x00\n        /* \"#utility.yul\":10163:10165   */\n      0x20\n        /* \"#utility.yul\":10152:10161   */\n      dup3\n        /* \"#utility.yul\":10148:10166   */\n      add\n        /* \"#utility.yul\":10140:10166   */\n      swap1\n      pop\n        /* \"#utility.yul\":10212:10221   */\n      dup2\n        /* \"#utility.yul\":10206:10210   */\n      dup2\n        /* \"#utility.yul\":10202:10222   */\n      sub\n        /* \"#utility.yul\":10198:10199   */\n      0x00\n        /* \"#utility.yul\":10187:10196   */\n      dup4\n        /* \"#utility.yul\":10183:10200   */\n      add\n        /* \"#utility.yul\":10176:10223   */\n      mstore\n        /* \"#utility.yul\":10240:10371   */\n      tag_562\n        /* \"#utility.yul\":10366:10370   */\n      dup2\n        /* \"#utility.yul\":10240:10371   */\n      tag_413\n      jump\t// in\n    tag_562:\n        /* \"#utility.yul\":10232:10371   */\n      swap1\n      pop\n        /* \"#utility.yul\":9959:10378   */\n      swap2\n      swap1\n      pop\n      jump\t// out\n        /* \"#utility.yul\":10384:10611   */\n    tag_414:\n        /* \"#utility.yul\":10524:10558   */\n      0x45524332303a207472616e7366657220616d6f756e7420657863656564732061\n        /* \"#utility.yul\":10520:10521   */\n      0x00\n        /* \"#utility.yul\":10512:10518   */\n      dup3\n        /* \"#utility.yul\":10508:10522   */\n      add\n        /* \"#utility.yul\":10501:10559   */\n      mstore\n        /* \"#utility.yul\":10593:10603   */\n      0x6c6c6f77616e6365000000000000000000000000000000000000000000000000\n        /* \"#utility.yul\":10588:10590   */\n      0x20\n        /* \"#utility.yul\":10580:10586   */\n      dup3\n        /* \"#utility.yul\":10576:10591   */\n      add\n        /* \"#utility.yul\":10569:10604   */\n      mstore\n        /* \"#utility.yul\":10384:10611   */\n      pop\n      jump\t// out\n        /* \"#utility.yul\":10617:10983   */\n    tag_415:\n        /* \"#utility.yul\":10759:10762   */\n      0x00\n        /* \"#utility.yul\":10780:10847   */\n      tag_565\n        /* \"#utility.yul\":10844:10846   */\n      0x28\n        /* \"#utility.yul\":10839:10842   */\n      dup4\n        /* \"#utility.yul\":10780:10847   */\n      tag_392\n      jump\t// in\n    tag_565:\n        /* \"#utility.yul\":10773:10847   */\n      swap2\n      pop\n        /* \"#utility.yul\":10856:10949   */\n      tag_566\n        /* \"#utility.yul\":10945:10948   */\n      dup3\n        /* \"#utility.yul\":10856:10949   */\n      tag_414\n      jump\t// in\n    tag_566:\n        /* \"#utility.yul\":10974:10976   */\n      0x40\n        /* \"#utility.yul\":10969:10972   */\n      dup3\n        /* \"#utility.yul\":10965:10977   */\n      add\n        /* \"#utility.yul\":10958:10977   */\n      swap1\n      pop\n        /* \"#utility.yul\":10617:10983   */\n      swap2\n      swap1\n      pop\n      jump\t// out\n        /* \"#utility.yul\":10989:11408   */\n    tag_153:\n        /* \"#utility.yul\":11155:11159   */\n      0x00\n        /* \"#utility.yul\":11193:11195   */\n      0x20\n        /* \"#utility.yul\":11182:11191   */\n      dup3\n        /* \"#utility.yul\":11178:11196   */\n      add\n        /* \"#utility.yul\":11170:11196   */\n      swap1\n      pop\n        /* \"#utility.yul\":11242:11251   */\n      dup2\n        /* \"#utility.yul\":11236:11240   */\n      dup2\n        /* \"#utility.yul\":11232:11252   */\n      sub\n        /* \"#utility.yul\":11228:11229   */\n      0x00\n        /* \"#utility.yul\":11217:11226   */\n      dup4\n        /* \"#utility.yul\":11213:11230   */\n      add\n        /* \"#utility.yul\":11206:11253   */\n      mstore\n        /* \"#utility.yul\":11270:11401   */\n      tag_568\n        /* \"#utility.yul\":11396:11400   */\n      dup2\n        /* \"#utility.yul\":11270:11401   */\n      tag_415\n      jump\t// in\n    tag_568:\n        /* \"#utility.yul\":11262:11401   */\n      swap1\n      pop\n        /* \"#utility.yul\":10989:11408   */\n      swap2\n      swap1\n      pop\n      jump\t// out\n        /* \"#utility.yul\":11414:11591   */\n    tag_416:\n        /* \"#utility.yul\":11554:11583   */\n      0x45524332303a206d75737420686176652061646d696e20726f6c650000000000\n        /* \"#utility.yul\":11550:11551   */\n      0x00\n        /* \"#utility.yul\":11542:11548   */\n      dup3\n        /* \"#utility.yul\":11538:11552   */\n      add\n        /* \"#utility.yul\":11531:11584   */\n      mstore\n        /* \"#utility.yul\":11414:11591   */\n      pop\n      jump\t// out\n        /* \"#utility.yul\":11597:11963   */\n    tag_417:\n        /* \"#utility.yul\":11739:11742   */\n      0x00\n        /* \"#utility.yul\":11760:11827   */\n      tag_571\n        /* \"#utility.yul\":11824:11826   */\n      0x1b\n        /* \"#utility.yul\":11819:11822   */\n      dup4\n        /* \"#utility.yul\":11760:11827   */\n      tag_392\n      jump\t// in\n    tag_571:\n        /* \"#utility.yul\":11753:11827   */\n      swap2\n      pop\n        /* \"#utility.yul\":11836:11929   */\n      tag_572\n        /* \"#utility.yul\":11925:11928   */\n      dup3\n        /* \"#utility.yul\":11836:11929   */\n      tag_416\n      jump\t// in\n    tag_572:\n        /* \"#utility.yul\":11954:11956   */\n      0x20\n        /* \"#utility.yul\":11949:11952   */\n      dup3\n        /* \"#utility.yul\":11945:11957   */\n      add\n        /* \"#utility.yul\":11938:11957   */\n      swap1\n      pop\n        /* \"#utility.yul\":11597:11963   */\n      swap2\n      swap1\n      pop\n      jump\t// out\n        /* \"#utility.yul\":11969:12388   */\n    tag_167:\n        /* \"#utility.yul\":12135:12139   */\n      0x00\n        /* \"#utility.yul\":12173:12175   */\n      0x20\n        /* \"#utility.yul\":12162:12171   */\n      dup3\n        /* \"#utility.yul\":12158:12176   */\n      add\n        /* \"#utility.yul\":12150:12176   */\n      swap1\n      pop\n        /* \"#utility.yul\":12222:12231   */\n      dup2\n        /* \"#utility.yul\":12216:12220   */\n      dup2\n        /* \"#utility.yul\":12212:12232   */\n      sub\n        /* \"#utility.yul\":12208:12209   */\n      0x00\n        /* \"#utility.yul\":12197:12206   */\n      dup4\n        /* \"#utility.yul\":12193:12210   */\n      add\n        /* \"#utility.yul\":12186:12233   */\n      mstore\n        /* \"#utility.yul\":12250:12381   */\n      tag_574\n        /* \"#utility.yul\":12376:12380   */\n      dup2\n        /* \"#utility.yul\":12250:12381   */\n      tag_417\n      jump\t// in\n    tag_574:\n        /* \"#utility.yul\":12242:12381   */\n      swap1\n      pop\n        /* \"#utility.yul\":11969:12388   */\n      swap2\n      swap1\n      pop\n      jump\t// out\n        /* \"#utility.yul\":12394:12574   */\n    tag_418:\n        /* \"#utility.yul\":12442:12519   */\n      0x4e487b7100000000000000000000000000000000000000000000000000000000\n        /* \"#utility.yul\":12439:12440   */\n      0x00\n        /* \"#utility.yul\":12432:12520   */\n      mstore\n        /* \"#utility.yul\":12539:12543   */\n      0x11\n        /* \"#utility.yul\":12536:12537   */\n      0x04\n        /* \"#utility.yul\":12529:12544   */\n      mstore\n        /* \"#utility.yul\":12563:12567   */\n      0x24\n        /* \"#utility.yul\":12560:12561   */\n      0x00\n        /* \"#utility.yul\":12553:12568   */\n      revert\n        /* \"#utility.yul\":12580:12885   */\n    tag_172:\n        /* \"#utility.yul\":12620:12623   */\n      0x00\n        /* \"#utility.yul\":12639:12659   */\n      tag_577\n        /* \"#utility.yul\":12657:12658   */\n      dup3\n        /* \"#utility.yul\":12639:12659   */\n      tag_400\n      jump\t// in\n    tag_577:\n        /* \"#utility.yul\":12634:12659   */\n      swap2\n      pop\n        /* \"#utility.yul\":12673:12693   */\n      tag_578\n        /* \"#utility.yul\":12691:12692   */\n      dup4\n        /* \"#utility.yul\":12673:12693   */\n      tag_400\n      jump\t// in\n    tag_578:\n        /* \"#utility.yul\":12668:12693   */\n      swap3\n      pop\n        /* \"#utility.yul\":12827:12828   */\n      dup3\n        /* \"#utility.yul\":12759:12825   */\n      0xffffffffffffffffffffffffffffffffffffffffffffffffffffffffffffffff\n        /* \"#utility.yul\":12755:12829   */\n      sub\n        /* \"#utility.yul\":12752:12753   */\n      dup3\n        /* \"#utility.yul\":12749:12830   */\n      gt\n        /* \"#utility.yul\":12746:12853   */\n      iszero\n      tag_579\n      jumpi\n        /* \"#utility.yul\":12833:12851   */\n      tag_580\n      tag_418\n      jump\t// in\n    tag_580:\n        /* \"#utility.yul\":12746:12853   */\n    tag_579:\n        /* \"#utility.yul\":12877:12878   */\n      dup3\n        /* \"#utility.yul\":12874:12875   */\n      dup3\n        /* \"#utility.yul\":12870:12879   */\n      add\n        /* \"#utility.yul\":12863:12879   */\n      swap1\n      pop\n        /* \"#utility.yul\":12580:12885   */\n      swap3\n      swap2\n      pop\n      pop\n      jump\t// out\n        /* \"#utility.yul\":12891:13115   */\n    tag_419:\n        /* \"#utility.yul\":13031:13065   */\n      0x45524332303a2064656372656173656420616c6c6f77616e63652062656c6f77\n        /* \"#utility.yul\":13027:13028   */\n      0x00\n        /* \"#utility.yul\":13019:13025   */\n      dup3\n        /* \"#utility.yul\":13015:13029   */\n      add\n        /* \"#utility.yul\":13008:13066   */\n      mstore\n        /* \"#utility.yul\":13100:13107   */\n      0x207a65726f000000000000000000000000000000000000000000000000000000\n        /* \"#utility.yul\":13095:13097   */\n      0x20\n        /* \"#utility.yul\":13087:13093   */\n      dup3\n        /* \"#utility.yul\":13083:13098   */\n      add\n        /* \"#utility.yul\":13076:13108   */\n      mstore\n        /* \"#utility.yul\":12891:13115   */\n      pop\n      jump\t// out\n        /* \"#utility.yul\":13121:13487   */\n    tag_420:\n        /* \"#utility.yul\":13263:13266   */\n      0x00\n        /* \"#utility.yul\":13284:13351   */\n      tag_583\n        /* \"#utility.yul\":13348:13350   */\n      0x25\n        /* \"#utility.yul\":13343:13346   */\n      dup4\n        /* \"#utility.yul\":13284:13351   */\n      tag_392\n      jump\t// in\n    tag_583:\n        /* \"#utility.yul\":13277:13351   */\n      swap2\n      pop\n        /* \"#utility.yul\":13360:13453   */\n      tag_584\n        /* \"#utility.yul\":13449:13452   */\n      dup3\n        /* \"#utility.yul\":13360:13453   */\n      tag_419\n      jump\t// in\n    tag_584:\n        /* \"#utility.yul\":13478:13480   */\n      0x40\n        /* \"#utility.yul\":13473:13476   */\n      dup3\n        /* \"#utility.yul\":13469:13481   */\n      add\n        /* \"#utility.yul\":13462:13481   */\n      swap1\n      pop\n        /* \"#utility.yul\":13121:13487   */\n      swap2\n      swap1\n      pop\n      jump\t// out\n        /* \"#utility.yul\":13493:13912   */\n    tag_200:\n        /* \"#utility.yul\":13659:13663   */\n      0x00\n        /* \"#utility.yul\":13697:13699   */\n      0x20\n        /* \"#utility.yul\":13686:13695   */\n      dup3\n        /* \"#utility.yul\":13682:13700   */\n      add\n        /* \"#utility.yul\":13674:13700   */\n      swap1\n      pop\n        /* \"#utility.yul\":13746:13755   */\n      dup2\n        /* \"#utility.yul\":13740:13744   */\n      dup2\n        /* \"#utility.yul\":13736:13756   */\n      sub\n        /* \"#utility.yul\":13732:13733   */\n      0x00\n        /* \"#utility.yul\":13721:13730   */\n      dup4\n        /* \"#utility.yul\":13717:13734   */\n      add\n        /* \"#utility.yul\":13710:13757   */\n      mstore\n        /* \"#utility.yul\":13774:13905   */\n      tag_586\n        /* \"#utility.yul\":13900:13904   */\n      dup2\n        /* \"#utility.yul\":13774:13905   */\n      tag_420\n      jump\t// in\n    tag_586:\n        /* \"#utility.yul\":13766:13905   */\n      swap1\n      pop\n        /* \"#utility.yul\":13493:13912   */\n      swap2\n      swap1\n      pop\n      jump\t// out\n        /* \"#utility.yul\":13918:14146   */\n    tag_421:\n        /* \"#utility.yul\":14058:14092   */\n      0x45524332303a2063616c6c65722063616e206e6f74207265766f6b65206f776e\n        /* \"#utility.yul\":14054:14055   */\n      0x00\n        /* \"#utility.yul\":14046:14052   */\n      dup3\n        /* \"#utility.yul\":14042:14056   */\n      add\n        /* \"#utility.yul\":14035:14093   */\n      mstore\n        /* \"#utility.yul\":14127:14138   */\n      0x20616464726573732e0000000000000000000000000000000000000000000000\n        /* \"#utility.yul\":14122:14124   */\n      0x20\n        /* \"#utility.yul\":14114:14120   */\n      dup3\n        /* \"#utility.yul\":14110:14125   */\n      add\n        /* \"#utility.yul\":14103:14139   */\n      mstore\n        /* \"#utility.yul\":13918:14146   */\n      pop\n      jump\t// out\n        /* \"#utility.yul\":14152:14518   */\n    tag_422:\n        /* \"#utility.yul\":14294:14297   */\n      0x00\n        /* \"#utility.yul\":14315:14382   */\n      tag_589\n        /* \"#utility.yul\":14379:14381   */\n      0x29\n        /* \"#utility.yul\":14374:14377   */\n      dup4\n        /* \"#utility.yul\":14315:14382   */\n      tag_392\n      jump\t// in\n    tag_589:\n        /* \"#utility.yul\":14308:14382   */\n      swap2\n      pop\n        /* \"#utility.yul\":14391:14484   */\n      tag_590\n        /* \"#utility.yul\":14480:14483   */\n      dup3\n        /* \"#utility.yul\":14391:14484   */\n      tag_421\n      jump\t// in\n    tag_590:\n        /* \"#utility.yul\":14509:14511   */\n      0x40\n        /* \"#utility.yul\":14504:14507   */\n      dup3\n        /* \"#utility.yul\":14500:14512   */\n      add\n        /* \"#utility.yul\":14493:14512   */\n      swap1\n      pop\n        /* \"#utility.yul\":14152:14518   */\n      swap2\n      swap1\n      pop\n      jump\t// out\n        /* \"#utility.yul\":14524:14943   */\n    tag_223:\n        /* \"#utility.yul\":14690:14694   */\n      0x00\n        /* \"#utility.yul\":14728:14730   */\n      0x20\n        /* \"#utility.yul\":14717:14726   */\n      dup3\n        /* \"#utility.yul\":14713:14731   */\n      add\n        /* \"#utility.yul\":14705:14731   */\n      swap1\n      pop\n        /* \"#utility.yul\":14777:14786   */\n      dup2\n        /* \"#utility.yul\":14771:14775   */\n      dup2\n        /* \"#utility.yul\":14767:14787   */\n      sub\n        /* \"#utility.yul\":14763:14764   */\n      0x00\n        /* \"#utility.yul\":14752:14761   */\n      dup4\n        /* \"#utility.yul\":14748:14765   */\n      add\n        /* \"#utility.yul\":14741:14788   */\n      mstore\n        /* \"#utility.yul\":14805:14936   */\n      tag_592\n        /* \"#utility.yul\":14931:14935   */\n      dup2\n        /* \"#utility.yul\":14805:14936   */\n      tag_422\n      jump\t// in\n    tag_592:\n        /* \"#utility.yul\":14797:14936   */\n      swap1\n      pop\n        /* \"#utility.yul\":14524:14943   */\n      swap2\n      swap1\n      pop\n      jump\t// out\n        /* \"#utility.yul\":14949:15172   */\n    tag_423:\n        /* \"#utility.yul\":15089:15123   */\n      0x45524332303a20617070726f76652066726f6d20746865207a65726f20616464\n        /* \"#utility.yul\":15085:15086   */\n      0x00\n        /* \"#utility.yul\":15077:15083   */\n      dup3\n        /* \"#utility.yul\":15073:15087   */\n      add\n        /* \"#utility.yul\":15066:15124   */\n      mstore\n        /* \"#utility.yul\":15158:15164   */\n      0x7265737300000000000000000000000000000000000000000000000000000000\n        /* \"#utility.yul\":15153:15155   */\n      0x20\n        /* \"#utility.yul\":15145:15151   */\n      dup3\n        /* \"#utility.yul\":15141:15156   */\n      add\n        /* \"#utility.yul\":15134:15165   */\n      mstore\n        /* \"#utility.yul\":14949:15172   */\n      pop\n      jump\t// out\n        /* \"#utility.yul\":15178:15544   */\n    tag_424:\n        /* \"#utility.yul\":15320:15323   */\n      0x00\n        /* \"#utility.yul\":15341:15408   */\n      tag_595\n        /* \"#utility.yul\":15405:15407   */\n      0x24\n        /* \"#utility.yul\":15400:15403   */\n      dup4\n        /* \"#utility.yul\":15341:15408   */\n      tag_392\n      jump\t// in\n    tag_595:\n        /* \"#utility.yul\":15334:15408   */\n      swap2\n      pop\n        /* \"#utility.yul\":15417:15510   */\n      tag_596\n        /* \"#utility.yul\":15506:15509   */\n      dup3\n        /* \"#utility.yul\":15417:15510   */\n      tag_423\n      jump\t// in\n    tag_596:\n        /* \"#utility.yul\":15535:15537   */\n      0x40\n        /* \"#utility.yul\":15530:15533   */\n      dup3\n        /* \"#utility.yul\":15526:15538   */\n      add\n        /* \"#utility.yul\":15519:15538   */\n      swap1\n      pop\n        /* \"#utility.yul\":15178:15544   */\n      swap2\n      swap1\n      pop\n      jump\t// out\n        /* \"#utility.yul\":15550:15969   */\n    tag_243:\n        /* \"#utility.yul\":15716:15720   */\n      0x00\n        /* \"#utility.yul\":15754:15756   */\n      0x20\n        /* \"#utility.yul\":15743:15752   */\n      dup3\n        /* \"#utility.yul\":15739:15757   */\n      add\n        /* \"#utility.yul\":15731:15757   */\n      swap1\n      pop\n        /* \"#utility.yul\":15803:15812   */\n      dup2\n        /* \"#utility.yul\":15797:15801   */\n      dup2\n        /* \"#utility.yul\":15793:15813   */\n      sub\n        /* \"#utility.yul\":15789:15790   */\n      0x00\n        /* \"#utility.yul\":15778:15787   */\n      dup4\n        /* \"#utility.yul\":15774:15791   */\n      add\n        /* \"#utility.yul\":15767:15814   */\n      mstore\n        /* \"#utility.yul\":15831:15962   */\n      tag_598\n        /* \"#utility.yul\":15957:15961   */\n      dup2\n        /* \"#utility.yul\":15831:15962   */\n      tag_424\n      jump\t// in\n    tag_598:\n        /* \"#utility.yul\":15823:15962   */\n      swap1\n      pop\n        /* \"#utility.yul\":15550:15969   */\n      swap2\n      swap1\n      pop\n      jump\t// out\n        /* \"#utility.yul\":15975:16196   */\n    tag_425:\n        /* \"#utility.yul\":16115:16149   */\n      0x45524332303a20617070726f766520746f20746865207a65726f206164647265\n        /* \"#utility.yul\":16111:16112   */\n      0x00\n        /* \"#utility.yul\":16103:16109   */\n      dup3\n        /* \"#utility.yul\":16099:16113   */\n      add\n        /* \"#utility.yul\":16092:16150   */\n      mstore\n        /* \"#utility.yul\":16184:16188   */\n      0x7373000000000000000000000000000000000000000000000000000000000000\n        /* \"#utility.yul\":16179:16181   */\n      0x20\n        /* \"#utility.yul\":16171:16177   */\n      dup3\n        /* \"#utility.yul\":16167:16182   */\n      add\n        /* \"#utility.yul\":16160:16189   */\n      mstore\n        /* \"#utility.yul\":15975:16196   */\n      pop\n      jump\t// out\n        /* \"#utility.yul\":16202:16568   */\n    tag_426:\n        /* \"#utility.yul\":16344:16347   */\n      0x00\n        /* \"#utility.yul\":16365:16432   */\n      tag_601\n        /* \"#utility.yul\":16429:16431   */\n      0x22\n        /* \"#utility.yul\":16424:16427   */\n      dup4\n        /* \"#utility.yul\":16365:16432   */\n      tag_392\n      jump\t// in\n    tag_601:\n        /* \"#utility.yul\":16358:16432   */\n      swap2\n      pop\n        /* \"#utility.yul\":16441:16534   */\n      tag_602\n        /* \"#utility.yul\":16530:16533   */\n      dup3\n        /* \"#utility.yul\":16441:16534   */\n      tag_425\n      jump\t// in\n    tag_602:\n        /* \"#utility.yul\":16559:16561   */\n      0x40\n        /* \"#utility.yul\":16554:16557   */\n      dup3\n        /* \"#utility.yul\":16550:16562   */\n      add\n        /* \"#utility.yul\":16543:16562   */\n      swap1\n      pop\n        /* \"#utility.yul\":16202:16568   */\n      swap2\n      swap1\n      pop\n      jump\t// out\n        /* \"#utility.yul\":16574:16993   */\n    tag_246:\n        /* \"#utility.yul\":16740:16744   */\n      0x00\n        /* \"#utility.yul\":16778:16780   */\n      0x20\n        /* \"#utility.yul\":16767:16776   */\n      dup3\n        /* \"#utility.yul\":16763:16781   */\n      add\n        /* \"#utility.yul\":16755:16781   */\n      swap1\n      pop\n        /* \"#utility.yul\":16827:16836   */\n      dup2\n        /* \"#utility.yul\":16821:16825   */\n      dup2\n        /* \"#utility.yul\":16817:16837   */\n      sub\n        /* \"#utility.yul\":16813:16814   */\n      0x00\n        /* \"#utility.yul\":16802:16811   */\n      dup4\n        /* \"#utility.yul\":16798:16815   */\n      add\n        /* \"#utility.yul\":16791:16838   */\n      mstore\n        /* \"#utility.yul\":16855:16986   */\n      tag_604\n        /* \"#utility.yul\":16981:16985   */\n      dup2\n        /* \"#utility.yul\":16855:16986   */\n      tag_426\n      jump\t// in\n    tag_604:\n        /* \"#utility.yul\":16847:16986   */\n      swap1\n      pop\n        /* \"#utility.yul\":16574:16993   */\n      swap2\n      swap1\n      pop\n      jump\t// out\n        /* \"#utility.yul\":16999:17230   */\n    tag_427:\n        /* \"#utility.yul\":17139:17173   */\n      0x45524332303a207472616e736665722066756e6374696f6e2069732070617573\n        /* \"#utility.yul\":17135:17136   */\n      0x00\n        /* \"#utility.yul\":17127:17133   */\n      dup3\n        /* \"#utility.yul\":17123:17137   */\n      add\n        /* \"#utility.yul\":17116:17174   */\n      mstore\n        /* \"#utility.yul\":17208:17222   */\n      0x65642062792061646d696e2e0000000000000000000000000000000000000000\n        /* \"#utility.yul\":17203:17205   */\n      0x20\n        /* \"#utility.yul\":17195:17201   */\n      dup3\n        /* \"#utility.yul\":17191:17206   */\n      add\n        /* \"#utility.yul\":17184:17223   */\n      mstore\n        /* \"#utility.yul\":16999:17230   */\n      pop\n      jump\t// out\n        /* \"#utility.yul\":17236:17602   */\n    tag_428:\n        /* \"#utility.yul\":17378:17381   */\n      0x00\n        /* \"#utility.yul\":17399:17466   */\n      tag_607\n        /* \"#utility.yul\":17463:17465   */\n      0x2c\n        /* \"#utility.yul\":17458:17461   */\n      dup4\n        /* \"#utility.yul\":17399:17466   */\n      tag_392\n      jump\t// in\n    tag_607:\n        /* \"#utility.yul\":17392:17466   */\n      swap2\n      pop\n        /* \"#utility.yul\":17475:17568   */\n      tag_608\n        /* \"#utility.yul\":17564:17567   */\n      dup3\n        /* \"#utility.yul\":17475:17568   */\n      tag_427\n      jump\t// in\n    tag_608:\n        /* \"#utility.yul\":17593:17595   */\n      0x40\n        /* \"#utility.yul\":17588:17591   */\n      dup3\n        /* \"#utility.yul\":17584:17596   */\n      add\n        /* \"#utility.yul\":17577:17596   */\n      swap1\n      pop\n        /* \"#utility.yul\":17236:17602   */\n      swap2\n      swap1\n      pop\n      jump\t// out\n        /* \"#utility.yul\":17608:18027   */\n    tag_252:\n        /* \"#utility.yul\":17774:17778   */\n      0x00\n        /* \"#utility.yul\":17812:17814   */\n      0x20\n        /* \"#utility.yul\":17801:17810   */\n      dup3\n        /* \"#utility.yul\":17797:17815   */\n      add\n        /* \"#utility.yul\":17789:17815   */\n      swap1\n      pop\n        /* \"#utility.yul\":17861:17870   */\n      dup2\n        /* \"#utility.yul\":17855:17859   */\n      dup2\n        /* \"#utility.yul\":17851:17871   */\n      sub\n        /* \"#utility.yul\":17847:17848   */\n      0x00\n        /* \"#utility.yul\":17836:17845   */\n      dup4\n        /* \"#utility.yul\":17832:17849   */\n      add\n        /* \"#utility.yul\":17825:17872   */\n      mstore\n        /* \"#utility.yul\":17889:18020   */\n      tag_610\n        /* \"#utility.yul\":18015:18019   */\n      dup2\n        /* \"#utility.yul\":17889:18020   */\n      tag_428\n      jump\t// in\n    tag_610:\n        /* \"#utility.yul\":17881:18020   */\n      swap1\n      pop\n        /* \"#utility.yul\":17608:18027   */\n      swap2\n      swap1\n      pop\n      jump\t// out\n        /* \"#utility.yul\":18033:18257   */\n    tag_429:\n        /* \"#utility.yul\":18173:18207   */\n      0x45524332303a207472616e736665722066726f6d20746865207a65726f206164\n        /* \"#utility.yul\":18169:18170   */\n      0x00\n        /* \"#utility.yul\":18161:18167   */\n      dup3\n        /* \"#utility.yul\":18157:18171   */\n      add\n        /* \"#utility.yul\":18150:18208   */\n      mstore\n        /* \"#utility.yul\":18242:18249   */\n      0x6472657373000000000000000000000000000000000000000000000000000000\n        /* \"#utility.yul\":18237:18239   */\n      0x20\n        /* \"#utility.yul\":18229:18235   */\n      dup3\n        /* \"#utility.yul\":18225:18240   */\n      add\n        /* \"#utility.yul\":18218:18250   */\n      mstore\n        /* \"#utility.yul\":18033:18257   */\n      pop\n      jump\t// out\n        /* \"#utility.yul\":18263:18629   */\n    tag_430:\n        /* \"#utility.yul\":18405:18408   */\n      0x00\n        /* \"#utility.yul\":18426:18493   */\n      tag_613\n        /* \"#utility.yul\":18490:18492   */\n      0x25\n        /* \"#utility.yul\":18485:18488   */\n      dup4\n        /* \"#utility.yul\":18426:18493   */\n      tag_392\n      jump\t// in\n    tag_613:\n        /* \"#utility.yul\":18419:18493   */\n      swap2\n      pop\n        /* \"#utility.yul\":18502:18595   */\n      tag_614\n        /* \"#utility.yul\":18591:18594   */\n      dup3\n        /* \"#utility.yul\":18502:18595   */\n      tag_429\n      jump\t// in\n    tag_614:\n        /* \"#utility.yul\":18620:18622   */\n      0x40\n        /* \"#utility.yul\":18615:18618   */\n      dup3\n        /* \"#utility.yul\":18611:18623   */\n      add\n        /* \"#utility.yul\":18604:18623   */\n      swap1\n      pop\n        /* \"#utility.yul\":18263:18629   */\n      swap2\n      swap1\n      pop\n      jump\t// out\n        /* \"#utility.yul\":18635:19054   */\n    tag_255:\n        /* \"#utility.yul\":18801:18805   */\n      0x00\n        /* \"#utility.yul\":18839:18841   */\n      0x20\n        /* \"#utility.yul\":18828:18837   */\n      dup3\n        /* \"#utility.yul\":18824:18842   */\n      add\n        /* \"#utility.yul\":18816:18842   */\n      swap1\n      pop\n        /* \"#utility.yul\":18888:18897   */\n      dup2\n        /* \"#utility.yul\":18882:18886   */\n      dup2\n        /* \"#utility.yul\":18878:18898   */\n      sub\n        /* \"#utility.yul\":18874:18875   */\n      0x00\n        /* \"#utility.yul\":18863:18872   */\n      dup4\n        /* \"#utility.yul\":18859:18876   */\n      add\n        /* \"#utility.yul\":18852:18899   */\n      mstore\n        /* \"#utility.yul\":18916:19047   */\n      tag_616\n        /* \"#utility.yul\":19042:19046   */\n      dup2\n        /* \"#utility.yul\":18916:19047   */\n      tag_430\n      jump\t// in\n    tag_616:\n        /* \"#utility.yul\":18908:19047   */\n      swap1\n      pop\n        /* \"#utility.yul\":18635:19054   */\n      swap2\n      swap1\n      pop\n      jump\t// out\n        /* \"#utility.yul\":19060:19282   */\n    tag_431:\n        /* \"#utility.yul\":19200:19234   */\n      0x45524332303a207472616e7366657220746f20746865207a65726f2061646472\n        /* \"#utility.yul\":19196:19197   */\n      0x00\n        /* \"#utility.yul\":19188:19194   */\n      dup3\n        /* \"#utility.yul\":19184:19198   */\n      add\n        /* \"#utility.yul\":19177:19235   */\n      mstore\n        /* \"#utility.yul\":19269:19274   */\n      0x6573730000000000000000000000000000000000000000000000000000000000\n        /* \"#utility.yul\":19264:19266   */\n      0x20\n        /* \"#utility.yul\":19256:19262   */\n      dup3\n        /* \"#utility.yul\":19252:19267   */\n      add\n        /* \"#utility.yul\":19245:19275   */\n      mstore\n        /* \"#utility.yul\":19060:19282   */\n      pop\n      jump\t// out\n        /* \"#utility.yul\":19288:19654   */\n    tag_432:\n        /* \"#utility.yul\":19430:19433   */\n      0x00\n        /* \"#utility.yul\":19451:19518   */\n      tag_619\n        /* \"#utility.yul\":19515:19517   */\n      0x23\n        /* \"#utility.yul\":19510:19513   */\n      dup4\n        /* \"#utility.yul\":19451:19518   */\n      tag_392\n      jump\t// in\n    tag_619:\n        /* \"#utility.yul\":19444:19518   */\n      swap2\n      pop\n        /* \"#utility.yul\":19527:19620   */\n      tag_620\n        /* \"#utility.yul\":19616:19619   */\n      dup3\n        /* \"#utility.yul\":19527:19620   */\n      tag_431\n      jump\t// in\n    tag_620:\n        /* \"#utility.yul\":19645:19647   */\n      0x40\n        /* \"#utility.yul\":19640:19643   */\n      dup3\n        /* \"#utility.yul\":19636:19648   */\n      add\n        /* \"#utility.yul\":19629:19648   */\n      swap1\n      pop\n        /* \"#utility.yul\":19288:19654   */\n      swap2\n      swap1\n      pop\n      jump\t// out\n        /* \"#utility.yul\":19660:20079   */\n    tag_258:\n        /* \"#utility.yul\":19826:19830   */\n      0x00\n        /* \"#utility.yul\":19864:19866   */\n      0x20\n        /* \"#utility.yul\":19853:19862   */\n      dup3\n        /* \"#utility.yul\":19849:19867   */\n      add\n        /* \"#utility.yul\":19841:19867   */\n      swap1\n      pop\n        /* \"#utility.yul\":19913:19922   */\n      dup2\n        /* \"#utility.yul\":19907:19911   */\n      dup2\n        /* \"#utility.yul\":19903:19923   */\n      sub\n        /* \"#utility.yul\":19899:19900   */\n      0x00\n        /* \"#utility.yul\":19888:19897   */\n      dup4\n        /* \"#utility.yul\":19884:19901   */\n      add\n        /* \"#utility.yul\":19877:19924   */\n      mstore\n        /* \"#utility.yul\":19941:20072   */\n      tag_622\n        /* \"#utility.yul\":20067:20071   */\n      dup2\n        /* \"#utility.yul\":19941:20072   */\n      tag_432\n      jump\t// in\n    tag_622:\n        /* \"#utility.yul\":19933:20072   */\n      swap1\n      pop\n        /* \"#utility.yul\":19660:20079   */\n      swap2\n      swap1\n      pop\n      jump\t// out\n        /* \"#utility.yul\":20085:20310   */\n    tag_433:\n        /* \"#utility.yul\":20225:20259   */\n      0x45524332303a207472616e7366657220616d6f756e7420657863656564732062\n        /* \"#utility.yul\":20221:20222   */\n      0x00\n        /* \"#utility.yul\":20213:20219   */\n      dup3\n        /* \"#utility.yul\":20209:20223   */\n      add\n        /* \"#utility.yul\":20202:20260   */\n      mstore\n        /* \"#utility.yul\":20294:20302   */\n      0x616c616e63650000000000000000000000000000000000000000000000000000\n        /* \"#utility.yul\":20289:20291   */\n      0x20\n        /* \"#utility.yul\":20281:20287   */\n      dup3\n        /* \"#utility.yul\":20277:20292   */\n      add\n        /* \"#utility.yul\":20270:20303   */\n      mstore\n        /* \"#utility.yul\":20085:20310   */\n      pop\n      jump\t// out\n        /* \"#utility.yul\":20316:20682   */\n    tag_434:\n        /* \"#utility.yul\":20458:20461   */\n      0x00\n        /* \"#utility.yul\":20479:20546   */\n      tag_625\n        /* \"#utility.yul\":20543:20545   */\n      0x26\n        /* \"#utility.yul\":20538:20541   */\n      dup4\n        /* \"#utility.yul\":20479:20546   */\n      tag_392\n      jump\t// in\n    tag_625:\n        /* \"#utility.yul\":20472:20546   */\n      swap2\n      pop\n        /* \"#utility.yul\":20555:20648   */\n      tag_626\n        /* \"#utility.yul\":20644:20647   */\n      dup3\n        /* \"#utility.yul\":20555:20648   */\n      tag_433\n      jump\t// in\n    tag_626:\n        /* \"#utility.yul\":20673:20675   */\n      0x40\n        /* \"#utility.yul\":20668:20671   */\n      dup3\n        /* \"#utility.yul\":20664:20676   */\n      add\n        /* \"#utility.yul\":20657:20676   */\n      swap1\n      pop\n        /* \"#utility.yul\":20316:20682   */\n      swap2\n      swap1\n      pop\n      jump\t// out\n        /* \"#utility.yul\":20688:21107   */\n    tag_263:\n        /* \"#utility.yul\":20854:20858   */\n      0x00\n        /* \"#utility.yul\":20892:20894   */\n      0x20\n        /* \"#utility.yul\":20881:20890   */\n      dup3\n        /* \"#utility.yul\":20877:20895   */\n      add\n        /* \"#utility.yul\":20869:20895   */\n      swap1\n      pop\n        /* \"#utility.yul\":20941:20950   */\n      dup2\n        /* \"#utility.yul\":20935:20939   */\n      dup2\n        /* \"#utility.yul\":20931:20951   */\n      sub\n        /* \"#utility.yul\":20927:20928   */\n      0x00\n        /* \"#utility.yul\":20916:20925   */\n      dup4\n        /* \"#utility.yul\":20912:20929   */\n      add\n        /* \"#utility.yul\":20905:20952   */\n      mstore\n        /* \"#utility.yul\":20969:21100   */\n      tag_628\n        /* \"#utility.yul\":21095:21099   */\n      dup2\n        /* \"#utility.yul\":20969:21100   */\n      tag_434\n      jump\t// in\n    tag_628:\n        /* \"#utility.yul\":20961:21100   */\n      swap1\n      pop\n        /* \"#utility.yul\":20688:21107   */\n      swap2\n      swap1\n      pop\n      jump\t// out\n        /* \"#utility.yul\":21113:21279   */\n    tag_435:\n        /* \"#utility.yul\":21253:21271   */\n      0x5061757361626c653a2070617573656400000000000000000000000000000000\n        /* \"#utility.yul\":21249:21250   */\n      0x00\n        /* \"#utility.yul\":21241:21247   */\n      dup3\n        /* \"#utility.yul\":21237:21251   */\n      add\n        /* \"#utility.yul\":21230:21272   */\n      mstore\n        /* \"#utility.yul\":21113:21279   */\n      pop\n      jump\t// out\n        /* \"#utility.yul\":21285:21651   */\n    tag_436:\n        /* \"#utility.yul\":21427:21430   */\n      0x00\n        /* \"#utility.yul\":21448:21515   */\n      tag_631\n        /* \"#utility.yul\":21512:21514   */\n      0x10\n        /* \"#utility.yul\":21507:21510   */\n      dup4\n        /* \"#utility.yul\":21448:21515   */\n      tag_392\n      jump\t// in\n    tag_631:\n        /* \"#utility.yul\":21441:21515   */\n      swap2\n      pop\n        /* \"#utility.yul\":21524:21617   */\n      tag_632\n        /* \"#utility.yul\":21613:21616   */\n      dup3\n        /* \"#utility.yul\":21524:21617   */\n      tag_435\n      jump\t// in\n    tag_632:\n        /* \"#utility.yul\":21642:21644   */\n      0x20\n        /* \"#utility.yul\":21637:21640   */\n      dup3\n        /* \"#utility.yul\":21633:21645   */\n      add\n        /* \"#utility.yul\":21626:21645   */\n      swap1\n      pop\n        /* \"#utility.yul\":21285:21651   */\n      swap2\n      swap1\n      pop\n      jump\t// out\n        /* \"#utility.yul\":21657:22076   */\n    tag_279:\n        /* \"#utility.yul\":21823:21827   */\n      0x00\n        /* \"#utility.yul\":21861:21863   */\n      0x20\n        /* \"#utility.yul\":21850:21859   */\n      dup3\n        /* \"#utility.yul\":21846:21864   */\n      add\n        /* \"#utility.yul\":21838:21864   */\n      swap1\n      pop\n        /* \"#utility.yul\":21910:21919   */\n      dup2\n        /* \"#utility.yul\":21904:21908   */\n      dup2\n        /* \"#utility.yul\":21900:21920   */\n      sub\n        /* \"#utility.yul\":21896:21897   */\n      0x00\n        /* \"#utility.yul\":21885:21894   */\n      dup4\n        /* \"#utility.yul\":21881:21898   */\n      add\n        /* \"#utility.yul\":21874:21921   */\n      mstore\n        /* \"#utility.yul\":21938:22069   */\n      tag_634\n        /* \"#utility.yul\":22064:22068   */\n      dup2\n        /* \"#utility.yul\":21938:22069   */\n      tag_436\n      jump\t// in\n    tag_634:\n        /* \"#utility.yul\":21930:22069   */\n      swap1\n      pop\n        /* \"#utility.yul\":21657:22076   */\n      swap2\n      swap1\n      pop\n      jump\t// out\n        /* \"#utility.yul\":22082:22252   */\n    tag_437:\n        /* \"#utility.yul\":22222:22244   */\n      0x5061757361626c653a206e6f7420706175736564000000000000000000000000\n        /* \"#utility.yul\":22218:22219   */\n      0x00\n        /* \"#utility.yul\":22210:22216   */\n      dup3\n        /* \"#utility.yul\":22206:22220   */\n      add\n        /* \"#utility.yul\":22199:22245   */\n      mstore\n        /* \"#utility.yul\":22082:22252   */\n      pop\n      jump\t// out\n        /* \"#utility.yul\":22258:22624   */\n    tag_438:\n        /* \"#utility.yul\":22400:22403   */\n      0x00\n        /* \"#utility.yul\":22421:22488   */\n      tag_637\n        /* \"#utility.yul\":22485:22487   */\n      0x14\n        /* \"#utility.yul\":22480:22483   */\n      dup4\n        /* \"#utility.yul\":22421:22488   */\n      tag_392\n      jump\t// in\n    tag_637:\n        /* \"#utility.yul\":22414:22488   */\n      swap2\n      pop\n        /* \"#utility.yul\":22497:22590   */\n      tag_638\n        /* \"#utility.yul\":22586:22589   */\n      dup3\n        /* \"#utility.yul\":22497:22590   */\n      tag_437\n      jump\t// in\n    tag_638:\n        /* \"#utility.yul\":22615:22617   */\n      0x20\n        /* \"#utility.yul\":22610:22613   */\n      dup3\n        /* \"#utility.yul\":22606:22618   */\n      add\n        /* \"#utility.yul\":22599:22618   */\n      swap1\n      pop\n        /* \"#utility.yul\":22258:22624   */\n      swap2\n      swap1\n      pop\n      jump\t// out\n        /* \"#utility.yul\":22630:23049   */\n    tag_290:\n        /* \"#utility.yul\":22796:22800   */\n      0x00\n        /* \"#utility.yul\":22834:22836   */\n      0x20\n        /* \"#utility.yul\":22823:22832   */\n      dup3\n        /* \"#utility.yul\":22819:22837   */\n      add\n        /* \"#utility.yul\":22811:22837   */\n      swap1\n      pop\n        /* \"#utility.yul\":22883:22892   */\n      dup2\n        /* \"#utility.yul\":22877:22881   */\n      dup2\n        /* \"#utility.yul\":22873:22893   */\n      sub\n        /* \"#utility.yul\":22869:22870   */\n      0x00\n        /* \"#utility.yul\":22858:22867   */\n      dup4\n        /* \"#utility.yul\":22854:22871   */\n      add\n        /* \"#utility.yul\":22847:22894   */\n      mstore\n        /* \"#utility.yul\":22911:23042   */\n      tag_640\n        /* \"#utility.yul\":23037:23041   */\n      dup2\n        /* \"#utility.yul\":22911:23042   */\n      tag_438\n      jump\t// in\n    tag_640:\n        /* \"#utility.yul\":22903:23042   */\n      swap1\n      pop\n        /* \"#utility.yul\":22630:23049   */\n      swap2\n      swap1\n      pop\n      jump\t// out\n        /* \"#utility.yul\":23055:23203   */\n    tag_439:\n        /* \"#utility.yul\":23157:23168   */\n      0x00\n        /* \"#utility.yul\":23194:23197   */\n      dup2\n        /* \"#utility.yul\":23179:23197   */\n      swap1\n      pop\n        /* \"#utility.yul\":23055:23203   */\n      swap3\n      swap2\n      pop\n      pop\n      jump\t// out\n        /* \"#utility.yul\":23209:23382   */\n    tag_440:\n        /* \"#utility.yul\":23349:23374   */\n      0x416363657373436f6e74726f6c3a206163636f756e7420000000000000000000\n        /* \"#utility.yul\":23345:23346   */\n      0x00\n        /* \"#utility.yul\":23337:23343   */\n      dup3\n        /* \"#utility.yul\":23333:23347   */\n      add\n        /* \"#utility.yul\":23326:23375   */\n      mstore\n        /* \"#utility.yul\":23209:23382   */\n      pop\n      jump\t// out\n        /* \"#utility.yul\":23388:23790   */\n    tag_441:\n        /* \"#utility.yul\":23548:23551   */\n      0x00\n        /* \"#utility.yul\":23569:23654   */\n      tag_644\n        /* \"#utility.yul\":23651:23653   */\n      0x17\n        /* \"#utility.yul\":23646:23649   */\n      dup4\n        /* \"#utility.yul\":23569:23654   */\n      tag_439\n      jump\t// in\n    tag_644:\n        /* \"#utility.yul\":23562:23654   */\n      swap2\n      pop\n        /* \"#utility.yul\":23663:23756   */\n      tag_645\n        /* \"#utility.yul\":23752:23755   */\n      dup3\n        /* \"#utility.yul\":23663:23756   */\n      tag_440\n      jump\t// in\n    tag_645:\n        /* \"#utility.yul\":23781:23783   */\n      0x17\n        /* \"#utility.yul\":23776:23779   */\n      dup3\n        /* \"#utility.yul\":23772:23784   */\n      add\n        /* \"#utility.yul\":23765:23784   */\n      swap1\n      pop\n        /* \"#utility.yul\":23388:23790   */\n      swap2\n      swap1\n      pop\n      jump\t// out\n        /* \"#utility.yul\":23796:24173   */\n    tag_442:\n        /* \"#utility.yul\":23902:23905   */\n      0x00\n        /* \"#utility.yul\":23930:23969   */\n      tag_647\n        /* \"#utility.yul\":23963:23968   */\n      dup3\n        /* \"#utility.yul\":23930:23969   */\n      tag_391\n      jump\t// in\n    tag_647:\n        /* \"#utility.yul\":23985:24074   */\n      tag_648\n        /* \"#utility.yul\":24067:24073   */\n      dup2\n        /* \"#utility.yul\":24062:24065   */\n      dup6\n        /* \"#utility.yul\":23985:24074   */\n      tag_439\n      jump\t// in\n    tag_648:\n        /* \"#utility.yul\":23978:24074   */\n      swap4\n      pop\n        /* \"#utility.yul\":24083:24135   */\n      tag_649\n        /* \"#utility.yul\":24128:24134   */\n      dup2\n        /* \"#utility.yul\":24123:24126   */\n      dup6\n        /* \"#utility.yul\":24116:24120   */\n      0x20\n        /* \"#utility.yul\":24109:24114   */\n      dup7\n        /* \"#utility.yul\":24105:24121   */\n      add\n        /* \"#utility.yul\":24083:24135   */\n      tag_393\n      jump\t// in\n    tag_649:\n        /* \"#utility.yul\":24160:24166   */\n      dup1\n        /* \"#utility.yul\":24155:24158   */\n      dup5\n        /* \"#utility.yul\":24151:24167   */\n      add\n        /* \"#utility.yul\":24144:24167   */\n      swap2\n      pop\n        /* \"#utility.yul\":23906:24173   */\n      pop\n        /* \"#utility.yul\":23796:24173   */\n      swap3\n      swap2\n      pop\n      pop\n      jump\t// out\n        /* \"#utility.yul\":24179:24346   */\n    tag_443:\n        /* \"#utility.yul\":24319:24338   */\n      0x206973206d697373696e6720726f6c6520000000000000000000000000000000\n        /* \"#utility.yul\":24315:24316   */\n      0x00\n        /* \"#utility.yul\":24307:24313   */\n      dup3\n        /* \"#utility.yul\":24303:24317   */\n      add\n        /* \"#utility.yul\":24296:24339   */\n      mstore\n        /* \"#utility.yul\":24179:24346   */\n      pop\n      jump\t// out\n        /* \"#utility.yul\":24352:24754   */\n    tag_444:\n        /* \"#utility.yul\":24512:24515   */\n      0x00\n        /* \"#utility.yul\":24533:24618   */\n      tag_652\n        /* \"#utility.yul\":24615:24617   */\n      0x11\n        /* \"#utility.yul\":24610:24613   */\n      dup4\n        /* \"#utility.yul\":24533:24618   */\n      tag_439\n      jump\t// in\n    tag_652:\n        /* \"#utility.yul\":24526:24618   */\n      swap2\n      pop\n        /* \"#utility.yul\":24627:24720   */\n      tag_653\n        /* \"#utility.yul\":24716:24719   */\n      dup3\n        /* \"#utility.yul\":24627:24720   */\n      tag_443\n      jump\t// in\n    tag_653:\n        /* \"#utility.yul\":24745:24747   */\n      0x11\n        /* \"#utility.yul\":24740:24743   */\n      dup3\n        /* \"#utility.yul\":24736:24748   */\n      add\n        /* \"#utility.yul\":24729:24748   */\n      swap1\n      pop\n        /* \"#utility.yul\":24352:24754   */\n      swap2\n      swap1\n      pop\n      jump\t// out\n        /* \"#utility.yul\":24760:25727   */\n    tag_327:\n        /* \"#utility.yul\":25142:25145   */\n      0x00\n        /* \"#utility.yul\":25164:25312   */\n      tag_655\n        /* \"#utility.yul\":25308:25311   */\n      dup3\n        /* \"#utility.yul\":25164:25312   */\n      tag_441\n      jump\t// in\n    tag_655:\n        /* \"#utility.yul\":25157:25312   */\n      swap2\n      pop\n        /* \"#utility.yul\":25329:25424   */\n      tag_656\n        /* \"#utility.yul\":25420:25423   */\n      dup3\n        /* \"#utility.yul\":25411:25417   */\n      dup6\n        /* \"#utility.yul\":25329:25424   */\n      tag_442\n      jump\t// in\n    tag_656:\n        /* \"#utility.yul\":25322:25424   */\n      swap2\n      pop\n        /* \"#utility.yul\":25441:25589   */\n      tag_657\n        /* \"#utility.yul\":25585:25588   */\n      dup3\n        /* \"#utility.yul\":25441:25589   */\n      tag_444\n      jump\t// in\n    tag_657:\n        /* \"#utility.yul\":25434:25589   */\n      swap2\n      pop\n        /* \"#utility.yul\":25606:25701   */\n      tag_658\n        /* \"#utility.yul\":25697:25700   */\n      dup3\n        /* \"#utility.yul\":25688:25694   */\n      dup5\n        /* \"#utility.yul\":25606:25701   */\n      tag_442\n      jump\t// in\n    tag_658:\n        /* \"#utility.yul\":25599:25701   */\n      swap2\n      pop\n        /* \"#utility.yul\":25718:25721   */\n      dup2\n        /* \"#utility.yul\":25711:25721   */\n      swap1\n      pop\n        /* \"#utility.yul\":24760:25727   */\n      swap4\n      swap3\n      pop\n      pop\n      pop\n      jump\t// out\n        /* \"#utility.yul\":25733:25913   */\n    tag_332:\n        /* \"#utility.yul\":25781:25858   */\n      0x4e487b7100000000000000000000000000000000000000000000000000000000\n        /* \"#utility.yul\":25778:25779   */\n      0x00\n        /* \"#utility.yul\":25771:25859   */\n      mstore\n        /* \"#utility.yul\":25878:25882   */\n      0x32\n        /* \"#utility.yul\":25875:25876   */\n      0x04\n        /* \"#utility.yul\":25868:25883   */\n      mstore\n        /* \"#utility.yul\":25902:25906   */\n      0x24\n        /* \"#utility.yul\":25899:25900   */\n      0x00\n        /* \"#utility.yul\":25892:25907   */\n      revert\n        /* \"#utility.yul\":25919:26110   */\n    tag_342:\n        /* \"#utility.yul\":25959:25963   */\n      0x00\n        /* \"#utility.yul\":25979:25999   */\n      tag_661\n        /* \"#utility.yul\":25997:25998   */\n      dup3\n        /* \"#utility.yul\":25979:25999   */\n      tag_400\n      jump\t// in\n    tag_661:\n        /* \"#utility.yul\":25974:25999   */\n      swap2\n      pop\n        /* \"#utility.yul\":26013:26033   */\n      tag_662\n        /* \"#utility.yul\":26031:26032   */\n      dup4\n        /* \"#utility.yul\":26013:26033   */\n      tag_400\n      jump\t// in\n    tag_662:\n        /* \"#utility.yul\":26008:26033   */\n      swap3\n      pop\n        /* \"#utility.yul\":26052:26053   */\n      dup3\n        /* \"#utility.yul\":26049:26050   */\n      dup3\n        /* \"#utility.yul\":26046:26054   */\n      lt\n        /* \"#utility.yul\":26043:26077   */\n      iszero\n      tag_663\n      jumpi\n        /* \"#utility.yul\":26057:26075   */\n      tag_664\n      tag_418\n      jump\t// in\n    tag_664:\n        /* \"#utility.yul\":26043:26077   */\n    tag_663:\n        /* \"#utility.yul\":26102:26103   */\n      dup3\n        /* \"#utility.yul\":26099:26100   */\n      dup3\n        /* \"#utility.yul\":26095:26104   */\n      sub\n        /* \"#utility.yul\":26087:26104   */\n      swap1\n      pop\n        /* \"#utility.yul\":25919:26110   */\n      swap3\n      swap2\n      pop\n      pop\n      jump\t// out\n        /* \"#utility.yul\":26116:26296   */\n    tag_353:\n        /* \"#utility.yul\":26164:26241   */\n      0x4e487b7100000000000000000000000000000000000000000000000000000000\n        /* \"#utility.yul\":26161:26162   */\n      0x00\n        /* \"#utility.yul\":26154:26242   */\n      mstore\n        /* \"#utility.yul\":26261:26265   */\n      0x31\n        /* \"#utility.yul\":26258:26259   */\n      0x04\n        /* \"#utility.yul\":26251:26266   */\n      mstore\n        /* \"#utility.yul\":26285:26289   */\n      0x24\n        /* \"#utility.yul\":26282:26283   */\n      0x00\n        /* \"#utility.yul\":26275:26290   */\n      revert\n        /* \"#utility.yul\":26302:26650   */\n    tag_359:\n        /* \"#utility.yul\":26342:26349   */\n      0x00\n        /* \"#utility.yul\":26365:26385   */\n      tag_667\n        /* \"#utility.yul\":26383:26384   */\n      dup3\n        /* \"#utility.yul\":26365:26385   */\n      tag_400\n      jump\t// in\n    tag_667:\n        /* \"#utility.yul\":26360:26385   */\n      swap2\n      pop\n        /* \"#utility.yul\":26399:26419   */\n      tag_668\n        /* \"#utility.yul\":26417:26418   */\n      dup4\n        /* \"#utility.yul\":26399:26419   */\n      tag_400\n      jump\t// in\n    tag_668:\n        /* \"#utility.yul\":26394:26419   */\n      swap3\n      pop\n        /* \"#utility.yul\":26587:26588   */\n      dup2\n        /* \"#utility.yul\":26519:26585   */\n      0xffffffffffffffffffffffffffffffffffffffffffffffffffffffffffffffff\n        /* \"#utility.yul\":26515:26589   */\n      div\n        /* \"#utility.yul\":26512:26513   */\n      dup4\n        /* \"#utility.yul\":26509:26590   */\n      gt\n        /* \"#utility.yul\":26504:26505   */\n      dup3\n        /* \"#utility.yul\":26497:26506   */\n      iszero\n        /* \"#utility.yul\":26490:26507   */\n      iszero\n        /* \"#utility.yul\":26486:26591   */\n      and\n        /* \"#utility.yul\":26483:26614   */\n      iszero\n      tag_669\n      jumpi\n        /* \"#utility.yul\":26594:26612   */\n      tag_670\n      tag_418\n      jump\t// in\n    tag_670:\n        /* \"#utility.yul\":26483:26614   */\n    tag_669:\n        /* \"#utility.yul\":26642:26643   */\n      dup3\n        /* \"#utility.yul\":26639:26640   */\n      dup3\n        /* \"#utility.yul\":26635:26644   */\n      mul\n        /* \"#utility.yul\":26624:26644   */\n      swap1\n      pop\n        /* \"#utility.yul\":26302:26650   */\n      swap3\n      swap2\n      pop\n      pop\n      jump\t// out\n        /* \"#utility.yul\":26656:26836   */\n    tag_363:\n        /* \"#utility.yul\":26704:26781   */\n      0x4e487b7100000000000000000000000000000000000000000000000000000000\n        /* \"#utility.yul\":26701:26702   */\n      0x00\n        /* \"#utility.yul\":26694:26782   */\n      mstore\n        /* \"#utility.yul\":26801:26805   */\n      0x41\n        /* \"#utility.yul\":26798:26799   */\n      0x04\n        /* \"#utility.yul\":26791:26806   */\n      mstore\n        /* \"#utility.yul\":26825:26829   */\n      0x24\n        /* \"#utility.yul\":26822:26823   */\n      0x00\n        /* \"#utility.yul\":26815:26830   */\n      revert\n        /* \"#utility.yul\":26842:27013   */\n    tag_379:\n        /* \"#utility.yul\":26881:26884   */\n      0x00\n        /* \"#utility.yul\":26904:26928   */\n      tag_673\n        /* \"#utility.yul\":26922:26927   */\n      dup3\n        /* \"#utility.yul\":26904:26928   */\n      tag_400\n      jump\t// in\n    tag_673:\n        /* \"#utility.yul\":26895:26928   */\n      swap2\n      pop\n        /* \"#utility.yul\":26950:26954   */\n      0x00\n        /* \"#utility.yul\":26943:26948   */\n      dup3\n        /* \"#utility.yul\":26940:26955   */\n      sub\n        /* \"#utility.yul\":26937:26978   */\n      tag_674\n      jumpi\n        /* \"#utility.yul\":26958:26976   */\n      tag_675\n      tag_418\n      jump\t// in\n    tag_675:\n        /* \"#utility.yul\":26937:26978   */\n    tag_674:\n        /* \"#utility.yul\":27005:27006   */\n      0x01\n        /* \"#utility.yul\":26998:27003   */\n      dup3\n        /* \"#utility.yul\":26994:27007   */\n      sub\n        /* \"#utility.yul\":26987:27007   */\n      swap1\n      pop\n        /* \"#utility.yul\":26842:27013   */\n      swap2\n      swap1\n      pop\n      jump\t// out\n        /* \"#utility.yul\":27019:27201   */\n    tag_445:\n        /* \"#utility.yul\":27159:27193   */\n      0x537472696e67733a20686578206c656e67746820696e73756666696369656e74\n        /* \"#utility.yul\":27155:27156   */\n      0x00\n        /* \"#utility.yul\":27147:27153   */\n      dup3\n        /* \"#utility.yul\":27143:27157   */\n      add\n        /* \"#utility.yul\":27136:27194   */\n      mstore\n        /* \"#utility.yul\":27019:27201   */\n      pop\n      jump\t// out\n        /* \"#utility.yul\":27207:27573   */\n    tag_446:\n        /* \"#utility.yul\":27349:27352   */\n      0x00\n        /* \"#utility.yul\":27370:27437   */\n      tag_678\n        /* \"#utility.yul\":27434:27436   */\n      0x20\n        /* \"#utility.yul\":27429:27432   */\n      dup4\n        /* \"#utility.yul\":27370:27437   */\n      tag_392\n      jump\t// in\n    tag_678:\n        /* \"#utility.yul\":27363:27437   */\n      swap2\n      pop\n        /* \"#utility.yul\":27446:27539   */\n      tag_679\n        /* \"#utility.yul\":27535:27538   */\n      dup3\n        /* \"#utility.yul\":27446:27539   */\n      tag_445\n      jump\t// in\n    tag_679:\n        /* \"#utility.yul\":27564:27566   */\n      0x20\n        /* \"#utility.yul\":27559:27562   */\n      dup3\n        /* \"#utility.yul\":27555:27567   */\n      add\n        /* \"#utility.yul\":27548:27567   */\n      swap1\n      pop\n        /* \"#utility.yul\":27207:27573   */\n      swap2\n      swap1\n      pop\n      jump\t// out\n        /* \"#utility.yul\":27579:27998   */\n    tag_382:\n        /* \"#utility.yul\":27745:27749   */\n      0x00\n        /* \"#utility.yul\":27783:27785   */\n      0x20\n        /* \"#utility.yul\":27772:27781   */\n      dup3\n        /* \"#utility.yul\":27768:27786   */\n      add\n        /* \"#utility.yul\":27760:27786   */\n      swap1\n      pop\n        /* \"#utility.yul\":27832:27841   */\n      dup2\n        /* \"#utility.yul\":27826:27830   */\n      dup2\n        /* \"#utility.yul\":27822:27842   */\n      sub\n        /* \"#utility.yul\":27818:27819   */\n      0x00\n        /* \"#utility.yul\":27807:27816   */\n      dup4\n        /* \"#utility.yul\":27803:27820   */\n      add\n        /* \"#utility.yul\":27796:27843   */\n      mstore\n        /* \"#utility.yul\":27860:27991   */\n      tag_681\n        /* \"#utility.yul\":27986:27990   */\n      dup2\n        /* \"#utility.yul\":27860:27991   */\n      tag_446\n      jump\t// in\n    tag_681:\n        /* \"#utility.yul\":27852:27991   */\n      swap1\n      pop\n        /* \"#utility.yul\":27579:27998   */\n      swap2\n      swap1\n      pop\n      jump\t// out\n\n    auxdata: 0xa2646970667358221220113553d54462740a165ee89504e9ca7b44063a6cc06ba26d7b47f275c040a5da64736f6c634300080e0033\n}\n",
				"bytecode": {
					"linkReferences": {},
					"object": "60806040523480156200001157600080fd5b506040516200329838038062003298833981810160405281019062000037919062000593565b6000600260006101000a81548160ff02191690831515021790555081600690805190602001906200006a92919062000346565b5080600790805190602001906200008392919062000346565b50620000a86000801b6200009c620000b060201b60201c565b620000b860201b60201c565b50506200067c565b600033905090565b620000cf82826200010060201b62000e5a1760201c565b620000fb81600160008581526020019081526020016000206200011660201b62000e681790919060201c565b505050565b6200011282826200014e60201b60201c565b5050565b600062000146836000018373ffffffffffffffffffffffffffffffffffffffff1660001b6200023f60201b60201c565b905092915050565b620001608282620002b960201b60201c565b6200023b57600160008084815260200190815260200160002060000160008373ffffffffffffffffffffffffffffffffffffffff1673ffffffffffffffffffffffffffffffffffffffff16815260200190815260200160002060006101000a81548160ff021916908315150217905550620001e0620000b060201b60201c565b73ffffffffffffffffffffffffffffffffffffffff168173ffffffffffffffffffffffffffffffffffffffff16837f2f8788117e7eff1d82e926ec794901d17c78024a50270940304540a733656f0d60405160405180910390a45b5050565b60006200025383836200032360201b60201c565b620002ae578260000182908060018154018082558091505060019003906000526020600020016000909190919091505582600001805490508360010160008481526020019081526020016000208190555060019050620002b3565b600090505b92915050565b600080600084815260200190815260200160002060000160008373ffffffffffffffffffffffffffffffffffffffff1673ffffffffffffffffffffffffffffffffffffffff16815260200190815260200160002060009054906101000a900460ff16905092915050565b600080836001016000848152602001908152602001600020541415905092915050565b828054620003549062000647565b90600052602060002090601f016020900481019282620003785760008555620003c4565b82601f106200039357805160ff1916838001178555620003c4565b82800160010185558215620003c4579182015b82811115620003c3578251825591602001919060010190620003a6565b5b509050620003d39190620003d7565b5090565b5b80821115620003f2576000816000905550600101620003d8565b5090565b6000604051905090565b600080fd5b600080fd5b600080fd5b600080fd5b6000601f19601f8301169050919050565b7f4e487b7100000000000000000000000000000000000000000000000000000000600052604160045260246000fd5b6200045f8262000414565b810181811067ffffffffffffffff8211171562000481576200048062000425565b5b80604052505050565b600062000496620003f6565b9050620004a4828262000454565b919050565b600067ffffffffffffffff821115620004c757620004c662000425565b5b620004d28262000414565b9050602081019050919050565b60005b83811015620004ff578082015181840152602081019050620004e2565b838111156200050f576000848401525b50505050565b60006200052c6200052684620004a9565b6200048a565b9050828152602081018484840111156200054b576200054a6200040f565b5b62000558848285620004df565b509392505050565b600082601f8301126200057857620005776200040a565b5b81516200058a84826020860162000515565b91505092915050565b60008060408385031215620005ad57620005ac62000400565b5b600083015167ffffffffffffffff811115620005ce57620005cd62000405565b5b620005dc8582860162000560565b925050602083015167ffffffffffffffff8111156200060057620005ff62000405565b5b6200060e8582860162000560565b9150509250929050565b7f4e487b7100000000000000000000000000000000000000000000000000000000600052602260045260246000fd5b600060028204905060018216806200066057607f821691505b60208210810362000676576200067562000618565b5b50919050565b612c0c806200068c6000396000f3fe608060405234801561001057600080fd5b506004361061014d5760003560e01c806370a08231116100c3578063a9059cbb1161007c578063a9059cbb146103f0578063c6e858fe14610420578063ca15c8731461043e578063d0bbb0d71461046e578063d547741f1461048c578063dd62ed3e146104a85761014d565b806370a08231146102f45780639010d07c1461032457806391d148541461035457806395d89b4114610384578063a217fddf146103a2578063a457c2d7146103c05761014d565b8063248a9ca311610115578063248a9ca31461021e5780632f2ff15d1461024e578063313ce5671461026a57806339509351146102885780635394a892146102b85780635c975abb146102d65761014d565b806301ffc9a71461015257806306fdde0314610182578063095ea7b3146101a057806318160ddd146101d057806323b872dd146101ee575b600080fd5b61016c60048036038101906101679190611cf1565b6104d8565b6040516101799190611d39565b60405180910390f35b61018a610552565b6040516101979190611ded565b60405180910390f35b6101ba60048036038101906101b59190611ea3565b6105e4565b6040516101c79190611d39565b60405180910390f35b6101d8610602565b6040516101e59190611ef2565b60405180910390f35b61020860048036038101906102039190611f0d565b61060c565b6040516102159190611d39565b60405180910390f35b61023860048036038101906102339190611f96565b610779565b6040516102459190611fd2565b60405180910390f35b61026860048036038101906102639190611fed565b610798565b005b6102726107cc565b60405161027f9190612049565b60405180910390f35b6102a2600480360381019061029d9190611ea3565b6107d5565b6040516102af9190611d39565b60405180910390f35b6102c06108d4565b6040516102cd9190611d39565b60405180910390f35b6102de610938565b6040516102eb9190611d39565b60405180910390f35b61030e60048036038101906103099190612064565b61094f565b60405161031b9190611ef2565b60405180910390f35b61033e60048036038101906103399190612091565b610998565b60405161034b91906120e0565b60405180910390f35b61036e60048036038101906103699190611fed565b6109c7565b60405161037b9190611d39565b60405180910390f35b61038c610a31565b6040516103999190611ded565b60405180910390f35b6103aa610ac3565b6040516103b79190611fd2565b60405180910390f35b6103da60048036038101906103d59190611ea3565b610aca565b6040516103e79190611d39565b60405180910390f35b61040a60048036038101906104059190611ea3565b610c09565b6040516104179190611d39565b60405180910390f35b610428610c9c565b6040516104359190611d39565b60405180910390f35b61045860048036038101906104539190611f96565b610d00565b6040516104659190611ef2565b60405180910390f35b610476610d24565b6040516104839190611ef2565b60405180910390f35b6104a660048036038101906104a19190611fed565b610d2a565b005b6104c260048036038101906104bd91906120fb565b610dd3565b6040516104cf9190611ef2565b60405180910390f35b60007f5a05180f000000000000000000000000000000000000000000000000000000007bffffffffffffffffffffffffffffffffffffffffffffffffffffffff1916827bffffffffffffffffffffffffffffffffffffffffffffffffffffffff1916148061054b575061054a82610e98565b5b9050919050565b6060600680546105619061216a565b80601f016020809104026020016040519081016040528092919081815260200182805461058d9061216a565b80156105da5780601f106105af576101008083540402835291602001916105da565b820191906000526020600020905b8154815290600101906020018083116105bd57829003601f168201915b5050505050905090565b60006105f86105f1610f12565b8484610f1a565b6001905092915050565b6000600554905090565b6000610616610f12565b73ffffffffffffffffffffffffffffffffffffffff168373ffffffffffffffffffffffffffffffffffffffff1603610683576040517f08c379a000000000000000000000000000000000000000000000000000000000815260040161067a9061220d565b60405180910390fd5b61068e8484846110e3565b6000600460008673ffffffffffffffffffffffffffffffffffffffff1673ffffffffffffffffffffffffffffffffffffffff16815260200190815260200160002060006106d9610f12565b73ffffffffffffffffffffffffffffffffffffffff1673ffffffffffffffffffffffffffffffffffffffff16815260200190815260200160002054905082811015610759576040517f08c379a00000000000000000000000000000000000000000000000000000000081526004016107509061229f565b60405180910390fd5b61076d85610765610f12565b858403610f1a565b60019150509392505050565b6000806000838152602001908152602001600020600101549050919050565b6107a282826113ad565b6107c78160016000858152602001908152602001600020610e6890919063ffffffff16565b505050565b60006008905090565b60006107eb6000801b6107e6610f12565b6109c7565b61082a576040517f08c379a00000000000000000000000000000000000000000000000000000000081526004016108219061230b565b60405180910390fd5b6108ca610835610f12565b848460046000610843610f12565b73ffffffffffffffffffffffffffffffffffffffff1673ffffffffffffffffffffffffffffffffffffffff16815260200190815260200160002060008873ffffffffffffffffffffffffffffffffffffffff1673ffffffffffffffffffffffffffffffffffffffff168152602001908152602001600020546108c5919061235a565b610f1a565b6001905092915050565b60006108ea6000801b6108e5610f12565b6109c7565b610929576040517f08c379a00000000000000000000000000000000000000000000000000000000081526004016109209061230b565b60405180910390fd5b6109316113d6565b6001905090565b6000600260009054906101000a900460ff16905090565b6000600360008373ffffffffffffffffffffffffffffffffffffffff1673ffffffffffffffffffffffffffffffffffffffff168152602001908152602001600020549050919050565b60006109bf826001600086815260200190815260200160002061147990919063ffffffff16565b905092915050565b600080600084815260200190815260200160002060000160008373ffffffffffffffffffffffffffffffffffffffff1673ffffffffffffffffffffffffffffffffffffffff16815260200190815260200160002060009054906101000a900460ff16905092915050565b606060078054610a409061216a565b80601f0160208091040260200160405190810160405280929190818152602001828054610a6c9061216a565b8015610ab95780601f10610a8e57610100808354040283529160200191610ab9565b820191906000526020600020905b815481529060010190602001808311610a9c57829003601f168201915b5050505050905090565b6000801b81565b6000610ae06000801b610adb610f12565b6109c7565b610b1f576040517f08c379a0000000000000000000000000000000000000000000000000000000008152600401610b169061230b565b60405180910390fd5b600060046000610b2d610f12565b73ffffffffffffffffffffffffffffffffffffffff1673ffffffffffffffffffffffffffffffffffffffff16815260200190815260200160002060008573ffffffffffffffffffffffffffffffffffffffff1673ffffffffffffffffffffffffffffffffffffffff16815260200190815260200160002054905082811015610bea576040517f08c379a0000000000000000000000000000000000000000000000000000000008152600401610be190612422565b60405180910390fd5b610bfe610bf5610f12565b85858403610f1a565b600191505092915050565b6000610c13610f12565b73ffffffffffffffffffffffffffffffffffffffff168373ffffffffffffffffffffffffffffffffffffffff1603610c80576040517f08c379a0000000000000000000000000000000000000000000000000000000008152600401610c779061220d565b60405180910390fd5b610c92610c8b610f12565b84846110e3565b6001905092915050565b6000610cb26000801b610cad610f12565b6109c7565b610cf1576040517f08c379a0000000000000000000000000000000000000000000000000000000008152600401610ce89061230b565b60405180910390fd5b610cf9611493565b6001905090565b6000610d1d60016000848152602001908152602001600020611535565b9050919050565b60085481565b610d32610f12565b73ffffffffffffffffffffffffffffffffffffffff168173ffffffffffffffffffffffffffffffffffffffff1603610d9f576040517f08c379a0000000000000000000000000000000000000000000000000000000008152600401610d96906124b4565b60405180910390fd5b610da9828261154a565b610dce816001600085815260200190815260200160002061157390919063ffffffff16565b505050565b6000600460008473ffffffffffffffffffffffffffffffffffffffff1673ffffffffffffffffffffffffffffffffffffffff16815260200190815260200160002060008373ffffffffffffffffffffffffffffffffffffffff1673ffffffffffffffffffffffffffffffffffffffff16815260200190815260200160002054905092915050565b610e6482826115a3565b5050565b6000610e90836000018373ffffffffffffffffffffffffffffffffffffffff1660001b611683565b905092915050565b60007f4f3351b5000000000000000000000000000000000000000000000000000000007bffffffffffffffffffffffffffffffffffffffffffffffffffffffff1916827bffffffffffffffffffffffffffffffffffffffffffffffffffffffff19161480610f0b5750610f0a826116f3565b5b9050919050565b600033905090565b600073ffffffffffffffffffffffffffffffffffffffff168373ffffffffffffffffffffffffffffffffffffffff1603610f89576040517f08c379a0000000000000000000000000000000000000000000000000000000008152600401610f8090612546565b60405180910390fd5b600073ffffffffffffffffffffffffffffffffffffffff168273ffffffffffffffffffffffffffffffffffffffff1603610ff8576040517f08c379a0000000000000000000000000000000000000000000000000000000008152600401610fef906125d8565b60405180910390fd5b80600460008573ffffffffffffffffffffffffffffffffffffffff1673ffffffffffffffffffffffffffffffffffffffff16815260200190815260200160002060008473ffffffffffffffffffffffffffffffffffffffff1673ffffffffffffffffffffffffffffffffffffffff168152602001908152602001600020819055508173ffffffffffffffffffffffffffffffffffffffff168373ffffffffffffffffffffffffffffffffffffffff167f8c5be1e5ebec7d5bd14f71427d1e84f3dd0314c0f7b2291e5b200ac8c7c3b925836040516110d69190611ef2565b60405180910390a3505050565b6110eb610938565b1561112b576040517f08c379a00000000000000000000000000000000000000000000000000000000081526004016111229061266a565b60405180910390fd5b600073ffffffffffffffffffffffffffffffffffffffff168373ffffffffffffffffffffffffffffffffffffffff160361119a576040517f08c379a0000000000000000000000000000000000000000000000000000000008152600401611191906126fc565b60405180910390fd5b600073ffffffffffffffffffffffffffffffffffffffff168273ffffffffffffffffffffffffffffffffffffffff1603611209576040517f08c379a00000000000000000000000000000000000000000000000000000000081526004016112009061278e565b60405180910390fd5b61121483838361175d565b6000600360008573ffffffffffffffffffffffffffffffffffffffff1673ffffffffffffffffffffffffffffffffffffffff1681526020019081526020016000205490508181101561129b576040517f08c379a000000000000000000000000000000000000000000000000000000000815260040161129290612820565b60405180910390fd5b818103600360008673ffffffffffffffffffffffffffffffffffffffff1673ffffffffffffffffffffffffffffffffffffffff1681526020019081526020016000208190555081600360008573ffffffffffffffffffffffffffffffffffffffff1673ffffffffffffffffffffffffffffffffffffffff1681526020019081526020016000206000828254611330919061235a565b925050819055508273ffffffffffffffffffffffffffffffffffffffff168473ffffffffffffffffffffffffffffffffffffffff167fddf252ad1be2c89b69c2b068fc378daa952ba7f163c4a11628f55a4df523b3ef846040516113949190611ef2565b60405180910390a36113a7848484611762565b50505050565b6113b682610779565b6113c7816113c2610f12565b611767565b6113d183836115a3565b505050565b6113de610938565b1561141e576040517f08c379a00000000000000000000000000000000000000000000000000000000081526004016114159061288c565b60405180910390fd5b6001600260006101000a81548160ff0219169083151502179055507f62e78cea01bee320cd4e420270b5ea74000d11b0c9f74754ebdbfc544b05a258611462610f12565b60405161146f91906120e0565b60405180910390a1565b60006114888360000183611804565b60001c905092915050565b61149b610938565b6114da576040517f08c379a00000000000000000000000000000000000000000000000000000000081526004016114d1906128f8565b60405180910390fd5b6000600260006101000a81548160ff0219169083151502179055507f5db9ee0a495bf2e6ff9c91a7834c1ba4fdd244a5e8aa4e537bd38aeae4b073aa61151e610f12565b60405161152b91906120e0565b60405180910390a1565b60006115438260000161182f565b9050919050565b61155382610779565b6115648161155f610f12565b611767565b61156e8383611840565b505050565b600061159b836000018373ffffffffffffffffffffffffffffffffffffffff1660001b611921565b905092915050565b6115ad82826109c7565b61167f57600160008084815260200190815260200160002060000160008373ffffffffffffffffffffffffffffffffffffffff1673ffffffffffffffffffffffffffffffffffffffff16815260200190815260200160002060006101000a81548160ff021916908315150217905550611624610f12565b73ffffffffffffffffffffffffffffffffffffffff168173ffffffffffffffffffffffffffffffffffffffff16837f2f8788117e7eff1d82e926ec794901d17c78024a50270940304540a733656f0d60405160405180910390a45b5050565b600061168f8383611a35565b6116e85782600001829080600181540180825580915050600190039060005260206000200160009091909190915055826000018054905083600101600084815260200190815260200160002081905550600190506116ed565b600090505b92915050565b60007f01ffc9a7000000000000000000000000000000000000000000000000000000007bffffffffffffffffffffffffffffffffffffffffffffffffffffffff1916827bffffffffffffffffffffffffffffffffffffffffffffffffffffffff1916149050919050565b505050565b505050565b61177182826109c7565b611800576117968173ffffffffffffffffffffffffffffffffffffffff166014611a58565b6117a48360001c6020611a58565b6040516020016117b59291906129ec565b6040516020818303038152906040526040517f08c379a00000000000000000000000000000000000000000000000000000000081526004016117f79190611ded565b60405180910390fd5b5050565b600082600001828154811061181c5761181b612a26565b5b9060005260206000200154905092915050565b600081600001805490509050919050565b61184a82826109c7565b1561191d57600080600084815260200190815260200160002060000160008373ffffffffffffffffffffffffffffffffffffffff1673ffffffffffffffffffffffffffffffffffffffff16815260200190815260200160002060006101000a81548160ff0219169083151502179055506118c2610f12565b73ffffffffffffffffffffffffffffffffffffffff168173ffffffffffffffffffffffffffffffffffffffff16837ff6391f5c32d9c69d2a47ea670b442974b53935d1edc7fd64eb21e047a839171b60405160405180910390a45b5050565b60008083600101600084815260200190815260200160002054905060008114611a295760006001826119539190612a55565b905060006001866000018054905061196b9190612a55565b90508181146119da57600086600001828154811061198c5761198b612a26565b5b90600052602060002001549050808760000184815481106119b0576119af612a26565b5b90600052602060002001819055508387600101600083815260200190815260200160002081905550505b856000018054806119ee576119ed612a89565b5b600190038181906000526020600020016000905590558560010160008681526020019081526020016000206000905560019350505050611a2f565b60009150505b92915050565b600080836001016000848152602001908152602001600020541415905092915050565b606060006002836002611a6b9190612ab8565b611a75919061235a565b67ffffffffffffffff811115611a8e57611a8d612b12565b5b6040519080825280601f01601f191660200182016040528015611ac05781602001600182028036833780820191505090505b5090507f300000000000000000000000000000000000000000000000000000000000000081600081518110611af857611af7612a26565b5b60200101907effffffffffffffffffffffffffffffffffffffffffffffffffffffffffffff1916908160001a9053507f780000000000000000000000000000000000000000000000000000000000000081600181518110611b5c57611b5b612a26565b5b60200101907effffffffffffffffffffffffffffffffffffffffffffffffffffffffffffff1916908160001a90535060006001846002611b9c9190612ab8565b611ba6919061235a565b90505b6001811115611c46577f3031323334353637383961626364656600000000000000000000000000000000600f861660108110611be857611be7612a26565b5b1a60f81b828281518110611bff57611bfe612a26565b5b60200101907effffffffffffffffffffffffffffffffffffffffffffffffffffffffffffff1916908160001a905350600485901c945080611c3f90612b41565b9050611ba9565b5060008414611c8a576040517f08c379a0000000000000000000000000000000000000000000000000000000008152600401611c8190612bb6565b60405180910390fd5b8091505092915050565b600080fd5b60007fffffffff0000000000000000000000000000000000000000000000000000000082169050919050565b611cce81611c99565b8114611cd957600080fd5b50565b600081359050611ceb81611cc5565b92915050565b600060208284031215611d0757611d06611c94565b5b6000611d1584828501611cdc565b91505092915050565b60008115159050919050565b611d3381611d1e565b82525050565b6000602082019050611d4e6000830184611d2a565b92915050565b600081519050919050565b600082825260208201905092915050565b60005b83811015611d8e578082015181840152602081019050611d73565b83811115611d9d576000848401525b50505050565b6000601f19601f8301169050919050565b6000611dbf82611d54565b611dc98185611d5f565b9350611dd9818560208601611d70565b611de281611da3565b840191505092915050565b60006020820190508181036000830152611e078184611db4565b905092915050565b600073ffffffffffffffffffffffffffffffffffffffff82169050919050565b6000611e3a82611e0f565b9050919050565b611e4a81611e2f565b8114611e5557600080fd5b50565b600081359050611e6781611e41565b92915050565b6000819050919050565b611e8081611e6d565b8114611e8b57600080fd5b50565b600081359050611e9d81611e77565b92915050565b60008060408385031215611eba57611eb9611c94565b5b6000611ec885828601611e58565b9250506020611ed985828601611e8e565b9150509250929050565b611eec81611e6d565b82525050565b6000602082019050611f076000830184611ee3565b92915050565b600080600060608486031215611f2657611f25611c94565b5b6000611f3486828701611e58565b9350506020611f4586828701611e58565b9250506040611f5686828701611e8e565b9150509250925092565b6000819050919050565b611f7381611f60565b8114611f7e57600080fd5b50565b600081359050611f9081611f6a565b92915050565b600060208284031215611fac57611fab611c94565b5b6000611fba84828501611f81565b91505092915050565b611fcc81611f60565b82525050565b6000602082019050611fe76000830184611fc3565b92915050565b6000806040838503121561200457612003611c94565b5b600061201285828601611f81565b925050602061202385828601611e58565b9150509250929050565b600060ff82169050919050565b6120438161202d565b82525050565b600060208201905061205e600083018461203a565b92915050565b60006020828403121561207a57612079611c94565b5b600061208884828501611e58565b91505092915050565b600080604083850312156120a8576120a7611c94565b5b60006120b685828601611f81565b92505060206120c785828601611e8e565b9150509250929050565b6120da81611e2f565b82525050565b60006020820190506120f560008301846120d1565b92915050565b6000806040838503121561211257612111611c94565b5b600061212085828601611e58565b925050602061213185828601611e58565b9150509250929050565b7f4e487b7100000000000000000000000000000000000000000000000000000000600052602260045260246000fd5b6000600282049050600182168061218257607f821691505b6020821081036121955761219461213b565b5b50919050565b7f45524332303a2063616c6c657220616e6420726563697069656e74206d75737460008201527f20626520646966666572656e7420616464726573732e00000000000000000000602082015250565b60006121f7603683611d5f565b91506122028261219b565b604082019050919050565b60006020820190508181036000830152612226816121ea565b9050919050565b7f45524332303a207472616e7366657220616d6f756e742065786365656473206160008201527f6c6c6f77616e6365000000000000000000000000000000000000000000000000602082015250565b6000612289602883611d5f565b91506122948261222d565b604082019050919050565b600060208201905081810360008301526122b88161227c565b9050919050565b7f45524332303a206d75737420686176652061646d696e20726f6c650000000000600082015250565b60006122f5601b83611d5f565b9150612300826122bf565b602082019050919050565b60006020820190508181036000830152612324816122e8565b9050919050565b7f4e487b7100000000000000000000000000000000000000000000000000000000600052601160045260246000fd5b600061236582611e6d565b915061237083611e6d565b9250827fffffffffffffffffffffffffffffffffffffffffffffffffffffffffffffffff038211156123a5576123a461232b565b5b828201905092915050565b7f45524332303a2064656372656173656420616c6c6f77616e63652062656c6f7760008201527f207a65726f000000000000000000000000000000000000000000000000000000602082015250565b600061240c602583611d5f565b9150612417826123b0565b604082019050919050565b6000602082019050818103600083015261243b816123ff565b9050919050565b7f45524332303a2063616c6c65722063616e206e6f74207265766f6b65206f776e60008201527f20616464726573732e0000000000000000000000000000000000000000000000602082015250565b600061249e602983611d5f565b91506124a982612442565b604082019050919050565b600060208201905081810360008301526124cd81612491565b9050919050565b7f45524332303a20617070726f76652066726f6d20746865207a65726f2061646460008201527f7265737300000000000000000000000000000000000000000000000000000000602082015250565b6000612530602483611d5f565b915061253b826124d4565b604082019050919050565b6000602082019050818103600083015261255f81612523565b9050919050565b7f45524332303a20617070726f766520746f20746865207a65726f20616464726560008201527f7373000000000000000000000000000000000000000000000000000000000000602082015250565b60006125c2602283611d5f565b91506125cd82612566565b604082019050919050565b600060208201905081810360008301526125f1816125b5565b9050919050565b7f45524332303a207472616e736665722066756e6374696f6e206973207061757360008201527f65642062792061646d696e2e0000000000000000000000000000000000000000602082015250565b6000612654602c83611d5f565b915061265f826125f8565b604082019050919050565b6000602082019050818103600083015261268381612647565b9050919050565b7f45524332303a207472616e736665722066726f6d20746865207a65726f20616460008201527f6472657373000000000000000000000000000000000000000000000000000000602082015250565b60006126e6602583611d5f565b91506126f18261268a565b604082019050919050565b60006020820190508181036000830152612715816126d9565b9050919050565b7f45524332303a207472616e7366657220746f20746865207a65726f206164647260008201527f6573730000000000000000000000000000000000000000000000000000000000602082015250565b6000612778602383611d5f565b91506127838261271c565b604082019050919050565b600060208201905081810360008301526127a78161276b565b9050919050565b7f45524332303a207472616e7366657220616d6f756e742065786365656473206260008201527f616c616e63650000000000000000000000000000000000000000000000000000602082015250565b600061280a602683611d5f565b9150612815826127ae565b604082019050919050565b60006020820190508181036000830152612839816127fd565b9050919050565b7f5061757361626c653a2070617573656400000000000000000000000000000000600082015250565b6000612876601083611d5f565b915061288182612840565b602082019050919050565b600060208201905081810360008301526128a581612869565b9050919050565b7f5061757361626c653a206e6f7420706175736564000000000000000000000000600082015250565b60006128e2601483611d5f565b91506128ed826128ac565b602082019050919050565b60006020820190508181036000830152612911816128d5565b9050919050565b600081905092915050565b7f416363657373436f6e74726f6c3a206163636f756e7420000000000000000000600082015250565b6000612959601783612918565b915061296482612923565b601782019050919050565b600061297a82611d54565b6129848185612918565b9350612994818560208601611d70565b80840191505092915050565b7f206973206d697373696e6720726f6c6520000000000000000000000000000000600082015250565b60006129d6601183612918565b91506129e1826129a0565b601182019050919050565b60006129f78261294c565b9150612a03828561296f565b9150612a0e826129c9565b9150612a1a828461296f565b91508190509392505050565b7f4e487b7100000000000000000000000000000000000000000000000000000000600052603260045260246000fd5b6000612a6082611e6d565b9150612a6b83611e6d565b925082821015612a7e57612a7d61232b565b5b828203905092915050565b7f4e487b7100000000000000000000000000000000000000000000000000000000600052603160045260246000fd5b6000612ac382611e6d565b9150612ace83611e6d565b9250817fffffffffffffffffffffffffffffffffffffffffffffffffffffffffffffffff0483118215151615612b0757612b0661232b565b5b828202905092915050565b7f4e487b7100000000000000000000000000000000000000000000000000000000600052604160045260246000fd5b6000612b4c82611e6d565b915060008203612b5f57612b5e61232b565b5b600182039050919050565b7f537472696e67733a20686578206c656e67746820696e73756666696369656e74600082015250565b6000612ba0602083611d5f565b9150612bab82612b6a565b602082019050919050565b60006020820190508181036000830152612bcf81612b93565b905091905056fea2646970667358221220113553d54462740a165ee89504e9ca7b44063a6cc06ba26d7b47f275c040a5da64736f6c634300080e0033",
					"opcodes": "PUSH1 0x80 PUSH1 0x40 MSTORE CALLVALUE DUP1 ISZERO PUSH3 0x11 JUMPI PUSH1 0x0 DUP1 REVERT JUMPDEST POP PUSH1 0x40 MLOAD PUSH3 0x3298 CODESIZE SUB DUP1 PUSH3 0x3298 DUP4 CODECOPY DUP2 DUP2 ADD PUSH1 0x40 MSTORE DUP2 ADD SWAP1 PUSH3 0x37 SWAP2 SWAP1 PUSH3 0x593 JUMP JUMPDEST PUSH1 0x0 PUSH1 0x2 PUSH1 0x0 PUSH2 0x100 EXP DUP2 SLOAD DUP2 PUSH1 0xFF MUL NOT AND SWAP1 DUP4 ISZERO ISZERO MUL OR SWAP1 SSTORE POP DUP2 PUSH1 0x6 SWAP1 DUP1 MLOAD SWAP1 PUSH1 0x20 ADD SWAP1 PUSH3 0x6A SWAP3 SWAP2 SWAP1 PUSH3 0x346 JUMP JUMPDEST POP DUP1 PUSH1 0x7 SWAP1 DUP1 MLOAD SWAP1 PUSH1 0x20 ADD SWAP1 PUSH3 0x83 SWAP3 SWAP2 SWAP1 PUSH3 0x346 JUMP JUMPDEST POP PUSH3 0xA8 PUSH1 0x0 DUP1 SHL PUSH3 0x9C PUSH3 0xB0 PUSH1 0x20 SHL PUSH1 0x20 SHR JUMP JUMPDEST PUSH3 0xB8 PUSH1 0x20 SHL PUSH1 0x20 SHR JUMP JUMPDEST POP POP PUSH3 0x67C JUMP JUMPDEST PUSH1 0x0 CALLER SWAP1 POP SWAP1 JUMP JUMPDEST PUSH3 0xCF DUP3 DUP3 PUSH3 0x100 PUSH1 0x20 SHL PUSH3 0xE5A OR PUSH1 0x20 SHR JUMP JUMPDEST PUSH3 0xFB DUP2 PUSH1 0x1 PUSH1 0x0 DUP6 DUP2 MSTORE PUSH1 0x20 ADD SWAP1 DUP2 MSTORE PUSH1 0x20 ADD PUSH1 0x0 KECCAK256 PUSH3 0x116 PUSH1 0x20 SHL PUSH3 0xE68 OR SWAP1 SWAP2 SWAP1 PUSH1 0x20 SHR JUMP JUMPDEST POP POP POP JUMP JUMPDEST PUSH3 0x112 DUP3 DUP3 PUSH3 0x14E PUSH1 0x20 SHL PUSH1 0x20 SHR JUMP JUMPDEST POP POP JUMP JUMPDEST PUSH1 0x0 PUSH3 0x146 DUP4 PUSH1 0x0 ADD DUP4 PUSH20 0xFFFFFFFFFFFFFFFFFFFFFFFFFFFFFFFFFFFFFFFF AND PUSH1 0x0 SHL PUSH3 0x23F PUSH1 0x20 SHL PUSH1 0x20 SHR JUMP JUMPDEST SWAP1 POP SWAP3 SWAP2 POP POP JUMP JUMPDEST PUSH3 0x160 DUP3 DUP3 PUSH3 0x2B9 PUSH1 0x20 SHL PUSH1 0x20 SHR JUMP JUMPDEST PUSH3 0x23B JUMPI PUSH1 0x1 PUSH1 0x0 DUP1 DUP5 DUP2 MSTORE PUSH1 0x20 ADD SWAP1 DUP2 MSTORE PUSH1 0x20 ADD PUSH1 0x0 KECCAK256 PUSH1 0x0 ADD PUSH1 0x0 DUP4 PUSH20 0xFFFFFFFFFFFFFFFFFFFFFFFFFFFFFFFFFFFFFFFF AND PUSH20 0xFFFFFFFFFFFFFFFFFFFFFFFFFFFFFFFFFFFFFFFF AND DUP2 MSTORE PUSH1 0x20 ADD SWAP1 DUP2 MSTORE PUSH1 0x20 ADD PUSH1 0x0 KECCAK256 PUSH1 0x0 PUSH2 0x100 EXP DUP2 SLOAD DUP2 PUSH1 0xFF MUL NOT AND SWAP1 DUP4 ISZERO ISZERO MUL OR SWAP1 SSTORE POP PUSH3 0x1E0 PUSH3 0xB0 PUSH1 0x20 SHL PUSH1 0x20 SHR JUMP JUMPDEST PUSH20 0xFFFFFFFFFFFFFFFFFFFFFFFFFFFFFFFFFFFFFFFF AND DUP2 PUSH20 0xFFFFFFFFFFFFFFFFFFFFFFFFFFFFFFFFFFFFFFFF AND DUP4 PUSH32 0x2F8788117E7EFF1D82E926EC794901D17C78024A50270940304540A733656F0D PUSH1 0x40 MLOAD PUSH1 0x40 MLOAD DUP1 SWAP2 SUB SWAP1 LOG4 JUMPDEST POP POP JUMP JUMPDEST PUSH1 0x0 PUSH3 0x253 DUP4 DUP4 PUSH3 0x323 PUSH1 0x20 SHL PUSH1 0x20 SHR JUMP JUMPDEST PUSH3 0x2AE JUMPI DUP3 PUSH1 0x0 ADD DUP3 SWAP1 DUP1 PUSH1 0x1 DUP2 SLOAD ADD DUP1 DUP3 SSTORE DUP1 SWAP2 POP POP PUSH1 0x1 SWAP1 SUB SWAP1 PUSH1 0x0 MSTORE PUSH1 0x20 PUSH1 0x0 KECCAK256 ADD PUSH1 0x0 SWAP1 SWAP2 SWAP1 SWAP2 SWAP1 SWAP2 POP SSTORE DUP3 PUSH1 0x0 ADD DUP1 SLOAD SWAP1 POP DUP4 PUSH1 0x1 ADD PUSH1 0x0 DUP5 DUP2 MSTORE PUSH1 0x20 ADD SWAP1 DUP2 MSTORE PUSH1 0x20 ADD PUSH1 0x0 KECCAK256 DUP2 SWAP1 SSTORE POP PUSH1 0x1 SWAP1 POP PUSH3 0x2B3 JUMP JUMPDEST PUSH1 0x0 SWAP1 POP JUMPDEST SWAP3 SWAP2 POP POP JUMP JUMPDEST PUSH1 0x0 DUP1 PUSH1 0x0 DUP5 DUP2 MSTORE PUSH1 0x20 ADD SWAP1 DUP2 MSTORE PUSH1 0x20 ADD PUSH1 0x0 KECCAK256 PUSH1 0x0 ADD PUSH1 0x0 DUP4 PUSH20 0xFFFFFFFFFFFFFFFFFFFFFFFFFFFFFFFFFFFFFFFF AND PUSH20 0xFFFFFFFFFFFFFFFFFFFFFFFFFFFFFFFFFFFFFFFF AND DUP2 MSTORE PUSH1 0x20 ADD SWAP1 DUP2 MSTORE PUSH1 0x20 ADD PUSH1 0x0 KECCAK256 PUSH1 0x0 SWAP1 SLOAD SWAP1 PUSH2 0x100 EXP SWAP1 DIV PUSH1 0xFF AND SWAP1 POP SWAP3 SWAP2 POP POP JUMP JUMPDEST PUSH1 0x0 DUP1 DUP4 PUSH1 0x1 ADD PUSH1 0x0 DUP5 DUP2 MSTORE PUSH1 0x20 ADD SWAP1 DUP2 MSTORE PUSH1 0x20 ADD PUSH1 0x0 KECCAK256 SLOAD EQ ISZERO SWAP1 POP SWAP3 SWAP2 POP POP JUMP JUMPDEST DUP3 DUP1 SLOAD PUSH3 0x354 SWAP1 PUSH3 0x647 JUMP JUMPDEST SWAP1 PUSH1 0x0 MSTORE PUSH1 0x20 PUSH1 0x0 KECCAK256 SWAP1 PUSH1 0x1F ADD PUSH1 0x20 SWAP1 DIV DUP2 ADD SWAP3 DUP3 PUSH3 0x378 JUMPI PUSH1 0x0 DUP6 SSTORE PUSH3 0x3C4 JUMP JUMPDEST DUP3 PUSH1 0x1F LT PUSH3 0x393 JUMPI DUP1 MLOAD PUSH1 0xFF NOT AND DUP4 DUP1 ADD OR DUP6 SSTORE PUSH3 0x3C4 JUMP JUMPDEST DUP3 DUP1 ADD PUSH1 0x1 ADD DUP6 SSTORE DUP3 ISZERO PUSH3 0x3C4 JUMPI SWAP2 DUP3 ADD JUMPDEST DUP3 DUP2 GT ISZERO PUSH3 0x3C3 JUMPI DUP3 MLOAD DUP3 SSTORE SWAP2 PUSH1 0x20 ADD SWAP2 SWAP1 PUSH1 0x1 ADD SWAP1 PUSH3 0x3A6 JUMP JUMPDEST JUMPDEST POP SWAP1 POP PUSH3 0x3D3 SWAP2 SWAP1 PUSH3 0x3D7 JUMP JUMPDEST POP SWAP1 JUMP JUMPDEST JUMPDEST DUP1 DUP3 GT ISZERO PUSH3 0x3F2 JUMPI PUSH1 0x0 DUP2 PUSH1 0x0 SWAP1 SSTORE POP PUSH1 0x1 ADD PUSH3 0x3D8 JUMP JUMPDEST POP SWAP1 JUMP JUMPDEST PUSH1 0x0 PUSH1 0x40 MLOAD SWAP1 POP SWAP1 JUMP JUMPDEST PUSH1 0x0 DUP1 REVERT JUMPDEST PUSH1 0x0 DUP1 REVERT JUMPDEST PUSH1 0x0 DUP1 REVERT JUMPDEST PUSH1 0x0 DUP1 REVERT JUMPDEST PUSH1 0x0 PUSH1 0x1F NOT PUSH1 0x1F DUP4 ADD AND SWAP1 POP SWAP2 SWAP1 POP JUMP JUMPDEST PUSH32 0x4E487B7100000000000000000000000000000000000000000000000000000000 PUSH1 0x0 MSTORE PUSH1 0x41 PUSH1 0x4 MSTORE PUSH1 0x24 PUSH1 0x0 REVERT JUMPDEST PUSH3 0x45F DUP3 PUSH3 0x414 JUMP JUMPDEST DUP2 ADD DUP2 DUP2 LT PUSH8 0xFFFFFFFFFFFFFFFF DUP3 GT OR ISZERO PUSH3 0x481 JUMPI PUSH3 0x480 PUSH3 0x425 JUMP JUMPDEST JUMPDEST DUP1 PUSH1 0x40 MSTORE POP POP POP JUMP JUMPDEST PUSH1 0x0 PUSH3 0x496 PUSH3 0x3F6 JUMP JUMPDEST SWAP1 POP PUSH3 0x4A4 DUP3 DUP3 PUSH3 0x454 JUMP JUMPDEST SWAP2 SWAP1 POP JUMP JUMPDEST PUSH1 0x0 PUSH8 0xFFFFFFFFFFFFFFFF DUP3 GT ISZERO PUSH3 0x4C7 JUMPI PUSH3 0x4C6 PUSH3 0x425 JUMP JUMPDEST JUMPDEST PUSH3 0x4D2 DUP3 PUSH3 0x414 JUMP JUMPDEST SWAP1 POP PUSH1 0x20 DUP2 ADD SWAP1 POP SWAP2 SWAP1 POP JUMP JUMPDEST PUSH1 0x0 JUMPDEST DUP4 DUP2 LT ISZERO PUSH3 0x4FF JUMPI DUP1 DUP3 ADD MLOAD DUP2 DUP5 ADD MSTORE PUSH1 0x20 DUP2 ADD SWAP1 POP PUSH3 0x4E2 JUMP JUMPDEST DUP4 DUP2 GT ISZERO PUSH3 0x50F JUMPI PUSH1 0x0 DUP5 DUP5 ADD MSTORE JUMPDEST POP POP POP POP JUMP JUMPDEST PUSH1 0x0 PUSH3 0x52C PUSH3 0x526 DUP5 PUSH3 0x4A9 JUMP JUMPDEST PUSH3 0x48A JUMP JUMPDEST SWAP1 POP DUP3 DUP2 MSTORE PUSH1 0x20 DUP2 ADD DUP5 DUP5 DUP5 ADD GT ISZERO PUSH3 0x54B JUMPI PUSH3 0x54A PUSH3 0x40F JUMP JUMPDEST JUMPDEST PUSH3 0x558 DUP5 DUP3 DUP6 PUSH3 0x4DF JUMP JUMPDEST POP SWAP4 SWAP3 POP POP POP JUMP JUMPDEST PUSH1 0x0 DUP3 PUSH1 0x1F DUP4 ADD SLT PUSH3 0x578 JUMPI PUSH3 0x577 PUSH3 0x40A JUMP JUMPDEST JUMPDEST DUP2 MLOAD PUSH3 0x58A DUP5 DUP3 PUSH1 0x20 DUP7 ADD PUSH3 0x515 JUMP JUMPDEST SWAP2 POP POP SWAP3 SWAP2 POP POP JUMP JUMPDEST PUSH1 0x0 DUP1 PUSH1 0x40 DUP4 DUP6 SUB SLT ISZERO PUSH3 0x5AD JUMPI PUSH3 0x5AC PUSH3 0x400 JUMP JUMPDEST JUMPDEST PUSH1 0x0 DUP4 ADD MLOAD PUSH8 0xFFFFFFFFFFFFFFFF DUP2 GT ISZERO PUSH3 0x5CE JUMPI PUSH3 0x5CD PUSH3 0x405 JUMP JUMPDEST JUMPDEST PUSH3 0x5DC DUP6 DUP3 DUP7 ADD PUSH3 0x560 JUMP JUMPDEST SWAP3 POP POP PUSH1 0x20 DUP4 ADD MLOAD PUSH8 0xFFFFFFFFFFFFFFFF DUP2 GT ISZERO PUSH3 0x600 JUMPI PUSH3 0x5FF PUSH3 0x405 JUMP JUMPDEST JUMPDEST PUSH3 0x60E DUP6 DUP3 DUP7 ADD PUSH3 0x560 JUMP JUMPDEST SWAP2 POP POP SWAP3 POP SWAP3 SWAP1 POP JUMP JUMPDEST PUSH32 0x4E487B7100000000000000000000000000000000000000000000000000000000 PUSH1 0x0 MSTORE PUSH1 0x22 PUSH1 0x4 MSTORE PUSH1 0x24 PUSH1 0x0 REVERT JUMPDEST PUSH1 0x0 PUSH1 0x2 DUP3 DIV SWAP1 POP PUSH1 0x1 DUP3 AND DUP1 PUSH3 0x660 JUMPI PUSH1 0x7F DUP3 AND SWAP2 POP JUMPDEST PUSH1 0x20 DUP3 LT DUP2 SUB PUSH3 0x676 JUMPI PUSH3 0x675 PUSH3 0x618 JUMP JUMPDEST JUMPDEST POP SWAP2 SWAP1 POP JUMP JUMPDEST PUSH2 0x2C0C DUP1 PUSH3 0x68C PUSH1 0x0 CODECOPY PUSH1 0x0 RETURN INVALID PUSH1 0x80 PUSH1 0x40 MSTORE CALLVALUE DUP1 ISZERO PUSH2 0x10 JUMPI PUSH1 0x0 DUP1 REVERT JUMPDEST POP PUSH1 0x4 CALLDATASIZE LT PUSH2 0x14D JUMPI PUSH1 0x0 CALLDATALOAD PUSH1 0xE0 SHR DUP1 PUSH4 0x70A08231 GT PUSH2 0xC3 JUMPI DUP1 PUSH4 0xA9059CBB GT PUSH2 0x7C JUMPI DUP1 PUSH4 0xA9059CBB EQ PUSH2 0x3F0 JUMPI DUP1 PUSH4 0xC6E858FE EQ PUSH2 0x420 JUMPI DUP1 PUSH4 0xCA15C873 EQ PUSH2 0x43E JUMPI DUP1 PUSH4 0xD0BBB0D7 EQ PUSH2 0x46E JUMPI DUP1 PUSH4 0xD547741F EQ PUSH2 0x48C JUMPI DUP1 PUSH4 0xDD62ED3E EQ PUSH2 0x4A8 JUMPI PUSH2 0x14D JUMP JUMPDEST DUP1 PUSH4 0x70A08231 EQ PUSH2 0x2F4 JUMPI DUP1 PUSH4 0x9010D07C EQ PUSH2 0x324 JUMPI DUP1 PUSH4 0x91D14854 EQ PUSH2 0x354 JUMPI DUP1 PUSH4 0x95D89B41 EQ PUSH2 0x384 JUMPI DUP1 PUSH4 0xA217FDDF EQ PUSH2 0x3A2 JUMPI DUP1 PUSH4 0xA457C2D7 EQ PUSH2 0x3C0 JUMPI PUSH2 0x14D JUMP JUMPDEST DUP1 PUSH4 0x248A9CA3 GT PUSH2 0x115 JUMPI DUP1 PUSH4 0x248A9CA3 EQ PUSH2 0x21E JUMPI DUP1 PUSH4 0x2F2FF15D EQ PUSH2 0x24E JUMPI DUP1 PUSH4 0x313CE567 EQ PUSH2 0x26A JUMPI DUP1 PUSH4 0x39509351 EQ PUSH2 0x288 JUMPI DUP1 PUSH4 0x5394A892 EQ PUSH2 0x2B8 JUMPI DUP1 PUSH4 0x5C975ABB EQ PUSH2 0x2D6 JUMPI PUSH2 0x14D JUMP JUMPDEST DUP1 PUSH4 0x1FFC9A7 EQ PUSH2 0x152 JUMPI DUP1 PUSH4 0x6FDDE03 EQ PUSH2 0x182 JUMPI DUP1 PUSH4 0x95EA7B3 EQ PUSH2 0x1A0 JUMPI DUP1 PUSH4 0x18160DDD EQ PUSH2 0x1D0 JUMPI DUP1 PUSH4 0x23B872DD EQ PUSH2 0x1EE JUMPI JUMPDEST PUSH1 0x0 DUP1 REVERT JUMPDEST PUSH2 0x16C PUSH1 0x4 DUP1 CALLDATASIZE SUB DUP2 ADD SWAP1 PUSH2 0x167 SWAP2 SWAP1 PUSH2 0x1CF1 JUMP JUMPDEST PUSH2 0x4D8 JUMP JUMPDEST PUSH1 0x40 MLOAD PUSH2 0x179 SWAP2 SWAP1 PUSH2 0x1D39 JUMP JUMPDEST PUSH1 0x40 MLOAD DUP1 SWAP2 SUB SWAP1 RETURN JUMPDEST PUSH2 0x18A PUSH2 0x552 JUMP JUMPDEST PUSH1 0x40 MLOAD PUSH2 0x197 SWAP2 SWAP1 PUSH2 0x1DED JUMP JUMPDEST PUSH1 0x40 MLOAD DUP1 SWAP2 SUB SWAP1 RETURN JUMPDEST PUSH2 0x1BA PUSH1 0x4 DUP1 CALLDATASIZE SUB DUP2 ADD SWAP1 PUSH2 0x1B5 SWAP2 SWAP1 PUSH2 0x1EA3 JUMP JUMPDEST PUSH2 0x5E4 JUMP JUMPDEST PUSH1 0x40 MLOAD PUSH2 0x1C7 SWAP2 SWAP1 PUSH2 0x1D39 JUMP JUMPDEST PUSH1 0x40 MLOAD DUP1 SWAP2 SUB SWAP1 RETURN JUMPDEST PUSH2 0x1D8 PUSH2 0x602 JUMP JUMPDEST PUSH1 0x40 MLOAD PUSH2 0x1E5 SWAP2 SWAP1 PUSH2 0x1EF2 JUMP JUMPDEST PUSH1 0x40 MLOAD DUP1 SWAP2 SUB SWAP1 RETURN JUMPDEST PUSH2 0x208 PUSH1 0x4 DUP1 CALLDATASIZE SUB DUP2 ADD SWAP1 PUSH2 0x203 SWAP2 SWAP1 PUSH2 0x1F0D JUMP JUMPDEST PUSH2 0x60C JUMP JUMPDEST PUSH1 0x40 MLOAD PUSH2 0x215 SWAP2 SWAP1 PUSH2 0x1D39 JUMP JUMPDEST PUSH1 0x40 MLOAD DUP1 SWAP2 SUB SWAP1 RETURN JUMPDEST PUSH2 0x238 PUSH1 0x4 DUP1 CALLDATASIZE SUB DUP2 ADD SWAP1 PUSH2 0x233 SWAP2 SWAP1 PUSH2 0x1F96 JUMP JUMPDEST PUSH2 0x779 JUMP JUMPDEST PUSH1 0x40 MLOAD PUSH2 0x245 SWAP2 SWAP1 PUSH2 0x1FD2 JUMP JUMPDEST PUSH1 0x40 MLOAD DUP1 SWAP2 SUB SWAP1 RETURN JUMPDEST PUSH2 0x268 PUSH1 0x4 DUP1 CALLDATASIZE SUB DUP2 ADD SWAP1 PUSH2 0x263 SWAP2 SWAP1 PUSH2 0x1FED JUMP JUMPDEST PUSH2 0x798 JUMP JUMPDEST STOP JUMPDEST PUSH2 0x272 PUSH2 0x7CC JUMP JUMPDEST PUSH1 0x40 MLOAD PUSH2 0x27F SWAP2 SWAP1 PUSH2 0x2049 JUMP JUMPDEST PUSH1 0x40 MLOAD DUP1 SWAP2 SUB SWAP1 RETURN JUMPDEST PUSH2 0x2A2 PUSH1 0x4 DUP1 CALLDATASIZE SUB DUP2 ADD SWAP1 PUSH2 0x29D SWAP2 SWAP1 PUSH2 0x1EA3 JUMP JUMPDEST PUSH2 0x7D5 JUMP JUMPDEST PUSH1 0x40 MLOAD PUSH2 0x2AF SWAP2 SWAP1 PUSH2 0x1D39 JUMP JUMPDEST PUSH1 0x40 MLOAD DUP1 SWAP2 SUB SWAP1 RETURN JUMPDEST PUSH2 0x2C0 PUSH2 0x8D4 JUMP JUMPDEST PUSH1 0x40 MLOAD PUSH2 0x2CD SWAP2 SWAP1 PUSH2 0x1D39 JUMP JUMPDEST PUSH1 0x40 MLOAD DUP1 SWAP2 SUB SWAP1 RETURN JUMPDEST PUSH2 0x2DE PUSH2 0x938 JUMP JUMPDEST PUSH1 0x40 MLOAD PUSH2 0x2EB SWAP2 SWAP1 PUSH2 0x1D39 JUMP JUMPDEST PUSH1 0x40 MLOAD DUP1 SWAP2 SUB SWAP1 RETURN JUMPDEST PUSH2 0x30E PUSH1 0x4 DUP1 CALLDATASIZE SUB DUP2 ADD SWAP1 PUSH2 0x309 SWAP2 SWAP1 PUSH2 0x2064 JUMP JUMPDEST PUSH2 0x94F JUMP JUMPDEST PUSH1 0x40 MLOAD PUSH2 0x31B SWAP2 SWAP1 PUSH2 0x1EF2 JUMP JUMPDEST PUSH1 0x40 MLOAD DUP1 SWAP2 SUB SWAP1 RETURN JUMPDEST PUSH2 0x33E PUSH1 0x4 DUP1 CALLDATASIZE SUB DUP2 ADD SWAP1 PUSH2 0x339 SWAP2 SWAP1 PUSH2 0x2091 JUMP JUMPDEST PUSH2 0x998 JUMP JUMPDEST PUSH1 0x40 MLOAD PUSH2 0x34B SWAP2 SWAP1 PUSH2 0x20E0 JUMP JUMPDEST PUSH1 0x40 MLOAD DUP1 SWAP2 SUB SWAP1 RETURN JUMPDEST PUSH2 0x36E PUSH1 0x4 DUP1 CALLDATASIZE SUB DUP2 ADD SWAP1 PUSH2 0x369 SWAP2 SWAP1 PUSH2 0x1FED JUMP JUMPDEST PUSH2 0x9C7 JUMP JUMPDEST PUSH1 0x40 MLOAD PUSH2 0x37B SWAP2 SWAP1 PUSH2 0x1D39 JUMP JUMPDEST PUSH1 0x40 MLOAD DUP1 SWAP2 SUB SWAP1 RETURN JUMPDEST PUSH2 0x38C PUSH2 0xA31 JUMP JUMPDEST PUSH1 0x40 MLOAD PUSH2 0x399 SWAP2 SWAP1 PUSH2 0x1DED JUMP JUMPDEST PUSH1 0x40 MLOAD DUP1 SWAP2 SUB SWAP1 RETURN JUMPDEST PUSH2 0x3AA PUSH2 0xAC3 JUMP JUMPDEST PUSH1 0x40 MLOAD PUSH2 0x3B7 SWAP2 SWAP1 PUSH2 0x1FD2 JUMP JUMPDEST PUSH1 0x40 MLOAD DUP1 SWAP2 SUB SWAP1 RETURN JUMPDEST PUSH2 0x3DA PUSH1 0x4 DUP1 CALLDATASIZE SUB DUP2 ADD SWAP1 PUSH2 0x3D5 SWAP2 SWAP1 PUSH2 0x1EA3 JUMP JUMPDEST PUSH2 0xACA JUMP JUMPDEST PUSH1 0x40 MLOAD PUSH2 0x3E7 SWAP2 SWAP1 PUSH2 0x1D39 JUMP JUMPDEST PUSH1 0x40 MLOAD DUP1 SWAP2 SUB SWAP1 RETURN JUMPDEST PUSH2 0x40A PUSH1 0x4 DUP1 CALLDATASIZE SUB DUP2 ADD SWAP1 PUSH2 0x405 SWAP2 SWAP1 PUSH2 0x1EA3 JUMP JUMPDEST PUSH2 0xC09 JUMP JUMPDEST PUSH1 0x40 MLOAD PUSH2 0x417 SWAP2 SWAP1 PUSH2 0x1D39 JUMP JUMPDEST PUSH1 0x40 MLOAD DUP1 SWAP2 SUB SWAP1 RETURN JUMPDEST PUSH2 0x428 PUSH2 0xC9C JUMP JUMPDEST PUSH1 0x40 MLOAD PUSH2 0x435 SWAP2 SWAP1 PUSH2 0x1D39 JUMP JUMPDEST PUSH1 0x40 MLOAD DUP1 SWAP2 SUB SWAP1 RETURN JUMPDEST PUSH2 0x458 PUSH1 0x4 DUP1 CALLDATASIZE SUB DUP2 ADD SWAP1 PUSH2 0x453 SWAP2 SWAP1 PUSH2 0x1F96 JUMP JUMPDEST PUSH2 0xD00 JUMP JUMPDEST PUSH1 0x40 MLOAD PUSH2 0x465 SWAP2 SWAP1 PUSH2 0x1EF2 JUMP JUMPDEST PUSH1 0x40 MLOAD DUP1 SWAP2 SUB SWAP1 RETURN JUMPDEST PUSH2 0x476 PUSH2 0xD24 JUMP JUMPDEST PUSH1 0x40 MLOAD PUSH2 0x483 SWAP2 SWAP1 PUSH2 0x1EF2 JUMP JUMPDEST PUSH1 0x40 MLOAD DUP1 SWAP2 SUB SWAP1 RETURN JUMPDEST PUSH2 0x4A6 PUSH1 0x4 DUP1 CALLDATASIZE SUB DUP2 ADD SWAP1 PUSH2 0x4A1 SWAP2 SWAP1 PUSH2 0x1FED JUMP JUMPDEST PUSH2 0xD2A JUMP JUMPDEST STOP JUMPDEST PUSH2 0x4C2 PUSH1 0x4 DUP1 CALLDATASIZE SUB DUP2 ADD SWAP1 PUSH2 0x4BD SWAP2 SWAP1 PUSH2 0x20FB JUMP JUMPDEST PUSH2 0xDD3 JUMP JUMPDEST PUSH1 0x40 MLOAD PUSH2 0x4CF SWAP2 SWAP1 PUSH2 0x1EF2 JUMP JUMPDEST PUSH1 0x40 MLOAD DUP1 SWAP2 SUB SWAP1 RETURN JUMPDEST PUSH1 0x0 PUSH32 0x5A05180F00000000000000000000000000000000000000000000000000000000 PUSH28 0xFFFFFFFFFFFFFFFFFFFFFFFFFFFFFFFFFFFFFFFFFFFFFFFFFFFFFFFF NOT AND DUP3 PUSH28 0xFFFFFFFFFFFFFFFFFFFFFFFFFFFFFFFFFFFFFFFFFFFFFFFFFFFFFFFF NOT AND EQ DUP1 PUSH2 0x54B JUMPI POP PUSH2 0x54A DUP3 PUSH2 0xE98 JUMP JUMPDEST JUMPDEST SWAP1 POP SWAP2 SWAP1 POP JUMP JUMPDEST PUSH1 0x60 PUSH1 0x6 DUP1 SLOAD PUSH2 0x561 SWAP1 PUSH2 0x216A JUMP JUMPDEST DUP1 PUSH1 0x1F ADD PUSH1 0x20 DUP1 SWAP2 DIV MUL PUSH1 0x20 ADD PUSH1 0x40 MLOAD SWAP1 DUP2 ADD PUSH1 0x40 MSTORE DUP1 SWAP3 SWAP2 SWAP1 DUP2 DUP2 MSTORE PUSH1 0x20 ADD DUP3 DUP1 SLOAD PUSH2 0x58D SWAP1 PUSH2 0x216A JUMP JUMPDEST DUP1 ISZERO PUSH2 0x5DA JUMPI DUP1 PUSH1 0x1F LT PUSH2 0x5AF JUMPI PUSH2 0x100 DUP1 DUP4 SLOAD DIV MUL DUP4 MSTORE SWAP2 PUSH1 0x20 ADD SWAP2 PUSH2 0x5DA JUMP JUMPDEST DUP3 ADD SWAP2 SWAP1 PUSH1 0x0 MSTORE PUSH1 0x20 PUSH1 0x0 KECCAK256 SWAP1 JUMPDEST DUP2 SLOAD DUP2 MSTORE SWAP1 PUSH1 0x1 ADD SWAP1 PUSH1 0x20 ADD DUP1 DUP4 GT PUSH2 0x5BD JUMPI DUP3 SWAP1 SUB PUSH1 0x1F AND DUP3 ADD SWAP2 JUMPDEST POP POP POP POP POP SWAP1 POP SWAP1 JUMP JUMPDEST PUSH1 0x0 PUSH2 0x5F8 PUSH2 0x5F1 PUSH2 0xF12 JUMP JUMPDEST DUP5 DUP5 PUSH2 0xF1A JUMP JUMPDEST PUSH1 0x1 SWAP1 POP SWAP3 SWAP2 POP POP JUMP JUMPDEST PUSH1 0x0 PUSH1 0x5 SLOAD SWAP1 POP SWAP1 JUMP JUMPDEST PUSH1 0x0 PUSH2 0x616 PUSH2 0xF12 JUMP JUMPDEST PUSH20 0xFFFFFFFFFFFFFFFFFFFFFFFFFFFFFFFFFFFFFFFF AND DUP4 PUSH20 0xFFFFFFFFFFFFFFFFFFFFFFFFFFFFFFFFFFFFFFFF AND SUB PUSH2 0x683 JUMPI PUSH1 0x40 MLOAD PUSH32 0x8C379A000000000000000000000000000000000000000000000000000000000 DUP2 MSTORE PUSH1 0x4 ADD PUSH2 0x67A SWAP1 PUSH2 0x220D JUMP JUMPDEST PUSH1 0x40 MLOAD DUP1 SWAP2 SUB SWAP1 REVERT JUMPDEST PUSH2 0x68E DUP5 DUP5 DUP5 PUSH2 0x10E3 JUMP JUMPDEST PUSH1 0x0 PUSH1 0x4 PUSH1 0x0 DUP7 PUSH20 0xFFFFFFFFFFFFFFFFFFFFFFFFFFFFFFFFFFFFFFFF AND PUSH20 0xFFFFFFFFFFFFFFFFFFFFFFFFFFFFFFFFFFFFFFFF AND DUP2 MSTORE PUSH1 0x20 ADD SWAP1 DUP2 MSTORE PUSH1 0x20 ADD PUSH1 0x0 KECCAK256 PUSH1 0x0 PUSH2 0x6D9 PUSH2 0xF12 JUMP JUMPDEST PUSH20 0xFFFFFFFFFFFFFFFFFFFFFFFFFFFFFFFFFFFFFFFF AND PUSH20 0xFFFFFFFFFFFFFFFFFFFFFFFFFFFFFFFFFFFFFFFF AND DUP2 MSTORE PUSH1 0x20 ADD SWAP1 DUP2 MSTORE PUSH1 0x20 ADD PUSH1 0x0 KECCAK256 SLOAD SWAP1 POP DUP3 DUP2 LT ISZERO PUSH2 0x759 JUMPI PUSH1 0x40 MLOAD PUSH32 0x8C379A000000000000000000000000000000000000000000000000000000000 DUP2 MSTORE PUSH1 0x4 ADD PUSH2 0x750 SWAP1 PUSH2 0x229F JUMP JUMPDEST PUSH1 0x40 MLOAD DUP1 SWAP2 SUB SWAP1 REVERT JUMPDEST PUSH2 0x76D DUP6 PUSH2 0x765 PUSH2 0xF12 JUMP JUMPDEST DUP6 DUP5 SUB PUSH2 0xF1A JUMP JUMPDEST PUSH1 0x1 SWAP2 POP POP SWAP4 SWAP3 POP POP POP JUMP JUMPDEST PUSH1 0x0 DUP1 PUSH1 0x0 DUP4 DUP2 MSTORE PUSH1 0x20 ADD SWAP1 DUP2 MSTORE PUSH1 0x20 ADD PUSH1 0x0 KECCAK256 PUSH1 0x1 ADD SLOAD SWAP1 POP SWAP2 SWAP1 POP JUMP JUMPDEST PUSH2 0x7A2 DUP3 DUP3 PUSH2 0x13AD JUMP JUMPDEST PUSH2 0x7C7 DUP2 PUSH1 0x1 PUSH1 0x0 DUP6 DUP2 MSTORE PUSH1 0x20 ADD SWAP1 DUP2 MSTORE PUSH1 0x20 ADD PUSH1 0x0 KECCAK256 PUSH2 0xE68 SWAP1 SWAP2 SWAP1 PUSH4 0xFFFFFFFF AND JUMP JUMPDEST POP POP POP JUMP JUMPDEST PUSH1 0x0 PUSH1 0x8 SWAP1 POP SWAP1 JUMP JUMPDEST PUSH1 0x0 PUSH2 0x7EB PUSH1 0x0 DUP1 SHL PUSH2 0x7E6 PUSH2 0xF12 JUMP JUMPDEST PUSH2 0x9C7 JUMP JUMPDEST PUSH2 0x82A JUMPI PUSH1 0x40 MLOAD PUSH32 0x8C379A000000000000000000000000000000000000000000000000000000000 DUP2 MSTORE PUSH1 0x4 ADD PUSH2 0x821 SWAP1 PUSH2 0x230B JUMP JUMPDEST PUSH1 0x40 MLOAD DUP1 SWAP2 SUB SWAP1 REVERT JUMPDEST PUSH2 0x8CA PUSH2 0x835 PUSH2 0xF12 JUMP JUMPDEST DUP5 DUP5 PUSH1 0x4 PUSH1 0x0 PUSH2 0x843 PUSH2 0xF12 JUMP JUMPDEST PUSH20 0xFFFFFFFFFFFFFFFFFFFFFFFFFFFFFFFFFFFFFFFF AND PUSH20 0xFFFFFFFFFFFFFFFFFFFFFFFFFFFFFFFFFFFFFFFF AND DUP2 MSTORE PUSH1 0x20 ADD SWAP1 DUP2 MSTORE PUSH1 0x20 ADD PUSH1 0x0 KECCAK256 PUSH1 0x0 DUP9 PUSH20 0xFFFFFFFFFFFFFFFFFFFFFFFFFFFFFFFFFFFFFFFF AND PUSH20 0xFFFFFFFFFFFFFFFFFFFFFFFFFFFFFFFFFFFFFFFF AND DUP2 MSTORE PUSH1 0x20 ADD SWAP1 DUP2 MSTORE PUSH1 0x20 ADD PUSH1 0x0 KECCAK256 SLOAD PUSH2 0x8C5 SWAP2 SWAP1 PUSH2 0x235A JUMP JUMPDEST PUSH2 0xF1A JUMP JUMPDEST PUSH1 0x1 SWAP1 POP SWAP3 SWAP2 POP POP JUMP JUMPDEST PUSH1 0x0 PUSH2 0x8EA PUSH1 0x0 DUP1 SHL PUSH2 0x8E5 PUSH2 0xF12 JUMP JUMPDEST PUSH2 0x9C7 JUMP JUMPDEST PUSH2 0x929 JUMPI PUSH1 0x40 MLOAD PUSH32 0x8C379A000000000000000000000000000000000000000000000000000000000 DUP2 MSTORE PUSH1 0x4 ADD PUSH2 0x920 SWAP1 PUSH2 0x230B JUMP JUMPDEST PUSH1 0x40 MLOAD DUP1 SWAP2 SUB SWAP1 REVERT JUMPDEST PUSH2 0x931 PUSH2 0x13D6 JUMP JUMPDEST PUSH1 0x1 SWAP1 POP SWAP1 JUMP JUMPDEST PUSH1 0x0 PUSH1 0x2 PUSH1 0x0 SWAP1 SLOAD SWAP1 PUSH2 0x100 EXP SWAP1 DIV PUSH1 0xFF AND SWAP1 POP SWAP1 JUMP JUMPDEST PUSH1 0x0 PUSH1 0x3 PUSH1 0x0 DUP4 PUSH20 0xFFFFFFFFFFFFFFFFFFFFFFFFFFFFFFFFFFFFFFFF AND PUSH20 0xFFFFFFFFFFFFFFFFFFFFFFFFFFFFFFFFFFFFFFFF AND DUP2 MSTORE PUSH1 0x20 ADD SWAP1 DUP2 MSTORE PUSH1 0x20 ADD PUSH1 0x0 KECCAK256 SLOAD SWAP1 POP SWAP2 SWAP1 POP JUMP JUMPDEST PUSH1 0x0 PUSH2 0x9BF DUP3 PUSH1 0x1 PUSH1 0x0 DUP7 DUP2 MSTORE PUSH1 0x20 ADD SWAP1 DUP2 MSTORE PUSH1 0x20 ADD PUSH1 0x0 KECCAK256 PUSH2 0x1479 SWAP1 SWAP2 SWAP1 PUSH4 0xFFFFFFFF AND JUMP JUMPDEST SWAP1 POP SWAP3 SWAP2 POP POP JUMP JUMPDEST PUSH1 0x0 DUP1 PUSH1 0x0 DUP5 DUP2 MSTORE PUSH1 0x20 ADD SWAP1 DUP2 MSTORE PUSH1 0x20 ADD PUSH1 0x0 KECCAK256 PUSH1 0x0 ADD PUSH1 0x0 DUP4 PUSH20 0xFFFFFFFFFFFFFFFFFFFFFFFFFFFFFFFFFFFFFFFF AND PUSH20 0xFFFFFFFFFFFFFFFFFFFFFFFFFFFFFFFFFFFFFFFF AND DUP2 MSTORE PUSH1 0x20 ADD SWAP1 DUP2 MSTORE PUSH1 0x20 ADD PUSH1 0x0 KECCAK256 PUSH1 0x0 SWAP1 SLOAD SWAP1 PUSH2 0x100 EXP SWAP1 DIV PUSH1 0xFF AND SWAP1 POP SWAP3 SWAP2 POP POP JUMP JUMPDEST PUSH1 0x60 PUSH1 0x7 DUP1 SLOAD PUSH2 0xA40 SWAP1 PUSH2 0x216A JUMP JUMPDEST DUP1 PUSH1 0x1F ADD PUSH1 0x20 DUP1 SWAP2 DIV MUL PUSH1 0x20 ADD PUSH1 0x40 MLOAD SWAP1 DUP2 ADD PUSH1 0x40 MSTORE DUP1 SWAP3 SWAP2 SWAP1 DUP2 DUP2 MSTORE PUSH1 0x20 ADD DUP3 DUP1 SLOAD PUSH2 0xA6C SWAP1 PUSH2 0x216A JUMP JUMPDEST DUP1 ISZERO PUSH2 0xAB9 JUMPI DUP1 PUSH1 0x1F LT PUSH2 0xA8E JUMPI PUSH2 0x100 DUP1 DUP4 SLOAD DIV MUL DUP4 MSTORE SWAP2 PUSH1 0x20 ADD SWAP2 PUSH2 0xAB9 JUMP JUMPDEST DUP3 ADD SWAP2 SWAP1 PUSH1 0x0 MSTORE PUSH1 0x20 PUSH1 0x0 KECCAK256 SWAP1 JUMPDEST DUP2 SLOAD DUP2 MSTORE SWAP1 PUSH1 0x1 ADD SWAP1 PUSH1 0x20 ADD DUP1 DUP4 GT PUSH2 0xA9C JUMPI DUP3 SWAP1 SUB PUSH1 0x1F AND DUP3 ADD SWAP2 JUMPDEST POP POP POP POP POP SWAP1 POP SWAP1 JUMP JUMPDEST PUSH1 0x0 DUP1 SHL DUP2 JUMP JUMPDEST PUSH1 0x0 PUSH2 0xAE0 PUSH1 0x0 DUP1 SHL PUSH2 0xADB PUSH2 0xF12 JUMP JUMPDEST PUSH2 0x9C7 JUMP JUMPDEST PUSH2 0xB1F JUMPI PUSH1 0x40 MLOAD PUSH32 0x8C379A000000000000000000000000000000000000000000000000000000000 DUP2 MSTORE PUSH1 0x4 ADD PUSH2 0xB16 SWAP1 PUSH2 0x230B JUMP JUMPDEST PUSH1 0x40 MLOAD DUP1 SWAP2 SUB SWAP1 REVERT JUMPDEST PUSH1 0x0 PUSH1 0x4 PUSH1 0x0 PUSH2 0xB2D PUSH2 0xF12 JUMP JUMPDEST PUSH20 0xFFFFFFFFFFFFFFFFFFFFFFFFFFFFFFFFFFFFFFFF AND PUSH20 0xFFFFFFFFFFFFFFFFFFFFFFFFFFFFFFFFFFFFFFFF AND DUP2 MSTORE PUSH1 0x20 ADD SWAP1 DUP2 MSTORE PUSH1 0x20 ADD PUSH1 0x0 KECCAK256 PUSH1 0x0 DUP6 PUSH20 0xFFFFFFFFFFFFFFFFFFFFFFFFFFFFFFFFFFFFFFFF AND PUSH20 0xFFFFFFFFFFFFFFFFFFFFFFFFFFFFFFFFFFFFFFFF AND DUP2 MSTORE PUSH1 0x20 ADD SWAP1 DUP2 MSTORE PUSH1 0x20 ADD PUSH1 0x0 KECCAK256 SLOAD SWAP1 POP DUP3 DUP2 LT ISZERO PUSH2 0xBEA JUMPI PUSH1 0x40 MLOAD PUSH32 0x8C379A000000000000000000000000000000000000000000000000000000000 DUP2 MSTORE PUSH1 0x4 ADD PUSH2 0xBE1 SWAP1 PUSH2 0x2422 JUMP JUMPDEST PUSH1 0x40 MLOAD DUP1 SWAP2 SUB SWAP1 REVERT JUMPDEST PUSH2 0xBFE PUSH2 0xBF5 PUSH2 0xF12 JUMP JUMPDEST DUP6 DUP6 DUP5 SUB PUSH2 0xF1A JUMP JUMPDEST PUSH1 0x1 SWAP2 POP POP SWAP3 SWAP2 POP POP JUMP JUMPDEST PUSH1 0x0 PUSH2 0xC13 PUSH2 0xF12 JUMP JUMPDEST PUSH20 0xFFFFFFFFFFFFFFFFFFFFFFFFFFFFFFFFFFFFFFFF AND DUP4 PUSH20 0xFFFFFFFFFFFFFFFFFFFFFFFFFFFFFFFFFFFFFFFF AND SUB PUSH2 0xC80 JUMPI PUSH1 0x40 MLOAD PUSH32 0x8C379A000000000000000000000000000000000000000000000000000000000 DUP2 MSTORE PUSH1 0x4 ADD PUSH2 0xC77 SWAP1 PUSH2 0x220D JUMP JUMPDEST PUSH1 0x40 MLOAD DUP1 SWAP2 SUB SWAP1 REVERT JUMPDEST PUSH2 0xC92 PUSH2 0xC8B PUSH2 0xF12 JUMP JUMPDEST DUP5 DUP5 PUSH2 0x10E3 JUMP JUMPDEST PUSH1 0x1 SWAP1 POP SWAP3 SWAP2 POP POP JUMP JUMPDEST PUSH1 0x0 PUSH2 0xCB2 PUSH1 0x0 DUP1 SHL PUSH2 0xCAD PUSH2 0xF12 JUMP JUMPDEST PUSH2 0x9C7 JUMP JUMPDEST PUSH2 0xCF1 JUMPI PUSH1 0x40 MLOAD PUSH32 0x8C379A000000000000000000000000000000000000000000000000000000000 DUP2 MSTORE PUSH1 0x4 ADD PUSH2 0xCE8 SWAP1 PUSH2 0x230B JUMP JUMPDEST PUSH1 0x40 MLOAD DUP1 SWAP2 SUB SWAP1 REVERT JUMPDEST PUSH2 0xCF9 PUSH2 0x1493 JUMP JUMPDEST PUSH1 0x1 SWAP1 POP SWAP1 JUMP JUMPDEST PUSH1 0x0 PUSH2 0xD1D PUSH1 0x1 PUSH1 0x0 DUP5 DUP2 MSTORE PUSH1 0x20 ADD SWAP1 DUP2 MSTORE PUSH1 0x20 ADD PUSH1 0x0 KECCAK256 PUSH2 0x1535 JUMP JUMPDEST SWAP1 POP SWAP2 SWAP1 POP JUMP JUMPDEST PUSH1 0x8 SLOAD DUP2 JUMP JUMPDEST PUSH2 0xD32 PUSH2 0xF12 JUMP JUMPDEST PUSH20 0xFFFFFFFFFFFFFFFFFFFFFFFFFFFFFFFFFFFFFFFF AND DUP2 PUSH20 0xFFFFFFFFFFFFFFFFFFFFFFFFFFFFFFFFFFFFFFFF AND SUB PUSH2 0xD9F JUMPI PUSH1 0x40 MLOAD PUSH32 0x8C379A000000000000000000000000000000000000000000000000000000000 DUP2 MSTORE PUSH1 0x4 ADD PUSH2 0xD96 SWAP1 PUSH2 0x24B4 JUMP JUMPDEST PUSH1 0x40 MLOAD DUP1 SWAP2 SUB SWAP1 REVERT JUMPDEST PUSH2 0xDA9 DUP3 DUP3 PUSH2 0x154A JUMP JUMPDEST PUSH2 0xDCE DUP2 PUSH1 0x1 PUSH1 0x0 DUP6 DUP2 MSTORE PUSH1 0x20 ADD SWAP1 DUP2 MSTORE PUSH1 0x20 ADD PUSH1 0x0 KECCAK256 PUSH2 0x1573 SWAP1 SWAP2 SWAP1 PUSH4 0xFFFFFFFF AND JUMP JUMPDEST POP POP POP JUMP JUMPDEST PUSH1 0x0 PUSH1 0x4 PUSH1 0x0 DUP5 PUSH20 0xFFFFFFFFFFFFFFFFFFFFFFFFFFFFFFFFFFFFFFFF AND PUSH20 0xFFFFFFFFFFFFFFFFFFFFFFFFFFFFFFFFFFFFFFFF AND DUP2 MSTORE PUSH1 0x20 ADD SWAP1 DUP2 MSTORE PUSH1 0x20 ADD PUSH1 0x0 KECCAK256 PUSH1 0x0 DUP4 PUSH20 0xFFFFFFFFFFFFFFFFFFFFFFFFFFFFFFFFFFFFFFFF AND PUSH20 0xFFFFFFFFFFFFFFFFFFFFFFFFFFFFFFFFFFFFFFFF AND DUP2 MSTORE PUSH1 0x20 ADD SWAP1 DUP2 MSTORE PUSH1 0x20 ADD PUSH1 0x0 KECCAK256 SLOAD SWAP1 POP SWAP3 SWAP2 POP POP JUMP JUMPDEST PUSH2 0xE64 DUP3 DUP3 PUSH2 0x15A3 JUMP JUMPDEST POP POP JUMP JUMPDEST PUSH1 0x0 PUSH2 0xE90 DUP4 PUSH1 0x0 ADD DUP4 PUSH20 0xFFFFFFFFFFFFFFFFFFFFFFFFFFFFFFFFFFFFFFFF AND PUSH1 0x0 SHL PUSH2 0x1683 JUMP JUMPDEST SWAP1 POP SWAP3 SWAP2 POP POP JUMP JUMPDEST PUSH1 0x0 PUSH32 0x4F3351B500000000000000000000000000000000000000000000000000000000 PUSH28 0xFFFFFFFFFFFFFFFFFFFFFFFFFFFFFFFFFFFFFFFFFFFFFFFFFFFFFFFF NOT AND DUP3 PUSH28 0xFFFFFFFFFFFFFFFFFFFFFFFFFFFFFFFFFFFFFFFFFFFFFFFFFFFFFFFF NOT AND EQ DUP1 PUSH2 0xF0B JUMPI POP PUSH2 0xF0A DUP3 PUSH2 0x16F3 JUMP JUMPDEST JUMPDEST SWAP1 POP SWAP2 SWAP1 POP JUMP JUMPDEST PUSH1 0x0 CALLER SWAP1 POP SWAP1 JUMP JUMPDEST PUSH1 0x0 PUSH20 0xFFFFFFFFFFFFFFFFFFFFFFFFFFFFFFFFFFFFFFFF AND DUP4 PUSH20 0xFFFFFFFFFFFFFFFFFFFFFFFFFFFFFFFFFFFFFFFF AND SUB PUSH2 0xF89 JUMPI PUSH1 0x40 MLOAD PUSH32 0x8C379A000000000000000000000000000000000000000000000000000000000 DUP2 MSTORE PUSH1 0x4 ADD PUSH2 0xF80 SWAP1 PUSH2 0x2546 JUMP JUMPDEST PUSH1 0x40 MLOAD DUP1 SWAP2 SUB SWAP1 REVERT JUMPDEST PUSH1 0x0 PUSH20 0xFFFFFFFFFFFFFFFFFFFFFFFFFFFFFFFFFFFFFFFF AND DUP3 PUSH20 0xFFFFFFFFFFFFFFFFFFFFFFFFFFFFFFFFFFFFFFFF AND SUB PUSH2 0xFF8 JUMPI PUSH1 0x40 MLOAD PUSH32 0x8C379A000000000000000000000000000000000000000000000000000000000 DUP2 MSTORE PUSH1 0x4 ADD PUSH2 0xFEF SWAP1 PUSH2 0x25D8 JUMP JUMPDEST PUSH1 0x40 MLOAD DUP1 SWAP2 SUB SWAP1 REVERT JUMPDEST DUP1 PUSH1 0x4 PUSH1 0x0 DUP6 PUSH20 0xFFFFFFFFFFFFFFFFFFFFFFFFFFFFFFFFFFFFFFFF AND PUSH20 0xFFFFFFFFFFFFFFFFFFFFFFFFFFFFFFFFFFFFFFFF AND DUP2 MSTORE PUSH1 0x20 ADD SWAP1 DUP2 MSTORE PUSH1 0x20 ADD PUSH1 0x0 KECCAK256 PUSH1 0x0 DUP5 PUSH20 0xFFFFFFFFFFFFFFFFFFFFFFFFFFFFFFFFFFFFFFFF AND PUSH20 0xFFFFFFFFFFFFFFFFFFFFFFFFFFFFFFFFFFFFFFFF AND DUP2 MSTORE PUSH1 0x20 ADD SWAP1 DUP2 MSTORE PUSH1 0x20 ADD PUSH1 0x0 KECCAK256 DUP2 SWAP1 SSTORE POP DUP2 PUSH20 0xFFFFFFFFFFFFFFFFFFFFFFFFFFFFFFFFFFFFFFFF AND DUP4 PUSH20 0xFFFFFFFFFFFFFFFFFFFFFFFFFFFFFFFFFFFFFFFF AND PUSH32 0x8C5BE1E5EBEC7D5BD14F71427D1E84F3DD0314C0F7B2291E5B200AC8C7C3B925 DUP4 PUSH1 0x40 MLOAD PUSH2 0x10D6 SWAP2 SWAP1 PUSH2 0x1EF2 JUMP JUMPDEST PUSH1 0x40 MLOAD DUP1 SWAP2 SUB SWAP1 LOG3 POP POP POP JUMP JUMPDEST PUSH2 0x10EB PUSH2 0x938 JUMP JUMPDEST ISZERO PUSH2 0x112B JUMPI PUSH1 0x40 MLOAD PUSH32 0x8C379A000000000000000000000000000000000000000000000000000000000 DUP2 MSTORE PUSH1 0x4 ADD PUSH2 0x1122 SWAP1 PUSH2 0x266A JUMP JUMPDEST PUSH1 0x40 MLOAD DUP1 SWAP2 SUB SWAP1 REVERT JUMPDEST PUSH1 0x0 PUSH20 0xFFFFFFFFFFFFFFFFFFFFFFFFFFFFFFFFFFFFFFFF AND DUP4 PUSH20 0xFFFFFFFFFFFFFFFFFFFFFFFFFFFFFFFFFFFFFFFF AND SUB PUSH2 0x119A JUMPI PUSH1 0x40 MLOAD PUSH32 0x8C379A000000000000000000000000000000000000000000000000000000000 DUP2 MSTORE PUSH1 0x4 ADD PUSH2 0x1191 SWAP1 PUSH2 0x26FC JUMP JUMPDEST PUSH1 0x40 MLOAD DUP1 SWAP2 SUB SWAP1 REVERT JUMPDEST PUSH1 0x0 PUSH20 0xFFFFFFFFFFFFFFFFFFFFFFFFFFFFFFFFFFFFFFFF AND DUP3 PUSH20 0xFFFFFFFFFFFFFFFFFFFFFFFFFFFFFFFFFFFFFFFF AND SUB PUSH2 0x1209 JUMPI PUSH1 0x40 MLOAD PUSH32 0x8C379A000000000000000000000000000000000000000000000000000000000 DUP2 MSTORE PUSH1 0x4 ADD PUSH2 0x1200 SWAP1 PUSH2 0x278E JUMP JUMPDEST PUSH1 0x40 MLOAD DUP1 SWAP2 SUB SWAP1 REVERT JUMPDEST PUSH2 0x1214 DUP4 DUP4 DUP4 PUSH2 0x175D JUMP JUMPDEST PUSH1 0x0 PUSH1 0x3 PUSH1 0x0 DUP6 PUSH20 0xFFFFFFFFFFFFFFFFFFFFFFFFFFFFFFFFFFFFFFFF AND PUSH20 0xFFFFFFFFFFFFFFFFFFFFFFFFFFFFFFFFFFFFFFFF AND DUP2 MSTORE PUSH1 0x20 ADD SWAP1 DUP2 MSTORE PUSH1 0x20 ADD PUSH1 0x0 KECCAK256 SLOAD SWAP1 POP DUP2 DUP2 LT ISZERO PUSH2 0x129B JUMPI PUSH1 0x40 MLOAD PUSH32 0x8C379A000000000000000000000000000000000000000000000000000000000 DUP2 MSTORE PUSH1 0x4 ADD PUSH2 0x1292 SWAP1 PUSH2 0x2820 JUMP JUMPDEST PUSH1 0x40 MLOAD DUP1 SWAP2 SUB SWAP1 REVERT JUMPDEST DUP2 DUP2 SUB PUSH1 0x3 PUSH1 0x0 DUP7 PUSH20 0xFFFFFFFFFFFFFFFFFFFFFFFFFFFFFFFFFFFFFFFF AND PUSH20 0xFFFFFFFFFFFFFFFFFFFFFFFFFFFFFFFFFFFFFFFF AND DUP2 MSTORE PUSH1 0x20 ADD SWAP1 DUP2 MSTORE PUSH1 0x20 ADD PUSH1 0x0 KECCAK256 DUP2 SWAP1 SSTORE POP DUP2 PUSH1 0x3 PUSH1 0x0 DUP6 PUSH20 0xFFFFFFFFFFFFFFFFFFFFFFFFFFFFFFFFFFFFFFFF AND PUSH20 0xFFFFFFFFFFFFFFFFFFFFFFFFFFFFFFFFFFFFFFFF AND DUP2 MSTORE PUSH1 0x20 ADD SWAP1 DUP2 MSTORE PUSH1 0x20 ADD PUSH1 0x0 KECCAK256 PUSH1 0x0 DUP3 DUP3 SLOAD PUSH2 0x1330 SWAP2 SWAP1 PUSH2 0x235A JUMP JUMPDEST SWAP3 POP POP DUP2 SWAP1 SSTORE POP DUP3 PUSH20 0xFFFFFFFFFFFFFFFFFFFFFFFFFFFFFFFFFFFFFFFF AND DUP5 PUSH20 0xFFFFFFFFFFFFFFFFFFFFFFFFFFFFFFFFFFFFFFFF AND PUSH32 0xDDF252AD1BE2C89B69C2B068FC378DAA952BA7F163C4A11628F55A4DF523B3EF DUP5 PUSH1 0x40 MLOAD PUSH2 0x1394 SWAP2 SWAP1 PUSH2 0x1EF2 JUMP JUMPDEST PUSH1 0x40 MLOAD DUP1 SWAP2 SUB SWAP1 LOG3 PUSH2 0x13A7 DUP5 DUP5 DUP5 PUSH2 0x1762 JUMP JUMPDEST POP POP POP POP JUMP JUMPDEST PUSH2 0x13B6 DUP3 PUSH2 0x779 JUMP JUMPDEST PUSH2 0x13C7 DUP2 PUSH2 0x13C2 PUSH2 0xF12 JUMP JUMPDEST PUSH2 0x1767 JUMP JUMPDEST PUSH2 0x13D1 DUP4 DUP4 PUSH2 0x15A3 JUMP JUMPDEST POP POP POP JUMP JUMPDEST PUSH2 0x13DE PUSH2 0x938 JUMP JUMPDEST ISZERO PUSH2 0x141E JUMPI PUSH1 0x40 MLOAD PUSH32 0x8C379A000000000000000000000000000000000000000000000000000000000 DUP2 MSTORE PUSH1 0x4 ADD PUSH2 0x1415 SWAP1 PUSH2 0x288C JUMP JUMPDEST PUSH1 0x40 MLOAD DUP1 SWAP2 SUB SWAP1 REVERT JUMPDEST PUSH1 0x1 PUSH1 0x2 PUSH1 0x0 PUSH2 0x100 EXP DUP2 SLOAD DUP2 PUSH1 0xFF MUL NOT AND SWAP1 DUP4 ISZERO ISZERO MUL OR SWAP1 SSTORE POP PUSH32 0x62E78CEA01BEE320CD4E420270B5EA74000D11B0C9F74754EBDBFC544B05A258 PUSH2 0x1462 PUSH2 0xF12 JUMP JUMPDEST PUSH1 0x40 MLOAD PUSH2 0x146F SWAP2 SWAP1 PUSH2 0x20E0 JUMP JUMPDEST PUSH1 0x40 MLOAD DUP1 SWAP2 SUB SWAP1 LOG1 JUMP JUMPDEST PUSH1 0x0 PUSH2 0x1488 DUP4 PUSH1 0x0 ADD DUP4 PUSH2 0x1804 JUMP JUMPDEST PUSH1 0x0 SHR SWAP1 POP SWAP3 SWAP2 POP POP JUMP JUMPDEST PUSH2 0x149B PUSH2 0x938 JUMP JUMPDEST PUSH2 0x14DA JUMPI PUSH1 0x40 MLOAD PUSH32 0x8C379A000000000000000000000000000000000000000000000000000000000 DUP2 MSTORE PUSH1 0x4 ADD PUSH2 0x14D1 SWAP1 PUSH2 0x28F8 JUMP JUMPDEST PUSH1 0x40 MLOAD DUP1 SWAP2 SUB SWAP1 REVERT JUMPDEST PUSH1 0x0 PUSH1 0x2 PUSH1 0x0 PUSH2 0x100 EXP DUP2 SLOAD DUP2 PUSH1 0xFF MUL NOT AND SWAP1 DUP4 ISZERO ISZERO MUL OR SWAP1 SSTORE POP PUSH32 0x5DB9EE0A495BF2E6FF9C91A7834C1BA4FDD244A5E8AA4E537BD38AEAE4B073AA PUSH2 0x151E PUSH2 0xF12 JUMP JUMPDEST PUSH1 0x40 MLOAD PUSH2 0x152B SWAP2 SWAP1 PUSH2 0x20E0 JUMP JUMPDEST PUSH1 0x40 MLOAD DUP1 SWAP2 SUB SWAP1 LOG1 JUMP JUMPDEST PUSH1 0x0 PUSH2 0x1543 DUP3 PUSH1 0x0 ADD PUSH2 0x182F JUMP JUMPDEST SWAP1 POP SWAP2 SWAP1 POP JUMP JUMPDEST PUSH2 0x1553 DUP3 PUSH2 0x779 JUMP JUMPDEST PUSH2 0x1564 DUP2 PUSH2 0x155F PUSH2 0xF12 JUMP JUMPDEST PUSH2 0x1767 JUMP JUMPDEST PUSH2 0x156E DUP4 DUP4 PUSH2 0x1840 JUMP JUMPDEST POP POP POP JUMP JUMPDEST PUSH1 0x0 PUSH2 0x159B DUP4 PUSH1 0x0 ADD DUP4 PUSH20 0xFFFFFFFFFFFFFFFFFFFFFFFFFFFFFFFFFFFFFFFF AND PUSH1 0x0 SHL PUSH2 0x1921 JUMP JUMPDEST SWAP1 POP SWAP3 SWAP2 POP POP JUMP JUMPDEST PUSH2 0x15AD DUP3 DUP3 PUSH2 0x9C7 JUMP JUMPDEST PUSH2 0x167F JUMPI PUSH1 0x1 PUSH1 0x0 DUP1 DUP5 DUP2 MSTORE PUSH1 0x20 ADD SWAP1 DUP2 MSTORE PUSH1 0x20 ADD PUSH1 0x0 KECCAK256 PUSH1 0x0 ADD PUSH1 0x0 DUP4 PUSH20 0xFFFFFFFFFFFFFFFFFFFFFFFFFFFFFFFFFFFFFFFF AND PUSH20 0xFFFFFFFFFFFFFFFFFFFFFFFFFFFFFFFFFFFFFFFF AND DUP2 MSTORE PUSH1 0x20 ADD SWAP1 DUP2 MSTORE PUSH1 0x20 ADD PUSH1 0x0 KECCAK256 PUSH1 0x0 PUSH2 0x100 EXP DUP2 SLOAD DUP2 PUSH1 0xFF MUL NOT AND SWAP1 DUP4 ISZERO ISZERO MUL OR SWAP1 SSTORE POP PUSH2 0x1624 PUSH2 0xF12 JUMP JUMPDEST PUSH20 0xFFFFFFFFFFFFFFFFFFFFFFFFFFFFFFFFFFFFFFFF AND DUP2 PUSH20 0xFFFFFFFFFFFFFFFFFFFFFFFFFFFFFFFFFFFFFFFF AND DUP4 PUSH32 0x2F8788117E7EFF1D82E926EC794901D17C78024A50270940304540A733656F0D PUSH1 0x40 MLOAD PUSH1 0x40 MLOAD DUP1 SWAP2 SUB SWAP1 LOG4 JUMPDEST POP POP JUMP JUMPDEST PUSH1 0x0 PUSH2 0x168F DUP4 DUP4 PUSH2 0x1A35 JUMP JUMPDEST PUSH2 0x16E8 JUMPI DUP3 PUSH1 0x0 ADD DUP3 SWAP1 DUP1 PUSH1 0x1 DUP2 SLOAD ADD DUP1 DUP3 SSTORE DUP1 SWAP2 POP POP PUSH1 0x1 SWAP1 SUB SWAP1 PUSH1 0x0 MSTORE PUSH1 0x20 PUSH1 0x0 KECCAK256 ADD PUSH1 0x0 SWAP1 SWAP2 SWAP1 SWAP2 SWAP1 SWAP2 POP SSTORE DUP3 PUSH1 0x0 ADD DUP1 SLOAD SWAP1 POP DUP4 PUSH1 0x1 ADD PUSH1 0x0 DUP5 DUP2 MSTORE PUSH1 0x20 ADD SWAP1 DUP2 MSTORE PUSH1 0x20 ADD PUSH1 0x0 KECCAK256 DUP2 SWAP1 SSTORE POP PUSH1 0x1 SWAP1 POP PUSH2 0x16ED JUMP JUMPDEST PUSH1 0x0 SWAP1 POP JUMPDEST SWAP3 SWAP2 POP POP JUMP JUMPDEST PUSH1 0x0 PUSH32 0x1FFC9A700000000000000000000000000000000000000000000000000000000 PUSH28 0xFFFFFFFFFFFFFFFFFFFFFFFFFFFFFFFFFFFFFFFFFFFFFFFFFFFFFFFF NOT AND DUP3 PUSH28 0xFFFFFFFFFFFFFFFFFFFFFFFFFFFFFFFFFFFFFFFFFFFFFFFFFFFFFFFF NOT AND EQ SWAP1 POP SWAP2 SWAP1 POP JUMP JUMPDEST POP POP POP JUMP JUMPDEST POP POP POP JUMP JUMPDEST PUSH2 0x1771 DUP3 DUP3 PUSH2 0x9C7 JUMP JUMPDEST PUSH2 0x1800 JUMPI PUSH2 0x1796 DUP2 PUSH20 0xFFFFFFFFFFFFFFFFFFFFFFFFFFFFFFFFFFFFFFFF AND PUSH1 0x14 PUSH2 0x1A58 JUMP JUMPDEST PUSH2 0x17A4 DUP4 PUSH1 0x0 SHR PUSH1 0x20 PUSH2 0x1A58 JUMP JUMPDEST PUSH1 0x40 MLOAD PUSH1 0x20 ADD PUSH2 0x17B5 SWAP3 SWAP2 SWAP1 PUSH2 0x29EC JUMP JUMPDEST PUSH1 0x40 MLOAD PUSH1 0x20 DUP2 DUP4 SUB SUB DUP2 MSTORE SWAP1 PUSH1 0x40 MSTORE PUSH1 0x40 MLOAD PUSH32 0x8C379A000000000000000000000000000000000000000000000000000000000 DUP2 MSTORE PUSH1 0x4 ADD PUSH2 0x17F7 SWAP2 SWAP1 PUSH2 0x1DED JUMP JUMPDEST PUSH1 0x40 MLOAD DUP1 SWAP2 SUB SWAP1 REVERT JUMPDEST POP POP JUMP JUMPDEST PUSH1 0x0 DUP3 PUSH1 0x0 ADD DUP3 DUP2 SLOAD DUP2 LT PUSH2 0x181C JUMPI PUSH2 0x181B PUSH2 0x2A26 JUMP JUMPDEST JUMPDEST SWAP1 PUSH1 0x0 MSTORE PUSH1 0x20 PUSH1 0x0 KECCAK256 ADD SLOAD SWAP1 POP SWAP3 SWAP2 POP POP JUMP JUMPDEST PUSH1 0x0 DUP2 PUSH1 0x0 ADD DUP1 SLOAD SWAP1 POP SWAP1 POP SWAP2 SWAP1 POP JUMP JUMPDEST PUSH2 0x184A DUP3 DUP3 PUSH2 0x9C7 JUMP JUMPDEST ISZERO PUSH2 0x191D JUMPI PUSH1 0x0 DUP1 PUSH1 0x0 DUP5 DUP2 MSTORE PUSH1 0x20 ADD SWAP1 DUP2 MSTORE PUSH1 0x20 ADD PUSH1 0x0 KECCAK256 PUSH1 0x0 ADD PUSH1 0x0 DUP4 PUSH20 0xFFFFFFFFFFFFFFFFFFFFFFFFFFFFFFFFFFFFFFFF AND PUSH20 0xFFFFFFFFFFFFFFFFFFFFFFFFFFFFFFFFFFFFFFFF AND DUP2 MSTORE PUSH1 0x20 ADD SWAP1 DUP2 MSTORE PUSH1 0x20 ADD PUSH1 0x0 KECCAK256 PUSH1 0x0 PUSH2 0x100 EXP DUP2 SLOAD DUP2 PUSH1 0xFF MUL NOT AND SWAP1 DUP4 ISZERO ISZERO MUL OR SWAP1 SSTORE POP PUSH2 0x18C2 PUSH2 0xF12 JUMP JUMPDEST PUSH20 0xFFFFFFFFFFFFFFFFFFFFFFFFFFFFFFFFFFFFFFFF AND DUP2 PUSH20 0xFFFFFFFFFFFFFFFFFFFFFFFFFFFFFFFFFFFFFFFF AND DUP4 PUSH32 0xF6391F5C32D9C69D2A47EA670B442974B53935D1EDC7FD64EB21E047A839171B PUSH1 0x40 MLOAD PUSH1 0x40 MLOAD DUP1 SWAP2 SUB SWAP1 LOG4 JUMPDEST POP POP JUMP JUMPDEST PUSH1 0x0 DUP1 DUP4 PUSH1 0x1 ADD PUSH1 0x0 DUP5 DUP2 MSTORE PUSH1 0x20 ADD SWAP1 DUP2 MSTORE PUSH1 0x20 ADD PUSH1 0x0 KECCAK256 SLOAD SWAP1 POP PUSH1 0x0 DUP2 EQ PUSH2 0x1A29 JUMPI PUSH1 0x0 PUSH1 0x1 DUP3 PUSH2 0x1953 SWAP2 SWAP1 PUSH2 0x2A55 JUMP JUMPDEST SWAP1 POP PUSH1 0x0 PUSH1 0x1 DUP7 PUSH1 0x0 ADD DUP1 SLOAD SWAP1 POP PUSH2 0x196B SWAP2 SWAP1 PUSH2 0x2A55 JUMP JUMPDEST SWAP1 POP DUP2 DUP2 EQ PUSH2 0x19DA JUMPI PUSH1 0x0 DUP7 PUSH1 0x0 ADD DUP3 DUP2 SLOAD DUP2 LT PUSH2 0x198C JUMPI PUSH2 0x198B PUSH2 0x2A26 JUMP JUMPDEST JUMPDEST SWAP1 PUSH1 0x0 MSTORE PUSH1 0x20 PUSH1 0x0 KECCAK256 ADD SLOAD SWAP1 POP DUP1 DUP8 PUSH1 0x0 ADD DUP5 DUP2 SLOAD DUP2 LT PUSH2 0x19B0 JUMPI PUSH2 0x19AF PUSH2 0x2A26 JUMP JUMPDEST JUMPDEST SWAP1 PUSH1 0x0 MSTORE PUSH1 0x20 PUSH1 0x0 KECCAK256 ADD DUP2 SWAP1 SSTORE POP DUP4 DUP8 PUSH1 0x1 ADD PUSH1 0x0 DUP4 DUP2 MSTORE PUSH1 0x20 ADD SWAP1 DUP2 MSTORE PUSH1 0x20 ADD PUSH1 0x0 KECCAK256 DUP2 SWAP1 SSTORE POP POP JUMPDEST DUP6 PUSH1 0x0 ADD DUP1 SLOAD DUP1 PUSH2 0x19EE JUMPI PUSH2 0x19ED PUSH2 0x2A89 JUMP JUMPDEST JUMPDEST PUSH1 0x1 SWAP1 SUB DUP2 DUP2 SWAP1 PUSH1 0x0 MSTORE PUSH1 0x20 PUSH1 0x0 KECCAK256 ADD PUSH1 0x0 SWAP1 SSTORE SWAP1 SSTORE DUP6 PUSH1 0x1 ADD PUSH1 0x0 DUP7 DUP2 MSTORE PUSH1 0x20 ADD SWAP1 DUP2 MSTORE PUSH1 0x20 ADD PUSH1 0x0 KECCAK256 PUSH1 0x0 SWAP1 SSTORE PUSH1 0x1 SWAP4 POP POP POP POP PUSH2 0x1A2F JUMP JUMPDEST PUSH1 0x0 SWAP2 POP POP JUMPDEST SWAP3 SWAP2 POP POP JUMP JUMPDEST PUSH1 0x0 DUP1 DUP4 PUSH1 0x1 ADD PUSH1 0x0 DUP5 DUP2 MSTORE PUSH1 0x20 ADD SWAP1 DUP2 MSTORE PUSH1 0x20 ADD PUSH1 0x0 KECCAK256 SLOAD EQ ISZERO SWAP1 POP SWAP3 SWAP2 POP POP JUMP JUMPDEST PUSH1 0x60 PUSH1 0x0 PUSH1 0x2 DUP4 PUSH1 0x2 PUSH2 0x1A6B SWAP2 SWAP1 PUSH2 0x2AB8 JUMP JUMPDEST PUSH2 0x1A75 SWAP2 SWAP1 PUSH2 0x235A JUMP JUMPDEST PUSH8 0xFFFFFFFFFFFFFFFF DUP2 GT ISZERO PUSH2 0x1A8E JUMPI PUSH2 0x1A8D PUSH2 0x2B12 JUMP JUMPDEST JUMPDEST PUSH1 0x40 MLOAD SWAP1 DUP1 DUP3 MSTORE DUP1 PUSH1 0x1F ADD PUSH1 0x1F NOT AND PUSH1 0x20 ADD DUP3 ADD PUSH1 0x40 MSTORE DUP1 ISZERO PUSH2 0x1AC0 JUMPI DUP2 PUSH1 0x20 ADD PUSH1 0x1 DUP3 MUL DUP1 CALLDATASIZE DUP4 CALLDATACOPY DUP1 DUP3 ADD SWAP2 POP POP SWAP1 POP JUMPDEST POP SWAP1 POP PUSH32 0x3000000000000000000000000000000000000000000000000000000000000000 DUP2 PUSH1 0x0 DUP2 MLOAD DUP2 LT PUSH2 0x1AF8 JUMPI PUSH2 0x1AF7 PUSH2 0x2A26 JUMP JUMPDEST JUMPDEST PUSH1 0x20 ADD ADD SWAP1 PUSH31 0xFFFFFFFFFFFFFFFFFFFFFFFFFFFFFFFFFFFFFFFFFFFFFFFFFFFFFFFFFFFFFF NOT AND SWAP1 DUP2 PUSH1 0x0 BYTE SWAP1 MSTORE8 POP PUSH32 0x7800000000000000000000000000000000000000000000000000000000000000 DUP2 PUSH1 0x1 DUP2 MLOAD DUP2 LT PUSH2 0x1B5C JUMPI PUSH2 0x1B5B PUSH2 0x2A26 JUMP JUMPDEST JUMPDEST PUSH1 0x20 ADD ADD SWAP1 PUSH31 0xFFFFFFFFFFFFFFFFFFFFFFFFFFFFFFFFFFFFFFFFFFFFFFFFFFFFFFFFFFFFFF NOT AND SWAP1 DUP2 PUSH1 0x0 BYTE SWAP1 MSTORE8 POP PUSH1 0x0 PUSH1 0x1 DUP5 PUSH1 0x2 PUSH2 0x1B9C SWAP2 SWAP1 PUSH2 0x2AB8 JUMP JUMPDEST PUSH2 0x1BA6 SWAP2 SWAP1 PUSH2 0x235A JUMP JUMPDEST SWAP1 POP JUMPDEST PUSH1 0x1 DUP2 GT ISZERO PUSH2 0x1C46 JUMPI PUSH32 0x3031323334353637383961626364656600000000000000000000000000000000 PUSH1 0xF DUP7 AND PUSH1 0x10 DUP2 LT PUSH2 0x1BE8 JUMPI PUSH2 0x1BE7 PUSH2 0x2A26 JUMP JUMPDEST JUMPDEST BYTE PUSH1 0xF8 SHL DUP3 DUP3 DUP2 MLOAD DUP2 LT PUSH2 0x1BFF JUMPI PUSH2 0x1BFE PUSH2 0x2A26 JUMP JUMPDEST JUMPDEST PUSH1 0x20 ADD ADD SWAP1 PUSH31 0xFFFFFFFFFFFFFFFFFFFFFFFFFFFFFFFFFFFFFFFFFFFFFFFFFFFFFFFFFFFFFF NOT AND SWAP1 DUP2 PUSH1 0x0 BYTE SWAP1 MSTORE8 POP PUSH1 0x4 DUP6 SWAP1 SHR SWAP5 POP DUP1 PUSH2 0x1C3F SWAP1 PUSH2 0x2B41 JUMP JUMPDEST SWAP1 POP PUSH2 0x1BA9 JUMP JUMPDEST POP PUSH1 0x0 DUP5 EQ PUSH2 0x1C8A JUMPI PUSH1 0x40 MLOAD PUSH32 0x8C379A000000000000000000000000000000000000000000000000000000000 DUP2 MSTORE PUSH1 0x4 ADD PUSH2 0x1C81 SWAP1 PUSH2 0x2BB6 JUMP JUMPDEST PUSH1 0x40 MLOAD DUP1 SWAP2 SUB SWAP1 REVERT JUMPDEST DUP1 SWAP2 POP POP SWAP3 SWAP2 POP POP JUMP JUMPDEST PUSH1 0x0 DUP1 REVERT JUMPDEST PUSH1 0x0 PUSH32 0xFFFFFFFF00000000000000000000000000000000000000000000000000000000 DUP3 AND SWAP1 POP SWAP2 SWAP1 POP JUMP JUMPDEST PUSH2 0x1CCE DUP2 PUSH2 0x1C99 JUMP JUMPDEST DUP2 EQ PUSH2 0x1CD9 JUMPI PUSH1 0x0 DUP1 REVERT JUMPDEST POP JUMP JUMPDEST PUSH1 0x0 DUP2 CALLDATALOAD SWAP1 POP PUSH2 0x1CEB DUP2 PUSH2 0x1CC5 JUMP JUMPDEST SWAP3 SWAP2 POP POP JUMP JUMPDEST PUSH1 0x0 PUSH1 0x20 DUP3 DUP5 SUB SLT ISZERO PUSH2 0x1D07 JUMPI PUSH2 0x1D06 PUSH2 0x1C94 JUMP JUMPDEST JUMPDEST PUSH1 0x0 PUSH2 0x1D15 DUP5 DUP3 DUP6 ADD PUSH2 0x1CDC JUMP JUMPDEST SWAP2 POP POP SWAP3 SWAP2 POP POP JUMP JUMPDEST PUSH1 0x0 DUP2 ISZERO ISZERO SWAP1 POP SWAP2 SWAP1 POP JUMP JUMPDEST PUSH2 0x1D33 DUP2 PUSH2 0x1D1E JUMP JUMPDEST DUP3 MSTORE POP POP JUMP JUMPDEST PUSH1 0x0 PUSH1 0x20 DUP3 ADD SWAP1 POP PUSH2 0x1D4E PUSH1 0x0 DUP4 ADD DUP5 PUSH2 0x1D2A JUMP JUMPDEST SWAP3 SWAP2 POP POP JUMP JUMPDEST PUSH1 0x0 DUP2 MLOAD SWAP1 POP SWAP2 SWAP1 POP JUMP JUMPDEST PUSH1 0x0 DUP3 DUP3 MSTORE PUSH1 0x20 DUP3 ADD SWAP1 POP SWAP3 SWAP2 POP POP JUMP JUMPDEST PUSH1 0x0 JUMPDEST DUP4 DUP2 LT ISZERO PUSH2 0x1D8E JUMPI DUP1 DUP3 ADD MLOAD DUP2 DUP5 ADD MSTORE PUSH1 0x20 DUP2 ADD SWAP1 POP PUSH2 0x1D73 JUMP JUMPDEST DUP4 DUP2 GT ISZERO PUSH2 0x1D9D JUMPI PUSH1 0x0 DUP5 DUP5 ADD MSTORE JUMPDEST POP POP POP POP JUMP JUMPDEST PUSH1 0x0 PUSH1 0x1F NOT PUSH1 0x1F DUP4 ADD AND SWAP1 POP SWAP2 SWAP1 POP JUMP JUMPDEST PUSH1 0x0 PUSH2 0x1DBF DUP3 PUSH2 0x1D54 JUMP JUMPDEST PUSH2 0x1DC9 DUP2 DUP6 PUSH2 0x1D5F JUMP JUMPDEST SWAP4 POP PUSH2 0x1DD9 DUP2 DUP6 PUSH1 0x20 DUP7 ADD PUSH2 0x1D70 JUMP JUMPDEST PUSH2 0x1DE2 DUP2 PUSH2 0x1DA3 JUMP JUMPDEST DUP5 ADD SWAP2 POP POP SWAP3 SWAP2 POP POP JUMP JUMPDEST PUSH1 0x0 PUSH1 0x20 DUP3 ADD SWAP1 POP DUP2 DUP2 SUB PUSH1 0x0 DUP4 ADD MSTORE PUSH2 0x1E07 DUP2 DUP5 PUSH2 0x1DB4 JUMP JUMPDEST SWAP1 POP SWAP3 SWAP2 POP POP JUMP JUMPDEST PUSH1 0x0 PUSH20 0xFFFFFFFFFFFFFFFFFFFFFFFFFFFFFFFFFFFFFFFF DUP3 AND SWAP1 POP SWAP2 SWAP1 POP JUMP JUMPDEST PUSH1 0x0 PUSH2 0x1E3A DUP3 PUSH2 0x1E0F JUMP JUMPDEST SWAP1 POP SWAP2 SWAP1 POP JUMP JUMPDEST PUSH2 0x1E4A DUP2 PUSH2 0x1E2F JUMP JUMPDEST DUP2 EQ PUSH2 0x1E55 JUMPI PUSH1 0x0 DUP1 REVERT JUMPDEST POP JUMP JUMPDEST PUSH1 0x0 DUP2 CALLDATALOAD SWAP1 POP PUSH2 0x1E67 DUP2 PUSH2 0x1E41 JUMP JUMPDEST SWAP3 SWAP2 POP POP JUMP JUMPDEST PUSH1 0x0 DUP2 SWAP1 POP SWAP2 SWAP1 POP JUMP JUMPDEST PUSH2 0x1E80 DUP2 PUSH2 0x1E6D JUMP JUMPDEST DUP2 EQ PUSH2 0x1E8B JUMPI PUSH1 0x0 DUP1 REVERT JUMPDEST POP JUMP JUMPDEST PUSH1 0x0 DUP2 CALLDATALOAD SWAP1 POP PUSH2 0x1E9D DUP2 PUSH2 0x1E77 JUMP JUMPDEST SWAP3 SWAP2 POP POP JUMP JUMPDEST PUSH1 0x0 DUP1 PUSH1 0x40 DUP4 DUP6 SUB SLT ISZERO PUSH2 0x1EBA JUMPI PUSH2 0x1EB9 PUSH2 0x1C94 JUMP JUMPDEST JUMPDEST PUSH1 0x0 PUSH2 0x1EC8 DUP6 DUP3 DUP7 ADD PUSH2 0x1E58 JUMP JUMPDEST SWAP3 POP POP PUSH1 0x20 PUSH2 0x1ED9 DUP6 DUP3 DUP7 ADD PUSH2 0x1E8E JUMP JUMPDEST SWAP2 POP POP SWAP3 POP SWAP3 SWAP1 POP JUMP JUMPDEST PUSH2 0x1EEC DUP2 PUSH2 0x1E6D JUMP JUMPDEST DUP3 MSTORE POP POP JUMP JUMPDEST PUSH1 0x0 PUSH1 0x20 DUP3 ADD SWAP1 POP PUSH2 0x1F07 PUSH1 0x0 DUP4 ADD DUP5 PUSH2 0x1EE3 JUMP JUMPDEST SWAP3 SWAP2 POP POP JUMP JUMPDEST PUSH1 0x0 DUP1 PUSH1 0x0 PUSH1 0x60 DUP5 DUP7 SUB SLT ISZERO PUSH2 0x1F26 JUMPI PUSH2 0x1F25 PUSH2 0x1C94 JUMP JUMPDEST JUMPDEST PUSH1 0x0 PUSH2 0x1F34 DUP7 DUP3 DUP8 ADD PUSH2 0x1E58 JUMP JUMPDEST SWAP4 POP POP PUSH1 0x20 PUSH2 0x1F45 DUP7 DUP3 DUP8 ADD PUSH2 0x1E58 JUMP JUMPDEST SWAP3 POP POP PUSH1 0x40 PUSH2 0x1F56 DUP7 DUP3 DUP8 ADD PUSH2 0x1E8E JUMP JUMPDEST SWAP2 POP POP SWAP3 POP SWAP3 POP SWAP3 JUMP JUMPDEST PUSH1 0x0 DUP2 SWAP1 POP SWAP2 SWAP1 POP JUMP JUMPDEST PUSH2 0x1F73 DUP2 PUSH2 0x1F60 JUMP JUMPDEST DUP2 EQ PUSH2 0x1F7E JUMPI PUSH1 0x0 DUP1 REVERT JUMPDEST POP JUMP JUMPDEST PUSH1 0x0 DUP2 CALLDATALOAD SWAP1 POP PUSH2 0x1F90 DUP2 PUSH2 0x1F6A JUMP JUMPDEST SWAP3 SWAP2 POP POP JUMP JUMPDEST PUSH1 0x0 PUSH1 0x20 DUP3 DUP5 SUB SLT ISZERO PUSH2 0x1FAC JUMPI PUSH2 0x1FAB PUSH2 0x1C94 JUMP JUMPDEST JUMPDEST PUSH1 0x0 PUSH2 0x1FBA DUP5 DUP3 DUP6 ADD PUSH2 0x1F81 JUMP JUMPDEST SWAP2 POP POP SWAP3 SWAP2 POP POP JUMP JUMPDEST PUSH2 0x1FCC DUP2 PUSH2 0x1F60 JUMP JUMPDEST DUP3 MSTORE POP POP JUMP JUMPDEST PUSH1 0x0 PUSH1 0x20 DUP3 ADD SWAP1 POP PUSH2 0x1FE7 PUSH1 0x0 DUP4 ADD DUP5 PUSH2 0x1FC3 JUMP JUMPDEST SWAP3 SWAP2 POP POP JUMP JUMPDEST PUSH1 0x0 DUP1 PUSH1 0x40 DUP4 DUP6 SUB SLT ISZERO PUSH2 0x2004 JUMPI PUSH2 0x2003 PUSH2 0x1C94 JUMP JUMPDEST JUMPDEST PUSH1 0x0 PUSH2 0x2012 DUP6 DUP3 DUP7 ADD PUSH2 0x1F81 JUMP JUMPDEST SWAP3 POP POP PUSH1 0x20 PUSH2 0x2023 DUP6 DUP3 DUP7 ADD PUSH2 0x1E58 JUMP JUMPDEST SWAP2 POP POP SWAP3 POP SWAP3 SWAP1 POP JUMP JUMPDEST PUSH1 0x0 PUSH1 0xFF DUP3 AND SWAP1 POP SWAP2 SWAP1 POP JUMP JUMPDEST PUSH2 0x2043 DUP2 PUSH2 0x202D JUMP JUMPDEST DUP3 MSTORE POP POP JUMP JUMPDEST PUSH1 0x0 PUSH1 0x20 DUP3 ADD SWAP1 POP PUSH2 0x205E PUSH1 0x0 DUP4 ADD DUP5 PUSH2 0x203A JUMP JUMPDEST SWAP3 SWAP2 POP POP JUMP JUMPDEST PUSH1 0x0 PUSH1 0x20 DUP3 DUP5 SUB SLT ISZERO PUSH2 0x207A JUMPI PUSH2 0x2079 PUSH2 0x1C94 JUMP JUMPDEST JUMPDEST PUSH1 0x0 PUSH2 0x2088 DUP5 DUP3 DUP6 ADD PUSH2 0x1E58 JUMP JUMPDEST SWAP2 POP POP SWAP3 SWAP2 POP POP JUMP JUMPDEST PUSH1 0x0 DUP1 PUSH1 0x40 DUP4 DUP6 SUB SLT ISZERO PUSH2 0x20A8 JUMPI PUSH2 0x20A7 PUSH2 0x1C94 JUMP JUMPDEST JUMPDEST PUSH1 0x0 PUSH2 0x20B6 DUP6 DUP3 DUP7 ADD PUSH2 0x1F81 JUMP JUMPDEST SWAP3 POP POP PUSH1 0x20 PUSH2 0x20C7 DUP6 DUP3 DUP7 ADD PUSH2 0x1E8E JUMP JUMPDEST SWAP2 POP POP SWAP3 POP SWAP3 SWAP1 POP JUMP JUMPDEST PUSH2 0x20DA DUP2 PUSH2 0x1E2F JUMP JUMPDEST DUP3 MSTORE POP POP JUMP JUMPDEST PUSH1 0x0 PUSH1 0x20 DUP3 ADD SWAP1 POP PUSH2 0x20F5 PUSH1 0x0 DUP4 ADD DUP5 PUSH2 0x20D1 JUMP JUMPDEST SWAP3 SWAP2 POP POP JUMP JUMPDEST PUSH1 0x0 DUP1 PUSH1 0x40 DUP4 DUP6 SUB SLT ISZERO PUSH2 0x2112 JUMPI PUSH2 0x2111 PUSH2 0x1C94 JUMP JUMPDEST JUMPDEST PUSH1 0x0 PUSH2 0x2120 DUP6 DUP3 DUP7 ADD PUSH2 0x1E58 JUMP JUMPDEST SWAP3 POP POP PUSH1 0x20 PUSH2 0x2131 DUP6 DUP3 DUP7 ADD PUSH2 0x1E58 JUMP JUMPDEST SWAP2 POP POP SWAP3 POP SWAP3 SWAP1 POP JUMP JUMPDEST PUSH32 0x4E487B7100000000000000000000000000000000000000000000000000000000 PUSH1 0x0 MSTORE PUSH1 0x22 PUSH1 0x4 MSTORE PUSH1 0x24 PUSH1 0x0 REVERT JUMPDEST PUSH1 0x0 PUSH1 0x2 DUP3 DIV SWAP1 POP PUSH1 0x1 DUP3 AND DUP1 PUSH2 0x2182 JUMPI PUSH1 0x7F DUP3 AND SWAP2 POP JUMPDEST PUSH1 0x20 DUP3 LT DUP2 SUB PUSH2 0x2195 JUMPI PUSH2 0x2194 PUSH2 0x213B JUMP JUMPDEST JUMPDEST POP SWAP2 SWAP1 POP JUMP JUMPDEST PUSH32 0x45524332303A2063616C6C657220616E6420726563697069656E74206D757374 PUSH1 0x0 DUP3 ADD MSTORE PUSH32 0x20626520646966666572656E7420616464726573732E00000000000000000000 PUSH1 0x20 DUP3 ADD MSTORE POP JUMP JUMPDEST PUSH1 0x0 PUSH2 0x21F7 PUSH1 0x36 DUP4 PUSH2 0x1D5F JUMP JUMPDEST SWAP2 POP PUSH2 0x2202 DUP3 PUSH2 0x219B JUMP JUMPDEST PUSH1 0x40 DUP3 ADD SWAP1 POP SWAP2 SWAP1 POP JUMP JUMPDEST PUSH1 0x0 PUSH1 0x20 DUP3 ADD SWAP1 POP DUP2 DUP2 SUB PUSH1 0x0 DUP4 ADD MSTORE PUSH2 0x2226 DUP2 PUSH2 0x21EA JUMP JUMPDEST SWAP1 POP SWAP2 SWAP1 POP JUMP JUMPDEST PUSH32 0x45524332303A207472616E7366657220616D6F756E7420657863656564732061 PUSH1 0x0 DUP3 ADD MSTORE PUSH32 0x6C6C6F77616E6365000000000000000000000000000000000000000000000000 PUSH1 0x20 DUP3 ADD MSTORE POP JUMP JUMPDEST PUSH1 0x0 PUSH2 0x2289 PUSH1 0x28 DUP4 PUSH2 0x1D5F JUMP JUMPDEST SWAP2 POP PUSH2 0x2294 DUP3 PUSH2 0x222D JUMP JUMPDEST PUSH1 0x40 DUP3 ADD SWAP1 POP SWAP2 SWAP1 POP JUMP JUMPDEST PUSH1 0x0 PUSH1 0x20 DUP3 ADD SWAP1 POP DUP2 DUP2 SUB PUSH1 0x0 DUP4 ADD MSTORE PUSH2 0x22B8 DUP2 PUSH2 0x227C JUMP JUMPDEST SWAP1 POP SWAP2 SWAP1 POP JUMP JUMPDEST PUSH32 0x45524332303A206D75737420686176652061646D696E20726F6C650000000000 PUSH1 0x0 DUP3 ADD MSTORE POP JUMP JUMPDEST PUSH1 0x0 PUSH2 0x22F5 PUSH1 0x1B DUP4 PUSH2 0x1D5F JUMP JUMPDEST SWAP2 POP PUSH2 0x2300 DUP3 PUSH2 0x22BF JUMP JUMPDEST PUSH1 0x20 DUP3 ADD SWAP1 POP SWAP2 SWAP1 POP JUMP JUMPDEST PUSH1 0x0 PUSH1 0x20 DUP3 ADD SWAP1 POP DUP2 DUP2 SUB PUSH1 0x0 DUP4 ADD MSTORE PUSH2 0x2324 DUP2 PUSH2 0x22E8 JUMP JUMPDEST SWAP1 POP SWAP2 SWAP1 POP JUMP JUMPDEST PUSH32 0x4E487B7100000000000000000000000000000000000000000000000000000000 PUSH1 0x0 MSTORE PUSH1 0x11 PUSH1 0x4 MSTORE PUSH1 0x24 PUSH1 0x0 REVERT JUMPDEST PUSH1 0x0 PUSH2 0x2365 DUP3 PUSH2 0x1E6D JUMP JUMPDEST SWAP2 POP PUSH2 0x2370 DUP4 PUSH2 0x1E6D JUMP JUMPDEST SWAP3 POP DUP3 PUSH32 0xFFFFFFFFFFFFFFFFFFFFFFFFFFFFFFFFFFFFFFFFFFFFFFFFFFFFFFFFFFFFFFFF SUB DUP3 GT ISZERO PUSH2 0x23A5 JUMPI PUSH2 0x23A4 PUSH2 0x232B JUMP JUMPDEST JUMPDEST DUP3 DUP3 ADD SWAP1 POP SWAP3 SWAP2 POP POP JUMP JUMPDEST PUSH32 0x45524332303A2064656372656173656420616C6C6F77616E63652062656C6F77 PUSH1 0x0 DUP3 ADD MSTORE PUSH32 0x207A65726F000000000000000000000000000000000000000000000000000000 PUSH1 0x20 DUP3 ADD MSTORE POP JUMP JUMPDEST PUSH1 0x0 PUSH2 0x240C PUSH1 0x25 DUP4 PUSH2 0x1D5F JUMP JUMPDEST SWAP2 POP PUSH2 0x2417 DUP3 PUSH2 0x23B0 JUMP JUMPDEST PUSH1 0x40 DUP3 ADD SWAP1 POP SWAP2 SWAP1 POP JUMP JUMPDEST PUSH1 0x0 PUSH1 0x20 DUP3 ADD SWAP1 POP DUP2 DUP2 SUB PUSH1 0x0 DUP4 ADD MSTORE PUSH2 0x243B DUP2 PUSH2 0x23FF JUMP JUMPDEST SWAP1 POP SWAP2 SWAP1 POP JUMP JUMPDEST PUSH32 0x45524332303A2063616C6C65722063616E206E6F74207265766F6B65206F776E PUSH1 0x0 DUP3 ADD MSTORE PUSH32 0x20616464726573732E0000000000000000000000000000000000000000000000 PUSH1 0x20 DUP3 ADD MSTORE POP JUMP JUMPDEST PUSH1 0x0 PUSH2 0x249E PUSH1 0x29 DUP4 PUSH2 0x1D5F JUMP JUMPDEST SWAP2 POP PUSH2 0x24A9 DUP3 PUSH2 0x2442 JUMP JUMPDEST PUSH1 0x40 DUP3 ADD SWAP1 POP SWAP2 SWAP1 POP JUMP JUMPDEST PUSH1 0x0 PUSH1 0x20 DUP3 ADD SWAP1 POP DUP2 DUP2 SUB PUSH1 0x0 DUP4 ADD MSTORE PUSH2 0x24CD DUP2 PUSH2 0x2491 JUMP JUMPDEST SWAP1 POP SWAP2 SWAP1 POP JUMP JUMPDEST PUSH32 0x45524332303A20617070726F76652066726F6D20746865207A65726F20616464 PUSH1 0x0 DUP3 ADD MSTORE PUSH32 0x7265737300000000000000000000000000000000000000000000000000000000 PUSH1 0x20 DUP3 ADD MSTORE POP JUMP JUMPDEST PUSH1 0x0 PUSH2 0x2530 PUSH1 0x24 DUP4 PUSH2 0x1D5F JUMP JUMPDEST SWAP2 POP PUSH2 0x253B DUP3 PUSH2 0x24D4 JUMP JUMPDEST PUSH1 0x40 DUP3 ADD SWAP1 POP SWAP2 SWAP1 POP JUMP JUMPDEST PUSH1 0x0 PUSH1 0x20 DUP3 ADD SWAP1 POP DUP2 DUP2 SUB PUSH1 0x0 DUP4 ADD MSTORE PUSH2 0x255F DUP2 PUSH2 0x2523 JUMP JUMPDEST SWAP1 POP SWAP2 SWAP1 POP JUMP JUMPDEST PUSH32 0x45524332303A20617070726F766520746F20746865207A65726F206164647265 PUSH1 0x0 DUP3 ADD MSTORE PUSH32 0x7373000000000000000000000000000000000000000000000000000000000000 PUSH1 0x20 DUP3 ADD MSTORE POP JUMP JUMPDEST PUSH1 0x0 PUSH2 0x25C2 PUSH1 0x22 DUP4 PUSH2 0x1D5F JUMP JUMPDEST SWAP2 POP PUSH2 0x25CD DUP3 PUSH2 0x2566 JUMP JUMPDEST PUSH1 0x40 DUP3 ADD SWAP1 POP SWAP2 SWAP1 POP JUMP JUMPDEST PUSH1 0x0 PUSH1 0x20 DUP3 ADD SWAP1 POP DUP2 DUP2 SUB PUSH1 0x0 DUP4 ADD MSTORE PUSH2 0x25F1 DUP2 PUSH2 0x25B5 JUMP JUMPDEST SWAP1 POP SWAP2 SWAP1 POP JUMP JUMPDEST PUSH32 0x45524332303A207472616E736665722066756E6374696F6E2069732070617573 PUSH1 0x0 DUP3 ADD MSTORE PUSH32 0x65642062792061646D696E2E0000000000000000000000000000000000000000 PUSH1 0x20 DUP3 ADD MSTORE POP JUMP JUMPDEST PUSH1 0x0 PUSH2 0x2654 PUSH1 0x2C DUP4 PUSH2 0x1D5F JUMP JUMPDEST SWAP2 POP PUSH2 0x265F DUP3 PUSH2 0x25F8 JUMP JUMPDEST PUSH1 0x40 DUP3 ADD SWAP1 POP SWAP2 SWAP1 POP JUMP JUMPDEST PUSH1 0x0 PUSH1 0x20 DUP3 ADD SWAP1 POP DUP2 DUP2 SUB PUSH1 0x0 DUP4 ADD MSTORE PUSH2 0x2683 DUP2 PUSH2 0x2647 JUMP JUMPDEST SWAP1 POP SWAP2 SWAP1 POP JUMP JUMPDEST PUSH32 0x45524332303A207472616E736665722066726F6D20746865207A65726F206164 PUSH1 0x0 DUP3 ADD MSTORE PUSH32 0x6472657373000000000000000000000000000000000000000000000000000000 PUSH1 0x20 DUP3 ADD MSTORE POP JUMP JUMPDEST PUSH1 0x0 PUSH2 0x26E6 PUSH1 0x25 DUP4 PUSH2 0x1D5F JUMP JUMPDEST SWAP2 POP PUSH2 0x26F1 DUP3 PUSH2 0x268A JUMP JUMPDEST PUSH1 0x40 DUP3 ADD SWAP1 POP SWAP2 SWAP1 POP JUMP JUMPDEST PUSH1 0x0 PUSH1 0x20 DUP3 ADD SWAP1 POP DUP2 DUP2 SUB PUSH1 0x0 DUP4 ADD MSTORE PUSH2 0x2715 DUP2 PUSH2 0x26D9 JUMP JUMPDEST SWAP1 POP SWAP2 SWAP1 POP JUMP JUMPDEST PUSH32 0x45524332303A207472616E7366657220746F20746865207A65726F2061646472 PUSH1 0x0 DUP3 ADD MSTORE PUSH32 0x6573730000000000000000000000000000000000000000000000000000000000 PUSH1 0x20 DUP3 ADD MSTORE POP JUMP JUMPDEST PUSH1 0x0 PUSH2 0x2778 PUSH1 0x23 DUP4 PUSH2 0x1D5F JUMP JUMPDEST SWAP2 POP PUSH2 0x2783 DUP3 PUSH2 0x271C JUMP JUMPDEST PUSH1 0x40 DUP3 ADD SWAP1 POP SWAP2 SWAP1 POP JUMP JUMPDEST PUSH1 0x0 PUSH1 0x20 DUP3 ADD SWAP1 POP DUP2 DUP2 SUB PUSH1 0x0 DUP4 ADD MSTORE PUSH2 0x27A7 DUP2 PUSH2 0x276B JUMP JUMPDEST SWAP1 POP SWAP2 SWAP1 POP JUMP JUMPDEST PUSH32 0x45524332303A207472616E7366657220616D6F756E7420657863656564732062 PUSH1 0x0 DUP3 ADD MSTORE PUSH32 0x616C616E63650000000000000000000000000000000000000000000000000000 PUSH1 0x20 DUP3 ADD MSTORE POP JUMP JUMPDEST PUSH1 0x0 PUSH2 0x280A PUSH1 0x26 DUP4 PUSH2 0x1D5F JUMP JUMPDEST SWAP2 POP PUSH2 0x2815 DUP3 PUSH2 0x27AE JUMP JUMPDEST PUSH1 0x40 DUP3 ADD SWAP1 POP SWAP2 SWAP1 POP JUMP JUMPDEST PUSH1 0x0 PUSH1 0x20 DUP3 ADD SWAP1 POP DUP2 DUP2 SUB PUSH1 0x0 DUP4 ADD MSTORE PUSH2 0x2839 DUP2 PUSH2 0x27FD JUMP JUMPDEST SWAP1 POP SWAP2 SWAP1 POP JUMP JUMPDEST PUSH32 0x5061757361626C653A2070617573656400000000000000000000000000000000 PUSH1 0x0 DUP3 ADD MSTORE POP JUMP JUMPDEST PUSH1 0x0 PUSH2 0x2876 PUSH1 0x10 DUP4 PUSH2 0x1D5F JUMP JUMPDEST SWAP2 POP PUSH2 0x2881 DUP3 PUSH2 0x2840 JUMP JUMPDEST PUSH1 0x20 DUP3 ADD SWAP1 POP SWAP2 SWAP1 POP JUMP JUMPDEST PUSH1 0x0 PUSH1 0x20 DUP3 ADD SWAP1 POP DUP2 DUP2 SUB PUSH1 0x0 DUP4 ADD MSTORE PUSH2 0x28A5 DUP2 PUSH2 0x2869 JUMP JUMPDEST SWAP1 POP SWAP2 SWAP1 POP JUMP JUMPDEST PUSH32 0x5061757361626C653A206E6F7420706175736564000000000000000000000000 PUSH1 0x0 DUP3 ADD MSTORE POP JUMP JUMPDEST PUSH1 0x0 PUSH2 0x28E2 PUSH1 0x14 DUP4 PUSH2 0x1D5F JUMP JUMPDEST SWAP2 POP PUSH2 0x28ED DUP3 PUSH2 0x28AC JUMP JUMPDEST PUSH1 0x20 DUP3 ADD SWAP1 POP SWAP2 SWAP1 POP JUMP JUMPDEST PUSH1 0x0 PUSH1 0x20 DUP3 ADD SWAP1 POP DUP2 DUP2 SUB PUSH1 0x0 DUP4 ADD MSTORE PUSH2 0x2911 DUP2 PUSH2 0x28D5 JUMP JUMPDEST SWAP1 POP SWAP2 SWAP1 POP JUMP JUMPDEST PUSH1 0x0 DUP2 SWAP1 POP SWAP3 SWAP2 POP POP JUMP JUMPDEST PUSH32 0x416363657373436F6E74726F6C3A206163636F756E7420000000000000000000 PUSH1 0x0 DUP3 ADD MSTORE POP JUMP JUMPDEST PUSH1 0x0 PUSH2 0x2959 PUSH1 0x17 DUP4 PUSH2 0x2918 JUMP JUMPDEST SWAP2 POP PUSH2 0x2964 DUP3 PUSH2 0x2923 JUMP JUMPDEST PUSH1 0x17 DUP3 ADD SWAP1 POP SWAP2 SWAP1 POP JUMP JUMPDEST PUSH1 0x0 PUSH2 0x297A DUP3 PUSH2 0x1D54 JUMP JUMPDEST PUSH2 0x2984 DUP2 DUP6 PUSH2 0x2918 JUMP JUMPDEST SWAP4 POP PUSH2 0x2994 DUP2 DUP6 PUSH1 0x20 DUP7 ADD PUSH2 0x1D70 JUMP JUMPDEST DUP1 DUP5 ADD SWAP2 POP POP SWAP3 SWAP2 POP POP JUMP JUMPDEST PUSH32 0x206973206D697373696E6720726F6C6520000000000000000000000000000000 PUSH1 0x0 DUP3 ADD MSTORE POP JUMP JUMPDEST PUSH1 0x0 PUSH2 0x29D6 PUSH1 0x11 DUP4 PUSH2 0x2918 JUMP JUMPDEST SWAP2 POP PUSH2 0x29E1 DUP3 PUSH2 0x29A0 JUMP JUMPDEST PUSH1 0x11 DUP3 ADD SWAP1 POP SWAP2 SWAP1 POP JUMP JUMPDEST PUSH1 0x0 PUSH2 0x29F7 DUP3 PUSH2 0x294C JUMP JUMPDEST SWAP2 POP PUSH2 0x2A03 DUP3 DUP6 PUSH2 0x296F JUMP JUMPDEST SWAP2 POP PUSH2 0x2A0E DUP3 PUSH2 0x29C9 JUMP JUMPDEST SWAP2 POP PUSH2 0x2A1A DUP3 DUP5 PUSH2 0x296F JUMP JUMPDEST SWAP2 POP DUP2 SWAP1 POP SWAP4 SWAP3 POP POP POP JUMP JUMPDEST PUSH32 0x4E487B7100000000000000000000000000000000000000000000000000000000 PUSH1 0x0 MSTORE PUSH1 0x32 PUSH1 0x4 MSTORE PUSH1 0x24 PUSH1 0x0 REVERT JUMPDEST PUSH1 0x0 PUSH2 0x2A60 DUP3 PUSH2 0x1E6D JUMP JUMPDEST SWAP2 POP PUSH2 0x2A6B DUP4 PUSH2 0x1E6D JUMP JUMPDEST SWAP3 POP DUP3 DUP3 LT ISZERO PUSH2 0x2A7E JUMPI PUSH2 0x2A7D PUSH2 0x232B JUMP JUMPDEST JUMPDEST DUP3 DUP3 SUB SWAP1 POP SWAP3 SWAP2 POP POP JUMP JUMPDEST PUSH32 0x4E487B7100000000000000000000000000000000000000000000000000000000 PUSH1 0x0 MSTORE PUSH1 0x31 PUSH1 0x4 MSTORE PUSH1 0x24 PUSH1 0x0 REVERT JUMPDEST PUSH1 0x0 PUSH2 0x2AC3 DUP3 PUSH2 0x1E6D JUMP JUMPDEST SWAP2 POP PUSH2 0x2ACE DUP4 PUSH2 0x1E6D JUMP JUMPDEST SWAP3 POP DUP2 PUSH32 0xFFFFFFFFFFFFFFFFFFFFFFFFFFFFFFFFFFFFFFFFFFFFFFFFFFFFFFFFFFFFFFFF DIV DUP4 GT DUP3 ISZERO ISZERO AND ISZERO PUSH2 0x2B07 JUMPI PUSH2 0x2B06 PUSH2 0x232B JUMP JUMPDEST JUMPDEST DUP3 DUP3 MUL SWAP1 POP SWAP3 SWAP2 POP POP JUMP JUMPDEST PUSH32 0x4E487B7100000000000000000000000000000000000000000000000000000000 PUSH1 0x0 MSTORE PUSH1 0x41 PUSH1 0x4 MSTORE PUSH1 0x24 PUSH1 0x0 REVERT JUMPDEST PUSH1 0x0 PUSH2 0x2B4C DUP3 PUSH2 0x1E6D JUMP JUMPDEST SWAP2 POP PUSH1 0x0 DUP3 SUB PUSH2 0x2B5F JUMPI PUSH2 0x2B5E PUSH2 0x232B JUMP JUMPDEST JUMPDEST PUSH1 0x1 DUP3 SUB SWAP1 POP SWAP2 SWAP1 POP JUMP JUMPDEST PUSH32 0x537472696E67733A20686578206C656E67746820696E73756666696369656E74 PUSH1 0x0 DUP3 ADD MSTORE POP JUMP JUMPDEST PUSH1 0x0 PUSH2 0x2BA0 PUSH1 0x20 DUP4 PUSH2 0x1D5F JUMP JUMPDEST SWAP2 POP PUSH2 0x2BAB DUP3 PUSH2 0x2B6A JUMP JUMPDEST PUSH1 0x20 DUP3 ADD SWAP1 POP SWAP2 SWAP1 POP JUMP JUMPDEST PUSH1 0x0 PUSH1 0x20 DUP3 ADD SWAP1 POP DUP2 DUP2 SUB PUSH1 0x0 DUP4 ADD MSTORE PUSH2 0x2BCF DUP2 PUSH2 0x2B93 JUMP JUMPDEST SWAP1 POP SWAP2 SWAP1 POP JUMP INVALID LOG2 PUSH5 0x6970667358 0x22 SLT KECCAK256 GT CALLDATALOAD MSTORE8 0xD5 DIFFICULTY PUSH3 0x740A16 0x5E 0xE8 SWAP6 DIV 0xE9 0xCA PUSH28 0x44063A6CC06BA26D7B47F275C040A5DA64736F6C634300080E003300 "
				},
				"gasEstimates": {
					"creation": {
						"codeDepositCost": "2255200",
						"executionCost": "infinite",
						"totalCost": "infinite"
					},
					"external": {
						"DEFAULT_ADMIN_ROLE()": "446",
						"MAX_TOKEN_COUNT()": "2517",
						"allowance(address,address)": "infinite",
						"approve(address,uint256)": "infinite",
						"balanceOf(address)": "2864",
						"decimals()": "410",
						"decreaseAllowance(address,uint256)": "infinite",
						"getRoleAdmin(bytes32)": "infinite",
						"getRoleMember(bytes32,uint256)": "infinite",
						"getRoleMemberCount(bytes32)": "2952",
						"grantRole(bytes32,address)": "infinite",
						"hasRole(bytes32,address)": "3207",
						"increaseAllowance(address,uint256)": "infinite",
						"name()": "infinite",
						"paused()": "2612",
						"pausedOptions()": "infinite",
						"revokeRole(bytes32,address)": "infinite",
						"supportsInterface(bytes4)": "840",
						"symbol()": "infinite",
						"totalSupply()": "2527",
						"transfer(address,uint256)": "infinite",
						"transferFrom(address,address,uint256)": "infinite",
						"unPausedOptions()": "infinite"
					},
					"internal": {
						"_afterTokenTransfer(address,address,uint256)": "15",
						"_approve(address,address,uint256)": "infinite",
						"_beforeTokenTransfer(address,address,uint256)": "15",
						"_burn(address,uint256)": "infinite",
						"_maxTokenCountSet(uint256)": "infinite",
						"_mint(address,uint256)": "infinite",
						"_transfer(address,address,uint256)": "infinite"
					}
				},
				"methodIdentifiers": {
					"DEFAULT_ADMIN_ROLE()": "a217fddf",
					"MAX_TOKEN_COUNT()": "d0bbb0d7",
					"allowance(address,address)": "dd62ed3e",
					"approve(address,uint256)": "095ea7b3",
					"balanceOf(address)": "70a08231",
					"decimals()": "313ce567",
					"decreaseAllowance(address,uint256)": "a457c2d7",
					"getRoleAdmin(bytes32)": "248a9ca3",
					"getRoleMember(bytes32,uint256)": "9010d07c",
					"getRoleMemberCount(bytes32)": "ca15c873",
					"grantRole(bytes32,address)": "2f2ff15d",
					"hasRole(bytes32,address)": "91d14854",
					"increaseAllowance(address,uint256)": "39509351",
					"name()": "06fdde03",
					"paused()": "5c975abb",
					"pausedOptions()": "5394a892",
					"revokeRole(bytes32,address)": "d547741f",
					"supportsInterface(bytes4)": "01ffc9a7",
					"symbol()": "95d89b41",
					"totalSupply()": "18160ddd",
					"transfer(address,uint256)": "a9059cbb",
					"transferFrom(address,address,uint256)": "23b872dd",
					"unPausedOptions()": "c6e858fe"
				}
			},
			"storageLayout": {
				"storage": [
					{
						"astId": 783,
						"contract": "ERC20/ERC20.sol:ERC20",
						"label": "_roles",
						"offset": 0,
						"slot": "0",
						"type": "t_mapping(t_bytes32,t_struct(RoleData)778_storage)"
					},
					{
						"astId": 1063,
						"contract": "ERC20/ERC20.sol:ERC20",
						"label": "_roleMembers",
						"offset": 0,
						"slot": "1",
						"type": "t_mapping(t_bytes32,t_struct(AddressSet)1985_storage)"
					},
					{
						"astId": 1338,
						"contract": "ERC20/ERC20.sol:ERC20",
						"label": "_paused",
						"offset": 0,
						"slot": "2",
						"type": "t_bool"
					},
					{
						"astId": 21,
						"contract": "ERC20/ERC20.sol:ERC20",
						"label": "_balances",
						"offset": 0,
						"slot": "3",
						"type": "t_mapping(t_address,t_uint256)"
					},
					{
						"astId": 27,
						"contract": "ERC20/ERC20.sol:ERC20",
						"label": "_allowances",
						"offset": 0,
						"slot": "4",
						"type": "t_mapping(t_address,t_mapping(t_address,t_uint256))"
					},
					{
						"astId": 29,
						"contract": "ERC20/ERC20.sol:ERC20",
						"label": "_totalSupply",
						"offset": 0,
						"slot": "5",
						"type": "t_uint256"
					},
					{
						"astId": 31,
						"contract": "ERC20/ERC20.sol:ERC20",
						"label": "_name",
						"offset": 0,
						"slot": "6",
						"type": "t_string_storage"
					},
					{
						"astId": 33,
						"contract": "ERC20/ERC20.sol:ERC20",
						"label": "_symbol",
						"offset": 0,
						"slot": "7",
						"type": "t_string_storage"
					},
					{
						"astId": 35,
						"contract": "ERC20/ERC20.sol:ERC20",
						"label": "MAX_TOKEN_COUNT",
						"offset": 0,
						"slot": "8",
						"type": "t_uint256"
					}
				],
				"types": {
					"t_address": {
						"encoding": "inplace",
						"label": "address",
						"numberOfBytes": "20"
					},
					"t_array(t_bytes32)dyn_storage": {
						"base": "t_bytes32",
						"encoding": "dynamic_array",
						"label": "bytes32[]",
						"numberOfBytes": "32"
					},
					"t_bool": {
						"encoding": "inplace",
						"label": "bool",
						"numberOfBytes": "1"
					},
					"t_bytes32": {
						"encoding": "inplace",
						"label": "bytes32",
						"numberOfBytes": "32"
					},
					"t_mapping(t_address,t_bool)": {
						"encoding": "mapping",
						"key": "t_address",
						"label": "mapping(address => bool)",
						"numberOfBytes": "32",
						"value": "t_bool"
					},
					"t_mapping(t_address,t_mapping(t_address,t_uint256))": {
						"encoding": "mapping",
						"key": "t_address",
						"label": "mapping(address => mapping(address => uint256))",
						"numberOfBytes": "32",
						"value": "t_mapping(t_address,t_uint256)"
					},
					"t_mapping(t_address,t_uint256)": {
						"encoding": "mapping",
						"key": "t_address",
						"label": "mapping(address => uint256)",
						"numberOfBytes": "32",
						"value": "t_uint256"
					},
					"t_mapping(t_bytes32,t_struct(AddressSet)1985_storage)": {
						"encoding": "mapping",
						"key": "t_bytes32",
						"label": "mapping(bytes32 => struct EnumerableSet.AddressSet)",
						"numberOfBytes": "32",
						"value": "t_struct(AddressSet)1985_storage"
					},
					"t_mapping(t_bytes32,t_struct(RoleData)778_storage)": {
						"encoding": "mapping",
						"key": "t_bytes32",
						"label": "mapping(bytes32 => struct AccessControl.RoleData)",
						"numberOfBytes": "32",
						"value": "t_struct(RoleData)778_storage"
					},
					"t_mapping(t_bytes32,t_uint256)": {
						"encoding": "mapping",
						"key": "t_bytes32",
						"label": "mapping(bytes32 => uint256)",
						"numberOfBytes": "32",
						"value": "t_uint256"
					},
					"t_string_storage": {
						"encoding": "bytes",
						"label": "string",
						"numberOfBytes": "32"
					},
					"t_struct(AddressSet)1985_storage": {
						"encoding": "inplace",
						"label": "struct EnumerableSet.AddressSet",
						"members": [
							{
								"astId": 1984,
								"contract": "ERC20/ERC20.sol:ERC20",
								"label": "_inner",
								"offset": 0,
								"slot": "0",
								"type": "t_struct(Set)1684_storage"
							}
						],
						"numberOfBytes": "64"
					},
					"t_struct(RoleData)778_storage": {
						"encoding": "inplace",
						"label": "struct AccessControl.RoleData",
						"members": [
							{
								"astId": 775,
								"contract": "ERC20/ERC20.sol:ERC20",
								"label": "members",
								"offset": 0,
								"slot": "0",
								"type": "t_mapping(t_address,t_bool)"
							},
							{
								"astId": 777,
								"contract": "ERC20/ERC20.sol:ERC20",
								"label": "adminRole",
								"offset": 0,
								"slot": "1",
								"type": "t_bytes32"
							}
						],
						"numberOfBytes": "64"
					},
					"t_struct(Set)1684_storage": {
						"encoding": "inplace",
						"label": "struct EnumerableSet.Set",
						"members": [
							{
								"astId": 1679,
								"contract": "ERC20/ERC20.sol:ERC20",
								"label": "_values",
								"offset": 0,
								"slot": "0",
								"type": "t_array(t_bytes32)dyn_storage"
							},
							{
								"astId": 1683,
								"contract": "ERC20/ERC20.sol:ERC20",
								"label": "_indexes",
								"offset": 0,
								"slot": "1",
								"type": "t_mapping(t_bytes32,t_uint256)"
							}
						],
						"numberOfBytes": "64"
					},
					"t_uint256": {
						"encoding": "inplace",
						"label": "uint256",
						"numberOfBytes": "32"
					}
				}
			},
			"userdoc": {
				"kind": "user",
				"methods": {},
				"version": 1
			}
		}
	}
}